{
	"contracts/TwitterStruct.sol": {
		"Twitter": {
			"abi": [
				{
					"inputs": [],
					"stateMutability": "nonpayable",
					"type": "constructor"
				},
				{
					"anonymous": false,
					"inputs": [
						{
							"indexed": false,
							"internalType": "uint256",
							"name": "id",
							"type": "uint256"
						},
						{
							"indexed": false,
							"internalType": "address",
							"name": "auther",
							"type": "address"
						},
						{
							"indexed": false,
							"internalType": "string",
							"name": "content",
							"type": "string"
						},
						{
							"indexed": false,
							"internalType": "uint256",
							"name": "timestamp",
							"type": "uint256"
						}
					],
					"name": "tweetCreated",
					"type": "event"
				},
				{
					"anonymous": false,
					"inputs": [
						{
							"indexed": false,
							"internalType": "address",
							"name": "liker",
							"type": "address"
						},
						{
							"indexed": false,
							"internalType": "uint256",
							"name": "id",
							"type": "uint256"
						},
						{
							"indexed": false,
							"internalType": "address",
							"name": "auther",
							"type": "address"
						},
						{
							"indexed": false,
							"internalType": "uint256",
							"name": "likes",
							"type": "uint256"
						}
					],
					"name": "tweetLiked",
					"type": "event"
				},
				{
					"anonymous": false,
					"inputs": [
						{
							"indexed": false,
							"internalType": "address",
							"name": "unliker",
							"type": "address"
						},
						{
							"indexed": false,
							"internalType": "uint256",
							"name": "id",
							"type": "uint256"
						},
						{
							"indexed": false,
							"internalType": "address",
							"name": "auther",
							"type": "address"
						},
						{
							"indexed": false,
							"internalType": "uint256",
							"name": "likes",
							"type": "uint256"
						}
					],
					"name": "tweetUnLiked",
					"type": "event"
				},
				{
					"inputs": [
						{
							"internalType": "uint256",
							"name": "_length",
							"type": "uint256"
						}
					],
					"name": "changeTweetLength",
					"outputs": [],
					"stateMutability": "nonpayable",
					"type": "function"
				},
				{
					"inputs": [
						{
							"internalType": "string",
							"name": "_tweet",
							"type": "string"
						}
					],
					"name": "createTweet",
					"outputs": [],
					"stateMutability": "nonpayable",
					"type": "function"
				},
				{
					"inputs": [],
					"name": "getAllTweet",
					"outputs": [
						{
							"components": [
								{
									"internalType": "uint256",
									"name": "id",
									"type": "uint256"
								},
								{
									"internalType": "address",
									"name": "auther",
									"type": "address"
								},
								{
									"internalType": "string",
									"name": "content",
									"type": "string"
								},
								{
									"internalType": "uint256",
									"name": "timestamp",
									"type": "uint256"
								},
								{
									"internalType": "uint256",
									"name": "likes",
									"type": "uint256"
								}
							],
							"internalType": "struct Twitter.Tweet[]",
							"name": "",
							"type": "tuple[]"
						}
					],
					"stateMutability": "view",
					"type": "function"
				},
				{
					"inputs": [
						{
							"internalType": "uint256",
							"name": "_i",
							"type": "uint256"
						}
					],
					"name": "getTweet",
					"outputs": [
						{
							"components": [
								{
									"internalType": "uint256",
									"name": "id",
									"type": "uint256"
								},
								{
									"internalType": "address",
									"name": "auther",
									"type": "address"
								},
								{
									"internalType": "string",
									"name": "content",
									"type": "string"
								},
								{
									"internalType": "uint256",
									"name": "timestamp",
									"type": "uint256"
								},
								{
									"internalType": "uint256",
									"name": "likes",
									"type": "uint256"
								}
							],
							"internalType": "struct Twitter.Tweet",
							"name": "",
							"type": "tuple"
						}
					],
					"stateMutability": "view",
					"type": "function"
				},
				{
					"inputs": [
						{
							"internalType": "address",
							"name": "auther",
							"type": "address"
						},
						{
							"internalType": "uint256",
							"name": "_id",
							"type": "uint256"
						}
					],
					"name": "likeTweet",
					"outputs": [],
					"stateMutability": "nonpayable",
					"type": "function"
				},
				{
					"inputs": [],
					"name": "owner",
					"outputs": [
						{
							"internalType": "address",
							"name": "",
							"type": "address"
						}
					],
					"stateMutability": "view",
					"type": "function"
				},
				{
					"inputs": [
						{
							"internalType": "address",
							"name": "",
							"type": "address"
						},
						{
							"internalType": "uint256",
							"name": "",
							"type": "uint256"
						}
					],
					"name": "tweets",
					"outputs": [
						{
							"internalType": "uint256",
							"name": "id",
							"type": "uint256"
						},
						{
							"internalType": "address",
							"name": "auther",
							"type": "address"
						},
						{
							"internalType": "string",
							"name": "content",
							"type": "string"
						},
						{
							"internalType": "uint256",
							"name": "timestamp",
							"type": "uint256"
						},
						{
							"internalType": "uint256",
							"name": "likes",
							"type": "uint256"
						}
					],
					"stateMutability": "view",
					"type": "function"
				},
				{
					"inputs": [
						{
							"internalType": "address",
							"name": "auther",
							"type": "address"
						},
						{
							"internalType": "uint256",
							"name": "_id",
							"type": "uint256"
						}
					],
					"name": "unLikeTweet",
					"outputs": [],
					"stateMutability": "nonpayable",
					"type": "function"
				}
			],
			"devdoc": {
				"kind": "dev",
				"methods": {},
				"version": 1
			},
			"evm": {
				"assembly": "    /* \"contracts/TwitterStruct.sol\":58:2411  contract Twitter {... */\n  mstore(0x40, 0x80)\n    /* \"contracts/TwitterStruct.sol\":617:698  constructor() {... */\n  callvalue\n  dup1\n  iszero\n  tag_1\n  jumpi\n  0x00\n  dup1\n  revert\ntag_1:\n  pop\n    /* \"contracts/TwitterStruct.sol\":649:659  msg.sender */\n  caller\n    /* \"contracts/TwitterStruct.sol\":641:646  owner */\n  0x00\n  dup1\n    /* \"contracts/TwitterStruct.sol\":641:659  owner = msg.sender */\n  0x0100\n  exp\n  dup2\n  sload\n  dup2\n  0xffffffffffffffffffffffffffffffffffffffff\n  mul\n  not\n  and\n  swap1\n  dup4\n  0xffffffffffffffffffffffffffffffffffffffff\n  and\n  mul\n  or\n  swap1\n  sstore\n  pop\n    /* \"contracts/TwitterStruct.sol\":688:691  280 */\n  0x0118\n    /* \"contracts/TwitterStruct.sol\":669:685  MAX_TWEET_LENGTH */\n  0x01\n    /* \"contracts/TwitterStruct.sol\":669:691  MAX_TWEET_LENGTH = 280 */\n  dup2\n  swap1\n  sstore\n  pop\n    /* \"contracts/TwitterStruct.sol\":58:2411  contract Twitter {... */\n  dataSize(sub_0)\n  dup1\n  dataOffset(sub_0)\n  0x00\n  codecopy\n  0x00\n  return\nstop\n\nsub_0: assembly {\n        /* \"contracts/TwitterStruct.sol\":58:2411  contract Twitter {... */\n      mstore(0x40, 0x80)\n      callvalue\n      dup1\n      iszero\n      tag_1\n      jumpi\n      0x00\n      dup1\n      revert\n    tag_1:\n      pop\n      jumpi(tag_2, lt(calldatasize, 0x04))\n      shr(0xe0, calldataload(0x00))\n      dup1\n      0x888a7880\n      gt\n      tag_11\n      jumpi\n      dup1\n      0x888a7880\n      eq\n      tag_7\n      jumpi\n      dup1\n      0x8da5cb5b\n      eq\n      tag_8\n      jumpi\n      dup1\n      0x9ef8633f\n      eq\n      tag_9\n      jumpi\n      dup1\n      0xc3ad5ecb\n      eq\n      tag_10\n      jumpi\n      jump(tag_2)\n    tag_11:\n      dup1\n      0x05a1b4a9\n      eq\n      tag_3\n      jumpi\n      dup1\n      0x63378216\n      eq\n      tag_4\n      jumpi\n      dup1\n      0x675e0fb7\n      eq\n      tag_5\n      jumpi\n      dup1\n      0x7c9cd2bc\n      eq\n      tag_6\n      jumpi\n    tag_2:\n      0x00\n      dup1\n      revert\n        /* \"contracts/TwitterStruct.sol\":281:322  mapping(address => Tweet[]) public tweets */\n    tag_3:\n      tag_12\n      0x04\n      dup1\n      calldatasize\n      sub\n      dup2\n      add\n      swap1\n      tag_13\n      swap2\n      swap1\n      tag_14\n      jump\t// in\n    tag_13:\n      tag_15\n      jump\t// in\n    tag_12:\n      mload(0x40)\n      tag_16\n      swap6\n      swap5\n      swap4\n      swap3\n      swap2\n      swap1\n      tag_17\n      jump\t// in\n    tag_16:\n      mload(0x40)\n      dup1\n      swap2\n      sub\n      swap1\n      return\n        /* \"contracts/TwitterStruct.sol\":1605:1855  function likeTweet(address auther, uint256 _id) external {... */\n    tag_4:\n      tag_18\n      0x04\n      dup1\n      calldatasize\n      sub\n      dup2\n      add\n      swap1\n      tag_19\n      swap2\n      swap1\n      tag_14\n      jump\t// in\n    tag_19:\n      tag_20\n      jump\t// in\n    tag_18:\n      stop\n        /* \"contracts/TwitterStruct.sol\":2307:2409  function getAllTweet() public view returns (Tweet[] memory) {... */\n    tag_5:\n      tag_21\n      tag_22\n      jump\t// in\n    tag_21:\n      mload(0x40)\n      tag_23\n      swap2\n      swap1\n      tag_24\n      jump\t// in\n    tag_23:\n      mload(0x40)\n      dup1\n      swap2\n      sub\n      swap1\n      return\n        /* \"contracts/TwitterStruct.sol\":922:1599  function createTweet(string memory _tweet) public {... */\n    tag_6:\n      tag_25\n      0x04\n      dup1\n      calldatasize\n      sub\n      dup2\n      add\n      swap1\n      tag_26\n      swap2\n      swap1\n      tag_27\n      jump\t// in\n    tag_26:\n      tag_28\n      jump\t// in\n    tag_25:\n      stop\n        /* \"contracts/TwitterStruct.sol\":812:916  function changeTweetLength(uint256 _length) public onlyOwner {... */\n    tag_7:\n      tag_29\n      0x04\n      dup1\n      calldatasize\n      sub\n      dup2\n      add\n      swap1\n      tag_30\n      swap2\n      swap1\n      tag_31\n      jump\t// in\n    tag_30:\n      tag_32\n      jump\t// in\n    tag_29:\n      stop\n        /* \"contracts/TwitterStruct.sol\":81:101  address public owner */\n    tag_8:\n      tag_33\n      tag_34\n      jump\t// in\n    tag_33:\n      mload(0x40)\n      tag_35\n      swap2\n      swap1\n      tag_36\n      jump\t// in\n    tag_35:\n      mload(0x40)\n      dup1\n      swap2\n      sub\n      swap1\n      return\n        /* \"contracts/TwitterStruct.sol\":1861:2184  function unLikeTweet(address auther, uint256 _id) external {... */\n    tag_9:\n      tag_37\n      0x04\n      dup1\n      calldatasize\n      sub\n      dup2\n      add\n      swap1\n      tag_38\n      swap2\n      swap1\n      tag_14\n      jump\t// in\n    tag_38:\n      tag_39\n      jump\t// in\n    tag_37:\n      stop\n        /* \"contracts/TwitterStruct.sol\":2190:2301  function getTweet(uint256 _i) public view returns (Tweet memory) {... */\n    tag_10:\n      tag_40\n      0x04\n      dup1\n      calldatasize\n      sub\n      dup2\n      add\n      swap1\n      tag_41\n      swap2\n      swap1\n      tag_31\n      jump\t// in\n    tag_41:\n      tag_42\n      jump\t// in\n    tag_40:\n      mload(0x40)\n      tag_43\n      swap2\n      swap1\n      tag_44\n      jump\t// in\n    tag_43:\n      mload(0x40)\n      dup1\n      swap2\n      sub\n      swap1\n      return\n        /* \"contracts/TwitterStruct.sol\":281:322  mapping(address => Tweet[]) public tweets */\n    tag_15:\n      mstore(0x20, 0x02)\n      dup2\n      0x00\n      mstore\n      keccak256(0x00, 0x40)\n      dup2\n      dup2\n      sload\n      dup2\n      lt\n      tag_45\n      jumpi\n      0x00\n      dup1\n      revert\n    tag_45:\n      swap1\n      0x00\n      mstore\n      keccak256(0x00, 0x20)\n      swap1\n      0x05\n      mul\n      add\n      0x00\n      swap2\n      pop\n      swap2\n      pop\n      pop\n      dup1\n      0x00\n      add\n      sload\n      swap1\n      dup1\n      0x01\n      add\n      0x00\n      swap1\n      sload\n      swap1\n      0x0100\n      exp\n      swap1\n      div\n      0xffffffffffffffffffffffffffffffffffffffff\n      and\n      swap1\n      dup1\n      0x02\n      add\n      dup1\n      sload\n      tag_47\n      swap1\n      tag_48\n      jump\t// in\n    tag_47:\n      dup1\n      0x1f\n      add\n      0x20\n      dup1\n      swap2\n      div\n      mul\n      0x20\n      add\n      mload(0x40)\n      swap1\n      dup2\n      add\n      0x40\n      mstore\n      dup1\n      swap3\n      swap2\n      swap1\n      dup2\n      dup2\n      mstore\n      0x20\n      add\n      dup3\n      dup1\n      sload\n      tag_49\n      swap1\n      tag_48\n      jump\t// in\n    tag_49:\n      dup1\n      iszero\n      tag_50\n      jumpi\n      dup1\n      0x1f\n      lt\n      tag_51\n      jumpi\n      0x0100\n      dup1\n      dup4\n      sload\n      div\n      mul\n      dup4\n      mstore\n      swap2\n      0x20\n      add\n      swap2\n      jump(tag_50)\n    tag_51:\n      dup3\n      add\n      swap2\n      swap1\n      0x00\n      mstore\n      keccak256(0x00, 0x20)\n      swap1\n    tag_52:\n      dup2\n      sload\n      dup2\n      mstore\n      swap1\n      0x01\n      add\n      swap1\n      0x20\n      add\n      dup1\n      dup4\n      gt\n      tag_52\n      jumpi\n      dup3\n      swap1\n      sub\n      0x1f\n      and\n      dup3\n      add\n      swap2\n    tag_50:\n      pop\n      pop\n      pop\n      pop\n      pop\n      swap1\n      dup1\n      0x03\n      add\n      sload\n      swap1\n      dup1\n      0x04\n      add\n      sload\n      swap1\n      pop\n      dup6\n      jump\t// out\n        /* \"contracts/TwitterStruct.sol\":1605:1855  function likeTweet(address auther, uint256 _id) external {... */\n    tag_20:\n        /* \"contracts/TwitterStruct.sol\":1706:1709  _id */\n      dup1\n        /* \"contracts/TwitterStruct.sol\":1680:1686  tweets */\n      0x02\n        /* \"contracts/TwitterStruct.sol\":1680:1694  tweets[auther] */\n      0x00\n        /* \"contracts/TwitterStruct.sol\":1687:1693  auther */\n      dup5\n        /* \"contracts/TwitterStruct.sol\":1680:1694  tweets[auther] */\n      0xffffffffffffffffffffffffffffffffffffffff\n      and\n      0xffffffffffffffffffffffffffffffffffffffff\n      and\n      dup2\n      mstore\n      0x20\n      add\n      swap1\n      dup2\n      mstore\n      0x20\n      add\n      0x00\n      keccak256\n        /* \"contracts/TwitterStruct.sol\":1695:1698  _id */\n      dup3\n        /* \"contracts/TwitterStruct.sol\":1680:1699  tweets[auther][_id] */\n      dup2\n      sload\n      dup2\n      lt\n      tag_54\n      jumpi\n      tag_55\n      tag_56\n      jump\t// in\n    tag_55:\n    tag_54:\n      swap1\n      0x00\n      mstore\n      keccak256(0x00, 0x20)\n      swap1\n      0x05\n      mul\n      add\n        /* \"contracts/TwitterStruct.sol\":1680:1702  tweets[auther][_id].id */\n      0x00\n      add\n      sload\n        /* \"contracts/TwitterStruct.sol\":1680:1709  tweets[auther][_id].id == _id */\n      eq\n        /* \"contracts/TwitterStruct.sol\":1672:1734  require(tweets[auther][_id].id == _id, \"Tweet does not exist\") */\n      tag_58\n      jumpi\n      mload(0x40)\n      0x08c379a000000000000000000000000000000000000000000000000000000000\n      dup2\n      mstore\n      0x04\n      add\n      tag_59\n      swap1\n      tag_60\n      jump\t// in\n    tag_59:\n      mload(0x40)\n      dup1\n      swap2\n      sub\n      swap1\n      revert\n    tag_58:\n        /* \"contracts/TwitterStruct.sol\":1744:1750  tweets */\n      0x02\n        /* \"contracts/TwitterStruct.sol\":1744:1758  tweets[auther] */\n      0x00\n        /* \"contracts/TwitterStruct.sol\":1751:1757  auther */\n      dup4\n        /* \"contracts/TwitterStruct.sol\":1744:1758  tweets[auther] */\n      0xffffffffffffffffffffffffffffffffffffffff\n      and\n      0xffffffffffffffffffffffffffffffffffffffff\n      and\n      dup2\n      mstore\n      0x20\n      add\n      swap1\n      dup2\n      mstore\n      0x20\n      add\n      0x00\n      keccak256\n        /* \"contracts/TwitterStruct.sol\":1759:1762  _id */\n      dup2\n        /* \"contracts/TwitterStruct.sol\":1744:1763  tweets[auther][_id] */\n      dup2\n      sload\n      dup2\n      lt\n      tag_61\n      jumpi\n      tag_62\n      tag_56\n      jump\t// in\n    tag_62:\n    tag_61:\n      swap1\n      0x00\n      mstore\n      keccak256(0x00, 0x20)\n      swap1\n      0x05\n      mul\n      add\n        /* \"contracts/TwitterStruct.sol\":1744:1769  tweets[auther][_id].likes */\n      0x04\n      add\n      0x00\n        /* \"contracts/TwitterStruct.sol\":1744:1771  tweets[auther][_id].likes++ */\n      dup2\n      sload\n      dup1\n      swap3\n      swap2\n      swap1\n      tag_64\n      swap1\n      tag_65\n      jump\t// in\n    tag_64:\n      swap2\n      swap1\n      pop\n      sstore\n      pop\n        /* \"contracts/TwitterStruct.sol\":1786:1848  tweetLiked(msg.sender, _id, auther, tweets[auther][_id].likes) */\n      0x5bd959f96efc2338d934ab72127be36035ff98de2f1584d2951239db17662d21\n        /* \"contracts/TwitterStruct.sol\":1797:1807  msg.sender */\n      caller\n        /* \"contracts/TwitterStruct.sol\":1809:1812  _id */\n      dup3\n        /* \"contracts/TwitterStruct.sol\":1814:1820  auther */\n      dup5\n        /* \"contracts/TwitterStruct.sol\":1822:1828  tweets */\n      0x02\n        /* \"contracts/TwitterStruct.sol\":1822:1836  tweets[auther] */\n      0x00\n        /* \"contracts/TwitterStruct.sol\":1829:1835  auther */\n      dup8\n        /* \"contracts/TwitterStruct.sol\":1822:1836  tweets[auther] */\n      0xffffffffffffffffffffffffffffffffffffffff\n      and\n      0xffffffffffffffffffffffffffffffffffffffff\n      and\n      dup2\n      mstore\n      0x20\n      add\n      swap1\n      dup2\n      mstore\n      0x20\n      add\n      0x00\n      keccak256\n        /* \"contracts/TwitterStruct.sol\":1837:1840  _id */\n      dup6\n        /* \"contracts/TwitterStruct.sol\":1822:1841  tweets[auther][_id] */\n      dup2\n      sload\n      dup2\n      lt\n      tag_66\n      jumpi\n      tag_67\n      tag_56\n      jump\t// in\n    tag_67:\n    tag_66:\n      swap1\n      0x00\n      mstore\n      keccak256(0x00, 0x20)\n      swap1\n      0x05\n      mul\n      add\n        /* \"contracts/TwitterStruct.sol\":1822:1847  tweets[auther][_id].likes */\n      0x04\n      add\n      sload\n        /* \"contracts/TwitterStruct.sol\":1786:1848  tweetLiked(msg.sender, _id, auther, tweets[auther][_id].likes) */\n      mload(0x40)\n      tag_69\n      swap5\n      swap4\n      swap3\n      swap2\n      swap1\n      tag_70\n      jump\t// in\n    tag_69:\n      mload(0x40)\n      dup1\n      swap2\n      sub\n      swap1\n      log1\n        /* \"contracts/TwitterStruct.sol\":1605:1855  function likeTweet(address auther, uint256 _id) external {... */\n      pop\n      pop\n      jump\t// out\n        /* \"contracts/TwitterStruct.sol\":2307:2409  function getAllTweet() public view returns (Tweet[] memory) {... */\n    tag_22:\n        /* \"contracts/TwitterStruct.sol\":2351:2365  Tweet[] memory */\n      0x60\n        /* \"contracts/TwitterStruct.sol\":2384:2390  tweets */\n      0x02\n        /* \"contracts/TwitterStruct.sol\":2384:2402  tweets[msg.sender] */\n      0x00\n        /* \"contracts/TwitterStruct.sol\":2391:2401  msg.sender */\n      caller\n        /* \"contracts/TwitterStruct.sol\":2384:2402  tweets[msg.sender] */\n      0xffffffffffffffffffffffffffffffffffffffff\n      and\n      0xffffffffffffffffffffffffffffffffffffffff\n      and\n      dup2\n      mstore\n      0x20\n      add\n      swap1\n      dup2\n      mstore\n      0x20\n      add\n      0x00\n      keccak256\n        /* \"contracts/TwitterStruct.sol\":2377:2402  return tweets[msg.sender] */\n      dup1\n      sload\n      dup1\n      0x20\n      mul\n      0x20\n      add\n      mload(0x40)\n      swap1\n      dup2\n      add\n      0x40\n      mstore\n      dup1\n      swap3\n      swap2\n      swap1\n      dup2\n      dup2\n      mstore\n      0x20\n      add\n      0x00\n      swap1\n    tag_72:\n      dup3\n      dup3\n      lt\n      iszero\n      tag_73\n      jumpi\n      dup4\n      dup3\n      swap1\n      0x00\n      mstore\n      keccak256(0x00, 0x20)\n      swap1\n      0x05\n      mul\n      add\n      mload(0x40)\n      dup1\n      0xa0\n      add\n      0x40\n      mstore\n      swap1\n      dup2\n      0x00\n      dup3\n      add\n      sload\n      dup2\n      mstore\n      0x20\n      add\n      0x01\n      dup3\n      add\n      0x00\n      swap1\n      sload\n      swap1\n      0x0100\n      exp\n      swap1\n      div\n      0xffffffffffffffffffffffffffffffffffffffff\n      and\n      0xffffffffffffffffffffffffffffffffffffffff\n      and\n      0xffffffffffffffffffffffffffffffffffffffff\n      and\n      dup2\n      mstore\n      0x20\n      add\n      0x02\n      dup3\n      add\n      dup1\n      sload\n      tag_75\n      swap1\n      tag_48\n      jump\t// in\n    tag_75:\n      dup1\n      0x1f\n      add\n      0x20\n      dup1\n      swap2\n      div\n      mul\n      0x20\n      add\n      mload(0x40)\n      swap1\n      dup2\n      add\n      0x40\n      mstore\n      dup1\n      swap3\n      swap2\n      swap1\n      dup2\n      dup2\n      mstore\n      0x20\n      add\n      dup3\n      dup1\n      sload\n      tag_76\n      swap1\n      tag_48\n      jump\t// in\n    tag_76:\n      dup1\n      iszero\n      tag_77\n      jumpi\n      dup1\n      0x1f\n      lt\n      tag_78\n      jumpi\n      0x0100\n      dup1\n      dup4\n      sload\n      div\n      mul\n      dup4\n      mstore\n      swap2\n      0x20\n      add\n      swap2\n      jump(tag_77)\n    tag_78:\n      dup3\n      add\n      swap2\n      swap1\n      0x00\n      mstore\n      keccak256(0x00, 0x20)\n      swap1\n    tag_79:\n      dup2\n      sload\n      dup2\n      mstore\n      swap1\n      0x01\n      add\n      swap1\n      0x20\n      add\n      dup1\n      dup4\n      gt\n      tag_79\n      jumpi\n      dup3\n      swap1\n      sub\n      0x1f\n      and\n      dup3\n      add\n      swap2\n    tag_77:\n      pop\n      pop\n      pop\n      pop\n      pop\n      dup2\n      mstore\n      0x20\n      add\n      0x03\n      dup3\n      add\n      sload\n      dup2\n      mstore\n      0x20\n      add\n      0x04\n      dup3\n      add\n      sload\n      dup2\n      mstore\n      pop\n      pop\n      dup2\n      mstore\n      0x20\n      add\n      swap1\n      0x01\n      add\n      swap1\n      jump(tag_72)\n    tag_73:\n      pop\n      pop\n      pop\n      pop\n      swap1\n      pop\n        /* \"contracts/TwitterStruct.sol\":2307:2409  function getAllTweet() public view returns (Tweet[] memory) {... */\n      swap1\n      jump\t// out\n        /* \"contracts/TwitterStruct.sol\":922:1599  function createTweet(string memory _tweet) public {... */\n    tag_28:\n        /* \"contracts/TwitterStruct.sol\":1140:1156  MAX_TWEET_LENGTH */\n      sload(0x01)\n        /* \"contracts/TwitterStruct.sol\":1122:1128  _tweet */\n      dup2\n        /* \"contracts/TwitterStruct.sol\":1116:1136  bytes(_tweet).length */\n      mload\n        /* \"contracts/TwitterStruct.sol\":1116:1156  bytes(_tweet).length <= MAX_TWEET_LENGTH */\n      gt\n      iszero\n        /* \"contracts/TwitterStruct.sol\":1108:1178  require(bytes(_tweet).length <= MAX_TWEET_LENGTH, \"Tweet is too long\") */\n      tag_81\n      jumpi\n      mload(0x40)\n      0x08c379a000000000000000000000000000000000000000000000000000000000\n      dup2\n      mstore\n      0x04\n      add\n      tag_82\n      swap1\n      tag_83\n      jump\t// in\n    tag_82:\n      mload(0x40)\n      dup1\n      swap2\n      sub\n      swap1\n      revert\n    tag_81:\n        /* \"contracts/TwitterStruct.sol\":1188:1209  Tweet memory newTweet */\n      0x00\n        /* \"contracts/TwitterStruct.sol\":1212:1395  Tweet({... */\n      mload(0x40)\n      dup1\n      0xa0\n      add\n      0x40\n      mstore\n      dup1\n        /* \"contracts/TwitterStruct.sol\":1236:1242  tweets */\n      0x02\n        /* \"contracts/TwitterStruct.sol\":1236:1254  tweets[msg.sender] */\n      0x00\n        /* \"contracts/TwitterStruct.sol\":1243:1253  msg.sender */\n      caller\n        /* \"contracts/TwitterStruct.sol\":1236:1254  tweets[msg.sender] */\n      0xffffffffffffffffffffffffffffffffffffffff\n      and\n      0xffffffffffffffffffffffffffffffffffffffff\n      and\n      dup2\n      mstore\n      0x20\n      add\n      swap1\n      dup2\n      mstore\n      0x20\n      add\n      0x00\n      keccak256\n        /* \"contracts/TwitterStruct.sol\":1236:1261  tweets[msg.sender].length */\n      dup1\n      sload\n      swap1\n      pop\n        /* \"contracts/TwitterStruct.sol\":1212:1395  Tweet({... */\n      dup2\n      mstore\n      0x20\n      add\n        /* \"contracts/TwitterStruct.sol\":1283:1293  msg.sender */\n      caller\n        /* \"contracts/TwitterStruct.sol\":1212:1395  Tweet({... */\n      0xffffffffffffffffffffffffffffffffffffffff\n      and\n      dup2\n      mstore\n      0x20\n      add\n        /* \"contracts/TwitterStruct.sol\":1316:1322  _tweet */\n      dup4\n        /* \"contracts/TwitterStruct.sol\":1212:1395  Tweet({... */\n      dup2\n      mstore\n      0x20\n      add\n        /* \"contracts/TwitterStruct.sol\":1347:1362  block.timestamp */\n      timestamp\n        /* \"contracts/TwitterStruct.sol\":1212:1395  Tweet({... */\n      dup2\n      mstore\n      0x20\n      add\n        /* \"contracts/TwitterStruct.sol\":1383:1384  0 */\n      0x00\n        /* \"contracts/TwitterStruct.sol\":1212:1395  Tweet({... */\n      dup2\n      mstore\n      pop\n        /* \"contracts/TwitterStruct.sol\":1188:1395  Tweet memory newTweet = Tweet({... */\n      swap1\n      pop\n        /* \"contracts/TwitterStruct.sol\":1406:1412  tweets */\n      0x02\n        /* \"contracts/TwitterStruct.sol\":1406:1424  tweets[msg.sender] */\n      0x00\n        /* \"contracts/TwitterStruct.sol\":1413:1423  msg.sender */\n      caller\n        /* \"contracts/TwitterStruct.sol\":1406:1424  tweets[msg.sender] */\n      0xffffffffffffffffffffffffffffffffffffffff\n      and\n      0xffffffffffffffffffffffffffffffffffffffff\n      and\n      dup2\n      mstore\n      0x20\n      add\n      swap1\n      dup2\n      mstore\n      0x20\n      add\n      0x00\n      keccak256\n        /* \"contracts/TwitterStruct.sol\":1430:1438  newTweet */\n      dup2\n        /* \"contracts/TwitterStruct.sol\":1406:1439  tweets[msg.sender].push(newTweet) */\n      swap1\n      dup1\n      0x01\n      dup2\n      sload\n      add\n      dup1\n      dup3\n      sstore\n      dup1\n      swap2\n      pop\n      pop\n      0x01\n      swap1\n      sub\n      swap1\n      0x00\n      mstore\n      keccak256(0x00, 0x20)\n      swap1\n      0x05\n      mul\n      add\n      0x00\n      swap1\n      swap2\n      swap1\n      swap2\n      swap1\n      swap2\n      pop\n      0x00\n      dup3\n      add\n      mload\n      dup2\n      0x00\n      add\n      sstore\n      0x20\n      dup3\n      add\n      mload\n      dup2\n      0x01\n      add\n      exp(0x0100, 0x00)\n      dup2\n      sload\n      dup2\n      0xffffffffffffffffffffffffffffffffffffffff\n      mul\n      not\n      and\n      swap1\n      dup4\n      0xffffffffffffffffffffffffffffffffffffffff\n      and\n      mul\n      or\n      swap1\n      sstore\n      pop\n      0x40\n      dup3\n      add\n      mload\n      dup2\n      0x02\n      add\n      swap1\n      dup2\n      tag_85\n      swap2\n      swap1\n      tag_86\n      jump\t// in\n    tag_85:\n      pop\n      0x60\n      dup3\n      add\n      mload\n      dup2\n      0x03\n      add\n      sstore\n      0x80\n      dup3\n      add\n      mload\n      dup2\n      0x04\n      add\n      sstore\n      pop\n      pop\n        /* \"contracts/TwitterStruct.sol\":1454:1592  tweetCreated(... */\n      0x6e5546a74a8ef6731872256d3bbbf86208675b875b179abed63f4ed747a30cfb\n        /* \"contracts/TwitterStruct.sol\":1480:1488  newTweet */\n      dup2\n        /* \"contracts/TwitterStruct.sol\":1480:1491  newTweet.id */\n      0x00\n      add\n      mload\n        /* \"contracts/TwitterStruct.sol\":1505:1513  newTweet */\n      dup3\n        /* \"contracts/TwitterStruct.sol\":1505:1520  newTweet.auther */\n      0x20\n      add\n      mload\n        /* \"contracts/TwitterStruct.sol\":1534:1542  newTweet */\n      dup4\n        /* \"contracts/TwitterStruct.sol\":1534:1550  newTweet.content */\n      0x40\n      add\n      mload\n        /* \"contracts/TwitterStruct.sol\":1564:1572  newTweet */\n      dup5\n        /* \"contracts/TwitterStruct.sol\":1564:1582  newTweet.timestamp */\n      0x60\n      add\n      mload\n        /* \"contracts/TwitterStruct.sol\":1454:1592  tweetCreated(... */\n      mload(0x40)\n      tag_87\n      swap5\n      swap4\n      swap3\n      swap2\n      swap1\n      tag_88\n      jump\t// in\n    tag_87:\n      mload(0x40)\n      dup1\n      swap2\n      sub\n      swap1\n      log1\n        /* \"contracts/TwitterStruct.sol\":972:1599  {... */\n      pop\n        /* \"contracts/TwitterStruct.sol\":922:1599  function createTweet(string memory _tweet) public {... */\n      pop\n      jump\t// out\n        /* \"contracts/TwitterStruct.sol\":812:916  function changeTweetLength(uint256 _length) public onlyOwner {... */\n    tag_32:\n        /* \"contracts/TwitterStruct.sol\":757:762  owner */\n      0x00\n      dup1\n      sload\n      swap1\n      0x0100\n      exp\n      swap1\n      div\n      0xffffffffffffffffffffffffffffffffffffffff\n      and\n        /* \"contracts/TwitterStruct.sol\":743:762  msg.sender == owner */\n      0xffffffffffffffffffffffffffffffffffffffff\n      and\n        /* \"contracts/TwitterStruct.sol\":743:753  msg.sender */\n      caller\n        /* \"contracts/TwitterStruct.sol\":743:762  msg.sender == owner */\n      0xffffffffffffffffffffffffffffffffffffffff\n      and\n      eq\n        /* \"contracts/TwitterStruct.sol\":735:788  require(msg.sender == owner, \"You are not the owner\") */\n      tag_90\n      jumpi\n      mload(0x40)\n      0x08c379a000000000000000000000000000000000000000000000000000000000\n      dup2\n      mstore\n      0x04\n      add\n      tag_91\n      swap1\n      tag_92\n      jump\t// in\n    tag_91:\n      mload(0x40)\n      dup1\n      swap2\n      sub\n      swap1\n      revert\n    tag_90:\n        /* \"contracts/TwitterStruct.sol\":902:909  _length */\n      dup1\n        /* \"contracts/TwitterStruct.sol\":883:899  MAX_TWEET_LENGTH */\n      0x01\n        /* \"contracts/TwitterStruct.sol\":883:909  MAX_TWEET_LENGTH = _length */\n      dup2\n      swap1\n      sstore\n      pop\n        /* \"contracts/TwitterStruct.sol\":812:916  function changeTweetLength(uint256 _length) public onlyOwner {... */\n      pop\n      jump\t// out\n        /* \"contracts/TwitterStruct.sol\":81:101  address public owner */\n    tag_34:\n      0x00\n      dup1\n      sload\n      swap1\n      0x0100\n      exp\n      swap1\n      div\n      0xffffffffffffffffffffffffffffffffffffffff\n      and\n      dup2\n      jump\t// out\n        /* \"contracts/TwitterStruct.sol\":1861:2184  function unLikeTweet(address auther, uint256 _id) external {... */\n    tag_39:\n        /* \"contracts/TwitterStruct.sol\":1964:1967  _id */\n      dup1\n        /* \"contracts/TwitterStruct.sol\":1938:1944  tweets */\n      0x02\n        /* \"contracts/TwitterStruct.sol\":1938:1952  tweets[auther] */\n      0x00\n        /* \"contracts/TwitterStruct.sol\":1945:1951  auther */\n      dup5\n        /* \"contracts/TwitterStruct.sol\":1938:1952  tweets[auther] */\n      0xffffffffffffffffffffffffffffffffffffffff\n      and\n      0xffffffffffffffffffffffffffffffffffffffff\n      and\n      dup2\n      mstore\n      0x20\n      add\n      swap1\n      dup2\n      mstore\n      0x20\n      add\n      0x00\n      keccak256\n        /* \"contracts/TwitterStruct.sol\":1953:1956  _id */\n      dup3\n        /* \"contracts/TwitterStruct.sol\":1938:1957  tweets[auther][_id] */\n      dup2\n      sload\n      dup2\n      lt\n      tag_95\n      jumpi\n      tag_96\n      tag_56\n      jump\t// in\n    tag_96:\n    tag_95:\n      swap1\n      0x00\n      mstore\n      keccak256(0x00, 0x20)\n      swap1\n      0x05\n      mul\n      add\n        /* \"contracts/TwitterStruct.sol\":1938:1960  tweets[auther][_id].id */\n      0x00\n      add\n      sload\n        /* \"contracts/TwitterStruct.sol\":1938:1967  tweets[auther][_id].id == _id */\n      eq\n        /* \"contracts/TwitterStruct.sol\":1930:1992  require(tweets[auther][_id].id == _id, \"Tweet does not exist\") */\n      tag_98\n      jumpi\n      mload(0x40)\n      0x08c379a000000000000000000000000000000000000000000000000000000000\n      dup2\n      mstore\n      0x04\n      add\n      tag_99\n      swap1\n      tag_60\n      jump\t// in\n    tag_99:\n      mload(0x40)\n      dup1\n      swap2\n      sub\n      swap1\n      revert\n    tag_98:\n        /* \"contracts/TwitterStruct.sol\":2038:2039  0 */\n      0x00\n        /* \"contracts/TwitterStruct.sol\":2010:2016  tweets */\n      0x02\n        /* \"contracts/TwitterStruct.sol\":2010:2024  tweets[auther] */\n      0x00\n        /* \"contracts/TwitterStruct.sol\":2017:2023  auther */\n      dup5\n        /* \"contracts/TwitterStruct.sol\":2010:2024  tweets[auther] */\n      0xffffffffffffffffffffffffffffffffffffffff\n      and\n      0xffffffffffffffffffffffffffffffffffffffff\n      and\n      dup2\n      mstore\n      0x20\n      add\n      swap1\n      dup2\n      mstore\n      0x20\n      add\n      0x00\n      keccak256\n        /* \"contracts/TwitterStruct.sol\":2025:2028  _id */\n      dup3\n        /* \"contracts/TwitterStruct.sol\":2010:2029  tweets[auther][_id] */\n      dup2\n      sload\n      dup2\n      lt\n      tag_100\n      jumpi\n      tag_101\n      tag_56\n      jump\t// in\n    tag_101:\n    tag_100:\n      swap1\n      0x00\n      mstore\n      keccak256(0x00, 0x20)\n      swap1\n      0x05\n      mul\n      add\n        /* \"contracts/TwitterStruct.sol\":2010:2035  tweets[auther][_id].likes */\n      0x04\n      add\n      sload\n        /* \"contracts/TwitterStruct.sol\":2010:2039  tweets[auther][_id].likes > 0 */\n      gt\n        /* \"contracts/TwitterStruct.sol\":2002:2062  require(tweets[auther][_id].likes > 0, \"Tweet has no likes\") */\n      tag_103\n      jumpi\n      mload(0x40)\n      0x08c379a000000000000000000000000000000000000000000000000000000000\n      dup2\n      mstore\n      0x04\n      add\n      tag_104\n      swap1\n      tag_105\n      jump\t// in\n    tag_104:\n      mload(0x40)\n      dup1\n      swap2\n      sub\n      swap1\n      revert\n    tag_103:\n        /* \"contracts/TwitterStruct.sol\":2073:2079  tweets */\n      0x02\n        /* \"contracts/TwitterStruct.sol\":2073:2087  tweets[auther] */\n      0x00\n        /* \"contracts/TwitterStruct.sol\":2080:2086  auther */\n      dup4\n        /* \"contracts/TwitterStruct.sol\":2073:2087  tweets[auther] */\n      0xffffffffffffffffffffffffffffffffffffffff\n      and\n      0xffffffffffffffffffffffffffffffffffffffff\n      and\n      dup2\n      mstore\n      0x20\n      add\n      swap1\n      dup2\n      mstore\n      0x20\n      add\n      0x00\n      keccak256\n        /* \"contracts/TwitterStruct.sol\":2088:2091  _id */\n      dup2\n        /* \"contracts/TwitterStruct.sol\":2073:2092  tweets[auther][_id] */\n      dup2\n      sload\n      dup2\n      lt\n      tag_106\n      jumpi\n      tag_107\n      tag_56\n      jump\t// in\n    tag_107:\n    tag_106:\n      swap1\n      0x00\n      mstore\n      keccak256(0x00, 0x20)\n      swap1\n      0x05\n      mul\n      add\n        /* \"contracts/TwitterStruct.sol\":2073:2098  tweets[auther][_id].likes */\n      0x04\n      add\n      0x00\n        /* \"contracts/TwitterStruct.sol\":2073:2100  tweets[auther][_id].likes-- */\n      dup2\n      sload\n      dup1\n      swap3\n      swap2\n      swap1\n      tag_109\n      swap1\n      tag_110\n      jump\t// in\n    tag_109:\n      swap2\n      swap1\n      pop\n      sstore\n      pop\n        /* \"contracts/TwitterStruct.sol\":2115:2177  tweetLiked(msg.sender, _id, auther, tweets[auther][_id].likes) */\n      0x5bd959f96efc2338d934ab72127be36035ff98de2f1584d2951239db17662d21\n        /* \"contracts/TwitterStruct.sol\":2126:2136  msg.sender */\n      caller\n        /* \"contracts/TwitterStruct.sol\":2138:2141  _id */\n      dup3\n        /* \"contracts/TwitterStruct.sol\":2143:2149  auther */\n      dup5\n        /* \"contracts/TwitterStruct.sol\":2151:2157  tweets */\n      0x02\n        /* \"contracts/TwitterStruct.sol\":2151:2165  tweets[auther] */\n      0x00\n        /* \"contracts/TwitterStruct.sol\":2158:2164  auther */\n      dup8\n        /* \"contracts/TwitterStruct.sol\":2151:2165  tweets[auther] */\n      0xffffffffffffffffffffffffffffffffffffffff\n      and\n      0xffffffffffffffffffffffffffffffffffffffff\n      and\n      dup2\n      mstore\n      0x20\n      add\n      swap1\n      dup2\n      mstore\n      0x20\n      add\n      0x00\n      keccak256\n        /* \"contracts/TwitterStruct.sol\":2166:2169  _id */\n      dup6\n        /* \"contracts/TwitterStruct.sol\":2151:2170  tweets[auther][_id] */\n      dup2\n      sload\n      dup2\n      lt\n      tag_111\n      jumpi\n      tag_112\n      tag_56\n      jump\t// in\n    tag_112:\n    tag_111:\n      swap1\n      0x00\n      mstore\n      keccak256(0x00, 0x20)\n      swap1\n      0x05\n      mul\n      add\n        /* \"contracts/TwitterStruct.sol\":2151:2176  tweets[auther][_id].likes */\n      0x04\n      add\n      sload\n        /* \"contracts/TwitterStruct.sol\":2115:2177  tweetLiked(msg.sender, _id, auther, tweets[auther][_id].likes) */\n      mload(0x40)\n      tag_114\n      swap5\n      swap4\n      swap3\n      swap2\n      swap1\n      tag_70\n      jump\t// in\n    tag_114:\n      mload(0x40)\n      dup1\n      swap2\n      sub\n      swap1\n      log1\n        /* \"contracts/TwitterStruct.sol\":1861:2184  function unLikeTweet(address auther, uint256 _id) external {... */\n      pop\n      pop\n      jump\t// out\n        /* \"contracts/TwitterStruct.sol\":2190:2301  function getTweet(uint256 _i) public view returns (Tweet memory) {... */\n    tag_42:\n        /* \"contracts/TwitterStruct.sol\":2241:2253  Tweet memory */\n      tag_115\n      tag_116\n      jump\t// in\n    tag_115:\n        /* \"contracts/TwitterStruct.sol\":2272:2278  tweets */\n      0x02\n        /* \"contracts/TwitterStruct.sol\":2272:2290  tweets[msg.sender] */\n      0x00\n        /* \"contracts/TwitterStruct.sol\":2279:2289  msg.sender */\n      caller\n        /* \"contracts/TwitterStruct.sol\":2272:2290  tweets[msg.sender] */\n      0xffffffffffffffffffffffffffffffffffffffff\n      and\n      0xffffffffffffffffffffffffffffffffffffffff\n      and\n      dup2\n      mstore\n      0x20\n      add\n      swap1\n      dup2\n      mstore\n      0x20\n      add\n      0x00\n      keccak256\n        /* \"contracts/TwitterStruct.sol\":2291:2293  _i */\n      dup3\n        /* \"contracts/TwitterStruct.sol\":2272:2294  tweets[msg.sender][_i] */\n      dup2\n      sload\n      dup2\n      lt\n      tag_118\n      jumpi\n      tag_119\n      tag_56\n      jump\t// in\n    tag_119:\n    tag_118:\n      swap1\n      0x00\n      mstore\n      keccak256(0x00, 0x20)\n      swap1\n      0x05\n      mul\n      add\n        /* \"contracts/TwitterStruct.sol\":2265:2294  return tweets[msg.sender][_i] */\n      mload(0x40)\n      dup1\n      0xa0\n      add\n      0x40\n      mstore\n      swap1\n      dup2\n      0x00\n      dup3\n      add\n      sload\n      dup2\n      mstore\n      0x20\n      add\n      0x01\n      dup3\n      add\n      0x00\n      swap1\n      sload\n      swap1\n      0x0100\n      exp\n      swap1\n      div\n      0xffffffffffffffffffffffffffffffffffffffff\n      and\n      0xffffffffffffffffffffffffffffffffffffffff\n      and\n      0xffffffffffffffffffffffffffffffffffffffff\n      and\n      dup2\n      mstore\n      0x20\n      add\n      0x02\n      dup3\n      add\n      dup1\n      sload\n      tag_121\n      swap1\n      tag_48\n      jump\t// in\n    tag_121:\n      dup1\n      0x1f\n      add\n      0x20\n      dup1\n      swap2\n      div\n      mul\n      0x20\n      add\n      mload(0x40)\n      swap1\n      dup2\n      add\n      0x40\n      mstore\n      dup1\n      swap3\n      swap2\n      swap1\n      dup2\n      dup2\n      mstore\n      0x20\n      add\n      dup3\n      dup1\n      sload\n      tag_122\n      swap1\n      tag_48\n      jump\t// in\n    tag_122:\n      dup1\n      iszero\n      tag_123\n      jumpi\n      dup1\n      0x1f\n      lt\n      tag_124\n      jumpi\n      0x0100\n      dup1\n      dup4\n      sload\n      div\n      mul\n      dup4\n      mstore\n      swap2\n      0x20\n      add\n      swap2\n      jump(tag_123)\n    tag_124:\n      dup3\n      add\n      swap2\n      swap1\n      0x00\n      mstore\n      keccak256(0x00, 0x20)\n      swap1\n    tag_125:\n      dup2\n      sload\n      dup2\n      mstore\n      swap1\n      0x01\n      add\n      swap1\n      0x20\n      add\n      dup1\n      dup4\n      gt\n      tag_125\n      jumpi\n      dup3\n      swap1\n      sub\n      0x1f\n      and\n      dup3\n      add\n      swap2\n    tag_123:\n      pop\n      pop\n      pop\n      pop\n      pop\n      dup2\n      mstore\n      0x20\n      add\n      0x03\n      dup3\n      add\n      sload\n      dup2\n      mstore\n      0x20\n      add\n      0x04\n      dup3\n      add\n      sload\n      dup2\n      mstore\n      pop\n      pop\n      swap1\n      pop\n        /* \"contracts/TwitterStruct.sol\":2190:2301  function getTweet(uint256 _i) public view returns (Tweet memory) {... */\n      swap2\n      swap1\n      pop\n      jump\t// out\n    tag_116:\n      mload(0x40)\n      dup1\n      0xa0\n      add\n      0x40\n      mstore\n      dup1\n      0x00\n      dup2\n      mstore\n      0x20\n      add\n      and(0xffffffffffffffffffffffffffffffffffffffff, 0x00)\n      dup2\n      mstore\n      0x20\n      add\n      0x60\n      dup2\n      mstore\n      0x20\n      add\n      0x00\n      dup2\n      mstore\n      0x20\n      add\n      0x00\n      dup2\n      mstore\n      pop\n      swap1\n      jump\t// out\n        /* \"#utility.yul\":7:82   */\n    tag_126:\n        /* \"#utility.yul\":40:46   */\n      0x00\n        /* \"#utility.yul\":73:75   */\n      0x40\n        /* \"#utility.yul\":67:76   */\n      mload\n        /* \"#utility.yul\":57:76   */\n      swap1\n      pop\n        /* \"#utility.yul\":7:82   */\n      swap1\n      jump\t// out\n        /* \"#utility.yul\":88:205   */\n    tag_127:\n        /* \"#utility.yul\":197:198   */\n      0x00\n        /* \"#utility.yul\":194:195   */\n      dup1\n        /* \"#utility.yul\":187:199   */\n      revert\n        /* \"#utility.yul\":211:328   */\n    tag_128:\n        /* \"#utility.yul\":320:321   */\n      0x00\n        /* \"#utility.yul\":317:318   */\n      dup1\n        /* \"#utility.yul\":310:322   */\n      revert\n        /* \"#utility.yul\":334:460   */\n    tag_129:\n        /* \"#utility.yul\":371:378   */\n      0x00\n        /* \"#utility.yul\":411:453   */\n      0xffffffffffffffffffffffffffffffffffffffff\n        /* \"#utility.yul\":404:409   */\n      dup3\n        /* \"#utility.yul\":400:454   */\n      and\n        /* \"#utility.yul\":389:454   */\n      swap1\n      pop\n        /* \"#utility.yul\":334:460   */\n      swap2\n      swap1\n      pop\n      jump\t// out\n        /* \"#utility.yul\":466:562   */\n    tag_130:\n        /* \"#utility.yul\":503:510   */\n      0x00\n        /* \"#utility.yul\":532:556   */\n      tag_195\n        /* \"#utility.yul\":550:555   */\n      dup3\n        /* \"#utility.yul\":532:556   */\n      tag_129\n      jump\t// in\n    tag_195:\n        /* \"#utility.yul\":521:556   */\n      swap1\n      pop\n        /* \"#utility.yul\":466:562   */\n      swap2\n      swap1\n      pop\n      jump\t// out\n        /* \"#utility.yul\":568:690   */\n    tag_131:\n        /* \"#utility.yul\":641:665   */\n      tag_197\n        /* \"#utility.yul\":659:664   */\n      dup2\n        /* \"#utility.yul\":641:665   */\n      tag_130\n      jump\t// in\n    tag_197:\n        /* \"#utility.yul\":634:639   */\n      dup2\n        /* \"#utility.yul\":631:666   */\n      eq\n        /* \"#utility.yul\":621:684   */\n      tag_198\n      jumpi\n        /* \"#utility.yul\":680:681   */\n      0x00\n        /* \"#utility.yul\":677:678   */\n      dup1\n        /* \"#utility.yul\":670:682   */\n      revert\n        /* \"#utility.yul\":621:684   */\n    tag_198:\n        /* \"#utility.yul\":568:690   */\n      pop\n      jump\t// out\n        /* \"#utility.yul\":696:835   */\n    tag_132:\n        /* \"#utility.yul\":742:747   */\n      0x00\n        /* \"#utility.yul\":780:786   */\n      dup2\n        /* \"#utility.yul\":767:787   */\n      calldataload\n        /* \"#utility.yul\":758:787   */\n      swap1\n      pop\n        /* \"#utility.yul\":796:829   */\n      tag_200\n        /* \"#utility.yul\":823:828   */\n      dup2\n        /* \"#utility.yul\":796:829   */\n      tag_131\n      jump\t// in\n    tag_200:\n        /* \"#utility.yul\":696:835   */\n      swap3\n      swap2\n      pop\n      pop\n      jump\t// out\n        /* \"#utility.yul\":841:918   */\n    tag_133:\n        /* \"#utility.yul\":878:885   */\n      0x00\n        /* \"#utility.yul\":907:912   */\n      dup2\n        /* \"#utility.yul\":896:912   */\n      swap1\n      pop\n        /* \"#utility.yul\":841:918   */\n      swap2\n      swap1\n      pop\n      jump\t// out\n        /* \"#utility.yul\":924:1046   */\n    tag_134:\n        /* \"#utility.yul\":997:1021   */\n      tag_203\n        /* \"#utility.yul\":1015:1020   */\n      dup2\n        /* \"#utility.yul\":997:1021   */\n      tag_133\n      jump\t// in\n    tag_203:\n        /* \"#utility.yul\":990:995   */\n      dup2\n        /* \"#utility.yul\":987:1022   */\n      eq\n        /* \"#utility.yul\":977:1040   */\n      tag_204\n      jumpi\n        /* \"#utility.yul\":1036:1037   */\n      0x00\n        /* \"#utility.yul\":1033:1034   */\n      dup1\n        /* \"#utility.yul\":1026:1038   */\n      revert\n        /* \"#utility.yul\":977:1040   */\n    tag_204:\n        /* \"#utility.yul\":924:1046   */\n      pop\n      jump\t// out\n        /* \"#utility.yul\":1052:1191   */\n    tag_135:\n        /* \"#utility.yul\":1098:1103   */\n      0x00\n        /* \"#utility.yul\":1136:1142   */\n      dup2\n        /* \"#utility.yul\":1123:1143   */\n      calldataload\n        /* \"#utility.yul\":1114:1143   */\n      swap1\n      pop\n        /* \"#utility.yul\":1152:1185   */\n      tag_206\n        /* \"#utility.yul\":1179:1184   */\n      dup2\n        /* \"#utility.yul\":1152:1185   */\n      tag_134\n      jump\t// in\n    tag_206:\n        /* \"#utility.yul\":1052:1191   */\n      swap3\n      swap2\n      pop\n      pop\n      jump\t// out\n        /* \"#utility.yul\":1197:1671   */\n    tag_14:\n        /* \"#utility.yul\":1265:1271   */\n      0x00\n        /* \"#utility.yul\":1273:1279   */\n      dup1\n        /* \"#utility.yul\":1322:1324   */\n      0x40\n        /* \"#utility.yul\":1310:1319   */\n      dup4\n        /* \"#utility.yul\":1301:1308   */\n      dup6\n        /* \"#utility.yul\":1297:1320   */\n      sub\n        /* \"#utility.yul\":1293:1325   */\n      slt\n        /* \"#utility.yul\":1290:1409   */\n      iszero\n      tag_208\n      jumpi\n        /* \"#utility.yul\":1328:1407   */\n      tag_209\n      tag_127\n      jump\t// in\n    tag_209:\n        /* \"#utility.yul\":1290:1409   */\n    tag_208:\n        /* \"#utility.yul\":1448:1449   */\n      0x00\n        /* \"#utility.yul\":1473:1526   */\n      tag_210\n        /* \"#utility.yul\":1518:1525   */\n      dup6\n        /* \"#utility.yul\":1509:1515   */\n      dup3\n        /* \"#utility.yul\":1498:1507   */\n      dup7\n        /* \"#utility.yul\":1494:1516   */\n      add\n        /* \"#utility.yul\":1473:1526   */\n      tag_132\n      jump\t// in\n    tag_210:\n        /* \"#utility.yul\":1463:1526   */\n      swap3\n      pop\n        /* \"#utility.yul\":1419:1536   */\n      pop\n        /* \"#utility.yul\":1575:1577   */\n      0x20\n        /* \"#utility.yul\":1601:1654   */\n      tag_211\n        /* \"#utility.yul\":1646:1653   */\n      dup6\n        /* \"#utility.yul\":1637:1643   */\n      dup3\n        /* \"#utility.yul\":1626:1635   */\n      dup7\n        /* \"#utility.yul\":1622:1644   */\n      add\n        /* \"#utility.yul\":1601:1654   */\n      tag_135\n      jump\t// in\n    tag_211:\n        /* \"#utility.yul\":1591:1654   */\n      swap2\n      pop\n        /* \"#utility.yul\":1546:1664   */\n      pop\n        /* \"#utility.yul\":1197:1671   */\n      swap3\n      pop\n      swap3\n      swap1\n      pop\n      jump\t// out\n        /* \"#utility.yul\":1677:1795   */\n    tag_136:\n        /* \"#utility.yul\":1764:1788   */\n      tag_213\n        /* \"#utility.yul\":1782:1787   */\n      dup2\n        /* \"#utility.yul\":1764:1788   */\n      tag_133\n      jump\t// in\n    tag_213:\n        /* \"#utility.yul\":1759:1762   */\n      dup3\n        /* \"#utility.yul\":1752:1789   */\n      mstore\n        /* \"#utility.yul\":1677:1795   */\n      pop\n      pop\n      jump\t// out\n        /* \"#utility.yul\":1801:1919   */\n    tag_137:\n        /* \"#utility.yul\":1888:1912   */\n      tag_215\n        /* \"#utility.yul\":1906:1911   */\n      dup2\n        /* \"#utility.yul\":1888:1912   */\n      tag_130\n      jump\t// in\n    tag_215:\n        /* \"#utility.yul\":1883:1886   */\n      dup3\n        /* \"#utility.yul\":1876:1913   */\n      mstore\n        /* \"#utility.yul\":1801:1919   */\n      pop\n      pop\n      jump\t// out\n        /* \"#utility.yul\":1925:2024   */\n    tag_138:\n        /* \"#utility.yul\":1977:1983   */\n      0x00\n        /* \"#utility.yul\":2011:2016   */\n      dup2\n        /* \"#utility.yul\":2005:2017   */\n      mload\n        /* \"#utility.yul\":1995:2017   */\n      swap1\n      pop\n        /* \"#utility.yul\":1925:2024   */\n      swap2\n      swap1\n      pop\n      jump\t// out\n        /* \"#utility.yul\":2030:2199   */\n    tag_139:\n        /* \"#utility.yul\":2114:2125   */\n      0x00\n        /* \"#utility.yul\":2148:2154   */\n      dup3\n        /* \"#utility.yul\":2143:2146   */\n      dup3\n        /* \"#utility.yul\":2136:2155   */\n      mstore\n        /* \"#utility.yul\":2188:2192   */\n      0x20\n        /* \"#utility.yul\":2183:2186   */\n      dup3\n        /* \"#utility.yul\":2179:2193   */\n      add\n        /* \"#utility.yul\":2164:2193   */\n      swap1\n      pop\n        /* \"#utility.yul\":2030:2199   */\n      swap3\n      swap2\n      pop\n      pop\n      jump\t// out\n        /* \"#utility.yul\":2205:2344   */\n    tag_140:\n        /* \"#utility.yul\":2294:2300   */\n      dup3\n        /* \"#utility.yul\":2289:2292   */\n      dup2\n        /* \"#utility.yul\":2284:2287   */\n      dup4\n        /* \"#utility.yul\":2278:2301   */\n      mcopy\n        /* \"#utility.yul\":2335:2336   */\n      0x00\n        /* \"#utility.yul\":2326:2332   */\n      dup4\n        /* \"#utility.yul\":2321:2324   */\n      dup4\n        /* \"#utility.yul\":2317:2333   */\n      add\n        /* \"#utility.yul\":2310:2337   */\n      mstore\n        /* \"#utility.yul\":2205:2344   */\n      pop\n      pop\n      pop\n      jump\t// out\n        /* \"#utility.yul\":2350:2452   */\n    tag_141:\n        /* \"#utility.yul\":2391:2397   */\n      0x00\n        /* \"#utility.yul\":2442:2444   */\n      0x1f\n        /* \"#utility.yul\":2438:2445   */\n      not\n        /* \"#utility.yul\":2433:2435   */\n      0x1f\n        /* \"#utility.yul\":2426:2431   */\n      dup4\n        /* \"#utility.yul\":2422:2436   */\n      add\n        /* \"#utility.yul\":2418:2446   */\n      and\n        /* \"#utility.yul\":2408:2446   */\n      swap1\n      pop\n        /* \"#utility.yul\":2350:2452   */\n      swap2\n      swap1\n      pop\n      jump\t// out\n        /* \"#utility.yul\":2458:2835   */\n    tag_142:\n        /* \"#utility.yul\":2546:2549   */\n      0x00\n        /* \"#utility.yul\":2574:2613   */\n      tag_221\n        /* \"#utility.yul\":2607:2612   */\n      dup3\n        /* \"#utility.yul\":2574:2613   */\n      tag_138\n      jump\t// in\n    tag_221:\n        /* \"#utility.yul\":2629:2700   */\n      tag_222\n        /* \"#utility.yul\":2693:2699   */\n      dup2\n        /* \"#utility.yul\":2688:2691   */\n      dup6\n        /* \"#utility.yul\":2629:2700   */\n      tag_139\n      jump\t// in\n    tag_222:\n        /* \"#utility.yul\":2622:2700   */\n      swap4\n      pop\n        /* \"#utility.yul\":2709:2774   */\n      tag_223\n        /* \"#utility.yul\":2767:2773   */\n      dup2\n        /* \"#utility.yul\":2762:2765   */\n      dup6\n        /* \"#utility.yul\":2755:2759   */\n      0x20\n        /* \"#utility.yul\":2748:2753   */\n      dup7\n        /* \"#utility.yul\":2744:2760   */\n      add\n        /* \"#utility.yul\":2709:2774   */\n      tag_140\n      jump\t// in\n    tag_223:\n        /* \"#utility.yul\":2799:2828   */\n      tag_224\n        /* \"#utility.yul\":2821:2827   */\n      dup2\n        /* \"#utility.yul\":2799:2828   */\n      tag_141\n      jump\t// in\n    tag_224:\n        /* \"#utility.yul\":2794:2797   */\n      dup5\n        /* \"#utility.yul\":2790:2829   */\n      add\n        /* \"#utility.yul\":2783:2829   */\n      swap2\n      pop\n        /* \"#utility.yul\":2550:2835   */\n      pop\n        /* \"#utility.yul\":2458:2835   */\n      swap3\n      swap2\n      pop\n      pop\n      jump\t// out\n        /* \"#utility.yul\":2841:3596   */\n    tag_17:\n        /* \"#utility.yul\":3066:3070   */\n      0x00\n        /* \"#utility.yul\":3104:3107   */\n      0xa0\n        /* \"#utility.yul\":3093:3102   */\n      dup3\n        /* \"#utility.yul\":3089:3108   */\n      add\n        /* \"#utility.yul\":3081:3108   */\n      swap1\n      pop\n        /* \"#utility.yul\":3118:3189   */\n      tag_226\n        /* \"#utility.yul\":3186:3187   */\n      0x00\n        /* \"#utility.yul\":3175:3184   */\n      dup4\n        /* \"#utility.yul\":3171:3188   */\n      add\n        /* \"#utility.yul\":3162:3168   */\n      dup9\n        /* \"#utility.yul\":3118:3189   */\n      tag_136\n      jump\t// in\n    tag_226:\n        /* \"#utility.yul\":3199:3271   */\n      tag_227\n        /* \"#utility.yul\":3267:3269   */\n      0x20\n        /* \"#utility.yul\":3256:3265   */\n      dup4\n        /* \"#utility.yul\":3252:3270   */\n      add\n        /* \"#utility.yul\":3243:3249   */\n      dup8\n        /* \"#utility.yul\":3199:3271   */\n      tag_137\n      jump\t// in\n    tag_227:\n        /* \"#utility.yul\":3318:3327   */\n      dup2\n        /* \"#utility.yul\":3312:3316   */\n      dup2\n        /* \"#utility.yul\":3308:3328   */\n      sub\n        /* \"#utility.yul\":3303:3305   */\n      0x40\n        /* \"#utility.yul\":3292:3301   */\n      dup4\n        /* \"#utility.yul\":3288:3306   */\n      add\n        /* \"#utility.yul\":3281:3329   */\n      mstore\n        /* \"#utility.yul\":3346:3424   */\n      tag_228\n        /* \"#utility.yul\":3419:3423   */\n      dup2\n        /* \"#utility.yul\":3410:3416   */\n      dup7\n        /* \"#utility.yul\":3346:3424   */\n      tag_142\n      jump\t// in\n    tag_228:\n        /* \"#utility.yul\":3338:3424   */\n      swap1\n      pop\n        /* \"#utility.yul\":3434:3506   */\n      tag_229\n        /* \"#utility.yul\":3502:3504   */\n      0x60\n        /* \"#utility.yul\":3491:3500   */\n      dup4\n        /* \"#utility.yul\":3487:3505   */\n      add\n        /* \"#utility.yul\":3478:3484   */\n      dup6\n        /* \"#utility.yul\":3434:3506   */\n      tag_136\n      jump\t// in\n    tag_229:\n        /* \"#utility.yul\":3516:3589   */\n      tag_230\n        /* \"#utility.yul\":3584:3587   */\n      0x80\n        /* \"#utility.yul\":3573:3582   */\n      dup4\n        /* \"#utility.yul\":3569:3588   */\n      add\n        /* \"#utility.yul\":3560:3566   */\n      dup5\n        /* \"#utility.yul\":3516:3589   */\n      tag_136\n      jump\t// in\n    tag_230:\n        /* \"#utility.yul\":2841:3596   */\n      swap7\n      swap6\n      pop\n      pop\n      pop\n      pop\n      pop\n      pop\n      jump\t// out\n        /* \"#utility.yul\":3602:3737   */\n    tag_143:\n        /* \"#utility.yul\":3690:3696   */\n      0x00\n        /* \"#utility.yul\":3724:3729   */\n      dup2\n        /* \"#utility.yul\":3718:3730   */\n      mload\n        /* \"#utility.yul\":3708:3730   */\n      swap1\n      pop\n        /* \"#utility.yul\":3602:3737   */\n      swap2\n      swap1\n      pop\n      jump\t// out\n        /* \"#utility.yul\":3743:3948   */\n    tag_144:\n        /* \"#utility.yul\":3863:3874   */\n      0x00\n        /* \"#utility.yul\":3897:3903   */\n      dup3\n        /* \"#utility.yul\":3892:3895   */\n      dup3\n        /* \"#utility.yul\":3885:3904   */\n      mstore\n        /* \"#utility.yul\":3937:3941   */\n      0x20\n        /* \"#utility.yul\":3932:3935   */\n      dup3\n        /* \"#utility.yul\":3928:3942   */\n      add\n        /* \"#utility.yul\":3913:3942   */\n      swap1\n      pop\n        /* \"#utility.yul\":3743:3948   */\n      swap3\n      swap2\n      pop\n      pop\n      jump\t// out\n        /* \"#utility.yul\":3954:4107   */\n    tag_145:\n        /* \"#utility.yul\":4042:4046   */\n      0x00\n        /* \"#utility.yul\":4065:4068   */\n      dup2\n        /* \"#utility.yul\":4057:4068   */\n      swap1\n      pop\n        /* \"#utility.yul\":4095:4099   */\n      0x20\n        /* \"#utility.yul\":4090:4093   */\n      dup3\n        /* \"#utility.yul\":4086:4100   */\n      add\n        /* \"#utility.yul\":4078:4100   */\n      swap1\n      pop\n        /* \"#utility.yul\":3954:4107   */\n      swap2\n      swap1\n      pop\n      jump\t// out\n        /* \"#utility.yul\":4113:4221   */\n    tag_146:\n        /* \"#utility.yul\":4190:4214   */\n      tag_235\n        /* \"#utility.yul\":4208:4213   */\n      dup2\n        /* \"#utility.yul\":4190:4214   */\n      tag_133\n      jump\t// in\n    tag_235:\n        /* \"#utility.yul\":4185:4188   */\n      dup3\n        /* \"#utility.yul\":4178:4215   */\n      mstore\n        /* \"#utility.yul\":4113:4221   */\n      pop\n      pop\n      jump\t// out\n        /* \"#utility.yul\":4227:4335   */\n    tag_147:\n        /* \"#utility.yul\":4304:4328   */\n      tag_237\n        /* \"#utility.yul\":4322:4327   */\n      dup2\n        /* \"#utility.yul\":4304:4328   */\n      tag_130\n      jump\t// in\n    tag_237:\n        /* \"#utility.yul\":4299:4302   */\n      dup3\n        /* \"#utility.yul\":4292:4329   */\n      mstore\n        /* \"#utility.yul\":4227:4335   */\n      pop\n      pop\n      jump\t// out\n        /* \"#utility.yul\":4341:4500   */\n    tag_148:\n        /* \"#utility.yul\":4415:4426   */\n      0x00\n        /* \"#utility.yul\":4449:4455   */\n      dup3\n        /* \"#utility.yul\":4444:4447   */\n      dup3\n        /* \"#utility.yul\":4437:4456   */\n      mstore\n        /* \"#utility.yul\":4489:4493   */\n      0x20\n        /* \"#utility.yul\":4484:4487   */\n      dup3\n        /* \"#utility.yul\":4480:4494   */\n      add\n        /* \"#utility.yul\":4465:4494   */\n      swap1\n      pop\n        /* \"#utility.yul\":4341:4500   */\n      swap3\n      swap2\n      pop\n      pop\n      jump\t// out\n        /* \"#utility.yul\":4506:4863   */\n    tag_149:\n        /* \"#utility.yul\":4584:4587   */\n      0x00\n        /* \"#utility.yul\":4612:4651   */\n      tag_240\n        /* \"#utility.yul\":4645:4650   */\n      dup3\n        /* \"#utility.yul\":4612:4651   */\n      tag_138\n      jump\t// in\n    tag_240:\n        /* \"#utility.yul\":4667:4728   */\n      tag_241\n        /* \"#utility.yul\":4721:4727   */\n      dup2\n        /* \"#utility.yul\":4716:4719   */\n      dup6\n        /* \"#utility.yul\":4667:4728   */\n      tag_148\n      jump\t// in\n    tag_241:\n        /* \"#utility.yul\":4660:4728   */\n      swap4\n      pop\n        /* \"#utility.yul\":4737:4802   */\n      tag_242\n        /* \"#utility.yul\":4795:4801   */\n      dup2\n        /* \"#utility.yul\":4790:4793   */\n      dup6\n        /* \"#utility.yul\":4783:4787   */\n      0x20\n        /* \"#utility.yul\":4776:4781   */\n      dup7\n        /* \"#utility.yul\":4772:4788   */\n      add\n        /* \"#utility.yul\":4737:4802   */\n      tag_140\n      jump\t// in\n    tag_242:\n        /* \"#utility.yul\":4827:4856   */\n      tag_243\n        /* \"#utility.yul\":4849:4855   */\n      dup2\n        /* \"#utility.yul\":4827:4856   */\n      tag_141\n      jump\t// in\n    tag_243:\n        /* \"#utility.yul\":4822:4825   */\n      dup5\n        /* \"#utility.yul\":4818:4857   */\n      add\n        /* \"#utility.yul\":4811:4857   */\n      swap2\n      pop\n        /* \"#utility.yul\":4588:4863   */\n      pop\n        /* \"#utility.yul\":4506:4863   */\n      swap3\n      swap2\n      pop\n      pop\n      jump\t// out\n        /* \"#utility.yul\":4921:6040   */\n    tag_150:\n        /* \"#utility.yul\":5022:5025   */\n      0x00\n        /* \"#utility.yul\":5058:5062   */\n      0xa0\n        /* \"#utility.yul\":5053:5056   */\n      dup4\n        /* \"#utility.yul\":5049:5063   */\n      add\n        /* \"#utility.yul\":5143:5147   */\n      0x00\n        /* \"#utility.yul\":5136:5141   */\n      dup4\n        /* \"#utility.yul\":5132:5148   */\n      add\n        /* \"#utility.yul\":5126:5149   */\n      mload\n        /* \"#utility.yul\":5162:5225   */\n      tag_245\n        /* \"#utility.yul\":5219:5223   */\n      0x00\n        /* \"#utility.yul\":5214:5217   */\n      dup7\n        /* \"#utility.yul\":5210:5224   */\n      add\n        /* \"#utility.yul\":5196:5208   */\n      dup3\n        /* \"#utility.yul\":5162:5225   */\n      tag_146\n      jump\t// in\n    tag_245:\n        /* \"#utility.yul\":5073:5235   */\n      pop\n        /* \"#utility.yul\":5319:5323   */\n      0x20\n        /* \"#utility.yul\":5312:5317   */\n      dup4\n        /* \"#utility.yul\":5308:5324   */\n      add\n        /* \"#utility.yul\":5302:5325   */\n      mload\n        /* \"#utility.yul\":5338:5401   */\n      tag_246\n        /* \"#utility.yul\":5395:5399   */\n      0x20\n        /* \"#utility.yul\":5390:5393   */\n      dup7\n        /* \"#utility.yul\":5386:5400   */\n      add\n        /* \"#utility.yul\":5372:5384   */\n      dup3\n        /* \"#utility.yul\":5338:5401   */\n      tag_147\n      jump\t// in\n    tag_246:\n        /* \"#utility.yul\":5245:5411   */\n      pop\n        /* \"#utility.yul\":5496:5500   */\n      0x40\n        /* \"#utility.yul\":5489:5494   */\n      dup4\n        /* \"#utility.yul\":5485:5501   */\n      add\n        /* \"#utility.yul\":5479:5502   */\n      mload\n        /* \"#utility.yul\":5549:5552   */\n      dup5\n        /* \"#utility.yul\":5543:5547   */\n      dup3\n        /* \"#utility.yul\":5539:5553   */\n      sub\n        /* \"#utility.yul\":5532:5536   */\n      0x40\n        /* \"#utility.yul\":5527:5530   */\n      dup7\n        /* \"#utility.yul\":5523:5537   */\n      add\n        /* \"#utility.yul\":5516:5554   */\n      mstore\n        /* \"#utility.yul\":5575:5648   */\n      tag_247\n        /* \"#utility.yul\":5643:5647   */\n      dup3\n        /* \"#utility.yul\":5629:5641   */\n      dup3\n        /* \"#utility.yul\":5575:5648   */\n      tag_149\n      jump\t// in\n    tag_247:\n        /* \"#utility.yul\":5567:5648   */\n      swap2\n      pop\n        /* \"#utility.yul\":5421:5659   */\n      pop\n        /* \"#utility.yul\":5746:5750   */\n      0x60\n        /* \"#utility.yul\":5739:5744   */\n      dup4\n        /* \"#utility.yul\":5735:5751   */\n      add\n        /* \"#utility.yul\":5729:5752   */\n      mload\n        /* \"#utility.yul\":5765:5828   */\n      tag_248\n        /* \"#utility.yul\":5822:5826   */\n      0x60\n        /* \"#utility.yul\":5817:5820   */\n      dup7\n        /* \"#utility.yul\":5813:5827   */\n      add\n        /* \"#utility.yul\":5799:5811   */\n      dup3\n        /* \"#utility.yul\":5765:5828   */\n      tag_146\n      jump\t// in\n    tag_248:\n        /* \"#utility.yul\":5669:5838   */\n      pop\n        /* \"#utility.yul\":5921:5925   */\n      0x80\n        /* \"#utility.yul\":5914:5919   */\n      dup4\n        /* \"#utility.yul\":5910:5926   */\n      add\n        /* \"#utility.yul\":5904:5927   */\n      mload\n        /* \"#utility.yul\":5940:6003   */\n      tag_249\n        /* \"#utility.yul\":5997:6001   */\n      0x80\n        /* \"#utility.yul\":5992:5995   */\n      dup7\n        /* \"#utility.yul\":5988:6002   */\n      add\n        /* \"#utility.yul\":5974:5986   */\n      dup3\n        /* \"#utility.yul\":5940:6003   */\n      tag_146\n      jump\t// in\n    tag_249:\n        /* \"#utility.yul\":5848:6013   */\n      pop\n        /* \"#utility.yul\":6030:6034   */\n      dup1\n        /* \"#utility.yul\":6023:6034   */\n      swap2\n      pop\n        /* \"#utility.yul\":5027:6040   */\n      pop\n        /* \"#utility.yul\":4921:6040   */\n      swap3\n      swap2\n      pop\n      pop\n      jump\t// out\n        /* \"#utility.yul\":6046:6286   */\n    tag_151:\n        /* \"#utility.yul\":6157:6167   */\n      0x00\n        /* \"#utility.yul\":6192:6280   */\n      tag_251\n        /* \"#utility.yul\":6276:6279   */\n      dup4\n        /* \"#utility.yul\":6268:6274   */\n      dup4\n        /* \"#utility.yul\":6192:6280   */\n      tag_150\n      jump\t// in\n    tag_251:\n        /* \"#utility.yul\":6178:6280   */\n      swap1\n      pop\n        /* \"#utility.yul\":6046:6286   */\n      swap3\n      swap2\n      pop\n      pop\n      jump\t// out\n        /* \"#utility.yul\":6292:6426   */\n    tag_152:\n        /* \"#utility.yul\":6383:6387   */\n      0x00\n        /* \"#utility.yul\":6415:6419   */\n      0x20\n        /* \"#utility.yul\":6410:6413   */\n      dup3\n        /* \"#utility.yul\":6406:6420   */\n      add\n        /* \"#utility.yul\":6398:6420   */\n      swap1\n      pop\n        /* \"#utility.yul\":6292:6426   */\n      swap2\n      swap1\n      pop\n      jump\t// out\n        /* \"#utility.yul\":6488:7567   */\n    tag_153:\n        /* \"#utility.yul\":6649:6652   */\n      0x00\n        /* \"#utility.yul\":6678:6753   */\n      tag_254\n        /* \"#utility.yul\":6747:6752   */\n      dup3\n        /* \"#utility.yul\":6678:6753   */\n      tag_143\n      jump\t// in\n    tag_254:\n        /* \"#utility.yul\":6769:6876   */\n      tag_255\n        /* \"#utility.yul\":6869:6875   */\n      dup2\n        /* \"#utility.yul\":6864:6867   */\n      dup6\n        /* \"#utility.yul\":6769:6876   */\n      tag_144\n      jump\t// in\n    tag_255:\n        /* \"#utility.yul\":6762:6876   */\n      swap4\n      pop\n        /* \"#utility.yul\":6902:6905   */\n      dup4\n        /* \"#utility.yul\":6947:6951   */\n      0x20\n        /* \"#utility.yul\":6939:6945   */\n      dup3\n        /* \"#utility.yul\":6935:6952   */\n      mul\n        /* \"#utility.yul\":6930:6933   */\n      dup6\n        /* \"#utility.yul\":6926:6953   */\n      add\n        /* \"#utility.yul\":6977:7054   */\n      tag_256\n        /* \"#utility.yul\":7048:7053   */\n      dup6\n        /* \"#utility.yul\":6977:7054   */\n      tag_145\n      jump\t// in\n    tag_256:\n        /* \"#utility.yul\":7077:7084   */\n      dup1\n        /* \"#utility.yul\":7108:7109   */\n      0x00\n        /* \"#utility.yul\":7093:7522   */\n    tag_257:\n        /* \"#utility.yul\":7118:7124   */\n      dup6\n        /* \"#utility.yul\":7115:7116   */\n      dup2\n        /* \"#utility.yul\":7112:7125   */\n      lt\n        /* \"#utility.yul\":7093:7522   */\n      iszero\n      tag_259\n      jumpi\n        /* \"#utility.yul\":7189:7198   */\n      dup5\n        /* \"#utility.yul\":7183:7187   */\n      dup5\n        /* \"#utility.yul\":7179:7199   */\n      sub\n        /* \"#utility.yul\":7174:7177   */\n      dup10\n        /* \"#utility.yul\":7167:7200   */\n      mstore\n        /* \"#utility.yul\":7240:7246   */\n      dup2\n        /* \"#utility.yul\":7234:7247   */\n      mload\n        /* \"#utility.yul\":7268:7374   */\n      tag_260\n        /* \"#utility.yul\":7369:7373   */\n      dup6\n        /* \"#utility.yul\":7354:7367   */\n      dup3\n        /* \"#utility.yul\":7268:7374   */\n      tag_151\n      jump\t// in\n    tag_260:\n        /* \"#utility.yul\":7260:7374   */\n      swap5\n      pop\n        /* \"#utility.yul\":7397:7478   */\n      tag_261\n        /* \"#utility.yul\":7471:7477   */\n      dup4\n        /* \"#utility.yul\":7397:7478   */\n      tag_152\n      jump\t// in\n    tag_261:\n        /* \"#utility.yul\":7387:7478   */\n      swap3\n      pop\n        /* \"#utility.yul\":7507:7511   */\n      0x20\n        /* \"#utility.yul\":7502:7505   */\n      dup11\n        /* \"#utility.yul\":7498:7512   */\n      add\n        /* \"#utility.yul\":7491:7512   */\n      swap10\n      pop\n        /* \"#utility.yul\":7153:7522   */\n      pop\n        /* \"#utility.yul\":7140:7141   */\n      0x01\n        /* \"#utility.yul\":7137:7138   */\n      dup2\n        /* \"#utility.yul\":7133:7142   */\n      add\n        /* \"#utility.yul\":7128:7142   */\n      swap1\n      pop\n        /* \"#utility.yul\":7093:7522   */\n      jump(tag_257)\n    tag_259:\n        /* \"#utility.yul\":7097:7111   */\n      pop\n        /* \"#utility.yul\":7538:7542   */\n      dup3\n        /* \"#utility.yul\":7531:7542   */\n      swap8\n      pop\n        /* \"#utility.yul\":7558:7561   */\n      dup8\n        /* \"#utility.yul\":7551:7561   */\n      swap6\n      pop\n        /* \"#utility.yul\":6654:7567   */\n      pop\n      pop\n      pop\n      pop\n      pop\n        /* \"#utility.yul\":6488:7567   */\n      swap3\n      swap2\n      pop\n      pop\n      jump\t// out\n        /* \"#utility.yul\":7573:8030   */\n    tag_24:\n        /* \"#utility.yul\":7758:7762   */\n      0x00\n        /* \"#utility.yul\":7796:7798   */\n      0x20\n        /* \"#utility.yul\":7785:7794   */\n      dup3\n        /* \"#utility.yul\":7781:7799   */\n      add\n        /* \"#utility.yul\":7773:7799   */\n      swap1\n      pop\n        /* \"#utility.yul\":7845:7854   */\n      dup2\n        /* \"#utility.yul\":7839:7843   */\n      dup2\n        /* \"#utility.yul\":7835:7855   */\n      sub\n        /* \"#utility.yul\":7831:7832   */\n      0x00\n        /* \"#utility.yul\":7820:7829   */\n      dup4\n        /* \"#utility.yul\":7816:7833   */\n      add\n        /* \"#utility.yul\":7809:7856   */\n      mstore\n        /* \"#utility.yul\":7873:8023   */\n      tag_263\n        /* \"#utility.yul\":8018:8022   */\n      dup2\n        /* \"#utility.yul\":8009:8015   */\n      dup5\n        /* \"#utility.yul\":7873:8023   */\n      tag_153\n      jump\t// in\n    tag_263:\n        /* \"#utility.yul\":7865:8023   */\n      swap1\n      pop\n        /* \"#utility.yul\":7573:8030   */\n      swap3\n      swap2\n      pop\n      pop\n      jump\t// out\n        /* \"#utility.yul\":8036:8153   */\n    tag_154:\n        /* \"#utility.yul\":8145:8146   */\n      0x00\n        /* \"#utility.yul\":8142:8143   */\n      dup1\n        /* \"#utility.yul\":8135:8147   */\n      revert\n        /* \"#utility.yul\":8159:8276   */\n    tag_155:\n        /* \"#utility.yul\":8268:8269   */\n      0x00\n        /* \"#utility.yul\":8265:8266   */\n      dup1\n        /* \"#utility.yul\":8258:8270   */\n      revert\n        /* \"#utility.yul\":8282:8462   */\n    tag_156:\n        /* \"#utility.yul\":8330:8407   */\n      0x4e487b7100000000000000000000000000000000000000000000000000000000\n        /* \"#utility.yul\":8327:8328   */\n      0x00\n        /* \"#utility.yul\":8320:8408   */\n      mstore\n        /* \"#utility.yul\":8427:8431   */\n      0x41\n        /* \"#utility.yul\":8424:8425   */\n      0x04\n        /* \"#utility.yul\":8417:8432   */\n      mstore\n        /* \"#utility.yul\":8451:8455   */\n      0x24\n        /* \"#utility.yul\":8448:8449   */\n      0x00\n        /* \"#utility.yul\":8441:8456   */\n      revert\n        /* \"#utility.yul\":8468:8749   */\n    tag_157:\n        /* \"#utility.yul\":8551:8578   */\n      tag_268\n        /* \"#utility.yul\":8573:8577   */\n      dup3\n        /* \"#utility.yul\":8551:8578   */\n      tag_141\n      jump\t// in\n    tag_268:\n        /* \"#utility.yul\":8543:8549   */\n      dup2\n        /* \"#utility.yul\":8539:8579   */\n      add\n        /* \"#utility.yul\":8681:8687   */\n      dup2\n        /* \"#utility.yul\":8669:8679   */\n      dup2\n        /* \"#utility.yul\":8666:8688   */\n      lt\n        /* \"#utility.yul\":8645:8663   */\n      0xffffffffffffffff\n        /* \"#utility.yul\":8633:8643   */\n      dup3\n        /* \"#utility.yul\":8630:8664   */\n      gt\n        /* \"#utility.yul\":8627:8689   */\n      or\n        /* \"#utility.yul\":8624:8712   */\n      iszero\n      tag_269\n      jumpi\n        /* \"#utility.yul\":8692:8710   */\n      tag_270\n      tag_156\n      jump\t// in\n    tag_270:\n        /* \"#utility.yul\":8624:8712   */\n    tag_269:\n        /* \"#utility.yul\":8732:8742   */\n      dup1\n        /* \"#utility.yul\":8728:8730   */\n      0x40\n        /* \"#utility.yul\":8721:8743   */\n      mstore\n        /* \"#utility.yul\":8511:8749   */\n      pop\n        /* \"#utility.yul\":8468:8749   */\n      pop\n      pop\n      jump\t// out\n        /* \"#utility.yul\":8755:8884   */\n    tag_158:\n        /* \"#utility.yul\":8789:8795   */\n      0x00\n        /* \"#utility.yul\":8816:8836   */\n      tag_272\n      tag_126\n      jump\t// in\n    tag_272:\n        /* \"#utility.yul\":8806:8836   */\n      swap1\n      pop\n        /* \"#utility.yul\":8845:8878   */\n      tag_273\n        /* \"#utility.yul\":8873:8877   */\n      dup3\n        /* \"#utility.yul\":8865:8871   */\n      dup3\n        /* \"#utility.yul\":8845:8878   */\n      tag_157\n      jump\t// in\n    tag_273:\n        /* \"#utility.yul\":8755:8884   */\n      swap2\n      swap1\n      pop\n      jump\t// out\n        /* \"#utility.yul\":8890:9198   */\n    tag_159:\n        /* \"#utility.yul\":8952:8956   */\n      0x00\n        /* \"#utility.yul\":9042:9060   */\n      0xffffffffffffffff\n        /* \"#utility.yul\":9034:9040   */\n      dup3\n        /* \"#utility.yul\":9031:9061   */\n      gt\n        /* \"#utility.yul\":9028:9084   */\n      iszero\n      tag_275\n      jumpi\n        /* \"#utility.yul\":9064:9082   */\n      tag_276\n      tag_156\n      jump\t// in\n    tag_276:\n        /* \"#utility.yul\":9028:9084   */\n    tag_275:\n        /* \"#utility.yul\":9102:9131   */\n      tag_277\n        /* \"#utility.yul\":9124:9130   */\n      dup3\n        /* \"#utility.yul\":9102:9131   */\n      tag_141\n      jump\t// in\n    tag_277:\n        /* \"#utility.yul\":9094:9131   */\n      swap1\n      pop\n        /* \"#utility.yul\":9186:9190   */\n      0x20\n        /* \"#utility.yul\":9180:9184   */\n      dup2\n        /* \"#utility.yul\":9176:9191   */\n      add\n        /* \"#utility.yul\":9168:9191   */\n      swap1\n      pop\n        /* \"#utility.yul\":8890:9198   */\n      swap2\n      swap1\n      pop\n      jump\t// out\n        /* \"#utility.yul\":9204:9352   */\n    tag_160:\n        /* \"#utility.yul\":9302:9308   */\n      dup3\n        /* \"#utility.yul\":9297:9300   */\n      dup2\n        /* \"#utility.yul\":9292:9295   */\n      dup4\n        /* \"#utility.yul\":9279:9309   */\n      calldatacopy\n        /* \"#utility.yul\":9343:9344   */\n      0x00\n        /* \"#utility.yul\":9334:9340   */\n      dup4\n        /* \"#utility.yul\":9329:9332   */\n      dup4\n        /* \"#utility.yul\":9325:9341   */\n      add\n        /* \"#utility.yul\":9318:9345   */\n      mstore\n        /* \"#utility.yul\":9204:9352   */\n      pop\n      pop\n      pop\n      jump\t// out\n        /* \"#utility.yul\":9358:9783   */\n    tag_161:\n        /* \"#utility.yul\":9436:9441   */\n      0x00\n        /* \"#utility.yul\":9461:9527   */\n      tag_280\n        /* \"#utility.yul\":9477:9526   */\n      tag_281\n        /* \"#utility.yul\":9519:9525   */\n      dup5\n        /* \"#utility.yul\":9477:9526   */\n      tag_159\n      jump\t// in\n    tag_281:\n        /* \"#utility.yul\":9461:9527   */\n      tag_158\n      jump\t// in\n    tag_280:\n        /* \"#utility.yul\":9452:9527   */\n      swap1\n      pop\n        /* \"#utility.yul\":9550:9556   */\n      dup3\n        /* \"#utility.yul\":9543:9548   */\n      dup2\n        /* \"#utility.yul\":9536:9557   */\n      mstore\n        /* \"#utility.yul\":9588:9592   */\n      0x20\n        /* \"#utility.yul\":9581:9586   */\n      dup2\n        /* \"#utility.yul\":9577:9593   */\n      add\n        /* \"#utility.yul\":9626:9629   */\n      dup5\n        /* \"#utility.yul\":9617:9623   */\n      dup5\n        /* \"#utility.yul\":9612:9615   */\n      dup5\n        /* \"#utility.yul\":9608:9624   */\n      add\n        /* \"#utility.yul\":9605:9630   */\n      gt\n        /* \"#utility.yul\":9602:9714   */\n      iszero\n      tag_282\n      jumpi\n        /* \"#utility.yul\":9633:9712   */\n      tag_283\n      tag_155\n      jump\t// in\n    tag_283:\n        /* \"#utility.yul\":9602:9714   */\n    tag_282:\n        /* \"#utility.yul\":9723:9777   */\n      tag_284\n        /* \"#utility.yul\":9770:9776   */\n      dup5\n        /* \"#utility.yul\":9765:9768   */\n      dup3\n        /* \"#utility.yul\":9760:9763   */\n      dup6\n        /* \"#utility.yul\":9723:9777   */\n      tag_160\n      jump\t// in\n    tag_284:\n        /* \"#utility.yul\":9442:9783   */\n      pop\n        /* \"#utility.yul\":9358:9783   */\n      swap4\n      swap3\n      pop\n      pop\n      pop\n      jump\t// out\n        /* \"#utility.yul\":9803:10143   */\n    tag_162:\n        /* \"#utility.yul\":9859:9864   */\n      0x00\n        /* \"#utility.yul\":9908:9911   */\n      dup3\n        /* \"#utility.yul\":9901:9905   */\n      0x1f\n        /* \"#utility.yul\":9893:9899   */\n      dup4\n        /* \"#utility.yul\":9889:9906   */\n      add\n        /* \"#utility.yul\":9885:9912   */\n      slt\n        /* \"#utility.yul\":9875:9997   */\n      tag_286\n      jumpi\n        /* \"#utility.yul\":9916:9995   */\n      tag_287\n      tag_154\n      jump\t// in\n    tag_287:\n        /* \"#utility.yul\":9875:9997   */\n    tag_286:\n        /* \"#utility.yul\":10033:10039   */\n      dup2\n        /* \"#utility.yul\":10020:10040   */\n      calldataload\n        /* \"#utility.yul\":10058:10137   */\n      tag_288\n        /* \"#utility.yul\":10133:10136   */\n      dup5\n        /* \"#utility.yul\":10125:10131   */\n      dup3\n        /* \"#utility.yul\":10118:10122   */\n      0x20\n        /* \"#utility.yul\":10110:10116   */\n      dup7\n        /* \"#utility.yul\":10106:10123   */\n      add\n        /* \"#utility.yul\":10058:10137   */\n      tag_161\n      jump\t// in\n    tag_288:\n        /* \"#utility.yul\":10049:10137   */\n      swap2\n      pop\n        /* \"#utility.yul\":9865:10143   */\n      pop\n        /* \"#utility.yul\":9803:10143   */\n      swap3\n      swap2\n      pop\n      pop\n      jump\t// out\n        /* \"#utility.yul\":10149:10658   */\n    tag_27:\n        /* \"#utility.yul\":10218:10224   */\n      0x00\n        /* \"#utility.yul\":10267:10269   */\n      0x20\n        /* \"#utility.yul\":10255:10264   */\n      dup3\n        /* \"#utility.yul\":10246:10253   */\n      dup5\n        /* \"#utility.yul\":10242:10265   */\n      sub\n        /* \"#utility.yul\":10238:10270   */\n      slt\n        /* \"#utility.yul\":10235:10354   */\n      iszero\n      tag_290\n      jumpi\n        /* \"#utility.yul\":10273:10352   */\n      tag_291\n      tag_127\n      jump\t// in\n    tag_291:\n        /* \"#utility.yul\":10235:10354   */\n    tag_290:\n        /* \"#utility.yul\":10421:10422   */\n      0x00\n        /* \"#utility.yul\":10410:10419   */\n      dup3\n        /* \"#utility.yul\":10406:10423   */\n      add\n        /* \"#utility.yul\":10393:10424   */\n      calldataload\n        /* \"#utility.yul\":10451:10469   */\n      0xffffffffffffffff\n        /* \"#utility.yul\":10443:10449   */\n      dup2\n        /* \"#utility.yul\":10440:10470   */\n      gt\n        /* \"#utility.yul\":10437:10554   */\n      iszero\n      tag_292\n      jumpi\n        /* \"#utility.yul\":10473:10552   */\n      tag_293\n      tag_128\n      jump\t// in\n    tag_293:\n        /* \"#utility.yul\":10437:10554   */\n    tag_292:\n        /* \"#utility.yul\":10578:10641   */\n      tag_294\n        /* \"#utility.yul\":10633:10640   */\n      dup5\n        /* \"#utility.yul\":10624:10630   */\n      dup3\n        /* \"#utility.yul\":10613:10622   */\n      dup6\n        /* \"#utility.yul\":10609:10631   */\n      add\n        /* \"#utility.yul\":10578:10641   */\n      tag_162\n      jump\t// in\n    tag_294:\n        /* \"#utility.yul\":10568:10641   */\n      swap2\n      pop\n        /* \"#utility.yul\":10364:10651   */\n      pop\n        /* \"#utility.yul\":10149:10658   */\n      swap3\n      swap2\n      pop\n      pop\n      jump\t// out\n        /* \"#utility.yul\":10664:10993   */\n    tag_31:\n        /* \"#utility.yul\":10723:10729   */\n      0x00\n        /* \"#utility.yul\":10772:10774   */\n      0x20\n        /* \"#utility.yul\":10760:10769   */\n      dup3\n        /* \"#utility.yul\":10751:10758   */\n      dup5\n        /* \"#utility.yul\":10747:10770   */\n      sub\n        /* \"#utility.yul\":10743:10775   */\n      slt\n        /* \"#utility.yul\":10740:10859   */\n      iszero\n      tag_296\n      jumpi\n        /* \"#utility.yul\":10778:10857   */\n      tag_297\n      tag_127\n      jump\t// in\n    tag_297:\n        /* \"#utility.yul\":10740:10859   */\n    tag_296:\n        /* \"#utility.yul\":10898:10899   */\n      0x00\n        /* \"#utility.yul\":10923:10976   */\n      tag_298\n        /* \"#utility.yul\":10968:10975   */\n      dup5\n        /* \"#utility.yul\":10959:10965   */\n      dup3\n        /* \"#utility.yul\":10948:10957   */\n      dup6\n        /* \"#utility.yul\":10944:10966   */\n      add\n        /* \"#utility.yul\":10923:10976   */\n      tag_135\n      jump\t// in\n    tag_298:\n        /* \"#utility.yul\":10913:10976   */\n      swap2\n      pop\n        /* \"#utility.yul\":10869:10986   */\n      pop\n        /* \"#utility.yul\":10664:10993   */\n      swap3\n      swap2\n      pop\n      pop\n      jump\t// out\n        /* \"#utility.yul\":10999:11221   */\n    tag_36:\n        /* \"#utility.yul\":11092:11096   */\n      0x00\n        /* \"#utility.yul\":11130:11132   */\n      0x20\n        /* \"#utility.yul\":11119:11128   */\n      dup3\n        /* \"#utility.yul\":11115:11133   */\n      add\n        /* \"#utility.yul\":11107:11133   */\n      swap1\n      pop\n        /* \"#utility.yul\":11143:11214   */\n      tag_300\n        /* \"#utility.yul\":11211:11212   */\n      0x00\n        /* \"#utility.yul\":11200:11209   */\n      dup4\n        /* \"#utility.yul\":11196:11213   */\n      add\n        /* \"#utility.yul\":11187:11193   */\n      dup5\n        /* \"#utility.yul\":11143:11214   */\n      tag_137\n      jump\t// in\n    tag_300:\n        /* \"#utility.yul\":10999:11221   */\n      swap3\n      swap2\n      pop\n      pop\n      jump\t// out\n        /* \"#utility.yul\":11279:12408   */\n    tag_163:\n        /* \"#utility.yul\":11390:11393   */\n      0x00\n        /* \"#utility.yul\":11426:11430   */\n      0xa0\n        /* \"#utility.yul\":11421:11424   */\n      dup4\n        /* \"#utility.yul\":11417:11431   */\n      add\n        /* \"#utility.yul\":11511:11515   */\n      0x00\n        /* \"#utility.yul\":11504:11509   */\n      dup4\n        /* \"#utility.yul\":11500:11516   */\n      add\n        /* \"#utility.yul\":11494:11517   */\n      mload\n        /* \"#utility.yul\":11530:11593   */\n      tag_302\n        /* \"#utility.yul\":11587:11591   */\n      0x00\n        /* \"#utility.yul\":11582:11585   */\n      dup7\n        /* \"#utility.yul\":11578:11592   */\n      add\n        /* \"#utility.yul\":11564:11576   */\n      dup3\n        /* \"#utility.yul\":11530:11593   */\n      tag_146\n      jump\t// in\n    tag_302:\n        /* \"#utility.yul\":11441:11603   */\n      pop\n        /* \"#utility.yul\":11687:11691   */\n      0x20\n        /* \"#utility.yul\":11680:11685   */\n      dup4\n        /* \"#utility.yul\":11676:11692   */\n      add\n        /* \"#utility.yul\":11670:11693   */\n      mload\n        /* \"#utility.yul\":11706:11769   */\n      tag_303\n        /* \"#utility.yul\":11763:11767   */\n      0x20\n        /* \"#utility.yul\":11758:11761   */\n      dup7\n        /* \"#utility.yul\":11754:11768   */\n      add\n        /* \"#utility.yul\":11740:11752   */\n      dup3\n        /* \"#utility.yul\":11706:11769   */\n      tag_147\n      jump\t// in\n    tag_303:\n        /* \"#utility.yul\":11613:11779   */\n      pop\n        /* \"#utility.yul\":11864:11868   */\n      0x40\n        /* \"#utility.yul\":11857:11862   */\n      dup4\n        /* \"#utility.yul\":11853:11869   */\n      add\n        /* \"#utility.yul\":11847:11870   */\n      mload\n        /* \"#utility.yul\":11917:11920   */\n      dup5\n        /* \"#utility.yul\":11911:11915   */\n      dup3\n        /* \"#utility.yul\":11907:11921   */\n      sub\n        /* \"#utility.yul\":11900:11904   */\n      0x40\n        /* \"#utility.yul\":11895:11898   */\n      dup7\n        /* \"#utility.yul\":11891:11905   */\n      add\n        /* \"#utility.yul\":11884:11922   */\n      mstore\n        /* \"#utility.yul\":11943:12016   */\n      tag_304\n        /* \"#utility.yul\":12011:12015   */\n      dup3\n        /* \"#utility.yul\":11997:12009   */\n      dup3\n        /* \"#utility.yul\":11943:12016   */\n      tag_149\n      jump\t// in\n    tag_304:\n        /* \"#utility.yul\":11935:12016   */\n      swap2\n      pop\n        /* \"#utility.yul\":11789:12027   */\n      pop\n        /* \"#utility.yul\":12114:12118   */\n      0x60\n        /* \"#utility.yul\":12107:12112   */\n      dup4\n        /* \"#utility.yul\":12103:12119   */\n      add\n        /* \"#utility.yul\":12097:12120   */\n      mload\n        /* \"#utility.yul\":12133:12196   */\n      tag_305\n        /* \"#utility.yul\":12190:12194   */\n      0x60\n        /* \"#utility.yul\":12185:12188   */\n      dup7\n        /* \"#utility.yul\":12181:12195   */\n      add\n        /* \"#utility.yul\":12167:12179   */\n      dup3\n        /* \"#utility.yul\":12133:12196   */\n      tag_146\n      jump\t// in\n    tag_305:\n        /* \"#utility.yul\":12037:12206   */\n      pop\n        /* \"#utility.yul\":12289:12293   */\n      0x80\n        /* \"#utility.yul\":12282:12287   */\n      dup4\n        /* \"#utility.yul\":12278:12294   */\n      add\n        /* \"#utility.yul\":12272:12295   */\n      mload\n        /* \"#utility.yul\":12308:12371   */\n      tag_306\n        /* \"#utility.yul\":12365:12369   */\n      0x80\n        /* \"#utility.yul\":12360:12363   */\n      dup7\n        /* \"#utility.yul\":12356:12370   */\n      add\n        /* \"#utility.yul\":12342:12354   */\n      dup3\n        /* \"#utility.yul\":12308:12371   */\n      tag_146\n      jump\t// in\n    tag_306:\n        /* \"#utility.yul\":12216:12381   */\n      pop\n        /* \"#utility.yul\":12398:12402   */\n      dup1\n        /* \"#utility.yul\":12391:12402   */\n      swap2\n      pop\n        /* \"#utility.yul\":11395:12408   */\n      pop\n        /* \"#utility.yul\":11279:12408   */\n      swap3\n      swap2\n      pop\n      pop\n      jump\t// out\n        /* \"#utility.yul\":12414:12771   */\n    tag_44:\n        /* \"#utility.yul\":12549:12553   */\n      0x00\n        /* \"#utility.yul\":12587:12589   */\n      0x20\n        /* \"#utility.yul\":12576:12585   */\n      dup3\n        /* \"#utility.yul\":12572:12590   */\n      add\n        /* \"#utility.yul\":12564:12590   */\n      swap1\n      pop\n        /* \"#utility.yul\":12636:12645   */\n      dup2\n        /* \"#utility.yul\":12630:12634   */\n      dup2\n        /* \"#utility.yul\":12626:12646   */\n      sub\n        /* \"#utility.yul\":12622:12623   */\n      0x00\n        /* \"#utility.yul\":12611:12620   */\n      dup4\n        /* \"#utility.yul\":12607:12624   */\n      add\n        /* \"#utility.yul\":12600:12647   */\n      mstore\n        /* \"#utility.yul\":12664:12764   */\n      tag_308\n        /* \"#utility.yul\":12759:12763   */\n      dup2\n        /* \"#utility.yul\":12750:12756   */\n      dup5\n        /* \"#utility.yul\":12664:12764   */\n      tag_163\n      jump\t// in\n    tag_308:\n        /* \"#utility.yul\":12656:12764   */\n      swap1\n      pop\n        /* \"#utility.yul\":12414:12771   */\n      swap3\n      swap2\n      pop\n      pop\n      jump\t// out\n        /* \"#utility.yul\":12777:12957   */\n    tag_164:\n        /* \"#utility.yul\":12825:12902   */\n      0x4e487b7100000000000000000000000000000000000000000000000000000000\n        /* \"#utility.yul\":12822:12823   */\n      0x00\n        /* \"#utility.yul\":12815:12903   */\n      mstore\n        /* \"#utility.yul\":12922:12926   */\n      0x22\n        /* \"#utility.yul\":12919:12920   */\n      0x04\n        /* \"#utility.yul\":12912:12927   */\n      mstore\n        /* \"#utility.yul\":12946:12950   */\n      0x24\n        /* \"#utility.yul\":12943:12944   */\n      0x00\n        /* \"#utility.yul\":12936:12951   */\n      revert\n        /* \"#utility.yul\":12963:13283   */\n    tag_48:\n        /* \"#utility.yul\":13007:13013   */\n      0x00\n        /* \"#utility.yul\":13044:13045   */\n      0x02\n        /* \"#utility.yul\":13038:13042   */\n      dup3\n        /* \"#utility.yul\":13034:13046   */\n      div\n        /* \"#utility.yul\":13024:13046   */\n      swap1\n      pop\n        /* \"#utility.yul\":13091:13092   */\n      0x01\n        /* \"#utility.yul\":13085:13089   */\n      dup3\n        /* \"#utility.yul\":13081:13093   */\n      and\n        /* \"#utility.yul\":13112:13130   */\n      dup1\n        /* \"#utility.yul\":13102:13183   */\n      tag_311\n      jumpi\n        /* \"#utility.yul\":13168:13172   */\n      0x7f\n        /* \"#utility.yul\":13160:13166   */\n      dup3\n        /* \"#utility.yul\":13156:13173   */\n      and\n        /* \"#utility.yul\":13146:13173   */\n      swap2\n      pop\n        /* \"#utility.yul\":13102:13183   */\n    tag_311:\n        /* \"#utility.yul\":13230:13232   */\n      0x20\n        /* \"#utility.yul\":13222:13228   */\n      dup3\n        /* \"#utility.yul\":13219:13233   */\n      lt\n        /* \"#utility.yul\":13199:13217   */\n      dup2\n        /* \"#utility.yul\":13196:13234   */\n      sub\n        /* \"#utility.yul\":13193:13277   */\n      tag_312\n      jumpi\n        /* \"#utility.yul\":13249:13267   */\n      tag_313\n      tag_164\n      jump\t// in\n    tag_313:\n        /* \"#utility.yul\":13193:13277   */\n    tag_312:\n        /* \"#utility.yul\":13014:13283   */\n      pop\n        /* \"#utility.yul\":12963:13283   */\n      swap2\n      swap1\n      pop\n      jump\t// out\n        /* \"#utility.yul\":13289:13469   */\n    tag_56:\n        /* \"#utility.yul\":13337:13414   */\n      0x4e487b7100000000000000000000000000000000000000000000000000000000\n        /* \"#utility.yul\":13334:13335   */\n      0x00\n        /* \"#utility.yul\":13327:13415   */\n      mstore\n        /* \"#utility.yul\":13434:13438   */\n      0x32\n        /* \"#utility.yul\":13431:13432   */\n      0x04\n        /* \"#utility.yul\":13424:13439   */\n      mstore\n        /* \"#utility.yul\":13458:13462   */\n      0x24\n        /* \"#utility.yul\":13455:13456   */\n      0x00\n        /* \"#utility.yul\":13448:13463   */\n      revert\n        /* \"#utility.yul\":13475:13645   */\n    tag_165:\n        /* \"#utility.yul\":13615:13637   */\n      0x547765657420646f6573206e6f74206578697374000000000000000000000000\n        /* \"#utility.yul\":13611:13612   */\n      0x00\n        /* \"#utility.yul\":13603:13609   */\n      dup3\n        /* \"#utility.yul\":13599:13613   */\n      add\n        /* \"#utility.yul\":13592:13638   */\n      mstore\n        /* \"#utility.yul\":13475:13645   */\n      pop\n      jump\t// out\n        /* \"#utility.yul\":13651:14017   */\n    tag_166:\n        /* \"#utility.yul\":13793:13796   */\n      0x00\n        /* \"#utility.yul\":13814:13881   */\n      tag_317\n        /* \"#utility.yul\":13878:13880   */\n      0x14\n        /* \"#utility.yul\":13873:13876   */\n      dup4\n        /* \"#utility.yul\":13814:13881   */\n      tag_139\n      jump\t// in\n    tag_317:\n        /* \"#utility.yul\":13807:13881   */\n      swap2\n      pop\n        /* \"#utility.yul\":13890:13983   */\n      tag_318\n        /* \"#utility.yul\":13979:13982   */\n      dup3\n        /* \"#utility.yul\":13890:13983   */\n      tag_165\n      jump\t// in\n    tag_318:\n        /* \"#utility.yul\":14008:14010   */\n      0x20\n        /* \"#utility.yul\":14003:14006   */\n      dup3\n        /* \"#utility.yul\":13999:14011   */\n      add\n        /* \"#utility.yul\":13992:14011   */\n      swap1\n      pop\n        /* \"#utility.yul\":13651:14017   */\n      swap2\n      swap1\n      pop\n      jump\t// out\n        /* \"#utility.yul\":14023:14442   */\n    tag_60:\n        /* \"#utility.yul\":14189:14193   */\n      0x00\n        /* \"#utility.yul\":14227:14229   */\n      0x20\n        /* \"#utility.yul\":14216:14225   */\n      dup3\n        /* \"#utility.yul\":14212:14230   */\n      add\n        /* \"#utility.yul\":14204:14230   */\n      swap1\n      pop\n        /* \"#utility.yul\":14276:14285   */\n      dup2\n        /* \"#utility.yul\":14270:14274   */\n      dup2\n        /* \"#utility.yul\":14266:14286   */\n      sub\n        /* \"#utility.yul\":14262:14263   */\n      0x00\n        /* \"#utility.yul\":14251:14260   */\n      dup4\n        /* \"#utility.yul\":14247:14264   */\n      add\n        /* \"#utility.yul\":14240:14287   */\n      mstore\n        /* \"#utility.yul\":14304:14435   */\n      tag_320\n        /* \"#utility.yul\":14430:14434   */\n      dup2\n        /* \"#utility.yul\":14304:14435   */\n      tag_166\n      jump\t// in\n    tag_320:\n        /* \"#utility.yul\":14296:14435   */\n      swap1\n      pop\n        /* \"#utility.yul\":14023:14442   */\n      swap2\n      swap1\n      pop\n      jump\t// out\n        /* \"#utility.yul\":14448:14628   */\n    tag_167:\n        /* \"#utility.yul\":14496:14573   */\n      0x4e487b7100000000000000000000000000000000000000000000000000000000\n        /* \"#utility.yul\":14493:14494   */\n      0x00\n        /* \"#utility.yul\":14486:14574   */\n      mstore\n        /* \"#utility.yul\":14593:14597   */\n      0x11\n        /* \"#utility.yul\":14590:14591   */\n      0x04\n        /* \"#utility.yul\":14583:14598   */\n      mstore\n        /* \"#utility.yul\":14617:14621   */\n      0x24\n        /* \"#utility.yul\":14614:14615   */\n      0x00\n        /* \"#utility.yul\":14607:14622   */\n      revert\n        /* \"#utility.yul\":14634:14867   */\n    tag_65:\n        /* \"#utility.yul\":14673:14676   */\n      0x00\n        /* \"#utility.yul\":14696:14720   */\n      tag_323\n        /* \"#utility.yul\":14714:14719   */\n      dup3\n        /* \"#utility.yul\":14696:14720   */\n      tag_133\n      jump\t// in\n    tag_323:\n        /* \"#utility.yul\":14687:14720   */\n      swap2\n      pop\n        /* \"#utility.yul\":14742:14808   */\n      0xffffffffffffffffffffffffffffffffffffffffffffffffffffffffffffffff\n        /* \"#utility.yul\":14735:14740   */\n      dup3\n        /* \"#utility.yul\":14732:14809   */\n      sub\n        /* \"#utility.yul\":14729:14832   */\n      tag_324\n      jumpi\n        /* \"#utility.yul\":14812:14830   */\n      tag_325\n      tag_167\n      jump\t// in\n    tag_325:\n        /* \"#utility.yul\":14729:14832   */\n    tag_324:\n        /* \"#utility.yul\":14859:14860   */\n      0x01\n        /* \"#utility.yul\":14852:14857   */\n      dup3\n        /* \"#utility.yul\":14848:14861   */\n      add\n        /* \"#utility.yul\":14841:14861   */\n      swap1\n      pop\n        /* \"#utility.yul\":14634:14867   */\n      swap2\n      swap1\n      pop\n      jump\t// out\n        /* \"#utility.yul\":14873:15426   */\n    tag_70:\n        /* \"#utility.yul\":15050:15054   */\n      0x00\n        /* \"#utility.yul\":15088:15091   */\n      0x80\n        /* \"#utility.yul\":15077:15086   */\n      dup3\n        /* \"#utility.yul\":15073:15092   */\n      add\n        /* \"#utility.yul\":15065:15092   */\n      swap1\n      pop\n        /* \"#utility.yul\":15102:15173   */\n      tag_327\n        /* \"#utility.yul\":15170:15171   */\n      0x00\n        /* \"#utility.yul\":15159:15168   */\n      dup4\n        /* \"#utility.yul\":15155:15172   */\n      add\n        /* \"#utility.yul\":15146:15152   */\n      dup8\n        /* \"#utility.yul\":15102:15173   */\n      tag_137\n      jump\t// in\n    tag_327:\n        /* \"#utility.yul\":15183:15255   */\n      tag_328\n        /* \"#utility.yul\":15251:15253   */\n      0x20\n        /* \"#utility.yul\":15240:15249   */\n      dup4\n        /* \"#utility.yul\":15236:15254   */\n      add\n        /* \"#utility.yul\":15227:15233   */\n      dup7\n        /* \"#utility.yul\":15183:15255   */\n      tag_136\n      jump\t// in\n    tag_328:\n        /* \"#utility.yul\":15265:15337   */\n      tag_329\n        /* \"#utility.yul\":15333:15335   */\n      0x40\n        /* \"#utility.yul\":15322:15331   */\n      dup4\n        /* \"#utility.yul\":15318:15336   */\n      add\n        /* \"#utility.yul\":15309:15315   */\n      dup6\n        /* \"#utility.yul\":15265:15337   */\n      tag_137\n      jump\t// in\n    tag_329:\n        /* \"#utility.yul\":15347:15419   */\n      tag_330\n        /* \"#utility.yul\":15415:15417   */\n      0x60\n        /* \"#utility.yul\":15404:15413   */\n      dup4\n        /* \"#utility.yul\":15400:15418   */\n      add\n        /* \"#utility.yul\":15391:15397   */\n      dup5\n        /* \"#utility.yul\":15347:15419   */\n      tag_136\n      jump\t// in\n    tag_330:\n        /* \"#utility.yul\":14873:15426   */\n      swap6\n      swap5\n      pop\n      pop\n      pop\n      pop\n      pop\n      jump\t// out\n        /* \"#utility.yul\":15432:15599   */\n    tag_168:\n        /* \"#utility.yul\":15572:15591   */\n      0x547765657420697320746f6f206c6f6e67000000000000000000000000000000\n        /* \"#utility.yul\":15568:15569   */\n      0x00\n        /* \"#utility.yul\":15560:15566   */\n      dup3\n        /* \"#utility.yul\":15556:15570   */\n      add\n        /* \"#utility.yul\":15549:15592   */\n      mstore\n        /* \"#utility.yul\":15432:15599   */\n      pop\n      jump\t// out\n        /* \"#utility.yul\":15605:15971   */\n    tag_169:\n        /* \"#utility.yul\":15747:15750   */\n      0x00\n        /* \"#utility.yul\":15768:15835   */\n      tag_333\n        /* \"#utility.yul\":15832:15834   */\n      0x11\n        /* \"#utility.yul\":15827:15830   */\n      dup4\n        /* \"#utility.yul\":15768:15835   */\n      tag_139\n      jump\t// in\n    tag_333:\n        /* \"#utility.yul\":15761:15835   */\n      swap2\n      pop\n        /* \"#utility.yul\":15844:15937   */\n      tag_334\n        /* \"#utility.yul\":15933:15936   */\n      dup3\n        /* \"#utility.yul\":15844:15937   */\n      tag_168\n      jump\t// in\n    tag_334:\n        /* \"#utility.yul\":15962:15964   */\n      0x20\n        /* \"#utility.yul\":15957:15960   */\n      dup3\n        /* \"#utility.yul\":15953:15965   */\n      add\n        /* \"#utility.yul\":15946:15965   */\n      swap1\n      pop\n        /* \"#utility.yul\":15605:15971   */\n      swap2\n      swap1\n      pop\n      jump\t// out\n        /* \"#utility.yul\":15977:16396   */\n    tag_83:\n        /* \"#utility.yul\":16143:16147   */\n      0x00\n        /* \"#utility.yul\":16181:16183   */\n      0x20\n        /* \"#utility.yul\":16170:16179   */\n      dup3\n        /* \"#utility.yul\":16166:16184   */\n      add\n        /* \"#utility.yul\":16158:16184   */\n      swap1\n      pop\n        /* \"#utility.yul\":16230:16239   */\n      dup2\n        /* \"#utility.yul\":16224:16228   */\n      dup2\n        /* \"#utility.yul\":16220:16240   */\n      sub\n        /* \"#utility.yul\":16216:16217   */\n      0x00\n        /* \"#utility.yul\":16205:16214   */\n      dup4\n        /* \"#utility.yul\":16201:16218   */\n      add\n        /* \"#utility.yul\":16194:16241   */\n      mstore\n        /* \"#utility.yul\":16258:16389   */\n      tag_336\n        /* \"#utility.yul\":16384:16388   */\n      dup2\n        /* \"#utility.yul\":16258:16389   */\n      tag_169\n      jump\t// in\n    tag_336:\n        /* \"#utility.yul\":16250:16389   */\n      swap1\n      pop\n        /* \"#utility.yul\":15977:16396   */\n      swap2\n      swap1\n      pop\n      jump\t// out\n        /* \"#utility.yul\":16402:16543   */\n    tag_170:\n        /* \"#utility.yul\":16451:16455   */\n      0x00\n        /* \"#utility.yul\":16474:16477   */\n      dup2\n        /* \"#utility.yul\":16466:16477   */\n      swap1\n      pop\n        /* \"#utility.yul\":16497:16500   */\n      dup2\n        /* \"#utility.yul\":16494:16495   */\n      0x00\n        /* \"#utility.yul\":16487:16501   */\n      mstore\n        /* \"#utility.yul\":16531:16535   */\n      0x20\n        /* \"#utility.yul\":16528:16529   */\n      0x00\n        /* \"#utility.yul\":16518:16536   */\n      keccak256\n        /* \"#utility.yul\":16510:16536   */\n      swap1\n      pop\n        /* \"#utility.yul\":16402:16543   */\n      swap2\n      swap1\n      pop\n      jump\t// out\n        /* \"#utility.yul\":16549:16642   */\n    tag_171:\n        /* \"#utility.yul\":16586:16592   */\n      0x00\n        /* \"#utility.yul\":16633:16635   */\n      0x20\n        /* \"#utility.yul\":16628:16630   */\n      0x1f\n        /* \"#utility.yul\":16621:16626   */\n      dup4\n        /* \"#utility.yul\":16617:16631   */\n      add\n        /* \"#utility.yul\":16613:16636   */\n      div\n        /* \"#utility.yul\":16603:16636   */\n      swap1\n      pop\n        /* \"#utility.yul\":16549:16642   */\n      swap2\n      swap1\n      pop\n      jump\t// out\n        /* \"#utility.yul\":16648:16755   */\n    tag_172:\n        /* \"#utility.yul\":16692:16700   */\n      0x00\n        /* \"#utility.yul\":16742:16747   */\n      dup3\n        /* \"#utility.yul\":16736:16740   */\n      dup3\n        /* \"#utility.yul\":16732:16748   */\n      shl\n        /* \"#utility.yul\":16711:16748   */\n      swap1\n      pop\n        /* \"#utility.yul\":16648:16755   */\n      swap3\n      swap2\n      pop\n      pop\n      jump\t// out\n        /* \"#utility.yul\":16761:17154   */\n    tag_173:\n        /* \"#utility.yul\":16830:16836   */\n      0x00\n        /* \"#utility.yul\":16880:16881   */\n      0x08\n        /* \"#utility.yul\":16868:16878   */\n      dup4\n        /* \"#utility.yul\":16864:16882   */\n      mul\n        /* \"#utility.yul\":16903:17000   */\n      tag_341\n        /* \"#utility.yul\":16933:16999   */\n      0xffffffffffffffffffffffffffffffffffffffffffffffffffffffffffffffff\n        /* \"#utility.yul\":16922:16931   */\n      dup3\n        /* \"#utility.yul\":16903:17000   */\n      tag_172\n      jump\t// in\n    tag_341:\n        /* \"#utility.yul\":17021:17060   */\n      tag_342\n        /* \"#utility.yul\":17051:17059   */\n      dup7\n        /* \"#utility.yul\":17040:17049   */\n      dup4\n        /* \"#utility.yul\":17021:17060   */\n      tag_172\n      jump\t// in\n    tag_342:\n        /* \"#utility.yul\":17009:17060   */\n      swap6\n      pop\n        /* \"#utility.yul\":17093:17097   */\n      dup1\n        /* \"#utility.yul\":17089:17098   */\n      not\n        /* \"#utility.yul\":17082:17087   */\n      dup5\n        /* \"#utility.yul\":17078:17099   */\n      and\n        /* \"#utility.yul\":17069:17099   */\n      swap4\n      pop\n        /* \"#utility.yul\":17142:17146   */\n      dup1\n        /* \"#utility.yul\":17132:17140   */\n      dup7\n        /* \"#utility.yul\":17128:17147   */\n      and\n        /* \"#utility.yul\":17121:17126   */\n      dup5\n        /* \"#utility.yul\":17118:17148   */\n      or\n        /* \"#utility.yul\":17108:17148   */\n      swap3\n      pop\n        /* \"#utility.yul\":16837:17154   */\n      pop\n      pop\n        /* \"#utility.yul\":16761:17154   */\n      swap4\n      swap3\n      pop\n      pop\n      pop\n      jump\t// out\n        /* \"#utility.yul\":17160:17220   */\n    tag_174:\n        /* \"#utility.yul\":17188:17191   */\n      0x00\n        /* \"#utility.yul\":17209:17214   */\n      dup2\n        /* \"#utility.yul\":17202:17214   */\n      swap1\n      pop\n        /* \"#utility.yul\":17160:17220   */\n      swap2\n      swap1\n      pop\n      jump\t// out\n        /* \"#utility.yul\":17226:17368   */\n    tag_175:\n        /* \"#utility.yul\":17276:17285   */\n      0x00\n        /* \"#utility.yul\":17309:17362   */\n      tag_345\n        /* \"#utility.yul\":17327:17361   */\n      tag_346\n        /* \"#utility.yul\":17336:17360   */\n      tag_347\n        /* \"#utility.yul\":17354:17359   */\n      dup5\n        /* \"#utility.yul\":17336:17360   */\n      tag_133\n      jump\t// in\n    tag_347:\n        /* \"#utility.yul\":17327:17361   */\n      tag_174\n      jump\t// in\n    tag_346:\n        /* \"#utility.yul\":17309:17362   */\n      tag_133\n      jump\t// in\n    tag_345:\n        /* \"#utility.yul\":17296:17362   */\n      swap1\n      pop\n        /* \"#utility.yul\":17226:17368   */\n      swap2\n      swap1\n      pop\n      jump\t// out\n        /* \"#utility.yul\":17374:17449   */\n    tag_176:\n        /* \"#utility.yul\":17417:17420   */\n      0x00\n        /* \"#utility.yul\":17438:17443   */\n      dup2\n        /* \"#utility.yul\":17431:17443   */\n      swap1\n      pop\n        /* \"#utility.yul\":17374:17449   */\n      swap2\n      swap1\n      pop\n      jump\t// out\n        /* \"#utility.yul\":17455:17724   */\n    tag_177:\n        /* \"#utility.yul\":17565:17604   */\n      tag_350\n        /* \"#utility.yul\":17596:17603   */\n      dup4\n        /* \"#utility.yul\":17565:17604   */\n      tag_175\n      jump\t// in\n    tag_350:\n        /* \"#utility.yul\":17626:17717   */\n      tag_351\n        /* \"#utility.yul\":17675:17716   */\n      tag_352\n        /* \"#utility.yul\":17699:17715   */\n      dup3\n        /* \"#utility.yul\":17675:17716   */\n      tag_176\n      jump\t// in\n    tag_352:\n        /* \"#utility.yul\":17667:17673   */\n      dup5\n        /* \"#utility.yul\":17660:17664   */\n      dup5\n        /* \"#utility.yul\":17654:17665   */\n      sload\n        /* \"#utility.yul\":17626:17717   */\n      tag_173\n      jump\t// in\n    tag_351:\n        /* \"#utility.yul\":17620:17624   */\n      dup3\n        /* \"#utility.yul\":17613:17718   */\n      sstore\n        /* \"#utility.yul\":17531:17724   */\n      pop\n        /* \"#utility.yul\":17455:17724   */\n      pop\n      pop\n      pop\n      jump\t// out\n        /* \"#utility.yul\":17730:17803   */\n    tag_178:\n        /* \"#utility.yul\":17775:17778   */\n      0x00\n        /* \"#utility.yul\":17730:17803   */\n      swap1\n      jump\t// out\n        /* \"#utility.yul\":17809:17998   */\n    tag_179:\n        /* \"#utility.yul\":17886:17918   */\n      tag_355\n      tag_178\n      jump\t// in\n    tag_355:\n        /* \"#utility.yul\":17927:17992   */\n      tag_356\n        /* \"#utility.yul\":17985:17991   */\n      dup2\n        /* \"#utility.yul\":17977:17983   */\n      dup5\n        /* \"#utility.yul\":17971:17975   */\n      dup5\n        /* \"#utility.yul\":17927:17992   */\n      tag_177\n      jump\t// in\n    tag_356:\n        /* \"#utility.yul\":17862:17998   */\n      pop\n        /* \"#utility.yul\":17809:17998   */\n      pop\n      pop\n      jump\t// out\n        /* \"#utility.yul\":18004:18190   */\n    tag_180:\n        /* \"#utility.yul\":18064:18184   */\n    tag_358:\n        /* \"#utility.yul\":18081:18084   */\n      dup2\n        /* \"#utility.yul\":18074:18079   */\n      dup2\n        /* \"#utility.yul\":18071:18085   */\n      lt\n        /* \"#utility.yul\":18064:18184   */\n      iszero\n      tag_360\n      jumpi\n        /* \"#utility.yul\":18135:18174   */\n      tag_361\n        /* \"#utility.yul\":18172:18173   */\n      0x00\n        /* \"#utility.yul\":18165:18170   */\n      dup3\n        /* \"#utility.yul\":18135:18174   */\n      tag_179\n      jump\t// in\n    tag_361:\n        /* \"#utility.yul\":18108:18109   */\n      0x01\n        /* \"#utility.yul\":18101:18106   */\n      dup2\n        /* \"#utility.yul\":18097:18110   */\n      add\n        /* \"#utility.yul\":18088:18110   */\n      swap1\n      pop\n        /* \"#utility.yul\":18064:18184   */\n      jump(tag_358)\n    tag_360:\n        /* \"#utility.yul\":18004:18190   */\n      pop\n      pop\n      jump\t// out\n        /* \"#utility.yul\":18196:18739   */\n    tag_181:\n        /* \"#utility.yul\":18297:18299   */\n      0x1f\n        /* \"#utility.yul\":18292:18295   */\n      dup3\n        /* \"#utility.yul\":18289:18300   */\n      gt\n        /* \"#utility.yul\":18286:18732   */\n      iszero\n      tag_363\n      jumpi\n        /* \"#utility.yul\":18331:18369   */\n      tag_364\n        /* \"#utility.yul\":18363:18368   */\n      dup2\n        /* \"#utility.yul\":18331:18369   */\n      tag_170\n      jump\t// in\n    tag_364:\n        /* \"#utility.yul\":18415:18444   */\n      tag_365\n        /* \"#utility.yul\":18433:18443   */\n      dup5\n        /* \"#utility.yul\":18415:18444   */\n      tag_171\n      jump\t// in\n    tag_365:\n        /* \"#utility.yul\":18405:18413   */\n      dup2\n        /* \"#utility.yul\":18401:18445   */\n      add\n        /* \"#utility.yul\":18598:18600   */\n      0x20\n        /* \"#utility.yul\":18586:18596   */\n      dup6\n        /* \"#utility.yul\":18583:18601   */\n      lt\n        /* \"#utility.yul\":18580:18629   */\n      iszero\n      tag_366\n      jumpi\n        /* \"#utility.yul\":18619:18627   */\n      dup2\n        /* \"#utility.yul\":18604:18627   */\n      swap1\n      pop\n        /* \"#utility.yul\":18580:18629   */\n    tag_366:\n        /* \"#utility.yul\":18642:18722   */\n      tag_367\n        /* \"#utility.yul\":18698:18720   */\n      tag_368\n        /* \"#utility.yul\":18716:18719   */\n      dup6\n        /* \"#utility.yul\":18698:18720   */\n      tag_171\n      jump\t// in\n    tag_368:\n        /* \"#utility.yul\":18688:18696   */\n      dup4\n        /* \"#utility.yul\":18684:18721   */\n      add\n        /* \"#utility.yul\":18671:18682   */\n      dup3\n        /* \"#utility.yul\":18642:18722   */\n      tag_180\n      jump\t// in\n    tag_367:\n        /* \"#utility.yul\":18301:18732   */\n      pop\n      pop\n        /* \"#utility.yul\":18286:18732   */\n    tag_363:\n        /* \"#utility.yul\":18196:18739   */\n      pop\n      pop\n      pop\n      jump\t// out\n        /* \"#utility.yul\":18745:18862   */\n    tag_182:\n        /* \"#utility.yul\":18799:18807   */\n      0x00\n        /* \"#utility.yul\":18849:18854   */\n      dup3\n        /* \"#utility.yul\":18843:18847   */\n      dup3\n        /* \"#utility.yul\":18839:18855   */\n      shr\n        /* \"#utility.yul\":18818:18855   */\n      swap1\n      pop\n        /* \"#utility.yul\":18745:18862   */\n      swap3\n      swap2\n      pop\n      pop\n      jump\t// out\n        /* \"#utility.yul\":18868:19037   */\n    tag_183:\n        /* \"#utility.yul\":18912:18918   */\n      0x00\n        /* \"#utility.yul\":18945:18996   */\n      tag_371\n        /* \"#utility.yul\":18993:18994   */\n      0x00\n        /* \"#utility.yul\":18989:18995   */\n      not\n        /* \"#utility.yul\":18981:18986   */\n      dup5\n        /* \"#utility.yul\":18978:18979   */\n      0x08\n        /* \"#utility.yul\":18974:18987   */\n      mul\n        /* \"#utility.yul\":18945:18996   */\n      tag_182\n      jump\t// in\n    tag_371:\n        /* \"#utility.yul\":18941:18997   */\n      not\n        /* \"#utility.yul\":19026:19030   */\n      dup1\n        /* \"#utility.yul\":19020:19024   */\n      dup4\n        /* \"#utility.yul\":19016:19031   */\n      and\n        /* \"#utility.yul\":19006:19031   */\n      swap2\n      pop\n        /* \"#utility.yul\":18919:19037   */\n      pop\n        /* \"#utility.yul\":18868:19037   */\n      swap3\n      swap2\n      pop\n      pop\n      jump\t// out\n        /* \"#utility.yul\":19042:19337   */\n    tag_184:\n        /* \"#utility.yul\":19118:19122   */\n      0x00\n        /* \"#utility.yul\":19264:19293   */\n      tag_373\n        /* \"#utility.yul\":19289:19292   */\n      dup4\n        /* \"#utility.yul\":19283:19287   */\n      dup4\n        /* \"#utility.yul\":19264:19293   */\n      tag_183\n      jump\t// in\n    tag_373:\n        /* \"#utility.yul\":19256:19293   */\n      swap2\n      pop\n        /* \"#utility.yul\":19326:19329   */\n      dup3\n        /* \"#utility.yul\":19323:19324   */\n      0x02\n        /* \"#utility.yul\":19319:19330   */\n      mul\n        /* \"#utility.yul\":19313:19317   */\n      dup3\n        /* \"#utility.yul\":19310:19331   */\n      or\n        /* \"#utility.yul\":19302:19331   */\n      swap1\n      pop\n        /* \"#utility.yul\":19042:19337   */\n      swap3\n      swap2\n      pop\n      pop\n      jump\t// out\n        /* \"#utility.yul\":19342:20737   */\n    tag_86:\n        /* \"#utility.yul\":19459:19496   */\n      tag_375\n        /* \"#utility.yul\":19492:19495   */\n      dup3\n        /* \"#utility.yul\":19459:19496   */\n      tag_138\n      jump\t// in\n    tag_375:\n        /* \"#utility.yul\":19561:19579   */\n      0xffffffffffffffff\n        /* \"#utility.yul\":19553:19559   */\n      dup2\n        /* \"#utility.yul\":19550:19580   */\n      gt\n        /* \"#utility.yul\":19547:19603   */\n      iszero\n      tag_376\n      jumpi\n        /* \"#utility.yul\":19583:19601   */\n      tag_377\n      tag_156\n      jump\t// in\n    tag_377:\n        /* \"#utility.yul\":19547:19603   */\n    tag_376:\n        /* \"#utility.yul\":19627:19665   */\n      tag_378\n        /* \"#utility.yul\":19659:19663   */\n      dup3\n        /* \"#utility.yul\":19653:19664   */\n      sload\n        /* \"#utility.yul\":19627:19665   */\n      tag_48\n      jump\t// in\n    tag_378:\n        /* \"#utility.yul\":19712:19779   */\n      tag_379\n        /* \"#utility.yul\":19772:19778   */\n      dup3\n        /* \"#utility.yul\":19764:19770   */\n      dup3\n        /* \"#utility.yul\":19758:19762   */\n      dup6\n        /* \"#utility.yul\":19712:19779   */\n      tag_181\n      jump\t// in\n    tag_379:\n        /* \"#utility.yul\":19806:19807   */\n      0x00\n        /* \"#utility.yul\":19830:19834   */\n      0x20\n        /* \"#utility.yul\":19817:19834   */\n      swap1\n      pop\n        /* \"#utility.yul\":19862:19864   */\n      0x1f\n        /* \"#utility.yul\":19854:19860   */\n      dup4\n        /* \"#utility.yul\":19851:19865   */\n      gt\n        /* \"#utility.yul\":19879:19880   */\n      0x01\n        /* \"#utility.yul\":19874:20492   */\n      dup2\n      eq\n      tag_381\n      jumpi\n        /* \"#utility.yul\":20536:20537   */\n      0x00\n        /* \"#utility.yul\":20553:20559   */\n      dup5\n        /* \"#utility.yul\":20550:20627   */\n      iszero\n      tag_382\n      jumpi\n        /* \"#utility.yul\":20602:20611   */\n      dup3\n        /* \"#utility.yul\":20597:20600   */\n      dup8\n        /* \"#utility.yul\":20593:20612   */\n      add\n        /* \"#utility.yul\":20587:20613   */\n      mload\n        /* \"#utility.yul\":20578:20613   */\n      swap1\n      pop\n        /* \"#utility.yul\":20550:20627   */\n    tag_382:\n        /* \"#utility.yul\":20653:20720   */\n      tag_383\n        /* \"#utility.yul\":20713:20719   */\n      dup6\n        /* \"#utility.yul\":20706:20711   */\n      dup3\n        /* \"#utility.yul\":20653:20720   */\n      tag_184\n      jump\t// in\n    tag_383:\n        /* \"#utility.yul\":20647:20651   */\n      dup7\n        /* \"#utility.yul\":20640:20721   */\n      sstore\n        /* \"#utility.yul\":20509:20731   */\n      pop\n        /* \"#utility.yul\":19844:20731   */\n      jump(tag_380)\n        /* \"#utility.yul\":19874:20492   */\n    tag_381:\n        /* \"#utility.yul\":19926:19930   */\n      0x1f\n        /* \"#utility.yul\":19922:19931   */\n      not\n        /* \"#utility.yul\":19914:19920   */\n      dup5\n        /* \"#utility.yul\":19910:19932   */\n      and\n        /* \"#utility.yul\":19960:19997   */\n      tag_384\n        /* \"#utility.yul\":19992:19996   */\n      dup7\n        /* \"#utility.yul\":19960:19997   */\n      tag_170\n      jump\t// in\n    tag_384:\n        /* \"#utility.yul\":20019:20020   */\n      0x00\n        /* \"#utility.yul\":20033:20241   */\n    tag_385:\n        /* \"#utility.yul\":20047:20054   */\n      dup3\n        /* \"#utility.yul\":20044:20045   */\n      dup2\n        /* \"#utility.yul\":20041:20055   */\n      lt\n        /* \"#utility.yul\":20033:20241   */\n      iszero\n      tag_387\n      jumpi\n        /* \"#utility.yul\":20126:20135   */\n      dup5\n        /* \"#utility.yul\":20121:20124   */\n      dup10\n        /* \"#utility.yul\":20117:20136   */\n      add\n        /* \"#utility.yul\":20111:20137   */\n      mload\n        /* \"#utility.yul\":20103:20109   */\n      dup3\n        /* \"#utility.yul\":20096:20138   */\n      sstore\n        /* \"#utility.yul\":20177:20178   */\n      0x01\n        /* \"#utility.yul\":20169:20175   */\n      dup3\n        /* \"#utility.yul\":20165:20179   */\n      add\n        /* \"#utility.yul\":20155:20179   */\n      swap2\n      pop\n        /* \"#utility.yul\":20224:20226   */\n      0x20\n        /* \"#utility.yul\":20213:20222   */\n      dup6\n        /* \"#utility.yul\":20209:20227   */\n      add\n        /* \"#utility.yul\":20196:20227   */\n      swap5\n      pop\n        /* \"#utility.yul\":20070:20074   */\n      0x20\n        /* \"#utility.yul\":20067:20068   */\n      dup2\n        /* \"#utility.yul\":20063:20075   */\n      add\n        /* \"#utility.yul\":20058:20075   */\n      swap1\n      pop\n        /* \"#utility.yul\":20033:20241   */\n      jump(tag_385)\n    tag_387:\n        /* \"#utility.yul\":20269:20275   */\n      dup7\n        /* \"#utility.yul\":20260:20267   */\n      dup4\n        /* \"#utility.yul\":20257:20276   */\n      lt\n        /* \"#utility.yul\":20254:20433   */\n      iszero\n      tag_388\n      jumpi\n        /* \"#utility.yul\":20327:20336   */\n      dup5\n        /* \"#utility.yul\":20322:20325   */\n      dup10\n        /* \"#utility.yul\":20318:20337   */\n      add\n        /* \"#utility.yul\":20312:20338   */\n      mload\n        /* \"#utility.yul\":20370:20418   */\n      tag_389\n        /* \"#utility.yul\":20412:20416   */\n      0x1f\n        /* \"#utility.yul\":20404:20410   */\n      dup10\n        /* \"#utility.yul\":20400:20417   */\n      and\n        /* \"#utility.yul\":20389:20398   */\n      dup3\n        /* \"#utility.yul\":20370:20418   */\n      tag_183\n      jump\t// in\n    tag_389:\n        /* \"#utility.yul\":20362:20368   */\n      dup4\n        /* \"#utility.yul\":20355:20419   */\n      sstore\n        /* \"#utility.yul\":20277:20433   */\n      pop\n        /* \"#utility.yul\":20254:20433   */\n    tag_388:\n        /* \"#utility.yul\":20479:20480   */\n      0x01\n        /* \"#utility.yul\":20475:20476   */\n      0x02\n        /* \"#utility.yul\":20467:20473   */\n      dup9\n        /* \"#utility.yul\":20463:20477   */\n      mul\n        /* \"#utility.yul\":20459:20481   */\n      add\n        /* \"#utility.yul\":20453:20457   */\n      dup9\n        /* \"#utility.yul\":20446:20482   */\n      sstore\n        /* \"#utility.yul\":19881:20492   */\n      pop\n      pop\n      pop\n        /* \"#utility.yul\":19844:20731   */\n    tag_380:\n      pop\n        /* \"#utility.yul\":19434:20737   */\n      pop\n      pop\n      pop\n        /* \"#utility.yul\":19342:20737   */\n      pop\n      pop\n      jump\t// out\n        /* \"#utility.yul\":20743:21387   */\n    tag_88:\n        /* \"#utility.yul\":20940:20944   */\n      0x00\n        /* \"#utility.yul\":20978:20981   */\n      0x80\n        /* \"#utility.yul\":20967:20976   */\n      dup3\n        /* \"#utility.yul\":20963:20982   */\n      add\n        /* \"#utility.yul\":20955:20982   */\n      swap1\n      pop\n        /* \"#utility.yul\":20992:21063   */\n      tag_391\n        /* \"#utility.yul\":21060:21061   */\n      0x00\n        /* \"#utility.yul\":21049:21058   */\n      dup4\n        /* \"#utility.yul\":21045:21062   */\n      add\n        /* \"#utility.yul\":21036:21042   */\n      dup8\n        /* \"#utility.yul\":20992:21063   */\n      tag_136\n      jump\t// in\n    tag_391:\n        /* \"#utility.yul\":21073:21145   */\n      tag_392\n        /* \"#utility.yul\":21141:21143   */\n      0x20\n        /* \"#utility.yul\":21130:21139   */\n      dup4\n        /* \"#utility.yul\":21126:21144   */\n      add\n        /* \"#utility.yul\":21117:21123   */\n      dup7\n        /* \"#utility.yul\":21073:21145   */\n      tag_137\n      jump\t// in\n    tag_392:\n        /* \"#utility.yul\":21192:21201   */\n      dup2\n        /* \"#utility.yul\":21186:21190   */\n      dup2\n        /* \"#utility.yul\":21182:21202   */\n      sub\n        /* \"#utility.yul\":21177:21179   */\n      0x40\n        /* \"#utility.yul\":21166:21175   */\n      dup4\n        /* \"#utility.yul\":21162:21180   */\n      add\n        /* \"#utility.yul\":21155:21203   */\n      mstore\n        /* \"#utility.yul\":21220:21298   */\n      tag_393\n        /* \"#utility.yul\":21293:21297   */\n      dup2\n        /* \"#utility.yul\":21284:21290   */\n      dup6\n        /* \"#utility.yul\":21220:21298   */\n      tag_142\n      jump\t// in\n    tag_393:\n        /* \"#utility.yul\":21212:21298   */\n      swap1\n      pop\n        /* \"#utility.yul\":21308:21380   */\n      tag_394\n        /* \"#utility.yul\":21376:21378   */\n      0x60\n        /* \"#utility.yul\":21365:21374   */\n      dup4\n        /* \"#utility.yul\":21361:21379   */\n      add\n        /* \"#utility.yul\":21352:21358   */\n      dup5\n        /* \"#utility.yul\":21308:21380   */\n      tag_136\n      jump\t// in\n    tag_394:\n        /* \"#utility.yul\":20743:21387   */\n      swap6\n      swap5\n      pop\n      pop\n      pop\n      pop\n      pop\n      jump\t// out\n        /* \"#utility.yul\":21393:21564   */\n    tag_185:\n        /* \"#utility.yul\":21533:21556   */\n      0x596f7520617265206e6f7420746865206f776e65720000000000000000000000\n        /* \"#utility.yul\":21529:21530   */\n      0x00\n        /* \"#utility.yul\":21521:21527   */\n      dup3\n        /* \"#utility.yul\":21517:21531   */\n      add\n        /* \"#utility.yul\":21510:21557   */\n      mstore\n        /* \"#utility.yul\":21393:21564   */\n      pop\n      jump\t// out\n        /* \"#utility.yul\":21570:21936   */\n    tag_186:\n        /* \"#utility.yul\":21712:21715   */\n      0x00\n        /* \"#utility.yul\":21733:21800   */\n      tag_397\n        /* \"#utility.yul\":21797:21799   */\n      0x15\n        /* \"#utility.yul\":21792:21795   */\n      dup4\n        /* \"#utility.yul\":21733:21800   */\n      tag_139\n      jump\t// in\n    tag_397:\n        /* \"#utility.yul\":21726:21800   */\n      swap2\n      pop\n        /* \"#utility.yul\":21809:21902   */\n      tag_398\n        /* \"#utility.yul\":21898:21901   */\n      dup3\n        /* \"#utility.yul\":21809:21902   */\n      tag_185\n      jump\t// in\n    tag_398:\n        /* \"#utility.yul\":21927:21929   */\n      0x20\n        /* \"#utility.yul\":21922:21925   */\n      dup3\n        /* \"#utility.yul\":21918:21930   */\n      add\n        /* \"#utility.yul\":21911:21930   */\n      swap1\n      pop\n        /* \"#utility.yul\":21570:21936   */\n      swap2\n      swap1\n      pop\n      jump\t// out\n        /* \"#utility.yul\":21942:22361   */\n    tag_92:\n        /* \"#utility.yul\":22108:22112   */\n      0x00\n        /* \"#utility.yul\":22146:22148   */\n      0x20\n        /* \"#utility.yul\":22135:22144   */\n      dup3\n        /* \"#utility.yul\":22131:22149   */\n      add\n        /* \"#utility.yul\":22123:22149   */\n      swap1\n      pop\n        /* \"#utility.yul\":22195:22204   */\n      dup2\n        /* \"#utility.yul\":22189:22193   */\n      dup2\n        /* \"#utility.yul\":22185:22205   */\n      sub\n        /* \"#utility.yul\":22181:22182   */\n      0x00\n        /* \"#utility.yul\":22170:22179   */\n      dup4\n        /* \"#utility.yul\":22166:22183   */\n      add\n        /* \"#utility.yul\":22159:22206   */\n      mstore\n        /* \"#utility.yul\":22223:22354   */\n      tag_400\n        /* \"#utility.yul\":22349:22353   */\n      dup2\n        /* \"#utility.yul\":22223:22354   */\n      tag_186\n      jump\t// in\n    tag_400:\n        /* \"#utility.yul\":22215:22354   */\n      swap1\n      pop\n        /* \"#utility.yul\":21942:22361   */\n      swap2\n      swap1\n      pop\n      jump\t// out\n        /* \"#utility.yul\":22367:22535   */\n    tag_187:\n        /* \"#utility.yul\":22507:22527   */\n      0x547765657420686173206e6f206c696b65730000000000000000000000000000\n        /* \"#utility.yul\":22503:22504   */\n      0x00\n        /* \"#utility.yul\":22495:22501   */\n      dup3\n        /* \"#utility.yul\":22491:22505   */\n      add\n        /* \"#utility.yul\":22484:22528   */\n      mstore\n        /* \"#utility.yul\":22367:22535   */\n      pop\n      jump\t// out\n        /* \"#utility.yul\":22541:22907   */\n    tag_188:\n        /* \"#utility.yul\":22683:22686   */\n      0x00\n        /* \"#utility.yul\":22704:22771   */\n      tag_403\n        /* \"#utility.yul\":22768:22770   */\n      0x12\n        /* \"#utility.yul\":22763:22766   */\n      dup4\n        /* \"#utility.yul\":22704:22771   */\n      tag_139\n      jump\t// in\n    tag_403:\n        /* \"#utility.yul\":22697:22771   */\n      swap2\n      pop\n        /* \"#utility.yul\":22780:22873   */\n      tag_404\n        /* \"#utility.yul\":22869:22872   */\n      dup3\n        /* \"#utility.yul\":22780:22873   */\n      tag_187\n      jump\t// in\n    tag_404:\n        /* \"#utility.yul\":22898:22900   */\n      0x20\n        /* \"#utility.yul\":22893:22896   */\n      dup3\n        /* \"#utility.yul\":22889:22901   */\n      add\n        /* \"#utility.yul\":22882:22901   */\n      swap1\n      pop\n        /* \"#utility.yul\":22541:22907   */\n      swap2\n      swap1\n      pop\n      jump\t// out\n        /* \"#utility.yul\":22913:23332   */\n    tag_105:\n        /* \"#utility.yul\":23079:23083   */\n      0x00\n        /* \"#utility.yul\":23117:23119   */\n      0x20\n        /* \"#utility.yul\":23106:23115   */\n      dup3\n        /* \"#utility.yul\":23102:23120   */\n      add\n        /* \"#utility.yul\":23094:23120   */\n      swap1\n      pop\n        /* \"#utility.yul\":23166:23175   */\n      dup2\n        /* \"#utility.yul\":23160:23164   */\n      dup2\n        /* \"#utility.yul\":23156:23176   */\n      sub\n        /* \"#utility.yul\":23152:23153   */\n      0x00\n        /* \"#utility.yul\":23141:23150   */\n      dup4\n        /* \"#utility.yul\":23137:23154   */\n      add\n        /* \"#utility.yul\":23130:23177   */\n      mstore\n        /* \"#utility.yul\":23194:23325   */\n      tag_406\n        /* \"#utility.yul\":23320:23324   */\n      dup2\n        /* \"#utility.yul\":23194:23325   */\n      tag_188\n      jump\t// in\n    tag_406:\n        /* \"#utility.yul\":23186:23325   */\n      swap1\n      pop\n        /* \"#utility.yul\":22913:23332   */\n      swap2\n      swap1\n      pop\n      jump\t// out\n        /* \"#utility.yul\":23338:23509   */\n    tag_110:\n        /* \"#utility.yul\":23377:23380   */\n      0x00\n        /* \"#utility.yul\":23400:23424   */\n      tag_408\n        /* \"#utility.yul\":23418:23423   */\n      dup3\n        /* \"#utility.yul\":23400:23424   */\n      tag_133\n      jump\t// in\n    tag_408:\n        /* \"#utility.yul\":23391:23424   */\n      swap2\n      pop\n        /* \"#utility.yul\":23446:23450   */\n      0x00\n        /* \"#utility.yul\":23439:23444   */\n      dup3\n        /* \"#utility.yul\":23436:23451   */\n      sub\n        /* \"#utility.yul\":23433:23474   */\n      tag_409\n      jumpi\n        /* \"#utility.yul\":23454:23472   */\n      tag_410\n      tag_167\n      jump\t// in\n    tag_410:\n        /* \"#utility.yul\":23433:23474   */\n    tag_409:\n        /* \"#utility.yul\":23501:23502   */\n      0x01\n        /* \"#utility.yul\":23494:23499   */\n      dup3\n        /* \"#utility.yul\":23490:23503   */\n      sub\n        /* \"#utility.yul\":23483:23503   */\n      swap1\n      pop\n        /* \"#utility.yul\":23338:23509   */\n      swap2\n      swap1\n      pop\n      jump\t// out\n\n    auxdata: 0xa26469706673582212201a82c3bcf2e39719befb7f61658228c7073a57dec2ac7ec830becfcb5fb4549764736f6c634300081a0033\n}\n",
				"bytecode": {
					"linkReferences": {},
					"object": "6080604052348015600e575f80fd5b50335f806101000a81548173ffffffffffffffffffffffffffffffffffffffff021916908373ffffffffffffffffffffffffffffffffffffffff160217905550610118600181905550611840806100645f395ff3fe608060405234801561000f575f80fd5b5060043610610086575f3560e01c8063888a788011610059578063888a7880146101145780638da5cb5b146101305780639ef8633f1461014e578063c3ad5ecb1461016a57610086565b806305a1b4a91461008a57806363378216146100be578063675e0fb7146100da5780637c9cd2bc146100f8575b5f80fd5b6100a4600480360381019061009f9190610d2a565b61019a565b6040516100b5959493929190610df6565b60405180910390f35b6100d860048036038101906100d39190610d2a565b61028b565b005b6100e261043c565b6040516100ef9190610fe2565b60405180910390f35b610112600480360381019061010d919061112e565b6105d5565b005b61012e60048036038101906101299190611175565b6107c9565b005b610138610860565b60405161014591906111a0565b60405180910390f35b61016860048036038101906101639190610d2a565b610883565b005b610184600480360381019061017f9190611175565b610ad4565b604051610191919061122c565b60405180910390f35b6002602052815f5260405f2081815481106101b3575f80fd5b905f5260205f2090600502015f9150915050805f015490806001015f9054906101000a900473ffffffffffffffffffffffffffffffffffffffff16908060020180546101fe90611279565b80601f016020809104026020016040519081016040528092919081815260200182805461022a90611279565b80156102755780601f1061024c57610100808354040283529160200191610275565b820191905f5260205f20905b81548152906001019060200180831161025857829003601f168201915b5050505050908060030154908060040154905085565b8060025f8473ffffffffffffffffffffffffffffffffffffffff1673ffffffffffffffffffffffffffffffffffffffff1681526020019081526020015f2082815481106102db576102da6112a9565b5b905f5260205f2090600502015f01541461032a576040517f08c379a000000000000000000000000000000000000000000000000000000000815260040161032190611320565b60405180910390fd5b60025f8373ffffffffffffffffffffffffffffffffffffffff1673ffffffffffffffffffffffffffffffffffffffff1681526020019081526020015f208181548110610379576103786112a9565b5b905f5260205f2090600502016004015f8154809291906103989061136b565b91905055507f5bd959f96efc2338d934ab72127be36035ff98de2f1584d2951239db17662d2133828460025f8773ffffffffffffffffffffffffffffffffffffffff1673ffffffffffffffffffffffffffffffffffffffff1681526020019081526020015f2085815481106104105761040f6112a9565b5b905f5260205f2090600502016004015460405161043094939291906113b2565b60405180910390a15050565b606060025f3373ffffffffffffffffffffffffffffffffffffffff1673ffffffffffffffffffffffffffffffffffffffff1681526020019081526020015f20805480602002602001604051908101604052809291908181526020015f905b828210156105cc578382905f5260205f2090600502016040518060a00160405290815f8201548152602001600182015f9054906101000a900473ffffffffffffffffffffffffffffffffffffffff1673ffffffffffffffffffffffffffffffffffffffff1673ffffffffffffffffffffffffffffffffffffffff16815260200160028201805461052990611279565b80601f016020809104026020016040519081016040528092919081815260200182805461055590611279565b80156105a05780601f10610577576101008083540402835291602001916105a0565b820191905f5260205f20905b81548152906001019060200180831161058357829003601f168201915b50505050508152602001600382015481526020016004820154815250508152602001906001019061049a565b50505050905090565b6001548151111561061b576040517f08c379a00000000000000000000000000000000000000000000000000000000081526004016106129061143f565b60405180910390fd5b5f6040518060a0016040528060025f3373ffffffffffffffffffffffffffffffffffffffff1673ffffffffffffffffffffffffffffffffffffffff1681526020019081526020015f208054905081526020013373ffffffffffffffffffffffffffffffffffffffff1681526020018381526020014281526020015f815250905060025f3373ffffffffffffffffffffffffffffffffffffffff1673ffffffffffffffffffffffffffffffffffffffff1681526020019081526020015f2081908060018154018082558091505060019003905f5260205f2090600502015f909190919091505f820151815f01556020820151816001015f6101000a81548173ffffffffffffffffffffffffffffffffffffffff021916908373ffffffffffffffffffffffffffffffffffffffff160217905550604082015181600201908161076291906115fa565b50606082015181600301556080820151816004015550507f6e5546a74a8ef6731872256d3bbbf86208675b875b179abed63f4ed747a30cfb815f01518260200151836040015184606001516040516107bd94939291906116c9565b60405180910390a15050565b5f8054906101000a900473ffffffffffffffffffffffffffffffffffffffff1673ffffffffffffffffffffffffffffffffffffffff163373ffffffffffffffffffffffffffffffffffffffff1614610856576040517f08c379a000000000000000000000000000000000000000000000000000000000815260040161084d9061175d565b60405180910390fd5b8060018190555050565b5f8054906101000a900473ffffffffffffffffffffffffffffffffffffffff1681565b8060025f8473ffffffffffffffffffffffffffffffffffffffff1673ffffffffffffffffffffffffffffffffffffffff1681526020019081526020015f2082815481106108d3576108d26112a9565b5b905f5260205f2090600502015f015414610922576040517f08c379a000000000000000000000000000000000000000000000000000000000815260040161091990611320565b60405180910390fd5b5f60025f8473ffffffffffffffffffffffffffffffffffffffff1673ffffffffffffffffffffffffffffffffffffffff1681526020019081526020015f208281548110610972576109716112a9565b5b905f5260205f20906005020160040154116109c2576040517f08c379a00000000000000000000000000000000000000000000000000000000081526004016109b9906117c5565b60405180910390fd5b60025f8373ffffffffffffffffffffffffffffffffffffffff1673ffffffffffffffffffffffffffffffffffffffff1681526020019081526020015f208181548110610a1157610a106112a9565b5b905f5260205f2090600502016004015f815480929190610a30906117e3565b91905055507f5bd959f96efc2338d934ab72127be36035ff98de2f1584d2951239db17662d2133828460025f8773ffffffffffffffffffffffffffffffffffffffff1673ffffffffffffffffffffffffffffffffffffffff1681526020019081526020015f208581548110610aa857610aa76112a9565b5b905f5260205f20906005020160040154604051610ac894939291906113b2565b60405180910390a15050565b610adc610c4b565b60025f3373ffffffffffffffffffffffffffffffffffffffff1673ffffffffffffffffffffffffffffffffffffffff1681526020019081526020015f208281548110610b2b57610b2a6112a9565b5b905f5260205f2090600502016040518060a00160405290815f8201548152602001600182015f9054906101000a900473ffffffffffffffffffffffffffffffffffffffff1673ffffffffffffffffffffffffffffffffffffffff1673ffffffffffffffffffffffffffffffffffffffff168152602001600282018054610bb090611279565b80601f0160208091040260200160405190810160405280929190818152602001828054610bdc90611279565b8015610c275780601f10610bfe57610100808354040283529160200191610c27565b820191905f5260205f20905b815481529060010190602001808311610c0a57829003601f168201915b50505050508152602001600382015481526020016004820154815250509050919050565b6040518060a001604052805f81526020015f73ffffffffffffffffffffffffffffffffffffffff168152602001606081526020015f81526020015f81525090565b5f604051905090565b5f80fd5b5f80fd5b5f73ffffffffffffffffffffffffffffffffffffffff82169050919050565b5f610cc682610c9d565b9050919050565b610cd681610cbc565b8114610ce0575f80fd5b50565b5f81359050610cf181610ccd565b92915050565b5f819050919050565b610d0981610cf7565b8114610d13575f80fd5b50565b5f81359050610d2481610d00565b92915050565b5f8060408385031215610d4057610d3f610c95565b5b5f610d4d85828601610ce3565b9250506020610d5e85828601610d16565b9150509250929050565b610d7181610cf7565b82525050565b610d8081610cbc565b82525050565b5f81519050919050565b5f82825260208201905092915050565b8281835e5f83830152505050565b5f601f19601f8301169050919050565b5f610dc882610d86565b610dd28185610d90565b9350610de2818560208601610da0565b610deb81610dae565b840191505092915050565b5f60a082019050610e095f830188610d68565b610e166020830187610d77565b8181036040830152610e288186610dbe565b9050610e376060830185610d68565b610e446080830184610d68565b9695505050505050565b5f81519050919050565b5f82825260208201905092915050565b5f819050602082019050919050565b610e8081610cf7565b82525050565b610e8f81610cbc565b82525050565b5f82825260208201905092915050565b5f610eaf82610d86565b610eb98185610e95565b9350610ec9818560208601610da0565b610ed281610dae565b840191505092915050565b5f60a083015f830151610ef25f860182610e77565b506020830151610f056020860182610e86565b5060408301518482036040860152610f1d8282610ea5565b9150506060830151610f326060860182610e77565b506080830151610f456080860182610e77565b508091505092915050565b5f610f5b8383610edd565b905092915050565b5f602082019050919050565b5f610f7982610e4e565b610f838185610e58565b935083602082028501610f9585610e68565b805f5b85811015610fd05784840389528151610fb18582610f50565b9450610fbc83610f63565b925060208a01995050600181019050610f98565b50829750879550505050505092915050565b5f6020820190508181035f830152610ffa8184610f6f565b905092915050565b5f80fd5b5f80fd5b7f4e487b71000000000000000000000000000000000000000000000000000000005f52604160045260245ffd5b61104082610dae565b810181811067ffffffffffffffff8211171561105f5761105e61100a565b5b80604052505050565b5f611071610c8c565b905061107d8282611037565b919050565b5f67ffffffffffffffff82111561109c5761109b61100a565b5b6110a582610dae565b9050602081019050919050565b828183375f83830152505050565b5f6110d26110cd84611082565b611068565b9050828152602081018484840111156110ee576110ed611006565b5b6110f98482856110b2565b509392505050565b5f82601f83011261111557611114611002565b5b81356111258482602086016110c0565b91505092915050565b5f6020828403121561114357611142610c95565b5b5f82013567ffffffffffffffff8111156111605761115f610c99565b5b61116c84828501611101565b91505092915050565b5f6020828403121561118a57611189610c95565b5b5f61119784828501610d16565b91505092915050565b5f6020820190506111b35f830184610d77565b92915050565b5f60a083015f8301516111ce5f860182610e77565b5060208301516111e16020860182610e86565b50604083015184820360408601526111f98282610ea5565b915050606083015161120e6060860182610e77565b5060808301516112216080860182610e77565b508091505092915050565b5f6020820190508181035f83015261124481846111b9565b905092915050565b7f4e487b71000000000000000000000000000000000000000000000000000000005f52602260045260245ffd5b5f600282049050600182168061129057607f821691505b6020821081036112a3576112a261124c565b5b50919050565b7f4e487b71000000000000000000000000000000000000000000000000000000005f52603260045260245ffd5b7f547765657420646f6573206e6f742065786973740000000000000000000000005f82015250565b5f61130a601483610d90565b9150611315826112d6565b602082019050919050565b5f6020820190508181035f830152611337816112fe565b9050919050565b7f4e487b71000000000000000000000000000000000000000000000000000000005f52601160045260245ffd5b5f61137582610cf7565b91507fffffffffffffffffffffffffffffffffffffffffffffffffffffffffffffffff82036113a7576113a661133e565b5b600182019050919050565b5f6080820190506113c55f830187610d77565b6113d26020830186610d68565b6113df6040830185610d77565b6113ec6060830184610d68565b95945050505050565b7f547765657420697320746f6f206c6f6e670000000000000000000000000000005f82015250565b5f611429601183610d90565b9150611434826113f5565b602082019050919050565b5f6020820190508181035f8301526114568161141d565b9050919050565b5f819050815f5260205f209050919050565b5f6020601f8301049050919050565b5f82821b905092915050565b5f600883026114b97fffffffffffffffffffffffffffffffffffffffffffffffffffffffffffffffff8261147e565b6114c3868361147e565b95508019841693508086168417925050509392505050565b5f819050919050565b5f6114fe6114f96114f484610cf7565b6114db565b610cf7565b9050919050565b5f819050919050565b611517836114e4565b61152b61152382611505565b84845461148a565b825550505050565b5f90565b61153f611533565b61154a81848461150e565b505050565b5b8181101561156d576115625f82611537565b600181019050611550565b5050565b601f8211156115b2576115838161145d565b61158c8461146f565b8101602085101561159b578190505b6115af6115a78561146f565b83018261154f565b50505b505050565b5f82821c905092915050565b5f6115d25f19846008026115b7565b1980831691505092915050565b5f6115ea83836115c3565b9150826002028217905092915050565b61160382610d86565b67ffffffffffffffff81111561161c5761161b61100a565b5b6116268254611279565b611631828285611571565b5f60209050601f831160018114611662575f8415611650578287015190505b61165a85826115df565b8655506116c1565b601f1984166116708661145d565b5f5b8281101561169757848901518255600182019150602085019450602081019050611672565b868310156116b457848901516116b0601f8916826115c3565b8355505b6001600288020188555050505b505050505050565b5f6080820190506116dc5f830187610d68565b6116e96020830186610d77565b81810360408301526116fb8185610dbe565b905061170a6060830184610d68565b95945050505050565b7f596f7520617265206e6f7420746865206f776e657200000000000000000000005f82015250565b5f611747601583610d90565b915061175282611713565b602082019050919050565b5f6020820190508181035f8301526117748161173b565b9050919050565b7f547765657420686173206e6f206c696b657300000000000000000000000000005f82015250565b5f6117af601283610d90565b91506117ba8261177b565b602082019050919050565b5f6020820190508181035f8301526117dc816117a3565b9050919050565b5f6117ed82610cf7565b91505f82036117ff576117fe61133e565b5b60018203905091905056fea26469706673582212201a82c3bcf2e39719befb7f61658228c7073a57dec2ac7ec830becfcb5fb4549764736f6c634300081a0033",
					"opcodes": "PUSH1 0x80 PUSH1 0x40 MSTORE CALLVALUE DUP1 ISZERO PUSH1 0xE JUMPI PUSH0 DUP1 REVERT JUMPDEST POP CALLER PUSH0 DUP1 PUSH2 0x100 EXP DUP2 SLOAD DUP2 PUSH20 0xFFFFFFFFFFFFFFFFFFFFFFFFFFFFFFFFFFFFFFFF MUL NOT AND SWAP1 DUP4 PUSH20 0xFFFFFFFFFFFFFFFFFFFFFFFFFFFFFFFFFFFFFFFF AND MUL OR SWAP1 SSTORE POP PUSH2 0x118 PUSH1 0x1 DUP2 SWAP1 SSTORE POP PUSH2 0x1840 DUP1 PUSH2 0x64 PUSH0 CODECOPY PUSH0 RETURN INVALID PUSH1 0x80 PUSH1 0x40 MSTORE CALLVALUE DUP1 ISZERO PUSH2 0xF JUMPI PUSH0 DUP1 REVERT JUMPDEST POP PUSH1 0x4 CALLDATASIZE LT PUSH2 0x86 JUMPI PUSH0 CALLDATALOAD PUSH1 0xE0 SHR DUP1 PUSH4 0x888A7880 GT PUSH2 0x59 JUMPI DUP1 PUSH4 0x888A7880 EQ PUSH2 0x114 JUMPI DUP1 PUSH4 0x8DA5CB5B EQ PUSH2 0x130 JUMPI DUP1 PUSH4 0x9EF8633F EQ PUSH2 0x14E JUMPI DUP1 PUSH4 0xC3AD5ECB EQ PUSH2 0x16A JUMPI PUSH2 0x86 JUMP JUMPDEST DUP1 PUSH4 0x5A1B4A9 EQ PUSH2 0x8A JUMPI DUP1 PUSH4 0x63378216 EQ PUSH2 0xBE JUMPI DUP1 PUSH4 0x675E0FB7 EQ PUSH2 0xDA JUMPI DUP1 PUSH4 0x7C9CD2BC EQ PUSH2 0xF8 JUMPI JUMPDEST PUSH0 DUP1 REVERT JUMPDEST PUSH2 0xA4 PUSH1 0x4 DUP1 CALLDATASIZE SUB DUP2 ADD SWAP1 PUSH2 0x9F SWAP2 SWAP1 PUSH2 0xD2A JUMP JUMPDEST PUSH2 0x19A JUMP JUMPDEST PUSH1 0x40 MLOAD PUSH2 0xB5 SWAP6 SWAP5 SWAP4 SWAP3 SWAP2 SWAP1 PUSH2 0xDF6 JUMP JUMPDEST PUSH1 0x40 MLOAD DUP1 SWAP2 SUB SWAP1 RETURN JUMPDEST PUSH2 0xD8 PUSH1 0x4 DUP1 CALLDATASIZE SUB DUP2 ADD SWAP1 PUSH2 0xD3 SWAP2 SWAP1 PUSH2 0xD2A JUMP JUMPDEST PUSH2 0x28B JUMP JUMPDEST STOP JUMPDEST PUSH2 0xE2 PUSH2 0x43C JUMP JUMPDEST PUSH1 0x40 MLOAD PUSH2 0xEF SWAP2 SWAP1 PUSH2 0xFE2 JUMP JUMPDEST PUSH1 0x40 MLOAD DUP1 SWAP2 SUB SWAP1 RETURN JUMPDEST PUSH2 0x112 PUSH1 0x4 DUP1 CALLDATASIZE SUB DUP2 ADD SWAP1 PUSH2 0x10D SWAP2 SWAP1 PUSH2 0x112E JUMP JUMPDEST PUSH2 0x5D5 JUMP JUMPDEST STOP JUMPDEST PUSH2 0x12E PUSH1 0x4 DUP1 CALLDATASIZE SUB DUP2 ADD SWAP1 PUSH2 0x129 SWAP2 SWAP1 PUSH2 0x1175 JUMP JUMPDEST PUSH2 0x7C9 JUMP JUMPDEST STOP JUMPDEST PUSH2 0x138 PUSH2 0x860 JUMP JUMPDEST PUSH1 0x40 MLOAD PUSH2 0x145 SWAP2 SWAP1 PUSH2 0x11A0 JUMP JUMPDEST PUSH1 0x40 MLOAD DUP1 SWAP2 SUB SWAP1 RETURN JUMPDEST PUSH2 0x168 PUSH1 0x4 DUP1 CALLDATASIZE SUB DUP2 ADD SWAP1 PUSH2 0x163 SWAP2 SWAP1 PUSH2 0xD2A JUMP JUMPDEST PUSH2 0x883 JUMP JUMPDEST STOP JUMPDEST PUSH2 0x184 PUSH1 0x4 DUP1 CALLDATASIZE SUB DUP2 ADD SWAP1 PUSH2 0x17F SWAP2 SWAP1 PUSH2 0x1175 JUMP JUMPDEST PUSH2 0xAD4 JUMP JUMPDEST PUSH1 0x40 MLOAD PUSH2 0x191 SWAP2 SWAP1 PUSH2 0x122C JUMP JUMPDEST PUSH1 0x40 MLOAD DUP1 SWAP2 SUB SWAP1 RETURN JUMPDEST PUSH1 0x2 PUSH1 0x20 MSTORE DUP2 PUSH0 MSTORE PUSH1 0x40 PUSH0 KECCAK256 DUP2 DUP2 SLOAD DUP2 LT PUSH2 0x1B3 JUMPI PUSH0 DUP1 REVERT JUMPDEST SWAP1 PUSH0 MSTORE PUSH1 0x20 PUSH0 KECCAK256 SWAP1 PUSH1 0x5 MUL ADD PUSH0 SWAP2 POP SWAP2 POP POP DUP1 PUSH0 ADD SLOAD SWAP1 DUP1 PUSH1 0x1 ADD PUSH0 SWAP1 SLOAD SWAP1 PUSH2 0x100 EXP SWAP1 DIV PUSH20 0xFFFFFFFFFFFFFFFFFFFFFFFFFFFFFFFFFFFFFFFF AND SWAP1 DUP1 PUSH1 0x2 ADD DUP1 SLOAD PUSH2 0x1FE SWAP1 PUSH2 0x1279 JUMP JUMPDEST DUP1 PUSH1 0x1F ADD PUSH1 0x20 DUP1 SWAP2 DIV MUL PUSH1 0x20 ADD PUSH1 0x40 MLOAD SWAP1 DUP2 ADD PUSH1 0x40 MSTORE DUP1 SWAP3 SWAP2 SWAP1 DUP2 DUP2 MSTORE PUSH1 0x20 ADD DUP3 DUP1 SLOAD PUSH2 0x22A SWAP1 PUSH2 0x1279 JUMP JUMPDEST DUP1 ISZERO PUSH2 0x275 JUMPI DUP1 PUSH1 0x1F LT PUSH2 0x24C JUMPI PUSH2 0x100 DUP1 DUP4 SLOAD DIV MUL DUP4 MSTORE SWAP2 PUSH1 0x20 ADD SWAP2 PUSH2 0x275 JUMP JUMPDEST DUP3 ADD SWAP2 SWAP1 PUSH0 MSTORE PUSH1 0x20 PUSH0 KECCAK256 SWAP1 JUMPDEST DUP2 SLOAD DUP2 MSTORE SWAP1 PUSH1 0x1 ADD SWAP1 PUSH1 0x20 ADD DUP1 DUP4 GT PUSH2 0x258 JUMPI DUP3 SWAP1 SUB PUSH1 0x1F AND DUP3 ADD SWAP2 JUMPDEST POP POP POP POP POP SWAP1 DUP1 PUSH1 0x3 ADD SLOAD SWAP1 DUP1 PUSH1 0x4 ADD SLOAD SWAP1 POP DUP6 JUMP JUMPDEST DUP1 PUSH1 0x2 PUSH0 DUP5 PUSH20 0xFFFFFFFFFFFFFFFFFFFFFFFFFFFFFFFFFFFFFFFF AND PUSH20 0xFFFFFFFFFFFFFFFFFFFFFFFFFFFFFFFFFFFFFFFF AND DUP2 MSTORE PUSH1 0x20 ADD SWAP1 DUP2 MSTORE PUSH1 0x20 ADD PUSH0 KECCAK256 DUP3 DUP2 SLOAD DUP2 LT PUSH2 0x2DB JUMPI PUSH2 0x2DA PUSH2 0x12A9 JUMP JUMPDEST JUMPDEST SWAP1 PUSH0 MSTORE PUSH1 0x20 PUSH0 KECCAK256 SWAP1 PUSH1 0x5 MUL ADD PUSH0 ADD SLOAD EQ PUSH2 0x32A JUMPI PUSH1 0x40 MLOAD PUSH32 0x8C379A000000000000000000000000000000000000000000000000000000000 DUP2 MSTORE PUSH1 0x4 ADD PUSH2 0x321 SWAP1 PUSH2 0x1320 JUMP JUMPDEST PUSH1 0x40 MLOAD DUP1 SWAP2 SUB SWAP1 REVERT JUMPDEST PUSH1 0x2 PUSH0 DUP4 PUSH20 0xFFFFFFFFFFFFFFFFFFFFFFFFFFFFFFFFFFFFFFFF AND PUSH20 0xFFFFFFFFFFFFFFFFFFFFFFFFFFFFFFFFFFFFFFFF AND DUP2 MSTORE PUSH1 0x20 ADD SWAP1 DUP2 MSTORE PUSH1 0x20 ADD PUSH0 KECCAK256 DUP2 DUP2 SLOAD DUP2 LT PUSH2 0x379 JUMPI PUSH2 0x378 PUSH2 0x12A9 JUMP JUMPDEST JUMPDEST SWAP1 PUSH0 MSTORE PUSH1 0x20 PUSH0 KECCAK256 SWAP1 PUSH1 0x5 MUL ADD PUSH1 0x4 ADD PUSH0 DUP2 SLOAD DUP1 SWAP3 SWAP2 SWAP1 PUSH2 0x398 SWAP1 PUSH2 0x136B JUMP JUMPDEST SWAP2 SWAP1 POP SSTORE POP PUSH32 0x5BD959F96EFC2338D934AB72127BE36035FF98DE2F1584D2951239DB17662D21 CALLER DUP3 DUP5 PUSH1 0x2 PUSH0 DUP8 PUSH20 0xFFFFFFFFFFFFFFFFFFFFFFFFFFFFFFFFFFFFFFFF AND PUSH20 0xFFFFFFFFFFFFFFFFFFFFFFFFFFFFFFFFFFFFFFFF AND DUP2 MSTORE PUSH1 0x20 ADD SWAP1 DUP2 MSTORE PUSH1 0x20 ADD PUSH0 KECCAK256 DUP6 DUP2 SLOAD DUP2 LT PUSH2 0x410 JUMPI PUSH2 0x40F PUSH2 0x12A9 JUMP JUMPDEST JUMPDEST SWAP1 PUSH0 MSTORE PUSH1 0x20 PUSH0 KECCAK256 SWAP1 PUSH1 0x5 MUL ADD PUSH1 0x4 ADD SLOAD PUSH1 0x40 MLOAD PUSH2 0x430 SWAP5 SWAP4 SWAP3 SWAP2 SWAP1 PUSH2 0x13B2 JUMP JUMPDEST PUSH1 0x40 MLOAD DUP1 SWAP2 SUB SWAP1 LOG1 POP POP JUMP JUMPDEST PUSH1 0x60 PUSH1 0x2 PUSH0 CALLER PUSH20 0xFFFFFFFFFFFFFFFFFFFFFFFFFFFFFFFFFFFFFFFF AND PUSH20 0xFFFFFFFFFFFFFFFFFFFFFFFFFFFFFFFFFFFFFFFF AND DUP2 MSTORE PUSH1 0x20 ADD SWAP1 DUP2 MSTORE PUSH1 0x20 ADD PUSH0 KECCAK256 DUP1 SLOAD DUP1 PUSH1 0x20 MUL PUSH1 0x20 ADD PUSH1 0x40 MLOAD SWAP1 DUP2 ADD PUSH1 0x40 MSTORE DUP1 SWAP3 SWAP2 SWAP1 DUP2 DUP2 MSTORE PUSH1 0x20 ADD PUSH0 SWAP1 JUMPDEST DUP3 DUP3 LT ISZERO PUSH2 0x5CC JUMPI DUP4 DUP3 SWAP1 PUSH0 MSTORE PUSH1 0x20 PUSH0 KECCAK256 SWAP1 PUSH1 0x5 MUL ADD PUSH1 0x40 MLOAD DUP1 PUSH1 0xA0 ADD PUSH1 0x40 MSTORE SWAP1 DUP2 PUSH0 DUP3 ADD SLOAD DUP2 MSTORE PUSH1 0x20 ADD PUSH1 0x1 DUP3 ADD PUSH0 SWAP1 SLOAD SWAP1 PUSH2 0x100 EXP SWAP1 DIV PUSH20 0xFFFFFFFFFFFFFFFFFFFFFFFFFFFFFFFFFFFFFFFF AND PUSH20 0xFFFFFFFFFFFFFFFFFFFFFFFFFFFFFFFFFFFFFFFF AND PUSH20 0xFFFFFFFFFFFFFFFFFFFFFFFFFFFFFFFFFFFFFFFF AND DUP2 MSTORE PUSH1 0x20 ADD PUSH1 0x2 DUP3 ADD DUP1 SLOAD PUSH2 0x529 SWAP1 PUSH2 0x1279 JUMP JUMPDEST DUP1 PUSH1 0x1F ADD PUSH1 0x20 DUP1 SWAP2 DIV MUL PUSH1 0x20 ADD PUSH1 0x40 MLOAD SWAP1 DUP2 ADD PUSH1 0x40 MSTORE DUP1 SWAP3 SWAP2 SWAP1 DUP2 DUP2 MSTORE PUSH1 0x20 ADD DUP3 DUP1 SLOAD PUSH2 0x555 SWAP1 PUSH2 0x1279 JUMP JUMPDEST DUP1 ISZERO PUSH2 0x5A0 JUMPI DUP1 PUSH1 0x1F LT PUSH2 0x577 JUMPI PUSH2 0x100 DUP1 DUP4 SLOAD DIV MUL DUP4 MSTORE SWAP2 PUSH1 0x20 ADD SWAP2 PUSH2 0x5A0 JUMP JUMPDEST DUP3 ADD SWAP2 SWAP1 PUSH0 MSTORE PUSH1 0x20 PUSH0 KECCAK256 SWAP1 JUMPDEST DUP2 SLOAD DUP2 MSTORE SWAP1 PUSH1 0x1 ADD SWAP1 PUSH1 0x20 ADD DUP1 DUP4 GT PUSH2 0x583 JUMPI DUP3 SWAP1 SUB PUSH1 0x1F AND DUP3 ADD SWAP2 JUMPDEST POP POP POP POP POP DUP2 MSTORE PUSH1 0x20 ADD PUSH1 0x3 DUP3 ADD SLOAD DUP2 MSTORE PUSH1 0x20 ADD PUSH1 0x4 DUP3 ADD SLOAD DUP2 MSTORE POP POP DUP2 MSTORE PUSH1 0x20 ADD SWAP1 PUSH1 0x1 ADD SWAP1 PUSH2 0x49A JUMP JUMPDEST POP POP POP POP SWAP1 POP SWAP1 JUMP JUMPDEST PUSH1 0x1 SLOAD DUP2 MLOAD GT ISZERO PUSH2 0x61B JUMPI PUSH1 0x40 MLOAD PUSH32 0x8C379A000000000000000000000000000000000000000000000000000000000 DUP2 MSTORE PUSH1 0x4 ADD PUSH2 0x612 SWAP1 PUSH2 0x143F JUMP JUMPDEST PUSH1 0x40 MLOAD DUP1 SWAP2 SUB SWAP1 REVERT JUMPDEST PUSH0 PUSH1 0x40 MLOAD DUP1 PUSH1 0xA0 ADD PUSH1 0x40 MSTORE DUP1 PUSH1 0x2 PUSH0 CALLER PUSH20 0xFFFFFFFFFFFFFFFFFFFFFFFFFFFFFFFFFFFFFFFF AND PUSH20 0xFFFFFFFFFFFFFFFFFFFFFFFFFFFFFFFFFFFFFFFF AND DUP2 MSTORE PUSH1 0x20 ADD SWAP1 DUP2 MSTORE PUSH1 0x20 ADD PUSH0 KECCAK256 DUP1 SLOAD SWAP1 POP DUP2 MSTORE PUSH1 0x20 ADD CALLER PUSH20 0xFFFFFFFFFFFFFFFFFFFFFFFFFFFFFFFFFFFFFFFF AND DUP2 MSTORE PUSH1 0x20 ADD DUP4 DUP2 MSTORE PUSH1 0x20 ADD TIMESTAMP DUP2 MSTORE PUSH1 0x20 ADD PUSH0 DUP2 MSTORE POP SWAP1 POP PUSH1 0x2 PUSH0 CALLER PUSH20 0xFFFFFFFFFFFFFFFFFFFFFFFFFFFFFFFFFFFFFFFF AND PUSH20 0xFFFFFFFFFFFFFFFFFFFFFFFFFFFFFFFFFFFFFFFF AND DUP2 MSTORE PUSH1 0x20 ADD SWAP1 DUP2 MSTORE PUSH1 0x20 ADD PUSH0 KECCAK256 DUP2 SWAP1 DUP1 PUSH1 0x1 DUP2 SLOAD ADD DUP1 DUP3 SSTORE DUP1 SWAP2 POP POP PUSH1 0x1 SWAP1 SUB SWAP1 PUSH0 MSTORE PUSH1 0x20 PUSH0 KECCAK256 SWAP1 PUSH1 0x5 MUL ADD PUSH0 SWAP1 SWAP2 SWAP1 SWAP2 SWAP1 SWAP2 POP PUSH0 DUP3 ADD MLOAD DUP2 PUSH0 ADD SSTORE PUSH1 0x20 DUP3 ADD MLOAD DUP2 PUSH1 0x1 ADD PUSH0 PUSH2 0x100 EXP DUP2 SLOAD DUP2 PUSH20 0xFFFFFFFFFFFFFFFFFFFFFFFFFFFFFFFFFFFFFFFF MUL NOT AND SWAP1 DUP4 PUSH20 0xFFFFFFFFFFFFFFFFFFFFFFFFFFFFFFFFFFFFFFFF AND MUL OR SWAP1 SSTORE POP PUSH1 0x40 DUP3 ADD MLOAD DUP2 PUSH1 0x2 ADD SWAP1 DUP2 PUSH2 0x762 SWAP2 SWAP1 PUSH2 0x15FA JUMP JUMPDEST POP PUSH1 0x60 DUP3 ADD MLOAD DUP2 PUSH1 0x3 ADD SSTORE PUSH1 0x80 DUP3 ADD MLOAD DUP2 PUSH1 0x4 ADD SSTORE POP POP PUSH32 0x6E5546A74A8EF6731872256D3BBBF86208675B875B179ABED63F4ED747A30CFB DUP2 PUSH0 ADD MLOAD DUP3 PUSH1 0x20 ADD MLOAD DUP4 PUSH1 0x40 ADD MLOAD DUP5 PUSH1 0x60 ADD MLOAD PUSH1 0x40 MLOAD PUSH2 0x7BD SWAP5 SWAP4 SWAP3 SWAP2 SWAP1 PUSH2 0x16C9 JUMP JUMPDEST PUSH1 0x40 MLOAD DUP1 SWAP2 SUB SWAP1 LOG1 POP POP JUMP JUMPDEST PUSH0 DUP1 SLOAD SWAP1 PUSH2 0x100 EXP SWAP1 DIV PUSH20 0xFFFFFFFFFFFFFFFFFFFFFFFFFFFFFFFFFFFFFFFF AND PUSH20 0xFFFFFFFFFFFFFFFFFFFFFFFFFFFFFFFFFFFFFFFF AND CALLER PUSH20 0xFFFFFFFFFFFFFFFFFFFFFFFFFFFFFFFFFFFFFFFF AND EQ PUSH2 0x856 JUMPI PUSH1 0x40 MLOAD PUSH32 0x8C379A000000000000000000000000000000000000000000000000000000000 DUP2 MSTORE PUSH1 0x4 ADD PUSH2 0x84D SWAP1 PUSH2 0x175D JUMP JUMPDEST PUSH1 0x40 MLOAD DUP1 SWAP2 SUB SWAP1 REVERT JUMPDEST DUP1 PUSH1 0x1 DUP2 SWAP1 SSTORE POP POP JUMP JUMPDEST PUSH0 DUP1 SLOAD SWAP1 PUSH2 0x100 EXP SWAP1 DIV PUSH20 0xFFFFFFFFFFFFFFFFFFFFFFFFFFFFFFFFFFFFFFFF AND DUP2 JUMP JUMPDEST DUP1 PUSH1 0x2 PUSH0 DUP5 PUSH20 0xFFFFFFFFFFFFFFFFFFFFFFFFFFFFFFFFFFFFFFFF AND PUSH20 0xFFFFFFFFFFFFFFFFFFFFFFFFFFFFFFFFFFFFFFFF AND DUP2 MSTORE PUSH1 0x20 ADD SWAP1 DUP2 MSTORE PUSH1 0x20 ADD PUSH0 KECCAK256 DUP3 DUP2 SLOAD DUP2 LT PUSH2 0x8D3 JUMPI PUSH2 0x8D2 PUSH2 0x12A9 JUMP JUMPDEST JUMPDEST SWAP1 PUSH0 MSTORE PUSH1 0x20 PUSH0 KECCAK256 SWAP1 PUSH1 0x5 MUL ADD PUSH0 ADD SLOAD EQ PUSH2 0x922 JUMPI PUSH1 0x40 MLOAD PUSH32 0x8C379A000000000000000000000000000000000000000000000000000000000 DUP2 MSTORE PUSH1 0x4 ADD PUSH2 0x919 SWAP1 PUSH2 0x1320 JUMP JUMPDEST PUSH1 0x40 MLOAD DUP1 SWAP2 SUB SWAP1 REVERT JUMPDEST PUSH0 PUSH1 0x2 PUSH0 DUP5 PUSH20 0xFFFFFFFFFFFFFFFFFFFFFFFFFFFFFFFFFFFFFFFF AND PUSH20 0xFFFFFFFFFFFFFFFFFFFFFFFFFFFFFFFFFFFFFFFF AND DUP2 MSTORE PUSH1 0x20 ADD SWAP1 DUP2 MSTORE PUSH1 0x20 ADD PUSH0 KECCAK256 DUP3 DUP2 SLOAD DUP2 LT PUSH2 0x972 JUMPI PUSH2 0x971 PUSH2 0x12A9 JUMP JUMPDEST JUMPDEST SWAP1 PUSH0 MSTORE PUSH1 0x20 PUSH0 KECCAK256 SWAP1 PUSH1 0x5 MUL ADD PUSH1 0x4 ADD SLOAD GT PUSH2 0x9C2 JUMPI PUSH1 0x40 MLOAD PUSH32 0x8C379A000000000000000000000000000000000000000000000000000000000 DUP2 MSTORE PUSH1 0x4 ADD PUSH2 0x9B9 SWAP1 PUSH2 0x17C5 JUMP JUMPDEST PUSH1 0x40 MLOAD DUP1 SWAP2 SUB SWAP1 REVERT JUMPDEST PUSH1 0x2 PUSH0 DUP4 PUSH20 0xFFFFFFFFFFFFFFFFFFFFFFFFFFFFFFFFFFFFFFFF AND PUSH20 0xFFFFFFFFFFFFFFFFFFFFFFFFFFFFFFFFFFFFFFFF AND DUP2 MSTORE PUSH1 0x20 ADD SWAP1 DUP2 MSTORE PUSH1 0x20 ADD PUSH0 KECCAK256 DUP2 DUP2 SLOAD DUP2 LT PUSH2 0xA11 JUMPI PUSH2 0xA10 PUSH2 0x12A9 JUMP JUMPDEST JUMPDEST SWAP1 PUSH0 MSTORE PUSH1 0x20 PUSH0 KECCAK256 SWAP1 PUSH1 0x5 MUL ADD PUSH1 0x4 ADD PUSH0 DUP2 SLOAD DUP1 SWAP3 SWAP2 SWAP1 PUSH2 0xA30 SWAP1 PUSH2 0x17E3 JUMP JUMPDEST SWAP2 SWAP1 POP SSTORE POP PUSH32 0x5BD959F96EFC2338D934AB72127BE36035FF98DE2F1584D2951239DB17662D21 CALLER DUP3 DUP5 PUSH1 0x2 PUSH0 DUP8 PUSH20 0xFFFFFFFFFFFFFFFFFFFFFFFFFFFFFFFFFFFFFFFF AND PUSH20 0xFFFFFFFFFFFFFFFFFFFFFFFFFFFFFFFFFFFFFFFF AND DUP2 MSTORE PUSH1 0x20 ADD SWAP1 DUP2 MSTORE PUSH1 0x20 ADD PUSH0 KECCAK256 DUP6 DUP2 SLOAD DUP2 LT PUSH2 0xAA8 JUMPI PUSH2 0xAA7 PUSH2 0x12A9 JUMP JUMPDEST JUMPDEST SWAP1 PUSH0 MSTORE PUSH1 0x20 PUSH0 KECCAK256 SWAP1 PUSH1 0x5 MUL ADD PUSH1 0x4 ADD SLOAD PUSH1 0x40 MLOAD PUSH2 0xAC8 SWAP5 SWAP4 SWAP3 SWAP2 SWAP1 PUSH2 0x13B2 JUMP JUMPDEST PUSH1 0x40 MLOAD DUP1 SWAP2 SUB SWAP1 LOG1 POP POP JUMP JUMPDEST PUSH2 0xADC PUSH2 0xC4B JUMP JUMPDEST PUSH1 0x2 PUSH0 CALLER PUSH20 0xFFFFFFFFFFFFFFFFFFFFFFFFFFFFFFFFFFFFFFFF AND PUSH20 0xFFFFFFFFFFFFFFFFFFFFFFFFFFFFFFFFFFFFFFFF AND DUP2 MSTORE PUSH1 0x20 ADD SWAP1 DUP2 MSTORE PUSH1 0x20 ADD PUSH0 KECCAK256 DUP3 DUP2 SLOAD DUP2 LT PUSH2 0xB2B JUMPI PUSH2 0xB2A PUSH2 0x12A9 JUMP JUMPDEST JUMPDEST SWAP1 PUSH0 MSTORE PUSH1 0x20 PUSH0 KECCAK256 SWAP1 PUSH1 0x5 MUL ADD PUSH1 0x40 MLOAD DUP1 PUSH1 0xA0 ADD PUSH1 0x40 MSTORE SWAP1 DUP2 PUSH0 DUP3 ADD SLOAD DUP2 MSTORE PUSH1 0x20 ADD PUSH1 0x1 DUP3 ADD PUSH0 SWAP1 SLOAD SWAP1 PUSH2 0x100 EXP SWAP1 DIV PUSH20 0xFFFFFFFFFFFFFFFFFFFFFFFFFFFFFFFFFFFFFFFF AND PUSH20 0xFFFFFFFFFFFFFFFFFFFFFFFFFFFFFFFFFFFFFFFF AND PUSH20 0xFFFFFFFFFFFFFFFFFFFFFFFFFFFFFFFFFFFFFFFF AND DUP2 MSTORE PUSH1 0x20 ADD PUSH1 0x2 DUP3 ADD DUP1 SLOAD PUSH2 0xBB0 SWAP1 PUSH2 0x1279 JUMP JUMPDEST DUP1 PUSH1 0x1F ADD PUSH1 0x20 DUP1 SWAP2 DIV MUL PUSH1 0x20 ADD PUSH1 0x40 MLOAD SWAP1 DUP2 ADD PUSH1 0x40 MSTORE DUP1 SWAP3 SWAP2 SWAP1 DUP2 DUP2 MSTORE PUSH1 0x20 ADD DUP3 DUP1 SLOAD PUSH2 0xBDC SWAP1 PUSH2 0x1279 JUMP JUMPDEST DUP1 ISZERO PUSH2 0xC27 JUMPI DUP1 PUSH1 0x1F LT PUSH2 0xBFE JUMPI PUSH2 0x100 DUP1 DUP4 SLOAD DIV MUL DUP4 MSTORE SWAP2 PUSH1 0x20 ADD SWAP2 PUSH2 0xC27 JUMP JUMPDEST DUP3 ADD SWAP2 SWAP1 PUSH0 MSTORE PUSH1 0x20 PUSH0 KECCAK256 SWAP1 JUMPDEST DUP2 SLOAD DUP2 MSTORE SWAP1 PUSH1 0x1 ADD SWAP1 PUSH1 0x20 ADD DUP1 DUP4 GT PUSH2 0xC0A JUMPI DUP3 SWAP1 SUB PUSH1 0x1F AND DUP3 ADD SWAP2 JUMPDEST POP POP POP POP POP DUP2 MSTORE PUSH1 0x20 ADD PUSH1 0x3 DUP3 ADD SLOAD DUP2 MSTORE PUSH1 0x20 ADD PUSH1 0x4 DUP3 ADD SLOAD DUP2 MSTORE POP POP SWAP1 POP SWAP2 SWAP1 POP JUMP JUMPDEST PUSH1 0x40 MLOAD DUP1 PUSH1 0xA0 ADD PUSH1 0x40 MSTORE DUP1 PUSH0 DUP2 MSTORE PUSH1 0x20 ADD PUSH0 PUSH20 0xFFFFFFFFFFFFFFFFFFFFFFFFFFFFFFFFFFFFFFFF AND DUP2 MSTORE PUSH1 0x20 ADD PUSH1 0x60 DUP2 MSTORE PUSH1 0x20 ADD PUSH0 DUP2 MSTORE PUSH1 0x20 ADD PUSH0 DUP2 MSTORE POP SWAP1 JUMP JUMPDEST PUSH0 PUSH1 0x40 MLOAD SWAP1 POP SWAP1 JUMP JUMPDEST PUSH0 DUP1 REVERT JUMPDEST PUSH0 DUP1 REVERT JUMPDEST PUSH0 PUSH20 0xFFFFFFFFFFFFFFFFFFFFFFFFFFFFFFFFFFFFFFFF DUP3 AND SWAP1 POP SWAP2 SWAP1 POP JUMP JUMPDEST PUSH0 PUSH2 0xCC6 DUP3 PUSH2 0xC9D JUMP JUMPDEST SWAP1 POP SWAP2 SWAP1 POP JUMP JUMPDEST PUSH2 0xCD6 DUP2 PUSH2 0xCBC JUMP JUMPDEST DUP2 EQ PUSH2 0xCE0 JUMPI PUSH0 DUP1 REVERT JUMPDEST POP JUMP JUMPDEST PUSH0 DUP2 CALLDATALOAD SWAP1 POP PUSH2 0xCF1 DUP2 PUSH2 0xCCD JUMP JUMPDEST SWAP3 SWAP2 POP POP JUMP JUMPDEST PUSH0 DUP2 SWAP1 POP SWAP2 SWAP1 POP JUMP JUMPDEST PUSH2 0xD09 DUP2 PUSH2 0xCF7 JUMP JUMPDEST DUP2 EQ PUSH2 0xD13 JUMPI PUSH0 DUP1 REVERT JUMPDEST POP JUMP JUMPDEST PUSH0 DUP2 CALLDATALOAD SWAP1 POP PUSH2 0xD24 DUP2 PUSH2 0xD00 JUMP JUMPDEST SWAP3 SWAP2 POP POP JUMP JUMPDEST PUSH0 DUP1 PUSH1 0x40 DUP4 DUP6 SUB SLT ISZERO PUSH2 0xD40 JUMPI PUSH2 0xD3F PUSH2 0xC95 JUMP JUMPDEST JUMPDEST PUSH0 PUSH2 0xD4D DUP6 DUP3 DUP7 ADD PUSH2 0xCE3 JUMP JUMPDEST SWAP3 POP POP PUSH1 0x20 PUSH2 0xD5E DUP6 DUP3 DUP7 ADD PUSH2 0xD16 JUMP JUMPDEST SWAP2 POP POP SWAP3 POP SWAP3 SWAP1 POP JUMP JUMPDEST PUSH2 0xD71 DUP2 PUSH2 0xCF7 JUMP JUMPDEST DUP3 MSTORE POP POP JUMP JUMPDEST PUSH2 0xD80 DUP2 PUSH2 0xCBC JUMP JUMPDEST DUP3 MSTORE POP POP JUMP JUMPDEST PUSH0 DUP2 MLOAD SWAP1 POP SWAP2 SWAP1 POP JUMP JUMPDEST PUSH0 DUP3 DUP3 MSTORE PUSH1 0x20 DUP3 ADD SWAP1 POP SWAP3 SWAP2 POP POP JUMP JUMPDEST DUP3 DUP2 DUP4 MCOPY PUSH0 DUP4 DUP4 ADD MSTORE POP POP POP JUMP JUMPDEST PUSH0 PUSH1 0x1F NOT PUSH1 0x1F DUP4 ADD AND SWAP1 POP SWAP2 SWAP1 POP JUMP JUMPDEST PUSH0 PUSH2 0xDC8 DUP3 PUSH2 0xD86 JUMP JUMPDEST PUSH2 0xDD2 DUP2 DUP6 PUSH2 0xD90 JUMP JUMPDEST SWAP4 POP PUSH2 0xDE2 DUP2 DUP6 PUSH1 0x20 DUP7 ADD PUSH2 0xDA0 JUMP JUMPDEST PUSH2 0xDEB DUP2 PUSH2 0xDAE JUMP JUMPDEST DUP5 ADD SWAP2 POP POP SWAP3 SWAP2 POP POP JUMP JUMPDEST PUSH0 PUSH1 0xA0 DUP3 ADD SWAP1 POP PUSH2 0xE09 PUSH0 DUP4 ADD DUP9 PUSH2 0xD68 JUMP JUMPDEST PUSH2 0xE16 PUSH1 0x20 DUP4 ADD DUP8 PUSH2 0xD77 JUMP JUMPDEST DUP2 DUP2 SUB PUSH1 0x40 DUP4 ADD MSTORE PUSH2 0xE28 DUP2 DUP7 PUSH2 0xDBE JUMP JUMPDEST SWAP1 POP PUSH2 0xE37 PUSH1 0x60 DUP4 ADD DUP6 PUSH2 0xD68 JUMP JUMPDEST PUSH2 0xE44 PUSH1 0x80 DUP4 ADD DUP5 PUSH2 0xD68 JUMP JUMPDEST SWAP7 SWAP6 POP POP POP POP POP POP JUMP JUMPDEST PUSH0 DUP2 MLOAD SWAP1 POP SWAP2 SWAP1 POP JUMP JUMPDEST PUSH0 DUP3 DUP3 MSTORE PUSH1 0x20 DUP3 ADD SWAP1 POP SWAP3 SWAP2 POP POP JUMP JUMPDEST PUSH0 DUP2 SWAP1 POP PUSH1 0x20 DUP3 ADD SWAP1 POP SWAP2 SWAP1 POP JUMP JUMPDEST PUSH2 0xE80 DUP2 PUSH2 0xCF7 JUMP JUMPDEST DUP3 MSTORE POP POP JUMP JUMPDEST PUSH2 0xE8F DUP2 PUSH2 0xCBC JUMP JUMPDEST DUP3 MSTORE POP POP JUMP JUMPDEST PUSH0 DUP3 DUP3 MSTORE PUSH1 0x20 DUP3 ADD SWAP1 POP SWAP3 SWAP2 POP POP JUMP JUMPDEST PUSH0 PUSH2 0xEAF DUP3 PUSH2 0xD86 JUMP JUMPDEST PUSH2 0xEB9 DUP2 DUP6 PUSH2 0xE95 JUMP JUMPDEST SWAP4 POP PUSH2 0xEC9 DUP2 DUP6 PUSH1 0x20 DUP7 ADD PUSH2 0xDA0 JUMP JUMPDEST PUSH2 0xED2 DUP2 PUSH2 0xDAE JUMP JUMPDEST DUP5 ADD SWAP2 POP POP SWAP3 SWAP2 POP POP JUMP JUMPDEST PUSH0 PUSH1 0xA0 DUP4 ADD PUSH0 DUP4 ADD MLOAD PUSH2 0xEF2 PUSH0 DUP7 ADD DUP3 PUSH2 0xE77 JUMP JUMPDEST POP PUSH1 0x20 DUP4 ADD MLOAD PUSH2 0xF05 PUSH1 0x20 DUP7 ADD DUP3 PUSH2 0xE86 JUMP JUMPDEST POP PUSH1 0x40 DUP4 ADD MLOAD DUP5 DUP3 SUB PUSH1 0x40 DUP7 ADD MSTORE PUSH2 0xF1D DUP3 DUP3 PUSH2 0xEA5 JUMP JUMPDEST SWAP2 POP POP PUSH1 0x60 DUP4 ADD MLOAD PUSH2 0xF32 PUSH1 0x60 DUP7 ADD DUP3 PUSH2 0xE77 JUMP JUMPDEST POP PUSH1 0x80 DUP4 ADD MLOAD PUSH2 0xF45 PUSH1 0x80 DUP7 ADD DUP3 PUSH2 0xE77 JUMP JUMPDEST POP DUP1 SWAP2 POP POP SWAP3 SWAP2 POP POP JUMP JUMPDEST PUSH0 PUSH2 0xF5B DUP4 DUP4 PUSH2 0xEDD JUMP JUMPDEST SWAP1 POP SWAP3 SWAP2 POP POP JUMP JUMPDEST PUSH0 PUSH1 0x20 DUP3 ADD SWAP1 POP SWAP2 SWAP1 POP JUMP JUMPDEST PUSH0 PUSH2 0xF79 DUP3 PUSH2 0xE4E JUMP JUMPDEST PUSH2 0xF83 DUP2 DUP6 PUSH2 0xE58 JUMP JUMPDEST SWAP4 POP DUP4 PUSH1 0x20 DUP3 MUL DUP6 ADD PUSH2 0xF95 DUP6 PUSH2 0xE68 JUMP JUMPDEST DUP1 PUSH0 JUMPDEST DUP6 DUP2 LT ISZERO PUSH2 0xFD0 JUMPI DUP5 DUP5 SUB DUP10 MSTORE DUP2 MLOAD PUSH2 0xFB1 DUP6 DUP3 PUSH2 0xF50 JUMP JUMPDEST SWAP5 POP PUSH2 0xFBC DUP4 PUSH2 0xF63 JUMP JUMPDEST SWAP3 POP PUSH1 0x20 DUP11 ADD SWAP10 POP POP PUSH1 0x1 DUP2 ADD SWAP1 POP PUSH2 0xF98 JUMP JUMPDEST POP DUP3 SWAP8 POP DUP8 SWAP6 POP POP POP POP POP POP SWAP3 SWAP2 POP POP JUMP JUMPDEST PUSH0 PUSH1 0x20 DUP3 ADD SWAP1 POP DUP2 DUP2 SUB PUSH0 DUP4 ADD MSTORE PUSH2 0xFFA DUP2 DUP5 PUSH2 0xF6F JUMP JUMPDEST SWAP1 POP SWAP3 SWAP2 POP POP JUMP JUMPDEST PUSH0 DUP1 REVERT JUMPDEST PUSH0 DUP1 REVERT JUMPDEST PUSH32 0x4E487B7100000000000000000000000000000000000000000000000000000000 PUSH0 MSTORE PUSH1 0x41 PUSH1 0x4 MSTORE PUSH1 0x24 PUSH0 REVERT JUMPDEST PUSH2 0x1040 DUP3 PUSH2 0xDAE JUMP JUMPDEST DUP2 ADD DUP2 DUP2 LT PUSH8 0xFFFFFFFFFFFFFFFF DUP3 GT OR ISZERO PUSH2 0x105F JUMPI PUSH2 0x105E PUSH2 0x100A JUMP JUMPDEST JUMPDEST DUP1 PUSH1 0x40 MSTORE POP POP POP JUMP JUMPDEST PUSH0 PUSH2 0x1071 PUSH2 0xC8C JUMP JUMPDEST SWAP1 POP PUSH2 0x107D DUP3 DUP3 PUSH2 0x1037 JUMP JUMPDEST SWAP2 SWAP1 POP JUMP JUMPDEST PUSH0 PUSH8 0xFFFFFFFFFFFFFFFF DUP3 GT ISZERO PUSH2 0x109C JUMPI PUSH2 0x109B PUSH2 0x100A JUMP JUMPDEST JUMPDEST PUSH2 0x10A5 DUP3 PUSH2 0xDAE JUMP JUMPDEST SWAP1 POP PUSH1 0x20 DUP2 ADD SWAP1 POP SWAP2 SWAP1 POP JUMP JUMPDEST DUP3 DUP2 DUP4 CALLDATACOPY PUSH0 DUP4 DUP4 ADD MSTORE POP POP POP JUMP JUMPDEST PUSH0 PUSH2 0x10D2 PUSH2 0x10CD DUP5 PUSH2 0x1082 JUMP JUMPDEST PUSH2 0x1068 JUMP JUMPDEST SWAP1 POP DUP3 DUP2 MSTORE PUSH1 0x20 DUP2 ADD DUP5 DUP5 DUP5 ADD GT ISZERO PUSH2 0x10EE JUMPI PUSH2 0x10ED PUSH2 0x1006 JUMP JUMPDEST JUMPDEST PUSH2 0x10F9 DUP5 DUP3 DUP6 PUSH2 0x10B2 JUMP JUMPDEST POP SWAP4 SWAP3 POP POP POP JUMP JUMPDEST PUSH0 DUP3 PUSH1 0x1F DUP4 ADD SLT PUSH2 0x1115 JUMPI PUSH2 0x1114 PUSH2 0x1002 JUMP JUMPDEST JUMPDEST DUP2 CALLDATALOAD PUSH2 0x1125 DUP5 DUP3 PUSH1 0x20 DUP7 ADD PUSH2 0x10C0 JUMP JUMPDEST SWAP2 POP POP SWAP3 SWAP2 POP POP JUMP JUMPDEST PUSH0 PUSH1 0x20 DUP3 DUP5 SUB SLT ISZERO PUSH2 0x1143 JUMPI PUSH2 0x1142 PUSH2 0xC95 JUMP JUMPDEST JUMPDEST PUSH0 DUP3 ADD CALLDATALOAD PUSH8 0xFFFFFFFFFFFFFFFF DUP2 GT ISZERO PUSH2 0x1160 JUMPI PUSH2 0x115F PUSH2 0xC99 JUMP JUMPDEST JUMPDEST PUSH2 0x116C DUP5 DUP3 DUP6 ADD PUSH2 0x1101 JUMP JUMPDEST SWAP2 POP POP SWAP3 SWAP2 POP POP JUMP JUMPDEST PUSH0 PUSH1 0x20 DUP3 DUP5 SUB SLT ISZERO PUSH2 0x118A JUMPI PUSH2 0x1189 PUSH2 0xC95 JUMP JUMPDEST JUMPDEST PUSH0 PUSH2 0x1197 DUP5 DUP3 DUP6 ADD PUSH2 0xD16 JUMP JUMPDEST SWAP2 POP POP SWAP3 SWAP2 POP POP JUMP JUMPDEST PUSH0 PUSH1 0x20 DUP3 ADD SWAP1 POP PUSH2 0x11B3 PUSH0 DUP4 ADD DUP5 PUSH2 0xD77 JUMP JUMPDEST SWAP3 SWAP2 POP POP JUMP JUMPDEST PUSH0 PUSH1 0xA0 DUP4 ADD PUSH0 DUP4 ADD MLOAD PUSH2 0x11CE PUSH0 DUP7 ADD DUP3 PUSH2 0xE77 JUMP JUMPDEST POP PUSH1 0x20 DUP4 ADD MLOAD PUSH2 0x11E1 PUSH1 0x20 DUP7 ADD DUP3 PUSH2 0xE86 JUMP JUMPDEST POP PUSH1 0x40 DUP4 ADD MLOAD DUP5 DUP3 SUB PUSH1 0x40 DUP7 ADD MSTORE PUSH2 0x11F9 DUP3 DUP3 PUSH2 0xEA5 JUMP JUMPDEST SWAP2 POP POP PUSH1 0x60 DUP4 ADD MLOAD PUSH2 0x120E PUSH1 0x60 DUP7 ADD DUP3 PUSH2 0xE77 JUMP JUMPDEST POP PUSH1 0x80 DUP4 ADD MLOAD PUSH2 0x1221 PUSH1 0x80 DUP7 ADD DUP3 PUSH2 0xE77 JUMP JUMPDEST POP DUP1 SWAP2 POP POP SWAP3 SWAP2 POP POP JUMP JUMPDEST PUSH0 PUSH1 0x20 DUP3 ADD SWAP1 POP DUP2 DUP2 SUB PUSH0 DUP4 ADD MSTORE PUSH2 0x1244 DUP2 DUP5 PUSH2 0x11B9 JUMP JUMPDEST SWAP1 POP SWAP3 SWAP2 POP POP JUMP JUMPDEST PUSH32 0x4E487B7100000000000000000000000000000000000000000000000000000000 PUSH0 MSTORE PUSH1 0x22 PUSH1 0x4 MSTORE PUSH1 0x24 PUSH0 REVERT JUMPDEST PUSH0 PUSH1 0x2 DUP3 DIV SWAP1 POP PUSH1 0x1 DUP3 AND DUP1 PUSH2 0x1290 JUMPI PUSH1 0x7F DUP3 AND SWAP2 POP JUMPDEST PUSH1 0x20 DUP3 LT DUP2 SUB PUSH2 0x12A3 JUMPI PUSH2 0x12A2 PUSH2 0x124C JUMP JUMPDEST JUMPDEST POP SWAP2 SWAP1 POP JUMP JUMPDEST PUSH32 0x4E487B7100000000000000000000000000000000000000000000000000000000 PUSH0 MSTORE PUSH1 0x32 PUSH1 0x4 MSTORE PUSH1 0x24 PUSH0 REVERT JUMPDEST PUSH32 0x547765657420646F6573206E6F74206578697374000000000000000000000000 PUSH0 DUP3 ADD MSTORE POP JUMP JUMPDEST PUSH0 PUSH2 0x130A PUSH1 0x14 DUP4 PUSH2 0xD90 JUMP JUMPDEST SWAP2 POP PUSH2 0x1315 DUP3 PUSH2 0x12D6 JUMP JUMPDEST PUSH1 0x20 DUP3 ADD SWAP1 POP SWAP2 SWAP1 POP JUMP JUMPDEST PUSH0 PUSH1 0x20 DUP3 ADD SWAP1 POP DUP2 DUP2 SUB PUSH0 DUP4 ADD MSTORE PUSH2 0x1337 DUP2 PUSH2 0x12FE JUMP JUMPDEST SWAP1 POP SWAP2 SWAP1 POP JUMP JUMPDEST PUSH32 0x4E487B7100000000000000000000000000000000000000000000000000000000 PUSH0 MSTORE PUSH1 0x11 PUSH1 0x4 MSTORE PUSH1 0x24 PUSH0 REVERT JUMPDEST PUSH0 PUSH2 0x1375 DUP3 PUSH2 0xCF7 JUMP JUMPDEST SWAP2 POP PUSH32 0xFFFFFFFFFFFFFFFFFFFFFFFFFFFFFFFFFFFFFFFFFFFFFFFFFFFFFFFFFFFFFFFF DUP3 SUB PUSH2 0x13A7 JUMPI PUSH2 0x13A6 PUSH2 0x133E JUMP JUMPDEST JUMPDEST PUSH1 0x1 DUP3 ADD SWAP1 POP SWAP2 SWAP1 POP JUMP JUMPDEST PUSH0 PUSH1 0x80 DUP3 ADD SWAP1 POP PUSH2 0x13C5 PUSH0 DUP4 ADD DUP8 PUSH2 0xD77 JUMP JUMPDEST PUSH2 0x13D2 PUSH1 0x20 DUP4 ADD DUP7 PUSH2 0xD68 JUMP JUMPDEST PUSH2 0x13DF PUSH1 0x40 DUP4 ADD DUP6 PUSH2 0xD77 JUMP JUMPDEST PUSH2 0x13EC PUSH1 0x60 DUP4 ADD DUP5 PUSH2 0xD68 JUMP JUMPDEST SWAP6 SWAP5 POP POP POP POP POP JUMP JUMPDEST PUSH32 0x547765657420697320746F6F206C6F6E67000000000000000000000000000000 PUSH0 DUP3 ADD MSTORE POP JUMP JUMPDEST PUSH0 PUSH2 0x1429 PUSH1 0x11 DUP4 PUSH2 0xD90 JUMP JUMPDEST SWAP2 POP PUSH2 0x1434 DUP3 PUSH2 0x13F5 JUMP JUMPDEST PUSH1 0x20 DUP3 ADD SWAP1 POP SWAP2 SWAP1 POP JUMP JUMPDEST PUSH0 PUSH1 0x20 DUP3 ADD SWAP1 POP DUP2 DUP2 SUB PUSH0 DUP4 ADD MSTORE PUSH2 0x1456 DUP2 PUSH2 0x141D JUMP JUMPDEST SWAP1 POP SWAP2 SWAP1 POP JUMP JUMPDEST PUSH0 DUP2 SWAP1 POP DUP2 PUSH0 MSTORE PUSH1 0x20 PUSH0 KECCAK256 SWAP1 POP SWAP2 SWAP1 POP JUMP JUMPDEST PUSH0 PUSH1 0x20 PUSH1 0x1F DUP4 ADD DIV SWAP1 POP SWAP2 SWAP1 POP JUMP JUMPDEST PUSH0 DUP3 DUP3 SHL SWAP1 POP SWAP3 SWAP2 POP POP JUMP JUMPDEST PUSH0 PUSH1 0x8 DUP4 MUL PUSH2 0x14B9 PUSH32 0xFFFFFFFFFFFFFFFFFFFFFFFFFFFFFFFFFFFFFFFFFFFFFFFFFFFFFFFFFFFFFFFF DUP3 PUSH2 0x147E JUMP JUMPDEST PUSH2 0x14C3 DUP7 DUP4 PUSH2 0x147E JUMP JUMPDEST SWAP6 POP DUP1 NOT DUP5 AND SWAP4 POP DUP1 DUP7 AND DUP5 OR SWAP3 POP POP POP SWAP4 SWAP3 POP POP POP JUMP JUMPDEST PUSH0 DUP2 SWAP1 POP SWAP2 SWAP1 POP JUMP JUMPDEST PUSH0 PUSH2 0x14FE PUSH2 0x14F9 PUSH2 0x14F4 DUP5 PUSH2 0xCF7 JUMP JUMPDEST PUSH2 0x14DB JUMP JUMPDEST PUSH2 0xCF7 JUMP JUMPDEST SWAP1 POP SWAP2 SWAP1 POP JUMP JUMPDEST PUSH0 DUP2 SWAP1 POP SWAP2 SWAP1 POP JUMP JUMPDEST PUSH2 0x1517 DUP4 PUSH2 0x14E4 JUMP JUMPDEST PUSH2 0x152B PUSH2 0x1523 DUP3 PUSH2 0x1505 JUMP JUMPDEST DUP5 DUP5 SLOAD PUSH2 0x148A JUMP JUMPDEST DUP3 SSTORE POP POP POP POP JUMP JUMPDEST PUSH0 SWAP1 JUMP JUMPDEST PUSH2 0x153F PUSH2 0x1533 JUMP JUMPDEST PUSH2 0x154A DUP2 DUP5 DUP5 PUSH2 0x150E JUMP JUMPDEST POP POP POP JUMP JUMPDEST JUMPDEST DUP2 DUP2 LT ISZERO PUSH2 0x156D JUMPI PUSH2 0x1562 PUSH0 DUP3 PUSH2 0x1537 JUMP JUMPDEST PUSH1 0x1 DUP2 ADD SWAP1 POP PUSH2 0x1550 JUMP JUMPDEST POP POP JUMP JUMPDEST PUSH1 0x1F DUP3 GT ISZERO PUSH2 0x15B2 JUMPI PUSH2 0x1583 DUP2 PUSH2 0x145D JUMP JUMPDEST PUSH2 0x158C DUP5 PUSH2 0x146F JUMP JUMPDEST DUP2 ADD PUSH1 0x20 DUP6 LT ISZERO PUSH2 0x159B JUMPI DUP2 SWAP1 POP JUMPDEST PUSH2 0x15AF PUSH2 0x15A7 DUP6 PUSH2 0x146F JUMP JUMPDEST DUP4 ADD DUP3 PUSH2 0x154F JUMP JUMPDEST POP POP JUMPDEST POP POP POP JUMP JUMPDEST PUSH0 DUP3 DUP3 SHR SWAP1 POP SWAP3 SWAP2 POP POP JUMP JUMPDEST PUSH0 PUSH2 0x15D2 PUSH0 NOT DUP5 PUSH1 0x8 MUL PUSH2 0x15B7 JUMP JUMPDEST NOT DUP1 DUP4 AND SWAP2 POP POP SWAP3 SWAP2 POP POP JUMP JUMPDEST PUSH0 PUSH2 0x15EA DUP4 DUP4 PUSH2 0x15C3 JUMP JUMPDEST SWAP2 POP DUP3 PUSH1 0x2 MUL DUP3 OR SWAP1 POP SWAP3 SWAP2 POP POP JUMP JUMPDEST PUSH2 0x1603 DUP3 PUSH2 0xD86 JUMP JUMPDEST PUSH8 0xFFFFFFFFFFFFFFFF DUP2 GT ISZERO PUSH2 0x161C JUMPI PUSH2 0x161B PUSH2 0x100A JUMP JUMPDEST JUMPDEST PUSH2 0x1626 DUP3 SLOAD PUSH2 0x1279 JUMP JUMPDEST PUSH2 0x1631 DUP3 DUP3 DUP6 PUSH2 0x1571 JUMP JUMPDEST PUSH0 PUSH1 0x20 SWAP1 POP PUSH1 0x1F DUP4 GT PUSH1 0x1 DUP2 EQ PUSH2 0x1662 JUMPI PUSH0 DUP5 ISZERO PUSH2 0x1650 JUMPI DUP3 DUP8 ADD MLOAD SWAP1 POP JUMPDEST PUSH2 0x165A DUP6 DUP3 PUSH2 0x15DF JUMP JUMPDEST DUP7 SSTORE POP PUSH2 0x16C1 JUMP JUMPDEST PUSH1 0x1F NOT DUP5 AND PUSH2 0x1670 DUP7 PUSH2 0x145D JUMP JUMPDEST PUSH0 JUMPDEST DUP3 DUP2 LT ISZERO PUSH2 0x1697 JUMPI DUP5 DUP10 ADD MLOAD DUP3 SSTORE PUSH1 0x1 DUP3 ADD SWAP2 POP PUSH1 0x20 DUP6 ADD SWAP5 POP PUSH1 0x20 DUP2 ADD SWAP1 POP PUSH2 0x1672 JUMP JUMPDEST DUP7 DUP4 LT ISZERO PUSH2 0x16B4 JUMPI DUP5 DUP10 ADD MLOAD PUSH2 0x16B0 PUSH1 0x1F DUP10 AND DUP3 PUSH2 0x15C3 JUMP JUMPDEST DUP4 SSTORE POP JUMPDEST PUSH1 0x1 PUSH1 0x2 DUP9 MUL ADD DUP9 SSTORE POP POP POP JUMPDEST POP POP POP POP POP POP JUMP JUMPDEST PUSH0 PUSH1 0x80 DUP3 ADD SWAP1 POP PUSH2 0x16DC PUSH0 DUP4 ADD DUP8 PUSH2 0xD68 JUMP JUMPDEST PUSH2 0x16E9 PUSH1 0x20 DUP4 ADD DUP7 PUSH2 0xD77 JUMP JUMPDEST DUP2 DUP2 SUB PUSH1 0x40 DUP4 ADD MSTORE PUSH2 0x16FB DUP2 DUP6 PUSH2 0xDBE JUMP JUMPDEST SWAP1 POP PUSH2 0x170A PUSH1 0x60 DUP4 ADD DUP5 PUSH2 0xD68 JUMP JUMPDEST SWAP6 SWAP5 POP POP POP POP POP JUMP JUMPDEST PUSH32 0x596F7520617265206E6F7420746865206F776E65720000000000000000000000 PUSH0 DUP3 ADD MSTORE POP JUMP JUMPDEST PUSH0 PUSH2 0x1747 PUSH1 0x15 DUP4 PUSH2 0xD90 JUMP JUMPDEST SWAP2 POP PUSH2 0x1752 DUP3 PUSH2 0x1713 JUMP JUMPDEST PUSH1 0x20 DUP3 ADD SWAP1 POP SWAP2 SWAP1 POP JUMP JUMPDEST PUSH0 PUSH1 0x20 DUP3 ADD SWAP1 POP DUP2 DUP2 SUB PUSH0 DUP4 ADD MSTORE PUSH2 0x1774 DUP2 PUSH2 0x173B JUMP JUMPDEST SWAP1 POP SWAP2 SWAP1 POP JUMP JUMPDEST PUSH32 0x547765657420686173206E6F206C696B65730000000000000000000000000000 PUSH0 DUP3 ADD MSTORE POP JUMP JUMPDEST PUSH0 PUSH2 0x17AF PUSH1 0x12 DUP4 PUSH2 0xD90 JUMP JUMPDEST SWAP2 POP PUSH2 0x17BA DUP3 PUSH2 0x177B JUMP JUMPDEST PUSH1 0x20 DUP3 ADD SWAP1 POP SWAP2 SWAP1 POP JUMP JUMPDEST PUSH0 PUSH1 0x20 DUP3 ADD SWAP1 POP DUP2 DUP2 SUB PUSH0 DUP4 ADD MSTORE PUSH2 0x17DC DUP2 PUSH2 0x17A3 JUMP JUMPDEST SWAP1 POP SWAP2 SWAP1 POP JUMP JUMPDEST PUSH0 PUSH2 0x17ED DUP3 PUSH2 0xCF7 JUMP JUMPDEST SWAP2 POP PUSH0 DUP3 SUB PUSH2 0x17FF JUMPI PUSH2 0x17FE PUSH2 0x133E JUMP JUMPDEST JUMPDEST PUSH1 0x1 DUP3 SUB SWAP1 POP SWAP2 SWAP1 POP JUMP INVALID LOG2 PUSH5 0x6970667358 0x22 SLT KECCAK256 BYTE DUP3 0xC3 0xBC CALLCODE 0xE3 SWAP8 NOT 0xBE 0xFB PUSH32 0x61658228C7073A57DEC2AC7EC830BECFCB5FB4549764736F6C634300081A0033 "
				},
				"gasEstimates": {
					"creation": {
						"codeDepositCost": "1241600",
						"executionCost": "47665",
						"totalCost": "1289265"
					},
					"external": {
						"changeTweetLength(uint256)": "24681",
						"createTweet(string)": "infinite",
						"getAllTweet()": "infinite",
						"getTweet(uint256)": "infinite",
						"likeTweet(address,uint256)": "infinite",
						"owner()": "2527",
						"tweets(address,uint256)": "infinite",
						"unLikeTweet(address,uint256)": "infinite"
					}
				},
				"methodIdentifiers": {
					"changeTweetLength(uint256)": "888a7880",
					"createTweet(string)": "7c9cd2bc",
					"getAllTweet()": "675e0fb7",
					"getTweet(uint256)": "c3ad5ecb",
					"likeTweet(address,uint256)": "63378216",
					"owner()": "8da5cb5b",
					"tweets(address,uint256)": "05a1b4a9",
					"unLikeTweet(address,uint256)": "9ef8633f"
				}
			},
			"storageLayout": {
				"storage": [
					{
						"astId": 3,
						"contract": "contracts/TwitterStruct.sol:Twitter",
						"label": "owner",
						"offset": 0,
						"slot": "0",
						"type": "t_address"
					},
					{
						"astId": 5,
						"contract": "contracts/TwitterStruct.sol:Twitter",
						"label": "MAX_TWEET_LENGTH",
						"offset": 0,
						"slot": "1",
						"type": "t_uint256"
					},
					{
						"astId": 22,
						"contract": "contracts/TwitterStruct.sol:Twitter",
						"label": "tweets",
						"offset": 0,
						"slot": "2",
						"type": "t_mapping(t_address,t_array(t_struct(Tweet)16_storage)dyn_storage)"
					}
				],
				"types": {
					"t_address": {
						"encoding": "inplace",
						"label": "address",
						"numberOfBytes": "20"
					},
					"t_array(t_struct(Tweet)16_storage)dyn_storage": {
						"base": "t_struct(Tweet)16_storage",
						"encoding": "dynamic_array",
						"label": "struct Twitter.Tweet[]",
						"numberOfBytes": "32"
					},
					"t_mapping(t_address,t_array(t_struct(Tweet)16_storage)dyn_storage)": {
						"encoding": "mapping",
						"key": "t_address",
						"label": "mapping(address => struct Twitter.Tweet[])",
						"numberOfBytes": "32",
						"value": "t_array(t_struct(Tweet)16_storage)dyn_storage"
					},
					"t_string_storage": {
						"encoding": "bytes",
						"label": "string",
						"numberOfBytes": "32"
					},
					"t_struct(Tweet)16_storage": {
						"encoding": "inplace",
						"label": "struct Twitter.Tweet",
						"members": [
							{
								"astId": 7,
								"contract": "contracts/TwitterStruct.sol:Twitter",
								"label": "id",
								"offset": 0,
								"slot": "0",
								"type": "t_uint256"
							},
							{
								"astId": 9,
								"contract": "contracts/TwitterStruct.sol:Twitter",
								"label": "auther",
								"offset": 0,
								"slot": "1",
								"type": "t_address"
							},
							{
								"astId": 11,
								"contract": "contracts/TwitterStruct.sol:Twitter",
								"label": "content",
								"offset": 0,
								"slot": "2",
								"type": "t_string_storage"
							},
							{
								"astId": 13,
								"contract": "contracts/TwitterStruct.sol:Twitter",
								"label": "timestamp",
								"offset": 0,
								"slot": "3",
								"type": "t_uint256"
							},
							{
								"astId": 15,
								"contract": "contracts/TwitterStruct.sol:Twitter",
								"label": "likes",
								"offset": 0,
								"slot": "4",
								"type": "t_uint256"
							}
						],
						"numberOfBytes": "160"
					},
					"t_uint256": {
						"encoding": "inplace",
						"label": "uint256",
						"numberOfBytes": "32"
					}
				}
			},
			"userdoc": {
				"kind": "user",
				"methods": {},
				"version": 1
			}
		}
	}
}