{
	"contracts/LoopsSolution.sol": {
		"Loops": {
			"abi": [
				{
					"inputs": [
						{
							"internalType": "string",
							"name": "_descripton",
							"type": "string"
						},
						{
							"internalType": "uint256",
							"name": "_amount",
							"type": "uint256"
						}
					],
					"name": "createExpanse",
					"outputs": [],
					"stateMutability": "nonpayable",
					"type": "function"
				},
				{
					"inputs": [
						{
							"internalType": "address",
							"name": "",
							"type": "address"
						},
						{
							"internalType": "uint256",
							"name": "",
							"type": "uint256"
						}
					],
					"name": "expanses",
					"outputs": [
						{
							"internalType": "address",
							"name": "user",
							"type": "address"
						},
						{
							"internalType": "string",
							"name": "descripton",
							"type": "string"
						},
						{
							"internalType": "uint256",
							"name": "amount",
							"type": "uint256"
						}
					],
					"stateMutability": "view",
					"type": "function"
				},
				{
					"inputs": [],
					"name": "getExpanses",
					"outputs": [
						{
							"components": [
								{
									"internalType": "address",
									"name": "user",
									"type": "address"
								},
								{
									"internalType": "string",
									"name": "descripton",
									"type": "string"
								},
								{
									"internalType": "uint256",
									"name": "amount",
									"type": "uint256"
								}
							],
							"internalType": "struct Loops.Expanses[]",
							"name": "",
							"type": "tuple[]"
						}
					],
					"stateMutability": "view",
					"type": "function"
				}
			],
			"devdoc": {
				"kind": "dev",
				"methods": {},
				"version": 1
			},
			"evm": {
				"assembly": "    /* \"contracts/LoopsSolution.sol\":58:631  contract Loops {... */\n  mstore(0x40, 0x80)\n  callvalue\n  dup1\n  iszero\n  tag_1\n  jumpi\n  0x00\n  dup1\n  revert\ntag_1:\n  pop\n  dataSize(sub_0)\n  dup1\n  dataOffset(sub_0)\n  0x00\n  codecopy\n  0x00\n  return\nstop\n\nsub_0: assembly {\n        /* \"contracts/LoopsSolution.sol\":58:631  contract Loops {... */\n      mstore(0x40, 0x80)\n      callvalue\n      dup1\n      iszero\n      tag_1\n      jumpi\n      0x00\n      dup1\n      revert\n    tag_1:\n      pop\n      jumpi(tag_2, lt(calldatasize, 0x04))\n      shr(0xe0, calldataload(0x00))\n      dup1\n      0x41fff1d6\n      eq\n      tag_3\n      jumpi\n      dup1\n      0xdc2a7eac\n      eq\n      tag_4\n      jumpi\n      dup1\n      0xefce79ec\n      eq\n      tag_5\n      jumpi\n    tag_2:\n      0x00\n      dup1\n      revert\n        /* \"contracts/LoopsSolution.sol\":522:629  function getExpanses() public view returns (Expanses[] memory) {... */\n    tag_3:\n      tag_6\n      tag_7\n      jump\t// in\n    tag_6:\n      mload(0x40)\n      tag_8\n      swap2\n      swap1\n      tag_9\n      jump\t// in\n    tag_8:\n      mload(0x40)\n      dup1\n      swap2\n      sub\n      swap1\n      return\n        /* \"contracts/LoopsSolution.sol\":233:516  function createExpanse(string memory _descripton, uint256 _amount) public {... */\n    tag_4:\n      tag_10\n      0x04\n      dup1\n      calldatasize\n      sub\n      dup2\n      add\n      swap1\n      tag_11\n      swap2\n      swap1\n      tag_12\n      jump\t// in\n    tag_11:\n      tag_13\n      jump\t// in\n    tag_10:\n      stop\n        /* \"contracts/LoopsSolution.sol\":180:226  mapping(address => Expanses[]) public expanses */\n    tag_5:\n      tag_14\n      0x04\n      dup1\n      calldatasize\n      sub\n      dup2\n      add\n      swap1\n      tag_15\n      swap2\n      swap1\n      tag_16\n      jump\t// in\n    tag_15:\n      tag_17\n      jump\t// in\n    tag_14:\n      mload(0x40)\n      tag_18\n      swap4\n      swap3\n      swap2\n      swap1\n      tag_19\n      jump\t// in\n    tag_18:\n      mload(0x40)\n      dup1\n      swap2\n      sub\n      swap1\n      return\n        /* \"contracts/LoopsSolution.sol\":522:629  function getExpanses() public view returns (Expanses[] memory) {... */\n    tag_7:\n        /* \"contracts/LoopsSolution.sol\":566:583  Expanses[] memory */\n      0x60\n        /* \"contracts/LoopsSolution.sol\":602:610  expanses */\n      0x00\n        /* \"contracts/LoopsSolution.sol\":602:622  expanses[msg.sender] */\n      dup1\n        /* \"contracts/LoopsSolution.sol\":611:621  msg.sender */\n      caller\n        /* \"contracts/LoopsSolution.sol\":602:622  expanses[msg.sender] */\n      0xffffffffffffffffffffffffffffffffffffffff\n      and\n      0xffffffffffffffffffffffffffffffffffffffff\n      and\n      dup2\n      mstore\n      0x20\n      add\n      swap1\n      dup2\n      mstore\n      0x20\n      add\n      0x00\n      keccak256\n        /* \"contracts/LoopsSolution.sol\":595:622  return expanses[msg.sender] */\n      dup1\n      sload\n      dup1\n      0x20\n      mul\n      0x20\n      add\n      mload(0x40)\n      swap1\n      dup2\n      add\n      0x40\n      mstore\n      dup1\n      swap3\n      swap2\n      swap1\n      dup2\n      dup2\n      mstore\n      0x20\n      add\n      0x00\n      swap1\n    tag_21:\n      dup3\n      dup3\n      lt\n      iszero\n      tag_22\n      jumpi\n      dup4\n      dup3\n      swap1\n      0x00\n      mstore\n      keccak256(0x00, 0x20)\n      swap1\n      0x03\n      mul\n      add\n      mload(0x40)\n      dup1\n      0x60\n      add\n      0x40\n      mstore\n      swap1\n      dup2\n      0x00\n      dup3\n      add\n      0x00\n      swap1\n      sload\n      swap1\n      0x0100\n      exp\n      swap1\n      div\n      0xffffffffffffffffffffffffffffffffffffffff\n      and\n      0xffffffffffffffffffffffffffffffffffffffff\n      and\n      0xffffffffffffffffffffffffffffffffffffffff\n      and\n      dup2\n      mstore\n      0x20\n      add\n      0x01\n      dup3\n      add\n      dup1\n      sload\n      tag_24\n      swap1\n      tag_25\n      jump\t// in\n    tag_24:\n      dup1\n      0x1f\n      add\n      0x20\n      dup1\n      swap2\n      div\n      mul\n      0x20\n      add\n      mload(0x40)\n      swap1\n      dup2\n      add\n      0x40\n      mstore\n      dup1\n      swap3\n      swap2\n      swap1\n      dup2\n      dup2\n      mstore\n      0x20\n      add\n      dup3\n      dup1\n      sload\n      tag_26\n      swap1\n      tag_25\n      jump\t// in\n    tag_26:\n      dup1\n      iszero\n      tag_27\n      jumpi\n      dup1\n      0x1f\n      lt\n      tag_28\n      jumpi\n      0x0100\n      dup1\n      dup4\n      sload\n      div\n      mul\n      dup4\n      mstore\n      swap2\n      0x20\n      add\n      swap2\n      jump(tag_27)\n    tag_28:\n      dup3\n      add\n      swap2\n      swap1\n      0x00\n      mstore\n      keccak256(0x00, 0x20)\n      swap1\n    tag_29:\n      dup2\n      sload\n      dup2\n      mstore\n      swap1\n      0x01\n      add\n      swap1\n      0x20\n      add\n      dup1\n      dup4\n      gt\n      tag_29\n      jumpi\n      dup3\n      swap1\n      sub\n      0x1f\n      and\n      dup3\n      add\n      swap2\n    tag_27:\n      pop\n      pop\n      pop\n      pop\n      pop\n      dup2\n      mstore\n      0x20\n      add\n      0x02\n      dup3\n      add\n      sload\n      dup2\n      mstore\n      pop\n      pop\n      dup2\n      mstore\n      0x20\n      add\n      swap1\n      0x01\n      add\n      swap1\n      jump(tag_21)\n    tag_22:\n      pop\n      pop\n      pop\n      pop\n      swap1\n      pop\n        /* \"contracts/LoopsSolution.sol\":522:629  function getExpanses() public view returns (Expanses[] memory) {... */\n      swap1\n      jump\t// out\n        /* \"contracts/LoopsSolution.sol\":233:516  function createExpanse(string memory _descripton, uint256 _amount) public {... */\n    tag_13:\n        /* \"contracts/LoopsSolution.sol\":317:343  Expanses memory newExpanse */\n      0x00\n        /* \"contracts/LoopsSolution.sol\":346:462  Expanses({... */\n      mload(0x40)\n      dup1\n      0x60\n      add\n      0x40\n      mstore\n      dup1\n        /* \"contracts/LoopsSolution.sol\":375:385  msg.sender */\n      caller\n        /* \"contracts/LoopsSolution.sol\":346:462  Expanses({... */\n      0xffffffffffffffffffffffffffffffffffffffff\n      and\n      dup2\n      mstore\n      0x20\n      add\n        /* \"contracts/LoopsSolution.sol\":411:422  _descripton */\n      dup5\n        /* \"contracts/LoopsSolution.sol\":346:462  Expanses({... */\n      dup2\n      mstore\n      0x20\n      add\n        /* \"contracts/LoopsSolution.sol\":444:451  _amount */\n      dup4\n        /* \"contracts/LoopsSolution.sol\":346:462  Expanses({... */\n      dup2\n      mstore\n      pop\n        /* \"contracts/LoopsSolution.sol\":317:462  Expanses memory newExpanse = Expanses({... */\n      swap1\n      pop\n        /* \"contracts/LoopsSolution.sol\":472:480  expanses */\n      0x00\n        /* \"contracts/LoopsSolution.sol\":472:492  expanses[msg.sender] */\n      dup1\n        /* \"contracts/LoopsSolution.sol\":481:491  msg.sender */\n      caller\n        /* \"contracts/LoopsSolution.sol\":472:492  expanses[msg.sender] */\n      0xffffffffffffffffffffffffffffffffffffffff\n      and\n      0xffffffffffffffffffffffffffffffffffffffff\n      and\n      dup2\n      mstore\n      0x20\n      add\n      swap1\n      dup2\n      mstore\n      0x20\n      add\n      0x00\n      keccak256\n        /* \"contracts/LoopsSolution.sol\":498:508  newExpanse */\n      dup2\n        /* \"contracts/LoopsSolution.sol\":472:509  expanses[msg.sender].push(newExpanse) */\n      swap1\n      dup1\n      0x01\n      dup2\n      sload\n      add\n      dup1\n      dup3\n      sstore\n      dup1\n      swap2\n      pop\n      pop\n      0x01\n      swap1\n      sub\n      swap1\n      0x00\n      mstore\n      keccak256(0x00, 0x20)\n      swap1\n      0x03\n      mul\n      add\n      0x00\n      swap1\n      swap2\n      swap1\n      swap2\n      swap1\n      swap2\n      pop\n      0x00\n      dup3\n      add\n      mload\n      dup2\n      0x00\n      add\n      exp(0x0100, 0x00)\n      dup2\n      sload\n      dup2\n      0xffffffffffffffffffffffffffffffffffffffff\n      mul\n      not\n      and\n      swap1\n      dup4\n      0xffffffffffffffffffffffffffffffffffffffff\n      and\n      mul\n      or\n      swap1\n      sstore\n      pop\n      0x20\n      dup3\n      add\n      mload\n      dup2\n      0x01\n      add\n      swap1\n      dup2\n      tag_32\n      swap2\n      swap1\n      tag_33\n      jump\t// in\n    tag_32:\n      pop\n      0x40\n      dup3\n      add\n      mload\n      dup2\n      0x02\n      add\n      sstore\n      pop\n      pop\n        /* \"contracts/LoopsSolution.sol\":307:516  {... */\n      pop\n        /* \"contracts/LoopsSolution.sol\":233:516  function createExpanse(string memory _descripton, uint256 _amount) public {... */\n      pop\n      pop\n      jump\t// out\n        /* \"contracts/LoopsSolution.sol\":180:226  mapping(address => Expanses[]) public expanses */\n    tag_17:\n      mstore(0x20, 0x00)\n      dup2\n      0x00\n      mstore\n      keccak256(0x00, 0x40)\n      dup2\n      dup2\n      sload\n      dup2\n      lt\n      tag_34\n      jumpi\n      0x00\n      dup1\n      revert\n    tag_34:\n      swap1\n      0x00\n      mstore\n      keccak256(0x00, 0x20)\n      swap1\n      0x03\n      mul\n      add\n      0x00\n      swap2\n      pop\n      swap2\n      pop\n      pop\n      dup1\n      0x00\n      add\n      0x00\n      swap1\n      sload\n      swap1\n      0x0100\n      exp\n      swap1\n      div\n      0xffffffffffffffffffffffffffffffffffffffff\n      and\n      swap1\n      dup1\n      0x01\n      add\n      dup1\n      sload\n      tag_36\n      swap1\n      tag_25\n      jump\t// in\n    tag_36:\n      dup1\n      0x1f\n      add\n      0x20\n      dup1\n      swap2\n      div\n      mul\n      0x20\n      add\n      mload(0x40)\n      swap1\n      dup2\n      add\n      0x40\n      mstore\n      dup1\n      swap3\n      swap2\n      swap1\n      dup2\n      dup2\n      mstore\n      0x20\n      add\n      dup3\n      dup1\n      sload\n      tag_37\n      swap1\n      tag_25\n      jump\t// in\n    tag_37:\n      dup1\n      iszero\n      tag_38\n      jumpi\n      dup1\n      0x1f\n      lt\n      tag_39\n      jumpi\n      0x0100\n      dup1\n      dup4\n      sload\n      div\n      mul\n      dup4\n      mstore\n      swap2\n      0x20\n      add\n      swap2\n      jump(tag_38)\n    tag_39:\n      dup3\n      add\n      swap2\n      swap1\n      0x00\n      mstore\n      keccak256(0x00, 0x20)\n      swap1\n    tag_40:\n      dup2\n      sload\n      dup2\n      mstore\n      swap1\n      0x01\n      add\n      swap1\n      0x20\n      add\n      dup1\n      dup4\n      gt\n      tag_40\n      jumpi\n      dup3\n      swap1\n      sub\n      0x1f\n      and\n      dup3\n      add\n      swap2\n    tag_38:\n      pop\n      pop\n      pop\n      pop\n      pop\n      swap1\n      dup1\n      0x02\n      add\n      sload\n      swap1\n      pop\n      dup4\n      jump\t// out\n        /* \"#utility.yul\":7:144   */\n    tag_41:\n        /* \"#utility.yul\":97:103   */\n      0x00\n        /* \"#utility.yul\":131:136   */\n      dup2\n        /* \"#utility.yul\":125:137   */\n      mload\n        /* \"#utility.yul\":115:137   */\n      swap1\n      pop\n        /* \"#utility.yul\":7:144   */\n      swap2\n      swap1\n      pop\n      jump\t// out\n        /* \"#utility.yul\":150:357   */\n    tag_42:\n        /* \"#utility.yul\":272:283   */\n      0x00\n        /* \"#utility.yul\":306:312   */\n      dup3\n        /* \"#utility.yul\":301:304   */\n      dup3\n        /* \"#utility.yul\":294:313   */\n      mstore\n        /* \"#utility.yul\":346:350   */\n      0x20\n        /* \"#utility.yul\":341:344   */\n      dup3\n        /* \"#utility.yul\":337:351   */\n      add\n        /* \"#utility.yul\":322:351   */\n      swap1\n      pop\n        /* \"#utility.yul\":150:357   */\n      swap3\n      swap2\n      pop\n      pop\n      jump\t// out\n        /* \"#utility.yul\":363:518   */\n    tag_43:\n        /* \"#utility.yul\":453:457   */\n      0x00\n        /* \"#utility.yul\":476:479   */\n      dup2\n        /* \"#utility.yul\":468:479   */\n      swap1\n      pop\n        /* \"#utility.yul\":506:510   */\n      0x20\n        /* \"#utility.yul\":501:504   */\n      dup3\n        /* \"#utility.yul\":497:511   */\n      add\n        /* \"#utility.yul\":489:511   */\n      swap1\n      pop\n        /* \"#utility.yul\":363:518   */\n      swap2\n      swap1\n      pop\n      jump\t// out\n        /* \"#utility.yul\":524:650   */\n    tag_44:\n        /* \"#utility.yul\":561:568   */\n      0x00\n        /* \"#utility.yul\":601:643   */\n      0xffffffffffffffffffffffffffffffffffffffff\n        /* \"#utility.yul\":594:599   */\n      dup3\n        /* \"#utility.yul\":590:644   */\n      and\n        /* \"#utility.yul\":579:644   */\n      swap1\n      pop\n        /* \"#utility.yul\":524:650   */\n      swap2\n      swap1\n      pop\n      jump\t// out\n        /* \"#utility.yul\":656:752   */\n    tag_45:\n        /* \"#utility.yul\":693:700   */\n      0x00\n        /* \"#utility.yul\":722:746   */\n      tag_100\n        /* \"#utility.yul\":740:745   */\n      dup3\n        /* \"#utility.yul\":722:746   */\n      tag_44\n      jump\t// in\n    tag_100:\n        /* \"#utility.yul\":711:746   */\n      swap1\n      pop\n        /* \"#utility.yul\":656:752   */\n      swap2\n      swap1\n      pop\n      jump\t// out\n        /* \"#utility.yul\":758:866   */\n    tag_46:\n        /* \"#utility.yul\":835:859   */\n      tag_102\n        /* \"#utility.yul\":853:858   */\n      dup2\n        /* \"#utility.yul\":835:859   */\n      tag_45\n      jump\t// in\n    tag_102:\n        /* \"#utility.yul\":830:833   */\n      dup3\n        /* \"#utility.yul\":823:860   */\n      mstore\n        /* \"#utility.yul\":758:866   */\n      pop\n      pop\n      jump\t// out\n        /* \"#utility.yul\":872:971   */\n    tag_47:\n        /* \"#utility.yul\":924:930   */\n      0x00\n        /* \"#utility.yul\":958:963   */\n      dup2\n        /* \"#utility.yul\":952:964   */\n      mload\n        /* \"#utility.yul\":942:964   */\n      swap1\n      pop\n        /* \"#utility.yul\":872:971   */\n      swap2\n      swap1\n      pop\n      jump\t// out\n        /* \"#utility.yul\":977:1136   */\n    tag_48:\n        /* \"#utility.yul\":1051:1062   */\n      0x00\n        /* \"#utility.yul\":1085:1091   */\n      dup3\n        /* \"#utility.yul\":1080:1083   */\n      dup3\n        /* \"#utility.yul\":1073:1092   */\n      mstore\n        /* \"#utility.yul\":1125:1129   */\n      0x20\n        /* \"#utility.yul\":1120:1123   */\n      dup3\n        /* \"#utility.yul\":1116:1130   */\n      add\n        /* \"#utility.yul\":1101:1130   */\n      swap1\n      pop\n        /* \"#utility.yul\":977:1136   */\n      swap3\n      swap2\n      pop\n      pop\n      jump\t// out\n        /* \"#utility.yul\":1142:1281   */\n    tag_49:\n        /* \"#utility.yul\":1231:1237   */\n      dup3\n        /* \"#utility.yul\":1226:1229   */\n      dup2\n        /* \"#utility.yul\":1221:1224   */\n      dup4\n        /* \"#utility.yul\":1215:1238   */\n      mcopy\n        /* \"#utility.yul\":1272:1273   */\n      0x00\n        /* \"#utility.yul\":1263:1269   */\n      dup4\n        /* \"#utility.yul\":1258:1261   */\n      dup4\n        /* \"#utility.yul\":1254:1270   */\n      add\n        /* \"#utility.yul\":1247:1274   */\n      mstore\n        /* \"#utility.yul\":1142:1281   */\n      pop\n      pop\n      pop\n      jump\t// out\n        /* \"#utility.yul\":1287:1389   */\n    tag_50:\n        /* \"#utility.yul\":1328:1334   */\n      0x00\n        /* \"#utility.yul\":1379:1381   */\n      0x1f\n        /* \"#utility.yul\":1375:1382   */\n      not\n        /* \"#utility.yul\":1370:1372   */\n      0x1f\n        /* \"#utility.yul\":1363:1368   */\n      dup4\n        /* \"#utility.yul\":1359:1373   */\n      add\n        /* \"#utility.yul\":1355:1383   */\n      and\n        /* \"#utility.yul\":1345:1383   */\n      swap1\n      pop\n        /* \"#utility.yul\":1287:1389   */\n      swap2\n      swap1\n      pop\n      jump\t// out\n        /* \"#utility.yul\":1395:1752   */\n    tag_51:\n        /* \"#utility.yul\":1473:1476   */\n      0x00\n        /* \"#utility.yul\":1501:1540   */\n      tag_108\n        /* \"#utility.yul\":1534:1539   */\n      dup3\n        /* \"#utility.yul\":1501:1540   */\n      tag_47\n      jump\t// in\n    tag_108:\n        /* \"#utility.yul\":1556:1617   */\n      tag_109\n        /* \"#utility.yul\":1610:1616   */\n      dup2\n        /* \"#utility.yul\":1605:1608   */\n      dup6\n        /* \"#utility.yul\":1556:1617   */\n      tag_48\n      jump\t// in\n    tag_109:\n        /* \"#utility.yul\":1549:1617   */\n      swap4\n      pop\n        /* \"#utility.yul\":1626:1691   */\n      tag_110\n        /* \"#utility.yul\":1684:1690   */\n      dup2\n        /* \"#utility.yul\":1679:1682   */\n      dup6\n        /* \"#utility.yul\":1672:1676   */\n      0x20\n        /* \"#utility.yul\":1665:1670   */\n      dup7\n        /* \"#utility.yul\":1661:1677   */\n      add\n        /* \"#utility.yul\":1626:1691   */\n      tag_49\n      jump\t// in\n    tag_110:\n        /* \"#utility.yul\":1716:1745   */\n      tag_111\n        /* \"#utility.yul\":1738:1744   */\n      dup2\n        /* \"#utility.yul\":1716:1745   */\n      tag_50\n      jump\t// in\n    tag_111:\n        /* \"#utility.yul\":1711:1714   */\n      dup5\n        /* \"#utility.yul\":1707:1746   */\n      add\n        /* \"#utility.yul\":1700:1746   */\n      swap2\n      pop\n        /* \"#utility.yul\":1477:1752   */\n      pop\n        /* \"#utility.yul\":1395:1752   */\n      swap3\n      swap2\n      pop\n      pop\n      jump\t// out\n        /* \"#utility.yul\":1758:1835   */\n    tag_52:\n        /* \"#utility.yul\":1795:1802   */\n      0x00\n        /* \"#utility.yul\":1824:1829   */\n      dup2\n        /* \"#utility.yul\":1813:1829   */\n      swap1\n      pop\n        /* \"#utility.yul\":1758:1835   */\n      swap2\n      swap1\n      pop\n      jump\t// out\n        /* \"#utility.yul\":1841:1949   */\n    tag_53:\n        /* \"#utility.yul\":1918:1942   */\n      tag_114\n        /* \"#utility.yul\":1936:1941   */\n      dup2\n        /* \"#utility.yul\":1918:1942   */\n      tag_52\n      jump\t// in\n    tag_114:\n        /* \"#utility.yul\":1913:1916   */\n      dup3\n        /* \"#utility.yul\":1906:1943   */\n      mstore\n        /* \"#utility.yul\":1841:1949   */\n      pop\n      pop\n      jump\t// out\n        /* \"#utility.yul\":2009:2783   */\n    tag_54:\n        /* \"#utility.yul\":2114:2117   */\n      0x00\n        /* \"#utility.yul\":2150:2154   */\n      0x60\n        /* \"#utility.yul\":2145:2148   */\n      dup4\n        /* \"#utility.yul\":2141:2155   */\n      add\n        /* \"#utility.yul\":2237:2241   */\n      0x00\n        /* \"#utility.yul\":2230:2235   */\n      dup4\n        /* \"#utility.yul\":2226:2242   */\n      add\n        /* \"#utility.yul\":2220:2243   */\n      mload\n        /* \"#utility.yul\":2256:2319   */\n      tag_116\n        /* \"#utility.yul\":2313:2317   */\n      0x00\n        /* \"#utility.yul\":2308:2311   */\n      dup7\n        /* \"#utility.yul\":2304:2318   */\n      add\n        /* \"#utility.yul\":2290:2302   */\n      dup3\n        /* \"#utility.yul\":2256:2319   */\n      tag_46\n      jump\t// in\n    tag_116:\n        /* \"#utility.yul\":2165:2329   */\n      pop\n        /* \"#utility.yul\":2417:2421   */\n      0x20\n        /* \"#utility.yul\":2410:2415   */\n      dup4\n        /* \"#utility.yul\":2406:2422   */\n      add\n        /* \"#utility.yul\":2400:2423   */\n      mload\n        /* \"#utility.yul\":2470:2473   */\n      dup5\n        /* \"#utility.yul\":2464:2468   */\n      dup3\n        /* \"#utility.yul\":2460:2474   */\n      sub\n        /* \"#utility.yul\":2453:2457   */\n      0x20\n        /* \"#utility.yul\":2448:2451   */\n      dup7\n        /* \"#utility.yul\":2444:2458   */\n      add\n        /* \"#utility.yul\":2437:2475   */\n      mstore\n        /* \"#utility.yul\":2496:2569   */\n      tag_117\n        /* \"#utility.yul\":2564:2568   */\n      dup3\n        /* \"#utility.yul\":2550:2562   */\n      dup3\n        /* \"#utility.yul\":2496:2569   */\n      tag_51\n      jump\t// in\n    tag_117:\n        /* \"#utility.yul\":2488:2569   */\n      swap2\n      pop\n        /* \"#utility.yul\":2339:2580   */\n      pop\n        /* \"#utility.yul\":2664:2668   */\n      0x40\n        /* \"#utility.yul\":2657:2662   */\n      dup4\n        /* \"#utility.yul\":2653:2669   */\n      add\n        /* \"#utility.yul\":2647:2670   */\n      mload\n        /* \"#utility.yul\":2683:2746   */\n      tag_118\n        /* \"#utility.yul\":2740:2744   */\n      0x40\n        /* \"#utility.yul\":2735:2738   */\n      dup7\n        /* \"#utility.yul\":2731:2745   */\n      add\n        /* \"#utility.yul\":2717:2729   */\n      dup3\n        /* \"#utility.yul\":2683:2746   */\n      tag_53\n      jump\t// in\n    tag_118:\n        /* \"#utility.yul\":2590:2756   */\n      pop\n        /* \"#utility.yul\":2773:2777   */\n      dup1\n        /* \"#utility.yul\":2766:2777   */\n      swap2\n      pop\n        /* \"#utility.yul\":2119:2783   */\n      pop\n        /* \"#utility.yul\":2009:2783   */\n      swap3\n      swap2\n      pop\n      pop\n      jump\t// out\n        /* \"#utility.yul\":2789:3037   */\n    tag_55:\n        /* \"#utility.yul\":2904:2914   */\n      0x00\n        /* \"#utility.yul\":2939:3031   */\n      tag_120\n        /* \"#utility.yul\":3027:3030   */\n      dup4\n        /* \"#utility.yul\":3019:3025   */\n      dup4\n        /* \"#utility.yul\":2939:3031   */\n      tag_54\n      jump\t// in\n    tag_120:\n        /* \"#utility.yul\":2925:3031   */\n      swap1\n      pop\n        /* \"#utility.yul\":2789:3037   */\n      swap3\n      swap2\n      pop\n      pop\n      jump\t// out\n        /* \"#utility.yul\":3043:3179   */\n    tag_56:\n        /* \"#utility.yul\":3136:3140   */\n      0x00\n        /* \"#utility.yul\":3168:3172   */\n      0x20\n        /* \"#utility.yul\":3163:3166   */\n      dup3\n        /* \"#utility.yul\":3159:3173   */\n      add\n        /* \"#utility.yul\":3151:3173   */\n      swap1\n      pop\n        /* \"#utility.yul\":3043:3179   */\n      swap2\n      swap1\n      pop\n      jump\t// out\n        /* \"#utility.yul\":3243:4338   */\n    tag_57:\n        /* \"#utility.yul\":3408:3411   */\n      0x00\n        /* \"#utility.yul\":3437:3514   */\n      tag_123\n        /* \"#utility.yul\":3508:3513   */\n      dup3\n        /* \"#utility.yul\":3437:3514   */\n      tag_41\n      jump\t// in\n    tag_123:\n        /* \"#utility.yul\":3530:3639   */\n      tag_124\n        /* \"#utility.yul\":3632:3638   */\n      dup2\n        /* \"#utility.yul\":3627:3630   */\n      dup6\n        /* \"#utility.yul\":3530:3639   */\n      tag_42\n      jump\t// in\n    tag_124:\n        /* \"#utility.yul\":3523:3639   */\n      swap4\n      pop\n        /* \"#utility.yul\":3665:3668   */\n      dup4\n        /* \"#utility.yul\":3710:3714   */\n      0x20\n        /* \"#utility.yul\":3702:3708   */\n      dup3\n        /* \"#utility.yul\":3698:3715   */\n      mul\n        /* \"#utility.yul\":3693:3696   */\n      dup6\n        /* \"#utility.yul\":3689:3716   */\n      add\n        /* \"#utility.yul\":3740:3819   */\n      tag_125\n        /* \"#utility.yul\":3813:3818   */\n      dup6\n        /* \"#utility.yul\":3740:3819   */\n      tag_43\n      jump\t// in\n    tag_125:\n        /* \"#utility.yul\":3842:3849   */\n      dup1\n        /* \"#utility.yul\":3873:3874   */\n      0x00\n        /* \"#utility.yul\":3858:4293   */\n    tag_126:\n        /* \"#utility.yul\":3883:3889   */\n      dup6\n        /* \"#utility.yul\":3880:3881   */\n      dup2\n        /* \"#utility.yul\":3877:3890   */\n      lt\n        /* \"#utility.yul\":3858:4293   */\n      iszero\n      tag_128\n      jumpi\n        /* \"#utility.yul\":3954:3963   */\n      dup5\n        /* \"#utility.yul\":3948:3952   */\n      dup5\n        /* \"#utility.yul\":3944:3964   */\n      sub\n        /* \"#utility.yul\":3939:3942   */\n      dup10\n        /* \"#utility.yul\":3932:3965   */\n      mstore\n        /* \"#utility.yul\":4005:4011   */\n      dup2\n        /* \"#utility.yul\":3999:4012   */\n      mload\n        /* \"#utility.yul\":4033:4143   */\n      tag_129\n        /* \"#utility.yul\":4138:4142   */\n      dup6\n        /* \"#utility.yul\":4123:4136   */\n      dup3\n        /* \"#utility.yul\":4033:4143   */\n      tag_55\n      jump\t// in\n    tag_129:\n        /* \"#utility.yul\":4025:4143   */\n      swap5\n      pop\n        /* \"#utility.yul\":4166:4249   */\n      tag_130\n        /* \"#utility.yul\":4242:4248   */\n      dup4\n        /* \"#utility.yul\":4166:4249   */\n      tag_56\n      jump\t// in\n    tag_130:\n        /* \"#utility.yul\":4156:4249   */\n      swap3\n      pop\n        /* \"#utility.yul\":4278:4282   */\n      0x20\n        /* \"#utility.yul\":4273:4276   */\n      dup11\n        /* \"#utility.yul\":4269:4283   */\n      add\n        /* \"#utility.yul\":4262:4283   */\n      swap10\n      pop\n        /* \"#utility.yul\":3918:4293   */\n      pop\n        /* \"#utility.yul\":3905:3906   */\n      0x01\n        /* \"#utility.yul\":3902:3903   */\n      dup2\n        /* \"#utility.yul\":3898:3907   */\n      add\n        /* \"#utility.yul\":3893:3907   */\n      swap1\n      pop\n        /* \"#utility.yul\":3858:4293   */\n      jump(tag_126)\n    tag_128:\n        /* \"#utility.yul\":3862:3876   */\n      pop\n        /* \"#utility.yul\":4309:4313   */\n      dup3\n        /* \"#utility.yul\":4302:4313   */\n      swap8\n      pop\n        /* \"#utility.yul\":4329:4332   */\n      dup8\n        /* \"#utility.yul\":4322:4332   */\n      swap6\n      pop\n        /* \"#utility.yul\":3413:4338   */\n      pop\n      pop\n      pop\n      pop\n      pop\n        /* \"#utility.yul\":3243:4338   */\n      swap3\n      swap2\n      pop\n      pop\n      jump\t// out\n        /* \"#utility.yul\":4344:4809   */\n    tag_9:\n        /* \"#utility.yul\":4533:4537   */\n      0x00\n        /* \"#utility.yul\":4571:4573   */\n      0x20\n        /* \"#utility.yul\":4560:4569   */\n      dup3\n        /* \"#utility.yul\":4556:4574   */\n      add\n        /* \"#utility.yul\":4548:4574   */\n      swap1\n      pop\n        /* \"#utility.yul\":4620:4629   */\n      dup2\n        /* \"#utility.yul\":4614:4618   */\n      dup2\n        /* \"#utility.yul\":4610:4630   */\n      sub\n        /* \"#utility.yul\":4606:4607   */\n      0x00\n        /* \"#utility.yul\":4595:4604   */\n      dup4\n        /* \"#utility.yul\":4591:4608   */\n      add\n        /* \"#utility.yul\":4584:4631   */\n      mstore\n        /* \"#utility.yul\":4648:4802   */\n      tag_132\n        /* \"#utility.yul\":4797:4801   */\n      dup2\n        /* \"#utility.yul\":4788:4794   */\n      dup5\n        /* \"#utility.yul\":4648:4802   */\n      tag_57\n      jump\t// in\n    tag_132:\n        /* \"#utility.yul\":4640:4802   */\n      swap1\n      pop\n        /* \"#utility.yul\":4344:4809   */\n      swap3\n      swap2\n      pop\n      pop\n      jump\t// out\n        /* \"#utility.yul\":4815:4890   */\n    tag_58:\n        /* \"#utility.yul\":4848:4854   */\n      0x00\n        /* \"#utility.yul\":4881:4883   */\n      0x40\n        /* \"#utility.yul\":4875:4884   */\n      mload\n        /* \"#utility.yul\":4865:4884   */\n      swap1\n      pop\n        /* \"#utility.yul\":4815:4890   */\n      swap1\n      jump\t// out\n        /* \"#utility.yul\":4896:5013   */\n    tag_59:\n        /* \"#utility.yul\":5005:5006   */\n      0x00\n        /* \"#utility.yul\":5002:5003   */\n      dup1\n        /* \"#utility.yul\":4995:5007   */\n      revert\n        /* \"#utility.yul\":5019:5136   */\n    tag_60:\n        /* \"#utility.yul\":5128:5129   */\n      0x00\n        /* \"#utility.yul\":5125:5126   */\n      dup1\n        /* \"#utility.yul\":5118:5130   */\n      revert\n        /* \"#utility.yul\":5142:5259   */\n    tag_61:\n        /* \"#utility.yul\":5251:5252   */\n      0x00\n        /* \"#utility.yul\":5248:5249   */\n      dup1\n        /* \"#utility.yul\":5241:5253   */\n      revert\n        /* \"#utility.yul\":5265:5382   */\n    tag_62:\n        /* \"#utility.yul\":5374:5375   */\n      0x00\n        /* \"#utility.yul\":5371:5372   */\n      dup1\n        /* \"#utility.yul\":5364:5376   */\n      revert\n        /* \"#utility.yul\":5388:5568   */\n    tag_63:\n        /* \"#utility.yul\":5436:5513   */\n      0x4e487b7100000000000000000000000000000000000000000000000000000000\n        /* \"#utility.yul\":5433:5434   */\n      0x00\n        /* \"#utility.yul\":5426:5514   */\n      mstore\n        /* \"#utility.yul\":5533:5537   */\n      0x41\n        /* \"#utility.yul\":5530:5531   */\n      0x04\n        /* \"#utility.yul\":5523:5538   */\n      mstore\n        /* \"#utility.yul\":5557:5561   */\n      0x24\n        /* \"#utility.yul\":5554:5555   */\n      0x00\n        /* \"#utility.yul\":5547:5562   */\n      revert\n        /* \"#utility.yul\":5574:5855   */\n    tag_64:\n        /* \"#utility.yul\":5657:5684   */\n      tag_140\n        /* \"#utility.yul\":5679:5683   */\n      dup3\n        /* \"#utility.yul\":5657:5684   */\n      tag_50\n      jump\t// in\n    tag_140:\n        /* \"#utility.yul\":5649:5655   */\n      dup2\n        /* \"#utility.yul\":5645:5685   */\n      add\n        /* \"#utility.yul\":5787:5793   */\n      dup2\n        /* \"#utility.yul\":5775:5785   */\n      dup2\n        /* \"#utility.yul\":5772:5794   */\n      lt\n        /* \"#utility.yul\":5751:5769   */\n      0xffffffffffffffff\n        /* \"#utility.yul\":5739:5749   */\n      dup3\n        /* \"#utility.yul\":5736:5770   */\n      gt\n        /* \"#utility.yul\":5733:5795   */\n      or\n        /* \"#utility.yul\":5730:5818   */\n      iszero\n      tag_141\n      jumpi\n        /* \"#utility.yul\":5798:5816   */\n      tag_142\n      tag_63\n      jump\t// in\n    tag_142:\n        /* \"#utility.yul\":5730:5818   */\n    tag_141:\n        /* \"#utility.yul\":5838:5848   */\n      dup1\n        /* \"#utility.yul\":5834:5836   */\n      0x40\n        /* \"#utility.yul\":5827:5849   */\n      mstore\n        /* \"#utility.yul\":5617:5855   */\n      pop\n        /* \"#utility.yul\":5574:5855   */\n      pop\n      pop\n      jump\t// out\n        /* \"#utility.yul\":5861:5990   */\n    tag_65:\n        /* \"#utility.yul\":5895:5901   */\n      0x00\n        /* \"#utility.yul\":5922:5942   */\n      tag_144\n      tag_58\n      jump\t// in\n    tag_144:\n        /* \"#utility.yul\":5912:5942   */\n      swap1\n      pop\n        /* \"#utility.yul\":5951:5984   */\n      tag_145\n        /* \"#utility.yul\":5979:5983   */\n      dup3\n        /* \"#utility.yul\":5971:5977   */\n      dup3\n        /* \"#utility.yul\":5951:5984   */\n      tag_64\n      jump\t// in\n    tag_145:\n        /* \"#utility.yul\":5861:5990   */\n      swap2\n      swap1\n      pop\n      jump\t// out\n        /* \"#utility.yul\":5996:6304   */\n    tag_66:\n        /* \"#utility.yul\":6058:6062   */\n      0x00\n        /* \"#utility.yul\":6148:6166   */\n      0xffffffffffffffff\n        /* \"#utility.yul\":6140:6146   */\n      dup3\n        /* \"#utility.yul\":6137:6167   */\n      gt\n        /* \"#utility.yul\":6134:6190   */\n      iszero\n      tag_147\n      jumpi\n        /* \"#utility.yul\":6170:6188   */\n      tag_148\n      tag_63\n      jump\t// in\n    tag_148:\n        /* \"#utility.yul\":6134:6190   */\n    tag_147:\n        /* \"#utility.yul\":6208:6237   */\n      tag_149\n        /* \"#utility.yul\":6230:6236   */\n      dup3\n        /* \"#utility.yul\":6208:6237   */\n      tag_50\n      jump\t// in\n    tag_149:\n        /* \"#utility.yul\":6200:6237   */\n      swap1\n      pop\n        /* \"#utility.yul\":6292:6296   */\n      0x20\n        /* \"#utility.yul\":6286:6290   */\n      dup2\n        /* \"#utility.yul\":6282:6297   */\n      add\n        /* \"#utility.yul\":6274:6297   */\n      swap1\n      pop\n        /* \"#utility.yul\":5996:6304   */\n      swap2\n      swap1\n      pop\n      jump\t// out\n        /* \"#utility.yul\":6310:6458   */\n    tag_67:\n        /* \"#utility.yul\":6408:6414   */\n      dup3\n        /* \"#utility.yul\":6403:6406   */\n      dup2\n        /* \"#utility.yul\":6398:6401   */\n      dup4\n        /* \"#utility.yul\":6385:6415   */\n      calldatacopy\n        /* \"#utility.yul\":6449:6450   */\n      0x00\n        /* \"#utility.yul\":6440:6446   */\n      dup4\n        /* \"#utility.yul\":6435:6438   */\n      dup4\n        /* \"#utility.yul\":6431:6447   */\n      add\n        /* \"#utility.yul\":6424:6451   */\n      mstore\n        /* \"#utility.yul\":6310:6458   */\n      pop\n      pop\n      pop\n      jump\t// out\n        /* \"#utility.yul\":6464:6889   */\n    tag_68:\n        /* \"#utility.yul\":6542:6547   */\n      0x00\n        /* \"#utility.yul\":6567:6633   */\n      tag_152\n        /* \"#utility.yul\":6583:6632   */\n      tag_153\n        /* \"#utility.yul\":6625:6631   */\n      dup5\n        /* \"#utility.yul\":6583:6632   */\n      tag_66\n      jump\t// in\n    tag_153:\n        /* \"#utility.yul\":6567:6633   */\n      tag_65\n      jump\t// in\n    tag_152:\n        /* \"#utility.yul\":6558:6633   */\n      swap1\n      pop\n        /* \"#utility.yul\":6656:6662   */\n      dup3\n        /* \"#utility.yul\":6649:6654   */\n      dup2\n        /* \"#utility.yul\":6642:6663   */\n      mstore\n        /* \"#utility.yul\":6694:6698   */\n      0x20\n        /* \"#utility.yul\":6687:6692   */\n      dup2\n        /* \"#utility.yul\":6683:6699   */\n      add\n        /* \"#utility.yul\":6732:6735   */\n      dup5\n        /* \"#utility.yul\":6723:6729   */\n      dup5\n        /* \"#utility.yul\":6718:6721   */\n      dup5\n        /* \"#utility.yul\":6714:6730   */\n      add\n        /* \"#utility.yul\":6711:6736   */\n      gt\n        /* \"#utility.yul\":6708:6820   */\n      iszero\n      tag_154\n      jumpi\n        /* \"#utility.yul\":6739:6818   */\n      tag_155\n      tag_62\n      jump\t// in\n    tag_155:\n        /* \"#utility.yul\":6708:6820   */\n    tag_154:\n        /* \"#utility.yul\":6829:6883   */\n      tag_156\n        /* \"#utility.yul\":6876:6882   */\n      dup5\n        /* \"#utility.yul\":6871:6874   */\n      dup3\n        /* \"#utility.yul\":6866:6869   */\n      dup6\n        /* \"#utility.yul\":6829:6883   */\n      tag_67\n      jump\t// in\n    tag_156:\n        /* \"#utility.yul\":6548:6889   */\n      pop\n        /* \"#utility.yul\":6464:6889   */\n      swap4\n      swap3\n      pop\n      pop\n      pop\n      jump\t// out\n        /* \"#utility.yul\":6909:7249   */\n    tag_69:\n        /* \"#utility.yul\":6965:6970   */\n      0x00\n        /* \"#utility.yul\":7014:7017   */\n      dup3\n        /* \"#utility.yul\":7007:7011   */\n      0x1f\n        /* \"#utility.yul\":6999:7005   */\n      dup4\n        /* \"#utility.yul\":6995:7012   */\n      add\n        /* \"#utility.yul\":6991:7018   */\n      slt\n        /* \"#utility.yul\":6981:7103   */\n      tag_158\n      jumpi\n        /* \"#utility.yul\":7022:7101   */\n      tag_159\n      tag_61\n      jump\t// in\n    tag_159:\n        /* \"#utility.yul\":6981:7103   */\n    tag_158:\n        /* \"#utility.yul\":7139:7145   */\n      dup2\n        /* \"#utility.yul\":7126:7146   */\n      calldataload\n        /* \"#utility.yul\":7164:7243   */\n      tag_160\n        /* \"#utility.yul\":7239:7242   */\n      dup5\n        /* \"#utility.yul\":7231:7237   */\n      dup3\n        /* \"#utility.yul\":7224:7228   */\n      0x20\n        /* \"#utility.yul\":7216:7222   */\n      dup7\n        /* \"#utility.yul\":7212:7229   */\n      add\n        /* \"#utility.yul\":7164:7243   */\n      tag_68\n      jump\t// in\n    tag_160:\n        /* \"#utility.yul\":7155:7243   */\n      swap2\n      pop\n        /* \"#utility.yul\":6971:7249   */\n      pop\n        /* \"#utility.yul\":6909:7249   */\n      swap3\n      swap2\n      pop\n      pop\n      jump\t// out\n        /* \"#utility.yul\":7255:7377   */\n    tag_70:\n        /* \"#utility.yul\":7328:7352   */\n      tag_162\n        /* \"#utility.yul\":7346:7351   */\n      dup2\n        /* \"#utility.yul\":7328:7352   */\n      tag_52\n      jump\t// in\n    tag_162:\n        /* \"#utility.yul\":7321:7326   */\n      dup2\n        /* \"#utility.yul\":7318:7353   */\n      eq\n        /* \"#utility.yul\":7308:7371   */\n      tag_163\n      jumpi\n        /* \"#utility.yul\":7367:7368   */\n      0x00\n        /* \"#utility.yul\":7364:7365   */\n      dup1\n        /* \"#utility.yul\":7357:7369   */\n      revert\n        /* \"#utility.yul\":7308:7371   */\n    tag_163:\n        /* \"#utility.yul\":7255:7377   */\n      pop\n      jump\t// out\n        /* \"#utility.yul\":7383:7522   */\n    tag_71:\n        /* \"#utility.yul\":7429:7434   */\n      0x00\n        /* \"#utility.yul\":7467:7473   */\n      dup2\n        /* \"#utility.yul\":7454:7474   */\n      calldataload\n        /* \"#utility.yul\":7445:7474   */\n      swap1\n      pop\n        /* \"#utility.yul\":7483:7516   */\n      tag_165\n        /* \"#utility.yul\":7510:7515   */\n      dup2\n        /* \"#utility.yul\":7483:7516   */\n      tag_70\n      jump\t// in\n    tag_165:\n        /* \"#utility.yul\":7383:7522   */\n      swap3\n      swap2\n      pop\n      pop\n      jump\t// out\n        /* \"#utility.yul\":7528:8182   */\n    tag_12:\n        /* \"#utility.yul\":7606:7612   */\n      0x00\n        /* \"#utility.yul\":7614:7620   */\n      dup1\n        /* \"#utility.yul\":7663:7665   */\n      0x40\n        /* \"#utility.yul\":7651:7660   */\n      dup4\n        /* \"#utility.yul\":7642:7649   */\n      dup6\n        /* \"#utility.yul\":7638:7661   */\n      sub\n        /* \"#utility.yul\":7634:7666   */\n      slt\n        /* \"#utility.yul\":7631:7750   */\n      iszero\n      tag_167\n      jumpi\n        /* \"#utility.yul\":7669:7748   */\n      tag_168\n      tag_59\n      jump\t// in\n    tag_168:\n        /* \"#utility.yul\":7631:7750   */\n    tag_167:\n        /* \"#utility.yul\":7817:7818   */\n      0x00\n        /* \"#utility.yul\":7806:7815   */\n      dup4\n        /* \"#utility.yul\":7802:7819   */\n      add\n        /* \"#utility.yul\":7789:7820   */\n      calldataload\n        /* \"#utility.yul\":7847:7865   */\n      0xffffffffffffffff\n        /* \"#utility.yul\":7839:7845   */\n      dup2\n        /* \"#utility.yul\":7836:7866   */\n      gt\n        /* \"#utility.yul\":7833:7950   */\n      iszero\n      tag_169\n      jumpi\n        /* \"#utility.yul\":7869:7948   */\n      tag_170\n      tag_60\n      jump\t// in\n    tag_170:\n        /* \"#utility.yul\":7833:7950   */\n    tag_169:\n        /* \"#utility.yul\":7974:8037   */\n      tag_171\n        /* \"#utility.yul\":8029:8036   */\n      dup6\n        /* \"#utility.yul\":8020:8026   */\n      dup3\n        /* \"#utility.yul\":8009:8018   */\n      dup7\n        /* \"#utility.yul\":8005:8027   */\n      add\n        /* \"#utility.yul\":7974:8037   */\n      tag_69\n      jump\t// in\n    tag_171:\n        /* \"#utility.yul\":7964:8037   */\n      swap3\n      pop\n        /* \"#utility.yul\":7760:8047   */\n      pop\n        /* \"#utility.yul\":8086:8088   */\n      0x20\n        /* \"#utility.yul\":8112:8165   */\n      tag_172\n        /* \"#utility.yul\":8157:8164   */\n      dup6\n        /* \"#utility.yul\":8148:8154   */\n      dup3\n        /* \"#utility.yul\":8137:8146   */\n      dup7\n        /* \"#utility.yul\":8133:8155   */\n      add\n        /* \"#utility.yul\":8112:8165   */\n      tag_71\n      jump\t// in\n    tag_172:\n        /* \"#utility.yul\":8102:8165   */\n      swap2\n      pop\n        /* \"#utility.yul\":8057:8175   */\n      pop\n        /* \"#utility.yul\":7528:8182   */\n      swap3\n      pop\n      swap3\n      swap1\n      pop\n      jump\t// out\n        /* \"#utility.yul\":8188:8310   */\n    tag_72:\n        /* \"#utility.yul\":8261:8285   */\n      tag_174\n        /* \"#utility.yul\":8279:8284   */\n      dup2\n        /* \"#utility.yul\":8261:8285   */\n      tag_45\n      jump\t// in\n    tag_174:\n        /* \"#utility.yul\":8254:8259   */\n      dup2\n        /* \"#utility.yul\":8251:8286   */\n      eq\n        /* \"#utility.yul\":8241:8304   */\n      tag_175\n      jumpi\n        /* \"#utility.yul\":8300:8301   */\n      0x00\n        /* \"#utility.yul\":8297:8298   */\n      dup1\n        /* \"#utility.yul\":8290:8302   */\n      revert\n        /* \"#utility.yul\":8241:8304   */\n    tag_175:\n        /* \"#utility.yul\":8188:8310   */\n      pop\n      jump\t// out\n        /* \"#utility.yul\":8316:8455   */\n    tag_73:\n        /* \"#utility.yul\":8362:8367   */\n      0x00\n        /* \"#utility.yul\":8400:8406   */\n      dup2\n        /* \"#utility.yul\":8387:8407   */\n      calldataload\n        /* \"#utility.yul\":8378:8407   */\n      swap1\n      pop\n        /* \"#utility.yul\":8416:8449   */\n      tag_177\n        /* \"#utility.yul\":8443:8448   */\n      dup2\n        /* \"#utility.yul\":8416:8449   */\n      tag_72\n      jump\t// in\n    tag_177:\n        /* \"#utility.yul\":8316:8455   */\n      swap3\n      swap2\n      pop\n      pop\n      jump\t// out\n        /* \"#utility.yul\":8461:8935   */\n    tag_16:\n        /* \"#utility.yul\":8529:8535   */\n      0x00\n        /* \"#utility.yul\":8537:8543   */\n      dup1\n        /* \"#utility.yul\":8586:8588   */\n      0x40\n        /* \"#utility.yul\":8574:8583   */\n      dup4\n        /* \"#utility.yul\":8565:8572   */\n      dup6\n        /* \"#utility.yul\":8561:8584   */\n      sub\n        /* \"#utility.yul\":8557:8589   */\n      slt\n        /* \"#utility.yul\":8554:8673   */\n      iszero\n      tag_179\n      jumpi\n        /* \"#utility.yul\":8592:8671   */\n      tag_180\n      tag_59\n      jump\t// in\n    tag_180:\n        /* \"#utility.yul\":8554:8673   */\n    tag_179:\n        /* \"#utility.yul\":8712:8713   */\n      0x00\n        /* \"#utility.yul\":8737:8790   */\n      tag_181\n        /* \"#utility.yul\":8782:8789   */\n      dup6\n        /* \"#utility.yul\":8773:8779   */\n      dup3\n        /* \"#utility.yul\":8762:8771   */\n      dup7\n        /* \"#utility.yul\":8758:8780   */\n      add\n        /* \"#utility.yul\":8737:8790   */\n      tag_73\n      jump\t// in\n    tag_181:\n        /* \"#utility.yul\":8727:8790   */\n      swap3\n      pop\n        /* \"#utility.yul\":8683:8800   */\n      pop\n        /* \"#utility.yul\":8839:8841   */\n      0x20\n        /* \"#utility.yul\":8865:8918   */\n      tag_182\n        /* \"#utility.yul\":8910:8917   */\n      dup6\n        /* \"#utility.yul\":8901:8907   */\n      dup3\n        /* \"#utility.yul\":8890:8899   */\n      dup7\n        /* \"#utility.yul\":8886:8908   */\n      add\n        /* \"#utility.yul\":8865:8918   */\n      tag_71\n      jump\t// in\n    tag_182:\n        /* \"#utility.yul\":8855:8918   */\n      swap2\n      pop\n        /* \"#utility.yul\":8810:8928   */\n      pop\n        /* \"#utility.yul\":8461:8935   */\n      swap3\n      pop\n      swap3\n      swap1\n      pop\n      jump\t// out\n        /* \"#utility.yul\":8941:9059   */\n    tag_74:\n        /* \"#utility.yul\":9028:9052   */\n      tag_184\n        /* \"#utility.yul\":9046:9051   */\n      dup2\n        /* \"#utility.yul\":9028:9052   */\n      tag_45\n      jump\t// in\n    tag_184:\n        /* \"#utility.yul\":9023:9026   */\n      dup3\n        /* \"#utility.yul\":9016:9053   */\n      mstore\n        /* \"#utility.yul\":8941:9059   */\n      pop\n      pop\n      jump\t// out\n        /* \"#utility.yul\":9065:9234   */\n    tag_75:\n        /* \"#utility.yul\":9149:9160   */\n      0x00\n        /* \"#utility.yul\":9183:9189   */\n      dup3\n        /* \"#utility.yul\":9178:9181   */\n      dup3\n        /* \"#utility.yul\":9171:9190   */\n      mstore\n        /* \"#utility.yul\":9223:9227   */\n      0x20\n        /* \"#utility.yul\":9218:9221   */\n      dup3\n        /* \"#utility.yul\":9214:9228   */\n      add\n        /* \"#utility.yul\":9199:9228   */\n      swap1\n      pop\n        /* \"#utility.yul\":9065:9234   */\n      swap3\n      swap2\n      pop\n      pop\n      jump\t// out\n        /* \"#utility.yul\":9240:9617   */\n    tag_76:\n        /* \"#utility.yul\":9328:9331   */\n      0x00\n        /* \"#utility.yul\":9356:9395   */\n      tag_187\n        /* \"#utility.yul\":9389:9394   */\n      dup3\n        /* \"#utility.yul\":9356:9395   */\n      tag_47\n      jump\t// in\n    tag_187:\n        /* \"#utility.yul\":9411:9482   */\n      tag_188\n        /* \"#utility.yul\":9475:9481   */\n      dup2\n        /* \"#utility.yul\":9470:9473   */\n      dup6\n        /* \"#utility.yul\":9411:9482   */\n      tag_75\n      jump\t// in\n    tag_188:\n        /* \"#utility.yul\":9404:9482   */\n      swap4\n      pop\n        /* \"#utility.yul\":9491:9556   */\n      tag_189\n        /* \"#utility.yul\":9549:9555   */\n      dup2\n        /* \"#utility.yul\":9544:9547   */\n      dup6\n        /* \"#utility.yul\":9537:9541   */\n      0x20\n        /* \"#utility.yul\":9530:9535   */\n      dup7\n        /* \"#utility.yul\":9526:9542   */\n      add\n        /* \"#utility.yul\":9491:9556   */\n      tag_49\n      jump\t// in\n    tag_189:\n        /* \"#utility.yul\":9581:9610   */\n      tag_190\n        /* \"#utility.yul\":9603:9609   */\n      dup2\n        /* \"#utility.yul\":9581:9610   */\n      tag_50\n      jump\t// in\n    tag_190:\n        /* \"#utility.yul\":9576:9579   */\n      dup5\n        /* \"#utility.yul\":9572:9611   */\n      add\n        /* \"#utility.yul\":9565:9611   */\n      swap2\n      pop\n        /* \"#utility.yul\":9332:9617   */\n      pop\n        /* \"#utility.yul\":9240:9617   */\n      swap3\n      swap2\n      pop\n      pop\n      jump\t// out\n        /* \"#utility.yul\":9623:9741   */\n    tag_77:\n        /* \"#utility.yul\":9710:9734   */\n      tag_192\n        /* \"#utility.yul\":9728:9733   */\n      dup2\n        /* \"#utility.yul\":9710:9734   */\n      tag_52\n      jump\t// in\n    tag_192:\n        /* \"#utility.yul\":9705:9708   */\n      dup3\n        /* \"#utility.yul\":9698:9735   */\n      mstore\n        /* \"#utility.yul\":9623:9741   */\n      pop\n      pop\n      jump\t// out\n        /* \"#utility.yul\":9747:10280   */\n    tag_19:\n        /* \"#utility.yul\":9916:9920   */\n      0x00\n        /* \"#utility.yul\":9954:9956   */\n      0x60\n        /* \"#utility.yul\":9943:9952   */\n      dup3\n        /* \"#utility.yul\":9939:9957   */\n      add\n        /* \"#utility.yul\":9931:9957   */\n      swap1\n      pop\n        /* \"#utility.yul\":9967:10038   */\n      tag_194\n        /* \"#utility.yul\":10035:10036   */\n      0x00\n        /* \"#utility.yul\":10024:10033   */\n      dup4\n        /* \"#utility.yul\":10020:10037   */\n      add\n        /* \"#utility.yul\":10011:10017   */\n      dup7\n        /* \"#utility.yul\":9967:10038   */\n      tag_74\n      jump\t// in\n    tag_194:\n        /* \"#utility.yul\":10085:10094   */\n      dup2\n        /* \"#utility.yul\":10079:10083   */\n      dup2\n        /* \"#utility.yul\":10075:10095   */\n      sub\n        /* \"#utility.yul\":10070:10072   */\n      0x20\n        /* \"#utility.yul\":10059:10068   */\n      dup4\n        /* \"#utility.yul\":10055:10073   */\n      add\n        /* \"#utility.yul\":10048:10096   */\n      mstore\n        /* \"#utility.yul\":10113:10191   */\n      tag_195\n        /* \"#utility.yul\":10186:10190   */\n      dup2\n        /* \"#utility.yul\":10177:10183   */\n      dup6\n        /* \"#utility.yul\":10113:10191   */\n      tag_76\n      jump\t// in\n    tag_195:\n        /* \"#utility.yul\":10105:10191   */\n      swap1\n      pop\n        /* \"#utility.yul\":10201:10273   */\n      tag_196\n        /* \"#utility.yul\":10269:10271   */\n      0x40\n        /* \"#utility.yul\":10258:10267   */\n      dup4\n        /* \"#utility.yul\":10254:10272   */\n      add\n        /* \"#utility.yul\":10245:10251   */\n      dup5\n        /* \"#utility.yul\":10201:10273   */\n      tag_77\n      jump\t// in\n    tag_196:\n        /* \"#utility.yul\":9747:10280   */\n      swap5\n      swap4\n      pop\n      pop\n      pop\n      pop\n      jump\t// out\n        /* \"#utility.yul\":10286:10466   */\n    tag_78:\n        /* \"#utility.yul\":10334:10411   */\n      0x4e487b7100000000000000000000000000000000000000000000000000000000\n        /* \"#utility.yul\":10331:10332   */\n      0x00\n        /* \"#utility.yul\":10324:10412   */\n      mstore\n        /* \"#utility.yul\":10431:10435   */\n      0x22\n        /* \"#utility.yul\":10428:10429   */\n      0x04\n        /* \"#utility.yul\":10421:10436   */\n      mstore\n        /* \"#utility.yul\":10455:10459   */\n      0x24\n        /* \"#utility.yul\":10452:10453   */\n      0x00\n        /* \"#utility.yul\":10445:10460   */\n      revert\n        /* \"#utility.yul\":10472:10792   */\n    tag_25:\n        /* \"#utility.yul\":10516:10522   */\n      0x00\n        /* \"#utility.yul\":10553:10554   */\n      0x02\n        /* \"#utility.yul\":10547:10551   */\n      dup3\n        /* \"#utility.yul\":10543:10555   */\n      div\n        /* \"#utility.yul\":10533:10555   */\n      swap1\n      pop\n        /* \"#utility.yul\":10600:10601   */\n      0x01\n        /* \"#utility.yul\":10594:10598   */\n      dup3\n        /* \"#utility.yul\":10590:10602   */\n      and\n        /* \"#utility.yul\":10621:10639   */\n      dup1\n        /* \"#utility.yul\":10611:10692   */\n      tag_199\n      jumpi\n        /* \"#utility.yul\":10677:10681   */\n      0x7f\n        /* \"#utility.yul\":10669:10675   */\n      dup3\n        /* \"#utility.yul\":10665:10682   */\n      and\n        /* \"#utility.yul\":10655:10682   */\n      swap2\n      pop\n        /* \"#utility.yul\":10611:10692   */\n    tag_199:\n        /* \"#utility.yul\":10739:10741   */\n      0x20\n        /* \"#utility.yul\":10731:10737   */\n      dup3\n        /* \"#utility.yul\":10728:10742   */\n      lt\n        /* \"#utility.yul\":10708:10726   */\n      dup2\n        /* \"#utility.yul\":10705:10743   */\n      sub\n        /* \"#utility.yul\":10702:10786   */\n      tag_200\n      jumpi\n        /* \"#utility.yul\":10758:10776   */\n      tag_201\n      tag_78\n      jump\t// in\n    tag_201:\n        /* \"#utility.yul\":10702:10786   */\n    tag_200:\n        /* \"#utility.yul\":10523:10792   */\n      pop\n        /* \"#utility.yul\":10472:10792   */\n      swap2\n      swap1\n      pop\n      jump\t// out\n        /* \"#utility.yul\":10798:10939   */\n    tag_79:\n        /* \"#utility.yul\":10847:10851   */\n      0x00\n        /* \"#utility.yul\":10870:10873   */\n      dup2\n        /* \"#utility.yul\":10862:10873   */\n      swap1\n      pop\n        /* \"#utility.yul\":10893:10896   */\n      dup2\n        /* \"#utility.yul\":10890:10891   */\n      0x00\n        /* \"#utility.yul\":10883:10897   */\n      mstore\n        /* \"#utility.yul\":10927:10931   */\n      0x20\n        /* \"#utility.yul\":10924:10925   */\n      0x00\n        /* \"#utility.yul\":10914:10932   */\n      keccak256\n        /* \"#utility.yul\":10906:10932   */\n      swap1\n      pop\n        /* \"#utility.yul\":10798:10939   */\n      swap2\n      swap1\n      pop\n      jump\t// out\n        /* \"#utility.yul\":10945:11038   */\n    tag_80:\n        /* \"#utility.yul\":10982:10988   */\n      0x00\n        /* \"#utility.yul\":11029:11031   */\n      0x20\n        /* \"#utility.yul\":11024:11026   */\n      0x1f\n        /* \"#utility.yul\":11017:11022   */\n      dup4\n        /* \"#utility.yul\":11013:11027   */\n      add\n        /* \"#utility.yul\":11009:11032   */\n      div\n        /* \"#utility.yul\":10999:11032   */\n      swap1\n      pop\n        /* \"#utility.yul\":10945:11038   */\n      swap2\n      swap1\n      pop\n      jump\t// out\n        /* \"#utility.yul\":11044:11151   */\n    tag_81:\n        /* \"#utility.yul\":11088:11096   */\n      0x00\n        /* \"#utility.yul\":11138:11143   */\n      dup3\n        /* \"#utility.yul\":11132:11136   */\n      dup3\n        /* \"#utility.yul\":11128:11144   */\n      shl\n        /* \"#utility.yul\":11107:11144   */\n      swap1\n      pop\n        /* \"#utility.yul\":11044:11151   */\n      swap3\n      swap2\n      pop\n      pop\n      jump\t// out\n        /* \"#utility.yul\":11157:11550   */\n    tag_82:\n        /* \"#utility.yul\":11226:11232   */\n      0x00\n        /* \"#utility.yul\":11276:11277   */\n      0x08\n        /* \"#utility.yul\":11264:11274   */\n      dup4\n        /* \"#utility.yul\":11260:11278   */\n      mul\n        /* \"#utility.yul\":11299:11396   */\n      tag_206\n        /* \"#utility.yul\":11329:11395   */\n      0xffffffffffffffffffffffffffffffffffffffffffffffffffffffffffffffff\n        /* \"#utility.yul\":11318:11327   */\n      dup3\n        /* \"#utility.yul\":11299:11396   */\n      tag_81\n      jump\t// in\n    tag_206:\n        /* \"#utility.yul\":11417:11456   */\n      tag_207\n        /* \"#utility.yul\":11447:11455   */\n      dup7\n        /* \"#utility.yul\":11436:11445   */\n      dup4\n        /* \"#utility.yul\":11417:11456   */\n      tag_81\n      jump\t// in\n    tag_207:\n        /* \"#utility.yul\":11405:11456   */\n      swap6\n      pop\n        /* \"#utility.yul\":11489:11493   */\n      dup1\n        /* \"#utility.yul\":11485:11494   */\n      not\n        /* \"#utility.yul\":11478:11483   */\n      dup5\n        /* \"#utility.yul\":11474:11495   */\n      and\n        /* \"#utility.yul\":11465:11495   */\n      swap4\n      pop\n        /* \"#utility.yul\":11538:11542   */\n      dup1\n        /* \"#utility.yul\":11528:11536   */\n      dup7\n        /* \"#utility.yul\":11524:11543   */\n      and\n        /* \"#utility.yul\":11517:11522   */\n      dup5\n        /* \"#utility.yul\":11514:11544   */\n      or\n        /* \"#utility.yul\":11504:11544   */\n      swap3\n      pop\n        /* \"#utility.yul\":11233:11550   */\n      pop\n      pop\n        /* \"#utility.yul\":11157:11550   */\n      swap4\n      swap3\n      pop\n      pop\n      pop\n      jump\t// out\n        /* \"#utility.yul\":11556:11616   */\n    tag_83:\n        /* \"#utility.yul\":11584:11587   */\n      0x00\n        /* \"#utility.yul\":11605:11610   */\n      dup2\n        /* \"#utility.yul\":11598:11610   */\n      swap1\n      pop\n        /* \"#utility.yul\":11556:11616   */\n      swap2\n      swap1\n      pop\n      jump\t// out\n        /* \"#utility.yul\":11622:11764   */\n    tag_84:\n        /* \"#utility.yul\":11672:11681   */\n      0x00\n        /* \"#utility.yul\":11705:11758   */\n      tag_210\n        /* \"#utility.yul\":11723:11757   */\n      tag_211\n        /* \"#utility.yul\":11732:11756   */\n      tag_212\n        /* \"#utility.yul\":11750:11755   */\n      dup5\n        /* \"#utility.yul\":11732:11756   */\n      tag_52\n      jump\t// in\n    tag_212:\n        /* \"#utility.yul\":11723:11757   */\n      tag_83\n      jump\t// in\n    tag_211:\n        /* \"#utility.yul\":11705:11758   */\n      tag_52\n      jump\t// in\n    tag_210:\n        /* \"#utility.yul\":11692:11758   */\n      swap1\n      pop\n        /* \"#utility.yul\":11622:11764   */\n      swap2\n      swap1\n      pop\n      jump\t// out\n        /* \"#utility.yul\":11770:11845   */\n    tag_85:\n        /* \"#utility.yul\":11813:11816   */\n      0x00\n        /* \"#utility.yul\":11834:11839   */\n      dup2\n        /* \"#utility.yul\":11827:11839   */\n      swap1\n      pop\n        /* \"#utility.yul\":11770:11845   */\n      swap2\n      swap1\n      pop\n      jump\t// out\n        /* \"#utility.yul\":11851:12120   */\n    tag_86:\n        /* \"#utility.yul\":11961:12000   */\n      tag_215\n        /* \"#utility.yul\":11992:11999   */\n      dup4\n        /* \"#utility.yul\":11961:12000   */\n      tag_84\n      jump\t// in\n    tag_215:\n        /* \"#utility.yul\":12022:12113   */\n      tag_216\n        /* \"#utility.yul\":12071:12112   */\n      tag_217\n        /* \"#utility.yul\":12095:12111   */\n      dup3\n        /* \"#utility.yul\":12071:12112   */\n      tag_85\n      jump\t// in\n    tag_217:\n        /* \"#utility.yul\":12063:12069   */\n      dup5\n        /* \"#utility.yul\":12056:12060   */\n      dup5\n        /* \"#utility.yul\":12050:12061   */\n      sload\n        /* \"#utility.yul\":12022:12113   */\n      tag_82\n      jump\t// in\n    tag_216:\n        /* \"#utility.yul\":12016:12020   */\n      dup3\n        /* \"#utility.yul\":12009:12114   */\n      sstore\n        /* \"#utility.yul\":11927:12120   */\n      pop\n        /* \"#utility.yul\":11851:12120   */\n      pop\n      pop\n      pop\n      jump\t// out\n        /* \"#utility.yul\":12126:12199   */\n    tag_87:\n        /* \"#utility.yul\":12171:12174   */\n      0x00\n        /* \"#utility.yul\":12126:12199   */\n      swap1\n      jump\t// out\n        /* \"#utility.yul\":12205:12394   */\n    tag_88:\n        /* \"#utility.yul\":12282:12314   */\n      tag_220\n      tag_87\n      jump\t// in\n    tag_220:\n        /* \"#utility.yul\":12323:12388   */\n      tag_221\n        /* \"#utility.yul\":12381:12387   */\n      dup2\n        /* \"#utility.yul\":12373:12379   */\n      dup5\n        /* \"#utility.yul\":12367:12371   */\n      dup5\n        /* \"#utility.yul\":12323:12388   */\n      tag_86\n      jump\t// in\n    tag_221:\n        /* \"#utility.yul\":12258:12394   */\n      pop\n        /* \"#utility.yul\":12205:12394   */\n      pop\n      pop\n      jump\t// out\n        /* \"#utility.yul\":12400:12586   */\n    tag_89:\n        /* \"#utility.yul\":12460:12580   */\n    tag_223:\n        /* \"#utility.yul\":12477:12480   */\n      dup2\n        /* \"#utility.yul\":12470:12475   */\n      dup2\n        /* \"#utility.yul\":12467:12481   */\n      lt\n        /* \"#utility.yul\":12460:12580   */\n      iszero\n      tag_225\n      jumpi\n        /* \"#utility.yul\":12531:12570   */\n      tag_226\n        /* \"#utility.yul\":12568:12569   */\n      0x00\n        /* \"#utility.yul\":12561:12566   */\n      dup3\n        /* \"#utility.yul\":12531:12570   */\n      tag_88\n      jump\t// in\n    tag_226:\n        /* \"#utility.yul\":12504:12505   */\n      0x01\n        /* \"#utility.yul\":12497:12502   */\n      dup2\n        /* \"#utility.yul\":12493:12506   */\n      add\n        /* \"#utility.yul\":12484:12506   */\n      swap1\n      pop\n        /* \"#utility.yul\":12460:12580   */\n      jump(tag_223)\n    tag_225:\n        /* \"#utility.yul\":12400:12586   */\n      pop\n      pop\n      jump\t// out\n        /* \"#utility.yul\":12592:13135   */\n    tag_90:\n        /* \"#utility.yul\":12693:12695   */\n      0x1f\n        /* \"#utility.yul\":12688:12691   */\n      dup3\n        /* \"#utility.yul\":12685:12696   */\n      gt\n        /* \"#utility.yul\":12682:13128   */\n      iszero\n      tag_228\n      jumpi\n        /* \"#utility.yul\":12727:12765   */\n      tag_229\n        /* \"#utility.yul\":12759:12764   */\n      dup2\n        /* \"#utility.yul\":12727:12765   */\n      tag_79\n      jump\t// in\n    tag_229:\n        /* \"#utility.yul\":12811:12840   */\n      tag_230\n        /* \"#utility.yul\":12829:12839   */\n      dup5\n        /* \"#utility.yul\":12811:12840   */\n      tag_80\n      jump\t// in\n    tag_230:\n        /* \"#utility.yul\":12801:12809   */\n      dup2\n        /* \"#utility.yul\":12797:12841   */\n      add\n        /* \"#utility.yul\":12994:12996   */\n      0x20\n        /* \"#utility.yul\":12982:12992   */\n      dup6\n        /* \"#utility.yul\":12979:12997   */\n      lt\n        /* \"#utility.yul\":12976:13025   */\n      iszero\n      tag_231\n      jumpi\n        /* \"#utility.yul\":13015:13023   */\n      dup2\n        /* \"#utility.yul\":13000:13023   */\n      swap1\n      pop\n        /* \"#utility.yul\":12976:13025   */\n    tag_231:\n        /* \"#utility.yul\":13038:13118   */\n      tag_232\n        /* \"#utility.yul\":13094:13116   */\n      tag_233\n        /* \"#utility.yul\":13112:13115   */\n      dup6\n        /* \"#utility.yul\":13094:13116   */\n      tag_80\n      jump\t// in\n    tag_233:\n        /* \"#utility.yul\":13084:13092   */\n      dup4\n        /* \"#utility.yul\":13080:13117   */\n      add\n        /* \"#utility.yul\":13067:13078   */\n      dup3\n        /* \"#utility.yul\":13038:13118   */\n      tag_89\n      jump\t// in\n    tag_232:\n        /* \"#utility.yul\":12697:13128   */\n      pop\n      pop\n        /* \"#utility.yul\":12682:13128   */\n    tag_228:\n        /* \"#utility.yul\":12592:13135   */\n      pop\n      pop\n      pop\n      jump\t// out\n        /* \"#utility.yul\":13141:13258   */\n    tag_91:\n        /* \"#utility.yul\":13195:13203   */\n      0x00\n        /* \"#utility.yul\":13245:13250   */\n      dup3\n        /* \"#utility.yul\":13239:13243   */\n      dup3\n        /* \"#utility.yul\":13235:13251   */\n      shr\n        /* \"#utility.yul\":13214:13251   */\n      swap1\n      pop\n        /* \"#utility.yul\":13141:13258   */\n      swap3\n      swap2\n      pop\n      pop\n      jump\t// out\n        /* \"#utility.yul\":13264:13433   */\n    tag_92:\n        /* \"#utility.yul\":13308:13314   */\n      0x00\n        /* \"#utility.yul\":13341:13392   */\n      tag_236\n        /* \"#utility.yul\":13389:13390   */\n      0x00\n        /* \"#utility.yul\":13385:13391   */\n      not\n        /* \"#utility.yul\":13377:13382   */\n      dup5\n        /* \"#utility.yul\":13374:13375   */\n      0x08\n        /* \"#utility.yul\":13370:13383   */\n      mul\n        /* \"#utility.yul\":13341:13392   */\n      tag_91\n      jump\t// in\n    tag_236:\n        /* \"#utility.yul\":13337:13393   */\n      not\n        /* \"#utility.yul\":13422:13426   */\n      dup1\n        /* \"#utility.yul\":13416:13420   */\n      dup4\n        /* \"#utility.yul\":13412:13427   */\n      and\n        /* \"#utility.yul\":13402:13427   */\n      swap2\n      pop\n        /* \"#utility.yul\":13315:13433   */\n      pop\n        /* \"#utility.yul\":13264:13433   */\n      swap3\n      swap2\n      pop\n      pop\n      jump\t// out\n        /* \"#utility.yul\":13438:13733   */\n    tag_93:\n        /* \"#utility.yul\":13514:13518   */\n      0x00\n        /* \"#utility.yul\":13660:13689   */\n      tag_238\n        /* \"#utility.yul\":13685:13688   */\n      dup4\n        /* \"#utility.yul\":13679:13683   */\n      dup4\n        /* \"#utility.yul\":13660:13689   */\n      tag_92\n      jump\t// in\n    tag_238:\n        /* \"#utility.yul\":13652:13689   */\n      swap2\n      pop\n        /* \"#utility.yul\":13722:13725   */\n      dup3\n        /* \"#utility.yul\":13719:13720   */\n      0x02\n        /* \"#utility.yul\":13715:13726   */\n      mul\n        /* \"#utility.yul\":13709:13713   */\n      dup3\n        /* \"#utility.yul\":13706:13727   */\n      or\n        /* \"#utility.yul\":13698:13727   */\n      swap1\n      pop\n        /* \"#utility.yul\":13438:13733   */\n      swap3\n      swap2\n      pop\n      pop\n      jump\t// out\n        /* \"#utility.yul\":13738:15133   */\n    tag_33:\n        /* \"#utility.yul\":13855:13892   */\n      tag_240\n        /* \"#utility.yul\":13888:13891   */\n      dup3\n        /* \"#utility.yul\":13855:13892   */\n      tag_47\n      jump\t// in\n    tag_240:\n        /* \"#utility.yul\":13957:13975   */\n      0xffffffffffffffff\n        /* \"#utility.yul\":13949:13955   */\n      dup2\n        /* \"#utility.yul\":13946:13976   */\n      gt\n        /* \"#utility.yul\":13943:13999   */\n      iszero\n      tag_241\n      jumpi\n        /* \"#utility.yul\":13979:13997   */\n      tag_242\n      tag_63\n      jump\t// in\n    tag_242:\n        /* \"#utility.yul\":13943:13999   */\n    tag_241:\n        /* \"#utility.yul\":14023:14061   */\n      tag_243\n        /* \"#utility.yul\":14055:14059   */\n      dup3\n        /* \"#utility.yul\":14049:14060   */\n      sload\n        /* \"#utility.yul\":14023:14061   */\n      tag_25\n      jump\t// in\n    tag_243:\n        /* \"#utility.yul\":14108:14175   */\n      tag_244\n        /* \"#utility.yul\":14168:14174   */\n      dup3\n        /* \"#utility.yul\":14160:14166   */\n      dup3\n        /* \"#utility.yul\":14154:14158   */\n      dup6\n        /* \"#utility.yul\":14108:14175   */\n      tag_90\n      jump\t// in\n    tag_244:\n        /* \"#utility.yul\":14202:14203   */\n      0x00\n        /* \"#utility.yul\":14226:14230   */\n      0x20\n        /* \"#utility.yul\":14213:14230   */\n      swap1\n      pop\n        /* \"#utility.yul\":14258:14260   */\n      0x1f\n        /* \"#utility.yul\":14250:14256   */\n      dup4\n        /* \"#utility.yul\":14247:14261   */\n      gt\n        /* \"#utility.yul\":14275:14276   */\n      0x01\n        /* \"#utility.yul\":14270:14888   */\n      dup2\n      eq\n      tag_246\n      jumpi\n        /* \"#utility.yul\":14932:14933   */\n      0x00\n        /* \"#utility.yul\":14949:14955   */\n      dup5\n        /* \"#utility.yul\":14946:15023   */\n      iszero\n      tag_247\n      jumpi\n        /* \"#utility.yul\":14998:15007   */\n      dup3\n        /* \"#utility.yul\":14993:14996   */\n      dup8\n        /* \"#utility.yul\":14989:15008   */\n      add\n        /* \"#utility.yul\":14983:15009   */\n      mload\n        /* \"#utility.yul\":14974:15009   */\n      swap1\n      pop\n        /* \"#utility.yul\":14946:15023   */\n    tag_247:\n        /* \"#utility.yul\":15049:15116   */\n      tag_248\n        /* \"#utility.yul\":15109:15115   */\n      dup6\n        /* \"#utility.yul\":15102:15107   */\n      dup3\n        /* \"#utility.yul\":15049:15116   */\n      tag_93\n      jump\t// in\n    tag_248:\n        /* \"#utility.yul\":15043:15047   */\n      dup7\n        /* \"#utility.yul\":15036:15117   */\n      sstore\n        /* \"#utility.yul\":14905:15127   */\n      pop\n        /* \"#utility.yul\":14240:15127   */\n      jump(tag_245)\n        /* \"#utility.yul\":14270:14888   */\n    tag_246:\n        /* \"#utility.yul\":14322:14326   */\n      0x1f\n        /* \"#utility.yul\":14318:14327   */\n      not\n        /* \"#utility.yul\":14310:14316   */\n      dup5\n        /* \"#utility.yul\":14306:14328   */\n      and\n        /* \"#utility.yul\":14356:14393   */\n      tag_249\n        /* \"#utility.yul\":14388:14392   */\n      dup7\n        /* \"#utility.yul\":14356:14393   */\n      tag_79\n      jump\t// in\n    tag_249:\n        /* \"#utility.yul\":14415:14416   */\n      0x00\n        /* \"#utility.yul\":14429:14637   */\n    tag_250:\n        /* \"#utility.yul\":14443:14450   */\n      dup3\n        /* \"#utility.yul\":14440:14441   */\n      dup2\n        /* \"#utility.yul\":14437:14451   */\n      lt\n        /* \"#utility.yul\":14429:14637   */\n      iszero\n      tag_252\n      jumpi\n        /* \"#utility.yul\":14522:14531   */\n      dup5\n        /* \"#utility.yul\":14517:14520   */\n      dup10\n        /* \"#utility.yul\":14513:14532   */\n      add\n        /* \"#utility.yul\":14507:14533   */\n      mload\n        /* \"#utility.yul\":14499:14505   */\n      dup3\n        /* \"#utility.yul\":14492:14534   */\n      sstore\n        /* \"#utility.yul\":14573:14574   */\n      0x01\n        /* \"#utility.yul\":14565:14571   */\n      dup3\n        /* \"#utility.yul\":14561:14575   */\n      add\n        /* \"#utility.yul\":14551:14575   */\n      swap2\n      pop\n        /* \"#utility.yul\":14620:14622   */\n      0x20\n        /* \"#utility.yul\":14609:14618   */\n      dup6\n        /* \"#utility.yul\":14605:14623   */\n      add\n        /* \"#utility.yul\":14592:14623   */\n      swap5\n      pop\n        /* \"#utility.yul\":14466:14470   */\n      0x20\n        /* \"#utility.yul\":14463:14464   */\n      dup2\n        /* \"#utility.yul\":14459:14471   */\n      add\n        /* \"#utility.yul\":14454:14471   */\n      swap1\n      pop\n        /* \"#utility.yul\":14429:14637   */\n      jump(tag_250)\n    tag_252:\n        /* \"#utility.yul\":14665:14671   */\n      dup7\n        /* \"#utility.yul\":14656:14663   */\n      dup4\n        /* \"#utility.yul\":14653:14672   */\n      lt\n        /* \"#utility.yul\":14650:14829   */\n      iszero\n      tag_253\n      jumpi\n        /* \"#utility.yul\":14723:14732   */\n      dup5\n        /* \"#utility.yul\":14718:14721   */\n      dup10\n        /* \"#utility.yul\":14714:14733   */\n      add\n        /* \"#utility.yul\":14708:14734   */\n      mload\n        /* \"#utility.yul\":14766:14814   */\n      tag_254\n        /* \"#utility.yul\":14808:14812   */\n      0x1f\n        /* \"#utility.yul\":14800:14806   */\n      dup10\n        /* \"#utility.yul\":14796:14813   */\n      and\n        /* \"#utility.yul\":14785:14794   */\n      dup3\n        /* \"#utility.yul\":14766:14814   */\n      tag_92\n      jump\t// in\n    tag_254:\n        /* \"#utility.yul\":14758:14764   */\n      dup4\n        /* \"#utility.yul\":14751:14815   */\n      sstore\n        /* \"#utility.yul\":14673:14829   */\n      pop\n        /* \"#utility.yul\":14650:14829   */\n    tag_253:\n        /* \"#utility.yul\":14875:14876   */\n      0x01\n        /* \"#utility.yul\":14871:14872   */\n      0x02\n        /* \"#utility.yul\":14863:14869   */\n      dup9\n        /* \"#utility.yul\":14859:14873   */\n      mul\n        /* \"#utility.yul\":14855:14877   */\n      add\n        /* \"#utility.yul\":14849:14853   */\n      dup9\n        /* \"#utility.yul\":14842:14878   */\n      sstore\n        /* \"#utility.yul\":14277:14888   */\n      pop\n      pop\n      pop\n        /* \"#utility.yul\":14240:15127   */\n    tag_245:\n      pop\n        /* \"#utility.yul\":13830:15133   */\n      pop\n      pop\n      pop\n        /* \"#utility.yul\":13738:15133   */\n      pop\n      pop\n      jump\t// out\n\n    auxdata: 0xa264697066735822122075f9a966fab31d054303dbe62fd46288559916cf7e178229b94b7d398ebbc20264736f6c634300081a0033\n}\n",
				"bytecode": {
					"linkReferences": {},
					"object": "6080604052348015600e575f80fd5b50610bd28061001c5f395ff3fe608060405234801561000f575f80fd5b506004361061003f575f3560e01c806341fff1d614610043578063dc2a7eac14610061578063efce79ec1461007d575b5f80fd5b61004b6100af565b60405161005891906105e8565b60405180910390f35b61007b6004803603810190610076919061076f565b610233565b005b610097600480360381019061009291906107f3565b610335565b6040516100a693929190610897565b60405180910390f35b60605f803373ffffffffffffffffffffffffffffffffffffffff1673ffffffffffffffffffffffffffffffffffffffff1681526020019081526020015f20805480602002602001604051908101604052809291908181526020015f905b8282101561022a578382905f5260205f2090600302016040518060600160405290815f82015f9054906101000a900473ffffffffffffffffffffffffffffffffffffffff1673ffffffffffffffffffffffffffffffffffffffff1673ffffffffffffffffffffffffffffffffffffffff16815260200160018201805461019190610900565b80601f01602080910402602001604051908101604052809291908181526020018280546101bd90610900565b80156102085780601f106101df57610100808354040283529160200191610208565b820191905f5260205f20905b8154815290600101906020018083116101eb57829003601f168201915b505050505081526020016002820154815250508152602001906001019061010c565b50505050905090565b5f60405180606001604052803373ffffffffffffffffffffffffffffffffffffffff1681526020018481526020018381525090505f803373ffffffffffffffffffffffffffffffffffffffff1673ffffffffffffffffffffffffffffffffffffffff1681526020019081526020015f2081908060018154018082558091505060019003905f5260205f2090600302015f909190919091505f820151815f015f6101000a81548173ffffffffffffffffffffffffffffffffffffffff021916908373ffffffffffffffffffffffffffffffffffffffff16021790555060208201518160010190816103239190610acd565b50604082015181600201555050505050565b5f602052815f5260405f20818154811061034d575f80fd5b905f5260205f2090600302015f9150915050805f015f9054906101000a900473ffffffffffffffffffffffffffffffffffffffff169080600101805461039290610900565b80601f01602080910402602001604051908101604052809291908181526020018280546103be90610900565b80156104095780601f106103e057610100808354040283529160200191610409565b820191905f5260205f20905b8154815290600101906020018083116103ec57829003601f168201915b5050505050908060020154905083565b5f81519050919050565b5f82825260208201905092915050565b5f819050602082019050919050565b5f73ffffffffffffffffffffffffffffffffffffffff82169050919050565b5f61046b82610442565b9050919050565b61047b81610461565b82525050565b5f81519050919050565b5f82825260208201905092915050565b8281835e5f83830152505050565b5f601f19601f8301169050919050565b5f6104c382610481565b6104cd818561048b565b93506104dd81856020860161049b565b6104e6816104a9565b840191505092915050565b5f819050919050565b610503816104f1565b82525050565b5f606083015f83015161051e5f860182610472565b506020830151848203602086015261053682826104b9565b915050604083015161054b60408601826104fa565b508091505092915050565b5f6105618383610509565b905092915050565b5f602082019050919050565b5f61057f82610419565b6105898185610423565b93508360208202850161059b85610433565b805f5b858110156105d657848403895281516105b78582610556565b94506105c283610569565b925060208a0199505060018101905061059e565b50829750879550505050505092915050565b5f6020820190508181035f8301526106008184610575565b905092915050565b5f604051905090565b5f80fd5b5f80fd5b5f80fd5b5f80fd5b7f4e487b71000000000000000000000000000000000000000000000000000000005f52604160045260245ffd5b610657826104a9565b810181811067ffffffffffffffff8211171561067657610675610621565b5b80604052505050565b5f610688610608565b9050610694828261064e565b919050565b5f67ffffffffffffffff8211156106b3576106b2610621565b5b6106bc826104a9565b9050602081019050919050565b828183375f83830152505050565b5f6106e96106e484610699565b61067f565b9050828152602081018484840111156107055761070461061d565b5b6107108482856106c9565b509392505050565b5f82601f83011261072c5761072b610619565b5b813561073c8482602086016106d7565b91505092915050565b61074e816104f1565b8114610758575f80fd5b50565b5f8135905061076981610745565b92915050565b5f806040838503121561078557610784610611565b5b5f83013567ffffffffffffffff8111156107a2576107a1610615565b5b6107ae85828601610718565b92505060206107bf8582860161075b565b9150509250929050565b6107d281610461565b81146107dc575f80fd5b50565b5f813590506107ed816107c9565b92915050565b5f806040838503121561080957610808610611565b5b5f610816858286016107df565b92505060206108278582860161075b565b9150509250929050565b61083a81610461565b82525050565b5f82825260208201905092915050565b5f61085a82610481565b6108648185610840565b935061087481856020860161049b565b61087d816104a9565b840191505092915050565b610891816104f1565b82525050565b5f6060820190506108aa5f830186610831565b81810360208301526108bc8185610850565b90506108cb6040830184610888565b949350505050565b7f4e487b71000000000000000000000000000000000000000000000000000000005f52602260045260245ffd5b5f600282049050600182168061091757607f821691505b60208210810361092a576109296108d3565b5b50919050565b5f819050815f5260205f209050919050565b5f6020601f8301049050919050565b5f82821b905092915050565b5f6008830261098c7fffffffffffffffffffffffffffffffffffffffffffffffffffffffffffffffff82610951565b6109968683610951565b95508019841693508086168417925050509392505050565b5f819050919050565b5f6109d16109cc6109c7846104f1565b6109ae565b6104f1565b9050919050565b5f819050919050565b6109ea836109b7565b6109fe6109f6826109d8565b84845461095d565b825550505050565b5f90565b610a12610a06565b610a1d8184846109e1565b505050565b5b81811015610a4057610a355f82610a0a565b600181019050610a23565b5050565b601f821115610a8557610a5681610930565b610a5f84610942565b81016020851015610a6e578190505b610a82610a7a85610942565b830182610a22565b50505b505050565b5f82821c905092915050565b5f610aa55f1984600802610a8a565b1980831691505092915050565b5f610abd8383610a96565b9150826002028217905092915050565b610ad682610481565b67ffffffffffffffff811115610aef57610aee610621565b5b610af98254610900565b610b04828285610a44565b5f60209050601f831160018114610b35575f8415610b23578287015190505b610b2d8582610ab2565b865550610b94565b601f198416610b4386610930565b5f5b82811015610b6a57848901518255600182019150602085019450602081019050610b45565b86831015610b875784890151610b83601f891682610a96565b8355505b6001600288020188555050505b50505050505056fea264697066735822122075f9a966fab31d054303dbe62fd46288559916cf7e178229b94b7d398ebbc20264736f6c634300081a0033",
					"opcodes": "PUSH1 0x80 PUSH1 0x40 MSTORE CALLVALUE DUP1 ISZERO PUSH1 0xE JUMPI PUSH0 DUP1 REVERT JUMPDEST POP PUSH2 0xBD2 DUP1 PUSH2 0x1C PUSH0 CODECOPY PUSH0 RETURN INVALID PUSH1 0x80 PUSH1 0x40 MSTORE CALLVALUE DUP1 ISZERO PUSH2 0xF JUMPI PUSH0 DUP1 REVERT JUMPDEST POP PUSH1 0x4 CALLDATASIZE LT PUSH2 0x3F JUMPI PUSH0 CALLDATALOAD PUSH1 0xE0 SHR DUP1 PUSH4 0x41FFF1D6 EQ PUSH2 0x43 JUMPI DUP1 PUSH4 0xDC2A7EAC EQ PUSH2 0x61 JUMPI DUP1 PUSH4 0xEFCE79EC EQ PUSH2 0x7D JUMPI JUMPDEST PUSH0 DUP1 REVERT JUMPDEST PUSH2 0x4B PUSH2 0xAF JUMP JUMPDEST PUSH1 0x40 MLOAD PUSH2 0x58 SWAP2 SWAP1 PUSH2 0x5E8 JUMP JUMPDEST PUSH1 0x40 MLOAD DUP1 SWAP2 SUB SWAP1 RETURN JUMPDEST PUSH2 0x7B PUSH1 0x4 DUP1 CALLDATASIZE SUB DUP2 ADD SWAP1 PUSH2 0x76 SWAP2 SWAP1 PUSH2 0x76F JUMP JUMPDEST PUSH2 0x233 JUMP JUMPDEST STOP JUMPDEST PUSH2 0x97 PUSH1 0x4 DUP1 CALLDATASIZE SUB DUP2 ADD SWAP1 PUSH2 0x92 SWAP2 SWAP1 PUSH2 0x7F3 JUMP JUMPDEST PUSH2 0x335 JUMP JUMPDEST PUSH1 0x40 MLOAD PUSH2 0xA6 SWAP4 SWAP3 SWAP2 SWAP1 PUSH2 0x897 JUMP JUMPDEST PUSH1 0x40 MLOAD DUP1 SWAP2 SUB SWAP1 RETURN JUMPDEST PUSH1 0x60 PUSH0 DUP1 CALLER PUSH20 0xFFFFFFFFFFFFFFFFFFFFFFFFFFFFFFFFFFFFFFFF AND PUSH20 0xFFFFFFFFFFFFFFFFFFFFFFFFFFFFFFFFFFFFFFFF AND DUP2 MSTORE PUSH1 0x20 ADD SWAP1 DUP2 MSTORE PUSH1 0x20 ADD PUSH0 KECCAK256 DUP1 SLOAD DUP1 PUSH1 0x20 MUL PUSH1 0x20 ADD PUSH1 0x40 MLOAD SWAP1 DUP2 ADD PUSH1 0x40 MSTORE DUP1 SWAP3 SWAP2 SWAP1 DUP2 DUP2 MSTORE PUSH1 0x20 ADD PUSH0 SWAP1 JUMPDEST DUP3 DUP3 LT ISZERO PUSH2 0x22A JUMPI DUP4 DUP3 SWAP1 PUSH0 MSTORE PUSH1 0x20 PUSH0 KECCAK256 SWAP1 PUSH1 0x3 MUL ADD PUSH1 0x40 MLOAD DUP1 PUSH1 0x60 ADD PUSH1 0x40 MSTORE SWAP1 DUP2 PUSH0 DUP3 ADD PUSH0 SWAP1 SLOAD SWAP1 PUSH2 0x100 EXP SWAP1 DIV PUSH20 0xFFFFFFFFFFFFFFFFFFFFFFFFFFFFFFFFFFFFFFFF AND PUSH20 0xFFFFFFFFFFFFFFFFFFFFFFFFFFFFFFFFFFFFFFFF AND PUSH20 0xFFFFFFFFFFFFFFFFFFFFFFFFFFFFFFFFFFFFFFFF AND DUP2 MSTORE PUSH1 0x20 ADD PUSH1 0x1 DUP3 ADD DUP1 SLOAD PUSH2 0x191 SWAP1 PUSH2 0x900 JUMP JUMPDEST DUP1 PUSH1 0x1F ADD PUSH1 0x20 DUP1 SWAP2 DIV MUL PUSH1 0x20 ADD PUSH1 0x40 MLOAD SWAP1 DUP2 ADD PUSH1 0x40 MSTORE DUP1 SWAP3 SWAP2 SWAP1 DUP2 DUP2 MSTORE PUSH1 0x20 ADD DUP3 DUP1 SLOAD PUSH2 0x1BD SWAP1 PUSH2 0x900 JUMP JUMPDEST DUP1 ISZERO PUSH2 0x208 JUMPI DUP1 PUSH1 0x1F LT PUSH2 0x1DF JUMPI PUSH2 0x100 DUP1 DUP4 SLOAD DIV MUL DUP4 MSTORE SWAP2 PUSH1 0x20 ADD SWAP2 PUSH2 0x208 JUMP JUMPDEST DUP3 ADD SWAP2 SWAP1 PUSH0 MSTORE PUSH1 0x20 PUSH0 KECCAK256 SWAP1 JUMPDEST DUP2 SLOAD DUP2 MSTORE SWAP1 PUSH1 0x1 ADD SWAP1 PUSH1 0x20 ADD DUP1 DUP4 GT PUSH2 0x1EB JUMPI DUP3 SWAP1 SUB PUSH1 0x1F AND DUP3 ADD SWAP2 JUMPDEST POP POP POP POP POP DUP2 MSTORE PUSH1 0x20 ADD PUSH1 0x2 DUP3 ADD SLOAD DUP2 MSTORE POP POP DUP2 MSTORE PUSH1 0x20 ADD SWAP1 PUSH1 0x1 ADD SWAP1 PUSH2 0x10C JUMP JUMPDEST POP POP POP POP SWAP1 POP SWAP1 JUMP JUMPDEST PUSH0 PUSH1 0x40 MLOAD DUP1 PUSH1 0x60 ADD PUSH1 0x40 MSTORE DUP1 CALLER PUSH20 0xFFFFFFFFFFFFFFFFFFFFFFFFFFFFFFFFFFFFFFFF AND DUP2 MSTORE PUSH1 0x20 ADD DUP5 DUP2 MSTORE PUSH1 0x20 ADD DUP4 DUP2 MSTORE POP SWAP1 POP PUSH0 DUP1 CALLER PUSH20 0xFFFFFFFFFFFFFFFFFFFFFFFFFFFFFFFFFFFFFFFF AND PUSH20 0xFFFFFFFFFFFFFFFFFFFFFFFFFFFFFFFFFFFFFFFF AND DUP2 MSTORE PUSH1 0x20 ADD SWAP1 DUP2 MSTORE PUSH1 0x20 ADD PUSH0 KECCAK256 DUP2 SWAP1 DUP1 PUSH1 0x1 DUP2 SLOAD ADD DUP1 DUP3 SSTORE DUP1 SWAP2 POP POP PUSH1 0x1 SWAP1 SUB SWAP1 PUSH0 MSTORE PUSH1 0x20 PUSH0 KECCAK256 SWAP1 PUSH1 0x3 MUL ADD PUSH0 SWAP1 SWAP2 SWAP1 SWAP2 SWAP1 SWAP2 POP PUSH0 DUP3 ADD MLOAD DUP2 PUSH0 ADD PUSH0 PUSH2 0x100 EXP DUP2 SLOAD DUP2 PUSH20 0xFFFFFFFFFFFFFFFFFFFFFFFFFFFFFFFFFFFFFFFF MUL NOT AND SWAP1 DUP4 PUSH20 0xFFFFFFFFFFFFFFFFFFFFFFFFFFFFFFFFFFFFFFFF AND MUL OR SWAP1 SSTORE POP PUSH1 0x20 DUP3 ADD MLOAD DUP2 PUSH1 0x1 ADD SWAP1 DUP2 PUSH2 0x323 SWAP2 SWAP1 PUSH2 0xACD JUMP JUMPDEST POP PUSH1 0x40 DUP3 ADD MLOAD DUP2 PUSH1 0x2 ADD SSTORE POP POP POP POP POP JUMP JUMPDEST PUSH0 PUSH1 0x20 MSTORE DUP2 PUSH0 MSTORE PUSH1 0x40 PUSH0 KECCAK256 DUP2 DUP2 SLOAD DUP2 LT PUSH2 0x34D JUMPI PUSH0 DUP1 REVERT JUMPDEST SWAP1 PUSH0 MSTORE PUSH1 0x20 PUSH0 KECCAK256 SWAP1 PUSH1 0x3 MUL ADD PUSH0 SWAP2 POP SWAP2 POP POP DUP1 PUSH0 ADD PUSH0 SWAP1 SLOAD SWAP1 PUSH2 0x100 EXP SWAP1 DIV PUSH20 0xFFFFFFFFFFFFFFFFFFFFFFFFFFFFFFFFFFFFFFFF AND SWAP1 DUP1 PUSH1 0x1 ADD DUP1 SLOAD PUSH2 0x392 SWAP1 PUSH2 0x900 JUMP JUMPDEST DUP1 PUSH1 0x1F ADD PUSH1 0x20 DUP1 SWAP2 DIV MUL PUSH1 0x20 ADD PUSH1 0x40 MLOAD SWAP1 DUP2 ADD PUSH1 0x40 MSTORE DUP1 SWAP3 SWAP2 SWAP1 DUP2 DUP2 MSTORE PUSH1 0x20 ADD DUP3 DUP1 SLOAD PUSH2 0x3BE SWAP1 PUSH2 0x900 JUMP JUMPDEST DUP1 ISZERO PUSH2 0x409 JUMPI DUP1 PUSH1 0x1F LT PUSH2 0x3E0 JUMPI PUSH2 0x100 DUP1 DUP4 SLOAD DIV MUL DUP4 MSTORE SWAP2 PUSH1 0x20 ADD SWAP2 PUSH2 0x409 JUMP JUMPDEST DUP3 ADD SWAP2 SWAP1 PUSH0 MSTORE PUSH1 0x20 PUSH0 KECCAK256 SWAP1 JUMPDEST DUP2 SLOAD DUP2 MSTORE SWAP1 PUSH1 0x1 ADD SWAP1 PUSH1 0x20 ADD DUP1 DUP4 GT PUSH2 0x3EC JUMPI DUP3 SWAP1 SUB PUSH1 0x1F AND DUP3 ADD SWAP2 JUMPDEST POP POP POP POP POP SWAP1 DUP1 PUSH1 0x2 ADD SLOAD SWAP1 POP DUP4 JUMP JUMPDEST PUSH0 DUP2 MLOAD SWAP1 POP SWAP2 SWAP1 POP JUMP JUMPDEST PUSH0 DUP3 DUP3 MSTORE PUSH1 0x20 DUP3 ADD SWAP1 POP SWAP3 SWAP2 POP POP JUMP JUMPDEST PUSH0 DUP2 SWAP1 POP PUSH1 0x20 DUP3 ADD SWAP1 POP SWAP2 SWAP1 POP JUMP JUMPDEST PUSH0 PUSH20 0xFFFFFFFFFFFFFFFFFFFFFFFFFFFFFFFFFFFFFFFF DUP3 AND SWAP1 POP SWAP2 SWAP1 POP JUMP JUMPDEST PUSH0 PUSH2 0x46B DUP3 PUSH2 0x442 JUMP JUMPDEST SWAP1 POP SWAP2 SWAP1 POP JUMP JUMPDEST PUSH2 0x47B DUP2 PUSH2 0x461 JUMP JUMPDEST DUP3 MSTORE POP POP JUMP JUMPDEST PUSH0 DUP2 MLOAD SWAP1 POP SWAP2 SWAP1 POP JUMP JUMPDEST PUSH0 DUP3 DUP3 MSTORE PUSH1 0x20 DUP3 ADD SWAP1 POP SWAP3 SWAP2 POP POP JUMP JUMPDEST DUP3 DUP2 DUP4 MCOPY PUSH0 DUP4 DUP4 ADD MSTORE POP POP POP JUMP JUMPDEST PUSH0 PUSH1 0x1F NOT PUSH1 0x1F DUP4 ADD AND SWAP1 POP SWAP2 SWAP1 POP JUMP JUMPDEST PUSH0 PUSH2 0x4C3 DUP3 PUSH2 0x481 JUMP JUMPDEST PUSH2 0x4CD DUP2 DUP6 PUSH2 0x48B JUMP JUMPDEST SWAP4 POP PUSH2 0x4DD DUP2 DUP6 PUSH1 0x20 DUP7 ADD PUSH2 0x49B JUMP JUMPDEST PUSH2 0x4E6 DUP2 PUSH2 0x4A9 JUMP JUMPDEST DUP5 ADD SWAP2 POP POP SWAP3 SWAP2 POP POP JUMP JUMPDEST PUSH0 DUP2 SWAP1 POP SWAP2 SWAP1 POP JUMP JUMPDEST PUSH2 0x503 DUP2 PUSH2 0x4F1 JUMP JUMPDEST DUP3 MSTORE POP POP JUMP JUMPDEST PUSH0 PUSH1 0x60 DUP4 ADD PUSH0 DUP4 ADD MLOAD PUSH2 0x51E PUSH0 DUP7 ADD DUP3 PUSH2 0x472 JUMP JUMPDEST POP PUSH1 0x20 DUP4 ADD MLOAD DUP5 DUP3 SUB PUSH1 0x20 DUP7 ADD MSTORE PUSH2 0x536 DUP3 DUP3 PUSH2 0x4B9 JUMP JUMPDEST SWAP2 POP POP PUSH1 0x40 DUP4 ADD MLOAD PUSH2 0x54B PUSH1 0x40 DUP7 ADD DUP3 PUSH2 0x4FA JUMP JUMPDEST POP DUP1 SWAP2 POP POP SWAP3 SWAP2 POP POP JUMP JUMPDEST PUSH0 PUSH2 0x561 DUP4 DUP4 PUSH2 0x509 JUMP JUMPDEST SWAP1 POP SWAP3 SWAP2 POP POP JUMP JUMPDEST PUSH0 PUSH1 0x20 DUP3 ADD SWAP1 POP SWAP2 SWAP1 POP JUMP JUMPDEST PUSH0 PUSH2 0x57F DUP3 PUSH2 0x419 JUMP JUMPDEST PUSH2 0x589 DUP2 DUP6 PUSH2 0x423 JUMP JUMPDEST SWAP4 POP DUP4 PUSH1 0x20 DUP3 MUL DUP6 ADD PUSH2 0x59B DUP6 PUSH2 0x433 JUMP JUMPDEST DUP1 PUSH0 JUMPDEST DUP6 DUP2 LT ISZERO PUSH2 0x5D6 JUMPI DUP5 DUP5 SUB DUP10 MSTORE DUP2 MLOAD PUSH2 0x5B7 DUP6 DUP3 PUSH2 0x556 JUMP JUMPDEST SWAP5 POP PUSH2 0x5C2 DUP4 PUSH2 0x569 JUMP JUMPDEST SWAP3 POP PUSH1 0x20 DUP11 ADD SWAP10 POP POP PUSH1 0x1 DUP2 ADD SWAP1 POP PUSH2 0x59E JUMP JUMPDEST POP DUP3 SWAP8 POP DUP8 SWAP6 POP POP POP POP POP POP SWAP3 SWAP2 POP POP JUMP JUMPDEST PUSH0 PUSH1 0x20 DUP3 ADD SWAP1 POP DUP2 DUP2 SUB PUSH0 DUP4 ADD MSTORE PUSH2 0x600 DUP2 DUP5 PUSH2 0x575 JUMP JUMPDEST SWAP1 POP SWAP3 SWAP2 POP POP JUMP JUMPDEST PUSH0 PUSH1 0x40 MLOAD SWAP1 POP SWAP1 JUMP JUMPDEST PUSH0 DUP1 REVERT JUMPDEST PUSH0 DUP1 REVERT JUMPDEST PUSH0 DUP1 REVERT JUMPDEST PUSH0 DUP1 REVERT JUMPDEST PUSH32 0x4E487B7100000000000000000000000000000000000000000000000000000000 PUSH0 MSTORE PUSH1 0x41 PUSH1 0x4 MSTORE PUSH1 0x24 PUSH0 REVERT JUMPDEST PUSH2 0x657 DUP3 PUSH2 0x4A9 JUMP JUMPDEST DUP2 ADD DUP2 DUP2 LT PUSH8 0xFFFFFFFFFFFFFFFF DUP3 GT OR ISZERO PUSH2 0x676 JUMPI PUSH2 0x675 PUSH2 0x621 JUMP JUMPDEST JUMPDEST DUP1 PUSH1 0x40 MSTORE POP POP POP JUMP JUMPDEST PUSH0 PUSH2 0x688 PUSH2 0x608 JUMP JUMPDEST SWAP1 POP PUSH2 0x694 DUP3 DUP3 PUSH2 0x64E JUMP JUMPDEST SWAP2 SWAP1 POP JUMP JUMPDEST PUSH0 PUSH8 0xFFFFFFFFFFFFFFFF DUP3 GT ISZERO PUSH2 0x6B3 JUMPI PUSH2 0x6B2 PUSH2 0x621 JUMP JUMPDEST JUMPDEST PUSH2 0x6BC DUP3 PUSH2 0x4A9 JUMP JUMPDEST SWAP1 POP PUSH1 0x20 DUP2 ADD SWAP1 POP SWAP2 SWAP1 POP JUMP JUMPDEST DUP3 DUP2 DUP4 CALLDATACOPY PUSH0 DUP4 DUP4 ADD MSTORE POP POP POP JUMP JUMPDEST PUSH0 PUSH2 0x6E9 PUSH2 0x6E4 DUP5 PUSH2 0x699 JUMP JUMPDEST PUSH2 0x67F JUMP JUMPDEST SWAP1 POP DUP3 DUP2 MSTORE PUSH1 0x20 DUP2 ADD DUP5 DUP5 DUP5 ADD GT ISZERO PUSH2 0x705 JUMPI PUSH2 0x704 PUSH2 0x61D JUMP JUMPDEST JUMPDEST PUSH2 0x710 DUP5 DUP3 DUP6 PUSH2 0x6C9 JUMP JUMPDEST POP SWAP4 SWAP3 POP POP POP JUMP JUMPDEST PUSH0 DUP3 PUSH1 0x1F DUP4 ADD SLT PUSH2 0x72C JUMPI PUSH2 0x72B PUSH2 0x619 JUMP JUMPDEST JUMPDEST DUP2 CALLDATALOAD PUSH2 0x73C DUP5 DUP3 PUSH1 0x20 DUP7 ADD PUSH2 0x6D7 JUMP JUMPDEST SWAP2 POP POP SWAP3 SWAP2 POP POP JUMP JUMPDEST PUSH2 0x74E DUP2 PUSH2 0x4F1 JUMP JUMPDEST DUP2 EQ PUSH2 0x758 JUMPI PUSH0 DUP1 REVERT JUMPDEST POP JUMP JUMPDEST PUSH0 DUP2 CALLDATALOAD SWAP1 POP PUSH2 0x769 DUP2 PUSH2 0x745 JUMP JUMPDEST SWAP3 SWAP2 POP POP JUMP JUMPDEST PUSH0 DUP1 PUSH1 0x40 DUP4 DUP6 SUB SLT ISZERO PUSH2 0x785 JUMPI PUSH2 0x784 PUSH2 0x611 JUMP JUMPDEST JUMPDEST PUSH0 DUP4 ADD CALLDATALOAD PUSH8 0xFFFFFFFFFFFFFFFF DUP2 GT ISZERO PUSH2 0x7A2 JUMPI PUSH2 0x7A1 PUSH2 0x615 JUMP JUMPDEST JUMPDEST PUSH2 0x7AE DUP6 DUP3 DUP7 ADD PUSH2 0x718 JUMP JUMPDEST SWAP3 POP POP PUSH1 0x20 PUSH2 0x7BF DUP6 DUP3 DUP7 ADD PUSH2 0x75B JUMP JUMPDEST SWAP2 POP POP SWAP3 POP SWAP3 SWAP1 POP JUMP JUMPDEST PUSH2 0x7D2 DUP2 PUSH2 0x461 JUMP JUMPDEST DUP2 EQ PUSH2 0x7DC JUMPI PUSH0 DUP1 REVERT JUMPDEST POP JUMP JUMPDEST PUSH0 DUP2 CALLDATALOAD SWAP1 POP PUSH2 0x7ED DUP2 PUSH2 0x7C9 JUMP JUMPDEST SWAP3 SWAP2 POP POP JUMP JUMPDEST PUSH0 DUP1 PUSH1 0x40 DUP4 DUP6 SUB SLT ISZERO PUSH2 0x809 JUMPI PUSH2 0x808 PUSH2 0x611 JUMP JUMPDEST JUMPDEST PUSH0 PUSH2 0x816 DUP6 DUP3 DUP7 ADD PUSH2 0x7DF JUMP JUMPDEST SWAP3 POP POP PUSH1 0x20 PUSH2 0x827 DUP6 DUP3 DUP7 ADD PUSH2 0x75B JUMP JUMPDEST SWAP2 POP POP SWAP3 POP SWAP3 SWAP1 POP JUMP JUMPDEST PUSH2 0x83A DUP2 PUSH2 0x461 JUMP JUMPDEST DUP3 MSTORE POP POP JUMP JUMPDEST PUSH0 DUP3 DUP3 MSTORE PUSH1 0x20 DUP3 ADD SWAP1 POP SWAP3 SWAP2 POP POP JUMP JUMPDEST PUSH0 PUSH2 0x85A DUP3 PUSH2 0x481 JUMP JUMPDEST PUSH2 0x864 DUP2 DUP6 PUSH2 0x840 JUMP JUMPDEST SWAP4 POP PUSH2 0x874 DUP2 DUP6 PUSH1 0x20 DUP7 ADD PUSH2 0x49B JUMP JUMPDEST PUSH2 0x87D DUP2 PUSH2 0x4A9 JUMP JUMPDEST DUP5 ADD SWAP2 POP POP SWAP3 SWAP2 POP POP JUMP JUMPDEST PUSH2 0x891 DUP2 PUSH2 0x4F1 JUMP JUMPDEST DUP3 MSTORE POP POP JUMP JUMPDEST PUSH0 PUSH1 0x60 DUP3 ADD SWAP1 POP PUSH2 0x8AA PUSH0 DUP4 ADD DUP7 PUSH2 0x831 JUMP JUMPDEST DUP2 DUP2 SUB PUSH1 0x20 DUP4 ADD MSTORE PUSH2 0x8BC DUP2 DUP6 PUSH2 0x850 JUMP JUMPDEST SWAP1 POP PUSH2 0x8CB PUSH1 0x40 DUP4 ADD DUP5 PUSH2 0x888 JUMP JUMPDEST SWAP5 SWAP4 POP POP POP POP JUMP JUMPDEST PUSH32 0x4E487B7100000000000000000000000000000000000000000000000000000000 PUSH0 MSTORE PUSH1 0x22 PUSH1 0x4 MSTORE PUSH1 0x24 PUSH0 REVERT JUMPDEST PUSH0 PUSH1 0x2 DUP3 DIV SWAP1 POP PUSH1 0x1 DUP3 AND DUP1 PUSH2 0x917 JUMPI PUSH1 0x7F DUP3 AND SWAP2 POP JUMPDEST PUSH1 0x20 DUP3 LT DUP2 SUB PUSH2 0x92A JUMPI PUSH2 0x929 PUSH2 0x8D3 JUMP JUMPDEST JUMPDEST POP SWAP2 SWAP1 POP JUMP JUMPDEST PUSH0 DUP2 SWAP1 POP DUP2 PUSH0 MSTORE PUSH1 0x20 PUSH0 KECCAK256 SWAP1 POP SWAP2 SWAP1 POP JUMP JUMPDEST PUSH0 PUSH1 0x20 PUSH1 0x1F DUP4 ADD DIV SWAP1 POP SWAP2 SWAP1 POP JUMP JUMPDEST PUSH0 DUP3 DUP3 SHL SWAP1 POP SWAP3 SWAP2 POP POP JUMP JUMPDEST PUSH0 PUSH1 0x8 DUP4 MUL PUSH2 0x98C PUSH32 0xFFFFFFFFFFFFFFFFFFFFFFFFFFFFFFFFFFFFFFFFFFFFFFFFFFFFFFFFFFFFFFFF DUP3 PUSH2 0x951 JUMP JUMPDEST PUSH2 0x996 DUP7 DUP4 PUSH2 0x951 JUMP JUMPDEST SWAP6 POP DUP1 NOT DUP5 AND SWAP4 POP DUP1 DUP7 AND DUP5 OR SWAP3 POP POP POP SWAP4 SWAP3 POP POP POP JUMP JUMPDEST PUSH0 DUP2 SWAP1 POP SWAP2 SWAP1 POP JUMP JUMPDEST PUSH0 PUSH2 0x9D1 PUSH2 0x9CC PUSH2 0x9C7 DUP5 PUSH2 0x4F1 JUMP JUMPDEST PUSH2 0x9AE JUMP JUMPDEST PUSH2 0x4F1 JUMP JUMPDEST SWAP1 POP SWAP2 SWAP1 POP JUMP JUMPDEST PUSH0 DUP2 SWAP1 POP SWAP2 SWAP1 POP JUMP JUMPDEST PUSH2 0x9EA DUP4 PUSH2 0x9B7 JUMP JUMPDEST PUSH2 0x9FE PUSH2 0x9F6 DUP3 PUSH2 0x9D8 JUMP JUMPDEST DUP5 DUP5 SLOAD PUSH2 0x95D JUMP JUMPDEST DUP3 SSTORE POP POP POP POP JUMP JUMPDEST PUSH0 SWAP1 JUMP JUMPDEST PUSH2 0xA12 PUSH2 0xA06 JUMP JUMPDEST PUSH2 0xA1D DUP2 DUP5 DUP5 PUSH2 0x9E1 JUMP JUMPDEST POP POP POP JUMP JUMPDEST JUMPDEST DUP2 DUP2 LT ISZERO PUSH2 0xA40 JUMPI PUSH2 0xA35 PUSH0 DUP3 PUSH2 0xA0A JUMP JUMPDEST PUSH1 0x1 DUP2 ADD SWAP1 POP PUSH2 0xA23 JUMP JUMPDEST POP POP JUMP JUMPDEST PUSH1 0x1F DUP3 GT ISZERO PUSH2 0xA85 JUMPI PUSH2 0xA56 DUP2 PUSH2 0x930 JUMP JUMPDEST PUSH2 0xA5F DUP5 PUSH2 0x942 JUMP JUMPDEST DUP2 ADD PUSH1 0x20 DUP6 LT ISZERO PUSH2 0xA6E JUMPI DUP2 SWAP1 POP JUMPDEST PUSH2 0xA82 PUSH2 0xA7A DUP6 PUSH2 0x942 JUMP JUMPDEST DUP4 ADD DUP3 PUSH2 0xA22 JUMP JUMPDEST POP POP JUMPDEST POP POP POP JUMP JUMPDEST PUSH0 DUP3 DUP3 SHR SWAP1 POP SWAP3 SWAP2 POP POP JUMP JUMPDEST PUSH0 PUSH2 0xAA5 PUSH0 NOT DUP5 PUSH1 0x8 MUL PUSH2 0xA8A JUMP JUMPDEST NOT DUP1 DUP4 AND SWAP2 POP POP SWAP3 SWAP2 POP POP JUMP JUMPDEST PUSH0 PUSH2 0xABD DUP4 DUP4 PUSH2 0xA96 JUMP JUMPDEST SWAP2 POP DUP3 PUSH1 0x2 MUL DUP3 OR SWAP1 POP SWAP3 SWAP2 POP POP JUMP JUMPDEST PUSH2 0xAD6 DUP3 PUSH2 0x481 JUMP JUMPDEST PUSH8 0xFFFFFFFFFFFFFFFF DUP2 GT ISZERO PUSH2 0xAEF JUMPI PUSH2 0xAEE PUSH2 0x621 JUMP JUMPDEST JUMPDEST PUSH2 0xAF9 DUP3 SLOAD PUSH2 0x900 JUMP JUMPDEST PUSH2 0xB04 DUP3 DUP3 DUP6 PUSH2 0xA44 JUMP JUMPDEST PUSH0 PUSH1 0x20 SWAP1 POP PUSH1 0x1F DUP4 GT PUSH1 0x1 DUP2 EQ PUSH2 0xB35 JUMPI PUSH0 DUP5 ISZERO PUSH2 0xB23 JUMPI DUP3 DUP8 ADD MLOAD SWAP1 POP JUMPDEST PUSH2 0xB2D DUP6 DUP3 PUSH2 0xAB2 JUMP JUMPDEST DUP7 SSTORE POP PUSH2 0xB94 JUMP JUMPDEST PUSH1 0x1F NOT DUP5 AND PUSH2 0xB43 DUP7 PUSH2 0x930 JUMP JUMPDEST PUSH0 JUMPDEST DUP3 DUP2 LT ISZERO PUSH2 0xB6A JUMPI DUP5 DUP10 ADD MLOAD DUP3 SSTORE PUSH1 0x1 DUP3 ADD SWAP2 POP PUSH1 0x20 DUP6 ADD SWAP5 POP PUSH1 0x20 DUP2 ADD SWAP1 POP PUSH2 0xB45 JUMP JUMPDEST DUP7 DUP4 LT ISZERO PUSH2 0xB87 JUMPI DUP5 DUP10 ADD MLOAD PUSH2 0xB83 PUSH1 0x1F DUP10 AND DUP3 PUSH2 0xA96 JUMP JUMPDEST DUP4 SSTORE POP JUMPDEST PUSH1 0x1 PUSH1 0x2 DUP9 MUL ADD DUP9 SSTORE POP POP POP JUMPDEST POP POP POP POP POP POP JUMP INVALID LOG2 PUSH5 0x6970667358 0x22 SLT KECCAK256 PUSH22 0xF9A966FAB31D054303DBE62FD46288559916CF7E1782 0x29 0xB9 0x4B PUSH30 0x398EBBC20264736F6C634300081A00330000000000000000000000000000 "
				},
				"gasEstimates": {
					"creation": {
						"codeDepositCost": "605200",
						"executionCost": "636",
						"totalCost": "605836"
					},
					"external": {
						"createExpanse(string,uint256)": "infinite",
						"expanses(address,uint256)": "infinite",
						"getExpanses()": "infinite"
					}
				},
				"methodIdentifiers": {
					"createExpanse(string,uint256)": "dc2a7eac",
					"expanses(address,uint256)": "efce79ec",
					"getExpanses()": "41fff1d6"
				}
			},
			"storageLayout": {
				"storage": [
					{
						"astId": 14,
						"contract": "contracts/LoopsSolution.sol:Loops",
						"label": "expanses",
						"offset": 0,
						"slot": "0",
						"type": "t_mapping(t_address,t_array(t_struct(Expanses)8_storage)dyn_storage)"
					}
				],
				"types": {
					"t_address": {
						"encoding": "inplace",
						"label": "address",
						"numberOfBytes": "20"
					},
					"t_array(t_struct(Expanses)8_storage)dyn_storage": {
						"base": "t_struct(Expanses)8_storage",
						"encoding": "dynamic_array",
						"label": "struct Loops.Expanses[]",
						"numberOfBytes": "32"
					},
					"t_mapping(t_address,t_array(t_struct(Expanses)8_storage)dyn_storage)": {
						"encoding": "mapping",
						"key": "t_address",
						"label": "mapping(address => struct Loops.Expanses[])",
						"numberOfBytes": "32",
						"value": "t_array(t_struct(Expanses)8_storage)dyn_storage"
					},
					"t_string_storage": {
						"encoding": "bytes",
						"label": "string",
						"numberOfBytes": "32"
					},
					"t_struct(Expanses)8_storage": {
						"encoding": "inplace",
						"label": "struct Loops.Expanses",
						"members": [
							{
								"astId": 3,
								"contract": "contracts/LoopsSolution.sol:Loops",
								"label": "user",
								"offset": 0,
								"slot": "0",
								"type": "t_address"
							},
							{
								"astId": 5,
								"contract": "contracts/LoopsSolution.sol:Loops",
								"label": "descripton",
								"offset": 0,
								"slot": "1",
								"type": "t_string_storage"
							},
							{
								"astId": 7,
								"contract": "contracts/LoopsSolution.sol:Loops",
								"label": "amount",
								"offset": 0,
								"slot": "2",
								"type": "t_uint256"
							}
						],
						"numberOfBytes": "96"
					},
					"t_uint256": {
						"encoding": "inplace",
						"label": "uint256",
						"numberOfBytes": "32"
					}
				}
			},
			"userdoc": {
				"kind": "user",
				"methods": {},
				"version": 1
			}
		}
	}
}