{
	"contracts/Twitter-Struct-inherit.sol": {
		"Twitter": {
			"abi": [
				{
					"inputs": [],
					"stateMutability": "nonpayable",
					"type": "constructor"
				},
				{
					"inputs": [
						{
							"internalType": "address",
							"name": "owner",
							"type": "address"
						}
					],
					"name": "OwnableInvalidOwner",
					"type": "error"
				},
				{
					"inputs": [
						{
							"internalType": "address",
							"name": "account",
							"type": "address"
						}
					],
					"name": "OwnableUnauthorizedAccount",
					"type": "error"
				},
				{
					"anonymous": false,
					"inputs": [
						{
							"indexed": true,
							"internalType": "address",
							"name": "previousOwner",
							"type": "address"
						},
						{
							"indexed": true,
							"internalType": "address",
							"name": "newOwner",
							"type": "address"
						}
					],
					"name": "OwnershipTransferred",
					"type": "event"
				},
				{
					"anonymous": false,
					"inputs": [
						{
							"indexed": false,
							"internalType": "uint256",
							"name": "id",
							"type": "uint256"
						},
						{
							"indexed": false,
							"internalType": "address",
							"name": "auther",
							"type": "address"
						},
						{
							"indexed": false,
							"internalType": "string",
							"name": "content",
							"type": "string"
						},
						{
							"indexed": false,
							"internalType": "uint256",
							"name": "timestamp",
							"type": "uint256"
						}
					],
					"name": "tweetCreated",
					"type": "event"
				},
				{
					"anonymous": false,
					"inputs": [
						{
							"indexed": false,
							"internalType": "address",
							"name": "liker",
							"type": "address"
						},
						{
							"indexed": false,
							"internalType": "uint256",
							"name": "id",
							"type": "uint256"
						},
						{
							"indexed": false,
							"internalType": "address",
							"name": "auther",
							"type": "address"
						},
						{
							"indexed": false,
							"internalType": "uint256",
							"name": "likes",
							"type": "uint256"
						}
					],
					"name": "tweetLiked",
					"type": "event"
				},
				{
					"anonymous": false,
					"inputs": [
						{
							"indexed": false,
							"internalType": "address",
							"name": "unliker",
							"type": "address"
						},
						{
							"indexed": false,
							"internalType": "uint256",
							"name": "id",
							"type": "uint256"
						},
						{
							"indexed": false,
							"internalType": "address",
							"name": "auther",
							"type": "address"
						},
						{
							"indexed": false,
							"internalType": "uint256",
							"name": "likes",
							"type": "uint256"
						}
					],
					"name": "tweetUnLiked",
					"type": "event"
				},
				{
					"inputs": [
						{
							"internalType": "uint256",
							"name": "_length",
							"type": "uint256"
						}
					],
					"name": "changeTweetLength",
					"outputs": [],
					"stateMutability": "nonpayable",
					"type": "function"
				},
				{
					"inputs": [
						{
							"internalType": "string",
							"name": "_tweet",
							"type": "string"
						}
					],
					"name": "createTweet",
					"outputs": [],
					"stateMutability": "nonpayable",
					"type": "function"
				},
				{
					"inputs": [],
					"name": "getAllTweet",
					"outputs": [
						{
							"components": [
								{
									"internalType": "uint256",
									"name": "id",
									"type": "uint256"
								},
								{
									"internalType": "address",
									"name": "auther",
									"type": "address"
								},
								{
									"internalType": "string",
									"name": "content",
									"type": "string"
								},
								{
									"internalType": "uint256",
									"name": "timestamp",
									"type": "uint256"
								},
								{
									"internalType": "uint256",
									"name": "likes",
									"type": "uint256"
								}
							],
							"internalType": "struct Twitter.Tweet[]",
							"name": "",
							"type": "tuple[]"
						}
					],
					"stateMutability": "view",
					"type": "function"
				},
				{
					"inputs": [
						{
							"internalType": "uint256",
							"name": "_i",
							"type": "uint256"
						}
					],
					"name": "getTweet",
					"outputs": [
						{
							"components": [
								{
									"internalType": "uint256",
									"name": "id",
									"type": "uint256"
								},
								{
									"internalType": "address",
									"name": "auther",
									"type": "address"
								},
								{
									"internalType": "string",
									"name": "content",
									"type": "string"
								},
								{
									"internalType": "uint256",
									"name": "timestamp",
									"type": "uint256"
								},
								{
									"internalType": "uint256",
									"name": "likes",
									"type": "uint256"
								}
							],
							"internalType": "struct Twitter.Tweet",
							"name": "",
							"type": "tuple"
						}
					],
					"stateMutability": "view",
					"type": "function"
				},
				{
					"inputs": [
						{
							"internalType": "address",
							"name": "auther",
							"type": "address"
						},
						{
							"internalType": "uint256",
							"name": "_id",
							"type": "uint256"
						}
					],
					"name": "likeTweet",
					"outputs": [],
					"stateMutability": "nonpayable",
					"type": "function"
				},
				{
					"inputs": [],
					"name": "owner",
					"outputs": [
						{
							"internalType": "address",
							"name": "",
							"type": "address"
						}
					],
					"stateMutability": "view",
					"type": "function"
				},
				{
					"inputs": [],
					"name": "renounceOwnership",
					"outputs": [],
					"stateMutability": "nonpayable",
					"type": "function"
				},
				{
					"inputs": [
						{
							"internalType": "address",
							"name": "newOwner",
							"type": "address"
						}
					],
					"name": "transferOwnership",
					"outputs": [],
					"stateMutability": "nonpayable",
					"type": "function"
				},
				{
					"inputs": [
						{
							"internalType": "address",
							"name": "",
							"type": "address"
						},
						{
							"internalType": "uint256",
							"name": "",
							"type": "uint256"
						}
					],
					"name": "tweets",
					"outputs": [
						{
							"internalType": "uint256",
							"name": "id",
							"type": "uint256"
						},
						{
							"internalType": "address",
							"name": "auther",
							"type": "address"
						},
						{
							"internalType": "string",
							"name": "content",
							"type": "string"
						},
						{
							"internalType": "uint256",
							"name": "timestamp",
							"type": "uint256"
						},
						{
							"internalType": "uint256",
							"name": "likes",
							"type": "uint256"
						}
					],
					"stateMutability": "view",
					"type": "function"
				},
				{
					"inputs": [
						{
							"internalType": "address",
							"name": "auther",
							"type": "address"
						},
						{
							"internalType": "uint256",
							"name": "_id",
							"type": "uint256"
						}
					],
					"name": "unLikeTweet",
					"outputs": [],
					"stateMutability": "nonpayable",
					"type": "function"
				}
			],
			"devdoc": {
				"errors": {
					"OwnableInvalidOwner(address)": [
						{
							"details": "The owner is not a valid owner account. (eg. `address(0)`)"
						}
					],
					"OwnableUnauthorizedAccount(address)": [
						{
							"details": "The caller account is not authorized to perform an operation."
						}
					]
				},
				"kind": "dev",
				"methods": {
					"owner()": {
						"details": "Returns the address of the current owner."
					},
					"renounceOwnership()": {
						"details": "Leaves the contract without owner. It will not be possible to call `onlyOwner` functions. Can only be called by the current owner. NOTE: Renouncing ownership will leave the contract without an owner, thereby disabling any functionality that is only available to the owner."
					},
					"transferOwnership(address)": {
						"details": "Transfers ownership of the contract to a new account (`newOwner`). Can only be called by the current owner."
					}
				},
				"version": 1
			},
			"evm": {
				"assembly": "    /* \"contracts/Twitter-Struct-inherit.sol\":111:2403  contract Twitter is Ownable {... */\n  mstore(0x40, 0x80)\n    /* \"contracts/Twitter-Struct-inherit.sol\":725:798  constructor() Ownable(msg.sender) {... */\n  callvalue\n  dup1\n  iszero\n  tag_1\n  jumpi\n  0x00\n  dup1\n  revert\ntag_1:\n  pop\n    /* \"contracts/Twitter-Struct-inherit.sol\":747:757  msg.sender */\n  caller\n    /* \"@openzeppelin/contracts/access/Ownable.sol\":1297:1298  0 */\n  0x00\n    /* \"@openzeppelin/contracts/access/Ownable.sol\":1273:1299  initialOwner == address(0) */\n  0xffffffffffffffffffffffffffffffffffffffff\n  and\n    /* \"@openzeppelin/contracts/access/Ownable.sol\":1273:1285  initialOwner */\n  dup2\n    /* \"@openzeppelin/contracts/access/Ownable.sol\":1273:1299  initialOwner == address(0) */\n  0xffffffffffffffffffffffffffffffffffffffff\n  and\n  sub\n    /* \"@openzeppelin/contracts/access/Ownable.sol\":1269:1364  if (initialOwner == address(0)) {... */\n  tag_5\n  jumpi\n    /* \"@openzeppelin/contracts/access/Ownable.sol\":1350:1351  0 */\n  0x00\n    /* \"@openzeppelin/contracts/access/Ownable.sol\":1322:1353  OwnableInvalidOwner(address(0)) */\n  mload(0x40)\n  0x1e4fbdf700000000000000000000000000000000000000000000000000000000\n  dup2\n  mstore\n  0x04\n  add\n  tag_6\n  swap2\n  swap1\n  tag_7\n  jump\t// in\ntag_6:\n  mload(0x40)\n  dup1\n  swap2\n  sub\n  swap1\n  revert\n    /* \"@openzeppelin/contracts/access/Ownable.sol\":1269:1364  if (initialOwner == address(0)) {... */\ntag_5:\n    /* \"@openzeppelin/contracts/access/Ownable.sol\":1373:1405  _transferOwnership(initialOwner) */\n  tag_8\n    /* \"@openzeppelin/contracts/access/Ownable.sol\":1392:1404  initialOwner */\n  dup2\n    /* \"@openzeppelin/contracts/access/Ownable.sol\":1373:1391  _transferOwnership */\n  shl(0x20, tag_9)\n    /* \"@openzeppelin/contracts/access/Ownable.sol\":1373:1405  _transferOwnership(initialOwner) */\n  0x20\n  shr\n  jump\t// in\ntag_8:\n    /* \"@openzeppelin/contracts/access/Ownable.sol\":1225:1412  constructor(address initialOwner) {... */\n  pop\n    /* \"contracts/Twitter-Struct-inherit.sol\":788:791  280 */\n  0x0118\n    /* \"contracts/Twitter-Struct-inherit.sol\":769:785  MAX_TWEET_LENGTH */\n  0x01\n    /* \"contracts/Twitter-Struct-inherit.sol\":769:791  MAX_TWEET_LENGTH = 280 */\n  dup2\n  swap1\n  sstore\n  pop\n    /* \"contracts/Twitter-Struct-inherit.sol\":111:2403  contract Twitter is Ownable {... */\n  jump(tag_11)\n    /* \"@openzeppelin/contracts/access/Ownable.sol\":2912:3099  function _transferOwnership(address newOwner) internal virtual {... */\ntag_9:\n    /* \"@openzeppelin/contracts/access/Ownable.sol\":2985:3001  address oldOwner */\n  0x00\n    /* \"@openzeppelin/contracts/access/Ownable.sol\":3004:3010  _owner */\n  dup1\n  0x00\n  swap1\n  sload\n  swap1\n  0x0100\n  exp\n  swap1\n  div\n  0xffffffffffffffffffffffffffffffffffffffff\n  and\n    /* \"@openzeppelin/contracts/access/Ownable.sol\":2985:3010  address oldOwner = _owner */\n  swap1\n  pop\n    /* \"@openzeppelin/contracts/access/Ownable.sol\":3029:3037  newOwner */\n  dup2\n    /* \"@openzeppelin/contracts/access/Ownable.sol\":3020:3026  _owner */\n  0x00\n  dup1\n    /* \"@openzeppelin/contracts/access/Ownable.sol\":3020:3037  _owner = newOwner */\n  0x0100\n  exp\n  dup2\n  sload\n  dup2\n  0xffffffffffffffffffffffffffffffffffffffff\n  mul\n  not\n  and\n  swap1\n  dup4\n  0xffffffffffffffffffffffffffffffffffffffff\n  and\n  mul\n  or\n  swap1\n  sstore\n  pop\n    /* \"@openzeppelin/contracts/access/Ownable.sol\":3083:3091  newOwner */\n  dup2\n    /* \"@openzeppelin/contracts/access/Ownable.sol\":3052:3092  OwnershipTransferred(oldOwner, newOwner) */\n  0xffffffffffffffffffffffffffffffffffffffff\n  and\n    /* \"@openzeppelin/contracts/access/Ownable.sol\":3073:3081  oldOwner */\n  dup2\n    /* \"@openzeppelin/contracts/access/Ownable.sol\":3052:3092  OwnershipTransferred(oldOwner, newOwner) */\n  0xffffffffffffffffffffffffffffffffffffffff\n  and\n  0x8be0079c531659141344cd1fd0a4f28419497f9722a3daafe3b4186f6b6457e0\n  mload(0x40)\n  mload(0x40)\n  dup1\n  swap2\n  sub\n  swap1\n  log3\n    /* \"@openzeppelin/contracts/access/Ownable.sol\":2975:3099  {... */\n  pop\n    /* \"@openzeppelin/contracts/access/Ownable.sol\":2912:3099  function _transferOwnership(address newOwner) internal virtual {... */\n  pop\n  jump\t// out\n    /* \"#utility.yul\":7:133   */\ntag_13:\n    /* \"#utility.yul\":44:51   */\n  0x00\n    /* \"#utility.yul\":84:126   */\n  0xffffffffffffffffffffffffffffffffffffffff\n    /* \"#utility.yul\":77:82   */\n  dup3\n    /* \"#utility.yul\":73:127   */\n  and\n    /* \"#utility.yul\":62:127   */\n  swap1\n  pop\n    /* \"#utility.yul\":7:133   */\n  swap2\n  swap1\n  pop\n  jump\t// out\n    /* \"#utility.yul\":139:235   */\ntag_14:\n    /* \"#utility.yul\":176:183   */\n  0x00\n    /* \"#utility.yul\":205:229   */\n  tag_19\n    /* \"#utility.yul\":223:228   */\n  dup3\n    /* \"#utility.yul\":205:229   */\n  tag_13\n  jump\t// in\ntag_19:\n    /* \"#utility.yul\":194:229   */\n  swap1\n  pop\n    /* \"#utility.yul\":139:235   */\n  swap2\n  swap1\n  pop\n  jump\t// out\n    /* \"#utility.yul\":241:359   */\ntag_15:\n    /* \"#utility.yul\":328:352   */\n  tag_21\n    /* \"#utility.yul\":346:351   */\n  dup2\n    /* \"#utility.yul\":328:352   */\n  tag_14\n  jump\t// in\ntag_21:\n    /* \"#utility.yul\":323:326   */\n  dup3\n    /* \"#utility.yul\":316:353   */\n  mstore\n    /* \"#utility.yul\":241:359   */\n  pop\n  pop\n  jump\t// out\n    /* \"#utility.yul\":365:587   */\ntag_7:\n    /* \"#utility.yul\":458:462   */\n  0x00\n    /* \"#utility.yul\":496:498   */\n  0x20\n    /* \"#utility.yul\":485:494   */\n  dup3\n    /* \"#utility.yul\":481:499   */\n  add\n    /* \"#utility.yul\":473:499   */\n  swap1\n  pop\n    /* \"#utility.yul\":509:580   */\n  tag_23\n    /* \"#utility.yul\":577:578   */\n  0x00\n    /* \"#utility.yul\":566:575   */\n  dup4\n    /* \"#utility.yul\":562:579   */\n  add\n    /* \"#utility.yul\":553:559   */\n  dup5\n    /* \"#utility.yul\":509:580   */\n  tag_15\n  jump\t// in\ntag_23:\n    /* \"#utility.yul\":365:587   */\n  swap3\n  swap2\n  pop\n  pop\n  jump\t// out\n    /* \"contracts/Twitter-Struct-inherit.sol\":111:2403  contract Twitter is Ownable {... */\ntag_11:\n  dataSize(sub_0)\n  dup1\n  dataOffset(sub_0)\n  0x00\n  codecopy\n  0x00\n  return\nstop\n\nsub_0: assembly {\n        /* \"contracts/Twitter-Struct-inherit.sol\":111:2403  contract Twitter is Ownable {... */\n      mstore(0x40, 0x80)\n      callvalue\n      dup1\n      iszero\n      tag_1\n      jumpi\n      0x00\n      dup1\n      revert\n    tag_1:\n      pop\n      jumpi(tag_2, lt(calldatasize, 0x04))\n      shr(0xe0, calldataload(0x00))\n      dup1\n      0x888a7880\n      gt\n      tag_13\n      jumpi\n      dup1\n      0x888a7880\n      eq\n      tag_8\n      jumpi\n      dup1\n      0x8da5cb5b\n      eq\n      tag_9\n      jumpi\n      dup1\n      0x9ef8633f\n      eq\n      tag_10\n      jumpi\n      dup1\n      0xc3ad5ecb\n      eq\n      tag_11\n      jumpi\n      dup1\n      0xf2fde38b\n      eq\n      tag_12\n      jumpi\n      jump(tag_2)\n    tag_13:\n      dup1\n      0x05a1b4a9\n      eq\n      tag_3\n      jumpi\n      dup1\n      0x63378216\n      eq\n      tag_4\n      jumpi\n      dup1\n      0x675e0fb7\n      eq\n      tag_5\n      jumpi\n      dup1\n      0x715018a6\n      eq\n      tag_6\n      jumpi\n      dup1\n      0x7c9cd2bc\n      eq\n      tag_7\n      jumpi\n    tag_2:\n      0x00\n      dup1\n      revert\n        /* \"contracts/Twitter-Struct-inherit.sol\":348:389  mapping(address => Tweet[]) public tweets */\n    tag_3:\n      tag_14\n      0x04\n      dup1\n      calldatasize\n      sub\n      dup2\n      add\n      swap1\n      tag_15\n      swap2\n      swap1\n      tag_16\n      jump\t// in\n    tag_15:\n      tag_17\n      jump\t// in\n    tag_14:\n      mload(0x40)\n      tag_18\n      swap6\n      swap5\n      swap4\n      swap3\n      swap2\n      swap1\n      tag_19\n      jump\t// in\n    tag_18:\n      mload(0x40)\n      dup1\n      swap2\n      sub\n      swap1\n      return\n        /* \"contracts/Twitter-Struct-inherit.sol\":1597:1847  function likeTweet(address auther, uint256 _id) external {... */\n    tag_4:\n      tag_20\n      0x04\n      dup1\n      calldatasize\n      sub\n      dup2\n      add\n      swap1\n      tag_21\n      swap2\n      swap1\n      tag_16\n      jump\t// in\n    tag_21:\n      tag_22\n      jump\t// in\n    tag_20:\n      stop\n        /* \"contracts/Twitter-Struct-inherit.sol\":2299:2401  function getAllTweet() public view returns (Tweet[] memory) {... */\n    tag_5:\n      tag_23\n      tag_24\n      jump\t// in\n    tag_23:\n      mload(0x40)\n      tag_25\n      swap2\n      swap1\n      tag_26\n      jump\t// in\n    tag_25:\n      mload(0x40)\n      dup1\n      swap2\n      sub\n      swap1\n      return\n        /* \"@openzeppelin/contracts/access/Ownable.sol\":2293:2394  function renounceOwnership() public virtual onlyOwner {... */\n    tag_6:\n      tag_27\n      tag_28\n      jump\t// in\n    tag_27:\n      stop\n        /* \"contracts/Twitter-Struct-inherit.sol\":914:1591  function createTweet(string memory _tweet) public {... */\n    tag_7:\n      tag_29\n      0x04\n      dup1\n      calldatasize\n      sub\n      dup2\n      add\n      swap1\n      tag_30\n      swap2\n      swap1\n      tag_31\n      jump\t// in\n    tag_30:\n      tag_32\n      jump\t// in\n    tag_29:\n      stop\n        /* \"contracts/Twitter-Struct-inherit.sol\":804:908  function changeTweetLength(uint256 _length) public onlyOwner {... */\n    tag_8:\n      tag_33\n      0x04\n      dup1\n      calldatasize\n      sub\n      dup2\n      add\n      swap1\n      tag_34\n      swap2\n      swap1\n      tag_35\n      jump\t// in\n    tag_34:\n      tag_36\n      jump\t// in\n    tag_33:\n      stop\n        /* \"@openzeppelin/contracts/access/Ownable.sol\":1638:1723  function owner() public view virtual returns (address) {... */\n    tag_9:\n      tag_37\n      tag_38\n      jump\t// in\n    tag_37:\n      mload(0x40)\n      tag_39\n      swap2\n      swap1\n      tag_40\n      jump\t// in\n    tag_39:\n      mload(0x40)\n      dup1\n      swap2\n      sub\n      swap1\n      return\n        /* \"contracts/Twitter-Struct-inherit.sol\":1853:2176  function unLikeTweet(address auther, uint256 _id) external {... */\n    tag_10:\n      tag_41\n      0x04\n      dup1\n      calldatasize\n      sub\n      dup2\n      add\n      swap1\n      tag_42\n      swap2\n      swap1\n      tag_16\n      jump\t// in\n    tag_42:\n      tag_43\n      jump\t// in\n    tag_41:\n      stop\n        /* \"contracts/Twitter-Struct-inherit.sol\":2182:2293  function getTweet(uint256 _i) public view returns (Tweet memory) {... */\n    tag_11:\n      tag_44\n      0x04\n      dup1\n      calldatasize\n      sub\n      dup2\n      add\n      swap1\n      tag_45\n      swap2\n      swap1\n      tag_35\n      jump\t// in\n    tag_45:\n      tag_46\n      jump\t// in\n    tag_44:\n      mload(0x40)\n      tag_47\n      swap2\n      swap1\n      tag_48\n      jump\t// in\n    tag_47:\n      mload(0x40)\n      dup1\n      swap2\n      sub\n      swap1\n      return\n        /* \"@openzeppelin/contracts/access/Ownable.sol\":2543:2758  function transferOwnership(address newOwner) public virtual onlyOwner {... */\n    tag_12:\n      tag_49\n      0x04\n      dup1\n      calldatasize\n      sub\n      dup2\n      add\n      swap1\n      tag_50\n      swap2\n      swap1\n      tag_51\n      jump\t// in\n    tag_50:\n      tag_52\n      jump\t// in\n    tag_49:\n      stop\n        /* \"contracts/Twitter-Struct-inherit.sol\":348:389  mapping(address => Tweet[]) public tweets */\n    tag_17:\n      mstore(0x20, 0x02)\n      dup2\n      0x00\n      mstore\n      keccak256(0x00, 0x40)\n      dup2\n      dup2\n      sload\n      dup2\n      lt\n      tag_53\n      jumpi\n      0x00\n      dup1\n      revert\n    tag_53:\n      swap1\n      0x00\n      mstore\n      keccak256(0x00, 0x20)\n      swap1\n      0x05\n      mul\n      add\n      0x00\n      swap2\n      pop\n      swap2\n      pop\n      pop\n      dup1\n      0x00\n      add\n      sload\n      swap1\n      dup1\n      0x01\n      add\n      0x00\n      swap1\n      sload\n      swap1\n      0x0100\n      exp\n      swap1\n      div\n      0xffffffffffffffffffffffffffffffffffffffff\n      and\n      swap1\n      dup1\n      0x02\n      add\n      dup1\n      sload\n      tag_55\n      swap1\n      tag_56\n      jump\t// in\n    tag_55:\n      dup1\n      0x1f\n      add\n      0x20\n      dup1\n      swap2\n      div\n      mul\n      0x20\n      add\n      mload(0x40)\n      swap1\n      dup2\n      add\n      0x40\n      mstore\n      dup1\n      swap3\n      swap2\n      swap1\n      dup2\n      dup2\n      mstore\n      0x20\n      add\n      dup3\n      dup1\n      sload\n      tag_57\n      swap1\n      tag_56\n      jump\t// in\n    tag_57:\n      dup1\n      iszero\n      tag_58\n      jumpi\n      dup1\n      0x1f\n      lt\n      tag_59\n      jumpi\n      0x0100\n      dup1\n      dup4\n      sload\n      div\n      mul\n      dup4\n      mstore\n      swap2\n      0x20\n      add\n      swap2\n      jump(tag_58)\n    tag_59:\n      dup3\n      add\n      swap2\n      swap1\n      0x00\n      mstore\n      keccak256(0x00, 0x20)\n      swap1\n    tag_60:\n      dup2\n      sload\n      dup2\n      mstore\n      swap1\n      0x01\n      add\n      swap1\n      0x20\n      add\n      dup1\n      dup4\n      gt\n      tag_60\n      jumpi\n      dup3\n      swap1\n      sub\n      0x1f\n      and\n      dup3\n      add\n      swap2\n    tag_58:\n      pop\n      pop\n      pop\n      pop\n      pop\n      swap1\n      dup1\n      0x03\n      add\n      sload\n      swap1\n      dup1\n      0x04\n      add\n      sload\n      swap1\n      pop\n      dup6\n      jump\t// out\n        /* \"contracts/Twitter-Struct-inherit.sol\":1597:1847  function likeTweet(address auther, uint256 _id) external {... */\n    tag_22:\n        /* \"contracts/Twitter-Struct-inherit.sol\":1698:1701  _id */\n      dup1\n        /* \"contracts/Twitter-Struct-inherit.sol\":1672:1678  tweets */\n      0x02\n        /* \"contracts/Twitter-Struct-inherit.sol\":1672:1686  tweets[auther] */\n      0x00\n        /* \"contracts/Twitter-Struct-inherit.sol\":1679:1685  auther */\n      dup5\n        /* \"contracts/Twitter-Struct-inherit.sol\":1672:1686  tweets[auther] */\n      0xffffffffffffffffffffffffffffffffffffffff\n      and\n      0xffffffffffffffffffffffffffffffffffffffff\n      and\n      dup2\n      mstore\n      0x20\n      add\n      swap1\n      dup2\n      mstore\n      0x20\n      add\n      0x00\n      keccak256\n        /* \"contracts/Twitter-Struct-inherit.sol\":1687:1690  _id */\n      dup3\n        /* \"contracts/Twitter-Struct-inherit.sol\":1672:1691  tweets[auther][_id] */\n      dup2\n      sload\n      dup2\n      lt\n      tag_62\n      jumpi\n      tag_63\n      tag_64\n      jump\t// in\n    tag_63:\n    tag_62:\n      swap1\n      0x00\n      mstore\n      keccak256(0x00, 0x20)\n      swap1\n      0x05\n      mul\n      add\n        /* \"contracts/Twitter-Struct-inherit.sol\":1672:1694  tweets[auther][_id].id */\n      0x00\n      add\n      sload\n        /* \"contracts/Twitter-Struct-inherit.sol\":1672:1701  tweets[auther][_id].id == _id */\n      eq\n        /* \"contracts/Twitter-Struct-inherit.sol\":1664:1726  require(tweets[auther][_id].id == _id, \"Tweet does not exist\") */\n      tag_66\n      jumpi\n      mload(0x40)\n      0x08c379a000000000000000000000000000000000000000000000000000000000\n      dup2\n      mstore\n      0x04\n      add\n      tag_67\n      swap1\n      tag_68\n      jump\t// in\n    tag_67:\n      mload(0x40)\n      dup1\n      swap2\n      sub\n      swap1\n      revert\n    tag_66:\n        /* \"contracts/Twitter-Struct-inherit.sol\":1736:1742  tweets */\n      0x02\n        /* \"contracts/Twitter-Struct-inherit.sol\":1736:1750  tweets[auther] */\n      0x00\n        /* \"contracts/Twitter-Struct-inherit.sol\":1743:1749  auther */\n      dup4\n        /* \"contracts/Twitter-Struct-inherit.sol\":1736:1750  tweets[auther] */\n      0xffffffffffffffffffffffffffffffffffffffff\n      and\n      0xffffffffffffffffffffffffffffffffffffffff\n      and\n      dup2\n      mstore\n      0x20\n      add\n      swap1\n      dup2\n      mstore\n      0x20\n      add\n      0x00\n      keccak256\n        /* \"contracts/Twitter-Struct-inherit.sol\":1751:1754  _id */\n      dup2\n        /* \"contracts/Twitter-Struct-inherit.sol\":1736:1755  tweets[auther][_id] */\n      dup2\n      sload\n      dup2\n      lt\n      tag_69\n      jumpi\n      tag_70\n      tag_64\n      jump\t// in\n    tag_70:\n    tag_69:\n      swap1\n      0x00\n      mstore\n      keccak256(0x00, 0x20)\n      swap1\n      0x05\n      mul\n      add\n        /* \"contracts/Twitter-Struct-inherit.sol\":1736:1761  tweets[auther][_id].likes */\n      0x04\n      add\n      0x00\n        /* \"contracts/Twitter-Struct-inherit.sol\":1736:1763  tweets[auther][_id].likes++ */\n      dup2\n      sload\n      dup1\n      swap3\n      swap2\n      swap1\n      tag_72\n      swap1\n      tag_73\n      jump\t// in\n    tag_72:\n      swap2\n      swap1\n      pop\n      sstore\n      pop\n        /* \"contracts/Twitter-Struct-inherit.sol\":1778:1840  tweetLiked(msg.sender, _id, auther, tweets[auther][_id].likes) */\n      0x5bd959f96efc2338d934ab72127be36035ff98de2f1584d2951239db17662d21\n        /* \"contracts/Twitter-Struct-inherit.sol\":1789:1799  msg.sender */\n      caller\n        /* \"contracts/Twitter-Struct-inherit.sol\":1801:1804  _id */\n      dup3\n        /* \"contracts/Twitter-Struct-inherit.sol\":1806:1812  auther */\n      dup5\n        /* \"contracts/Twitter-Struct-inherit.sol\":1814:1820  tweets */\n      0x02\n        /* \"contracts/Twitter-Struct-inherit.sol\":1814:1828  tweets[auther] */\n      0x00\n        /* \"contracts/Twitter-Struct-inherit.sol\":1821:1827  auther */\n      dup8\n        /* \"contracts/Twitter-Struct-inherit.sol\":1814:1828  tweets[auther] */\n      0xffffffffffffffffffffffffffffffffffffffff\n      and\n      0xffffffffffffffffffffffffffffffffffffffff\n      and\n      dup2\n      mstore\n      0x20\n      add\n      swap1\n      dup2\n      mstore\n      0x20\n      add\n      0x00\n      keccak256\n        /* \"contracts/Twitter-Struct-inherit.sol\":1829:1832  _id */\n      dup6\n        /* \"contracts/Twitter-Struct-inherit.sol\":1814:1833  tweets[auther][_id] */\n      dup2\n      sload\n      dup2\n      lt\n      tag_74\n      jumpi\n      tag_75\n      tag_64\n      jump\t// in\n    tag_75:\n    tag_74:\n      swap1\n      0x00\n      mstore\n      keccak256(0x00, 0x20)\n      swap1\n      0x05\n      mul\n      add\n        /* \"contracts/Twitter-Struct-inherit.sol\":1814:1839  tweets[auther][_id].likes */\n      0x04\n      add\n      sload\n        /* \"contracts/Twitter-Struct-inherit.sol\":1778:1840  tweetLiked(msg.sender, _id, auther, tweets[auther][_id].likes) */\n      mload(0x40)\n      tag_77\n      swap5\n      swap4\n      swap3\n      swap2\n      swap1\n      tag_78\n      jump\t// in\n    tag_77:\n      mload(0x40)\n      dup1\n      swap2\n      sub\n      swap1\n      log1\n        /* \"contracts/Twitter-Struct-inherit.sol\":1597:1847  function likeTweet(address auther, uint256 _id) external {... */\n      pop\n      pop\n      jump\t// out\n        /* \"contracts/Twitter-Struct-inherit.sol\":2299:2401  function getAllTweet() public view returns (Tweet[] memory) {... */\n    tag_24:\n        /* \"contracts/Twitter-Struct-inherit.sol\":2343:2357  Tweet[] memory */\n      0x60\n        /* \"contracts/Twitter-Struct-inherit.sol\":2376:2382  tweets */\n      0x02\n        /* \"contracts/Twitter-Struct-inherit.sol\":2376:2394  tweets[msg.sender] */\n      0x00\n        /* \"contracts/Twitter-Struct-inherit.sol\":2383:2393  msg.sender */\n      caller\n        /* \"contracts/Twitter-Struct-inherit.sol\":2376:2394  tweets[msg.sender] */\n      0xffffffffffffffffffffffffffffffffffffffff\n      and\n      0xffffffffffffffffffffffffffffffffffffffff\n      and\n      dup2\n      mstore\n      0x20\n      add\n      swap1\n      dup2\n      mstore\n      0x20\n      add\n      0x00\n      keccak256\n        /* \"contracts/Twitter-Struct-inherit.sol\":2369:2394  return tweets[msg.sender] */\n      dup1\n      sload\n      dup1\n      0x20\n      mul\n      0x20\n      add\n      mload(0x40)\n      swap1\n      dup2\n      add\n      0x40\n      mstore\n      dup1\n      swap3\n      swap2\n      swap1\n      dup2\n      dup2\n      mstore\n      0x20\n      add\n      0x00\n      swap1\n    tag_80:\n      dup3\n      dup3\n      lt\n      iszero\n      tag_81\n      jumpi\n      dup4\n      dup3\n      swap1\n      0x00\n      mstore\n      keccak256(0x00, 0x20)\n      swap1\n      0x05\n      mul\n      add\n      mload(0x40)\n      dup1\n      0xa0\n      add\n      0x40\n      mstore\n      swap1\n      dup2\n      0x00\n      dup3\n      add\n      sload\n      dup2\n      mstore\n      0x20\n      add\n      0x01\n      dup3\n      add\n      0x00\n      swap1\n      sload\n      swap1\n      0x0100\n      exp\n      swap1\n      div\n      0xffffffffffffffffffffffffffffffffffffffff\n      and\n      0xffffffffffffffffffffffffffffffffffffffff\n      and\n      0xffffffffffffffffffffffffffffffffffffffff\n      and\n      dup2\n      mstore\n      0x20\n      add\n      0x02\n      dup3\n      add\n      dup1\n      sload\n      tag_83\n      swap1\n      tag_56\n      jump\t// in\n    tag_83:\n      dup1\n      0x1f\n      add\n      0x20\n      dup1\n      swap2\n      div\n      mul\n      0x20\n      add\n      mload(0x40)\n      swap1\n      dup2\n      add\n      0x40\n      mstore\n      dup1\n      swap3\n      swap2\n      swap1\n      dup2\n      dup2\n      mstore\n      0x20\n      add\n      dup3\n      dup1\n      sload\n      tag_84\n      swap1\n      tag_56\n      jump\t// in\n    tag_84:\n      dup1\n      iszero\n      tag_85\n      jumpi\n      dup1\n      0x1f\n      lt\n      tag_86\n      jumpi\n      0x0100\n      dup1\n      dup4\n      sload\n      div\n      mul\n      dup4\n      mstore\n      swap2\n      0x20\n      add\n      swap2\n      jump(tag_85)\n    tag_86:\n      dup3\n      add\n      swap2\n      swap1\n      0x00\n      mstore\n      keccak256(0x00, 0x20)\n      swap1\n    tag_87:\n      dup2\n      sload\n      dup2\n      mstore\n      swap1\n      0x01\n      add\n      swap1\n      0x20\n      add\n      dup1\n      dup4\n      gt\n      tag_87\n      jumpi\n      dup3\n      swap1\n      sub\n      0x1f\n      and\n      dup3\n      add\n      swap2\n    tag_85:\n      pop\n      pop\n      pop\n      pop\n      pop\n      dup2\n      mstore\n      0x20\n      add\n      0x03\n      dup3\n      add\n      sload\n      dup2\n      mstore\n      0x20\n      add\n      0x04\n      dup3\n      add\n      sload\n      dup2\n      mstore\n      pop\n      pop\n      dup2\n      mstore\n      0x20\n      add\n      swap1\n      0x01\n      add\n      swap1\n      jump(tag_80)\n    tag_81:\n      pop\n      pop\n      pop\n      pop\n      swap1\n      pop\n        /* \"contracts/Twitter-Struct-inherit.sol\":2299:2401  function getAllTweet() public view returns (Tweet[] memory) {... */\n      swap1\n      jump\t// out\n        /* \"@openzeppelin/contracts/access/Ownable.sol\":2293:2394  function renounceOwnership() public virtual onlyOwner {... */\n    tag_28:\n        /* \"@openzeppelin/contracts/access/Ownable.sol\":1531:1544  _checkOwner() */\n      tag_89\n        /* \"@openzeppelin/contracts/access/Ownable.sol\":1531:1542  _checkOwner */\n      tag_90\n        /* \"@openzeppelin/contracts/access/Ownable.sol\":1531:1544  _checkOwner() */\n      jump\t// in\n    tag_89:\n        /* \"@openzeppelin/contracts/access/Ownable.sol\":2357:2387  _transferOwnership(address(0)) */\n      tag_92\n        /* \"@openzeppelin/contracts/access/Ownable.sol\":2384:2385  0 */\n      0x00\n        /* \"@openzeppelin/contracts/access/Ownable.sol\":2357:2375  _transferOwnership */\n      tag_93\n        /* \"@openzeppelin/contracts/access/Ownable.sol\":2357:2387  _transferOwnership(address(0)) */\n      jump\t// in\n    tag_92:\n        /* \"@openzeppelin/contracts/access/Ownable.sol\":2293:2394  function renounceOwnership() public virtual onlyOwner {... */\n      jump\t// out\n        /* \"contracts/Twitter-Struct-inherit.sol\":914:1591  function createTweet(string memory _tweet) public {... */\n    tag_32:\n        /* \"contracts/Twitter-Struct-inherit.sol\":1132:1148  MAX_TWEET_LENGTH */\n      sload(0x01)\n        /* \"contracts/Twitter-Struct-inherit.sol\":1114:1120  _tweet */\n      dup2\n        /* \"contracts/Twitter-Struct-inherit.sol\":1108:1128  bytes(_tweet).length */\n      mload\n        /* \"contracts/Twitter-Struct-inherit.sol\":1108:1148  bytes(_tweet).length <= MAX_TWEET_LENGTH */\n      gt\n      iszero\n        /* \"contracts/Twitter-Struct-inherit.sol\":1100:1170  require(bytes(_tweet).length <= MAX_TWEET_LENGTH, \"Tweet is too long\") */\n      tag_95\n      jumpi\n      mload(0x40)\n      0x08c379a000000000000000000000000000000000000000000000000000000000\n      dup2\n      mstore\n      0x04\n      add\n      tag_96\n      swap1\n      tag_97\n      jump\t// in\n    tag_96:\n      mload(0x40)\n      dup1\n      swap2\n      sub\n      swap1\n      revert\n    tag_95:\n        /* \"contracts/Twitter-Struct-inherit.sol\":1180:1201  Tweet memory newTweet */\n      0x00\n        /* \"contracts/Twitter-Struct-inherit.sol\":1204:1387  Tweet({... */\n      mload(0x40)\n      dup1\n      0xa0\n      add\n      0x40\n      mstore\n      dup1\n        /* \"contracts/Twitter-Struct-inherit.sol\":1228:1234  tweets */\n      0x02\n        /* \"contracts/Twitter-Struct-inherit.sol\":1228:1246  tweets[msg.sender] */\n      0x00\n        /* \"contracts/Twitter-Struct-inherit.sol\":1235:1245  msg.sender */\n      caller\n        /* \"contracts/Twitter-Struct-inherit.sol\":1228:1246  tweets[msg.sender] */\n      0xffffffffffffffffffffffffffffffffffffffff\n      and\n      0xffffffffffffffffffffffffffffffffffffffff\n      and\n      dup2\n      mstore\n      0x20\n      add\n      swap1\n      dup2\n      mstore\n      0x20\n      add\n      0x00\n      keccak256\n        /* \"contracts/Twitter-Struct-inherit.sol\":1228:1253  tweets[msg.sender].length */\n      dup1\n      sload\n      swap1\n      pop\n        /* \"contracts/Twitter-Struct-inherit.sol\":1204:1387  Tweet({... */\n      dup2\n      mstore\n      0x20\n      add\n        /* \"contracts/Twitter-Struct-inherit.sol\":1275:1285  msg.sender */\n      caller\n        /* \"contracts/Twitter-Struct-inherit.sol\":1204:1387  Tweet({... */\n      0xffffffffffffffffffffffffffffffffffffffff\n      and\n      dup2\n      mstore\n      0x20\n      add\n        /* \"contracts/Twitter-Struct-inherit.sol\":1308:1314  _tweet */\n      dup4\n        /* \"contracts/Twitter-Struct-inherit.sol\":1204:1387  Tweet({... */\n      dup2\n      mstore\n      0x20\n      add\n        /* \"contracts/Twitter-Struct-inherit.sol\":1339:1354  block.timestamp */\n      timestamp\n        /* \"contracts/Twitter-Struct-inherit.sol\":1204:1387  Tweet({... */\n      dup2\n      mstore\n      0x20\n      add\n        /* \"contracts/Twitter-Struct-inherit.sol\":1375:1376  0 */\n      0x00\n        /* \"contracts/Twitter-Struct-inherit.sol\":1204:1387  Tweet({... */\n      dup2\n      mstore\n      pop\n        /* \"contracts/Twitter-Struct-inherit.sol\":1180:1387  Tweet memory newTweet = Tweet({... */\n      swap1\n      pop\n        /* \"contracts/Twitter-Struct-inherit.sol\":1398:1404  tweets */\n      0x02\n        /* \"contracts/Twitter-Struct-inherit.sol\":1398:1416  tweets[msg.sender] */\n      0x00\n        /* \"contracts/Twitter-Struct-inherit.sol\":1405:1415  msg.sender */\n      caller\n        /* \"contracts/Twitter-Struct-inherit.sol\":1398:1416  tweets[msg.sender] */\n      0xffffffffffffffffffffffffffffffffffffffff\n      and\n      0xffffffffffffffffffffffffffffffffffffffff\n      and\n      dup2\n      mstore\n      0x20\n      add\n      swap1\n      dup2\n      mstore\n      0x20\n      add\n      0x00\n      keccak256\n        /* \"contracts/Twitter-Struct-inherit.sol\":1422:1430  newTweet */\n      dup2\n        /* \"contracts/Twitter-Struct-inherit.sol\":1398:1431  tweets[msg.sender].push(newTweet) */\n      swap1\n      dup1\n      0x01\n      dup2\n      sload\n      add\n      dup1\n      dup3\n      sstore\n      dup1\n      swap2\n      pop\n      pop\n      0x01\n      swap1\n      sub\n      swap1\n      0x00\n      mstore\n      keccak256(0x00, 0x20)\n      swap1\n      0x05\n      mul\n      add\n      0x00\n      swap1\n      swap2\n      swap1\n      swap2\n      swap1\n      swap2\n      pop\n      0x00\n      dup3\n      add\n      mload\n      dup2\n      0x00\n      add\n      sstore\n      0x20\n      dup3\n      add\n      mload\n      dup2\n      0x01\n      add\n      exp(0x0100, 0x00)\n      dup2\n      sload\n      dup2\n      0xffffffffffffffffffffffffffffffffffffffff\n      mul\n      not\n      and\n      swap1\n      dup4\n      0xffffffffffffffffffffffffffffffffffffffff\n      and\n      mul\n      or\n      swap1\n      sstore\n      pop\n      0x40\n      dup3\n      add\n      mload\n      dup2\n      0x02\n      add\n      swap1\n      dup2\n      tag_99\n      swap2\n      swap1\n      tag_100\n      jump\t// in\n    tag_99:\n      pop\n      0x60\n      dup3\n      add\n      mload\n      dup2\n      0x03\n      add\n      sstore\n      0x80\n      dup3\n      add\n      mload\n      dup2\n      0x04\n      add\n      sstore\n      pop\n      pop\n        /* \"contracts/Twitter-Struct-inherit.sol\":1446:1584  tweetCreated(... */\n      0x6e5546a74a8ef6731872256d3bbbf86208675b875b179abed63f4ed747a30cfb\n        /* \"contracts/Twitter-Struct-inherit.sol\":1472:1480  newTweet */\n      dup2\n        /* \"contracts/Twitter-Struct-inherit.sol\":1472:1483  newTweet.id */\n      0x00\n      add\n      mload\n        /* \"contracts/Twitter-Struct-inherit.sol\":1497:1505  newTweet */\n      dup3\n        /* \"contracts/Twitter-Struct-inherit.sol\":1497:1512  newTweet.auther */\n      0x20\n      add\n      mload\n        /* \"contracts/Twitter-Struct-inherit.sol\":1526:1534  newTweet */\n      dup4\n        /* \"contracts/Twitter-Struct-inherit.sol\":1526:1542  newTweet.content */\n      0x40\n      add\n      mload\n        /* \"contracts/Twitter-Struct-inherit.sol\":1556:1564  newTweet */\n      dup5\n        /* \"contracts/Twitter-Struct-inherit.sol\":1556:1574  newTweet.timestamp */\n      0x60\n      add\n      mload\n        /* \"contracts/Twitter-Struct-inherit.sol\":1446:1584  tweetCreated(... */\n      mload(0x40)\n      tag_101\n      swap5\n      swap4\n      swap3\n      swap2\n      swap1\n      tag_102\n      jump\t// in\n    tag_101:\n      mload(0x40)\n      dup1\n      swap2\n      sub\n      swap1\n      log1\n        /* \"contracts/Twitter-Struct-inherit.sol\":964:1591  {... */\n      pop\n        /* \"contracts/Twitter-Struct-inherit.sol\":914:1591  function createTweet(string memory _tweet) public {... */\n      pop\n      jump\t// out\n        /* \"contracts/Twitter-Struct-inherit.sol\":804:908  function changeTweetLength(uint256 _length) public onlyOwner {... */\n    tag_36:\n        /* \"@openzeppelin/contracts/access/Ownable.sol\":1531:1544  _checkOwner() */\n      tag_104\n        /* \"@openzeppelin/contracts/access/Ownable.sol\":1531:1542  _checkOwner */\n      tag_90\n        /* \"@openzeppelin/contracts/access/Ownable.sol\":1531:1544  _checkOwner() */\n      jump\t// in\n    tag_104:\n        /* \"contracts/Twitter-Struct-inherit.sol\":894:901  _length */\n      dup1\n        /* \"contracts/Twitter-Struct-inherit.sol\":875:891  MAX_TWEET_LENGTH */\n      0x01\n        /* \"contracts/Twitter-Struct-inherit.sol\":875:901  MAX_TWEET_LENGTH = _length */\n      dup2\n      swap1\n      sstore\n      pop\n        /* \"contracts/Twitter-Struct-inherit.sol\":804:908  function changeTweetLength(uint256 _length) public onlyOwner {... */\n      pop\n      jump\t// out\n        /* \"@openzeppelin/contracts/access/Ownable.sol\":1638:1723  function owner() public view virtual returns (address) {... */\n    tag_38:\n        /* \"@openzeppelin/contracts/access/Ownable.sol\":1684:1691  address */\n      0x00\n        /* \"@openzeppelin/contracts/access/Ownable.sol\":1710:1716  _owner */\n      dup1\n      0x00\n      swap1\n      sload\n      swap1\n      0x0100\n      exp\n      swap1\n      div\n      0xffffffffffffffffffffffffffffffffffffffff\n      and\n        /* \"@openzeppelin/contracts/access/Ownable.sol\":1703:1716  return _owner */\n      swap1\n      pop\n        /* \"@openzeppelin/contracts/access/Ownable.sol\":1638:1723  function owner() public view virtual returns (address) {... */\n      swap1\n      jump\t// out\n        /* \"contracts/Twitter-Struct-inherit.sol\":1853:2176  function unLikeTweet(address auther, uint256 _id) external {... */\n    tag_43:\n        /* \"contracts/Twitter-Struct-inherit.sol\":1956:1959  _id */\n      dup1\n        /* \"contracts/Twitter-Struct-inherit.sol\":1930:1936  tweets */\n      0x02\n        /* \"contracts/Twitter-Struct-inherit.sol\":1930:1944  tweets[auther] */\n      0x00\n        /* \"contracts/Twitter-Struct-inherit.sol\":1937:1943  auther */\n      dup5\n        /* \"contracts/Twitter-Struct-inherit.sol\":1930:1944  tweets[auther] */\n      0xffffffffffffffffffffffffffffffffffffffff\n      and\n      0xffffffffffffffffffffffffffffffffffffffff\n      and\n      dup2\n      mstore\n      0x20\n      add\n      swap1\n      dup2\n      mstore\n      0x20\n      add\n      0x00\n      keccak256\n        /* \"contracts/Twitter-Struct-inherit.sol\":1945:1948  _id */\n      dup3\n        /* \"contracts/Twitter-Struct-inherit.sol\":1930:1949  tweets[auther][_id] */\n      dup2\n      sload\n      dup2\n      lt\n      tag_108\n      jumpi\n      tag_109\n      tag_64\n      jump\t// in\n    tag_109:\n    tag_108:\n      swap1\n      0x00\n      mstore\n      keccak256(0x00, 0x20)\n      swap1\n      0x05\n      mul\n      add\n        /* \"contracts/Twitter-Struct-inherit.sol\":1930:1952  tweets[auther][_id].id */\n      0x00\n      add\n      sload\n        /* \"contracts/Twitter-Struct-inherit.sol\":1930:1959  tweets[auther][_id].id == _id */\n      eq\n        /* \"contracts/Twitter-Struct-inherit.sol\":1922:1984  require(tweets[auther][_id].id == _id, \"Tweet does not exist\") */\n      tag_111\n      jumpi\n      mload(0x40)\n      0x08c379a000000000000000000000000000000000000000000000000000000000\n      dup2\n      mstore\n      0x04\n      add\n      tag_112\n      swap1\n      tag_68\n      jump\t// in\n    tag_112:\n      mload(0x40)\n      dup1\n      swap2\n      sub\n      swap1\n      revert\n    tag_111:\n        /* \"contracts/Twitter-Struct-inherit.sol\":2030:2031  0 */\n      0x00\n        /* \"contracts/Twitter-Struct-inherit.sol\":2002:2008  tweets */\n      0x02\n        /* \"contracts/Twitter-Struct-inherit.sol\":2002:2016  tweets[auther] */\n      0x00\n        /* \"contracts/Twitter-Struct-inherit.sol\":2009:2015  auther */\n      dup5\n        /* \"contracts/Twitter-Struct-inherit.sol\":2002:2016  tweets[auther] */\n      0xffffffffffffffffffffffffffffffffffffffff\n      and\n      0xffffffffffffffffffffffffffffffffffffffff\n      and\n      dup2\n      mstore\n      0x20\n      add\n      swap1\n      dup2\n      mstore\n      0x20\n      add\n      0x00\n      keccak256\n        /* \"contracts/Twitter-Struct-inherit.sol\":2017:2020  _id */\n      dup3\n        /* \"contracts/Twitter-Struct-inherit.sol\":2002:2021  tweets[auther][_id] */\n      dup2\n      sload\n      dup2\n      lt\n      tag_113\n      jumpi\n      tag_114\n      tag_64\n      jump\t// in\n    tag_114:\n    tag_113:\n      swap1\n      0x00\n      mstore\n      keccak256(0x00, 0x20)\n      swap1\n      0x05\n      mul\n      add\n        /* \"contracts/Twitter-Struct-inherit.sol\":2002:2027  tweets[auther][_id].likes */\n      0x04\n      add\n      sload\n        /* \"contracts/Twitter-Struct-inherit.sol\":2002:2031  tweets[auther][_id].likes > 0 */\n      gt\n        /* \"contracts/Twitter-Struct-inherit.sol\":1994:2054  require(tweets[auther][_id].likes > 0, \"Tweet has no likes\") */\n      tag_116\n      jumpi\n      mload(0x40)\n      0x08c379a000000000000000000000000000000000000000000000000000000000\n      dup2\n      mstore\n      0x04\n      add\n      tag_117\n      swap1\n      tag_118\n      jump\t// in\n    tag_117:\n      mload(0x40)\n      dup1\n      swap2\n      sub\n      swap1\n      revert\n    tag_116:\n        /* \"contracts/Twitter-Struct-inherit.sol\":2065:2071  tweets */\n      0x02\n        /* \"contracts/Twitter-Struct-inherit.sol\":2065:2079  tweets[auther] */\n      0x00\n        /* \"contracts/Twitter-Struct-inherit.sol\":2072:2078  auther */\n      dup4\n        /* \"contracts/Twitter-Struct-inherit.sol\":2065:2079  tweets[auther] */\n      0xffffffffffffffffffffffffffffffffffffffff\n      and\n      0xffffffffffffffffffffffffffffffffffffffff\n      and\n      dup2\n      mstore\n      0x20\n      add\n      swap1\n      dup2\n      mstore\n      0x20\n      add\n      0x00\n      keccak256\n        /* \"contracts/Twitter-Struct-inherit.sol\":2080:2083  _id */\n      dup2\n        /* \"contracts/Twitter-Struct-inherit.sol\":2065:2084  tweets[auther][_id] */\n      dup2\n      sload\n      dup2\n      lt\n      tag_119\n      jumpi\n      tag_120\n      tag_64\n      jump\t// in\n    tag_120:\n    tag_119:\n      swap1\n      0x00\n      mstore\n      keccak256(0x00, 0x20)\n      swap1\n      0x05\n      mul\n      add\n        /* \"contracts/Twitter-Struct-inherit.sol\":2065:2090  tweets[auther][_id].likes */\n      0x04\n      add\n      0x00\n        /* \"contracts/Twitter-Struct-inherit.sol\":2065:2092  tweets[auther][_id].likes-- */\n      dup2\n      sload\n      dup1\n      swap3\n      swap2\n      swap1\n      tag_122\n      swap1\n      tag_123\n      jump\t// in\n    tag_122:\n      swap2\n      swap1\n      pop\n      sstore\n      pop\n        /* \"contracts/Twitter-Struct-inherit.sol\":2107:2169  tweetLiked(msg.sender, _id, auther, tweets[auther][_id].likes) */\n      0x5bd959f96efc2338d934ab72127be36035ff98de2f1584d2951239db17662d21\n        /* \"contracts/Twitter-Struct-inherit.sol\":2118:2128  msg.sender */\n      caller\n        /* \"contracts/Twitter-Struct-inherit.sol\":2130:2133  _id */\n      dup3\n        /* \"contracts/Twitter-Struct-inherit.sol\":2135:2141  auther */\n      dup5\n        /* \"contracts/Twitter-Struct-inherit.sol\":2143:2149  tweets */\n      0x02\n        /* \"contracts/Twitter-Struct-inherit.sol\":2143:2157  tweets[auther] */\n      0x00\n        /* \"contracts/Twitter-Struct-inherit.sol\":2150:2156  auther */\n      dup8\n        /* \"contracts/Twitter-Struct-inherit.sol\":2143:2157  tweets[auther] */\n      0xffffffffffffffffffffffffffffffffffffffff\n      and\n      0xffffffffffffffffffffffffffffffffffffffff\n      and\n      dup2\n      mstore\n      0x20\n      add\n      swap1\n      dup2\n      mstore\n      0x20\n      add\n      0x00\n      keccak256\n        /* \"contracts/Twitter-Struct-inherit.sol\":2158:2161  _id */\n      dup6\n        /* \"contracts/Twitter-Struct-inherit.sol\":2143:2162  tweets[auther][_id] */\n      dup2\n      sload\n      dup2\n      lt\n      tag_124\n      jumpi\n      tag_125\n      tag_64\n      jump\t// in\n    tag_125:\n    tag_124:\n      swap1\n      0x00\n      mstore\n      keccak256(0x00, 0x20)\n      swap1\n      0x05\n      mul\n      add\n        /* \"contracts/Twitter-Struct-inherit.sol\":2143:2168  tweets[auther][_id].likes */\n      0x04\n      add\n      sload\n        /* \"contracts/Twitter-Struct-inherit.sol\":2107:2169  tweetLiked(msg.sender, _id, auther, tweets[auther][_id].likes) */\n      mload(0x40)\n      tag_127\n      swap5\n      swap4\n      swap3\n      swap2\n      swap1\n      tag_78\n      jump\t// in\n    tag_127:\n      mload(0x40)\n      dup1\n      swap2\n      sub\n      swap1\n      log1\n        /* \"contracts/Twitter-Struct-inherit.sol\":1853:2176  function unLikeTweet(address auther, uint256 _id) external {... */\n      pop\n      pop\n      jump\t// out\n        /* \"contracts/Twitter-Struct-inherit.sol\":2182:2293  function getTweet(uint256 _i) public view returns (Tweet memory) {... */\n    tag_46:\n        /* \"contracts/Twitter-Struct-inherit.sol\":2233:2245  Tweet memory */\n      tag_128\n      tag_129\n      jump\t// in\n    tag_128:\n        /* \"contracts/Twitter-Struct-inherit.sol\":2264:2270  tweets */\n      0x02\n        /* \"contracts/Twitter-Struct-inherit.sol\":2264:2282  tweets[msg.sender] */\n      0x00\n        /* \"contracts/Twitter-Struct-inherit.sol\":2271:2281  msg.sender */\n      caller\n        /* \"contracts/Twitter-Struct-inherit.sol\":2264:2282  tweets[msg.sender] */\n      0xffffffffffffffffffffffffffffffffffffffff\n      and\n      0xffffffffffffffffffffffffffffffffffffffff\n      and\n      dup2\n      mstore\n      0x20\n      add\n      swap1\n      dup2\n      mstore\n      0x20\n      add\n      0x00\n      keccak256\n        /* \"contracts/Twitter-Struct-inherit.sol\":2283:2285  _i */\n      dup3\n        /* \"contracts/Twitter-Struct-inherit.sol\":2264:2286  tweets[msg.sender][_i] */\n      dup2\n      sload\n      dup2\n      lt\n      tag_131\n      jumpi\n      tag_132\n      tag_64\n      jump\t// in\n    tag_132:\n    tag_131:\n      swap1\n      0x00\n      mstore\n      keccak256(0x00, 0x20)\n      swap1\n      0x05\n      mul\n      add\n        /* \"contracts/Twitter-Struct-inherit.sol\":2257:2286  return tweets[msg.sender][_i] */\n      mload(0x40)\n      dup1\n      0xa0\n      add\n      0x40\n      mstore\n      swap1\n      dup2\n      0x00\n      dup3\n      add\n      sload\n      dup2\n      mstore\n      0x20\n      add\n      0x01\n      dup3\n      add\n      0x00\n      swap1\n      sload\n      swap1\n      0x0100\n      exp\n      swap1\n      div\n      0xffffffffffffffffffffffffffffffffffffffff\n      and\n      0xffffffffffffffffffffffffffffffffffffffff\n      and\n      0xffffffffffffffffffffffffffffffffffffffff\n      and\n      dup2\n      mstore\n      0x20\n      add\n      0x02\n      dup3\n      add\n      dup1\n      sload\n      tag_134\n      swap1\n      tag_56\n      jump\t// in\n    tag_134:\n      dup1\n      0x1f\n      add\n      0x20\n      dup1\n      swap2\n      div\n      mul\n      0x20\n      add\n      mload(0x40)\n      swap1\n      dup2\n      add\n      0x40\n      mstore\n      dup1\n      swap3\n      swap2\n      swap1\n      dup2\n      dup2\n      mstore\n      0x20\n      add\n      dup3\n      dup1\n      sload\n      tag_135\n      swap1\n      tag_56\n      jump\t// in\n    tag_135:\n      dup1\n      iszero\n      tag_136\n      jumpi\n      dup1\n      0x1f\n      lt\n      tag_137\n      jumpi\n      0x0100\n      dup1\n      dup4\n      sload\n      div\n      mul\n      dup4\n      mstore\n      swap2\n      0x20\n      add\n      swap2\n      jump(tag_136)\n    tag_137:\n      dup3\n      add\n      swap2\n      swap1\n      0x00\n      mstore\n      keccak256(0x00, 0x20)\n      swap1\n    tag_138:\n      dup2\n      sload\n      dup2\n      mstore\n      swap1\n      0x01\n      add\n      swap1\n      0x20\n      add\n      dup1\n      dup4\n      gt\n      tag_138\n      jumpi\n      dup3\n      swap1\n      sub\n      0x1f\n      and\n      dup3\n      add\n      swap2\n    tag_136:\n      pop\n      pop\n      pop\n      pop\n      pop\n      dup2\n      mstore\n      0x20\n      add\n      0x03\n      dup3\n      add\n      sload\n      dup2\n      mstore\n      0x20\n      add\n      0x04\n      dup3\n      add\n      sload\n      dup2\n      mstore\n      pop\n      pop\n      swap1\n      pop\n        /* \"contracts/Twitter-Struct-inherit.sol\":2182:2293  function getTweet(uint256 _i) public view returns (Tweet memory) {... */\n      swap2\n      swap1\n      pop\n      jump\t// out\n        /* \"@openzeppelin/contracts/access/Ownable.sol\":2543:2758  function transferOwnership(address newOwner) public virtual onlyOwner {... */\n    tag_52:\n        /* \"@openzeppelin/contracts/access/Ownable.sol\":1531:1544  _checkOwner() */\n      tag_140\n        /* \"@openzeppelin/contracts/access/Ownable.sol\":1531:1542  _checkOwner */\n      tag_90\n        /* \"@openzeppelin/contracts/access/Ownable.sol\":1531:1544  _checkOwner() */\n      jump\t// in\n    tag_140:\n        /* \"@openzeppelin/contracts/access/Ownable.sol\":2647:2648  0 */\n      0x00\n        /* \"@openzeppelin/contracts/access/Ownable.sol\":2627:2649  newOwner == address(0) */\n      0xffffffffffffffffffffffffffffffffffffffff\n      and\n        /* \"@openzeppelin/contracts/access/Ownable.sol\":2627:2635  newOwner */\n      dup2\n        /* \"@openzeppelin/contracts/access/Ownable.sol\":2627:2649  newOwner == address(0) */\n      0xffffffffffffffffffffffffffffffffffffffff\n      and\n      sub\n        /* \"@openzeppelin/contracts/access/Ownable.sol\":2623:2714  if (newOwner == address(0)) {... */\n      tag_142\n      jumpi\n        /* \"@openzeppelin/contracts/access/Ownable.sol\":2700:2701  0 */\n      0x00\n        /* \"@openzeppelin/contracts/access/Ownable.sol\":2672:2703  OwnableInvalidOwner(address(0)) */\n      mload(0x40)\n      0x1e4fbdf700000000000000000000000000000000000000000000000000000000\n      dup2\n      mstore\n      0x04\n      add\n      tag_143\n      swap2\n      swap1\n      tag_40\n      jump\t// in\n    tag_143:\n      mload(0x40)\n      dup1\n      swap2\n      sub\n      swap1\n      revert\n        /* \"@openzeppelin/contracts/access/Ownable.sol\":2623:2714  if (newOwner == address(0)) {... */\n    tag_142:\n        /* \"@openzeppelin/contracts/access/Ownable.sol\":2723:2751  _transferOwnership(newOwner) */\n      tag_144\n        /* \"@openzeppelin/contracts/access/Ownable.sol\":2742:2750  newOwner */\n      dup2\n        /* \"@openzeppelin/contracts/access/Ownable.sol\":2723:2741  _transferOwnership */\n      tag_93\n        /* \"@openzeppelin/contracts/access/Ownable.sol\":2723:2751  _transferOwnership(newOwner) */\n      jump\t// in\n    tag_144:\n        /* \"@openzeppelin/contracts/access/Ownable.sol\":2543:2758  function transferOwnership(address newOwner) public virtual onlyOwner {... */\n      pop\n      jump\t// out\n        /* \"@openzeppelin/contracts/access/Ownable.sol\":1796:1958  function _checkOwner() internal view virtual {... */\n    tag_90:\n        /* \"@openzeppelin/contracts/access/Ownable.sol\":1866:1878  _msgSender() */\n      tag_146\n        /* \"@openzeppelin/contracts/access/Ownable.sol\":1866:1876  _msgSender */\n      tag_147\n        /* \"@openzeppelin/contracts/access/Ownable.sol\":1866:1878  _msgSender() */\n      jump\t// in\n    tag_146:\n        /* \"@openzeppelin/contracts/access/Ownable.sol\":1855:1878  owner() != _msgSender() */\n      0xffffffffffffffffffffffffffffffffffffffff\n      and\n        /* \"@openzeppelin/contracts/access/Ownable.sol\":1855:1862  owner() */\n      tag_148\n        /* \"@openzeppelin/contracts/access/Ownable.sol\":1855:1860  owner */\n      tag_38\n        /* \"@openzeppelin/contracts/access/Ownable.sol\":1855:1862  owner() */\n      jump\t// in\n    tag_148:\n        /* \"@openzeppelin/contracts/access/Ownable.sol\":1855:1878  owner() != _msgSender() */\n      0xffffffffffffffffffffffffffffffffffffffff\n      and\n      eq\n        /* \"@openzeppelin/contracts/access/Ownable.sol\":1851:1952  if (owner() != _msgSender()) {... */\n      tag_149\n      jumpi\n        /* \"@openzeppelin/contracts/access/Ownable.sol\":1928:1940  _msgSender() */\n      tag_150\n        /* \"@openzeppelin/contracts/access/Ownable.sol\":1928:1938  _msgSender */\n      tag_147\n        /* \"@openzeppelin/contracts/access/Ownable.sol\":1928:1940  _msgSender() */\n      jump\t// in\n    tag_150:\n        /* \"@openzeppelin/contracts/access/Ownable.sol\":1901:1941  OwnableUnauthorizedAccount(_msgSender()) */\n      mload(0x40)\n      0x118cdaa700000000000000000000000000000000000000000000000000000000\n      dup2\n      mstore\n      0x04\n      add\n      tag_151\n      swap2\n      swap1\n      tag_40\n      jump\t// in\n    tag_151:\n      mload(0x40)\n      dup1\n      swap2\n      sub\n      swap1\n      revert\n        /* \"@openzeppelin/contracts/access/Ownable.sol\":1851:1952  if (owner() != _msgSender()) {... */\n    tag_149:\n        /* \"@openzeppelin/contracts/access/Ownable.sol\":1796:1958  function _checkOwner() internal view virtual {... */\n      jump\t// out\n        /* \"@openzeppelin/contracts/access/Ownable.sol\":2912:3099  function _transferOwnership(address newOwner) internal virtual {... */\n    tag_93:\n        /* \"@openzeppelin/contracts/access/Ownable.sol\":2985:3001  address oldOwner */\n      0x00\n        /* \"@openzeppelin/contracts/access/Ownable.sol\":3004:3010  _owner */\n      dup1\n      0x00\n      swap1\n      sload\n      swap1\n      0x0100\n      exp\n      swap1\n      div\n      0xffffffffffffffffffffffffffffffffffffffff\n      and\n        /* \"@openzeppelin/contracts/access/Ownable.sol\":2985:3010  address oldOwner = _owner */\n      swap1\n      pop\n        /* \"@openzeppelin/contracts/access/Ownable.sol\":3029:3037  newOwner */\n      dup2\n        /* \"@openzeppelin/contracts/access/Ownable.sol\":3020:3026  _owner */\n      0x00\n      dup1\n        /* \"@openzeppelin/contracts/access/Ownable.sol\":3020:3037  _owner = newOwner */\n      0x0100\n      exp\n      dup2\n      sload\n      dup2\n      0xffffffffffffffffffffffffffffffffffffffff\n      mul\n      not\n      and\n      swap1\n      dup4\n      0xffffffffffffffffffffffffffffffffffffffff\n      and\n      mul\n      or\n      swap1\n      sstore\n      pop\n        /* \"@openzeppelin/contracts/access/Ownable.sol\":3083:3091  newOwner */\n      dup2\n        /* \"@openzeppelin/contracts/access/Ownable.sol\":3052:3092  OwnershipTransferred(oldOwner, newOwner) */\n      0xffffffffffffffffffffffffffffffffffffffff\n      and\n        /* \"@openzeppelin/contracts/access/Ownable.sol\":3073:3081  oldOwner */\n      dup2\n        /* \"@openzeppelin/contracts/access/Ownable.sol\":3052:3092  OwnershipTransferred(oldOwner, newOwner) */\n      0xffffffffffffffffffffffffffffffffffffffff\n      and\n      0x8be0079c531659141344cd1fd0a4f28419497f9722a3daafe3b4186f6b6457e0\n      mload(0x40)\n      mload(0x40)\n      dup1\n      swap2\n      sub\n      swap1\n      log3\n        /* \"@openzeppelin/contracts/access/Ownable.sol\":2975:3099  {... */\n      pop\n        /* \"@openzeppelin/contracts/access/Ownable.sol\":2912:3099  function _transferOwnership(address newOwner) internal virtual {... */\n      pop\n      jump\t// out\n        /* \"@openzeppelin/contracts/utils/Context.sol\":656:752  function _msgSender() internal view virtual returns (address) {... */\n    tag_147:\n        /* \"@openzeppelin/contracts/utils/Context.sol\":709:716  address */\n      0x00\n        /* \"@openzeppelin/contracts/utils/Context.sol\":735:745  msg.sender */\n      caller\n        /* \"@openzeppelin/contracts/utils/Context.sol\":728:745  return msg.sender */\n      swap1\n      pop\n        /* \"@openzeppelin/contracts/utils/Context.sol\":656:752  function _msgSender() internal view virtual returns (address) {... */\n      swap1\n      jump\t// out\n    tag_129:\n      mload(0x40)\n      dup1\n      0xa0\n      add\n      0x40\n      mstore\n      dup1\n      0x00\n      dup2\n      mstore\n      0x20\n      add\n      and(0xffffffffffffffffffffffffffffffffffffffff, 0x00)\n      dup2\n      mstore\n      0x20\n      add\n      0x60\n      dup2\n      mstore\n      0x20\n      add\n      0x00\n      dup2\n      mstore\n      0x20\n      add\n      0x00\n      dup2\n      mstore\n      pop\n      swap1\n      jump\t// out\n        /* \"#utility.yul\":7:82   */\n    tag_154:\n        /* \"#utility.yul\":40:46   */\n      0x00\n        /* \"#utility.yul\":73:75   */\n      0x40\n        /* \"#utility.yul\":67:76   */\n      mload\n        /* \"#utility.yul\":57:76   */\n      swap1\n      pop\n        /* \"#utility.yul\":7:82   */\n      swap1\n      jump\t// out\n        /* \"#utility.yul\":88:205   */\n    tag_155:\n        /* \"#utility.yul\":197:198   */\n      0x00\n        /* \"#utility.yul\":194:195   */\n      dup1\n        /* \"#utility.yul\":187:199   */\n      revert\n        /* \"#utility.yul\":211:328   */\n    tag_156:\n        /* \"#utility.yul\":320:321   */\n      0x00\n        /* \"#utility.yul\":317:318   */\n      dup1\n        /* \"#utility.yul\":310:322   */\n      revert\n        /* \"#utility.yul\":334:460   */\n    tag_157:\n        /* \"#utility.yul\":371:378   */\n      0x00\n        /* \"#utility.yul\":411:453   */\n      0xffffffffffffffffffffffffffffffffffffffff\n        /* \"#utility.yul\":404:409   */\n      dup3\n        /* \"#utility.yul\":400:454   */\n      and\n        /* \"#utility.yul\":389:454   */\n      swap1\n      pop\n        /* \"#utility.yul\":334:460   */\n      swap2\n      swap1\n      pop\n      jump\t// out\n        /* \"#utility.yul\":466:562   */\n    tag_158:\n        /* \"#utility.yul\":503:510   */\n      0x00\n        /* \"#utility.yul\":532:556   */\n      tag_221\n        /* \"#utility.yul\":550:555   */\n      dup3\n        /* \"#utility.yul\":532:556   */\n      tag_157\n      jump\t// in\n    tag_221:\n        /* \"#utility.yul\":521:556   */\n      swap1\n      pop\n        /* \"#utility.yul\":466:562   */\n      swap2\n      swap1\n      pop\n      jump\t// out\n        /* \"#utility.yul\":568:690   */\n    tag_159:\n        /* \"#utility.yul\":641:665   */\n      tag_223\n        /* \"#utility.yul\":659:664   */\n      dup2\n        /* \"#utility.yul\":641:665   */\n      tag_158\n      jump\t// in\n    tag_223:\n        /* \"#utility.yul\":634:639   */\n      dup2\n        /* \"#utility.yul\":631:666   */\n      eq\n        /* \"#utility.yul\":621:684   */\n      tag_224\n      jumpi\n        /* \"#utility.yul\":680:681   */\n      0x00\n        /* \"#utility.yul\":677:678   */\n      dup1\n        /* \"#utility.yul\":670:682   */\n      revert\n        /* \"#utility.yul\":621:684   */\n    tag_224:\n        /* \"#utility.yul\":568:690   */\n      pop\n      jump\t// out\n        /* \"#utility.yul\":696:835   */\n    tag_160:\n        /* \"#utility.yul\":742:747   */\n      0x00\n        /* \"#utility.yul\":780:786   */\n      dup2\n        /* \"#utility.yul\":767:787   */\n      calldataload\n        /* \"#utility.yul\":758:787   */\n      swap1\n      pop\n        /* \"#utility.yul\":796:829   */\n      tag_226\n        /* \"#utility.yul\":823:828   */\n      dup2\n        /* \"#utility.yul\":796:829   */\n      tag_159\n      jump\t// in\n    tag_226:\n        /* \"#utility.yul\":696:835   */\n      swap3\n      swap2\n      pop\n      pop\n      jump\t// out\n        /* \"#utility.yul\":841:918   */\n    tag_161:\n        /* \"#utility.yul\":878:885   */\n      0x00\n        /* \"#utility.yul\":907:912   */\n      dup2\n        /* \"#utility.yul\":896:912   */\n      swap1\n      pop\n        /* \"#utility.yul\":841:918   */\n      swap2\n      swap1\n      pop\n      jump\t// out\n        /* \"#utility.yul\":924:1046   */\n    tag_162:\n        /* \"#utility.yul\":997:1021   */\n      tag_229\n        /* \"#utility.yul\":1015:1020   */\n      dup2\n        /* \"#utility.yul\":997:1021   */\n      tag_161\n      jump\t// in\n    tag_229:\n        /* \"#utility.yul\":990:995   */\n      dup2\n        /* \"#utility.yul\":987:1022   */\n      eq\n        /* \"#utility.yul\":977:1040   */\n      tag_230\n      jumpi\n        /* \"#utility.yul\":1036:1037   */\n      0x00\n        /* \"#utility.yul\":1033:1034   */\n      dup1\n        /* \"#utility.yul\":1026:1038   */\n      revert\n        /* \"#utility.yul\":977:1040   */\n    tag_230:\n        /* \"#utility.yul\":924:1046   */\n      pop\n      jump\t// out\n        /* \"#utility.yul\":1052:1191   */\n    tag_163:\n        /* \"#utility.yul\":1098:1103   */\n      0x00\n        /* \"#utility.yul\":1136:1142   */\n      dup2\n        /* \"#utility.yul\":1123:1143   */\n      calldataload\n        /* \"#utility.yul\":1114:1143   */\n      swap1\n      pop\n        /* \"#utility.yul\":1152:1185   */\n      tag_232\n        /* \"#utility.yul\":1179:1184   */\n      dup2\n        /* \"#utility.yul\":1152:1185   */\n      tag_162\n      jump\t// in\n    tag_232:\n        /* \"#utility.yul\":1052:1191   */\n      swap3\n      swap2\n      pop\n      pop\n      jump\t// out\n        /* \"#utility.yul\":1197:1671   */\n    tag_16:\n        /* \"#utility.yul\":1265:1271   */\n      0x00\n        /* \"#utility.yul\":1273:1279   */\n      dup1\n        /* \"#utility.yul\":1322:1324   */\n      0x40\n        /* \"#utility.yul\":1310:1319   */\n      dup4\n        /* \"#utility.yul\":1301:1308   */\n      dup6\n        /* \"#utility.yul\":1297:1320   */\n      sub\n        /* \"#utility.yul\":1293:1325   */\n      slt\n        /* \"#utility.yul\":1290:1409   */\n      iszero\n      tag_234\n      jumpi\n        /* \"#utility.yul\":1328:1407   */\n      tag_235\n      tag_155\n      jump\t// in\n    tag_235:\n        /* \"#utility.yul\":1290:1409   */\n    tag_234:\n        /* \"#utility.yul\":1448:1449   */\n      0x00\n        /* \"#utility.yul\":1473:1526   */\n      tag_236\n        /* \"#utility.yul\":1518:1525   */\n      dup6\n        /* \"#utility.yul\":1509:1515   */\n      dup3\n        /* \"#utility.yul\":1498:1507   */\n      dup7\n        /* \"#utility.yul\":1494:1516   */\n      add\n        /* \"#utility.yul\":1473:1526   */\n      tag_160\n      jump\t// in\n    tag_236:\n        /* \"#utility.yul\":1463:1526   */\n      swap3\n      pop\n        /* \"#utility.yul\":1419:1536   */\n      pop\n        /* \"#utility.yul\":1575:1577   */\n      0x20\n        /* \"#utility.yul\":1601:1654   */\n      tag_237\n        /* \"#utility.yul\":1646:1653   */\n      dup6\n        /* \"#utility.yul\":1637:1643   */\n      dup3\n        /* \"#utility.yul\":1626:1635   */\n      dup7\n        /* \"#utility.yul\":1622:1644   */\n      add\n        /* \"#utility.yul\":1601:1654   */\n      tag_163\n      jump\t// in\n    tag_237:\n        /* \"#utility.yul\":1591:1654   */\n      swap2\n      pop\n        /* \"#utility.yul\":1546:1664   */\n      pop\n        /* \"#utility.yul\":1197:1671   */\n      swap3\n      pop\n      swap3\n      swap1\n      pop\n      jump\t// out\n        /* \"#utility.yul\":1677:1795   */\n    tag_164:\n        /* \"#utility.yul\":1764:1788   */\n      tag_239\n        /* \"#utility.yul\":1782:1787   */\n      dup2\n        /* \"#utility.yul\":1764:1788   */\n      tag_161\n      jump\t// in\n    tag_239:\n        /* \"#utility.yul\":1759:1762   */\n      dup3\n        /* \"#utility.yul\":1752:1789   */\n      mstore\n        /* \"#utility.yul\":1677:1795   */\n      pop\n      pop\n      jump\t// out\n        /* \"#utility.yul\":1801:1919   */\n    tag_165:\n        /* \"#utility.yul\":1888:1912   */\n      tag_241\n        /* \"#utility.yul\":1906:1911   */\n      dup2\n        /* \"#utility.yul\":1888:1912   */\n      tag_158\n      jump\t// in\n    tag_241:\n        /* \"#utility.yul\":1883:1886   */\n      dup3\n        /* \"#utility.yul\":1876:1913   */\n      mstore\n        /* \"#utility.yul\":1801:1919   */\n      pop\n      pop\n      jump\t// out\n        /* \"#utility.yul\":1925:2024   */\n    tag_166:\n        /* \"#utility.yul\":1977:1983   */\n      0x00\n        /* \"#utility.yul\":2011:2016   */\n      dup2\n        /* \"#utility.yul\":2005:2017   */\n      mload\n        /* \"#utility.yul\":1995:2017   */\n      swap1\n      pop\n        /* \"#utility.yul\":1925:2024   */\n      swap2\n      swap1\n      pop\n      jump\t// out\n        /* \"#utility.yul\":2030:2199   */\n    tag_167:\n        /* \"#utility.yul\":2114:2125   */\n      0x00\n        /* \"#utility.yul\":2148:2154   */\n      dup3\n        /* \"#utility.yul\":2143:2146   */\n      dup3\n        /* \"#utility.yul\":2136:2155   */\n      mstore\n        /* \"#utility.yul\":2188:2192   */\n      0x20\n        /* \"#utility.yul\":2183:2186   */\n      dup3\n        /* \"#utility.yul\":2179:2193   */\n      add\n        /* \"#utility.yul\":2164:2193   */\n      swap1\n      pop\n        /* \"#utility.yul\":2030:2199   */\n      swap3\n      swap2\n      pop\n      pop\n      jump\t// out\n        /* \"#utility.yul\":2205:2344   */\n    tag_168:\n        /* \"#utility.yul\":2294:2300   */\n      dup3\n        /* \"#utility.yul\":2289:2292   */\n      dup2\n        /* \"#utility.yul\":2284:2287   */\n      dup4\n        /* \"#utility.yul\":2278:2301   */\n      mcopy\n        /* \"#utility.yul\":2335:2336   */\n      0x00\n        /* \"#utility.yul\":2326:2332   */\n      dup4\n        /* \"#utility.yul\":2321:2324   */\n      dup4\n        /* \"#utility.yul\":2317:2333   */\n      add\n        /* \"#utility.yul\":2310:2337   */\n      mstore\n        /* \"#utility.yul\":2205:2344   */\n      pop\n      pop\n      pop\n      jump\t// out\n        /* \"#utility.yul\":2350:2452   */\n    tag_169:\n        /* \"#utility.yul\":2391:2397   */\n      0x00\n        /* \"#utility.yul\":2442:2444   */\n      0x1f\n        /* \"#utility.yul\":2438:2445   */\n      not\n        /* \"#utility.yul\":2433:2435   */\n      0x1f\n        /* \"#utility.yul\":2426:2431   */\n      dup4\n        /* \"#utility.yul\":2422:2436   */\n      add\n        /* \"#utility.yul\":2418:2446   */\n      and\n        /* \"#utility.yul\":2408:2446   */\n      swap1\n      pop\n        /* \"#utility.yul\":2350:2452   */\n      swap2\n      swap1\n      pop\n      jump\t// out\n        /* \"#utility.yul\":2458:2835   */\n    tag_170:\n        /* \"#utility.yul\":2546:2549   */\n      0x00\n        /* \"#utility.yul\":2574:2613   */\n      tag_247\n        /* \"#utility.yul\":2607:2612   */\n      dup3\n        /* \"#utility.yul\":2574:2613   */\n      tag_166\n      jump\t// in\n    tag_247:\n        /* \"#utility.yul\":2629:2700   */\n      tag_248\n        /* \"#utility.yul\":2693:2699   */\n      dup2\n        /* \"#utility.yul\":2688:2691   */\n      dup6\n        /* \"#utility.yul\":2629:2700   */\n      tag_167\n      jump\t// in\n    tag_248:\n        /* \"#utility.yul\":2622:2700   */\n      swap4\n      pop\n        /* \"#utility.yul\":2709:2774   */\n      tag_249\n        /* \"#utility.yul\":2767:2773   */\n      dup2\n        /* \"#utility.yul\":2762:2765   */\n      dup6\n        /* \"#utility.yul\":2755:2759   */\n      0x20\n        /* \"#utility.yul\":2748:2753   */\n      dup7\n        /* \"#utility.yul\":2744:2760   */\n      add\n        /* \"#utility.yul\":2709:2774   */\n      tag_168\n      jump\t// in\n    tag_249:\n        /* \"#utility.yul\":2799:2828   */\n      tag_250\n        /* \"#utility.yul\":2821:2827   */\n      dup2\n        /* \"#utility.yul\":2799:2828   */\n      tag_169\n      jump\t// in\n    tag_250:\n        /* \"#utility.yul\":2794:2797   */\n      dup5\n        /* \"#utility.yul\":2790:2829   */\n      add\n        /* \"#utility.yul\":2783:2829   */\n      swap2\n      pop\n        /* \"#utility.yul\":2550:2835   */\n      pop\n        /* \"#utility.yul\":2458:2835   */\n      swap3\n      swap2\n      pop\n      pop\n      jump\t// out\n        /* \"#utility.yul\":2841:3596   */\n    tag_19:\n        /* \"#utility.yul\":3066:3070   */\n      0x00\n        /* \"#utility.yul\":3104:3107   */\n      0xa0\n        /* \"#utility.yul\":3093:3102   */\n      dup3\n        /* \"#utility.yul\":3089:3108   */\n      add\n        /* \"#utility.yul\":3081:3108   */\n      swap1\n      pop\n        /* \"#utility.yul\":3118:3189   */\n      tag_252\n        /* \"#utility.yul\":3186:3187   */\n      0x00\n        /* \"#utility.yul\":3175:3184   */\n      dup4\n        /* \"#utility.yul\":3171:3188   */\n      add\n        /* \"#utility.yul\":3162:3168   */\n      dup9\n        /* \"#utility.yul\":3118:3189   */\n      tag_164\n      jump\t// in\n    tag_252:\n        /* \"#utility.yul\":3199:3271   */\n      tag_253\n        /* \"#utility.yul\":3267:3269   */\n      0x20\n        /* \"#utility.yul\":3256:3265   */\n      dup4\n        /* \"#utility.yul\":3252:3270   */\n      add\n        /* \"#utility.yul\":3243:3249   */\n      dup8\n        /* \"#utility.yul\":3199:3271   */\n      tag_165\n      jump\t// in\n    tag_253:\n        /* \"#utility.yul\":3318:3327   */\n      dup2\n        /* \"#utility.yul\":3312:3316   */\n      dup2\n        /* \"#utility.yul\":3308:3328   */\n      sub\n        /* \"#utility.yul\":3303:3305   */\n      0x40\n        /* \"#utility.yul\":3292:3301   */\n      dup4\n        /* \"#utility.yul\":3288:3306   */\n      add\n        /* \"#utility.yul\":3281:3329   */\n      mstore\n        /* \"#utility.yul\":3346:3424   */\n      tag_254\n        /* \"#utility.yul\":3419:3423   */\n      dup2\n        /* \"#utility.yul\":3410:3416   */\n      dup7\n        /* \"#utility.yul\":3346:3424   */\n      tag_170\n      jump\t// in\n    tag_254:\n        /* \"#utility.yul\":3338:3424   */\n      swap1\n      pop\n        /* \"#utility.yul\":3434:3506   */\n      tag_255\n        /* \"#utility.yul\":3502:3504   */\n      0x60\n        /* \"#utility.yul\":3491:3500   */\n      dup4\n        /* \"#utility.yul\":3487:3505   */\n      add\n        /* \"#utility.yul\":3478:3484   */\n      dup6\n        /* \"#utility.yul\":3434:3506   */\n      tag_164\n      jump\t// in\n    tag_255:\n        /* \"#utility.yul\":3516:3589   */\n      tag_256\n        /* \"#utility.yul\":3584:3587   */\n      0x80\n        /* \"#utility.yul\":3573:3582   */\n      dup4\n        /* \"#utility.yul\":3569:3588   */\n      add\n        /* \"#utility.yul\":3560:3566   */\n      dup5\n        /* \"#utility.yul\":3516:3589   */\n      tag_164\n      jump\t// in\n    tag_256:\n        /* \"#utility.yul\":2841:3596   */\n      swap7\n      swap6\n      pop\n      pop\n      pop\n      pop\n      pop\n      pop\n      jump\t// out\n        /* \"#utility.yul\":3602:3738   */\n    tag_171:\n        /* \"#utility.yul\":3691:3697   */\n      0x00\n        /* \"#utility.yul\":3725:3730   */\n      dup2\n        /* \"#utility.yul\":3719:3731   */\n      mload\n        /* \"#utility.yul\":3709:3731   */\n      swap1\n      pop\n        /* \"#utility.yul\":3602:3738   */\n      swap2\n      swap1\n      pop\n      jump\t// out\n        /* \"#utility.yul\":3744:3950   */\n    tag_172:\n        /* \"#utility.yul\":3865:3876   */\n      0x00\n        /* \"#utility.yul\":3899:3905   */\n      dup3\n        /* \"#utility.yul\":3894:3897   */\n      dup3\n        /* \"#utility.yul\":3887:3906   */\n      mstore\n        /* \"#utility.yul\":3939:3943   */\n      0x20\n        /* \"#utility.yul\":3934:3937   */\n      dup3\n        /* \"#utility.yul\":3930:3944   */\n      add\n        /* \"#utility.yul\":3915:3944   */\n      swap1\n      pop\n        /* \"#utility.yul\":3744:3950   */\n      swap3\n      swap2\n      pop\n      pop\n      jump\t// out\n        /* \"#utility.yul\":3956:4110   */\n    tag_173:\n        /* \"#utility.yul\":4045:4049   */\n      0x00\n        /* \"#utility.yul\":4068:4071   */\n      dup2\n        /* \"#utility.yul\":4060:4071   */\n      swap1\n      pop\n        /* \"#utility.yul\":4098:4102   */\n      0x20\n        /* \"#utility.yul\":4093:4096   */\n      dup3\n        /* \"#utility.yul\":4089:4103   */\n      add\n        /* \"#utility.yul\":4081:4103   */\n      swap1\n      pop\n        /* \"#utility.yul\":3956:4110   */\n      swap2\n      swap1\n      pop\n      jump\t// out\n        /* \"#utility.yul\":4116:4224   */\n    tag_174:\n        /* \"#utility.yul\":4193:4217   */\n      tag_261\n        /* \"#utility.yul\":4211:4216   */\n      dup2\n        /* \"#utility.yul\":4193:4217   */\n      tag_161\n      jump\t// in\n    tag_261:\n        /* \"#utility.yul\":4188:4191   */\n      dup3\n        /* \"#utility.yul\":4181:4218   */\n      mstore\n        /* \"#utility.yul\":4116:4224   */\n      pop\n      pop\n      jump\t// out\n        /* \"#utility.yul\":4230:4338   */\n    tag_175:\n        /* \"#utility.yul\":4307:4331   */\n      tag_263\n        /* \"#utility.yul\":4325:4330   */\n      dup2\n        /* \"#utility.yul\":4307:4331   */\n      tag_158\n      jump\t// in\n    tag_263:\n        /* \"#utility.yul\":4302:4305   */\n      dup3\n        /* \"#utility.yul\":4295:4332   */\n      mstore\n        /* \"#utility.yul\":4230:4338   */\n      pop\n      pop\n      jump\t// out\n        /* \"#utility.yul\":4344:4503   */\n    tag_176:\n        /* \"#utility.yul\":4418:4429   */\n      0x00\n        /* \"#utility.yul\":4452:4458   */\n      dup3\n        /* \"#utility.yul\":4447:4450   */\n      dup3\n        /* \"#utility.yul\":4440:4459   */\n      mstore\n        /* \"#utility.yul\":4492:4496   */\n      0x20\n        /* \"#utility.yul\":4487:4490   */\n      dup3\n        /* \"#utility.yul\":4483:4497   */\n      add\n        /* \"#utility.yul\":4468:4497   */\n      swap1\n      pop\n        /* \"#utility.yul\":4344:4503   */\n      swap3\n      swap2\n      pop\n      pop\n      jump\t// out\n        /* \"#utility.yul\":4509:4866   */\n    tag_177:\n        /* \"#utility.yul\":4587:4590   */\n      0x00\n        /* \"#utility.yul\":4615:4654   */\n      tag_266\n        /* \"#utility.yul\":4648:4653   */\n      dup3\n        /* \"#utility.yul\":4615:4654   */\n      tag_166\n      jump\t// in\n    tag_266:\n        /* \"#utility.yul\":4670:4731   */\n      tag_267\n        /* \"#utility.yul\":4724:4730   */\n      dup2\n        /* \"#utility.yul\":4719:4722   */\n      dup6\n        /* \"#utility.yul\":4670:4731   */\n      tag_176\n      jump\t// in\n    tag_267:\n        /* \"#utility.yul\":4663:4731   */\n      swap4\n      pop\n        /* \"#utility.yul\":4740:4805   */\n      tag_268\n        /* \"#utility.yul\":4798:4804   */\n      dup2\n        /* \"#utility.yul\":4793:4796   */\n      dup6\n        /* \"#utility.yul\":4786:4790   */\n      0x20\n        /* \"#utility.yul\":4779:4784   */\n      dup7\n        /* \"#utility.yul\":4775:4791   */\n      add\n        /* \"#utility.yul\":4740:4805   */\n      tag_168\n      jump\t// in\n    tag_268:\n        /* \"#utility.yul\":4830:4859   */\n      tag_269\n        /* \"#utility.yul\":4852:4858   */\n      dup2\n        /* \"#utility.yul\":4830:4859   */\n      tag_169\n      jump\t// in\n    tag_269:\n        /* \"#utility.yul\":4825:4828   */\n      dup5\n        /* \"#utility.yul\":4821:4860   */\n      add\n        /* \"#utility.yul\":4814:4860   */\n      swap2\n      pop\n        /* \"#utility.yul\":4591:4866   */\n      pop\n        /* \"#utility.yul\":4509:4866   */\n      swap3\n      swap2\n      pop\n      pop\n      jump\t// out\n        /* \"#utility.yul\":4924:6045   */\n    tag_178:\n        /* \"#utility.yul\":5027:5030   */\n      0x00\n        /* \"#utility.yul\":5063:5067   */\n      0xa0\n        /* \"#utility.yul\":5058:5061   */\n      dup4\n        /* \"#utility.yul\":5054:5068   */\n      add\n        /* \"#utility.yul\":5148:5152   */\n      0x00\n        /* \"#utility.yul\":5141:5146   */\n      dup4\n        /* \"#utility.yul\":5137:5153   */\n      add\n        /* \"#utility.yul\":5131:5154   */\n      mload\n        /* \"#utility.yul\":5167:5230   */\n      tag_271\n        /* \"#utility.yul\":5224:5228   */\n      0x00\n        /* \"#utility.yul\":5219:5222   */\n      dup7\n        /* \"#utility.yul\":5215:5229   */\n      add\n        /* \"#utility.yul\":5201:5213   */\n      dup3\n        /* \"#utility.yul\":5167:5230   */\n      tag_174\n      jump\t// in\n    tag_271:\n        /* \"#utility.yul\":5078:5240   */\n      pop\n        /* \"#utility.yul\":5324:5328   */\n      0x20\n        /* \"#utility.yul\":5317:5322   */\n      dup4\n        /* \"#utility.yul\":5313:5329   */\n      add\n        /* \"#utility.yul\":5307:5330   */\n      mload\n        /* \"#utility.yul\":5343:5406   */\n      tag_272\n        /* \"#utility.yul\":5400:5404   */\n      0x20\n        /* \"#utility.yul\":5395:5398   */\n      dup7\n        /* \"#utility.yul\":5391:5405   */\n      add\n        /* \"#utility.yul\":5377:5389   */\n      dup3\n        /* \"#utility.yul\":5343:5406   */\n      tag_175\n      jump\t// in\n    tag_272:\n        /* \"#utility.yul\":5250:5416   */\n      pop\n        /* \"#utility.yul\":5501:5505   */\n      0x40\n        /* \"#utility.yul\":5494:5499   */\n      dup4\n        /* \"#utility.yul\":5490:5506   */\n      add\n        /* \"#utility.yul\":5484:5507   */\n      mload\n        /* \"#utility.yul\":5554:5557   */\n      dup5\n        /* \"#utility.yul\":5548:5552   */\n      dup3\n        /* \"#utility.yul\":5544:5558   */\n      sub\n        /* \"#utility.yul\":5537:5541   */\n      0x40\n        /* \"#utility.yul\":5532:5535   */\n      dup7\n        /* \"#utility.yul\":5528:5542   */\n      add\n        /* \"#utility.yul\":5521:5559   */\n      mstore\n        /* \"#utility.yul\":5580:5653   */\n      tag_273\n        /* \"#utility.yul\":5648:5652   */\n      dup3\n        /* \"#utility.yul\":5634:5646   */\n      dup3\n        /* \"#utility.yul\":5580:5653   */\n      tag_177\n      jump\t// in\n    tag_273:\n        /* \"#utility.yul\":5572:5653   */\n      swap2\n      pop\n        /* \"#utility.yul\":5426:5664   */\n      pop\n        /* \"#utility.yul\":5751:5755   */\n      0x60\n        /* \"#utility.yul\":5744:5749   */\n      dup4\n        /* \"#utility.yul\":5740:5756   */\n      add\n        /* \"#utility.yul\":5734:5757   */\n      mload\n        /* \"#utility.yul\":5770:5833   */\n      tag_274\n        /* \"#utility.yul\":5827:5831   */\n      0x60\n        /* \"#utility.yul\":5822:5825   */\n      dup7\n        /* \"#utility.yul\":5818:5832   */\n      add\n        /* \"#utility.yul\":5804:5816   */\n      dup3\n        /* \"#utility.yul\":5770:5833   */\n      tag_174\n      jump\t// in\n    tag_274:\n        /* \"#utility.yul\":5674:5843   */\n      pop\n        /* \"#utility.yul\":5926:5930   */\n      0x80\n        /* \"#utility.yul\":5919:5924   */\n      dup4\n        /* \"#utility.yul\":5915:5931   */\n      add\n        /* \"#utility.yul\":5909:5932   */\n      mload\n        /* \"#utility.yul\":5945:6008   */\n      tag_275\n        /* \"#utility.yul\":6002:6006   */\n      0x80\n        /* \"#utility.yul\":5997:6000   */\n      dup7\n        /* \"#utility.yul\":5993:6007   */\n      add\n        /* \"#utility.yul\":5979:5991   */\n      dup3\n        /* \"#utility.yul\":5945:6008   */\n      tag_174\n      jump\t// in\n    tag_275:\n        /* \"#utility.yul\":5853:6018   */\n      pop\n        /* \"#utility.yul\":6035:6039   */\n      dup1\n        /* \"#utility.yul\":6028:6039   */\n      swap2\n      pop\n        /* \"#utility.yul\":5032:6045   */\n      pop\n        /* \"#utility.yul\":4924:6045   */\n      swap3\n      swap2\n      pop\n      pop\n      jump\t// out\n        /* \"#utility.yul\":6051:6295   */\n    tag_179:\n        /* \"#utility.yul\":6164:6174   */\n      0x00\n        /* \"#utility.yul\":6199:6289   */\n      tag_277\n        /* \"#utility.yul\":6285:6288   */\n      dup4\n        /* \"#utility.yul\":6277:6283   */\n      dup4\n        /* \"#utility.yul\":6199:6289   */\n      tag_178\n      jump\t// in\n    tag_277:\n        /* \"#utility.yul\":6185:6289   */\n      swap1\n      pop\n        /* \"#utility.yul\":6051:6295   */\n      swap3\n      swap2\n      pop\n      pop\n      jump\t// out\n        /* \"#utility.yul\":6301:6436   */\n    tag_180:\n        /* \"#utility.yul\":6393:6397   */\n      0x00\n        /* \"#utility.yul\":6425:6429   */\n      0x20\n        /* \"#utility.yul\":6420:6423   */\n      dup3\n        /* \"#utility.yul\":6416:6430   */\n      add\n        /* \"#utility.yul\":6408:6430   */\n      swap1\n      pop\n        /* \"#utility.yul\":6301:6436   */\n      swap2\n      swap1\n      pop\n      jump\t// out\n        /* \"#utility.yul\":6498:7585   */\n    tag_181:\n        /* \"#utility.yul\":6661:6664   */\n      0x00\n        /* \"#utility.yul\":6690:6766   */\n      tag_280\n        /* \"#utility.yul\":6760:6765   */\n      dup3\n        /* \"#utility.yul\":6690:6766   */\n      tag_171\n      jump\t// in\n    tag_280:\n        /* \"#utility.yul\":6782:6890   */\n      tag_281\n        /* \"#utility.yul\":6883:6889   */\n      dup2\n        /* \"#utility.yul\":6878:6881   */\n      dup6\n        /* \"#utility.yul\":6782:6890   */\n      tag_172\n      jump\t// in\n    tag_281:\n        /* \"#utility.yul\":6775:6890   */\n      swap4\n      pop\n        /* \"#utility.yul\":6916:6919   */\n      dup4\n        /* \"#utility.yul\":6961:6965   */\n      0x20\n        /* \"#utility.yul\":6953:6959   */\n      dup3\n        /* \"#utility.yul\":6949:6966   */\n      mul\n        /* \"#utility.yul\":6944:6947   */\n      dup6\n        /* \"#utility.yul\":6940:6967   */\n      add\n        /* \"#utility.yul\":6991:7069   */\n      tag_282\n        /* \"#utility.yul\":7063:7068   */\n      dup6\n        /* \"#utility.yul\":6991:7069   */\n      tag_173\n      jump\t// in\n    tag_282:\n        /* \"#utility.yul\":7092:7099   */\n      dup1\n        /* \"#utility.yul\":7123:7124   */\n      0x00\n        /* \"#utility.yul\":7108:7540   */\n    tag_283:\n        /* \"#utility.yul\":7133:7139   */\n      dup6\n        /* \"#utility.yul\":7130:7131   */\n      dup2\n        /* \"#utility.yul\":7127:7140   */\n      lt\n        /* \"#utility.yul\":7108:7540   */\n      iszero\n      tag_285\n      jumpi\n        /* \"#utility.yul\":7204:7213   */\n      dup5\n        /* \"#utility.yul\":7198:7202   */\n      dup5\n        /* \"#utility.yul\":7194:7214   */\n      sub\n        /* \"#utility.yul\":7189:7192   */\n      dup10\n        /* \"#utility.yul\":7182:7215   */\n      mstore\n        /* \"#utility.yul\":7255:7261   */\n      dup2\n        /* \"#utility.yul\":7249:7262   */\n      mload\n        /* \"#utility.yul\":7283:7391   */\n      tag_286\n        /* \"#utility.yul\":7386:7390   */\n      dup6\n        /* \"#utility.yul\":7371:7384   */\n      dup3\n        /* \"#utility.yul\":7283:7391   */\n      tag_179\n      jump\t// in\n    tag_286:\n        /* \"#utility.yul\":7275:7391   */\n      swap5\n      pop\n        /* \"#utility.yul\":7414:7496   */\n      tag_287\n        /* \"#utility.yul\":7489:7495   */\n      dup4\n        /* \"#utility.yul\":7414:7496   */\n      tag_180\n      jump\t// in\n    tag_287:\n        /* \"#utility.yul\":7404:7496   */\n      swap3\n      pop\n        /* \"#utility.yul\":7525:7529   */\n      0x20\n        /* \"#utility.yul\":7520:7523   */\n      dup11\n        /* \"#utility.yul\":7516:7530   */\n      add\n        /* \"#utility.yul\":7509:7530   */\n      swap10\n      pop\n        /* \"#utility.yul\":7168:7540   */\n      pop\n        /* \"#utility.yul\":7155:7156   */\n      0x01\n        /* \"#utility.yul\":7152:7153   */\n      dup2\n        /* \"#utility.yul\":7148:7157   */\n      add\n        /* \"#utility.yul\":7143:7157   */\n      swap1\n      pop\n        /* \"#utility.yul\":7108:7540   */\n      jump(tag_283)\n    tag_285:\n        /* \"#utility.yul\":7112:7126   */\n      pop\n        /* \"#utility.yul\":7556:7560   */\n      dup3\n        /* \"#utility.yul\":7549:7560   */\n      swap8\n      pop\n        /* \"#utility.yul\":7576:7579   */\n      dup8\n        /* \"#utility.yul\":7569:7579   */\n      swap6\n      pop\n        /* \"#utility.yul\":6666:7585   */\n      pop\n      pop\n      pop\n      pop\n      pop\n        /* \"#utility.yul\":6498:7585   */\n      swap3\n      swap2\n      pop\n      pop\n      jump\t// out\n        /* \"#utility.yul\":7591:8052   */\n    tag_26:\n        /* \"#utility.yul\":7778:7782   */\n      0x00\n        /* \"#utility.yul\":7816:7818   */\n      0x20\n        /* \"#utility.yul\":7805:7814   */\n      dup3\n        /* \"#utility.yul\":7801:7819   */\n      add\n        /* \"#utility.yul\":7793:7819   */\n      swap1\n      pop\n        /* \"#utility.yul\":7865:7874   */\n      dup2\n        /* \"#utility.yul\":7859:7863   */\n      dup2\n        /* \"#utility.yul\":7855:7875   */\n      sub\n        /* \"#utility.yul\":7851:7852   */\n      0x00\n        /* \"#utility.yul\":7840:7849   */\n      dup4\n        /* \"#utility.yul\":7836:7853   */\n      add\n        /* \"#utility.yul\":7829:7876   */\n      mstore\n        /* \"#utility.yul\":7893:8045   */\n      tag_289\n        /* \"#utility.yul\":8040:8044   */\n      dup2\n        /* \"#utility.yul\":8031:8037   */\n      dup5\n        /* \"#utility.yul\":7893:8045   */\n      tag_181\n      jump\t// in\n    tag_289:\n        /* \"#utility.yul\":7885:8045   */\n      swap1\n      pop\n        /* \"#utility.yul\":7591:8052   */\n      swap3\n      swap2\n      pop\n      pop\n      jump\t// out\n        /* \"#utility.yul\":8058:8175   */\n    tag_182:\n        /* \"#utility.yul\":8167:8168   */\n      0x00\n        /* \"#utility.yul\":8164:8165   */\n      dup1\n        /* \"#utility.yul\":8157:8169   */\n      revert\n        /* \"#utility.yul\":8181:8298   */\n    tag_183:\n        /* \"#utility.yul\":8290:8291   */\n      0x00\n        /* \"#utility.yul\":8287:8288   */\n      dup1\n        /* \"#utility.yul\":8280:8292   */\n      revert\n        /* \"#utility.yul\":8304:8484   */\n    tag_184:\n        /* \"#utility.yul\":8352:8429   */\n      0x4e487b7100000000000000000000000000000000000000000000000000000000\n        /* \"#utility.yul\":8349:8350   */\n      0x00\n        /* \"#utility.yul\":8342:8430   */\n      mstore\n        /* \"#utility.yul\":8449:8453   */\n      0x41\n        /* \"#utility.yul\":8446:8447   */\n      0x04\n        /* \"#utility.yul\":8439:8454   */\n      mstore\n        /* \"#utility.yul\":8473:8477   */\n      0x24\n        /* \"#utility.yul\":8470:8471   */\n      0x00\n        /* \"#utility.yul\":8463:8478   */\n      revert\n        /* \"#utility.yul\":8490:8771   */\n    tag_185:\n        /* \"#utility.yul\":8573:8600   */\n      tag_294\n        /* \"#utility.yul\":8595:8599   */\n      dup3\n        /* \"#utility.yul\":8573:8600   */\n      tag_169\n      jump\t// in\n    tag_294:\n        /* \"#utility.yul\":8565:8571   */\n      dup2\n        /* \"#utility.yul\":8561:8601   */\n      add\n        /* \"#utility.yul\":8703:8709   */\n      dup2\n        /* \"#utility.yul\":8691:8701   */\n      dup2\n        /* \"#utility.yul\":8688:8710   */\n      lt\n        /* \"#utility.yul\":8667:8685   */\n      0xffffffffffffffff\n        /* \"#utility.yul\":8655:8665   */\n      dup3\n        /* \"#utility.yul\":8652:8686   */\n      gt\n        /* \"#utility.yul\":8649:8711   */\n      or\n        /* \"#utility.yul\":8646:8734   */\n      iszero\n      tag_295\n      jumpi\n        /* \"#utility.yul\":8714:8732   */\n      tag_296\n      tag_184\n      jump\t// in\n    tag_296:\n        /* \"#utility.yul\":8646:8734   */\n    tag_295:\n        /* \"#utility.yul\":8754:8764   */\n      dup1\n        /* \"#utility.yul\":8750:8752   */\n      0x40\n        /* \"#utility.yul\":8743:8765   */\n      mstore\n        /* \"#utility.yul\":8533:8771   */\n      pop\n        /* \"#utility.yul\":8490:8771   */\n      pop\n      pop\n      jump\t// out\n        /* \"#utility.yul\":8777:8906   */\n    tag_186:\n        /* \"#utility.yul\":8811:8817   */\n      0x00\n        /* \"#utility.yul\":8838:8858   */\n      tag_298\n      tag_154\n      jump\t// in\n    tag_298:\n        /* \"#utility.yul\":8828:8858   */\n      swap1\n      pop\n        /* \"#utility.yul\":8867:8900   */\n      tag_299\n        /* \"#utility.yul\":8895:8899   */\n      dup3\n        /* \"#utility.yul\":8887:8893   */\n      dup3\n        /* \"#utility.yul\":8867:8900   */\n      tag_185\n      jump\t// in\n    tag_299:\n        /* \"#utility.yul\":8777:8906   */\n      swap2\n      swap1\n      pop\n      jump\t// out\n        /* \"#utility.yul\":8912:9220   */\n    tag_187:\n        /* \"#utility.yul\":8974:8978   */\n      0x00\n        /* \"#utility.yul\":9064:9082   */\n      0xffffffffffffffff\n        /* \"#utility.yul\":9056:9062   */\n      dup3\n        /* \"#utility.yul\":9053:9083   */\n      gt\n        /* \"#utility.yul\":9050:9106   */\n      iszero\n      tag_301\n      jumpi\n        /* \"#utility.yul\":9086:9104   */\n      tag_302\n      tag_184\n      jump\t// in\n    tag_302:\n        /* \"#utility.yul\":9050:9106   */\n    tag_301:\n        /* \"#utility.yul\":9124:9153   */\n      tag_303\n        /* \"#utility.yul\":9146:9152   */\n      dup3\n        /* \"#utility.yul\":9124:9153   */\n      tag_169\n      jump\t// in\n    tag_303:\n        /* \"#utility.yul\":9116:9153   */\n      swap1\n      pop\n        /* \"#utility.yul\":9208:9212   */\n      0x20\n        /* \"#utility.yul\":9202:9206   */\n      dup2\n        /* \"#utility.yul\":9198:9213   */\n      add\n        /* \"#utility.yul\":9190:9213   */\n      swap1\n      pop\n        /* \"#utility.yul\":8912:9220   */\n      swap2\n      swap1\n      pop\n      jump\t// out\n        /* \"#utility.yul\":9226:9374   */\n    tag_188:\n        /* \"#utility.yul\":9324:9330   */\n      dup3\n        /* \"#utility.yul\":9319:9322   */\n      dup2\n        /* \"#utility.yul\":9314:9317   */\n      dup4\n        /* \"#utility.yul\":9301:9331   */\n      calldatacopy\n        /* \"#utility.yul\":9365:9366   */\n      0x00\n        /* \"#utility.yul\":9356:9362   */\n      dup4\n        /* \"#utility.yul\":9351:9354   */\n      dup4\n        /* \"#utility.yul\":9347:9363   */\n      add\n        /* \"#utility.yul\":9340:9367   */\n      mstore\n        /* \"#utility.yul\":9226:9374   */\n      pop\n      pop\n      pop\n      jump\t// out\n        /* \"#utility.yul\":9380:9805   */\n    tag_189:\n        /* \"#utility.yul\":9458:9463   */\n      0x00\n        /* \"#utility.yul\":9483:9549   */\n      tag_306\n        /* \"#utility.yul\":9499:9548   */\n      tag_307\n        /* \"#utility.yul\":9541:9547   */\n      dup5\n        /* \"#utility.yul\":9499:9548   */\n      tag_187\n      jump\t// in\n    tag_307:\n        /* \"#utility.yul\":9483:9549   */\n      tag_186\n      jump\t// in\n    tag_306:\n        /* \"#utility.yul\":9474:9549   */\n      swap1\n      pop\n        /* \"#utility.yul\":9572:9578   */\n      dup3\n        /* \"#utility.yul\":9565:9570   */\n      dup2\n        /* \"#utility.yul\":9558:9579   */\n      mstore\n        /* \"#utility.yul\":9610:9614   */\n      0x20\n        /* \"#utility.yul\":9603:9608   */\n      dup2\n        /* \"#utility.yul\":9599:9615   */\n      add\n        /* \"#utility.yul\":9648:9651   */\n      dup5\n        /* \"#utility.yul\":9639:9645   */\n      dup5\n        /* \"#utility.yul\":9634:9637   */\n      dup5\n        /* \"#utility.yul\":9630:9646   */\n      add\n        /* \"#utility.yul\":9627:9652   */\n      gt\n        /* \"#utility.yul\":9624:9736   */\n      iszero\n      tag_308\n      jumpi\n        /* \"#utility.yul\":9655:9734   */\n      tag_309\n      tag_183\n      jump\t// in\n    tag_309:\n        /* \"#utility.yul\":9624:9736   */\n    tag_308:\n        /* \"#utility.yul\":9745:9799   */\n      tag_310\n        /* \"#utility.yul\":9792:9798   */\n      dup5\n        /* \"#utility.yul\":9787:9790   */\n      dup3\n        /* \"#utility.yul\":9782:9785   */\n      dup6\n        /* \"#utility.yul\":9745:9799   */\n      tag_188\n      jump\t// in\n    tag_310:\n        /* \"#utility.yul\":9464:9805   */\n      pop\n        /* \"#utility.yul\":9380:9805   */\n      swap4\n      swap3\n      pop\n      pop\n      pop\n      jump\t// out\n        /* \"#utility.yul\":9825:10165   */\n    tag_190:\n        /* \"#utility.yul\":9881:9886   */\n      0x00\n        /* \"#utility.yul\":9930:9933   */\n      dup3\n        /* \"#utility.yul\":9923:9927   */\n      0x1f\n        /* \"#utility.yul\":9915:9921   */\n      dup4\n        /* \"#utility.yul\":9911:9928   */\n      add\n        /* \"#utility.yul\":9907:9934   */\n      slt\n        /* \"#utility.yul\":9897:10019   */\n      tag_312\n      jumpi\n        /* \"#utility.yul\":9938:10017   */\n      tag_313\n      tag_182\n      jump\t// in\n    tag_313:\n        /* \"#utility.yul\":9897:10019   */\n    tag_312:\n        /* \"#utility.yul\":10055:10061   */\n      dup2\n        /* \"#utility.yul\":10042:10062   */\n      calldataload\n        /* \"#utility.yul\":10080:10159   */\n      tag_314\n        /* \"#utility.yul\":10155:10158   */\n      dup5\n        /* \"#utility.yul\":10147:10153   */\n      dup3\n        /* \"#utility.yul\":10140:10144   */\n      0x20\n        /* \"#utility.yul\":10132:10138   */\n      dup7\n        /* \"#utility.yul\":10128:10145   */\n      add\n        /* \"#utility.yul\":10080:10159   */\n      tag_189\n      jump\t// in\n    tag_314:\n        /* \"#utility.yul\":10071:10159   */\n      swap2\n      pop\n        /* \"#utility.yul\":9887:10165   */\n      pop\n        /* \"#utility.yul\":9825:10165   */\n      swap3\n      swap2\n      pop\n      pop\n      jump\t// out\n        /* \"#utility.yul\":10171:10680   */\n    tag_31:\n        /* \"#utility.yul\":10240:10246   */\n      0x00\n        /* \"#utility.yul\":10289:10291   */\n      0x20\n        /* \"#utility.yul\":10277:10286   */\n      dup3\n        /* \"#utility.yul\":10268:10275   */\n      dup5\n        /* \"#utility.yul\":10264:10287   */\n      sub\n        /* \"#utility.yul\":10260:10292   */\n      slt\n        /* \"#utility.yul\":10257:10376   */\n      iszero\n      tag_316\n      jumpi\n        /* \"#utility.yul\":10295:10374   */\n      tag_317\n      tag_155\n      jump\t// in\n    tag_317:\n        /* \"#utility.yul\":10257:10376   */\n    tag_316:\n        /* \"#utility.yul\":10443:10444   */\n      0x00\n        /* \"#utility.yul\":10432:10441   */\n      dup3\n        /* \"#utility.yul\":10428:10445   */\n      add\n        /* \"#utility.yul\":10415:10446   */\n      calldataload\n        /* \"#utility.yul\":10473:10491   */\n      0xffffffffffffffff\n        /* \"#utility.yul\":10465:10471   */\n      dup2\n        /* \"#utility.yul\":10462:10492   */\n      gt\n        /* \"#utility.yul\":10459:10576   */\n      iszero\n      tag_318\n      jumpi\n        /* \"#utility.yul\":10495:10574   */\n      tag_319\n      tag_156\n      jump\t// in\n    tag_319:\n        /* \"#utility.yul\":10459:10576   */\n    tag_318:\n        /* \"#utility.yul\":10600:10663   */\n      tag_320\n        /* \"#utility.yul\":10655:10662   */\n      dup5\n        /* \"#utility.yul\":10646:10652   */\n      dup3\n        /* \"#utility.yul\":10635:10644   */\n      dup6\n        /* \"#utility.yul\":10631:10653   */\n      add\n        /* \"#utility.yul\":10600:10663   */\n      tag_190\n      jump\t// in\n    tag_320:\n        /* \"#utility.yul\":10590:10663   */\n      swap2\n      pop\n        /* \"#utility.yul\":10386:10673   */\n      pop\n        /* \"#utility.yul\":10171:10680   */\n      swap3\n      swap2\n      pop\n      pop\n      jump\t// out\n        /* \"#utility.yul\":10686:11015   */\n    tag_35:\n        /* \"#utility.yul\":10745:10751   */\n      0x00\n        /* \"#utility.yul\":10794:10796   */\n      0x20\n        /* \"#utility.yul\":10782:10791   */\n      dup3\n        /* \"#utility.yul\":10773:10780   */\n      dup5\n        /* \"#utility.yul\":10769:10792   */\n      sub\n        /* \"#utility.yul\":10765:10797   */\n      slt\n        /* \"#utility.yul\":10762:10881   */\n      iszero\n      tag_322\n      jumpi\n        /* \"#utility.yul\":10800:10879   */\n      tag_323\n      tag_155\n      jump\t// in\n    tag_323:\n        /* \"#utility.yul\":10762:10881   */\n    tag_322:\n        /* \"#utility.yul\":10920:10921   */\n      0x00\n        /* \"#utility.yul\":10945:10998   */\n      tag_324\n        /* \"#utility.yul\":10990:10997   */\n      dup5\n        /* \"#utility.yul\":10981:10987   */\n      dup3\n        /* \"#utility.yul\":10970:10979   */\n      dup6\n        /* \"#utility.yul\":10966:10988   */\n      add\n        /* \"#utility.yul\":10945:10998   */\n      tag_163\n      jump\t// in\n    tag_324:\n        /* \"#utility.yul\":10935:10998   */\n      swap2\n      pop\n        /* \"#utility.yul\":10891:11008   */\n      pop\n        /* \"#utility.yul\":10686:11015   */\n      swap3\n      swap2\n      pop\n      pop\n      jump\t// out\n        /* \"#utility.yul\":11021:11243   */\n    tag_40:\n        /* \"#utility.yul\":11114:11118   */\n      0x00\n        /* \"#utility.yul\":11152:11154   */\n      0x20\n        /* \"#utility.yul\":11141:11150   */\n      dup3\n        /* \"#utility.yul\":11137:11155   */\n      add\n        /* \"#utility.yul\":11129:11155   */\n      swap1\n      pop\n        /* \"#utility.yul\":11165:11236   */\n      tag_326\n        /* \"#utility.yul\":11233:11234   */\n      0x00\n        /* \"#utility.yul\":11222:11231   */\n      dup4\n        /* \"#utility.yul\":11218:11235   */\n      add\n        /* \"#utility.yul\":11209:11215   */\n      dup5\n        /* \"#utility.yul\":11165:11236   */\n      tag_165\n      jump\t// in\n    tag_326:\n        /* \"#utility.yul\":11021:11243   */\n      swap3\n      swap2\n      pop\n      pop\n      jump\t// out\n        /* \"#utility.yul\":11301:12432   */\n    tag_191:\n        /* \"#utility.yul\":11414:11417   */\n      0x00\n        /* \"#utility.yul\":11450:11454   */\n      0xa0\n        /* \"#utility.yul\":11445:11448   */\n      dup4\n        /* \"#utility.yul\":11441:11455   */\n      add\n        /* \"#utility.yul\":11535:11539   */\n      0x00\n        /* \"#utility.yul\":11528:11533   */\n      dup4\n        /* \"#utility.yul\":11524:11540   */\n      add\n        /* \"#utility.yul\":11518:11541   */\n      mload\n        /* \"#utility.yul\":11554:11617   */\n      tag_328\n        /* \"#utility.yul\":11611:11615   */\n      0x00\n        /* \"#utility.yul\":11606:11609   */\n      dup7\n        /* \"#utility.yul\":11602:11616   */\n      add\n        /* \"#utility.yul\":11588:11600   */\n      dup3\n        /* \"#utility.yul\":11554:11617   */\n      tag_174\n      jump\t// in\n    tag_328:\n        /* \"#utility.yul\":11465:11627   */\n      pop\n        /* \"#utility.yul\":11711:11715   */\n      0x20\n        /* \"#utility.yul\":11704:11709   */\n      dup4\n        /* \"#utility.yul\":11700:11716   */\n      add\n        /* \"#utility.yul\":11694:11717   */\n      mload\n        /* \"#utility.yul\":11730:11793   */\n      tag_329\n        /* \"#utility.yul\":11787:11791   */\n      0x20\n        /* \"#utility.yul\":11782:11785   */\n      dup7\n        /* \"#utility.yul\":11778:11792   */\n      add\n        /* \"#utility.yul\":11764:11776   */\n      dup3\n        /* \"#utility.yul\":11730:11793   */\n      tag_175\n      jump\t// in\n    tag_329:\n        /* \"#utility.yul\":11637:11803   */\n      pop\n        /* \"#utility.yul\":11888:11892   */\n      0x40\n        /* \"#utility.yul\":11881:11886   */\n      dup4\n        /* \"#utility.yul\":11877:11893   */\n      add\n        /* \"#utility.yul\":11871:11894   */\n      mload\n        /* \"#utility.yul\":11941:11944   */\n      dup5\n        /* \"#utility.yul\":11935:11939   */\n      dup3\n        /* \"#utility.yul\":11931:11945   */\n      sub\n        /* \"#utility.yul\":11924:11928   */\n      0x40\n        /* \"#utility.yul\":11919:11922   */\n      dup7\n        /* \"#utility.yul\":11915:11929   */\n      add\n        /* \"#utility.yul\":11908:11946   */\n      mstore\n        /* \"#utility.yul\":11967:12040   */\n      tag_330\n        /* \"#utility.yul\":12035:12039   */\n      dup3\n        /* \"#utility.yul\":12021:12033   */\n      dup3\n        /* \"#utility.yul\":11967:12040   */\n      tag_177\n      jump\t// in\n    tag_330:\n        /* \"#utility.yul\":11959:12040   */\n      swap2\n      pop\n        /* \"#utility.yul\":11813:12051   */\n      pop\n        /* \"#utility.yul\":12138:12142   */\n      0x60\n        /* \"#utility.yul\":12131:12136   */\n      dup4\n        /* \"#utility.yul\":12127:12143   */\n      add\n        /* \"#utility.yul\":12121:12144   */\n      mload\n        /* \"#utility.yul\":12157:12220   */\n      tag_331\n        /* \"#utility.yul\":12214:12218   */\n      0x60\n        /* \"#utility.yul\":12209:12212   */\n      dup7\n        /* \"#utility.yul\":12205:12219   */\n      add\n        /* \"#utility.yul\":12191:12203   */\n      dup3\n        /* \"#utility.yul\":12157:12220   */\n      tag_174\n      jump\t// in\n    tag_331:\n        /* \"#utility.yul\":12061:12230   */\n      pop\n        /* \"#utility.yul\":12313:12317   */\n      0x80\n        /* \"#utility.yul\":12306:12311   */\n      dup4\n        /* \"#utility.yul\":12302:12318   */\n      add\n        /* \"#utility.yul\":12296:12319   */\n      mload\n        /* \"#utility.yul\":12332:12395   */\n      tag_332\n        /* \"#utility.yul\":12389:12393   */\n      0x80\n        /* \"#utility.yul\":12384:12387   */\n      dup7\n        /* \"#utility.yul\":12380:12394   */\n      add\n        /* \"#utility.yul\":12366:12378   */\n      dup3\n        /* \"#utility.yul\":12332:12395   */\n      tag_174\n      jump\t// in\n    tag_332:\n        /* \"#utility.yul\":12240:12405   */\n      pop\n        /* \"#utility.yul\":12422:12426   */\n      dup1\n        /* \"#utility.yul\":12415:12426   */\n      swap2\n      pop\n        /* \"#utility.yul\":11419:12432   */\n      pop\n        /* \"#utility.yul\":11301:12432   */\n      swap3\n      swap2\n      pop\n      pop\n      jump\t// out\n        /* \"#utility.yul\":12438:12799   */\n    tag_48:\n        /* \"#utility.yul\":12575:12579   */\n      0x00\n        /* \"#utility.yul\":12613:12615   */\n      0x20\n        /* \"#utility.yul\":12602:12611   */\n      dup3\n        /* \"#utility.yul\":12598:12616   */\n      add\n        /* \"#utility.yul\":12590:12616   */\n      swap1\n      pop\n        /* \"#utility.yul\":12662:12671   */\n      dup2\n        /* \"#utility.yul\":12656:12660   */\n      dup2\n        /* \"#utility.yul\":12652:12672   */\n      sub\n        /* \"#utility.yul\":12648:12649   */\n      0x00\n        /* \"#utility.yul\":12637:12646   */\n      dup4\n        /* \"#utility.yul\":12633:12650   */\n      add\n        /* \"#utility.yul\":12626:12673   */\n      mstore\n        /* \"#utility.yul\":12690:12792   */\n      tag_334\n        /* \"#utility.yul\":12787:12791   */\n      dup2\n        /* \"#utility.yul\":12778:12784   */\n      dup5\n        /* \"#utility.yul\":12690:12792   */\n      tag_191\n      jump\t// in\n    tag_334:\n        /* \"#utility.yul\":12682:12792   */\n      swap1\n      pop\n        /* \"#utility.yul\":12438:12799   */\n      swap3\n      swap2\n      pop\n      pop\n      jump\t// out\n        /* \"#utility.yul\":12805:13134   */\n    tag_51:\n        /* \"#utility.yul\":12864:12870   */\n      0x00\n        /* \"#utility.yul\":12913:12915   */\n      0x20\n        /* \"#utility.yul\":12901:12910   */\n      dup3\n        /* \"#utility.yul\":12892:12899   */\n      dup5\n        /* \"#utility.yul\":12888:12911   */\n      sub\n        /* \"#utility.yul\":12884:12916   */\n      slt\n        /* \"#utility.yul\":12881:13000   */\n      iszero\n      tag_336\n      jumpi\n        /* \"#utility.yul\":12919:12998   */\n      tag_337\n      tag_155\n      jump\t// in\n    tag_337:\n        /* \"#utility.yul\":12881:13000   */\n    tag_336:\n        /* \"#utility.yul\":13039:13040   */\n      0x00\n        /* \"#utility.yul\":13064:13117   */\n      tag_338\n        /* \"#utility.yul\":13109:13116   */\n      dup5\n        /* \"#utility.yul\":13100:13106   */\n      dup3\n        /* \"#utility.yul\":13089:13098   */\n      dup6\n        /* \"#utility.yul\":13085:13107   */\n      add\n        /* \"#utility.yul\":13064:13117   */\n      tag_160\n      jump\t// in\n    tag_338:\n        /* \"#utility.yul\":13054:13117   */\n      swap2\n      pop\n        /* \"#utility.yul\":13010:13127   */\n      pop\n        /* \"#utility.yul\":12805:13134   */\n      swap3\n      swap2\n      pop\n      pop\n      jump\t// out\n        /* \"#utility.yul\":13140:13320   */\n    tag_192:\n        /* \"#utility.yul\":13188:13265   */\n      0x4e487b7100000000000000000000000000000000000000000000000000000000\n        /* \"#utility.yul\":13185:13186   */\n      0x00\n        /* \"#utility.yul\":13178:13266   */\n      mstore\n        /* \"#utility.yul\":13285:13289   */\n      0x22\n        /* \"#utility.yul\":13282:13283   */\n      0x04\n        /* \"#utility.yul\":13275:13290   */\n      mstore\n        /* \"#utility.yul\":13309:13313   */\n      0x24\n        /* \"#utility.yul\":13306:13307   */\n      0x00\n        /* \"#utility.yul\":13299:13314   */\n      revert\n        /* \"#utility.yul\":13326:13646   */\n    tag_56:\n        /* \"#utility.yul\":13370:13376   */\n      0x00\n        /* \"#utility.yul\":13407:13408   */\n      0x02\n        /* \"#utility.yul\":13401:13405   */\n      dup3\n        /* \"#utility.yul\":13397:13409   */\n      div\n        /* \"#utility.yul\":13387:13409   */\n      swap1\n      pop\n        /* \"#utility.yul\":13454:13455   */\n      0x01\n        /* \"#utility.yul\":13448:13452   */\n      dup3\n        /* \"#utility.yul\":13444:13456   */\n      and\n        /* \"#utility.yul\":13475:13493   */\n      dup1\n        /* \"#utility.yul\":13465:13546   */\n      tag_341\n      jumpi\n        /* \"#utility.yul\":13531:13535   */\n      0x7f\n        /* \"#utility.yul\":13523:13529   */\n      dup3\n        /* \"#utility.yul\":13519:13536   */\n      and\n        /* \"#utility.yul\":13509:13536   */\n      swap2\n      pop\n        /* \"#utility.yul\":13465:13546   */\n    tag_341:\n        /* \"#utility.yul\":13593:13595   */\n      0x20\n        /* \"#utility.yul\":13585:13591   */\n      dup3\n        /* \"#utility.yul\":13582:13596   */\n      lt\n        /* \"#utility.yul\":13562:13580   */\n      dup2\n        /* \"#utility.yul\":13559:13597   */\n      sub\n        /* \"#utility.yul\":13556:13640   */\n      tag_342\n      jumpi\n        /* \"#utility.yul\":13612:13630   */\n      tag_343\n      tag_192\n      jump\t// in\n    tag_343:\n        /* \"#utility.yul\":13556:13640   */\n    tag_342:\n        /* \"#utility.yul\":13377:13646   */\n      pop\n        /* \"#utility.yul\":13326:13646   */\n      swap2\n      swap1\n      pop\n      jump\t// out\n        /* \"#utility.yul\":13652:13832   */\n    tag_64:\n        /* \"#utility.yul\":13700:13777   */\n      0x4e487b7100000000000000000000000000000000000000000000000000000000\n        /* \"#utility.yul\":13697:13698   */\n      0x00\n        /* \"#utility.yul\":13690:13778   */\n      mstore\n        /* \"#utility.yul\":13797:13801   */\n      0x32\n        /* \"#utility.yul\":13794:13795   */\n      0x04\n        /* \"#utility.yul\":13787:13802   */\n      mstore\n        /* \"#utility.yul\":13821:13825   */\n      0x24\n        /* \"#utility.yul\":13818:13819   */\n      0x00\n        /* \"#utility.yul\":13811:13826   */\n      revert\n        /* \"#utility.yul\":13838:14008   */\n    tag_193:\n        /* \"#utility.yul\":13978:14000   */\n      0x547765657420646f6573206e6f74206578697374000000000000000000000000\n        /* \"#utility.yul\":13974:13975   */\n      0x00\n        /* \"#utility.yul\":13966:13972   */\n      dup3\n        /* \"#utility.yul\":13962:13976   */\n      add\n        /* \"#utility.yul\":13955:14001   */\n      mstore\n        /* \"#utility.yul\":13838:14008   */\n      pop\n      jump\t// out\n        /* \"#utility.yul\":14014:14380   */\n    tag_194:\n        /* \"#utility.yul\":14156:14159   */\n      0x00\n        /* \"#utility.yul\":14177:14244   */\n      tag_347\n        /* \"#utility.yul\":14241:14243   */\n      0x14\n        /* \"#utility.yul\":14236:14239   */\n      dup4\n        /* \"#utility.yul\":14177:14244   */\n      tag_167\n      jump\t// in\n    tag_347:\n        /* \"#utility.yul\":14170:14244   */\n      swap2\n      pop\n        /* \"#utility.yul\":14253:14346   */\n      tag_348\n        /* \"#utility.yul\":14342:14345   */\n      dup3\n        /* \"#utility.yul\":14253:14346   */\n      tag_193\n      jump\t// in\n    tag_348:\n        /* \"#utility.yul\":14371:14373   */\n      0x20\n        /* \"#utility.yul\":14366:14369   */\n      dup3\n        /* \"#utility.yul\":14362:14374   */\n      add\n        /* \"#utility.yul\":14355:14374   */\n      swap1\n      pop\n        /* \"#utility.yul\":14014:14380   */\n      swap2\n      swap1\n      pop\n      jump\t// out\n        /* \"#utility.yul\":14386:14805   */\n    tag_68:\n        /* \"#utility.yul\":14552:14556   */\n      0x00\n        /* \"#utility.yul\":14590:14592   */\n      0x20\n        /* \"#utility.yul\":14579:14588   */\n      dup3\n        /* \"#utility.yul\":14575:14593   */\n      add\n        /* \"#utility.yul\":14567:14593   */\n      swap1\n      pop\n        /* \"#utility.yul\":14639:14648   */\n      dup2\n        /* \"#utility.yul\":14633:14637   */\n      dup2\n        /* \"#utility.yul\":14629:14649   */\n      sub\n        /* \"#utility.yul\":14625:14626   */\n      0x00\n        /* \"#utility.yul\":14614:14623   */\n      dup4\n        /* \"#utility.yul\":14610:14627   */\n      add\n        /* \"#utility.yul\":14603:14650   */\n      mstore\n        /* \"#utility.yul\":14667:14798   */\n      tag_350\n        /* \"#utility.yul\":14793:14797   */\n      dup2\n        /* \"#utility.yul\":14667:14798   */\n      tag_194\n      jump\t// in\n    tag_350:\n        /* \"#utility.yul\":14659:14798   */\n      swap1\n      pop\n        /* \"#utility.yul\":14386:14805   */\n      swap2\n      swap1\n      pop\n      jump\t// out\n        /* \"#utility.yul\":14811:14991   */\n    tag_195:\n        /* \"#utility.yul\":14859:14936   */\n      0x4e487b7100000000000000000000000000000000000000000000000000000000\n        /* \"#utility.yul\":14856:14857   */\n      0x00\n        /* \"#utility.yul\":14849:14937   */\n      mstore\n        /* \"#utility.yul\":14956:14960   */\n      0x11\n        /* \"#utility.yul\":14953:14954   */\n      0x04\n        /* \"#utility.yul\":14946:14961   */\n      mstore\n        /* \"#utility.yul\":14980:14984   */\n      0x24\n        /* \"#utility.yul\":14977:14978   */\n      0x00\n        /* \"#utility.yul\":14970:14985   */\n      revert\n        /* \"#utility.yul\":14997:15230   */\n    tag_73:\n        /* \"#utility.yul\":15036:15039   */\n      0x00\n        /* \"#utility.yul\":15059:15083   */\n      tag_353\n        /* \"#utility.yul\":15077:15082   */\n      dup3\n        /* \"#utility.yul\":15059:15083   */\n      tag_161\n      jump\t// in\n    tag_353:\n        /* \"#utility.yul\":15050:15083   */\n      swap2\n      pop\n        /* \"#utility.yul\":15105:15171   */\n      0xffffffffffffffffffffffffffffffffffffffffffffffffffffffffffffffff\n        /* \"#utility.yul\":15098:15103   */\n      dup3\n        /* \"#utility.yul\":15095:15172   */\n      sub\n        /* \"#utility.yul\":15092:15195   */\n      tag_354\n      jumpi\n        /* \"#utility.yul\":15175:15193   */\n      tag_355\n      tag_195\n      jump\t// in\n    tag_355:\n        /* \"#utility.yul\":15092:15195   */\n    tag_354:\n        /* \"#utility.yul\":15222:15223   */\n      0x01\n        /* \"#utility.yul\":15215:15220   */\n      dup3\n        /* \"#utility.yul\":15211:15224   */\n      add\n        /* \"#utility.yul\":15204:15224   */\n      swap1\n      pop\n        /* \"#utility.yul\":14997:15230   */\n      swap2\n      swap1\n      pop\n      jump\t// out\n        /* \"#utility.yul\":15236:15789   */\n    tag_78:\n        /* \"#utility.yul\":15413:15417   */\n      0x00\n        /* \"#utility.yul\":15451:15454   */\n      0x80\n        /* \"#utility.yul\":15440:15449   */\n      dup3\n        /* \"#utility.yul\":15436:15455   */\n      add\n        /* \"#utility.yul\":15428:15455   */\n      swap1\n      pop\n        /* \"#utility.yul\":15465:15536   */\n      tag_357\n        /* \"#utility.yul\":15533:15534   */\n      0x00\n        /* \"#utility.yul\":15522:15531   */\n      dup4\n        /* \"#utility.yul\":15518:15535   */\n      add\n        /* \"#utility.yul\":15509:15515   */\n      dup8\n        /* \"#utility.yul\":15465:15536   */\n      tag_165\n      jump\t// in\n    tag_357:\n        /* \"#utility.yul\":15546:15618   */\n      tag_358\n        /* \"#utility.yul\":15614:15616   */\n      0x20\n        /* \"#utility.yul\":15603:15612   */\n      dup4\n        /* \"#utility.yul\":15599:15617   */\n      add\n        /* \"#utility.yul\":15590:15596   */\n      dup7\n        /* \"#utility.yul\":15546:15618   */\n      tag_164\n      jump\t// in\n    tag_358:\n        /* \"#utility.yul\":15628:15700   */\n      tag_359\n        /* \"#utility.yul\":15696:15698   */\n      0x40\n        /* \"#utility.yul\":15685:15694   */\n      dup4\n        /* \"#utility.yul\":15681:15699   */\n      add\n        /* \"#utility.yul\":15672:15678   */\n      dup6\n        /* \"#utility.yul\":15628:15700   */\n      tag_165\n      jump\t// in\n    tag_359:\n        /* \"#utility.yul\":15710:15782   */\n      tag_360\n        /* \"#utility.yul\":15778:15780   */\n      0x60\n        /* \"#utility.yul\":15767:15776   */\n      dup4\n        /* \"#utility.yul\":15763:15781   */\n      add\n        /* \"#utility.yul\":15754:15760   */\n      dup5\n        /* \"#utility.yul\":15710:15782   */\n      tag_164\n      jump\t// in\n    tag_360:\n        /* \"#utility.yul\":15236:15789   */\n      swap6\n      swap5\n      pop\n      pop\n      pop\n      pop\n      pop\n      jump\t// out\n        /* \"#utility.yul\":15795:15962   */\n    tag_196:\n        /* \"#utility.yul\":15935:15954   */\n      0x547765657420697320746f6f206c6f6e67000000000000000000000000000000\n        /* \"#utility.yul\":15931:15932   */\n      0x00\n        /* \"#utility.yul\":15923:15929   */\n      dup3\n        /* \"#utility.yul\":15919:15933   */\n      add\n        /* \"#utility.yul\":15912:15955   */\n      mstore\n        /* \"#utility.yul\":15795:15962   */\n      pop\n      jump\t// out\n        /* \"#utility.yul\":15968:16334   */\n    tag_197:\n        /* \"#utility.yul\":16110:16113   */\n      0x00\n        /* \"#utility.yul\":16131:16198   */\n      tag_363\n        /* \"#utility.yul\":16195:16197   */\n      0x11\n        /* \"#utility.yul\":16190:16193   */\n      dup4\n        /* \"#utility.yul\":16131:16198   */\n      tag_167\n      jump\t// in\n    tag_363:\n        /* \"#utility.yul\":16124:16198   */\n      swap2\n      pop\n        /* \"#utility.yul\":16207:16300   */\n      tag_364\n        /* \"#utility.yul\":16296:16299   */\n      dup3\n        /* \"#utility.yul\":16207:16300   */\n      tag_196\n      jump\t// in\n    tag_364:\n        /* \"#utility.yul\":16325:16327   */\n      0x20\n        /* \"#utility.yul\":16320:16323   */\n      dup3\n        /* \"#utility.yul\":16316:16328   */\n      add\n        /* \"#utility.yul\":16309:16328   */\n      swap1\n      pop\n        /* \"#utility.yul\":15968:16334   */\n      swap2\n      swap1\n      pop\n      jump\t// out\n        /* \"#utility.yul\":16340:16759   */\n    tag_97:\n        /* \"#utility.yul\":16506:16510   */\n      0x00\n        /* \"#utility.yul\":16544:16546   */\n      0x20\n        /* \"#utility.yul\":16533:16542   */\n      dup3\n        /* \"#utility.yul\":16529:16547   */\n      add\n        /* \"#utility.yul\":16521:16547   */\n      swap1\n      pop\n        /* \"#utility.yul\":16593:16602   */\n      dup2\n        /* \"#utility.yul\":16587:16591   */\n      dup2\n        /* \"#utility.yul\":16583:16603   */\n      sub\n        /* \"#utility.yul\":16579:16580   */\n      0x00\n        /* \"#utility.yul\":16568:16577   */\n      dup4\n        /* \"#utility.yul\":16564:16581   */\n      add\n        /* \"#utility.yul\":16557:16604   */\n      mstore\n        /* \"#utility.yul\":16621:16752   */\n      tag_366\n        /* \"#utility.yul\":16747:16751   */\n      dup2\n        /* \"#utility.yul\":16621:16752   */\n      tag_197\n      jump\t// in\n    tag_366:\n        /* \"#utility.yul\":16613:16752   */\n      swap1\n      pop\n        /* \"#utility.yul\":16340:16759   */\n      swap2\n      swap1\n      pop\n      jump\t// out\n        /* \"#utility.yul\":16765:16906   */\n    tag_198:\n        /* \"#utility.yul\":16814:16818   */\n      0x00\n        /* \"#utility.yul\":16837:16840   */\n      dup2\n        /* \"#utility.yul\":16829:16840   */\n      swap1\n      pop\n        /* \"#utility.yul\":16860:16863   */\n      dup2\n        /* \"#utility.yul\":16857:16858   */\n      0x00\n        /* \"#utility.yul\":16850:16864   */\n      mstore\n        /* \"#utility.yul\":16894:16898   */\n      0x20\n        /* \"#utility.yul\":16891:16892   */\n      0x00\n        /* \"#utility.yul\":16881:16899   */\n      keccak256\n        /* \"#utility.yul\":16873:16899   */\n      swap1\n      pop\n        /* \"#utility.yul\":16765:16906   */\n      swap2\n      swap1\n      pop\n      jump\t// out\n        /* \"#utility.yul\":16912:17005   */\n    tag_199:\n        /* \"#utility.yul\":16949:16955   */\n      0x00\n        /* \"#utility.yul\":16996:16998   */\n      0x20\n        /* \"#utility.yul\":16991:16993   */\n      0x1f\n        /* \"#utility.yul\":16984:16989   */\n      dup4\n        /* \"#utility.yul\":16980:16994   */\n      add\n        /* \"#utility.yul\":16976:16999   */\n      div\n        /* \"#utility.yul\":16966:16999   */\n      swap1\n      pop\n        /* \"#utility.yul\":16912:17005   */\n      swap2\n      swap1\n      pop\n      jump\t// out\n        /* \"#utility.yul\":17011:17118   */\n    tag_200:\n        /* \"#utility.yul\":17055:17063   */\n      0x00\n        /* \"#utility.yul\":17105:17110   */\n      dup3\n        /* \"#utility.yul\":17099:17103   */\n      dup3\n        /* \"#utility.yul\":17095:17111   */\n      shl\n        /* \"#utility.yul\":17074:17111   */\n      swap1\n      pop\n        /* \"#utility.yul\":17011:17118   */\n      swap3\n      swap2\n      pop\n      pop\n      jump\t// out\n        /* \"#utility.yul\":17124:17517   */\n    tag_201:\n        /* \"#utility.yul\":17193:17199   */\n      0x00\n        /* \"#utility.yul\":17243:17244   */\n      0x08\n        /* \"#utility.yul\":17231:17241   */\n      dup4\n        /* \"#utility.yul\":17227:17245   */\n      mul\n        /* \"#utility.yul\":17266:17363   */\n      tag_371\n        /* \"#utility.yul\":17296:17362   */\n      0xffffffffffffffffffffffffffffffffffffffffffffffffffffffffffffffff\n        /* \"#utility.yul\":17285:17294   */\n      dup3\n        /* \"#utility.yul\":17266:17363   */\n      tag_200\n      jump\t// in\n    tag_371:\n        /* \"#utility.yul\":17384:17423   */\n      tag_372\n        /* \"#utility.yul\":17414:17422   */\n      dup7\n        /* \"#utility.yul\":17403:17412   */\n      dup4\n        /* \"#utility.yul\":17384:17423   */\n      tag_200\n      jump\t// in\n    tag_372:\n        /* \"#utility.yul\":17372:17423   */\n      swap6\n      pop\n        /* \"#utility.yul\":17456:17460   */\n      dup1\n        /* \"#utility.yul\":17452:17461   */\n      not\n        /* \"#utility.yul\":17445:17450   */\n      dup5\n        /* \"#utility.yul\":17441:17462   */\n      and\n        /* \"#utility.yul\":17432:17462   */\n      swap4\n      pop\n        /* \"#utility.yul\":17505:17509   */\n      dup1\n        /* \"#utility.yul\":17495:17503   */\n      dup7\n        /* \"#utility.yul\":17491:17510   */\n      and\n        /* \"#utility.yul\":17484:17489   */\n      dup5\n        /* \"#utility.yul\":17481:17511   */\n      or\n        /* \"#utility.yul\":17471:17511   */\n      swap3\n      pop\n        /* \"#utility.yul\":17200:17517   */\n      pop\n      pop\n        /* \"#utility.yul\":17124:17517   */\n      swap4\n      swap3\n      pop\n      pop\n      pop\n      jump\t// out\n        /* \"#utility.yul\":17523:17583   */\n    tag_202:\n        /* \"#utility.yul\":17551:17554   */\n      0x00\n        /* \"#utility.yul\":17572:17577   */\n      dup2\n        /* \"#utility.yul\":17565:17577   */\n      swap1\n      pop\n        /* \"#utility.yul\":17523:17583   */\n      swap2\n      swap1\n      pop\n      jump\t// out\n        /* \"#utility.yul\":17589:17731   */\n    tag_203:\n        /* \"#utility.yul\":17639:17648   */\n      0x00\n        /* \"#utility.yul\":17672:17725   */\n      tag_375\n        /* \"#utility.yul\":17690:17724   */\n      tag_376\n        /* \"#utility.yul\":17699:17723   */\n      tag_377\n        /* \"#utility.yul\":17717:17722   */\n      dup5\n        /* \"#utility.yul\":17699:17723   */\n      tag_161\n      jump\t// in\n    tag_377:\n        /* \"#utility.yul\":17690:17724   */\n      tag_202\n      jump\t// in\n    tag_376:\n        /* \"#utility.yul\":17672:17725   */\n      tag_161\n      jump\t// in\n    tag_375:\n        /* \"#utility.yul\":17659:17725   */\n      swap1\n      pop\n        /* \"#utility.yul\":17589:17731   */\n      swap2\n      swap1\n      pop\n      jump\t// out\n        /* \"#utility.yul\":17737:17812   */\n    tag_204:\n        /* \"#utility.yul\":17780:17783   */\n      0x00\n        /* \"#utility.yul\":17801:17806   */\n      dup2\n        /* \"#utility.yul\":17794:17806   */\n      swap1\n      pop\n        /* \"#utility.yul\":17737:17812   */\n      swap2\n      swap1\n      pop\n      jump\t// out\n        /* \"#utility.yul\":17818:18087   */\n    tag_205:\n        /* \"#utility.yul\":17928:17967   */\n      tag_380\n        /* \"#utility.yul\":17959:17966   */\n      dup4\n        /* \"#utility.yul\":17928:17967   */\n      tag_203\n      jump\t// in\n    tag_380:\n        /* \"#utility.yul\":17989:18080   */\n      tag_381\n        /* \"#utility.yul\":18038:18079   */\n      tag_382\n        /* \"#utility.yul\":18062:18078   */\n      dup3\n        /* \"#utility.yul\":18038:18079   */\n      tag_204\n      jump\t// in\n    tag_382:\n        /* \"#utility.yul\":18030:18036   */\n      dup5\n        /* \"#utility.yul\":18023:18027   */\n      dup5\n        /* \"#utility.yul\":18017:18028   */\n      sload\n        /* \"#utility.yul\":17989:18080   */\n      tag_201\n      jump\t// in\n    tag_381:\n        /* \"#utility.yul\":17983:17987   */\n      dup3\n        /* \"#utility.yul\":17976:18081   */\n      sstore\n        /* \"#utility.yul\":17894:18087   */\n      pop\n        /* \"#utility.yul\":17818:18087   */\n      pop\n      pop\n      pop\n      jump\t// out\n        /* \"#utility.yul\":18093:18166   */\n    tag_206:\n        /* \"#utility.yul\":18138:18141   */\n      0x00\n        /* \"#utility.yul\":18093:18166   */\n      swap1\n      jump\t// out\n        /* \"#utility.yul\":18172:18361   */\n    tag_207:\n        /* \"#utility.yul\":18249:18281   */\n      tag_385\n      tag_206\n      jump\t// in\n    tag_385:\n        /* \"#utility.yul\":18290:18355   */\n      tag_386\n        /* \"#utility.yul\":18348:18354   */\n      dup2\n        /* \"#utility.yul\":18340:18346   */\n      dup5\n        /* \"#utility.yul\":18334:18338   */\n      dup5\n        /* \"#utility.yul\":18290:18355   */\n      tag_205\n      jump\t// in\n    tag_386:\n        /* \"#utility.yul\":18225:18361   */\n      pop\n        /* \"#utility.yul\":18172:18361   */\n      pop\n      pop\n      jump\t// out\n        /* \"#utility.yul\":18367:18553   */\n    tag_208:\n        /* \"#utility.yul\":18427:18547   */\n    tag_388:\n        /* \"#utility.yul\":18444:18447   */\n      dup2\n        /* \"#utility.yul\":18437:18442   */\n      dup2\n        /* \"#utility.yul\":18434:18448   */\n      lt\n        /* \"#utility.yul\":18427:18547   */\n      iszero\n      tag_390\n      jumpi\n        /* \"#utility.yul\":18498:18537   */\n      tag_391\n        /* \"#utility.yul\":18535:18536   */\n      0x00\n        /* \"#utility.yul\":18528:18533   */\n      dup3\n        /* \"#utility.yul\":18498:18537   */\n      tag_207\n      jump\t// in\n    tag_391:\n        /* \"#utility.yul\":18471:18472   */\n      0x01\n        /* \"#utility.yul\":18464:18469   */\n      dup2\n        /* \"#utility.yul\":18460:18473   */\n      add\n        /* \"#utility.yul\":18451:18473   */\n      swap1\n      pop\n        /* \"#utility.yul\":18427:18547   */\n      jump(tag_388)\n    tag_390:\n        /* \"#utility.yul\":18367:18553   */\n      pop\n      pop\n      jump\t// out\n        /* \"#utility.yul\":18559:19102   */\n    tag_209:\n        /* \"#utility.yul\":18660:18662   */\n      0x1f\n        /* \"#utility.yul\":18655:18658   */\n      dup3\n        /* \"#utility.yul\":18652:18663   */\n      gt\n        /* \"#utility.yul\":18649:19095   */\n      iszero\n      tag_393\n      jumpi\n        /* \"#utility.yul\":18694:18732   */\n      tag_394\n        /* \"#utility.yul\":18726:18731   */\n      dup2\n        /* \"#utility.yul\":18694:18732   */\n      tag_198\n      jump\t// in\n    tag_394:\n        /* \"#utility.yul\":18778:18807   */\n      tag_395\n        /* \"#utility.yul\":18796:18806   */\n      dup5\n        /* \"#utility.yul\":18778:18807   */\n      tag_199\n      jump\t// in\n    tag_395:\n        /* \"#utility.yul\":18768:18776   */\n      dup2\n        /* \"#utility.yul\":18764:18808   */\n      add\n        /* \"#utility.yul\":18961:18963   */\n      0x20\n        /* \"#utility.yul\":18949:18959   */\n      dup6\n        /* \"#utility.yul\":18946:18964   */\n      lt\n        /* \"#utility.yul\":18943:18992   */\n      iszero\n      tag_396\n      jumpi\n        /* \"#utility.yul\":18982:18990   */\n      dup2\n        /* \"#utility.yul\":18967:18990   */\n      swap1\n      pop\n        /* \"#utility.yul\":18943:18992   */\n    tag_396:\n        /* \"#utility.yul\":19005:19085   */\n      tag_397\n        /* \"#utility.yul\":19061:19083   */\n      tag_398\n        /* \"#utility.yul\":19079:19082   */\n      dup6\n        /* \"#utility.yul\":19061:19083   */\n      tag_199\n      jump\t// in\n    tag_398:\n        /* \"#utility.yul\":19051:19059   */\n      dup4\n        /* \"#utility.yul\":19047:19084   */\n      add\n        /* \"#utility.yul\":19034:19045   */\n      dup3\n        /* \"#utility.yul\":19005:19085   */\n      tag_208\n      jump\t// in\n    tag_397:\n        /* \"#utility.yul\":18664:19095   */\n      pop\n      pop\n        /* \"#utility.yul\":18649:19095   */\n    tag_393:\n        /* \"#utility.yul\":18559:19102   */\n      pop\n      pop\n      pop\n      jump\t// out\n        /* \"#utility.yul\":19108:19225   */\n    tag_210:\n        /* \"#utility.yul\":19162:19170   */\n      0x00\n        /* \"#utility.yul\":19212:19217   */\n      dup3\n        /* \"#utility.yul\":19206:19210   */\n      dup3\n        /* \"#utility.yul\":19202:19218   */\n      shr\n        /* \"#utility.yul\":19181:19218   */\n      swap1\n      pop\n        /* \"#utility.yul\":19108:19225   */\n      swap3\n      swap2\n      pop\n      pop\n      jump\t// out\n        /* \"#utility.yul\":19231:19400   */\n    tag_211:\n        /* \"#utility.yul\":19275:19281   */\n      0x00\n        /* \"#utility.yul\":19308:19359   */\n      tag_401\n        /* \"#utility.yul\":19356:19357   */\n      0x00\n        /* \"#utility.yul\":19352:19358   */\n      not\n        /* \"#utility.yul\":19344:19349   */\n      dup5\n        /* \"#utility.yul\":19341:19342   */\n      0x08\n        /* \"#utility.yul\":19337:19350   */\n      mul\n        /* \"#utility.yul\":19308:19359   */\n      tag_210\n      jump\t// in\n    tag_401:\n        /* \"#utility.yul\":19304:19360   */\n      not\n        /* \"#utility.yul\":19389:19393   */\n      dup1\n        /* \"#utility.yul\":19383:19387   */\n      dup4\n        /* \"#utility.yul\":19379:19394   */\n      and\n        /* \"#utility.yul\":19369:19394   */\n      swap2\n      pop\n        /* \"#utility.yul\":19282:19400   */\n      pop\n        /* \"#utility.yul\":19231:19400   */\n      swap3\n      swap2\n      pop\n      pop\n      jump\t// out\n        /* \"#utility.yul\":19405:19700   */\n    tag_212:\n        /* \"#utility.yul\":19481:19485   */\n      0x00\n        /* \"#utility.yul\":19627:19656   */\n      tag_403\n        /* \"#utility.yul\":19652:19655   */\n      dup4\n        /* \"#utility.yul\":19646:19650   */\n      dup4\n        /* \"#utility.yul\":19627:19656   */\n      tag_211\n      jump\t// in\n    tag_403:\n        /* \"#utility.yul\":19619:19656   */\n      swap2\n      pop\n        /* \"#utility.yul\":19689:19692   */\n      dup3\n        /* \"#utility.yul\":19686:19687   */\n      0x02\n        /* \"#utility.yul\":19682:19693   */\n      mul\n        /* \"#utility.yul\":19676:19680   */\n      dup3\n        /* \"#utility.yul\":19673:19694   */\n      or\n        /* \"#utility.yul\":19665:19694   */\n      swap1\n      pop\n        /* \"#utility.yul\":19405:19700   */\n      swap3\n      swap2\n      pop\n      pop\n      jump\t// out\n        /* \"#utility.yul\":19705:21100   */\n    tag_100:\n        /* \"#utility.yul\":19822:19859   */\n      tag_405\n        /* \"#utility.yul\":19855:19858   */\n      dup3\n        /* \"#utility.yul\":19822:19859   */\n      tag_166\n      jump\t// in\n    tag_405:\n        /* \"#utility.yul\":19924:19942   */\n      0xffffffffffffffff\n        /* \"#utility.yul\":19916:19922   */\n      dup2\n        /* \"#utility.yul\":19913:19943   */\n      gt\n        /* \"#utility.yul\":19910:19966   */\n      iszero\n      tag_406\n      jumpi\n        /* \"#utility.yul\":19946:19964   */\n      tag_407\n      tag_184\n      jump\t// in\n    tag_407:\n        /* \"#utility.yul\":19910:19966   */\n    tag_406:\n        /* \"#utility.yul\":19990:20028   */\n      tag_408\n        /* \"#utility.yul\":20022:20026   */\n      dup3\n        /* \"#utility.yul\":20016:20027   */\n      sload\n        /* \"#utility.yul\":19990:20028   */\n      tag_56\n      jump\t// in\n    tag_408:\n        /* \"#utility.yul\":20075:20142   */\n      tag_409\n        /* \"#utility.yul\":20135:20141   */\n      dup3\n        /* \"#utility.yul\":20127:20133   */\n      dup3\n        /* \"#utility.yul\":20121:20125   */\n      dup6\n        /* \"#utility.yul\":20075:20142   */\n      tag_209\n      jump\t// in\n    tag_409:\n        /* \"#utility.yul\":20169:20170   */\n      0x00\n        /* \"#utility.yul\":20193:20197   */\n      0x20\n        /* \"#utility.yul\":20180:20197   */\n      swap1\n      pop\n        /* \"#utility.yul\":20225:20227   */\n      0x1f\n        /* \"#utility.yul\":20217:20223   */\n      dup4\n        /* \"#utility.yul\":20214:20228   */\n      gt\n        /* \"#utility.yul\":20242:20243   */\n      0x01\n        /* \"#utility.yul\":20237:20855   */\n      dup2\n      eq\n      tag_411\n      jumpi\n        /* \"#utility.yul\":20899:20900   */\n      0x00\n        /* \"#utility.yul\":20916:20922   */\n      dup5\n        /* \"#utility.yul\":20913:20990   */\n      iszero\n      tag_412\n      jumpi\n        /* \"#utility.yul\":20965:20974   */\n      dup3\n        /* \"#utility.yul\":20960:20963   */\n      dup8\n        /* \"#utility.yul\":20956:20975   */\n      add\n        /* \"#utility.yul\":20950:20976   */\n      mload\n        /* \"#utility.yul\":20941:20976   */\n      swap1\n      pop\n        /* \"#utility.yul\":20913:20990   */\n    tag_412:\n        /* \"#utility.yul\":21016:21083   */\n      tag_413\n        /* \"#utility.yul\":21076:21082   */\n      dup6\n        /* \"#utility.yul\":21069:21074   */\n      dup3\n        /* \"#utility.yul\":21016:21083   */\n      tag_212\n      jump\t// in\n    tag_413:\n        /* \"#utility.yul\":21010:21014   */\n      dup7\n        /* \"#utility.yul\":21003:21084   */\n      sstore\n        /* \"#utility.yul\":20872:21094   */\n      pop\n        /* \"#utility.yul\":20207:21094   */\n      jump(tag_410)\n        /* \"#utility.yul\":20237:20855   */\n    tag_411:\n        /* \"#utility.yul\":20289:20293   */\n      0x1f\n        /* \"#utility.yul\":20285:20294   */\n      not\n        /* \"#utility.yul\":20277:20283   */\n      dup5\n        /* \"#utility.yul\":20273:20295   */\n      and\n        /* \"#utility.yul\":20323:20360   */\n      tag_414\n        /* \"#utility.yul\":20355:20359   */\n      dup7\n        /* \"#utility.yul\":20323:20360   */\n      tag_198\n      jump\t// in\n    tag_414:\n        /* \"#utility.yul\":20382:20383   */\n      0x00\n        /* \"#utility.yul\":20396:20604   */\n    tag_415:\n        /* \"#utility.yul\":20410:20417   */\n      dup3\n        /* \"#utility.yul\":20407:20408   */\n      dup2\n        /* \"#utility.yul\":20404:20418   */\n      lt\n        /* \"#utility.yul\":20396:20604   */\n      iszero\n      tag_417\n      jumpi\n        /* \"#utility.yul\":20489:20498   */\n      dup5\n        /* \"#utility.yul\":20484:20487   */\n      dup10\n        /* \"#utility.yul\":20480:20499   */\n      add\n        /* \"#utility.yul\":20474:20500   */\n      mload\n        /* \"#utility.yul\":20466:20472   */\n      dup3\n        /* \"#utility.yul\":20459:20501   */\n      sstore\n        /* \"#utility.yul\":20540:20541   */\n      0x01\n        /* \"#utility.yul\":20532:20538   */\n      dup3\n        /* \"#utility.yul\":20528:20542   */\n      add\n        /* \"#utility.yul\":20518:20542   */\n      swap2\n      pop\n        /* \"#utility.yul\":20587:20589   */\n      0x20\n        /* \"#utility.yul\":20576:20585   */\n      dup6\n        /* \"#utility.yul\":20572:20590   */\n      add\n        /* \"#utility.yul\":20559:20590   */\n      swap5\n      pop\n        /* \"#utility.yul\":20433:20437   */\n      0x20\n        /* \"#utility.yul\":20430:20431   */\n      dup2\n        /* \"#utility.yul\":20426:20438   */\n      add\n        /* \"#utility.yul\":20421:20438   */\n      swap1\n      pop\n        /* \"#utility.yul\":20396:20604   */\n      jump(tag_415)\n    tag_417:\n        /* \"#utility.yul\":20632:20638   */\n      dup7\n        /* \"#utility.yul\":20623:20630   */\n      dup4\n        /* \"#utility.yul\":20620:20639   */\n      lt\n        /* \"#utility.yul\":20617:20796   */\n      iszero\n      tag_418\n      jumpi\n        /* \"#utility.yul\":20690:20699   */\n      dup5\n        /* \"#utility.yul\":20685:20688   */\n      dup10\n        /* \"#utility.yul\":20681:20700   */\n      add\n        /* \"#utility.yul\":20675:20701   */\n      mload\n        /* \"#utility.yul\":20733:20781   */\n      tag_419\n        /* \"#utility.yul\":20775:20779   */\n      0x1f\n        /* \"#utility.yul\":20767:20773   */\n      dup10\n        /* \"#utility.yul\":20763:20780   */\n      and\n        /* \"#utility.yul\":20752:20761   */\n      dup3\n        /* \"#utility.yul\":20733:20781   */\n      tag_211\n      jump\t// in\n    tag_419:\n        /* \"#utility.yul\":20725:20731   */\n      dup4\n        /* \"#utility.yul\":20718:20782   */\n      sstore\n        /* \"#utility.yul\":20640:20796   */\n      pop\n        /* \"#utility.yul\":20617:20796   */\n    tag_418:\n        /* \"#utility.yul\":20842:20843   */\n      0x01\n        /* \"#utility.yul\":20838:20839   */\n      0x02\n        /* \"#utility.yul\":20830:20836   */\n      dup9\n        /* \"#utility.yul\":20826:20840   */\n      mul\n        /* \"#utility.yul\":20822:20844   */\n      add\n        /* \"#utility.yul\":20816:20820   */\n      dup9\n        /* \"#utility.yul\":20809:20845   */\n      sstore\n        /* \"#utility.yul\":20244:20855   */\n      pop\n      pop\n      pop\n        /* \"#utility.yul\":20207:21094   */\n    tag_410:\n      pop\n        /* \"#utility.yul\":19797:21100   */\n      pop\n      pop\n      pop\n        /* \"#utility.yul\":19705:21100   */\n      pop\n      pop\n      jump\t// out\n        /* \"#utility.yul\":21106:21750   */\n    tag_102:\n        /* \"#utility.yul\":21303:21307   */\n      0x00\n        /* \"#utility.yul\":21341:21344   */\n      0x80\n        /* \"#utility.yul\":21330:21339   */\n      dup3\n        /* \"#utility.yul\":21326:21345   */\n      add\n        /* \"#utility.yul\":21318:21345   */\n      swap1\n      pop\n        /* \"#utility.yul\":21355:21426   */\n      tag_421\n        /* \"#utility.yul\":21423:21424   */\n      0x00\n        /* \"#utility.yul\":21412:21421   */\n      dup4\n        /* \"#utility.yul\":21408:21425   */\n      add\n        /* \"#utility.yul\":21399:21405   */\n      dup8\n        /* \"#utility.yul\":21355:21426   */\n      tag_164\n      jump\t// in\n    tag_421:\n        /* \"#utility.yul\":21436:21508   */\n      tag_422\n        /* \"#utility.yul\":21504:21506   */\n      0x20\n        /* \"#utility.yul\":21493:21502   */\n      dup4\n        /* \"#utility.yul\":21489:21507   */\n      add\n        /* \"#utility.yul\":21480:21486   */\n      dup7\n        /* \"#utility.yul\":21436:21508   */\n      tag_165\n      jump\t// in\n    tag_422:\n        /* \"#utility.yul\":21555:21564   */\n      dup2\n        /* \"#utility.yul\":21549:21553   */\n      dup2\n        /* \"#utility.yul\":21545:21565   */\n      sub\n        /* \"#utility.yul\":21540:21542   */\n      0x40\n        /* \"#utility.yul\":21529:21538   */\n      dup4\n        /* \"#utility.yul\":21525:21543   */\n      add\n        /* \"#utility.yul\":21518:21566   */\n      mstore\n        /* \"#utility.yul\":21583:21661   */\n      tag_423\n        /* \"#utility.yul\":21656:21660   */\n      dup2\n        /* \"#utility.yul\":21647:21653   */\n      dup6\n        /* \"#utility.yul\":21583:21661   */\n      tag_170\n      jump\t// in\n    tag_423:\n        /* \"#utility.yul\":21575:21661   */\n      swap1\n      pop\n        /* \"#utility.yul\":21671:21743   */\n      tag_424\n        /* \"#utility.yul\":21739:21741   */\n      0x60\n        /* \"#utility.yul\":21728:21737   */\n      dup4\n        /* \"#utility.yul\":21724:21742   */\n      add\n        /* \"#utility.yul\":21715:21721   */\n      dup5\n        /* \"#utility.yul\":21671:21743   */\n      tag_164\n      jump\t// in\n    tag_424:\n        /* \"#utility.yul\":21106:21750   */\n      swap6\n      swap5\n      pop\n      pop\n      pop\n      pop\n      pop\n      jump\t// out\n        /* \"#utility.yul\":21756:21924   */\n    tag_213:\n        /* \"#utility.yul\":21896:21916   */\n      0x547765657420686173206e6f206c696b65730000000000000000000000000000\n        /* \"#utility.yul\":21892:21893   */\n      0x00\n        /* \"#utility.yul\":21884:21890   */\n      dup3\n        /* \"#utility.yul\":21880:21894   */\n      add\n        /* \"#utility.yul\":21873:21917   */\n      mstore\n        /* \"#utility.yul\":21756:21924   */\n      pop\n      jump\t// out\n        /* \"#utility.yul\":21930:22296   */\n    tag_214:\n        /* \"#utility.yul\":22072:22075   */\n      0x00\n        /* \"#utility.yul\":22093:22160   */\n      tag_427\n        /* \"#utility.yul\":22157:22159   */\n      0x12\n        /* \"#utility.yul\":22152:22155   */\n      dup4\n        /* \"#utility.yul\":22093:22160   */\n      tag_167\n      jump\t// in\n    tag_427:\n        /* \"#utility.yul\":22086:22160   */\n      swap2\n      pop\n        /* \"#utility.yul\":22169:22262   */\n      tag_428\n        /* \"#utility.yul\":22258:22261   */\n      dup3\n        /* \"#utility.yul\":22169:22262   */\n      tag_213\n      jump\t// in\n    tag_428:\n        /* \"#utility.yul\":22287:22289   */\n      0x20\n        /* \"#utility.yul\":22282:22285   */\n      dup3\n        /* \"#utility.yul\":22278:22290   */\n      add\n        /* \"#utility.yul\":22271:22290   */\n      swap1\n      pop\n        /* \"#utility.yul\":21930:22296   */\n      swap2\n      swap1\n      pop\n      jump\t// out\n        /* \"#utility.yul\":22302:22721   */\n    tag_118:\n        /* \"#utility.yul\":22468:22472   */\n      0x00\n        /* \"#utility.yul\":22506:22508   */\n      0x20\n        /* \"#utility.yul\":22495:22504   */\n      dup3\n        /* \"#utility.yul\":22491:22509   */\n      add\n        /* \"#utility.yul\":22483:22509   */\n      swap1\n      pop\n        /* \"#utility.yul\":22555:22564   */\n      dup2\n        /* \"#utility.yul\":22549:22553   */\n      dup2\n        /* \"#utility.yul\":22545:22565   */\n      sub\n        /* \"#utility.yul\":22541:22542   */\n      0x00\n        /* \"#utility.yul\":22530:22539   */\n      dup4\n        /* \"#utility.yul\":22526:22543   */\n      add\n        /* \"#utility.yul\":22519:22566   */\n      mstore\n        /* \"#utility.yul\":22583:22714   */\n      tag_430\n        /* \"#utility.yul\":22709:22713   */\n      dup2\n        /* \"#utility.yul\":22583:22714   */\n      tag_214\n      jump\t// in\n    tag_430:\n        /* \"#utility.yul\":22575:22714   */\n      swap1\n      pop\n        /* \"#utility.yul\":22302:22721   */\n      swap2\n      swap1\n      pop\n      jump\t// out\n        /* \"#utility.yul\":22727:22898   */\n    tag_123:\n        /* \"#utility.yul\":22766:22769   */\n      0x00\n        /* \"#utility.yul\":22789:22813   */\n      tag_432\n        /* \"#utility.yul\":22807:22812   */\n      dup3\n        /* \"#utility.yul\":22789:22813   */\n      tag_161\n      jump\t// in\n    tag_432:\n        /* \"#utility.yul\":22780:22813   */\n      swap2\n      pop\n        /* \"#utility.yul\":22835:22839   */\n      0x00\n        /* \"#utility.yul\":22828:22833   */\n      dup3\n        /* \"#utility.yul\":22825:22840   */\n      sub\n        /* \"#utility.yul\":22822:22863   */\n      tag_433\n      jumpi\n        /* \"#utility.yul\":22843:22861   */\n      tag_434\n      tag_195\n      jump\t// in\n    tag_434:\n        /* \"#utility.yul\":22822:22863   */\n    tag_433:\n        /* \"#utility.yul\":22890:22891   */\n      0x01\n        /* \"#utility.yul\":22883:22888   */\n      dup3\n        /* \"#utility.yul\":22879:22892   */\n      sub\n        /* \"#utility.yul\":22872:22892   */\n      swap1\n      pop\n        /* \"#utility.yul\":22727:22898   */\n      swap2\n      swap1\n      pop\n      jump\t// out\n\n    auxdata: 0xa264697066735822122011dd4c07d76ee14da1d6990d0a67e140045d8e65b0c0d392c7c5552762f8ba6f64736f6c634300081a0033\n}\n",
				"bytecode": {
					"linkReferences": {},
					"object": "608060405234801561000f575f80fd5b50335f73ffffffffffffffffffffffffffffffffffffffff168173ffffffffffffffffffffffffffffffffffffffff1603610081575f6040517f1e4fbdf7000000000000000000000000000000000000000000000000000000008152600401610078919061019f565b60405180910390fd5b6100908161009f60201b60201c565b506101186001819055506101b8565b5f805f9054906101000a900473ffffffffffffffffffffffffffffffffffffffff169050815f806101000a81548173ffffffffffffffffffffffffffffffffffffffff021916908373ffffffffffffffffffffffffffffffffffffffff1602179055508173ffffffffffffffffffffffffffffffffffffffff168173ffffffffffffffffffffffffffffffffffffffff167f8be0079c531659141344cd1fd0a4f28419497f9722a3daafe3b4186f6b6457e060405160405180910390a35050565b5f73ffffffffffffffffffffffffffffffffffffffff82169050919050565b5f61018982610160565b9050919050565b6101998161017f565b82525050565b5f6020820190506101b25f830184610190565b92915050565b6119a4806101c55f395ff3fe608060405234801561000f575f80fd5b506004361061009c575f3560e01c8063888a788011610064578063888a7880146101345780638da5cb5b146101505780639ef8633f1461016e578063c3ad5ecb1461018a578063f2fde38b146101ba5761009c565b806305a1b4a9146100a057806363378216146100d4578063675e0fb7146100f0578063715018a61461010e5780637c9cd2bc14610118575b5f80fd5b6100ba60048036038101906100b59190610ecb565b6101d6565b6040516100cb959493929190610f97565b60405180910390f35b6100ee60048036038101906100e99190610ecb565b6102c7565b005b6100f8610478565b6040516101059190611183565b60405180910390f35b610116610611565b005b610132600480360381019061012d91906112cf565b610624565b005b61014e60048036038101906101499190611316565b610818565b005b61015861082a565b6040516101659190611341565b60405180910390f35b61018860048036038101906101839190610ecb565b610851565b005b6101a4600480360381019061019f9190611316565b610aa2565b6040516101b191906113cd565b60405180910390f35b6101d460048036038101906101cf91906113ed565b610c19565b005b6002602052815f5260405f2081815481106101ef575f80fd5b905f5260205f2090600502015f9150915050805f015490806001015f9054906101000a900473ffffffffffffffffffffffffffffffffffffffff169080600201805461023a90611445565b80601f016020809104026020016040519081016040528092919081815260200182805461026690611445565b80156102b15780601f10610288576101008083540402835291602001916102b1565b820191905f5260205f20905b81548152906001019060200180831161029457829003601f168201915b5050505050908060030154908060040154905085565b8060025f8473ffffffffffffffffffffffffffffffffffffffff1673ffffffffffffffffffffffffffffffffffffffff1681526020019081526020015f20828154811061031757610316611475565b5b905f5260205f2090600502015f015414610366576040517f08c379a000000000000000000000000000000000000000000000000000000000815260040161035d906114ec565b60405180910390fd5b60025f8373ffffffffffffffffffffffffffffffffffffffff1673ffffffffffffffffffffffffffffffffffffffff1681526020019081526020015f2081815481106103b5576103b4611475565b5b905f5260205f2090600502016004015f8154809291906103d490611537565b91905055507f5bd959f96efc2338d934ab72127be36035ff98de2f1584d2951239db17662d2133828460025f8773ffffffffffffffffffffffffffffffffffffffff1673ffffffffffffffffffffffffffffffffffffffff1681526020019081526020015f20858154811061044c5761044b611475565b5b905f5260205f2090600502016004015460405161046c949392919061157e565b60405180910390a15050565b606060025f3373ffffffffffffffffffffffffffffffffffffffff1673ffffffffffffffffffffffffffffffffffffffff1681526020019081526020015f20805480602002602001604051908101604052809291908181526020015f905b82821015610608578382905f5260205f2090600502016040518060a00160405290815f8201548152602001600182015f9054906101000a900473ffffffffffffffffffffffffffffffffffffffff1673ffffffffffffffffffffffffffffffffffffffff1673ffffffffffffffffffffffffffffffffffffffff16815260200160028201805461056590611445565b80601f016020809104026020016040519081016040528092919081815260200182805461059190611445565b80156105dc5780601f106105b3576101008083540402835291602001916105dc565b820191905f5260205f20905b8154815290600101906020018083116105bf57829003601f168201915b5050505050815260200160038201548152602001600482015481525050815260200190600101906104d6565b50505050905090565b610619610c9d565b6106225f610d24565b565b6001548151111561066a576040517f08c379a00000000000000000000000000000000000000000000000000000000081526004016106619061160b565b60405180910390fd5b5f6040518060a0016040528060025f3373ffffffffffffffffffffffffffffffffffffffff1673ffffffffffffffffffffffffffffffffffffffff1681526020019081526020015f208054905081526020013373ffffffffffffffffffffffffffffffffffffffff1681526020018381526020014281526020015f815250905060025f3373ffffffffffffffffffffffffffffffffffffffff1673ffffffffffffffffffffffffffffffffffffffff1681526020019081526020015f2081908060018154018082558091505060019003905f5260205f2090600502015f909190919091505f820151815f01556020820151816001015f6101000a81548173ffffffffffffffffffffffffffffffffffffffff021916908373ffffffffffffffffffffffffffffffffffffffff16021790555060408201518160020190816107b191906117c6565b50606082015181600301556080820151816004015550507f6e5546a74a8ef6731872256d3bbbf86208675b875b179abed63f4ed747a30cfb815f015182602001518360400151846060015160405161080c9493929190611895565b60405180910390a15050565b610820610c9d565b8060018190555050565b5f805f9054906101000a900473ffffffffffffffffffffffffffffffffffffffff16905090565b8060025f8473ffffffffffffffffffffffffffffffffffffffff1673ffffffffffffffffffffffffffffffffffffffff1681526020019081526020015f2082815481106108a1576108a0611475565b5b905f5260205f2090600502015f0154146108f0576040517f08c379a00000000000000000000000000000000000000000000000000000000081526004016108e7906114ec565b60405180910390fd5b5f60025f8473ffffffffffffffffffffffffffffffffffffffff1673ffffffffffffffffffffffffffffffffffffffff1681526020019081526020015f2082815481106109405761093f611475565b5b905f5260205f2090600502016004015411610990576040517f08c379a000000000000000000000000000000000000000000000000000000000815260040161098790611929565b60405180910390fd5b60025f8373ffffffffffffffffffffffffffffffffffffffff1673ffffffffffffffffffffffffffffffffffffffff1681526020019081526020015f2081815481106109df576109de611475565b5b905f5260205f2090600502016004015f8154809291906109fe90611947565b91905055507f5bd959f96efc2338d934ab72127be36035ff98de2f1584d2951239db17662d2133828460025f8773ffffffffffffffffffffffffffffffffffffffff1673ffffffffffffffffffffffffffffffffffffffff1681526020019081526020015f208581548110610a7657610a75611475565b5b905f5260205f20906005020160040154604051610a96949392919061157e565b60405180910390a15050565b610aaa610dec565b60025f3373ffffffffffffffffffffffffffffffffffffffff1673ffffffffffffffffffffffffffffffffffffffff1681526020019081526020015f208281548110610af957610af8611475565b5b905f5260205f2090600502016040518060a00160405290815f8201548152602001600182015f9054906101000a900473ffffffffffffffffffffffffffffffffffffffff1673ffffffffffffffffffffffffffffffffffffffff1673ffffffffffffffffffffffffffffffffffffffff168152602001600282018054610b7e90611445565b80601f0160208091040260200160405190810160405280929190818152602001828054610baa90611445565b8015610bf55780601f10610bcc57610100808354040283529160200191610bf5565b820191905f5260205f20905b815481529060010190602001808311610bd857829003601f168201915b50505050508152602001600382015481526020016004820154815250509050919050565b610c21610c9d565b5f73ffffffffffffffffffffffffffffffffffffffff168173ffffffffffffffffffffffffffffffffffffffff1603610c91575f6040517f1e4fbdf7000000000000000000000000000000000000000000000000000000008152600401610c889190611341565b60405180910390fd5b610c9a81610d24565b50565b610ca5610de5565b73ffffffffffffffffffffffffffffffffffffffff16610cc361082a565b73ffffffffffffffffffffffffffffffffffffffff1614610d2257610ce6610de5565b6040517f118cdaa7000000000000000000000000000000000000000000000000000000008152600401610d199190611341565b60405180910390fd5b565b5f805f9054906101000a900473ffffffffffffffffffffffffffffffffffffffff169050815f806101000a81548173ffffffffffffffffffffffffffffffffffffffff021916908373ffffffffffffffffffffffffffffffffffffffff1602179055508173ffffffffffffffffffffffffffffffffffffffff168173ffffffffffffffffffffffffffffffffffffffff167f8be0079c531659141344cd1fd0a4f28419497f9722a3daafe3b4186f6b6457e060405160405180910390a35050565b5f33905090565b6040518060a001604052805f81526020015f73ffffffffffffffffffffffffffffffffffffffff168152602001606081526020015f81526020015f81525090565b5f604051905090565b5f80fd5b5f80fd5b5f73ffffffffffffffffffffffffffffffffffffffff82169050919050565b5f610e6782610e3e565b9050919050565b610e7781610e5d565b8114610e81575f80fd5b50565b5f81359050610e9281610e6e565b92915050565b5f819050919050565b610eaa81610e98565b8114610eb4575f80fd5b50565b5f81359050610ec581610ea1565b92915050565b5f8060408385031215610ee157610ee0610e36565b5b5f610eee85828601610e84565b9250506020610eff85828601610eb7565b9150509250929050565b610f1281610e98565b82525050565b610f2181610e5d565b82525050565b5f81519050919050565b5f82825260208201905092915050565b8281835e5f83830152505050565b5f601f19601f8301169050919050565b5f610f6982610f27565b610f738185610f31565b9350610f83818560208601610f41565b610f8c81610f4f565b840191505092915050565b5f60a082019050610faa5f830188610f09565b610fb76020830187610f18565b8181036040830152610fc98186610f5f565b9050610fd86060830185610f09565b610fe56080830184610f09565b9695505050505050565b5f81519050919050565b5f82825260208201905092915050565b5f819050602082019050919050565b61102181610e98565b82525050565b61103081610e5d565b82525050565b5f82825260208201905092915050565b5f61105082610f27565b61105a8185611036565b935061106a818560208601610f41565b61107381610f4f565b840191505092915050565b5f60a083015f8301516110935f860182611018565b5060208301516110a66020860182611027565b50604083015184820360408601526110be8282611046565b91505060608301516110d36060860182611018565b5060808301516110e66080860182611018565b508091505092915050565b5f6110fc838361107e565b905092915050565b5f602082019050919050565b5f61111a82610fef565b6111248185610ff9565b93508360208202850161113685611009565b805f5b85811015611171578484038952815161115285826110f1565b945061115d83611104565b925060208a01995050600181019050611139565b50829750879550505050505092915050565b5f6020820190508181035f83015261119b8184611110565b905092915050565b5f80fd5b5f80fd5b7f4e487b71000000000000000000000000000000000000000000000000000000005f52604160045260245ffd5b6111e182610f4f565b810181811067ffffffffffffffff82111715611200576111ff6111ab565b5b80604052505050565b5f611212610e2d565b905061121e82826111d8565b919050565b5f67ffffffffffffffff82111561123d5761123c6111ab565b5b61124682610f4f565b9050602081019050919050565b828183375f83830152505050565b5f61127361126e84611223565b611209565b90508281526020810184848401111561128f5761128e6111a7565b5b61129a848285611253565b509392505050565b5f82601f8301126112b6576112b56111a3565b5b81356112c6848260208601611261565b91505092915050565b5f602082840312156112e4576112e3610e36565b5b5f82013567ffffffffffffffff81111561130157611300610e3a565b5b61130d848285016112a2565b91505092915050565b5f6020828403121561132b5761132a610e36565b5b5f61133884828501610eb7565b91505092915050565b5f6020820190506113545f830184610f18565b92915050565b5f60a083015f83015161136f5f860182611018565b5060208301516113826020860182611027565b506040830151848203604086015261139a8282611046565b91505060608301516113af6060860182611018565b5060808301516113c26080860182611018565b508091505092915050565b5f6020820190508181035f8301526113e5818461135a565b905092915050565b5f6020828403121561140257611401610e36565b5b5f61140f84828501610e84565b91505092915050565b7f4e487b71000000000000000000000000000000000000000000000000000000005f52602260045260245ffd5b5f600282049050600182168061145c57607f821691505b60208210810361146f5761146e611418565b5b50919050565b7f4e487b71000000000000000000000000000000000000000000000000000000005f52603260045260245ffd5b7f547765657420646f6573206e6f742065786973740000000000000000000000005f82015250565b5f6114d6601483610f31565b91506114e1826114a2565b602082019050919050565b5f6020820190508181035f830152611503816114ca565b9050919050565b7f4e487b71000000000000000000000000000000000000000000000000000000005f52601160045260245ffd5b5f61154182610e98565b91507fffffffffffffffffffffffffffffffffffffffffffffffffffffffffffffffff82036115735761157261150a565b5b600182019050919050565b5f6080820190506115915f830187610f18565b61159e6020830186610f09565b6115ab6040830185610f18565b6115b86060830184610f09565b95945050505050565b7f547765657420697320746f6f206c6f6e670000000000000000000000000000005f82015250565b5f6115f5601183610f31565b9150611600826115c1565b602082019050919050565b5f6020820190508181035f830152611622816115e9565b9050919050565b5f819050815f5260205f209050919050565b5f6020601f8301049050919050565b5f82821b905092915050565b5f600883026116857fffffffffffffffffffffffffffffffffffffffffffffffffffffffffffffffff8261164a565b61168f868361164a565b95508019841693508086168417925050509392505050565b5f819050919050565b5f6116ca6116c56116c084610e98565b6116a7565b610e98565b9050919050565b5f819050919050565b6116e3836116b0565b6116f76116ef826116d1565b848454611656565b825550505050565b5f90565b61170b6116ff565b6117168184846116da565b505050565b5b818110156117395761172e5f82611703565b60018101905061171c565b5050565b601f82111561177e5761174f81611629565b6117588461163b565b81016020851015611767578190505b61177b6117738561163b565b83018261171b565b50505b505050565b5f82821c905092915050565b5f61179e5f1984600802611783565b1980831691505092915050565b5f6117b6838361178f565b9150826002028217905092915050565b6117cf82610f27565b67ffffffffffffffff8111156117e8576117e76111ab565b5b6117f28254611445565b6117fd82828561173d565b5f60209050601f83116001811461182e575f841561181c578287015190505b61182685826117ab565b86555061188d565b601f19841661183c86611629565b5f5b828110156118635784890151825560018201915060208501945060208101905061183e565b86831015611880578489015161187c601f89168261178f565b8355505b6001600288020188555050505b505050505050565b5f6080820190506118a85f830187610f09565b6118b56020830186610f18565b81810360408301526118c78185610f5f565b90506118d66060830184610f09565b95945050505050565b7f547765657420686173206e6f206c696b657300000000000000000000000000005f82015250565b5f611913601283610f31565b915061191e826118df565b602082019050919050565b5f6020820190508181035f83015261194081611907565b9050919050565b5f61195182610e98565b91505f82036119635761196261150a565b5b60018203905091905056fea264697066735822122011dd4c07d76ee14da1d6990d0a67e140045d8e65b0c0d392c7c5552762f8ba6f64736f6c634300081a0033",
					"opcodes": "PUSH1 0x80 PUSH1 0x40 MSTORE CALLVALUE DUP1 ISZERO PUSH2 0xF JUMPI PUSH0 DUP1 REVERT JUMPDEST POP CALLER PUSH0 PUSH20 0xFFFFFFFFFFFFFFFFFFFFFFFFFFFFFFFFFFFFFFFF AND DUP2 PUSH20 0xFFFFFFFFFFFFFFFFFFFFFFFFFFFFFFFFFFFFFFFF AND SUB PUSH2 0x81 JUMPI PUSH0 PUSH1 0x40 MLOAD PUSH32 0x1E4FBDF700000000000000000000000000000000000000000000000000000000 DUP2 MSTORE PUSH1 0x4 ADD PUSH2 0x78 SWAP2 SWAP1 PUSH2 0x19F JUMP JUMPDEST PUSH1 0x40 MLOAD DUP1 SWAP2 SUB SWAP1 REVERT JUMPDEST PUSH2 0x90 DUP2 PUSH2 0x9F PUSH1 0x20 SHL PUSH1 0x20 SHR JUMP JUMPDEST POP PUSH2 0x118 PUSH1 0x1 DUP2 SWAP1 SSTORE POP PUSH2 0x1B8 JUMP JUMPDEST PUSH0 DUP1 PUSH0 SWAP1 SLOAD SWAP1 PUSH2 0x100 EXP SWAP1 DIV PUSH20 0xFFFFFFFFFFFFFFFFFFFFFFFFFFFFFFFFFFFFFFFF AND SWAP1 POP DUP2 PUSH0 DUP1 PUSH2 0x100 EXP DUP2 SLOAD DUP2 PUSH20 0xFFFFFFFFFFFFFFFFFFFFFFFFFFFFFFFFFFFFFFFF MUL NOT AND SWAP1 DUP4 PUSH20 0xFFFFFFFFFFFFFFFFFFFFFFFFFFFFFFFFFFFFFFFF AND MUL OR SWAP1 SSTORE POP DUP2 PUSH20 0xFFFFFFFFFFFFFFFFFFFFFFFFFFFFFFFFFFFFFFFF AND DUP2 PUSH20 0xFFFFFFFFFFFFFFFFFFFFFFFFFFFFFFFFFFFFFFFF AND PUSH32 0x8BE0079C531659141344CD1FD0A4F28419497F9722A3DAAFE3B4186F6B6457E0 PUSH1 0x40 MLOAD PUSH1 0x40 MLOAD DUP1 SWAP2 SUB SWAP1 LOG3 POP POP JUMP JUMPDEST PUSH0 PUSH20 0xFFFFFFFFFFFFFFFFFFFFFFFFFFFFFFFFFFFFFFFF DUP3 AND SWAP1 POP SWAP2 SWAP1 POP JUMP JUMPDEST PUSH0 PUSH2 0x189 DUP3 PUSH2 0x160 JUMP JUMPDEST SWAP1 POP SWAP2 SWAP1 POP JUMP JUMPDEST PUSH2 0x199 DUP2 PUSH2 0x17F JUMP JUMPDEST DUP3 MSTORE POP POP JUMP JUMPDEST PUSH0 PUSH1 0x20 DUP3 ADD SWAP1 POP PUSH2 0x1B2 PUSH0 DUP4 ADD DUP5 PUSH2 0x190 JUMP JUMPDEST SWAP3 SWAP2 POP POP JUMP JUMPDEST PUSH2 0x19A4 DUP1 PUSH2 0x1C5 PUSH0 CODECOPY PUSH0 RETURN INVALID PUSH1 0x80 PUSH1 0x40 MSTORE CALLVALUE DUP1 ISZERO PUSH2 0xF JUMPI PUSH0 DUP1 REVERT JUMPDEST POP PUSH1 0x4 CALLDATASIZE LT PUSH2 0x9C JUMPI PUSH0 CALLDATALOAD PUSH1 0xE0 SHR DUP1 PUSH4 0x888A7880 GT PUSH2 0x64 JUMPI DUP1 PUSH4 0x888A7880 EQ PUSH2 0x134 JUMPI DUP1 PUSH4 0x8DA5CB5B EQ PUSH2 0x150 JUMPI DUP1 PUSH4 0x9EF8633F EQ PUSH2 0x16E JUMPI DUP1 PUSH4 0xC3AD5ECB EQ PUSH2 0x18A JUMPI DUP1 PUSH4 0xF2FDE38B EQ PUSH2 0x1BA JUMPI PUSH2 0x9C JUMP JUMPDEST DUP1 PUSH4 0x5A1B4A9 EQ PUSH2 0xA0 JUMPI DUP1 PUSH4 0x63378216 EQ PUSH2 0xD4 JUMPI DUP1 PUSH4 0x675E0FB7 EQ PUSH2 0xF0 JUMPI DUP1 PUSH4 0x715018A6 EQ PUSH2 0x10E JUMPI DUP1 PUSH4 0x7C9CD2BC EQ PUSH2 0x118 JUMPI JUMPDEST PUSH0 DUP1 REVERT JUMPDEST PUSH2 0xBA PUSH1 0x4 DUP1 CALLDATASIZE SUB DUP2 ADD SWAP1 PUSH2 0xB5 SWAP2 SWAP1 PUSH2 0xECB JUMP JUMPDEST PUSH2 0x1D6 JUMP JUMPDEST PUSH1 0x40 MLOAD PUSH2 0xCB SWAP6 SWAP5 SWAP4 SWAP3 SWAP2 SWAP1 PUSH2 0xF97 JUMP JUMPDEST PUSH1 0x40 MLOAD DUP1 SWAP2 SUB SWAP1 RETURN JUMPDEST PUSH2 0xEE PUSH1 0x4 DUP1 CALLDATASIZE SUB DUP2 ADD SWAP1 PUSH2 0xE9 SWAP2 SWAP1 PUSH2 0xECB JUMP JUMPDEST PUSH2 0x2C7 JUMP JUMPDEST STOP JUMPDEST PUSH2 0xF8 PUSH2 0x478 JUMP JUMPDEST PUSH1 0x40 MLOAD PUSH2 0x105 SWAP2 SWAP1 PUSH2 0x1183 JUMP JUMPDEST PUSH1 0x40 MLOAD DUP1 SWAP2 SUB SWAP1 RETURN JUMPDEST PUSH2 0x116 PUSH2 0x611 JUMP JUMPDEST STOP JUMPDEST PUSH2 0x132 PUSH1 0x4 DUP1 CALLDATASIZE SUB DUP2 ADD SWAP1 PUSH2 0x12D SWAP2 SWAP1 PUSH2 0x12CF JUMP JUMPDEST PUSH2 0x624 JUMP JUMPDEST STOP JUMPDEST PUSH2 0x14E PUSH1 0x4 DUP1 CALLDATASIZE SUB DUP2 ADD SWAP1 PUSH2 0x149 SWAP2 SWAP1 PUSH2 0x1316 JUMP JUMPDEST PUSH2 0x818 JUMP JUMPDEST STOP JUMPDEST PUSH2 0x158 PUSH2 0x82A JUMP JUMPDEST PUSH1 0x40 MLOAD PUSH2 0x165 SWAP2 SWAP1 PUSH2 0x1341 JUMP JUMPDEST PUSH1 0x40 MLOAD DUP1 SWAP2 SUB SWAP1 RETURN JUMPDEST PUSH2 0x188 PUSH1 0x4 DUP1 CALLDATASIZE SUB DUP2 ADD SWAP1 PUSH2 0x183 SWAP2 SWAP1 PUSH2 0xECB JUMP JUMPDEST PUSH2 0x851 JUMP JUMPDEST STOP JUMPDEST PUSH2 0x1A4 PUSH1 0x4 DUP1 CALLDATASIZE SUB DUP2 ADD SWAP1 PUSH2 0x19F SWAP2 SWAP1 PUSH2 0x1316 JUMP JUMPDEST PUSH2 0xAA2 JUMP JUMPDEST PUSH1 0x40 MLOAD PUSH2 0x1B1 SWAP2 SWAP1 PUSH2 0x13CD JUMP JUMPDEST PUSH1 0x40 MLOAD DUP1 SWAP2 SUB SWAP1 RETURN JUMPDEST PUSH2 0x1D4 PUSH1 0x4 DUP1 CALLDATASIZE SUB DUP2 ADD SWAP1 PUSH2 0x1CF SWAP2 SWAP1 PUSH2 0x13ED JUMP JUMPDEST PUSH2 0xC19 JUMP JUMPDEST STOP JUMPDEST PUSH1 0x2 PUSH1 0x20 MSTORE DUP2 PUSH0 MSTORE PUSH1 0x40 PUSH0 KECCAK256 DUP2 DUP2 SLOAD DUP2 LT PUSH2 0x1EF JUMPI PUSH0 DUP1 REVERT JUMPDEST SWAP1 PUSH0 MSTORE PUSH1 0x20 PUSH0 KECCAK256 SWAP1 PUSH1 0x5 MUL ADD PUSH0 SWAP2 POP SWAP2 POP POP DUP1 PUSH0 ADD SLOAD SWAP1 DUP1 PUSH1 0x1 ADD PUSH0 SWAP1 SLOAD SWAP1 PUSH2 0x100 EXP SWAP1 DIV PUSH20 0xFFFFFFFFFFFFFFFFFFFFFFFFFFFFFFFFFFFFFFFF AND SWAP1 DUP1 PUSH1 0x2 ADD DUP1 SLOAD PUSH2 0x23A SWAP1 PUSH2 0x1445 JUMP JUMPDEST DUP1 PUSH1 0x1F ADD PUSH1 0x20 DUP1 SWAP2 DIV MUL PUSH1 0x20 ADD PUSH1 0x40 MLOAD SWAP1 DUP2 ADD PUSH1 0x40 MSTORE DUP1 SWAP3 SWAP2 SWAP1 DUP2 DUP2 MSTORE PUSH1 0x20 ADD DUP3 DUP1 SLOAD PUSH2 0x266 SWAP1 PUSH2 0x1445 JUMP JUMPDEST DUP1 ISZERO PUSH2 0x2B1 JUMPI DUP1 PUSH1 0x1F LT PUSH2 0x288 JUMPI PUSH2 0x100 DUP1 DUP4 SLOAD DIV MUL DUP4 MSTORE SWAP2 PUSH1 0x20 ADD SWAP2 PUSH2 0x2B1 JUMP JUMPDEST DUP3 ADD SWAP2 SWAP1 PUSH0 MSTORE PUSH1 0x20 PUSH0 KECCAK256 SWAP1 JUMPDEST DUP2 SLOAD DUP2 MSTORE SWAP1 PUSH1 0x1 ADD SWAP1 PUSH1 0x20 ADD DUP1 DUP4 GT PUSH2 0x294 JUMPI DUP3 SWAP1 SUB PUSH1 0x1F AND DUP3 ADD SWAP2 JUMPDEST POP POP POP POP POP SWAP1 DUP1 PUSH1 0x3 ADD SLOAD SWAP1 DUP1 PUSH1 0x4 ADD SLOAD SWAP1 POP DUP6 JUMP JUMPDEST DUP1 PUSH1 0x2 PUSH0 DUP5 PUSH20 0xFFFFFFFFFFFFFFFFFFFFFFFFFFFFFFFFFFFFFFFF AND PUSH20 0xFFFFFFFFFFFFFFFFFFFFFFFFFFFFFFFFFFFFFFFF AND DUP2 MSTORE PUSH1 0x20 ADD SWAP1 DUP2 MSTORE PUSH1 0x20 ADD PUSH0 KECCAK256 DUP3 DUP2 SLOAD DUP2 LT PUSH2 0x317 JUMPI PUSH2 0x316 PUSH2 0x1475 JUMP JUMPDEST JUMPDEST SWAP1 PUSH0 MSTORE PUSH1 0x20 PUSH0 KECCAK256 SWAP1 PUSH1 0x5 MUL ADD PUSH0 ADD SLOAD EQ PUSH2 0x366 JUMPI PUSH1 0x40 MLOAD PUSH32 0x8C379A000000000000000000000000000000000000000000000000000000000 DUP2 MSTORE PUSH1 0x4 ADD PUSH2 0x35D SWAP1 PUSH2 0x14EC JUMP JUMPDEST PUSH1 0x40 MLOAD DUP1 SWAP2 SUB SWAP1 REVERT JUMPDEST PUSH1 0x2 PUSH0 DUP4 PUSH20 0xFFFFFFFFFFFFFFFFFFFFFFFFFFFFFFFFFFFFFFFF AND PUSH20 0xFFFFFFFFFFFFFFFFFFFFFFFFFFFFFFFFFFFFFFFF AND DUP2 MSTORE PUSH1 0x20 ADD SWAP1 DUP2 MSTORE PUSH1 0x20 ADD PUSH0 KECCAK256 DUP2 DUP2 SLOAD DUP2 LT PUSH2 0x3B5 JUMPI PUSH2 0x3B4 PUSH2 0x1475 JUMP JUMPDEST JUMPDEST SWAP1 PUSH0 MSTORE PUSH1 0x20 PUSH0 KECCAK256 SWAP1 PUSH1 0x5 MUL ADD PUSH1 0x4 ADD PUSH0 DUP2 SLOAD DUP1 SWAP3 SWAP2 SWAP1 PUSH2 0x3D4 SWAP1 PUSH2 0x1537 JUMP JUMPDEST SWAP2 SWAP1 POP SSTORE POP PUSH32 0x5BD959F96EFC2338D934AB72127BE36035FF98DE2F1584D2951239DB17662D21 CALLER DUP3 DUP5 PUSH1 0x2 PUSH0 DUP8 PUSH20 0xFFFFFFFFFFFFFFFFFFFFFFFFFFFFFFFFFFFFFFFF AND PUSH20 0xFFFFFFFFFFFFFFFFFFFFFFFFFFFFFFFFFFFFFFFF AND DUP2 MSTORE PUSH1 0x20 ADD SWAP1 DUP2 MSTORE PUSH1 0x20 ADD PUSH0 KECCAK256 DUP6 DUP2 SLOAD DUP2 LT PUSH2 0x44C JUMPI PUSH2 0x44B PUSH2 0x1475 JUMP JUMPDEST JUMPDEST SWAP1 PUSH0 MSTORE PUSH1 0x20 PUSH0 KECCAK256 SWAP1 PUSH1 0x5 MUL ADD PUSH1 0x4 ADD SLOAD PUSH1 0x40 MLOAD PUSH2 0x46C SWAP5 SWAP4 SWAP3 SWAP2 SWAP1 PUSH2 0x157E JUMP JUMPDEST PUSH1 0x40 MLOAD DUP1 SWAP2 SUB SWAP1 LOG1 POP POP JUMP JUMPDEST PUSH1 0x60 PUSH1 0x2 PUSH0 CALLER PUSH20 0xFFFFFFFFFFFFFFFFFFFFFFFFFFFFFFFFFFFFFFFF AND PUSH20 0xFFFFFFFFFFFFFFFFFFFFFFFFFFFFFFFFFFFFFFFF AND DUP2 MSTORE PUSH1 0x20 ADD SWAP1 DUP2 MSTORE PUSH1 0x20 ADD PUSH0 KECCAK256 DUP1 SLOAD DUP1 PUSH1 0x20 MUL PUSH1 0x20 ADD PUSH1 0x40 MLOAD SWAP1 DUP2 ADD PUSH1 0x40 MSTORE DUP1 SWAP3 SWAP2 SWAP1 DUP2 DUP2 MSTORE PUSH1 0x20 ADD PUSH0 SWAP1 JUMPDEST DUP3 DUP3 LT ISZERO PUSH2 0x608 JUMPI DUP4 DUP3 SWAP1 PUSH0 MSTORE PUSH1 0x20 PUSH0 KECCAK256 SWAP1 PUSH1 0x5 MUL ADD PUSH1 0x40 MLOAD DUP1 PUSH1 0xA0 ADD PUSH1 0x40 MSTORE SWAP1 DUP2 PUSH0 DUP3 ADD SLOAD DUP2 MSTORE PUSH1 0x20 ADD PUSH1 0x1 DUP3 ADD PUSH0 SWAP1 SLOAD SWAP1 PUSH2 0x100 EXP SWAP1 DIV PUSH20 0xFFFFFFFFFFFFFFFFFFFFFFFFFFFFFFFFFFFFFFFF AND PUSH20 0xFFFFFFFFFFFFFFFFFFFFFFFFFFFFFFFFFFFFFFFF AND PUSH20 0xFFFFFFFFFFFFFFFFFFFFFFFFFFFFFFFFFFFFFFFF AND DUP2 MSTORE PUSH1 0x20 ADD PUSH1 0x2 DUP3 ADD DUP1 SLOAD PUSH2 0x565 SWAP1 PUSH2 0x1445 JUMP JUMPDEST DUP1 PUSH1 0x1F ADD PUSH1 0x20 DUP1 SWAP2 DIV MUL PUSH1 0x20 ADD PUSH1 0x40 MLOAD SWAP1 DUP2 ADD PUSH1 0x40 MSTORE DUP1 SWAP3 SWAP2 SWAP1 DUP2 DUP2 MSTORE PUSH1 0x20 ADD DUP3 DUP1 SLOAD PUSH2 0x591 SWAP1 PUSH2 0x1445 JUMP JUMPDEST DUP1 ISZERO PUSH2 0x5DC JUMPI DUP1 PUSH1 0x1F LT PUSH2 0x5B3 JUMPI PUSH2 0x100 DUP1 DUP4 SLOAD DIV MUL DUP4 MSTORE SWAP2 PUSH1 0x20 ADD SWAP2 PUSH2 0x5DC JUMP JUMPDEST DUP3 ADD SWAP2 SWAP1 PUSH0 MSTORE PUSH1 0x20 PUSH0 KECCAK256 SWAP1 JUMPDEST DUP2 SLOAD DUP2 MSTORE SWAP1 PUSH1 0x1 ADD SWAP1 PUSH1 0x20 ADD DUP1 DUP4 GT PUSH2 0x5BF JUMPI DUP3 SWAP1 SUB PUSH1 0x1F AND DUP3 ADD SWAP2 JUMPDEST POP POP POP POP POP DUP2 MSTORE PUSH1 0x20 ADD PUSH1 0x3 DUP3 ADD SLOAD DUP2 MSTORE PUSH1 0x20 ADD PUSH1 0x4 DUP3 ADD SLOAD DUP2 MSTORE POP POP DUP2 MSTORE PUSH1 0x20 ADD SWAP1 PUSH1 0x1 ADD SWAP1 PUSH2 0x4D6 JUMP JUMPDEST POP POP POP POP SWAP1 POP SWAP1 JUMP JUMPDEST PUSH2 0x619 PUSH2 0xC9D JUMP JUMPDEST PUSH2 0x622 PUSH0 PUSH2 0xD24 JUMP JUMPDEST JUMP JUMPDEST PUSH1 0x1 SLOAD DUP2 MLOAD GT ISZERO PUSH2 0x66A JUMPI PUSH1 0x40 MLOAD PUSH32 0x8C379A000000000000000000000000000000000000000000000000000000000 DUP2 MSTORE PUSH1 0x4 ADD PUSH2 0x661 SWAP1 PUSH2 0x160B JUMP JUMPDEST PUSH1 0x40 MLOAD DUP1 SWAP2 SUB SWAP1 REVERT JUMPDEST PUSH0 PUSH1 0x40 MLOAD DUP1 PUSH1 0xA0 ADD PUSH1 0x40 MSTORE DUP1 PUSH1 0x2 PUSH0 CALLER PUSH20 0xFFFFFFFFFFFFFFFFFFFFFFFFFFFFFFFFFFFFFFFF AND PUSH20 0xFFFFFFFFFFFFFFFFFFFFFFFFFFFFFFFFFFFFFFFF AND DUP2 MSTORE PUSH1 0x20 ADD SWAP1 DUP2 MSTORE PUSH1 0x20 ADD PUSH0 KECCAK256 DUP1 SLOAD SWAP1 POP DUP2 MSTORE PUSH1 0x20 ADD CALLER PUSH20 0xFFFFFFFFFFFFFFFFFFFFFFFFFFFFFFFFFFFFFFFF AND DUP2 MSTORE PUSH1 0x20 ADD DUP4 DUP2 MSTORE PUSH1 0x20 ADD TIMESTAMP DUP2 MSTORE PUSH1 0x20 ADD PUSH0 DUP2 MSTORE POP SWAP1 POP PUSH1 0x2 PUSH0 CALLER PUSH20 0xFFFFFFFFFFFFFFFFFFFFFFFFFFFFFFFFFFFFFFFF AND PUSH20 0xFFFFFFFFFFFFFFFFFFFFFFFFFFFFFFFFFFFFFFFF AND DUP2 MSTORE PUSH1 0x20 ADD SWAP1 DUP2 MSTORE PUSH1 0x20 ADD PUSH0 KECCAK256 DUP2 SWAP1 DUP1 PUSH1 0x1 DUP2 SLOAD ADD DUP1 DUP3 SSTORE DUP1 SWAP2 POP POP PUSH1 0x1 SWAP1 SUB SWAP1 PUSH0 MSTORE PUSH1 0x20 PUSH0 KECCAK256 SWAP1 PUSH1 0x5 MUL ADD PUSH0 SWAP1 SWAP2 SWAP1 SWAP2 SWAP1 SWAP2 POP PUSH0 DUP3 ADD MLOAD DUP2 PUSH0 ADD SSTORE PUSH1 0x20 DUP3 ADD MLOAD DUP2 PUSH1 0x1 ADD PUSH0 PUSH2 0x100 EXP DUP2 SLOAD DUP2 PUSH20 0xFFFFFFFFFFFFFFFFFFFFFFFFFFFFFFFFFFFFFFFF MUL NOT AND SWAP1 DUP4 PUSH20 0xFFFFFFFFFFFFFFFFFFFFFFFFFFFFFFFFFFFFFFFF AND MUL OR SWAP1 SSTORE POP PUSH1 0x40 DUP3 ADD MLOAD DUP2 PUSH1 0x2 ADD SWAP1 DUP2 PUSH2 0x7B1 SWAP2 SWAP1 PUSH2 0x17C6 JUMP JUMPDEST POP PUSH1 0x60 DUP3 ADD MLOAD DUP2 PUSH1 0x3 ADD SSTORE PUSH1 0x80 DUP3 ADD MLOAD DUP2 PUSH1 0x4 ADD SSTORE POP POP PUSH32 0x6E5546A74A8EF6731872256D3BBBF86208675B875B179ABED63F4ED747A30CFB DUP2 PUSH0 ADD MLOAD DUP3 PUSH1 0x20 ADD MLOAD DUP4 PUSH1 0x40 ADD MLOAD DUP5 PUSH1 0x60 ADD MLOAD PUSH1 0x40 MLOAD PUSH2 0x80C SWAP5 SWAP4 SWAP3 SWAP2 SWAP1 PUSH2 0x1895 JUMP JUMPDEST PUSH1 0x40 MLOAD DUP1 SWAP2 SUB SWAP1 LOG1 POP POP JUMP JUMPDEST PUSH2 0x820 PUSH2 0xC9D JUMP JUMPDEST DUP1 PUSH1 0x1 DUP2 SWAP1 SSTORE POP POP JUMP JUMPDEST PUSH0 DUP1 PUSH0 SWAP1 SLOAD SWAP1 PUSH2 0x100 EXP SWAP1 DIV PUSH20 0xFFFFFFFFFFFFFFFFFFFFFFFFFFFFFFFFFFFFFFFF AND SWAP1 POP SWAP1 JUMP JUMPDEST DUP1 PUSH1 0x2 PUSH0 DUP5 PUSH20 0xFFFFFFFFFFFFFFFFFFFFFFFFFFFFFFFFFFFFFFFF AND PUSH20 0xFFFFFFFFFFFFFFFFFFFFFFFFFFFFFFFFFFFFFFFF AND DUP2 MSTORE PUSH1 0x20 ADD SWAP1 DUP2 MSTORE PUSH1 0x20 ADD PUSH0 KECCAK256 DUP3 DUP2 SLOAD DUP2 LT PUSH2 0x8A1 JUMPI PUSH2 0x8A0 PUSH2 0x1475 JUMP JUMPDEST JUMPDEST SWAP1 PUSH0 MSTORE PUSH1 0x20 PUSH0 KECCAK256 SWAP1 PUSH1 0x5 MUL ADD PUSH0 ADD SLOAD EQ PUSH2 0x8F0 JUMPI PUSH1 0x40 MLOAD PUSH32 0x8C379A000000000000000000000000000000000000000000000000000000000 DUP2 MSTORE PUSH1 0x4 ADD PUSH2 0x8E7 SWAP1 PUSH2 0x14EC JUMP JUMPDEST PUSH1 0x40 MLOAD DUP1 SWAP2 SUB SWAP1 REVERT JUMPDEST PUSH0 PUSH1 0x2 PUSH0 DUP5 PUSH20 0xFFFFFFFFFFFFFFFFFFFFFFFFFFFFFFFFFFFFFFFF AND PUSH20 0xFFFFFFFFFFFFFFFFFFFFFFFFFFFFFFFFFFFFFFFF AND DUP2 MSTORE PUSH1 0x20 ADD SWAP1 DUP2 MSTORE PUSH1 0x20 ADD PUSH0 KECCAK256 DUP3 DUP2 SLOAD DUP2 LT PUSH2 0x940 JUMPI PUSH2 0x93F PUSH2 0x1475 JUMP JUMPDEST JUMPDEST SWAP1 PUSH0 MSTORE PUSH1 0x20 PUSH0 KECCAK256 SWAP1 PUSH1 0x5 MUL ADD PUSH1 0x4 ADD SLOAD GT PUSH2 0x990 JUMPI PUSH1 0x40 MLOAD PUSH32 0x8C379A000000000000000000000000000000000000000000000000000000000 DUP2 MSTORE PUSH1 0x4 ADD PUSH2 0x987 SWAP1 PUSH2 0x1929 JUMP JUMPDEST PUSH1 0x40 MLOAD DUP1 SWAP2 SUB SWAP1 REVERT JUMPDEST PUSH1 0x2 PUSH0 DUP4 PUSH20 0xFFFFFFFFFFFFFFFFFFFFFFFFFFFFFFFFFFFFFFFF AND PUSH20 0xFFFFFFFFFFFFFFFFFFFFFFFFFFFFFFFFFFFFFFFF AND DUP2 MSTORE PUSH1 0x20 ADD SWAP1 DUP2 MSTORE PUSH1 0x20 ADD PUSH0 KECCAK256 DUP2 DUP2 SLOAD DUP2 LT PUSH2 0x9DF JUMPI PUSH2 0x9DE PUSH2 0x1475 JUMP JUMPDEST JUMPDEST SWAP1 PUSH0 MSTORE PUSH1 0x20 PUSH0 KECCAK256 SWAP1 PUSH1 0x5 MUL ADD PUSH1 0x4 ADD PUSH0 DUP2 SLOAD DUP1 SWAP3 SWAP2 SWAP1 PUSH2 0x9FE SWAP1 PUSH2 0x1947 JUMP JUMPDEST SWAP2 SWAP1 POP SSTORE POP PUSH32 0x5BD959F96EFC2338D934AB72127BE36035FF98DE2F1584D2951239DB17662D21 CALLER DUP3 DUP5 PUSH1 0x2 PUSH0 DUP8 PUSH20 0xFFFFFFFFFFFFFFFFFFFFFFFFFFFFFFFFFFFFFFFF AND PUSH20 0xFFFFFFFFFFFFFFFFFFFFFFFFFFFFFFFFFFFFFFFF AND DUP2 MSTORE PUSH1 0x20 ADD SWAP1 DUP2 MSTORE PUSH1 0x20 ADD PUSH0 KECCAK256 DUP6 DUP2 SLOAD DUP2 LT PUSH2 0xA76 JUMPI PUSH2 0xA75 PUSH2 0x1475 JUMP JUMPDEST JUMPDEST SWAP1 PUSH0 MSTORE PUSH1 0x20 PUSH0 KECCAK256 SWAP1 PUSH1 0x5 MUL ADD PUSH1 0x4 ADD SLOAD PUSH1 0x40 MLOAD PUSH2 0xA96 SWAP5 SWAP4 SWAP3 SWAP2 SWAP1 PUSH2 0x157E JUMP JUMPDEST PUSH1 0x40 MLOAD DUP1 SWAP2 SUB SWAP1 LOG1 POP POP JUMP JUMPDEST PUSH2 0xAAA PUSH2 0xDEC JUMP JUMPDEST PUSH1 0x2 PUSH0 CALLER PUSH20 0xFFFFFFFFFFFFFFFFFFFFFFFFFFFFFFFFFFFFFFFF AND PUSH20 0xFFFFFFFFFFFFFFFFFFFFFFFFFFFFFFFFFFFFFFFF AND DUP2 MSTORE PUSH1 0x20 ADD SWAP1 DUP2 MSTORE PUSH1 0x20 ADD PUSH0 KECCAK256 DUP3 DUP2 SLOAD DUP2 LT PUSH2 0xAF9 JUMPI PUSH2 0xAF8 PUSH2 0x1475 JUMP JUMPDEST JUMPDEST SWAP1 PUSH0 MSTORE PUSH1 0x20 PUSH0 KECCAK256 SWAP1 PUSH1 0x5 MUL ADD PUSH1 0x40 MLOAD DUP1 PUSH1 0xA0 ADD PUSH1 0x40 MSTORE SWAP1 DUP2 PUSH0 DUP3 ADD SLOAD DUP2 MSTORE PUSH1 0x20 ADD PUSH1 0x1 DUP3 ADD PUSH0 SWAP1 SLOAD SWAP1 PUSH2 0x100 EXP SWAP1 DIV PUSH20 0xFFFFFFFFFFFFFFFFFFFFFFFFFFFFFFFFFFFFFFFF AND PUSH20 0xFFFFFFFFFFFFFFFFFFFFFFFFFFFFFFFFFFFFFFFF AND PUSH20 0xFFFFFFFFFFFFFFFFFFFFFFFFFFFFFFFFFFFFFFFF AND DUP2 MSTORE PUSH1 0x20 ADD PUSH1 0x2 DUP3 ADD DUP1 SLOAD PUSH2 0xB7E SWAP1 PUSH2 0x1445 JUMP JUMPDEST DUP1 PUSH1 0x1F ADD PUSH1 0x20 DUP1 SWAP2 DIV MUL PUSH1 0x20 ADD PUSH1 0x40 MLOAD SWAP1 DUP2 ADD PUSH1 0x40 MSTORE DUP1 SWAP3 SWAP2 SWAP1 DUP2 DUP2 MSTORE PUSH1 0x20 ADD DUP3 DUP1 SLOAD PUSH2 0xBAA SWAP1 PUSH2 0x1445 JUMP JUMPDEST DUP1 ISZERO PUSH2 0xBF5 JUMPI DUP1 PUSH1 0x1F LT PUSH2 0xBCC JUMPI PUSH2 0x100 DUP1 DUP4 SLOAD DIV MUL DUP4 MSTORE SWAP2 PUSH1 0x20 ADD SWAP2 PUSH2 0xBF5 JUMP JUMPDEST DUP3 ADD SWAP2 SWAP1 PUSH0 MSTORE PUSH1 0x20 PUSH0 KECCAK256 SWAP1 JUMPDEST DUP2 SLOAD DUP2 MSTORE SWAP1 PUSH1 0x1 ADD SWAP1 PUSH1 0x20 ADD DUP1 DUP4 GT PUSH2 0xBD8 JUMPI DUP3 SWAP1 SUB PUSH1 0x1F AND DUP3 ADD SWAP2 JUMPDEST POP POP POP POP POP DUP2 MSTORE PUSH1 0x20 ADD PUSH1 0x3 DUP3 ADD SLOAD DUP2 MSTORE PUSH1 0x20 ADD PUSH1 0x4 DUP3 ADD SLOAD DUP2 MSTORE POP POP SWAP1 POP SWAP2 SWAP1 POP JUMP JUMPDEST PUSH2 0xC21 PUSH2 0xC9D JUMP JUMPDEST PUSH0 PUSH20 0xFFFFFFFFFFFFFFFFFFFFFFFFFFFFFFFFFFFFFFFF AND DUP2 PUSH20 0xFFFFFFFFFFFFFFFFFFFFFFFFFFFFFFFFFFFFFFFF AND SUB PUSH2 0xC91 JUMPI PUSH0 PUSH1 0x40 MLOAD PUSH32 0x1E4FBDF700000000000000000000000000000000000000000000000000000000 DUP2 MSTORE PUSH1 0x4 ADD PUSH2 0xC88 SWAP2 SWAP1 PUSH2 0x1341 JUMP JUMPDEST PUSH1 0x40 MLOAD DUP1 SWAP2 SUB SWAP1 REVERT JUMPDEST PUSH2 0xC9A DUP2 PUSH2 0xD24 JUMP JUMPDEST POP JUMP JUMPDEST PUSH2 0xCA5 PUSH2 0xDE5 JUMP JUMPDEST PUSH20 0xFFFFFFFFFFFFFFFFFFFFFFFFFFFFFFFFFFFFFFFF AND PUSH2 0xCC3 PUSH2 0x82A JUMP JUMPDEST PUSH20 0xFFFFFFFFFFFFFFFFFFFFFFFFFFFFFFFFFFFFFFFF AND EQ PUSH2 0xD22 JUMPI PUSH2 0xCE6 PUSH2 0xDE5 JUMP JUMPDEST PUSH1 0x40 MLOAD PUSH32 0x118CDAA700000000000000000000000000000000000000000000000000000000 DUP2 MSTORE PUSH1 0x4 ADD PUSH2 0xD19 SWAP2 SWAP1 PUSH2 0x1341 JUMP JUMPDEST PUSH1 0x40 MLOAD DUP1 SWAP2 SUB SWAP1 REVERT JUMPDEST JUMP JUMPDEST PUSH0 DUP1 PUSH0 SWAP1 SLOAD SWAP1 PUSH2 0x100 EXP SWAP1 DIV PUSH20 0xFFFFFFFFFFFFFFFFFFFFFFFFFFFFFFFFFFFFFFFF AND SWAP1 POP DUP2 PUSH0 DUP1 PUSH2 0x100 EXP DUP2 SLOAD DUP2 PUSH20 0xFFFFFFFFFFFFFFFFFFFFFFFFFFFFFFFFFFFFFFFF MUL NOT AND SWAP1 DUP4 PUSH20 0xFFFFFFFFFFFFFFFFFFFFFFFFFFFFFFFFFFFFFFFF AND MUL OR SWAP1 SSTORE POP DUP2 PUSH20 0xFFFFFFFFFFFFFFFFFFFFFFFFFFFFFFFFFFFFFFFF AND DUP2 PUSH20 0xFFFFFFFFFFFFFFFFFFFFFFFFFFFFFFFFFFFFFFFF AND PUSH32 0x8BE0079C531659141344CD1FD0A4F28419497F9722A3DAAFE3B4186F6B6457E0 PUSH1 0x40 MLOAD PUSH1 0x40 MLOAD DUP1 SWAP2 SUB SWAP1 LOG3 POP POP JUMP JUMPDEST PUSH0 CALLER SWAP1 POP SWAP1 JUMP JUMPDEST PUSH1 0x40 MLOAD DUP1 PUSH1 0xA0 ADD PUSH1 0x40 MSTORE DUP1 PUSH0 DUP2 MSTORE PUSH1 0x20 ADD PUSH0 PUSH20 0xFFFFFFFFFFFFFFFFFFFFFFFFFFFFFFFFFFFFFFFF AND DUP2 MSTORE PUSH1 0x20 ADD PUSH1 0x60 DUP2 MSTORE PUSH1 0x20 ADD PUSH0 DUP2 MSTORE PUSH1 0x20 ADD PUSH0 DUP2 MSTORE POP SWAP1 JUMP JUMPDEST PUSH0 PUSH1 0x40 MLOAD SWAP1 POP SWAP1 JUMP JUMPDEST PUSH0 DUP1 REVERT JUMPDEST PUSH0 DUP1 REVERT JUMPDEST PUSH0 PUSH20 0xFFFFFFFFFFFFFFFFFFFFFFFFFFFFFFFFFFFFFFFF DUP3 AND SWAP1 POP SWAP2 SWAP1 POP JUMP JUMPDEST PUSH0 PUSH2 0xE67 DUP3 PUSH2 0xE3E JUMP JUMPDEST SWAP1 POP SWAP2 SWAP1 POP JUMP JUMPDEST PUSH2 0xE77 DUP2 PUSH2 0xE5D JUMP JUMPDEST DUP2 EQ PUSH2 0xE81 JUMPI PUSH0 DUP1 REVERT JUMPDEST POP JUMP JUMPDEST PUSH0 DUP2 CALLDATALOAD SWAP1 POP PUSH2 0xE92 DUP2 PUSH2 0xE6E JUMP JUMPDEST SWAP3 SWAP2 POP POP JUMP JUMPDEST PUSH0 DUP2 SWAP1 POP SWAP2 SWAP1 POP JUMP JUMPDEST PUSH2 0xEAA DUP2 PUSH2 0xE98 JUMP JUMPDEST DUP2 EQ PUSH2 0xEB4 JUMPI PUSH0 DUP1 REVERT JUMPDEST POP JUMP JUMPDEST PUSH0 DUP2 CALLDATALOAD SWAP1 POP PUSH2 0xEC5 DUP2 PUSH2 0xEA1 JUMP JUMPDEST SWAP3 SWAP2 POP POP JUMP JUMPDEST PUSH0 DUP1 PUSH1 0x40 DUP4 DUP6 SUB SLT ISZERO PUSH2 0xEE1 JUMPI PUSH2 0xEE0 PUSH2 0xE36 JUMP JUMPDEST JUMPDEST PUSH0 PUSH2 0xEEE DUP6 DUP3 DUP7 ADD PUSH2 0xE84 JUMP JUMPDEST SWAP3 POP POP PUSH1 0x20 PUSH2 0xEFF DUP6 DUP3 DUP7 ADD PUSH2 0xEB7 JUMP JUMPDEST SWAP2 POP POP SWAP3 POP SWAP3 SWAP1 POP JUMP JUMPDEST PUSH2 0xF12 DUP2 PUSH2 0xE98 JUMP JUMPDEST DUP3 MSTORE POP POP JUMP JUMPDEST PUSH2 0xF21 DUP2 PUSH2 0xE5D JUMP JUMPDEST DUP3 MSTORE POP POP JUMP JUMPDEST PUSH0 DUP2 MLOAD SWAP1 POP SWAP2 SWAP1 POP JUMP JUMPDEST PUSH0 DUP3 DUP3 MSTORE PUSH1 0x20 DUP3 ADD SWAP1 POP SWAP3 SWAP2 POP POP JUMP JUMPDEST DUP3 DUP2 DUP4 MCOPY PUSH0 DUP4 DUP4 ADD MSTORE POP POP POP JUMP JUMPDEST PUSH0 PUSH1 0x1F NOT PUSH1 0x1F DUP4 ADD AND SWAP1 POP SWAP2 SWAP1 POP JUMP JUMPDEST PUSH0 PUSH2 0xF69 DUP3 PUSH2 0xF27 JUMP JUMPDEST PUSH2 0xF73 DUP2 DUP6 PUSH2 0xF31 JUMP JUMPDEST SWAP4 POP PUSH2 0xF83 DUP2 DUP6 PUSH1 0x20 DUP7 ADD PUSH2 0xF41 JUMP JUMPDEST PUSH2 0xF8C DUP2 PUSH2 0xF4F JUMP JUMPDEST DUP5 ADD SWAP2 POP POP SWAP3 SWAP2 POP POP JUMP JUMPDEST PUSH0 PUSH1 0xA0 DUP3 ADD SWAP1 POP PUSH2 0xFAA PUSH0 DUP4 ADD DUP9 PUSH2 0xF09 JUMP JUMPDEST PUSH2 0xFB7 PUSH1 0x20 DUP4 ADD DUP8 PUSH2 0xF18 JUMP JUMPDEST DUP2 DUP2 SUB PUSH1 0x40 DUP4 ADD MSTORE PUSH2 0xFC9 DUP2 DUP7 PUSH2 0xF5F JUMP JUMPDEST SWAP1 POP PUSH2 0xFD8 PUSH1 0x60 DUP4 ADD DUP6 PUSH2 0xF09 JUMP JUMPDEST PUSH2 0xFE5 PUSH1 0x80 DUP4 ADD DUP5 PUSH2 0xF09 JUMP JUMPDEST SWAP7 SWAP6 POP POP POP POP POP POP JUMP JUMPDEST PUSH0 DUP2 MLOAD SWAP1 POP SWAP2 SWAP1 POP JUMP JUMPDEST PUSH0 DUP3 DUP3 MSTORE PUSH1 0x20 DUP3 ADD SWAP1 POP SWAP3 SWAP2 POP POP JUMP JUMPDEST PUSH0 DUP2 SWAP1 POP PUSH1 0x20 DUP3 ADD SWAP1 POP SWAP2 SWAP1 POP JUMP JUMPDEST PUSH2 0x1021 DUP2 PUSH2 0xE98 JUMP JUMPDEST DUP3 MSTORE POP POP JUMP JUMPDEST PUSH2 0x1030 DUP2 PUSH2 0xE5D JUMP JUMPDEST DUP3 MSTORE POP POP JUMP JUMPDEST PUSH0 DUP3 DUP3 MSTORE PUSH1 0x20 DUP3 ADD SWAP1 POP SWAP3 SWAP2 POP POP JUMP JUMPDEST PUSH0 PUSH2 0x1050 DUP3 PUSH2 0xF27 JUMP JUMPDEST PUSH2 0x105A DUP2 DUP6 PUSH2 0x1036 JUMP JUMPDEST SWAP4 POP PUSH2 0x106A DUP2 DUP6 PUSH1 0x20 DUP7 ADD PUSH2 0xF41 JUMP JUMPDEST PUSH2 0x1073 DUP2 PUSH2 0xF4F JUMP JUMPDEST DUP5 ADD SWAP2 POP POP SWAP3 SWAP2 POP POP JUMP JUMPDEST PUSH0 PUSH1 0xA0 DUP4 ADD PUSH0 DUP4 ADD MLOAD PUSH2 0x1093 PUSH0 DUP7 ADD DUP3 PUSH2 0x1018 JUMP JUMPDEST POP PUSH1 0x20 DUP4 ADD MLOAD PUSH2 0x10A6 PUSH1 0x20 DUP7 ADD DUP3 PUSH2 0x1027 JUMP JUMPDEST POP PUSH1 0x40 DUP4 ADD MLOAD DUP5 DUP3 SUB PUSH1 0x40 DUP7 ADD MSTORE PUSH2 0x10BE DUP3 DUP3 PUSH2 0x1046 JUMP JUMPDEST SWAP2 POP POP PUSH1 0x60 DUP4 ADD MLOAD PUSH2 0x10D3 PUSH1 0x60 DUP7 ADD DUP3 PUSH2 0x1018 JUMP JUMPDEST POP PUSH1 0x80 DUP4 ADD MLOAD PUSH2 0x10E6 PUSH1 0x80 DUP7 ADD DUP3 PUSH2 0x1018 JUMP JUMPDEST POP DUP1 SWAP2 POP POP SWAP3 SWAP2 POP POP JUMP JUMPDEST PUSH0 PUSH2 0x10FC DUP4 DUP4 PUSH2 0x107E JUMP JUMPDEST SWAP1 POP SWAP3 SWAP2 POP POP JUMP JUMPDEST PUSH0 PUSH1 0x20 DUP3 ADD SWAP1 POP SWAP2 SWAP1 POP JUMP JUMPDEST PUSH0 PUSH2 0x111A DUP3 PUSH2 0xFEF JUMP JUMPDEST PUSH2 0x1124 DUP2 DUP6 PUSH2 0xFF9 JUMP JUMPDEST SWAP4 POP DUP4 PUSH1 0x20 DUP3 MUL DUP6 ADD PUSH2 0x1136 DUP6 PUSH2 0x1009 JUMP JUMPDEST DUP1 PUSH0 JUMPDEST DUP6 DUP2 LT ISZERO PUSH2 0x1171 JUMPI DUP5 DUP5 SUB DUP10 MSTORE DUP2 MLOAD PUSH2 0x1152 DUP6 DUP3 PUSH2 0x10F1 JUMP JUMPDEST SWAP5 POP PUSH2 0x115D DUP4 PUSH2 0x1104 JUMP JUMPDEST SWAP3 POP PUSH1 0x20 DUP11 ADD SWAP10 POP POP PUSH1 0x1 DUP2 ADD SWAP1 POP PUSH2 0x1139 JUMP JUMPDEST POP DUP3 SWAP8 POP DUP8 SWAP6 POP POP POP POP POP POP SWAP3 SWAP2 POP POP JUMP JUMPDEST PUSH0 PUSH1 0x20 DUP3 ADD SWAP1 POP DUP2 DUP2 SUB PUSH0 DUP4 ADD MSTORE PUSH2 0x119B DUP2 DUP5 PUSH2 0x1110 JUMP JUMPDEST SWAP1 POP SWAP3 SWAP2 POP POP JUMP JUMPDEST PUSH0 DUP1 REVERT JUMPDEST PUSH0 DUP1 REVERT JUMPDEST PUSH32 0x4E487B7100000000000000000000000000000000000000000000000000000000 PUSH0 MSTORE PUSH1 0x41 PUSH1 0x4 MSTORE PUSH1 0x24 PUSH0 REVERT JUMPDEST PUSH2 0x11E1 DUP3 PUSH2 0xF4F JUMP JUMPDEST DUP2 ADD DUP2 DUP2 LT PUSH8 0xFFFFFFFFFFFFFFFF DUP3 GT OR ISZERO PUSH2 0x1200 JUMPI PUSH2 0x11FF PUSH2 0x11AB JUMP JUMPDEST JUMPDEST DUP1 PUSH1 0x40 MSTORE POP POP POP JUMP JUMPDEST PUSH0 PUSH2 0x1212 PUSH2 0xE2D JUMP JUMPDEST SWAP1 POP PUSH2 0x121E DUP3 DUP3 PUSH2 0x11D8 JUMP JUMPDEST SWAP2 SWAP1 POP JUMP JUMPDEST PUSH0 PUSH8 0xFFFFFFFFFFFFFFFF DUP3 GT ISZERO PUSH2 0x123D JUMPI PUSH2 0x123C PUSH2 0x11AB JUMP JUMPDEST JUMPDEST PUSH2 0x1246 DUP3 PUSH2 0xF4F JUMP JUMPDEST SWAP1 POP PUSH1 0x20 DUP2 ADD SWAP1 POP SWAP2 SWAP1 POP JUMP JUMPDEST DUP3 DUP2 DUP4 CALLDATACOPY PUSH0 DUP4 DUP4 ADD MSTORE POP POP POP JUMP JUMPDEST PUSH0 PUSH2 0x1273 PUSH2 0x126E DUP5 PUSH2 0x1223 JUMP JUMPDEST PUSH2 0x1209 JUMP JUMPDEST SWAP1 POP DUP3 DUP2 MSTORE PUSH1 0x20 DUP2 ADD DUP5 DUP5 DUP5 ADD GT ISZERO PUSH2 0x128F JUMPI PUSH2 0x128E PUSH2 0x11A7 JUMP JUMPDEST JUMPDEST PUSH2 0x129A DUP5 DUP3 DUP6 PUSH2 0x1253 JUMP JUMPDEST POP SWAP4 SWAP3 POP POP POP JUMP JUMPDEST PUSH0 DUP3 PUSH1 0x1F DUP4 ADD SLT PUSH2 0x12B6 JUMPI PUSH2 0x12B5 PUSH2 0x11A3 JUMP JUMPDEST JUMPDEST DUP2 CALLDATALOAD PUSH2 0x12C6 DUP5 DUP3 PUSH1 0x20 DUP7 ADD PUSH2 0x1261 JUMP JUMPDEST SWAP2 POP POP SWAP3 SWAP2 POP POP JUMP JUMPDEST PUSH0 PUSH1 0x20 DUP3 DUP5 SUB SLT ISZERO PUSH2 0x12E4 JUMPI PUSH2 0x12E3 PUSH2 0xE36 JUMP JUMPDEST JUMPDEST PUSH0 DUP3 ADD CALLDATALOAD PUSH8 0xFFFFFFFFFFFFFFFF DUP2 GT ISZERO PUSH2 0x1301 JUMPI PUSH2 0x1300 PUSH2 0xE3A JUMP JUMPDEST JUMPDEST PUSH2 0x130D DUP5 DUP3 DUP6 ADD PUSH2 0x12A2 JUMP JUMPDEST SWAP2 POP POP SWAP3 SWAP2 POP POP JUMP JUMPDEST PUSH0 PUSH1 0x20 DUP3 DUP5 SUB SLT ISZERO PUSH2 0x132B JUMPI PUSH2 0x132A PUSH2 0xE36 JUMP JUMPDEST JUMPDEST PUSH0 PUSH2 0x1338 DUP5 DUP3 DUP6 ADD PUSH2 0xEB7 JUMP JUMPDEST SWAP2 POP POP SWAP3 SWAP2 POP POP JUMP JUMPDEST PUSH0 PUSH1 0x20 DUP3 ADD SWAP1 POP PUSH2 0x1354 PUSH0 DUP4 ADD DUP5 PUSH2 0xF18 JUMP JUMPDEST SWAP3 SWAP2 POP POP JUMP JUMPDEST PUSH0 PUSH1 0xA0 DUP4 ADD PUSH0 DUP4 ADD MLOAD PUSH2 0x136F PUSH0 DUP7 ADD DUP3 PUSH2 0x1018 JUMP JUMPDEST POP PUSH1 0x20 DUP4 ADD MLOAD PUSH2 0x1382 PUSH1 0x20 DUP7 ADD DUP3 PUSH2 0x1027 JUMP JUMPDEST POP PUSH1 0x40 DUP4 ADD MLOAD DUP5 DUP3 SUB PUSH1 0x40 DUP7 ADD MSTORE PUSH2 0x139A DUP3 DUP3 PUSH2 0x1046 JUMP JUMPDEST SWAP2 POP POP PUSH1 0x60 DUP4 ADD MLOAD PUSH2 0x13AF PUSH1 0x60 DUP7 ADD DUP3 PUSH2 0x1018 JUMP JUMPDEST POP PUSH1 0x80 DUP4 ADD MLOAD PUSH2 0x13C2 PUSH1 0x80 DUP7 ADD DUP3 PUSH2 0x1018 JUMP JUMPDEST POP DUP1 SWAP2 POP POP SWAP3 SWAP2 POP POP JUMP JUMPDEST PUSH0 PUSH1 0x20 DUP3 ADD SWAP1 POP DUP2 DUP2 SUB PUSH0 DUP4 ADD MSTORE PUSH2 0x13E5 DUP2 DUP5 PUSH2 0x135A JUMP JUMPDEST SWAP1 POP SWAP3 SWAP2 POP POP JUMP JUMPDEST PUSH0 PUSH1 0x20 DUP3 DUP5 SUB SLT ISZERO PUSH2 0x1402 JUMPI PUSH2 0x1401 PUSH2 0xE36 JUMP JUMPDEST JUMPDEST PUSH0 PUSH2 0x140F DUP5 DUP3 DUP6 ADD PUSH2 0xE84 JUMP JUMPDEST SWAP2 POP POP SWAP3 SWAP2 POP POP JUMP JUMPDEST PUSH32 0x4E487B7100000000000000000000000000000000000000000000000000000000 PUSH0 MSTORE PUSH1 0x22 PUSH1 0x4 MSTORE PUSH1 0x24 PUSH0 REVERT JUMPDEST PUSH0 PUSH1 0x2 DUP3 DIV SWAP1 POP PUSH1 0x1 DUP3 AND DUP1 PUSH2 0x145C JUMPI PUSH1 0x7F DUP3 AND SWAP2 POP JUMPDEST PUSH1 0x20 DUP3 LT DUP2 SUB PUSH2 0x146F JUMPI PUSH2 0x146E PUSH2 0x1418 JUMP JUMPDEST JUMPDEST POP SWAP2 SWAP1 POP JUMP JUMPDEST PUSH32 0x4E487B7100000000000000000000000000000000000000000000000000000000 PUSH0 MSTORE PUSH1 0x32 PUSH1 0x4 MSTORE PUSH1 0x24 PUSH0 REVERT JUMPDEST PUSH32 0x547765657420646F6573206E6F74206578697374000000000000000000000000 PUSH0 DUP3 ADD MSTORE POP JUMP JUMPDEST PUSH0 PUSH2 0x14D6 PUSH1 0x14 DUP4 PUSH2 0xF31 JUMP JUMPDEST SWAP2 POP PUSH2 0x14E1 DUP3 PUSH2 0x14A2 JUMP JUMPDEST PUSH1 0x20 DUP3 ADD SWAP1 POP SWAP2 SWAP1 POP JUMP JUMPDEST PUSH0 PUSH1 0x20 DUP3 ADD SWAP1 POP DUP2 DUP2 SUB PUSH0 DUP4 ADD MSTORE PUSH2 0x1503 DUP2 PUSH2 0x14CA JUMP JUMPDEST SWAP1 POP SWAP2 SWAP1 POP JUMP JUMPDEST PUSH32 0x4E487B7100000000000000000000000000000000000000000000000000000000 PUSH0 MSTORE PUSH1 0x11 PUSH1 0x4 MSTORE PUSH1 0x24 PUSH0 REVERT JUMPDEST PUSH0 PUSH2 0x1541 DUP3 PUSH2 0xE98 JUMP JUMPDEST SWAP2 POP PUSH32 0xFFFFFFFFFFFFFFFFFFFFFFFFFFFFFFFFFFFFFFFFFFFFFFFFFFFFFFFFFFFFFFFF DUP3 SUB PUSH2 0x1573 JUMPI PUSH2 0x1572 PUSH2 0x150A JUMP JUMPDEST JUMPDEST PUSH1 0x1 DUP3 ADD SWAP1 POP SWAP2 SWAP1 POP JUMP JUMPDEST PUSH0 PUSH1 0x80 DUP3 ADD SWAP1 POP PUSH2 0x1591 PUSH0 DUP4 ADD DUP8 PUSH2 0xF18 JUMP JUMPDEST PUSH2 0x159E PUSH1 0x20 DUP4 ADD DUP7 PUSH2 0xF09 JUMP JUMPDEST PUSH2 0x15AB PUSH1 0x40 DUP4 ADD DUP6 PUSH2 0xF18 JUMP JUMPDEST PUSH2 0x15B8 PUSH1 0x60 DUP4 ADD DUP5 PUSH2 0xF09 JUMP JUMPDEST SWAP6 SWAP5 POP POP POP POP POP JUMP JUMPDEST PUSH32 0x547765657420697320746F6F206C6F6E67000000000000000000000000000000 PUSH0 DUP3 ADD MSTORE POP JUMP JUMPDEST PUSH0 PUSH2 0x15F5 PUSH1 0x11 DUP4 PUSH2 0xF31 JUMP JUMPDEST SWAP2 POP PUSH2 0x1600 DUP3 PUSH2 0x15C1 JUMP JUMPDEST PUSH1 0x20 DUP3 ADD SWAP1 POP SWAP2 SWAP1 POP JUMP JUMPDEST PUSH0 PUSH1 0x20 DUP3 ADD SWAP1 POP DUP2 DUP2 SUB PUSH0 DUP4 ADD MSTORE PUSH2 0x1622 DUP2 PUSH2 0x15E9 JUMP JUMPDEST SWAP1 POP SWAP2 SWAP1 POP JUMP JUMPDEST PUSH0 DUP2 SWAP1 POP DUP2 PUSH0 MSTORE PUSH1 0x20 PUSH0 KECCAK256 SWAP1 POP SWAP2 SWAP1 POP JUMP JUMPDEST PUSH0 PUSH1 0x20 PUSH1 0x1F DUP4 ADD DIV SWAP1 POP SWAP2 SWAP1 POP JUMP JUMPDEST PUSH0 DUP3 DUP3 SHL SWAP1 POP SWAP3 SWAP2 POP POP JUMP JUMPDEST PUSH0 PUSH1 0x8 DUP4 MUL PUSH2 0x1685 PUSH32 0xFFFFFFFFFFFFFFFFFFFFFFFFFFFFFFFFFFFFFFFFFFFFFFFFFFFFFFFFFFFFFFFF DUP3 PUSH2 0x164A JUMP JUMPDEST PUSH2 0x168F DUP7 DUP4 PUSH2 0x164A JUMP JUMPDEST SWAP6 POP DUP1 NOT DUP5 AND SWAP4 POP DUP1 DUP7 AND DUP5 OR SWAP3 POP POP POP SWAP4 SWAP3 POP POP POP JUMP JUMPDEST PUSH0 DUP2 SWAP1 POP SWAP2 SWAP1 POP JUMP JUMPDEST PUSH0 PUSH2 0x16CA PUSH2 0x16C5 PUSH2 0x16C0 DUP5 PUSH2 0xE98 JUMP JUMPDEST PUSH2 0x16A7 JUMP JUMPDEST PUSH2 0xE98 JUMP JUMPDEST SWAP1 POP SWAP2 SWAP1 POP JUMP JUMPDEST PUSH0 DUP2 SWAP1 POP SWAP2 SWAP1 POP JUMP JUMPDEST PUSH2 0x16E3 DUP4 PUSH2 0x16B0 JUMP JUMPDEST PUSH2 0x16F7 PUSH2 0x16EF DUP3 PUSH2 0x16D1 JUMP JUMPDEST DUP5 DUP5 SLOAD PUSH2 0x1656 JUMP JUMPDEST DUP3 SSTORE POP POP POP POP JUMP JUMPDEST PUSH0 SWAP1 JUMP JUMPDEST PUSH2 0x170B PUSH2 0x16FF JUMP JUMPDEST PUSH2 0x1716 DUP2 DUP5 DUP5 PUSH2 0x16DA JUMP JUMPDEST POP POP POP JUMP JUMPDEST JUMPDEST DUP2 DUP2 LT ISZERO PUSH2 0x1739 JUMPI PUSH2 0x172E PUSH0 DUP3 PUSH2 0x1703 JUMP JUMPDEST PUSH1 0x1 DUP2 ADD SWAP1 POP PUSH2 0x171C JUMP JUMPDEST POP POP JUMP JUMPDEST PUSH1 0x1F DUP3 GT ISZERO PUSH2 0x177E JUMPI PUSH2 0x174F DUP2 PUSH2 0x1629 JUMP JUMPDEST PUSH2 0x1758 DUP5 PUSH2 0x163B JUMP JUMPDEST DUP2 ADD PUSH1 0x20 DUP6 LT ISZERO PUSH2 0x1767 JUMPI DUP2 SWAP1 POP JUMPDEST PUSH2 0x177B PUSH2 0x1773 DUP6 PUSH2 0x163B JUMP JUMPDEST DUP4 ADD DUP3 PUSH2 0x171B JUMP JUMPDEST POP POP JUMPDEST POP POP POP JUMP JUMPDEST PUSH0 DUP3 DUP3 SHR SWAP1 POP SWAP3 SWAP2 POP POP JUMP JUMPDEST PUSH0 PUSH2 0x179E PUSH0 NOT DUP5 PUSH1 0x8 MUL PUSH2 0x1783 JUMP JUMPDEST NOT DUP1 DUP4 AND SWAP2 POP POP SWAP3 SWAP2 POP POP JUMP JUMPDEST PUSH0 PUSH2 0x17B6 DUP4 DUP4 PUSH2 0x178F JUMP JUMPDEST SWAP2 POP DUP3 PUSH1 0x2 MUL DUP3 OR SWAP1 POP SWAP3 SWAP2 POP POP JUMP JUMPDEST PUSH2 0x17CF DUP3 PUSH2 0xF27 JUMP JUMPDEST PUSH8 0xFFFFFFFFFFFFFFFF DUP2 GT ISZERO PUSH2 0x17E8 JUMPI PUSH2 0x17E7 PUSH2 0x11AB JUMP JUMPDEST JUMPDEST PUSH2 0x17F2 DUP3 SLOAD PUSH2 0x1445 JUMP JUMPDEST PUSH2 0x17FD DUP3 DUP3 DUP6 PUSH2 0x173D JUMP JUMPDEST PUSH0 PUSH1 0x20 SWAP1 POP PUSH1 0x1F DUP4 GT PUSH1 0x1 DUP2 EQ PUSH2 0x182E JUMPI PUSH0 DUP5 ISZERO PUSH2 0x181C JUMPI DUP3 DUP8 ADD MLOAD SWAP1 POP JUMPDEST PUSH2 0x1826 DUP6 DUP3 PUSH2 0x17AB JUMP JUMPDEST DUP7 SSTORE POP PUSH2 0x188D JUMP JUMPDEST PUSH1 0x1F NOT DUP5 AND PUSH2 0x183C DUP7 PUSH2 0x1629 JUMP JUMPDEST PUSH0 JUMPDEST DUP3 DUP2 LT ISZERO PUSH2 0x1863 JUMPI DUP5 DUP10 ADD MLOAD DUP3 SSTORE PUSH1 0x1 DUP3 ADD SWAP2 POP PUSH1 0x20 DUP6 ADD SWAP5 POP PUSH1 0x20 DUP2 ADD SWAP1 POP PUSH2 0x183E JUMP JUMPDEST DUP7 DUP4 LT ISZERO PUSH2 0x1880 JUMPI DUP5 DUP10 ADD MLOAD PUSH2 0x187C PUSH1 0x1F DUP10 AND DUP3 PUSH2 0x178F JUMP JUMPDEST DUP4 SSTORE POP JUMPDEST PUSH1 0x1 PUSH1 0x2 DUP9 MUL ADD DUP9 SSTORE POP POP POP JUMPDEST POP POP POP POP POP POP JUMP JUMPDEST PUSH0 PUSH1 0x80 DUP3 ADD SWAP1 POP PUSH2 0x18A8 PUSH0 DUP4 ADD DUP8 PUSH2 0xF09 JUMP JUMPDEST PUSH2 0x18B5 PUSH1 0x20 DUP4 ADD DUP7 PUSH2 0xF18 JUMP JUMPDEST DUP2 DUP2 SUB PUSH1 0x40 DUP4 ADD MSTORE PUSH2 0x18C7 DUP2 DUP6 PUSH2 0xF5F JUMP JUMPDEST SWAP1 POP PUSH2 0x18D6 PUSH1 0x60 DUP4 ADD DUP5 PUSH2 0xF09 JUMP JUMPDEST SWAP6 SWAP5 POP POP POP POP POP JUMP JUMPDEST PUSH32 0x547765657420686173206E6F206C696B65730000000000000000000000000000 PUSH0 DUP3 ADD MSTORE POP JUMP JUMPDEST PUSH0 PUSH2 0x1913 PUSH1 0x12 DUP4 PUSH2 0xF31 JUMP JUMPDEST SWAP2 POP PUSH2 0x191E DUP3 PUSH2 0x18DF JUMP JUMPDEST PUSH1 0x20 DUP3 ADD SWAP1 POP SWAP2 SWAP1 POP JUMP JUMPDEST PUSH0 PUSH1 0x20 DUP3 ADD SWAP1 POP DUP2 DUP2 SUB PUSH0 DUP4 ADD MSTORE PUSH2 0x1940 DUP2 PUSH2 0x1907 JUMP JUMPDEST SWAP1 POP SWAP2 SWAP1 POP JUMP JUMPDEST PUSH0 PUSH2 0x1951 DUP3 PUSH2 0xE98 JUMP JUMPDEST SWAP2 POP PUSH0 DUP3 SUB PUSH2 0x1963 JUMPI PUSH2 0x1962 PUSH2 0x150A JUMP JUMPDEST JUMPDEST PUSH1 0x1 DUP3 SUB SWAP1 POP SWAP2 SWAP1 POP JUMP INVALID LOG2 PUSH5 0x6970667358 0x22 SLT KECCAK256 GT 0xDD 0x4C SMOD 0xD7 PUSH15 0xE14DA1D6990D0A67E140045D8E65B0 0xC0 0xD3 SWAP3 0xC7 0xC5 SSTORE 0x27 PUSH3 0xF8BA6F PUSH5 0x736F6C6343 STOP ADDMOD BYTE STOP CALLER "
				},
				"gasEstimates": {
					"creation": {
						"codeDepositCost": "1312800",
						"executionCost": "infinite",
						"totalCost": "infinite"
					},
					"external": {
						"changeTweetLength(uint256)": "infinite",
						"createTweet(string)": "infinite",
						"getAllTweet()": "infinite",
						"getTweet(uint256)": "infinite",
						"likeTweet(address,uint256)": "infinite",
						"owner()": "2537",
						"renounceOwnership()": "infinite",
						"transferOwnership(address)": "infinite",
						"tweets(address,uint256)": "infinite",
						"unLikeTweet(address,uint256)": "infinite"
					}
				},
				"methodIdentifiers": {
					"changeTweetLength(uint256)": "888a7880",
					"createTweet(string)": "7c9cd2bc",
					"getAllTweet()": "675e0fb7",
					"getTweet(uint256)": "c3ad5ecb",
					"likeTweet(address,uint256)": "63378216",
					"owner()": "8da5cb5b",
					"renounceOwnership()": "715018a6",
					"transferOwnership(address)": "f2fde38b",
					"tweets(address,uint256)": "05a1b4a9",
					"unLikeTweet(address,uint256)": "9ef8633f"
				}
			},
			"storageLayout": {
				"storage": [
					{
						"astId": 8,
						"contract": "contracts/Twitter-Struct-inherit.sol:Twitter",
						"label": "_owner",
						"offset": 0,
						"slot": "0",
						"type": "t_address"
					},
					{
						"astId": 184,
						"contract": "contracts/Twitter-Struct-inherit.sol:Twitter",
						"label": "MAX_TWEET_LENGTH",
						"offset": 0,
						"slot": "1",
						"type": "t_uint256"
					},
					{
						"astId": 201,
						"contract": "contracts/Twitter-Struct-inherit.sol:Twitter",
						"label": "tweets",
						"offset": 0,
						"slot": "2",
						"type": "t_mapping(t_address,t_array(t_struct(Tweet)195_storage)dyn_storage)"
					}
				],
				"types": {
					"t_address": {
						"encoding": "inplace",
						"label": "address",
						"numberOfBytes": "20"
					},
					"t_array(t_struct(Tweet)195_storage)dyn_storage": {
						"base": "t_struct(Tweet)195_storage",
						"encoding": "dynamic_array",
						"label": "struct Twitter.Tweet[]",
						"numberOfBytes": "32"
					},
					"t_mapping(t_address,t_array(t_struct(Tweet)195_storage)dyn_storage)": {
						"encoding": "mapping",
						"key": "t_address",
						"label": "mapping(address => struct Twitter.Tweet[])",
						"numberOfBytes": "32",
						"value": "t_array(t_struct(Tweet)195_storage)dyn_storage"
					},
					"t_string_storage": {
						"encoding": "bytes",
						"label": "string",
						"numberOfBytes": "32"
					},
					"t_struct(Tweet)195_storage": {
						"encoding": "inplace",
						"label": "struct Twitter.Tweet",
						"members": [
							{
								"astId": 186,
								"contract": "contracts/Twitter-Struct-inherit.sol:Twitter",
								"label": "id",
								"offset": 0,
								"slot": "0",
								"type": "t_uint256"
							},
							{
								"astId": 188,
								"contract": "contracts/Twitter-Struct-inherit.sol:Twitter",
								"label": "auther",
								"offset": 0,
								"slot": "1",
								"type": "t_address"
							},
							{
								"astId": 190,
								"contract": "contracts/Twitter-Struct-inherit.sol:Twitter",
								"label": "content",
								"offset": 0,
								"slot": "2",
								"type": "t_string_storage"
							},
							{
								"astId": 192,
								"contract": "contracts/Twitter-Struct-inherit.sol:Twitter",
								"label": "timestamp",
								"offset": 0,
								"slot": "3",
								"type": "t_uint256"
							},
							{
								"astId": 194,
								"contract": "contracts/Twitter-Struct-inherit.sol:Twitter",
								"label": "likes",
								"offset": 0,
								"slot": "4",
								"type": "t_uint256"
							}
						],
						"numberOfBytes": "160"
					},
					"t_uint256": {
						"encoding": "inplace",
						"label": "uint256",
						"numberOfBytes": "32"
					}
				}
			},
			"userdoc": {
				"kind": "user",
				"methods": {},
				"version": 1
			}
		}
	}
}