{
	"contracts/Twitter-main.sol": {
		"Twitter": {
			"abi": [
				{
					"inputs": [
						{
							"internalType": "address",
							"name": "_profileContract",
							"type": "address"
						}
					],
					"stateMutability": "nonpayable",
					"type": "constructor"
				},
				{
					"inputs": [
						{
							"internalType": "address",
							"name": "owner",
							"type": "address"
						}
					],
					"name": "OwnableInvalidOwner",
					"type": "error"
				},
				{
					"inputs": [
						{
							"internalType": "address",
							"name": "account",
							"type": "address"
						}
					],
					"name": "OwnableUnauthorizedAccount",
					"type": "error"
				},
				{
					"anonymous": false,
					"inputs": [
						{
							"indexed": true,
							"internalType": "address",
							"name": "previousOwner",
							"type": "address"
						},
						{
							"indexed": true,
							"internalType": "address",
							"name": "newOwner",
							"type": "address"
						}
					],
					"name": "OwnershipTransferred",
					"type": "event"
				},
				{
					"anonymous": false,
					"inputs": [
						{
							"indexed": false,
							"internalType": "address",
							"name": "liker",
							"type": "address"
						},
						{
							"indexed": false,
							"internalType": "uint256",
							"name": "id",
							"type": "uint256"
						},
						{
							"indexed": false,
							"internalType": "address",
							"name": "auther",
							"type": "address"
						},
						{
							"indexed": false,
							"internalType": "uint256",
							"name": "likes",
							"type": "uint256"
						}
					],
					"name": "tweetLiked",
					"type": "event"
				},
				{
					"anonymous": false,
					"inputs": [
						{
							"indexed": false,
							"internalType": "address",
							"name": "unliker",
							"type": "address"
						},
						{
							"indexed": false,
							"internalType": "uint256",
							"name": "id",
							"type": "uint256"
						},
						{
							"indexed": false,
							"internalType": "address",
							"name": "auther",
							"type": "address"
						},
						{
							"indexed": false,
							"internalType": "uint256",
							"name": "likes",
							"type": "uint256"
						}
					],
					"name": "tweetUnLiked",
					"type": "event"
				},
				{
					"inputs": [
						{
							"internalType": "uint256",
							"name": "_length",
							"type": "uint256"
						}
					],
					"name": "changeTweetLength",
					"outputs": [],
					"stateMutability": "nonpayable",
					"type": "function"
				},
				{
					"inputs": [
						{
							"internalType": "string",
							"name": "_tweet",
							"type": "string"
						}
					],
					"name": "createTweet",
					"outputs": [],
					"stateMutability": "nonpayable",
					"type": "function"
				},
				{
					"inputs": [],
					"name": "getAllTweet",
					"outputs": [
						{
							"components": [
								{
									"internalType": "uint256",
									"name": "id",
									"type": "uint256"
								},
								{
									"internalType": "address",
									"name": "auther",
									"type": "address"
								},
								{
									"internalType": "string",
									"name": "content",
									"type": "string"
								},
								{
									"internalType": "uint256",
									"name": "timestamp",
									"type": "uint256"
								},
								{
									"internalType": "uint256",
									"name": "likes",
									"type": "uint256"
								}
							],
							"internalType": "struct Twitter.Tweet[]",
							"name": "",
							"type": "tuple[]"
						}
					],
					"stateMutability": "view",
					"type": "function"
				},
				{
					"inputs": [
						{
							"internalType": "uint256",
							"name": "_i",
							"type": "uint256"
						}
					],
					"name": "getTweet",
					"outputs": [
						{
							"components": [
								{
									"internalType": "uint256",
									"name": "id",
									"type": "uint256"
								},
								{
									"internalType": "address",
									"name": "auther",
									"type": "address"
								},
								{
									"internalType": "string",
									"name": "content",
									"type": "string"
								},
								{
									"internalType": "uint256",
									"name": "timestamp",
									"type": "uint256"
								},
								{
									"internalType": "uint256",
									"name": "likes",
									"type": "uint256"
								}
							],
							"internalType": "struct Twitter.Tweet",
							"name": "",
							"type": "tuple"
						}
					],
					"stateMutability": "view",
					"type": "function"
				},
				{
					"inputs": [
						{
							"internalType": "address",
							"name": "auther",
							"type": "address"
						},
						{
							"internalType": "uint256",
							"name": "_id",
							"type": "uint256"
						}
					],
					"name": "likeTweet",
					"outputs": [],
					"stateMutability": "nonpayable",
					"type": "function"
				},
				{
					"inputs": [],
					"name": "owner",
					"outputs": [
						{
							"internalType": "address",
							"name": "",
							"type": "address"
						}
					],
					"stateMutability": "view",
					"type": "function"
				},
				{
					"inputs": [],
					"name": "renounceOwnership",
					"outputs": [],
					"stateMutability": "nonpayable",
					"type": "function"
				},
				{
					"inputs": [
						{
							"internalType": "address",
							"name": "newOwner",
							"type": "address"
						}
					],
					"name": "transferOwnership",
					"outputs": [],
					"stateMutability": "nonpayable",
					"type": "function"
				},
				{
					"inputs": [
						{
							"internalType": "address",
							"name": "",
							"type": "address"
						},
						{
							"internalType": "uint256",
							"name": "",
							"type": "uint256"
						}
					],
					"name": "tweets",
					"outputs": [
						{
							"internalType": "uint256",
							"name": "id",
							"type": "uint256"
						},
						{
							"internalType": "address",
							"name": "auther",
							"type": "address"
						},
						{
							"internalType": "string",
							"name": "content",
							"type": "string"
						},
						{
							"internalType": "uint256",
							"name": "timestamp",
							"type": "uint256"
						},
						{
							"internalType": "uint256",
							"name": "likes",
							"type": "uint256"
						}
					],
					"stateMutability": "view",
					"type": "function"
				},
				{
					"inputs": [
						{
							"internalType": "address",
							"name": "auther",
							"type": "address"
						},
						{
							"internalType": "uint256",
							"name": "_id",
							"type": "uint256"
						}
					],
					"name": "unLikeTweet",
					"outputs": [],
					"stateMutability": "nonpayable",
					"type": "function"
				}
			],
			"devdoc": {
				"errors": {
					"OwnableInvalidOwner(address)": [
						{
							"details": "The owner is not a valid owner account. (eg. `address(0)`)"
						}
					],
					"OwnableUnauthorizedAccount(address)": [
						{
							"details": "The caller account is not authorized to perform an operation."
						}
					]
				},
				"kind": "dev",
				"methods": {
					"owner()": {
						"details": "Returns the address of the current owner."
					},
					"renounceOwnership()": {
						"details": "Leaves the contract without owner. It will not be possible to call `onlyOwner` functions. Can only be called by the current owner. NOTE: Renouncing ownership will leave the contract without an owner, thereby disabling any functionality that is only available to the owner."
					},
					"transferOwnership(address)": {
						"details": "Transfers ownership of the contract to a new account (`newOwner`). Can only be called by the current owner."
					}
				},
				"version": 1
			},
			"evm": {
				"assembly": "    /* \"contracts/Twitter-main.sol\":319:2992  contract Twitter is Ownable {... */\n  mstore(0x40, 0x80)\n    /* \"contracts/Twitter-main.sol\":1173:1324  constructor(address _profileContract) Ownable(msg.sender) {... */\n  callvalue\n  dup1\n  iszero\n  tag_1\n  jumpi\n  0x00\n  dup1\n  revert\ntag_1:\n  pop\n  mload(0x40)\n  sub(codesize, bytecodeSize)\n  dup1\n  bytecodeSize\n  dup4\n  codecopy\n  dup2\n  dup2\n  add\n  0x40\n  mstore\n  dup2\n  add\n  swap1\n  tag_2\n  swap2\n  swap1\n  tag_3\n  jump\t// in\ntag_2:\n    /* \"contracts/Twitter-main.sol\":1219:1229  msg.sender */\n  caller\n    /* \"@openzeppelin/contracts/access/Ownable.sol\":1297:1298  0 */\n  0x00\n    /* \"@openzeppelin/contracts/access/Ownable.sol\":1273:1299  initialOwner == address(0) */\n  0xffffffffffffffffffffffffffffffffffffffff\n  and\n    /* \"@openzeppelin/contracts/access/Ownable.sol\":1273:1285  initialOwner */\n  dup2\n    /* \"@openzeppelin/contracts/access/Ownable.sol\":1273:1299  initialOwner == address(0) */\n  0xffffffffffffffffffffffffffffffffffffffff\n  and\n  sub\n    /* \"@openzeppelin/contracts/access/Ownable.sol\":1269:1364  if (initialOwner == address(0)) {... */\n  tag_7\n  jumpi\n    /* \"@openzeppelin/contracts/access/Ownable.sol\":1350:1351  0 */\n  0x00\n    /* \"@openzeppelin/contracts/access/Ownable.sol\":1322:1353  OwnableInvalidOwner(address(0)) */\n  mload(0x40)\n  0x1e4fbdf700000000000000000000000000000000000000000000000000000000\n  dup2\n  mstore\n  0x04\n  add\n  tag_8\n  swap2\n  swap1\n  tag_9\n  jump\t// in\ntag_8:\n  mload(0x40)\n  dup1\n  swap2\n  sub\n  swap1\n  revert\n    /* \"@openzeppelin/contracts/access/Ownable.sol\":1269:1364  if (initialOwner == address(0)) {... */\ntag_7:\n    /* \"@openzeppelin/contracts/access/Ownable.sol\":1373:1405  _transferOwnership(initialOwner) */\n  tag_10\n    /* \"@openzeppelin/contracts/access/Ownable.sol\":1392:1404  initialOwner */\n  dup2\n    /* \"@openzeppelin/contracts/access/Ownable.sol\":1373:1391  _transferOwnership */\n  shl(0x20, tag_11)\n    /* \"@openzeppelin/contracts/access/Ownable.sol\":1373:1405  _transferOwnership(initialOwner) */\n  0x20\n  shr\n  jump\t// in\ntag_10:\n    /* \"@openzeppelin/contracts/access/Ownable.sol\":1225:1412  constructor(address initialOwner) {... */\n  pop\n    /* \"contracts/Twitter-main.sol\":1260:1263  280 */\n  0x0118\n    /* \"contracts/Twitter-main.sol\":1241:1257  MAX_TWEET_LENGTH */\n  0x01\n    /* \"contracts/Twitter-main.sol\":1241:1263  MAX_TWEET_LENGTH = 280 */\n  dup2\n  swap1\n  sstore\n  pop\n    /* \"contracts/Twitter-main.sol\":1300:1316  _profileContract */\n  dup1\n    /* \"contracts/Twitter-main.sol\":1273:1288  profileContract */\n  0x03\n  0x00\n    /* \"contracts/Twitter-main.sol\":1273:1317  profileContract = IProfile(_profileContract) */\n  0x0100\n  exp\n  dup2\n  sload\n  dup2\n  0xffffffffffffffffffffffffffffffffffffffff\n  mul\n  not\n  and\n  swap1\n  dup4\n  0xffffffffffffffffffffffffffffffffffffffff\n  and\n  mul\n  or\n  swap1\n  sstore\n  pop\n    /* \"contracts/Twitter-main.sol\":1173:1324  constructor(address _profileContract) Ownable(msg.sender) {... */\n  pop\n    /* \"contracts/Twitter-main.sol\":319:2992  contract Twitter is Ownable {... */\n  jump(tag_13)\n    /* \"@openzeppelin/contracts/access/Ownable.sol\":2912:3099  function _transferOwnership(address newOwner) internal virtual {... */\ntag_11:\n    /* \"@openzeppelin/contracts/access/Ownable.sol\":2985:3001  address oldOwner */\n  0x00\n    /* \"@openzeppelin/contracts/access/Ownable.sol\":3004:3010  _owner */\n  dup1\n  0x00\n  swap1\n  sload\n  swap1\n  0x0100\n  exp\n  swap1\n  div\n  0xffffffffffffffffffffffffffffffffffffffff\n  and\n    /* \"@openzeppelin/contracts/access/Ownable.sol\":2985:3010  address oldOwner = _owner */\n  swap1\n  pop\n    /* \"@openzeppelin/contracts/access/Ownable.sol\":3029:3037  newOwner */\n  dup2\n    /* \"@openzeppelin/contracts/access/Ownable.sol\":3020:3026  _owner */\n  0x00\n  dup1\n    /* \"@openzeppelin/contracts/access/Ownable.sol\":3020:3037  _owner = newOwner */\n  0x0100\n  exp\n  dup2\n  sload\n  dup2\n  0xffffffffffffffffffffffffffffffffffffffff\n  mul\n  not\n  and\n  swap1\n  dup4\n  0xffffffffffffffffffffffffffffffffffffffff\n  and\n  mul\n  or\n  swap1\n  sstore\n  pop\n    /* \"@openzeppelin/contracts/access/Ownable.sol\":3083:3091  newOwner */\n  dup2\n    /* \"@openzeppelin/contracts/access/Ownable.sol\":3052:3092  OwnershipTransferred(oldOwner, newOwner) */\n  0xffffffffffffffffffffffffffffffffffffffff\n  and\n    /* \"@openzeppelin/contracts/access/Ownable.sol\":3073:3081  oldOwner */\n  dup2\n    /* \"@openzeppelin/contracts/access/Ownable.sol\":3052:3092  OwnershipTransferred(oldOwner, newOwner) */\n  0xffffffffffffffffffffffffffffffffffffffff\n  and\n  0x8be0079c531659141344cd1fd0a4f28419497f9722a3daafe3b4186f6b6457e0\n  mload(0x40)\n  mload(0x40)\n  dup1\n  swap2\n  sub\n  swap1\n  log3\n    /* \"@openzeppelin/contracts/access/Ownable.sol\":2975:3099  {... */\n  pop\n    /* \"@openzeppelin/contracts/access/Ownable.sol\":2912:3099  function _transferOwnership(address newOwner) internal virtual {... */\n  pop\n  jump\t// out\n    /* \"#utility.yul\":88:205   */\ntag_16:\n    /* \"#utility.yul\":197:198   */\n  0x00\n    /* \"#utility.yul\":194:195   */\n  dup1\n    /* \"#utility.yul\":187:199   */\n  revert\n    /* \"#utility.yul\":334:460   */\ntag_18:\n    /* \"#utility.yul\":371:378   */\n  0x00\n    /* \"#utility.yul\":411:453   */\n  0xffffffffffffffffffffffffffffffffffffffff\n    /* \"#utility.yul\":404:409   */\n  dup3\n    /* \"#utility.yul\":400:454   */\n  and\n    /* \"#utility.yul\":389:454   */\n  swap1\n  pop\n    /* \"#utility.yul\":334:460   */\n  swap2\n  swap1\n  pop\n  jump\t// out\n    /* \"#utility.yul\":466:562   */\ntag_19:\n    /* \"#utility.yul\":503:510   */\n  0x00\n    /* \"#utility.yul\":532:556   */\n  tag_29\n    /* \"#utility.yul\":550:555   */\n  dup3\n    /* \"#utility.yul\":532:556   */\n  tag_18\n  jump\t// in\ntag_29:\n    /* \"#utility.yul\":521:556   */\n  swap1\n  pop\n    /* \"#utility.yul\":466:562   */\n  swap2\n  swap1\n  pop\n  jump\t// out\n    /* \"#utility.yul\":568:690   */\ntag_20:\n    /* \"#utility.yul\":641:665   */\n  tag_31\n    /* \"#utility.yul\":659:664   */\n  dup2\n    /* \"#utility.yul\":641:665   */\n  tag_19\n  jump\t// in\ntag_31:\n    /* \"#utility.yul\":634:639   */\n  dup2\n    /* \"#utility.yul\":631:666   */\n  eq\n    /* \"#utility.yul\":621:684   */\n  tag_32\n  jumpi\n    /* \"#utility.yul\":680:681   */\n  0x00\n    /* \"#utility.yul\":677:678   */\n  dup1\n    /* \"#utility.yul\":670:682   */\n  revert\n    /* \"#utility.yul\":621:684   */\ntag_32:\n    /* \"#utility.yul\":568:690   */\n  pop\n  jump\t// out\n    /* \"#utility.yul\":696:839   */\ntag_21:\n    /* \"#utility.yul\":753:758   */\n  0x00\n    /* \"#utility.yul\":784:790   */\n  dup2\n    /* \"#utility.yul\":778:791   */\n  mload\n    /* \"#utility.yul\":769:791   */\n  swap1\n  pop\n    /* \"#utility.yul\":800:833   */\n  tag_34\n    /* \"#utility.yul\":827:832   */\n  dup2\n    /* \"#utility.yul\":800:833   */\n  tag_20\n  jump\t// in\ntag_34:\n    /* \"#utility.yul\":696:839   */\n  swap3\n  swap2\n  pop\n  pop\n  jump\t// out\n    /* \"#utility.yul\":845:1196   */\ntag_3:\n    /* \"#utility.yul\":915:921   */\n  0x00\n    /* \"#utility.yul\":964:966   */\n  0x20\n    /* \"#utility.yul\":952:961   */\n  dup3\n    /* \"#utility.yul\":943:950   */\n  dup5\n    /* \"#utility.yul\":939:962   */\n  sub\n    /* \"#utility.yul\":935:967   */\n  slt\n    /* \"#utility.yul\":932:1051   */\n  iszero\n  tag_36\n  jumpi\n    /* \"#utility.yul\":970:1049   */\n  tag_37\n  tag_16\n  jump\t// in\ntag_37:\n    /* \"#utility.yul\":932:1051   */\ntag_36:\n    /* \"#utility.yul\":1090:1091   */\n  0x00\n    /* \"#utility.yul\":1115:1179   */\n  tag_38\n    /* \"#utility.yul\":1171:1178   */\n  dup5\n    /* \"#utility.yul\":1162:1168   */\n  dup3\n    /* \"#utility.yul\":1151:1160   */\n  dup6\n    /* \"#utility.yul\":1147:1169   */\n  add\n    /* \"#utility.yul\":1115:1179   */\n  tag_21\n  jump\t// in\ntag_38:\n    /* \"#utility.yul\":1105:1179   */\n  swap2\n  pop\n    /* \"#utility.yul\":1061:1189   */\n  pop\n    /* \"#utility.yul\":845:1196   */\n  swap3\n  swap2\n  pop\n  pop\n  jump\t// out\n    /* \"#utility.yul\":1202:1320   */\ntag_22:\n    /* \"#utility.yul\":1289:1313   */\n  tag_40\n    /* \"#utility.yul\":1307:1312   */\n  dup2\n    /* \"#utility.yul\":1289:1313   */\n  tag_19\n  jump\t// in\ntag_40:\n    /* \"#utility.yul\":1284:1287   */\n  dup3\n    /* \"#utility.yul\":1277:1314   */\n  mstore\n    /* \"#utility.yul\":1202:1320   */\n  pop\n  pop\n  jump\t// out\n    /* \"#utility.yul\":1326:1548   */\ntag_9:\n    /* \"#utility.yul\":1419:1423   */\n  0x00\n    /* \"#utility.yul\":1457:1459   */\n  0x20\n    /* \"#utility.yul\":1446:1455   */\n  dup3\n    /* \"#utility.yul\":1442:1460   */\n  add\n    /* \"#utility.yul\":1434:1460   */\n  swap1\n  pop\n    /* \"#utility.yul\":1470:1541   */\n  tag_42\n    /* \"#utility.yul\":1538:1539   */\n  0x00\n    /* \"#utility.yul\":1527:1536   */\n  dup4\n    /* \"#utility.yul\":1523:1540   */\n  add\n    /* \"#utility.yul\":1514:1520   */\n  dup5\n    /* \"#utility.yul\":1470:1541   */\n  tag_22\n  jump\t// in\ntag_42:\n    /* \"#utility.yul\":1326:1548   */\n  swap3\n  swap2\n  pop\n  pop\n  jump\t// out\n    /* \"contracts/Twitter-main.sol\":319:2992  contract Twitter is Ownable {... */\ntag_13:\n  dataSize(sub_0)\n  dup1\n  dataOffset(sub_0)\n  0x00\n  codecopy\n  0x00\n  return\nstop\n\nsub_0: assembly {\n        /* \"contracts/Twitter-main.sol\":319:2992  contract Twitter is Ownable {... */\n      mstore(0x40, 0x80)\n      callvalue\n      dup1\n      iszero\n      tag_1\n      jumpi\n      0x00\n      dup1\n      revert\n    tag_1:\n      pop\n      jumpi(tag_2, lt(calldatasize, 0x04))\n      shr(0xe0, calldataload(0x00))\n      dup1\n      0x888a7880\n      gt\n      tag_13\n      jumpi\n      dup1\n      0x888a7880\n      eq\n      tag_8\n      jumpi\n      dup1\n      0x8da5cb5b\n      eq\n      tag_9\n      jumpi\n      dup1\n      0x9ef8633f\n      eq\n      tag_10\n      jumpi\n      dup1\n      0xc3ad5ecb\n      eq\n      tag_11\n      jumpi\n      dup1\n      0xf2fde38b\n      eq\n      tag_12\n      jumpi\n      jump(tag_2)\n    tag_13:\n      dup1\n      0x05a1b4a9\n      eq\n      tag_3\n      jumpi\n      dup1\n      0x63378216\n      eq\n      tag_4\n      jumpi\n      dup1\n      0x675e0fb7\n      eq\n      tag_5\n      jumpi\n      dup1\n      0x715018a6\n      eq\n      tag_6\n      jumpi\n      dup1\n      0x7c9cd2bc\n      eq\n      tag_7\n      jumpi\n    tag_2:\n      0x00\n      dup1\n      revert\n        /* \"contracts/Twitter-main.sol\":556:597  mapping(address => Tweet[]) public tweets */\n    tag_3:\n      tag_14\n      0x04\n      dup1\n      calldatasize\n      sub\n      dup2\n      add\n      swap1\n      tag_15\n      swap2\n      swap1\n      tag_16\n      jump\t// in\n    tag_15:\n      tag_17\n      jump\t// in\n    tag_14:\n      mload(0x40)\n      tag_18\n      swap6\n      swap5\n      swap4\n      swap3\n      swap2\n      swap1\n      tag_19\n      jump\t// in\n    tag_18:\n      mload(0x40)\n      dup1\n      swap2\n      sub\n      swap1\n      return\n        /* \"contracts/Twitter-main.sol\":2156:2421  function likeTweet(address auther, uint256 _id) external onlyRegistered {... */\n    tag_4:\n      tag_20\n      0x04\n      dup1\n      calldatasize\n      sub\n      dup2\n      add\n      swap1\n      tag_21\n      swap2\n      swap1\n      tag_16\n      jump\t// in\n    tag_21:\n      tag_22\n      jump\t// in\n    tag_20:\n      stop\n        /* \"contracts/Twitter-main.sol\":2888:2990  function getAllTweet() public view returns (Tweet[] memory) {... */\n    tag_5:\n      tag_23\n      tag_24\n      jump\t// in\n    tag_23:\n      mload(0x40)\n      tag_25\n      swap2\n      swap1\n      tag_26\n      jump\t// in\n    tag_25:\n      mload(0x40)\n      dup1\n      swap2\n      sub\n      swap1\n      return\n        /* \"@openzeppelin/contracts/access/Ownable.sol\":2293:2394  function renounceOwnership() public virtual onlyOwner {... */\n    tag_6:\n      tag_27\n      tag_28\n      jump\t// in\n    tag_27:\n      stop\n        /* \"contracts/Twitter-main.sol\":1440:2150  function createTweet(string memory _tweet) public onlyRegistered {... */\n    tag_7:\n      tag_29\n      0x04\n      dup1\n      calldatasize\n      sub\n      dup2\n      add\n      swap1\n      tag_30\n      swap2\n      swap1\n      tag_31\n      jump\t// in\n    tag_30:\n      tag_32\n      jump\t// in\n    tag_29:\n      stop\n        /* \"contracts/Twitter-main.sol\":1330:1434  function changeTweetLength(uint256 _length) public onlyOwner {... */\n    tag_8:\n      tag_33\n      0x04\n      dup1\n      calldatasize\n      sub\n      dup2\n      add\n      swap1\n      tag_34\n      swap2\n      swap1\n      tag_35\n      jump\t// in\n    tag_34:\n      tag_36\n      jump\t// in\n    tag_33:\n      stop\n        /* \"@openzeppelin/contracts/access/Ownable.sol\":1638:1723  function owner() public view virtual returns (address) {... */\n    tag_9:\n      tag_37\n      tag_38\n      jump\t// in\n    tag_37:\n      mload(0x40)\n      tag_39\n      swap2\n      swap1\n      tag_40\n      jump\t// in\n    tag_39:\n      mload(0x40)\n      dup1\n      swap2\n      sub\n      swap1\n      return\n        /* \"contracts/Twitter-main.sol\":2427:2765  function unLikeTweet(address auther, uint256 _id) external onlyRegistered {... */\n    tag_10:\n      tag_41\n      0x04\n      dup1\n      calldatasize\n      sub\n      dup2\n      add\n      swap1\n      tag_42\n      swap2\n      swap1\n      tag_16\n      jump\t// in\n    tag_42:\n      tag_43\n      jump\t// in\n    tag_41:\n      stop\n        /* \"contracts/Twitter-main.sol\":2771:2882  function getTweet(uint256 _i) public view returns (Tweet memory) {... */\n    tag_11:\n      tag_44\n      0x04\n      dup1\n      calldatasize\n      sub\n      dup2\n      add\n      swap1\n      tag_45\n      swap2\n      swap1\n      tag_35\n      jump\t// in\n    tag_45:\n      tag_46\n      jump\t// in\n    tag_44:\n      mload(0x40)\n      tag_47\n      swap2\n      swap1\n      tag_48\n      jump\t// in\n    tag_47:\n      mload(0x40)\n      dup1\n      swap2\n      sub\n      swap1\n      return\n        /* \"@openzeppelin/contracts/access/Ownable.sol\":2543:2758  function transferOwnership(address newOwner) public virtual onlyOwner {... */\n    tag_12:\n      tag_49\n      0x04\n      dup1\n      calldatasize\n      sub\n      dup2\n      add\n      swap1\n      tag_50\n      swap2\n      swap1\n      tag_51\n      jump\t// in\n    tag_50:\n      tag_52\n      jump\t// in\n    tag_49:\n      stop\n        /* \"contracts/Twitter-main.sol\":556:597  mapping(address => Tweet[]) public tweets */\n    tag_17:\n      mstore(0x20, 0x02)\n      dup2\n      0x00\n      mstore\n      keccak256(0x00, 0x40)\n      dup2\n      dup2\n      sload\n      dup2\n      lt\n      tag_53\n      jumpi\n      0x00\n      dup1\n      revert\n    tag_53:\n      swap1\n      0x00\n      mstore\n      keccak256(0x00, 0x20)\n      swap1\n      0x05\n      mul\n      add\n      0x00\n      swap2\n      pop\n      swap2\n      pop\n      pop\n      dup1\n      0x00\n      add\n      sload\n      swap1\n      dup1\n      0x01\n      add\n      0x00\n      swap1\n      sload\n      swap1\n      0x0100\n      exp\n      swap1\n      div\n      0xffffffffffffffffffffffffffffffffffffffff\n      and\n      swap1\n      dup1\n      0x02\n      add\n      dup1\n      sload\n      tag_55\n      swap1\n      tag_56\n      jump\t// in\n    tag_55:\n      dup1\n      0x1f\n      add\n      0x20\n      dup1\n      swap2\n      div\n      mul\n      0x20\n      add\n      mload(0x40)\n      swap1\n      dup2\n      add\n      0x40\n      mstore\n      dup1\n      swap3\n      swap2\n      swap1\n      dup2\n      dup2\n      mstore\n      0x20\n      add\n      dup3\n      dup1\n      sload\n      tag_57\n      swap1\n      tag_56\n      jump\t// in\n    tag_57:\n      dup1\n      iszero\n      tag_58\n      jumpi\n      dup1\n      0x1f\n      lt\n      tag_59\n      jumpi\n      0x0100\n      dup1\n      dup4\n      sload\n      div\n      mul\n      dup4\n      mstore\n      swap2\n      0x20\n      add\n      swap2\n      jump(tag_58)\n    tag_59:\n      dup3\n      add\n      swap2\n      swap1\n      0x00\n      mstore\n      keccak256(0x00, 0x20)\n      swap1\n    tag_60:\n      dup2\n      sload\n      dup2\n      mstore\n      swap1\n      0x01\n      add\n      swap1\n      0x20\n      add\n      dup1\n      dup4\n      gt\n      tag_60\n      jumpi\n      dup3\n      swap1\n      sub\n      0x1f\n      and\n      dup3\n      add\n      swap2\n    tag_58:\n      pop\n      pop\n      pop\n      pop\n      pop\n      swap1\n      dup1\n      0x03\n      add\n      sload\n      swap1\n      dup1\n      0x04\n      add\n      sload\n      swap1\n      pop\n      dup6\n      jump\t// out\n        /* \"contracts/Twitter-main.sol\":2156:2421  function likeTweet(address auther, uint256 _id) external onlyRegistered {... */\n    tag_22:\n        /* \"contracts/Twitter-main.sol\":1103:1104  0 */\n      0x00\n        /* \"contracts/Twitter-main.sol\":1045:1060  profileContract */\n      0x03\n      0x00\n      swap1\n      sload\n      swap1\n      0x0100\n      exp\n      swap1\n      div\n      0xffffffffffffffffffffffffffffffffffffffff\n      and\n        /* \"contracts/Twitter-main.sol\":1045:1071  profileContract.getProfile */\n      0xffffffffffffffffffffffffffffffffffffffff\n      and\n      0x0f53a470\n        /* \"contracts/Twitter-main.sol\":1072:1082  msg.sender */\n      caller\n        /* \"contracts/Twitter-main.sol\":1045:1083  profileContract.getProfile(msg.sender) */\n      mload(0x40)\n      dup3\n      0xffffffff\n      and\n      0xe0\n      shl\n      dup2\n      mstore\n      0x04\n      add\n      tag_62\n      swap2\n      swap1\n      tag_40\n      jump\t// in\n    tag_62:\n      0x00\n      mload(0x40)\n      dup1\n      dup4\n      sub\n      dup2\n      dup7\n      gas\n      staticcall\n      iszero\n      dup1\n      iszero\n      tag_64\n      jumpi\n      returndatasize\n      0x00\n      dup1\n      returndatacopy\n      revert(0x00, returndatasize)\n    tag_64:\n      pop\n      pop\n      pop\n      pop\n      mload(0x40)\n      returndatasize\n      0x00\n      dup3\n      returndatacopy\n      returndatasize\n      not(0x1f)\n      0x1f\n      dup3\n      add\n      and\n      dup3\n      add\n      dup1\n      0x40\n      mstore\n      pop\n      dup2\n      add\n      swap1\n      tag_65\n      swap2\n      swap1\n      tag_66\n      jump\t// in\n    tag_65:\n        /* \"contracts/Twitter-main.sol\":1045:1092  profileContract.getProfile(msg.sender).username */\n      0x00\n      add\n      mload\n        /* \"contracts/Twitter-main.sol\":1039:1100  bytes(profileContract.getProfile(msg.sender).username).length */\n      mload\n        /* \"contracts/Twitter-main.sol\":1039:1104  bytes(profileContract.getProfile(msg.sender).username).length > 0 */\n      gt\n        /* \"contracts/Twitter-main.sol\":1018:1149  require(... */\n      tag_67\n      jumpi\n      mload(0x40)\n      0x08c379a000000000000000000000000000000000000000000000000000000000\n      dup2\n      mstore\n      0x04\n      add\n      tag_68\n      swap1\n      tag_69\n      jump\t// in\n    tag_68:\n      mload(0x40)\n      dup1\n      swap2\n      sub\n      swap1\n      revert\n    tag_67:\n        /* \"contracts/Twitter-main.sol\":2272:2275  _id */\n      dup1\n        /* \"contracts/Twitter-main.sol\":2246:2252  tweets */\n      0x02\n        /* \"contracts/Twitter-main.sol\":2246:2260  tweets[auther] */\n      0x00\n        /* \"contracts/Twitter-main.sol\":2253:2259  auther */\n      dup5\n        /* \"contracts/Twitter-main.sol\":2246:2260  tweets[auther] */\n      0xffffffffffffffffffffffffffffffffffffffff\n      and\n      0xffffffffffffffffffffffffffffffffffffffff\n      and\n      dup2\n      mstore\n      0x20\n      add\n      swap1\n      dup2\n      mstore\n      0x20\n      add\n      0x00\n      keccak256\n        /* \"contracts/Twitter-main.sol\":2261:2264  _id */\n      dup3\n        /* \"contracts/Twitter-main.sol\":2246:2265  tweets[auther][_id] */\n      dup2\n      sload\n      dup2\n      lt\n      tag_71\n      jumpi\n      tag_72\n      tag_73\n      jump\t// in\n    tag_72:\n    tag_71:\n      swap1\n      0x00\n      mstore\n      keccak256(0x00, 0x20)\n      swap1\n      0x05\n      mul\n      add\n        /* \"contracts/Twitter-main.sol\":2246:2268  tweets[auther][_id].id */\n      0x00\n      add\n      sload\n        /* \"contracts/Twitter-main.sol\":2246:2275  tweets[auther][_id].id == _id */\n      eq\n        /* \"contracts/Twitter-main.sol\":2238:2300  require(tweets[auther][_id].id == _id, \"Tweet does not exist\") */\n      tag_75\n      jumpi\n      mload(0x40)\n      0x08c379a000000000000000000000000000000000000000000000000000000000\n      dup2\n      mstore\n      0x04\n      add\n      tag_76\n      swap1\n      tag_77\n      jump\t// in\n    tag_76:\n      mload(0x40)\n      dup1\n      swap2\n      sub\n      swap1\n      revert\n    tag_75:\n        /* \"contracts/Twitter-main.sol\":2310:2316  tweets */\n      0x02\n        /* \"contracts/Twitter-main.sol\":2310:2324  tweets[auther] */\n      0x00\n        /* \"contracts/Twitter-main.sol\":2317:2323  auther */\n      dup4\n        /* \"contracts/Twitter-main.sol\":2310:2324  tweets[auther] */\n      0xffffffffffffffffffffffffffffffffffffffff\n      and\n      0xffffffffffffffffffffffffffffffffffffffff\n      and\n      dup2\n      mstore\n      0x20\n      add\n      swap1\n      dup2\n      mstore\n      0x20\n      add\n      0x00\n      keccak256\n        /* \"contracts/Twitter-main.sol\":2325:2328  _id */\n      dup2\n        /* \"contracts/Twitter-main.sol\":2310:2329  tweets[auther][_id] */\n      dup2\n      sload\n      dup2\n      lt\n      tag_78\n      jumpi\n      tag_79\n      tag_73\n      jump\t// in\n    tag_79:\n    tag_78:\n      swap1\n      0x00\n      mstore\n      keccak256(0x00, 0x20)\n      swap1\n      0x05\n      mul\n      add\n        /* \"contracts/Twitter-main.sol\":2310:2335  tweets[auther][_id].likes */\n      0x04\n      add\n      0x00\n        /* \"contracts/Twitter-main.sol\":2310:2337  tweets[auther][_id].likes++ */\n      dup2\n      sload\n      dup1\n      swap3\n      swap2\n      swap1\n      tag_81\n      swap1\n      tag_82\n      jump\t// in\n    tag_81:\n      swap2\n      swap1\n      pop\n      sstore\n      pop\n        /* \"contracts/Twitter-main.sol\":2352:2414  tweetLiked(msg.sender, _id, auther, tweets[auther][_id].likes) */\n      0x5bd959f96efc2338d934ab72127be36035ff98de2f1584d2951239db17662d21\n        /* \"contracts/Twitter-main.sol\":2363:2373  msg.sender */\n      caller\n        /* \"contracts/Twitter-main.sol\":2375:2378  _id */\n      dup3\n        /* \"contracts/Twitter-main.sol\":2380:2386  auther */\n      dup5\n        /* \"contracts/Twitter-main.sol\":2388:2394  tweets */\n      0x02\n        /* \"contracts/Twitter-main.sol\":2388:2402  tweets[auther] */\n      0x00\n        /* \"contracts/Twitter-main.sol\":2395:2401  auther */\n      dup8\n        /* \"contracts/Twitter-main.sol\":2388:2402  tweets[auther] */\n      0xffffffffffffffffffffffffffffffffffffffff\n      and\n      0xffffffffffffffffffffffffffffffffffffffff\n      and\n      dup2\n      mstore\n      0x20\n      add\n      swap1\n      dup2\n      mstore\n      0x20\n      add\n      0x00\n      keccak256\n        /* \"contracts/Twitter-main.sol\":2403:2406  _id */\n      dup6\n        /* \"contracts/Twitter-main.sol\":2388:2407  tweets[auther][_id] */\n      dup2\n      sload\n      dup2\n      lt\n      tag_83\n      jumpi\n      tag_84\n      tag_73\n      jump\t// in\n    tag_84:\n    tag_83:\n      swap1\n      0x00\n      mstore\n      keccak256(0x00, 0x20)\n      swap1\n      0x05\n      mul\n      add\n        /* \"contracts/Twitter-main.sol\":2388:2413  tweets[auther][_id].likes */\n      0x04\n      add\n      sload\n        /* \"contracts/Twitter-main.sol\":2352:2414  tweetLiked(msg.sender, _id, auther, tweets[auther][_id].likes) */\n      mload(0x40)\n      tag_86\n      swap5\n      swap4\n      swap3\n      swap2\n      swap1\n      tag_87\n      jump\t// in\n    tag_86:\n      mload(0x40)\n      dup1\n      swap2\n      sub\n      swap1\n      log1\n        /* \"contracts/Twitter-main.sol\":2156:2421  function likeTweet(address auther, uint256 _id) external onlyRegistered {... */\n      pop\n      pop\n      jump\t// out\n        /* \"contracts/Twitter-main.sol\":2888:2990  function getAllTweet() public view returns (Tweet[] memory) {... */\n    tag_24:\n        /* \"contracts/Twitter-main.sol\":2932:2946  Tweet[] memory */\n      0x60\n        /* \"contracts/Twitter-main.sol\":2965:2971  tweets */\n      0x02\n        /* \"contracts/Twitter-main.sol\":2965:2983  tweets[msg.sender] */\n      0x00\n        /* \"contracts/Twitter-main.sol\":2972:2982  msg.sender */\n      caller\n        /* \"contracts/Twitter-main.sol\":2965:2983  tweets[msg.sender] */\n      0xffffffffffffffffffffffffffffffffffffffff\n      and\n      0xffffffffffffffffffffffffffffffffffffffff\n      and\n      dup2\n      mstore\n      0x20\n      add\n      swap1\n      dup2\n      mstore\n      0x20\n      add\n      0x00\n      keccak256\n        /* \"contracts/Twitter-main.sol\":2958:2983  return tweets[msg.sender] */\n      dup1\n      sload\n      dup1\n      0x20\n      mul\n      0x20\n      add\n      mload(0x40)\n      swap1\n      dup2\n      add\n      0x40\n      mstore\n      dup1\n      swap3\n      swap2\n      swap1\n      dup2\n      dup2\n      mstore\n      0x20\n      add\n      0x00\n      swap1\n    tag_89:\n      dup3\n      dup3\n      lt\n      iszero\n      tag_90\n      jumpi\n      dup4\n      dup3\n      swap1\n      0x00\n      mstore\n      keccak256(0x00, 0x20)\n      swap1\n      0x05\n      mul\n      add\n      mload(0x40)\n      dup1\n      0xa0\n      add\n      0x40\n      mstore\n      swap1\n      dup2\n      0x00\n      dup3\n      add\n      sload\n      dup2\n      mstore\n      0x20\n      add\n      0x01\n      dup3\n      add\n      0x00\n      swap1\n      sload\n      swap1\n      0x0100\n      exp\n      swap1\n      div\n      0xffffffffffffffffffffffffffffffffffffffff\n      and\n      0xffffffffffffffffffffffffffffffffffffffff\n      and\n      0xffffffffffffffffffffffffffffffffffffffff\n      and\n      dup2\n      mstore\n      0x20\n      add\n      0x02\n      dup3\n      add\n      dup1\n      sload\n      tag_92\n      swap1\n      tag_56\n      jump\t// in\n    tag_92:\n      dup1\n      0x1f\n      add\n      0x20\n      dup1\n      swap2\n      div\n      mul\n      0x20\n      add\n      mload(0x40)\n      swap1\n      dup2\n      add\n      0x40\n      mstore\n      dup1\n      swap3\n      swap2\n      swap1\n      dup2\n      dup2\n      mstore\n      0x20\n      add\n      dup3\n      dup1\n      sload\n      tag_93\n      swap1\n      tag_56\n      jump\t// in\n    tag_93:\n      dup1\n      iszero\n      tag_94\n      jumpi\n      dup1\n      0x1f\n      lt\n      tag_95\n      jumpi\n      0x0100\n      dup1\n      dup4\n      sload\n      div\n      mul\n      dup4\n      mstore\n      swap2\n      0x20\n      add\n      swap2\n      jump(tag_94)\n    tag_95:\n      dup3\n      add\n      swap2\n      swap1\n      0x00\n      mstore\n      keccak256(0x00, 0x20)\n      swap1\n    tag_96:\n      dup2\n      sload\n      dup2\n      mstore\n      swap1\n      0x01\n      add\n      swap1\n      0x20\n      add\n      dup1\n      dup4\n      gt\n      tag_96\n      jumpi\n      dup3\n      swap1\n      sub\n      0x1f\n      and\n      dup3\n      add\n      swap2\n    tag_94:\n      pop\n      pop\n      pop\n      pop\n      pop\n      dup2\n      mstore\n      0x20\n      add\n      0x03\n      dup3\n      add\n      sload\n      dup2\n      mstore\n      0x20\n      add\n      0x04\n      dup3\n      add\n      sload\n      dup2\n      mstore\n      pop\n      pop\n      dup2\n      mstore\n      0x20\n      add\n      swap1\n      0x01\n      add\n      swap1\n      jump(tag_89)\n    tag_90:\n      pop\n      pop\n      pop\n      pop\n      swap1\n      pop\n        /* \"contracts/Twitter-main.sol\":2888:2990  function getAllTweet() public view returns (Tweet[] memory) {... */\n      swap1\n      jump\t// out\n        /* \"@openzeppelin/contracts/access/Ownable.sol\":2293:2394  function renounceOwnership() public virtual onlyOwner {... */\n    tag_28:\n        /* \"@openzeppelin/contracts/access/Ownable.sol\":1531:1544  _checkOwner() */\n      tag_98\n        /* \"@openzeppelin/contracts/access/Ownable.sol\":1531:1542  _checkOwner */\n      tag_99\n        /* \"@openzeppelin/contracts/access/Ownable.sol\":1531:1544  _checkOwner() */\n      jump\t// in\n    tag_98:\n        /* \"@openzeppelin/contracts/access/Ownable.sol\":2357:2387  _transferOwnership(address(0)) */\n      tag_101\n        /* \"@openzeppelin/contracts/access/Ownable.sol\":2384:2385  0 */\n      0x00\n        /* \"@openzeppelin/contracts/access/Ownable.sol\":2357:2375  _transferOwnership */\n      tag_102\n        /* \"@openzeppelin/contracts/access/Ownable.sol\":2357:2387  _transferOwnership(address(0)) */\n      jump\t// in\n    tag_101:\n        /* \"@openzeppelin/contracts/access/Ownable.sol\":2293:2394  function renounceOwnership() public virtual onlyOwner {... */\n      jump\t// out\n        /* \"contracts/Twitter-main.sol\":1440:2150  function createTweet(string memory _tweet) public onlyRegistered {... */\n    tag_32:\n        /* \"contracts/Twitter-main.sol\":1103:1104  0 */\n      0x00\n        /* \"contracts/Twitter-main.sol\":1045:1060  profileContract */\n      0x03\n      0x00\n      swap1\n      sload\n      swap1\n      0x0100\n      exp\n      swap1\n      div\n      0xffffffffffffffffffffffffffffffffffffffff\n      and\n        /* \"contracts/Twitter-main.sol\":1045:1071  profileContract.getProfile */\n      0xffffffffffffffffffffffffffffffffffffffff\n      and\n      0x0f53a470\n        /* \"contracts/Twitter-main.sol\":1072:1082  msg.sender */\n      caller\n        /* \"contracts/Twitter-main.sol\":1045:1083  profileContract.getProfile(msg.sender) */\n      mload(0x40)\n      dup3\n      0xffffffff\n      and\n      0xe0\n      shl\n      dup2\n      mstore\n      0x04\n      add\n      tag_104\n      swap2\n      swap1\n      tag_40\n      jump\t// in\n    tag_104:\n      0x00\n      mload(0x40)\n      dup1\n      dup4\n      sub\n      dup2\n      dup7\n      gas\n      staticcall\n      iszero\n      dup1\n      iszero\n      tag_106\n      jumpi\n      returndatasize\n      0x00\n      dup1\n      returndatacopy\n      revert(0x00, returndatasize)\n    tag_106:\n      pop\n      pop\n      pop\n      pop\n      mload(0x40)\n      returndatasize\n      0x00\n      dup3\n      returndatacopy\n      returndatasize\n      not(0x1f)\n      0x1f\n      dup3\n      add\n      and\n      dup3\n      add\n      dup1\n      0x40\n      mstore\n      pop\n      dup2\n      add\n      swap1\n      tag_107\n      swap2\n      swap1\n      tag_66\n      jump\t// in\n    tag_107:\n        /* \"contracts/Twitter-main.sol\":1045:1092  profileContract.getProfile(msg.sender).username */\n      0x00\n      add\n      mload\n        /* \"contracts/Twitter-main.sol\":1039:1100  bytes(profileContract.getProfile(msg.sender).username).length */\n      mload\n        /* \"contracts/Twitter-main.sol\":1039:1104  bytes(profileContract.getProfile(msg.sender).username).length > 0 */\n      gt\n        /* \"contracts/Twitter-main.sol\":1018:1149  require(... */\n      tag_108\n      jumpi\n      mload(0x40)\n      0x08c379a000000000000000000000000000000000000000000000000000000000\n      dup2\n      mstore\n      0x04\n      add\n      tag_109\n      swap1\n      tag_69\n      jump\t// in\n    tag_109:\n      mload(0x40)\n      dup1\n      swap2\n      sub\n      swap1\n      revert\n    tag_108:\n        /* \"contracts/Twitter-main.sol\":1673:1689  MAX_TWEET_LENGTH */\n      sload(0x01)\n        /* \"contracts/Twitter-main.sol\":1655:1661  _tweet */\n      dup2\n        /* \"contracts/Twitter-main.sol\":1649:1669  bytes(_tweet).length */\n      mload\n        /* \"contracts/Twitter-main.sol\":1649:1689  bytes(_tweet).length <= MAX_TWEET_LENGTH */\n      gt\n      iszero\n        /* \"contracts/Twitter-main.sol\":1641:1711  require(bytes(_tweet).length <= MAX_TWEET_LENGTH, \"Tweet is too long\") */\n      tag_111\n      jumpi\n      mload(0x40)\n      0x08c379a000000000000000000000000000000000000000000000000000000000\n      dup2\n      mstore\n      0x04\n      add\n      tag_112\n      swap1\n      tag_113\n      jump\t// in\n    tag_112:\n      mload(0x40)\n      dup1\n      swap2\n      sub\n      swap1\n      revert\n    tag_111:\n        /* \"contracts/Twitter-main.sol\":1721:1742  Tweet memory newTweet */\n      0x00\n        /* \"contracts/Twitter-main.sol\":1745:1928  Tweet({... */\n      mload(0x40)\n      dup1\n      0xa0\n      add\n      0x40\n      mstore\n      dup1\n        /* \"contracts/Twitter-main.sol\":1769:1775  tweets */\n      0x02\n        /* \"contracts/Twitter-main.sol\":1769:1787  tweets[msg.sender] */\n      0x00\n        /* \"contracts/Twitter-main.sol\":1776:1786  msg.sender */\n      caller\n        /* \"contracts/Twitter-main.sol\":1769:1787  tweets[msg.sender] */\n      0xffffffffffffffffffffffffffffffffffffffff\n      and\n      0xffffffffffffffffffffffffffffffffffffffff\n      and\n      dup2\n      mstore\n      0x20\n      add\n      swap1\n      dup2\n      mstore\n      0x20\n      add\n      0x00\n      keccak256\n        /* \"contracts/Twitter-main.sol\":1769:1794  tweets[msg.sender].length */\n      dup1\n      sload\n      swap1\n      pop\n        /* \"contracts/Twitter-main.sol\":1745:1928  Tweet({... */\n      dup2\n      mstore\n      0x20\n      add\n        /* \"contracts/Twitter-main.sol\":1816:1826  msg.sender */\n      caller\n        /* \"contracts/Twitter-main.sol\":1745:1928  Tweet({... */\n      0xffffffffffffffffffffffffffffffffffffffff\n      and\n      dup2\n      mstore\n      0x20\n      add\n        /* \"contracts/Twitter-main.sol\":1849:1855  _tweet */\n      dup4\n        /* \"contracts/Twitter-main.sol\":1745:1928  Tweet({... */\n      dup2\n      mstore\n      0x20\n      add\n        /* \"contracts/Twitter-main.sol\":1880:1895  block.timestamp */\n      timestamp\n        /* \"contracts/Twitter-main.sol\":1745:1928  Tweet({... */\n      dup2\n      mstore\n      0x20\n      add\n        /* \"contracts/Twitter-main.sol\":1916:1917  0 */\n      0x00\n        /* \"contracts/Twitter-main.sol\":1745:1928  Tweet({... */\n      dup2\n      mstore\n      pop\n        /* \"contracts/Twitter-main.sol\":1721:1928  Tweet memory newTweet = Tweet({... */\n      swap1\n      pop\n        /* \"contracts/Twitter-main.sol\":1939:1945  tweets */\n      0x02\n        /* \"contracts/Twitter-main.sol\":1939:1957  tweets[msg.sender] */\n      0x00\n        /* \"contracts/Twitter-main.sol\":1946:1956  msg.sender */\n      caller\n        /* \"contracts/Twitter-main.sol\":1939:1957  tweets[msg.sender] */\n      0xffffffffffffffffffffffffffffffffffffffff\n      and\n      0xffffffffffffffffffffffffffffffffffffffff\n      and\n      dup2\n      mstore\n      0x20\n      add\n      swap1\n      dup2\n      mstore\n      0x20\n      add\n      0x00\n      keccak256\n        /* \"contracts/Twitter-main.sol\":1963:1971  newTweet */\n      dup2\n        /* \"contracts/Twitter-main.sol\":1939:1972  tweets[msg.sender].push(newTweet) */\n      swap1\n      dup1\n      0x01\n      dup2\n      sload\n      add\n      dup1\n      dup3\n      sstore\n      dup1\n      swap2\n      pop\n      pop\n      0x01\n      swap1\n      sub\n      swap1\n      0x00\n      mstore\n      keccak256(0x00, 0x20)\n      swap1\n      0x05\n      mul\n      add\n      0x00\n      swap1\n      swap2\n      swap1\n      swap2\n      swap1\n      swap2\n      pop\n      0x00\n      dup3\n      add\n      mload\n      dup2\n      0x00\n      add\n      sstore\n      0x20\n      dup3\n      add\n      mload\n      dup2\n      0x01\n      add\n      exp(0x0100, 0x00)\n      dup2\n      sload\n      dup2\n      0xffffffffffffffffffffffffffffffffffffffff\n      mul\n      not\n      and\n      swap1\n      dup4\n      0xffffffffffffffffffffffffffffffffffffffff\n      and\n      mul\n      or\n      swap1\n      sstore\n      pop\n      0x40\n      dup3\n      add\n      mload\n      dup2\n      0x02\n      add\n      swap1\n      dup2\n      tag_115\n      swap2\n      swap1\n      tag_116\n      jump\t// in\n    tag_115:\n      pop\n      0x60\n      dup3\n      add\n      mload\n      dup2\n      0x03\n      add\n      sstore\n      0x80\n      dup3\n      add\n      mload\n      dup2\n      0x04\n      add\n      sstore\n      pop\n      pop\n        /* \"contracts/Twitter-main.sol\":1505:2150  {... */\n      pop\n        /* \"contracts/Twitter-main.sol\":1440:2150  function createTweet(string memory _tweet) public onlyRegistered {... */\n      pop\n      jump\t// out\n        /* \"contracts/Twitter-main.sol\":1330:1434  function changeTweetLength(uint256 _length) public onlyOwner {... */\n    tag_36:\n        /* \"@openzeppelin/contracts/access/Ownable.sol\":1531:1544  _checkOwner() */\n      tag_118\n        /* \"@openzeppelin/contracts/access/Ownable.sol\":1531:1542  _checkOwner */\n      tag_99\n        /* \"@openzeppelin/contracts/access/Ownable.sol\":1531:1544  _checkOwner() */\n      jump\t// in\n    tag_118:\n        /* \"contracts/Twitter-main.sol\":1420:1427  _length */\n      dup1\n        /* \"contracts/Twitter-main.sol\":1401:1417  MAX_TWEET_LENGTH */\n      0x01\n        /* \"contracts/Twitter-main.sol\":1401:1427  MAX_TWEET_LENGTH = _length */\n      dup2\n      swap1\n      sstore\n      pop\n        /* \"contracts/Twitter-main.sol\":1330:1434  function changeTweetLength(uint256 _length) public onlyOwner {... */\n      pop\n      jump\t// out\n        /* \"@openzeppelin/contracts/access/Ownable.sol\":1638:1723  function owner() public view virtual returns (address) {... */\n    tag_38:\n        /* \"@openzeppelin/contracts/access/Ownable.sol\":1684:1691  address */\n      0x00\n        /* \"@openzeppelin/contracts/access/Ownable.sol\":1710:1716  _owner */\n      dup1\n      0x00\n      swap1\n      sload\n      swap1\n      0x0100\n      exp\n      swap1\n      div\n      0xffffffffffffffffffffffffffffffffffffffff\n      and\n        /* \"@openzeppelin/contracts/access/Ownable.sol\":1703:1716  return _owner */\n      swap1\n      pop\n        /* \"@openzeppelin/contracts/access/Ownable.sol\":1638:1723  function owner() public view virtual returns (address) {... */\n      swap1\n      jump\t// out\n        /* \"contracts/Twitter-main.sol\":2427:2765  function unLikeTweet(address auther, uint256 _id) external onlyRegistered {... */\n    tag_43:\n        /* \"contracts/Twitter-main.sol\":1103:1104  0 */\n      0x00\n        /* \"contracts/Twitter-main.sol\":1045:1060  profileContract */\n      0x03\n      0x00\n      swap1\n      sload\n      swap1\n      0x0100\n      exp\n      swap1\n      div\n      0xffffffffffffffffffffffffffffffffffffffff\n      and\n        /* \"contracts/Twitter-main.sol\":1045:1071  profileContract.getProfile */\n      0xffffffffffffffffffffffffffffffffffffffff\n      and\n      0x0f53a470\n        /* \"contracts/Twitter-main.sol\":1072:1082  msg.sender */\n      caller\n        /* \"contracts/Twitter-main.sol\":1045:1083  profileContract.getProfile(msg.sender) */\n      mload(0x40)\n      dup3\n      0xffffffff\n      and\n      0xe0\n      shl\n      dup2\n      mstore\n      0x04\n      add\n      tag_122\n      swap2\n      swap1\n      tag_40\n      jump\t// in\n    tag_122:\n      0x00\n      mload(0x40)\n      dup1\n      dup4\n      sub\n      dup2\n      dup7\n      gas\n      staticcall\n      iszero\n      dup1\n      iszero\n      tag_124\n      jumpi\n      returndatasize\n      0x00\n      dup1\n      returndatacopy\n      revert(0x00, returndatasize)\n    tag_124:\n      pop\n      pop\n      pop\n      pop\n      mload(0x40)\n      returndatasize\n      0x00\n      dup3\n      returndatacopy\n      returndatasize\n      not(0x1f)\n      0x1f\n      dup3\n      add\n      and\n      dup3\n      add\n      dup1\n      0x40\n      mstore\n      pop\n      dup2\n      add\n      swap1\n      tag_125\n      swap2\n      swap1\n      tag_66\n      jump\t// in\n    tag_125:\n        /* \"contracts/Twitter-main.sol\":1045:1092  profileContract.getProfile(msg.sender).username */\n      0x00\n      add\n      mload\n        /* \"contracts/Twitter-main.sol\":1039:1100  bytes(profileContract.getProfile(msg.sender).username).length */\n      mload\n        /* \"contracts/Twitter-main.sol\":1039:1104  bytes(profileContract.getProfile(msg.sender).username).length > 0 */\n      gt\n        /* \"contracts/Twitter-main.sol\":1018:1149  require(... */\n      tag_126\n      jumpi\n      mload(0x40)\n      0x08c379a000000000000000000000000000000000000000000000000000000000\n      dup2\n      mstore\n      0x04\n      add\n      tag_127\n      swap1\n      tag_69\n      jump\t// in\n    tag_127:\n      mload(0x40)\n      dup1\n      swap2\n      sub\n      swap1\n      revert\n    tag_126:\n        /* \"contracts/Twitter-main.sol\":2545:2548  _id */\n      dup1\n        /* \"contracts/Twitter-main.sol\":2519:2525  tweets */\n      0x02\n        /* \"contracts/Twitter-main.sol\":2519:2533  tweets[auther] */\n      0x00\n        /* \"contracts/Twitter-main.sol\":2526:2532  auther */\n      dup5\n        /* \"contracts/Twitter-main.sol\":2519:2533  tweets[auther] */\n      0xffffffffffffffffffffffffffffffffffffffff\n      and\n      0xffffffffffffffffffffffffffffffffffffffff\n      and\n      dup2\n      mstore\n      0x20\n      add\n      swap1\n      dup2\n      mstore\n      0x20\n      add\n      0x00\n      keccak256\n        /* \"contracts/Twitter-main.sol\":2534:2537  _id */\n      dup3\n        /* \"contracts/Twitter-main.sol\":2519:2538  tweets[auther][_id] */\n      dup2\n      sload\n      dup2\n      lt\n      tag_129\n      jumpi\n      tag_130\n      tag_73\n      jump\t// in\n    tag_130:\n    tag_129:\n      swap1\n      0x00\n      mstore\n      keccak256(0x00, 0x20)\n      swap1\n      0x05\n      mul\n      add\n        /* \"contracts/Twitter-main.sol\":2519:2541  tweets[auther][_id].id */\n      0x00\n      add\n      sload\n        /* \"contracts/Twitter-main.sol\":2519:2548  tweets[auther][_id].id == _id */\n      eq\n        /* \"contracts/Twitter-main.sol\":2511:2573  require(tweets[auther][_id].id == _id, \"Tweet does not exist\") */\n      tag_132\n      jumpi\n      mload(0x40)\n      0x08c379a000000000000000000000000000000000000000000000000000000000\n      dup2\n      mstore\n      0x04\n      add\n      tag_133\n      swap1\n      tag_77\n      jump\t// in\n    tag_133:\n      mload(0x40)\n      dup1\n      swap2\n      sub\n      swap1\n      revert\n    tag_132:\n        /* \"contracts/Twitter-main.sol\":2619:2620  0 */\n      0x00\n        /* \"contracts/Twitter-main.sol\":2591:2597  tweets */\n      0x02\n        /* \"contracts/Twitter-main.sol\":2591:2605  tweets[auther] */\n      0x00\n        /* \"contracts/Twitter-main.sol\":2598:2604  auther */\n      dup5\n        /* \"contracts/Twitter-main.sol\":2591:2605  tweets[auther] */\n      0xffffffffffffffffffffffffffffffffffffffff\n      and\n      0xffffffffffffffffffffffffffffffffffffffff\n      and\n      dup2\n      mstore\n      0x20\n      add\n      swap1\n      dup2\n      mstore\n      0x20\n      add\n      0x00\n      keccak256\n        /* \"contracts/Twitter-main.sol\":2606:2609  _id */\n      dup3\n        /* \"contracts/Twitter-main.sol\":2591:2610  tweets[auther][_id] */\n      dup2\n      sload\n      dup2\n      lt\n      tag_134\n      jumpi\n      tag_135\n      tag_73\n      jump\t// in\n    tag_135:\n    tag_134:\n      swap1\n      0x00\n      mstore\n      keccak256(0x00, 0x20)\n      swap1\n      0x05\n      mul\n      add\n        /* \"contracts/Twitter-main.sol\":2591:2616  tweets[auther][_id].likes */\n      0x04\n      add\n      sload\n        /* \"contracts/Twitter-main.sol\":2591:2620  tweets[auther][_id].likes > 0 */\n      gt\n        /* \"contracts/Twitter-main.sol\":2583:2643  require(tweets[auther][_id].likes > 0, \"Tweet has no likes\") */\n      tag_137\n      jumpi\n      mload(0x40)\n      0x08c379a000000000000000000000000000000000000000000000000000000000\n      dup2\n      mstore\n      0x04\n      add\n      tag_138\n      swap1\n      tag_139\n      jump\t// in\n    tag_138:\n      mload(0x40)\n      dup1\n      swap2\n      sub\n      swap1\n      revert\n    tag_137:\n        /* \"contracts/Twitter-main.sol\":2654:2660  tweets */\n      0x02\n        /* \"contracts/Twitter-main.sol\":2654:2668  tweets[auther] */\n      0x00\n        /* \"contracts/Twitter-main.sol\":2661:2667  auther */\n      dup4\n        /* \"contracts/Twitter-main.sol\":2654:2668  tweets[auther] */\n      0xffffffffffffffffffffffffffffffffffffffff\n      and\n      0xffffffffffffffffffffffffffffffffffffffff\n      and\n      dup2\n      mstore\n      0x20\n      add\n      swap1\n      dup2\n      mstore\n      0x20\n      add\n      0x00\n      keccak256\n        /* \"contracts/Twitter-main.sol\":2669:2672  _id */\n      dup2\n        /* \"contracts/Twitter-main.sol\":2654:2673  tweets[auther][_id] */\n      dup2\n      sload\n      dup2\n      lt\n      tag_140\n      jumpi\n      tag_141\n      tag_73\n      jump\t// in\n    tag_141:\n    tag_140:\n      swap1\n      0x00\n      mstore\n      keccak256(0x00, 0x20)\n      swap1\n      0x05\n      mul\n      add\n        /* \"contracts/Twitter-main.sol\":2654:2679  tweets[auther][_id].likes */\n      0x04\n      add\n      0x00\n        /* \"contracts/Twitter-main.sol\":2654:2681  tweets[auther][_id].likes-- */\n      dup2\n      sload\n      dup1\n      swap3\n      swap2\n      swap1\n      tag_143\n      swap1\n      tag_144\n      jump\t// in\n    tag_143:\n      swap2\n      swap1\n      pop\n      sstore\n      pop\n        /* \"contracts/Twitter-main.sol\":2696:2758  tweetLiked(msg.sender, _id, auther, tweets[auther][_id].likes) */\n      0x5bd959f96efc2338d934ab72127be36035ff98de2f1584d2951239db17662d21\n        /* \"contracts/Twitter-main.sol\":2707:2717  msg.sender */\n      caller\n        /* \"contracts/Twitter-main.sol\":2719:2722  _id */\n      dup3\n        /* \"contracts/Twitter-main.sol\":2724:2730  auther */\n      dup5\n        /* \"contracts/Twitter-main.sol\":2732:2738  tweets */\n      0x02\n        /* \"contracts/Twitter-main.sol\":2732:2746  tweets[auther] */\n      0x00\n        /* \"contracts/Twitter-main.sol\":2739:2745  auther */\n      dup8\n        /* \"contracts/Twitter-main.sol\":2732:2746  tweets[auther] */\n      0xffffffffffffffffffffffffffffffffffffffff\n      and\n      0xffffffffffffffffffffffffffffffffffffffff\n      and\n      dup2\n      mstore\n      0x20\n      add\n      swap1\n      dup2\n      mstore\n      0x20\n      add\n      0x00\n      keccak256\n        /* \"contracts/Twitter-main.sol\":2747:2750  _id */\n      dup6\n        /* \"contracts/Twitter-main.sol\":2732:2751  tweets[auther][_id] */\n      dup2\n      sload\n      dup2\n      lt\n      tag_145\n      jumpi\n      tag_146\n      tag_73\n      jump\t// in\n    tag_146:\n    tag_145:\n      swap1\n      0x00\n      mstore\n      keccak256(0x00, 0x20)\n      swap1\n      0x05\n      mul\n      add\n        /* \"contracts/Twitter-main.sol\":2732:2757  tweets[auther][_id].likes */\n      0x04\n      add\n      sload\n        /* \"contracts/Twitter-main.sol\":2696:2758  tweetLiked(msg.sender, _id, auther, tweets[auther][_id].likes) */\n      mload(0x40)\n      tag_148\n      swap5\n      swap4\n      swap3\n      swap2\n      swap1\n      tag_87\n      jump\t// in\n    tag_148:\n      mload(0x40)\n      dup1\n      swap2\n      sub\n      swap1\n      log1\n        /* \"contracts/Twitter-main.sol\":2427:2765  function unLikeTweet(address auther, uint256 _id) external onlyRegistered {... */\n      pop\n      pop\n      jump\t// out\n        /* \"contracts/Twitter-main.sol\":2771:2882  function getTweet(uint256 _i) public view returns (Tweet memory) {... */\n    tag_46:\n        /* \"contracts/Twitter-main.sol\":2822:2834  Tweet memory */\n      tag_149\n      tag_150\n      jump\t// in\n    tag_149:\n        /* \"contracts/Twitter-main.sol\":2853:2859  tweets */\n      0x02\n        /* \"contracts/Twitter-main.sol\":2853:2871  tweets[msg.sender] */\n      0x00\n        /* \"contracts/Twitter-main.sol\":2860:2870  msg.sender */\n      caller\n        /* \"contracts/Twitter-main.sol\":2853:2871  tweets[msg.sender] */\n      0xffffffffffffffffffffffffffffffffffffffff\n      and\n      0xffffffffffffffffffffffffffffffffffffffff\n      and\n      dup2\n      mstore\n      0x20\n      add\n      swap1\n      dup2\n      mstore\n      0x20\n      add\n      0x00\n      keccak256\n        /* \"contracts/Twitter-main.sol\":2872:2874  _i */\n      dup3\n        /* \"contracts/Twitter-main.sol\":2853:2875  tweets[msg.sender][_i] */\n      dup2\n      sload\n      dup2\n      lt\n      tag_152\n      jumpi\n      tag_153\n      tag_73\n      jump\t// in\n    tag_153:\n    tag_152:\n      swap1\n      0x00\n      mstore\n      keccak256(0x00, 0x20)\n      swap1\n      0x05\n      mul\n      add\n        /* \"contracts/Twitter-main.sol\":2846:2875  return tweets[msg.sender][_i] */\n      mload(0x40)\n      dup1\n      0xa0\n      add\n      0x40\n      mstore\n      swap1\n      dup2\n      0x00\n      dup3\n      add\n      sload\n      dup2\n      mstore\n      0x20\n      add\n      0x01\n      dup3\n      add\n      0x00\n      swap1\n      sload\n      swap1\n      0x0100\n      exp\n      swap1\n      div\n      0xffffffffffffffffffffffffffffffffffffffff\n      and\n      0xffffffffffffffffffffffffffffffffffffffff\n      and\n      0xffffffffffffffffffffffffffffffffffffffff\n      and\n      dup2\n      mstore\n      0x20\n      add\n      0x02\n      dup3\n      add\n      dup1\n      sload\n      tag_155\n      swap1\n      tag_56\n      jump\t// in\n    tag_155:\n      dup1\n      0x1f\n      add\n      0x20\n      dup1\n      swap2\n      div\n      mul\n      0x20\n      add\n      mload(0x40)\n      swap1\n      dup2\n      add\n      0x40\n      mstore\n      dup1\n      swap3\n      swap2\n      swap1\n      dup2\n      dup2\n      mstore\n      0x20\n      add\n      dup3\n      dup1\n      sload\n      tag_156\n      swap1\n      tag_56\n      jump\t// in\n    tag_156:\n      dup1\n      iszero\n      tag_157\n      jumpi\n      dup1\n      0x1f\n      lt\n      tag_158\n      jumpi\n      0x0100\n      dup1\n      dup4\n      sload\n      div\n      mul\n      dup4\n      mstore\n      swap2\n      0x20\n      add\n      swap2\n      jump(tag_157)\n    tag_158:\n      dup3\n      add\n      swap2\n      swap1\n      0x00\n      mstore\n      keccak256(0x00, 0x20)\n      swap1\n    tag_159:\n      dup2\n      sload\n      dup2\n      mstore\n      swap1\n      0x01\n      add\n      swap1\n      0x20\n      add\n      dup1\n      dup4\n      gt\n      tag_159\n      jumpi\n      dup3\n      swap1\n      sub\n      0x1f\n      and\n      dup3\n      add\n      swap2\n    tag_157:\n      pop\n      pop\n      pop\n      pop\n      pop\n      dup2\n      mstore\n      0x20\n      add\n      0x03\n      dup3\n      add\n      sload\n      dup2\n      mstore\n      0x20\n      add\n      0x04\n      dup3\n      add\n      sload\n      dup2\n      mstore\n      pop\n      pop\n      swap1\n      pop\n        /* \"contracts/Twitter-main.sol\":2771:2882  function getTweet(uint256 _i) public view returns (Tweet memory) {... */\n      swap2\n      swap1\n      pop\n      jump\t// out\n        /* \"@openzeppelin/contracts/access/Ownable.sol\":2543:2758  function transferOwnership(address newOwner) public virtual onlyOwner {... */\n    tag_52:\n        /* \"@openzeppelin/contracts/access/Ownable.sol\":1531:1544  _checkOwner() */\n      tag_161\n        /* \"@openzeppelin/contracts/access/Ownable.sol\":1531:1542  _checkOwner */\n      tag_99\n        /* \"@openzeppelin/contracts/access/Ownable.sol\":1531:1544  _checkOwner() */\n      jump\t// in\n    tag_161:\n        /* \"@openzeppelin/contracts/access/Ownable.sol\":2647:2648  0 */\n      0x00\n        /* \"@openzeppelin/contracts/access/Ownable.sol\":2627:2649  newOwner == address(0) */\n      0xffffffffffffffffffffffffffffffffffffffff\n      and\n        /* \"@openzeppelin/contracts/access/Ownable.sol\":2627:2635  newOwner */\n      dup2\n        /* \"@openzeppelin/contracts/access/Ownable.sol\":2627:2649  newOwner == address(0) */\n      0xffffffffffffffffffffffffffffffffffffffff\n      and\n      sub\n        /* \"@openzeppelin/contracts/access/Ownable.sol\":2623:2714  if (newOwner == address(0)) {... */\n      tag_163\n      jumpi\n        /* \"@openzeppelin/contracts/access/Ownable.sol\":2700:2701  0 */\n      0x00\n        /* \"@openzeppelin/contracts/access/Ownable.sol\":2672:2703  OwnableInvalidOwner(address(0)) */\n      mload(0x40)\n      0x1e4fbdf700000000000000000000000000000000000000000000000000000000\n      dup2\n      mstore\n      0x04\n      add\n      tag_164\n      swap2\n      swap1\n      tag_40\n      jump\t// in\n    tag_164:\n      mload(0x40)\n      dup1\n      swap2\n      sub\n      swap1\n      revert\n        /* \"@openzeppelin/contracts/access/Ownable.sol\":2623:2714  if (newOwner == address(0)) {... */\n    tag_163:\n        /* \"@openzeppelin/contracts/access/Ownable.sol\":2723:2751  _transferOwnership(newOwner) */\n      tag_165\n        /* \"@openzeppelin/contracts/access/Ownable.sol\":2742:2750  newOwner */\n      dup2\n        /* \"@openzeppelin/contracts/access/Ownable.sol\":2723:2741  _transferOwnership */\n      tag_102\n        /* \"@openzeppelin/contracts/access/Ownable.sol\":2723:2751  _transferOwnership(newOwner) */\n      jump\t// in\n    tag_165:\n        /* \"@openzeppelin/contracts/access/Ownable.sol\":2543:2758  function transferOwnership(address newOwner) public virtual onlyOwner {... */\n      pop\n      jump\t// out\n        /* \"@openzeppelin/contracts/access/Ownable.sol\":1796:1958  function _checkOwner() internal view virtual {... */\n    tag_99:\n        /* \"@openzeppelin/contracts/access/Ownable.sol\":1866:1878  _msgSender() */\n      tag_167\n        /* \"@openzeppelin/contracts/access/Ownable.sol\":1866:1876  _msgSender */\n      tag_168\n        /* \"@openzeppelin/contracts/access/Ownable.sol\":1866:1878  _msgSender() */\n      jump\t// in\n    tag_167:\n        /* \"@openzeppelin/contracts/access/Ownable.sol\":1855:1878  owner() != _msgSender() */\n      0xffffffffffffffffffffffffffffffffffffffff\n      and\n        /* \"@openzeppelin/contracts/access/Ownable.sol\":1855:1862  owner() */\n      tag_169\n        /* \"@openzeppelin/contracts/access/Ownable.sol\":1855:1860  owner */\n      tag_38\n        /* \"@openzeppelin/contracts/access/Ownable.sol\":1855:1862  owner() */\n      jump\t// in\n    tag_169:\n        /* \"@openzeppelin/contracts/access/Ownable.sol\":1855:1878  owner() != _msgSender() */\n      0xffffffffffffffffffffffffffffffffffffffff\n      and\n      eq\n        /* \"@openzeppelin/contracts/access/Ownable.sol\":1851:1952  if (owner() != _msgSender()) {... */\n      tag_170\n      jumpi\n        /* \"@openzeppelin/contracts/access/Ownable.sol\":1928:1940  _msgSender() */\n      tag_171\n        /* \"@openzeppelin/contracts/access/Ownable.sol\":1928:1938  _msgSender */\n      tag_168\n        /* \"@openzeppelin/contracts/access/Ownable.sol\":1928:1940  _msgSender() */\n      jump\t// in\n    tag_171:\n        /* \"@openzeppelin/contracts/access/Ownable.sol\":1901:1941  OwnableUnauthorizedAccount(_msgSender()) */\n      mload(0x40)\n      0x118cdaa700000000000000000000000000000000000000000000000000000000\n      dup2\n      mstore\n      0x04\n      add\n      tag_172\n      swap2\n      swap1\n      tag_40\n      jump\t// in\n    tag_172:\n      mload(0x40)\n      dup1\n      swap2\n      sub\n      swap1\n      revert\n        /* \"@openzeppelin/contracts/access/Ownable.sol\":1851:1952  if (owner() != _msgSender()) {... */\n    tag_170:\n        /* \"@openzeppelin/contracts/access/Ownable.sol\":1796:1958  function _checkOwner() internal view virtual {... */\n      jump\t// out\n        /* \"@openzeppelin/contracts/access/Ownable.sol\":2912:3099  function _transferOwnership(address newOwner) internal virtual {... */\n    tag_102:\n        /* \"@openzeppelin/contracts/access/Ownable.sol\":2985:3001  address oldOwner */\n      0x00\n        /* \"@openzeppelin/contracts/access/Ownable.sol\":3004:3010  _owner */\n      dup1\n      0x00\n      swap1\n      sload\n      swap1\n      0x0100\n      exp\n      swap1\n      div\n      0xffffffffffffffffffffffffffffffffffffffff\n      and\n        /* \"@openzeppelin/contracts/access/Ownable.sol\":2985:3010  address oldOwner = _owner */\n      swap1\n      pop\n        /* \"@openzeppelin/contracts/access/Ownable.sol\":3029:3037  newOwner */\n      dup2\n        /* \"@openzeppelin/contracts/access/Ownable.sol\":3020:3026  _owner */\n      0x00\n      dup1\n        /* \"@openzeppelin/contracts/access/Ownable.sol\":3020:3037  _owner = newOwner */\n      0x0100\n      exp\n      dup2\n      sload\n      dup2\n      0xffffffffffffffffffffffffffffffffffffffff\n      mul\n      not\n      and\n      swap1\n      dup4\n      0xffffffffffffffffffffffffffffffffffffffff\n      and\n      mul\n      or\n      swap1\n      sstore\n      pop\n        /* \"@openzeppelin/contracts/access/Ownable.sol\":3083:3091  newOwner */\n      dup2\n        /* \"@openzeppelin/contracts/access/Ownable.sol\":3052:3092  OwnershipTransferred(oldOwner, newOwner) */\n      0xffffffffffffffffffffffffffffffffffffffff\n      and\n        /* \"@openzeppelin/contracts/access/Ownable.sol\":3073:3081  oldOwner */\n      dup2\n        /* \"@openzeppelin/contracts/access/Ownable.sol\":3052:3092  OwnershipTransferred(oldOwner, newOwner) */\n      0xffffffffffffffffffffffffffffffffffffffff\n      and\n      0x8be0079c531659141344cd1fd0a4f28419497f9722a3daafe3b4186f6b6457e0\n      mload(0x40)\n      mload(0x40)\n      dup1\n      swap2\n      sub\n      swap1\n      log3\n        /* \"@openzeppelin/contracts/access/Ownable.sol\":2975:3099  {... */\n      pop\n        /* \"@openzeppelin/contracts/access/Ownable.sol\":2912:3099  function _transferOwnership(address newOwner) internal virtual {... */\n      pop\n      jump\t// out\n        /* \"@openzeppelin/contracts/utils/Context.sol\":656:752  function _msgSender() internal view virtual returns (address) {... */\n    tag_168:\n        /* \"@openzeppelin/contracts/utils/Context.sol\":709:716  address */\n      0x00\n        /* \"@openzeppelin/contracts/utils/Context.sol\":735:745  msg.sender */\n      caller\n        /* \"@openzeppelin/contracts/utils/Context.sol\":728:745  return msg.sender */\n      swap1\n      pop\n        /* \"@openzeppelin/contracts/utils/Context.sol\":656:752  function _msgSender() internal view virtual returns (address) {... */\n      swap1\n      jump\t// out\n    tag_150:\n      mload(0x40)\n      dup1\n      0xa0\n      add\n      0x40\n      mstore\n      dup1\n      0x00\n      dup2\n      mstore\n      0x20\n      add\n      and(0xffffffffffffffffffffffffffffffffffffffff, 0x00)\n      dup2\n      mstore\n      0x20\n      add\n      0x60\n      dup2\n      mstore\n      0x20\n      add\n      0x00\n      dup2\n      mstore\n      0x20\n      add\n      0x00\n      dup2\n      mstore\n      pop\n      swap1\n      jump\t// out\n        /* \"#utility.yul\":7:82   */\n    tag_175:\n        /* \"#utility.yul\":40:46   */\n      0x00\n        /* \"#utility.yul\":73:75   */\n      0x40\n        /* \"#utility.yul\":67:76   */\n      mload\n        /* \"#utility.yul\":57:76   */\n      swap1\n      pop\n        /* \"#utility.yul\":7:82   */\n      swap1\n      jump\t// out\n        /* \"#utility.yul\":88:205   */\n    tag_176:\n        /* \"#utility.yul\":197:198   */\n      0x00\n        /* \"#utility.yul\":194:195   */\n      dup1\n        /* \"#utility.yul\":187:199   */\n      revert\n        /* \"#utility.yul\":211:328   */\n    tag_177:\n        /* \"#utility.yul\":320:321   */\n      0x00\n        /* \"#utility.yul\":317:318   */\n      dup1\n        /* \"#utility.yul\":310:322   */\n      revert\n        /* \"#utility.yul\":334:460   */\n    tag_178:\n        /* \"#utility.yul\":371:378   */\n      0x00\n        /* \"#utility.yul\":411:453   */\n      0xffffffffffffffffffffffffffffffffffffffff\n        /* \"#utility.yul\":404:409   */\n      dup3\n        /* \"#utility.yul\":400:454   */\n      and\n        /* \"#utility.yul\":389:454   */\n      swap1\n      pop\n        /* \"#utility.yul\":334:460   */\n      swap2\n      swap1\n      pop\n      jump\t// out\n        /* \"#utility.yul\":466:562   */\n    tag_179:\n        /* \"#utility.yul\":503:510   */\n      0x00\n        /* \"#utility.yul\":532:556   */\n      tag_249\n        /* \"#utility.yul\":550:555   */\n      dup3\n        /* \"#utility.yul\":532:556   */\n      tag_178\n      jump\t// in\n    tag_249:\n        /* \"#utility.yul\":521:556   */\n      swap1\n      pop\n        /* \"#utility.yul\":466:562   */\n      swap2\n      swap1\n      pop\n      jump\t// out\n        /* \"#utility.yul\":568:690   */\n    tag_180:\n        /* \"#utility.yul\":641:665   */\n      tag_251\n        /* \"#utility.yul\":659:664   */\n      dup2\n        /* \"#utility.yul\":641:665   */\n      tag_179\n      jump\t// in\n    tag_251:\n        /* \"#utility.yul\":634:639   */\n      dup2\n        /* \"#utility.yul\":631:666   */\n      eq\n        /* \"#utility.yul\":621:684   */\n      tag_252\n      jumpi\n        /* \"#utility.yul\":680:681   */\n      0x00\n        /* \"#utility.yul\":677:678   */\n      dup1\n        /* \"#utility.yul\":670:682   */\n      revert\n        /* \"#utility.yul\":621:684   */\n    tag_252:\n        /* \"#utility.yul\":568:690   */\n      pop\n      jump\t// out\n        /* \"#utility.yul\":696:835   */\n    tag_181:\n        /* \"#utility.yul\":742:747   */\n      0x00\n        /* \"#utility.yul\":780:786   */\n      dup2\n        /* \"#utility.yul\":767:787   */\n      calldataload\n        /* \"#utility.yul\":758:787   */\n      swap1\n      pop\n        /* \"#utility.yul\":796:829   */\n      tag_254\n        /* \"#utility.yul\":823:828   */\n      dup2\n        /* \"#utility.yul\":796:829   */\n      tag_180\n      jump\t// in\n    tag_254:\n        /* \"#utility.yul\":696:835   */\n      swap3\n      swap2\n      pop\n      pop\n      jump\t// out\n        /* \"#utility.yul\":841:918   */\n    tag_182:\n        /* \"#utility.yul\":878:885   */\n      0x00\n        /* \"#utility.yul\":907:912   */\n      dup2\n        /* \"#utility.yul\":896:912   */\n      swap1\n      pop\n        /* \"#utility.yul\":841:918   */\n      swap2\n      swap1\n      pop\n      jump\t// out\n        /* \"#utility.yul\":924:1046   */\n    tag_183:\n        /* \"#utility.yul\":997:1021   */\n      tag_257\n        /* \"#utility.yul\":1015:1020   */\n      dup2\n        /* \"#utility.yul\":997:1021   */\n      tag_182\n      jump\t// in\n    tag_257:\n        /* \"#utility.yul\":990:995   */\n      dup2\n        /* \"#utility.yul\":987:1022   */\n      eq\n        /* \"#utility.yul\":977:1040   */\n      tag_258\n      jumpi\n        /* \"#utility.yul\":1036:1037   */\n      0x00\n        /* \"#utility.yul\":1033:1034   */\n      dup1\n        /* \"#utility.yul\":1026:1038   */\n      revert\n        /* \"#utility.yul\":977:1040   */\n    tag_258:\n        /* \"#utility.yul\":924:1046   */\n      pop\n      jump\t// out\n        /* \"#utility.yul\":1052:1191   */\n    tag_184:\n        /* \"#utility.yul\":1098:1103   */\n      0x00\n        /* \"#utility.yul\":1136:1142   */\n      dup2\n        /* \"#utility.yul\":1123:1143   */\n      calldataload\n        /* \"#utility.yul\":1114:1143   */\n      swap1\n      pop\n        /* \"#utility.yul\":1152:1185   */\n      tag_260\n        /* \"#utility.yul\":1179:1184   */\n      dup2\n        /* \"#utility.yul\":1152:1185   */\n      tag_183\n      jump\t// in\n    tag_260:\n        /* \"#utility.yul\":1052:1191   */\n      swap3\n      swap2\n      pop\n      pop\n      jump\t// out\n        /* \"#utility.yul\":1197:1671   */\n    tag_16:\n        /* \"#utility.yul\":1265:1271   */\n      0x00\n        /* \"#utility.yul\":1273:1279   */\n      dup1\n        /* \"#utility.yul\":1322:1324   */\n      0x40\n        /* \"#utility.yul\":1310:1319   */\n      dup4\n        /* \"#utility.yul\":1301:1308   */\n      dup6\n        /* \"#utility.yul\":1297:1320   */\n      sub\n        /* \"#utility.yul\":1293:1325   */\n      slt\n        /* \"#utility.yul\":1290:1409   */\n      iszero\n      tag_262\n      jumpi\n        /* \"#utility.yul\":1328:1407   */\n      tag_263\n      tag_176\n      jump\t// in\n    tag_263:\n        /* \"#utility.yul\":1290:1409   */\n    tag_262:\n        /* \"#utility.yul\":1448:1449   */\n      0x00\n        /* \"#utility.yul\":1473:1526   */\n      tag_264\n        /* \"#utility.yul\":1518:1525   */\n      dup6\n        /* \"#utility.yul\":1509:1515   */\n      dup3\n        /* \"#utility.yul\":1498:1507   */\n      dup7\n        /* \"#utility.yul\":1494:1516   */\n      add\n        /* \"#utility.yul\":1473:1526   */\n      tag_181\n      jump\t// in\n    tag_264:\n        /* \"#utility.yul\":1463:1526   */\n      swap3\n      pop\n        /* \"#utility.yul\":1419:1536   */\n      pop\n        /* \"#utility.yul\":1575:1577   */\n      0x20\n        /* \"#utility.yul\":1601:1654   */\n      tag_265\n        /* \"#utility.yul\":1646:1653   */\n      dup6\n        /* \"#utility.yul\":1637:1643   */\n      dup3\n        /* \"#utility.yul\":1626:1635   */\n      dup7\n        /* \"#utility.yul\":1622:1644   */\n      add\n        /* \"#utility.yul\":1601:1654   */\n      tag_184\n      jump\t// in\n    tag_265:\n        /* \"#utility.yul\":1591:1654   */\n      swap2\n      pop\n        /* \"#utility.yul\":1546:1664   */\n      pop\n        /* \"#utility.yul\":1197:1671   */\n      swap3\n      pop\n      swap3\n      swap1\n      pop\n      jump\t// out\n        /* \"#utility.yul\":1677:1795   */\n    tag_185:\n        /* \"#utility.yul\":1764:1788   */\n      tag_267\n        /* \"#utility.yul\":1782:1787   */\n      dup2\n        /* \"#utility.yul\":1764:1788   */\n      tag_182\n      jump\t// in\n    tag_267:\n        /* \"#utility.yul\":1759:1762   */\n      dup3\n        /* \"#utility.yul\":1752:1789   */\n      mstore\n        /* \"#utility.yul\":1677:1795   */\n      pop\n      pop\n      jump\t// out\n        /* \"#utility.yul\":1801:1919   */\n    tag_186:\n        /* \"#utility.yul\":1888:1912   */\n      tag_269\n        /* \"#utility.yul\":1906:1911   */\n      dup2\n        /* \"#utility.yul\":1888:1912   */\n      tag_179\n      jump\t// in\n    tag_269:\n        /* \"#utility.yul\":1883:1886   */\n      dup3\n        /* \"#utility.yul\":1876:1913   */\n      mstore\n        /* \"#utility.yul\":1801:1919   */\n      pop\n      pop\n      jump\t// out\n        /* \"#utility.yul\":1925:2024   */\n    tag_187:\n        /* \"#utility.yul\":1977:1983   */\n      0x00\n        /* \"#utility.yul\":2011:2016   */\n      dup2\n        /* \"#utility.yul\":2005:2017   */\n      mload\n        /* \"#utility.yul\":1995:2017   */\n      swap1\n      pop\n        /* \"#utility.yul\":1925:2024   */\n      swap2\n      swap1\n      pop\n      jump\t// out\n        /* \"#utility.yul\":2030:2199   */\n    tag_188:\n        /* \"#utility.yul\":2114:2125   */\n      0x00\n        /* \"#utility.yul\":2148:2154   */\n      dup3\n        /* \"#utility.yul\":2143:2146   */\n      dup3\n        /* \"#utility.yul\":2136:2155   */\n      mstore\n        /* \"#utility.yul\":2188:2192   */\n      0x20\n        /* \"#utility.yul\":2183:2186   */\n      dup3\n        /* \"#utility.yul\":2179:2193   */\n      add\n        /* \"#utility.yul\":2164:2193   */\n      swap1\n      pop\n        /* \"#utility.yul\":2030:2199   */\n      swap3\n      swap2\n      pop\n      pop\n      jump\t// out\n        /* \"#utility.yul\":2205:2344   */\n    tag_189:\n        /* \"#utility.yul\":2294:2300   */\n      dup3\n        /* \"#utility.yul\":2289:2292   */\n      dup2\n        /* \"#utility.yul\":2284:2287   */\n      dup4\n        /* \"#utility.yul\":2278:2301   */\n      mcopy\n        /* \"#utility.yul\":2335:2336   */\n      0x00\n        /* \"#utility.yul\":2326:2332   */\n      dup4\n        /* \"#utility.yul\":2321:2324   */\n      dup4\n        /* \"#utility.yul\":2317:2333   */\n      add\n        /* \"#utility.yul\":2310:2337   */\n      mstore\n        /* \"#utility.yul\":2205:2344   */\n      pop\n      pop\n      pop\n      jump\t// out\n        /* \"#utility.yul\":2350:2452   */\n    tag_190:\n        /* \"#utility.yul\":2391:2397   */\n      0x00\n        /* \"#utility.yul\":2442:2444   */\n      0x1f\n        /* \"#utility.yul\":2438:2445   */\n      not\n        /* \"#utility.yul\":2433:2435   */\n      0x1f\n        /* \"#utility.yul\":2426:2431   */\n      dup4\n        /* \"#utility.yul\":2422:2436   */\n      add\n        /* \"#utility.yul\":2418:2446   */\n      and\n        /* \"#utility.yul\":2408:2446   */\n      swap1\n      pop\n        /* \"#utility.yul\":2350:2452   */\n      swap2\n      swap1\n      pop\n      jump\t// out\n        /* \"#utility.yul\":2458:2835   */\n    tag_191:\n        /* \"#utility.yul\":2546:2549   */\n      0x00\n        /* \"#utility.yul\":2574:2613   */\n      tag_275\n        /* \"#utility.yul\":2607:2612   */\n      dup3\n        /* \"#utility.yul\":2574:2613   */\n      tag_187\n      jump\t// in\n    tag_275:\n        /* \"#utility.yul\":2629:2700   */\n      tag_276\n        /* \"#utility.yul\":2693:2699   */\n      dup2\n        /* \"#utility.yul\":2688:2691   */\n      dup6\n        /* \"#utility.yul\":2629:2700   */\n      tag_188\n      jump\t// in\n    tag_276:\n        /* \"#utility.yul\":2622:2700   */\n      swap4\n      pop\n        /* \"#utility.yul\":2709:2774   */\n      tag_277\n        /* \"#utility.yul\":2767:2773   */\n      dup2\n        /* \"#utility.yul\":2762:2765   */\n      dup6\n        /* \"#utility.yul\":2755:2759   */\n      0x20\n        /* \"#utility.yul\":2748:2753   */\n      dup7\n        /* \"#utility.yul\":2744:2760   */\n      add\n        /* \"#utility.yul\":2709:2774   */\n      tag_189\n      jump\t// in\n    tag_277:\n        /* \"#utility.yul\":2799:2828   */\n      tag_278\n        /* \"#utility.yul\":2821:2827   */\n      dup2\n        /* \"#utility.yul\":2799:2828   */\n      tag_190\n      jump\t// in\n    tag_278:\n        /* \"#utility.yul\":2794:2797   */\n      dup5\n        /* \"#utility.yul\":2790:2829   */\n      add\n        /* \"#utility.yul\":2783:2829   */\n      swap2\n      pop\n        /* \"#utility.yul\":2550:2835   */\n      pop\n        /* \"#utility.yul\":2458:2835   */\n      swap3\n      swap2\n      pop\n      pop\n      jump\t// out\n        /* \"#utility.yul\":2841:3596   */\n    tag_19:\n        /* \"#utility.yul\":3066:3070   */\n      0x00\n        /* \"#utility.yul\":3104:3107   */\n      0xa0\n        /* \"#utility.yul\":3093:3102   */\n      dup3\n        /* \"#utility.yul\":3089:3108   */\n      add\n        /* \"#utility.yul\":3081:3108   */\n      swap1\n      pop\n        /* \"#utility.yul\":3118:3189   */\n      tag_280\n        /* \"#utility.yul\":3186:3187   */\n      0x00\n        /* \"#utility.yul\":3175:3184   */\n      dup4\n        /* \"#utility.yul\":3171:3188   */\n      add\n        /* \"#utility.yul\":3162:3168   */\n      dup9\n        /* \"#utility.yul\":3118:3189   */\n      tag_185\n      jump\t// in\n    tag_280:\n        /* \"#utility.yul\":3199:3271   */\n      tag_281\n        /* \"#utility.yul\":3267:3269   */\n      0x20\n        /* \"#utility.yul\":3256:3265   */\n      dup4\n        /* \"#utility.yul\":3252:3270   */\n      add\n        /* \"#utility.yul\":3243:3249   */\n      dup8\n        /* \"#utility.yul\":3199:3271   */\n      tag_186\n      jump\t// in\n    tag_281:\n        /* \"#utility.yul\":3318:3327   */\n      dup2\n        /* \"#utility.yul\":3312:3316   */\n      dup2\n        /* \"#utility.yul\":3308:3328   */\n      sub\n        /* \"#utility.yul\":3303:3305   */\n      0x40\n        /* \"#utility.yul\":3292:3301   */\n      dup4\n        /* \"#utility.yul\":3288:3306   */\n      add\n        /* \"#utility.yul\":3281:3329   */\n      mstore\n        /* \"#utility.yul\":3346:3424   */\n      tag_282\n        /* \"#utility.yul\":3419:3423   */\n      dup2\n        /* \"#utility.yul\":3410:3416   */\n      dup7\n        /* \"#utility.yul\":3346:3424   */\n      tag_191\n      jump\t// in\n    tag_282:\n        /* \"#utility.yul\":3338:3424   */\n      swap1\n      pop\n        /* \"#utility.yul\":3434:3506   */\n      tag_283\n        /* \"#utility.yul\":3502:3504   */\n      0x60\n        /* \"#utility.yul\":3491:3500   */\n      dup4\n        /* \"#utility.yul\":3487:3505   */\n      add\n        /* \"#utility.yul\":3478:3484   */\n      dup6\n        /* \"#utility.yul\":3434:3506   */\n      tag_185\n      jump\t// in\n    tag_283:\n        /* \"#utility.yul\":3516:3589   */\n      tag_284\n        /* \"#utility.yul\":3584:3587   */\n      0x80\n        /* \"#utility.yul\":3573:3582   */\n      dup4\n        /* \"#utility.yul\":3569:3588   */\n      add\n        /* \"#utility.yul\":3560:3566   */\n      dup5\n        /* \"#utility.yul\":3516:3589   */\n      tag_185\n      jump\t// in\n    tag_284:\n        /* \"#utility.yul\":2841:3596   */\n      swap7\n      swap6\n      pop\n      pop\n      pop\n      pop\n      pop\n      pop\n      jump\t// out\n        /* \"#utility.yul\":3602:3738   */\n    tag_192:\n        /* \"#utility.yul\":3691:3697   */\n      0x00\n        /* \"#utility.yul\":3725:3730   */\n      dup2\n        /* \"#utility.yul\":3719:3731   */\n      mload\n        /* \"#utility.yul\":3709:3731   */\n      swap1\n      pop\n        /* \"#utility.yul\":3602:3738   */\n      swap2\n      swap1\n      pop\n      jump\t// out\n        /* \"#utility.yul\":3744:3950   */\n    tag_193:\n        /* \"#utility.yul\":3865:3876   */\n      0x00\n        /* \"#utility.yul\":3899:3905   */\n      dup3\n        /* \"#utility.yul\":3894:3897   */\n      dup3\n        /* \"#utility.yul\":3887:3906   */\n      mstore\n        /* \"#utility.yul\":3939:3943   */\n      0x20\n        /* \"#utility.yul\":3934:3937   */\n      dup3\n        /* \"#utility.yul\":3930:3944   */\n      add\n        /* \"#utility.yul\":3915:3944   */\n      swap1\n      pop\n        /* \"#utility.yul\":3744:3950   */\n      swap3\n      swap2\n      pop\n      pop\n      jump\t// out\n        /* \"#utility.yul\":3956:4110   */\n    tag_194:\n        /* \"#utility.yul\":4045:4049   */\n      0x00\n        /* \"#utility.yul\":4068:4071   */\n      dup2\n        /* \"#utility.yul\":4060:4071   */\n      swap1\n      pop\n        /* \"#utility.yul\":4098:4102   */\n      0x20\n        /* \"#utility.yul\":4093:4096   */\n      dup3\n        /* \"#utility.yul\":4089:4103   */\n      add\n        /* \"#utility.yul\":4081:4103   */\n      swap1\n      pop\n        /* \"#utility.yul\":3956:4110   */\n      swap2\n      swap1\n      pop\n      jump\t// out\n        /* \"#utility.yul\":4116:4224   */\n    tag_195:\n        /* \"#utility.yul\":4193:4217   */\n      tag_289\n        /* \"#utility.yul\":4211:4216   */\n      dup2\n        /* \"#utility.yul\":4193:4217   */\n      tag_182\n      jump\t// in\n    tag_289:\n        /* \"#utility.yul\":4188:4191   */\n      dup3\n        /* \"#utility.yul\":4181:4218   */\n      mstore\n        /* \"#utility.yul\":4116:4224   */\n      pop\n      pop\n      jump\t// out\n        /* \"#utility.yul\":4230:4338   */\n    tag_196:\n        /* \"#utility.yul\":4307:4331   */\n      tag_291\n        /* \"#utility.yul\":4325:4330   */\n      dup2\n        /* \"#utility.yul\":4307:4331   */\n      tag_179\n      jump\t// in\n    tag_291:\n        /* \"#utility.yul\":4302:4305   */\n      dup3\n        /* \"#utility.yul\":4295:4332   */\n      mstore\n        /* \"#utility.yul\":4230:4338   */\n      pop\n      pop\n      jump\t// out\n        /* \"#utility.yul\":4344:4503   */\n    tag_197:\n        /* \"#utility.yul\":4418:4429   */\n      0x00\n        /* \"#utility.yul\":4452:4458   */\n      dup3\n        /* \"#utility.yul\":4447:4450   */\n      dup3\n        /* \"#utility.yul\":4440:4459   */\n      mstore\n        /* \"#utility.yul\":4492:4496   */\n      0x20\n        /* \"#utility.yul\":4487:4490   */\n      dup3\n        /* \"#utility.yul\":4483:4497   */\n      add\n        /* \"#utility.yul\":4468:4497   */\n      swap1\n      pop\n        /* \"#utility.yul\":4344:4503   */\n      swap3\n      swap2\n      pop\n      pop\n      jump\t// out\n        /* \"#utility.yul\":4509:4866   */\n    tag_198:\n        /* \"#utility.yul\":4587:4590   */\n      0x00\n        /* \"#utility.yul\":4615:4654   */\n      tag_294\n        /* \"#utility.yul\":4648:4653   */\n      dup3\n        /* \"#utility.yul\":4615:4654   */\n      tag_187\n      jump\t// in\n    tag_294:\n        /* \"#utility.yul\":4670:4731   */\n      tag_295\n        /* \"#utility.yul\":4724:4730   */\n      dup2\n        /* \"#utility.yul\":4719:4722   */\n      dup6\n        /* \"#utility.yul\":4670:4731   */\n      tag_197\n      jump\t// in\n    tag_295:\n        /* \"#utility.yul\":4663:4731   */\n      swap4\n      pop\n        /* \"#utility.yul\":4740:4805   */\n      tag_296\n        /* \"#utility.yul\":4798:4804   */\n      dup2\n        /* \"#utility.yul\":4793:4796   */\n      dup6\n        /* \"#utility.yul\":4786:4790   */\n      0x20\n        /* \"#utility.yul\":4779:4784   */\n      dup7\n        /* \"#utility.yul\":4775:4791   */\n      add\n        /* \"#utility.yul\":4740:4805   */\n      tag_189\n      jump\t// in\n    tag_296:\n        /* \"#utility.yul\":4830:4859   */\n      tag_297\n        /* \"#utility.yul\":4852:4858   */\n      dup2\n        /* \"#utility.yul\":4830:4859   */\n      tag_190\n      jump\t// in\n    tag_297:\n        /* \"#utility.yul\":4825:4828   */\n      dup5\n        /* \"#utility.yul\":4821:4860   */\n      add\n        /* \"#utility.yul\":4814:4860   */\n      swap2\n      pop\n        /* \"#utility.yul\":4591:4866   */\n      pop\n        /* \"#utility.yul\":4509:4866   */\n      swap3\n      swap2\n      pop\n      pop\n      jump\t// out\n        /* \"#utility.yul\":4924:6045   */\n    tag_199:\n        /* \"#utility.yul\":5027:5030   */\n      0x00\n        /* \"#utility.yul\":5063:5067   */\n      0xa0\n        /* \"#utility.yul\":5058:5061   */\n      dup4\n        /* \"#utility.yul\":5054:5068   */\n      add\n        /* \"#utility.yul\":5148:5152   */\n      0x00\n        /* \"#utility.yul\":5141:5146   */\n      dup4\n        /* \"#utility.yul\":5137:5153   */\n      add\n        /* \"#utility.yul\":5131:5154   */\n      mload\n        /* \"#utility.yul\":5167:5230   */\n      tag_299\n        /* \"#utility.yul\":5224:5228   */\n      0x00\n        /* \"#utility.yul\":5219:5222   */\n      dup7\n        /* \"#utility.yul\":5215:5229   */\n      add\n        /* \"#utility.yul\":5201:5213   */\n      dup3\n        /* \"#utility.yul\":5167:5230   */\n      tag_195\n      jump\t// in\n    tag_299:\n        /* \"#utility.yul\":5078:5240   */\n      pop\n        /* \"#utility.yul\":5324:5328   */\n      0x20\n        /* \"#utility.yul\":5317:5322   */\n      dup4\n        /* \"#utility.yul\":5313:5329   */\n      add\n        /* \"#utility.yul\":5307:5330   */\n      mload\n        /* \"#utility.yul\":5343:5406   */\n      tag_300\n        /* \"#utility.yul\":5400:5404   */\n      0x20\n        /* \"#utility.yul\":5395:5398   */\n      dup7\n        /* \"#utility.yul\":5391:5405   */\n      add\n        /* \"#utility.yul\":5377:5389   */\n      dup3\n        /* \"#utility.yul\":5343:5406   */\n      tag_196\n      jump\t// in\n    tag_300:\n        /* \"#utility.yul\":5250:5416   */\n      pop\n        /* \"#utility.yul\":5501:5505   */\n      0x40\n        /* \"#utility.yul\":5494:5499   */\n      dup4\n        /* \"#utility.yul\":5490:5506   */\n      add\n        /* \"#utility.yul\":5484:5507   */\n      mload\n        /* \"#utility.yul\":5554:5557   */\n      dup5\n        /* \"#utility.yul\":5548:5552   */\n      dup3\n        /* \"#utility.yul\":5544:5558   */\n      sub\n        /* \"#utility.yul\":5537:5541   */\n      0x40\n        /* \"#utility.yul\":5532:5535   */\n      dup7\n        /* \"#utility.yul\":5528:5542   */\n      add\n        /* \"#utility.yul\":5521:5559   */\n      mstore\n        /* \"#utility.yul\":5580:5653   */\n      tag_301\n        /* \"#utility.yul\":5648:5652   */\n      dup3\n        /* \"#utility.yul\":5634:5646   */\n      dup3\n        /* \"#utility.yul\":5580:5653   */\n      tag_198\n      jump\t// in\n    tag_301:\n        /* \"#utility.yul\":5572:5653   */\n      swap2\n      pop\n        /* \"#utility.yul\":5426:5664   */\n      pop\n        /* \"#utility.yul\":5751:5755   */\n      0x60\n        /* \"#utility.yul\":5744:5749   */\n      dup4\n        /* \"#utility.yul\":5740:5756   */\n      add\n        /* \"#utility.yul\":5734:5757   */\n      mload\n        /* \"#utility.yul\":5770:5833   */\n      tag_302\n        /* \"#utility.yul\":5827:5831   */\n      0x60\n        /* \"#utility.yul\":5822:5825   */\n      dup7\n        /* \"#utility.yul\":5818:5832   */\n      add\n        /* \"#utility.yul\":5804:5816   */\n      dup3\n        /* \"#utility.yul\":5770:5833   */\n      tag_195\n      jump\t// in\n    tag_302:\n        /* \"#utility.yul\":5674:5843   */\n      pop\n        /* \"#utility.yul\":5926:5930   */\n      0x80\n        /* \"#utility.yul\":5919:5924   */\n      dup4\n        /* \"#utility.yul\":5915:5931   */\n      add\n        /* \"#utility.yul\":5909:5932   */\n      mload\n        /* \"#utility.yul\":5945:6008   */\n      tag_303\n        /* \"#utility.yul\":6002:6006   */\n      0x80\n        /* \"#utility.yul\":5997:6000   */\n      dup7\n        /* \"#utility.yul\":5993:6007   */\n      add\n        /* \"#utility.yul\":5979:5991   */\n      dup3\n        /* \"#utility.yul\":5945:6008   */\n      tag_195\n      jump\t// in\n    tag_303:\n        /* \"#utility.yul\":5853:6018   */\n      pop\n        /* \"#utility.yul\":6035:6039   */\n      dup1\n        /* \"#utility.yul\":6028:6039   */\n      swap2\n      pop\n        /* \"#utility.yul\":5032:6045   */\n      pop\n        /* \"#utility.yul\":4924:6045   */\n      swap3\n      swap2\n      pop\n      pop\n      jump\t// out\n        /* \"#utility.yul\":6051:6295   */\n    tag_200:\n        /* \"#utility.yul\":6164:6174   */\n      0x00\n        /* \"#utility.yul\":6199:6289   */\n      tag_305\n        /* \"#utility.yul\":6285:6288   */\n      dup4\n        /* \"#utility.yul\":6277:6283   */\n      dup4\n        /* \"#utility.yul\":6199:6289   */\n      tag_199\n      jump\t// in\n    tag_305:\n        /* \"#utility.yul\":6185:6289   */\n      swap1\n      pop\n        /* \"#utility.yul\":6051:6295   */\n      swap3\n      swap2\n      pop\n      pop\n      jump\t// out\n        /* \"#utility.yul\":6301:6436   */\n    tag_201:\n        /* \"#utility.yul\":6393:6397   */\n      0x00\n        /* \"#utility.yul\":6425:6429   */\n      0x20\n        /* \"#utility.yul\":6420:6423   */\n      dup3\n        /* \"#utility.yul\":6416:6430   */\n      add\n        /* \"#utility.yul\":6408:6430   */\n      swap1\n      pop\n        /* \"#utility.yul\":6301:6436   */\n      swap2\n      swap1\n      pop\n      jump\t// out\n        /* \"#utility.yul\":6498:7585   */\n    tag_202:\n        /* \"#utility.yul\":6661:6664   */\n      0x00\n        /* \"#utility.yul\":6690:6766   */\n      tag_308\n        /* \"#utility.yul\":6760:6765   */\n      dup3\n        /* \"#utility.yul\":6690:6766   */\n      tag_192\n      jump\t// in\n    tag_308:\n        /* \"#utility.yul\":6782:6890   */\n      tag_309\n        /* \"#utility.yul\":6883:6889   */\n      dup2\n        /* \"#utility.yul\":6878:6881   */\n      dup6\n        /* \"#utility.yul\":6782:6890   */\n      tag_193\n      jump\t// in\n    tag_309:\n        /* \"#utility.yul\":6775:6890   */\n      swap4\n      pop\n        /* \"#utility.yul\":6916:6919   */\n      dup4\n        /* \"#utility.yul\":6961:6965   */\n      0x20\n        /* \"#utility.yul\":6953:6959   */\n      dup3\n        /* \"#utility.yul\":6949:6966   */\n      mul\n        /* \"#utility.yul\":6944:6947   */\n      dup6\n        /* \"#utility.yul\":6940:6967   */\n      add\n        /* \"#utility.yul\":6991:7069   */\n      tag_310\n        /* \"#utility.yul\":7063:7068   */\n      dup6\n        /* \"#utility.yul\":6991:7069   */\n      tag_194\n      jump\t// in\n    tag_310:\n        /* \"#utility.yul\":7092:7099   */\n      dup1\n        /* \"#utility.yul\":7123:7124   */\n      0x00\n        /* \"#utility.yul\":7108:7540   */\n    tag_311:\n        /* \"#utility.yul\":7133:7139   */\n      dup6\n        /* \"#utility.yul\":7130:7131   */\n      dup2\n        /* \"#utility.yul\":7127:7140   */\n      lt\n        /* \"#utility.yul\":7108:7540   */\n      iszero\n      tag_313\n      jumpi\n        /* \"#utility.yul\":7204:7213   */\n      dup5\n        /* \"#utility.yul\":7198:7202   */\n      dup5\n        /* \"#utility.yul\":7194:7214   */\n      sub\n        /* \"#utility.yul\":7189:7192   */\n      dup10\n        /* \"#utility.yul\":7182:7215   */\n      mstore\n        /* \"#utility.yul\":7255:7261   */\n      dup2\n        /* \"#utility.yul\":7249:7262   */\n      mload\n        /* \"#utility.yul\":7283:7391   */\n      tag_314\n        /* \"#utility.yul\":7386:7390   */\n      dup6\n        /* \"#utility.yul\":7371:7384   */\n      dup3\n        /* \"#utility.yul\":7283:7391   */\n      tag_200\n      jump\t// in\n    tag_314:\n        /* \"#utility.yul\":7275:7391   */\n      swap5\n      pop\n        /* \"#utility.yul\":7414:7496   */\n      tag_315\n        /* \"#utility.yul\":7489:7495   */\n      dup4\n        /* \"#utility.yul\":7414:7496   */\n      tag_201\n      jump\t// in\n    tag_315:\n        /* \"#utility.yul\":7404:7496   */\n      swap3\n      pop\n        /* \"#utility.yul\":7525:7529   */\n      0x20\n        /* \"#utility.yul\":7520:7523   */\n      dup11\n        /* \"#utility.yul\":7516:7530   */\n      add\n        /* \"#utility.yul\":7509:7530   */\n      swap10\n      pop\n        /* \"#utility.yul\":7168:7540   */\n      pop\n        /* \"#utility.yul\":7155:7156   */\n      0x01\n        /* \"#utility.yul\":7152:7153   */\n      dup2\n        /* \"#utility.yul\":7148:7157   */\n      add\n        /* \"#utility.yul\":7143:7157   */\n      swap1\n      pop\n        /* \"#utility.yul\":7108:7540   */\n      jump(tag_311)\n    tag_313:\n        /* \"#utility.yul\":7112:7126   */\n      pop\n        /* \"#utility.yul\":7556:7560   */\n      dup3\n        /* \"#utility.yul\":7549:7560   */\n      swap8\n      pop\n        /* \"#utility.yul\":7576:7579   */\n      dup8\n        /* \"#utility.yul\":7569:7579   */\n      swap6\n      pop\n        /* \"#utility.yul\":6666:7585   */\n      pop\n      pop\n      pop\n      pop\n      pop\n        /* \"#utility.yul\":6498:7585   */\n      swap3\n      swap2\n      pop\n      pop\n      jump\t// out\n        /* \"#utility.yul\":7591:8052   */\n    tag_26:\n        /* \"#utility.yul\":7778:7782   */\n      0x00\n        /* \"#utility.yul\":7816:7818   */\n      0x20\n        /* \"#utility.yul\":7805:7814   */\n      dup3\n        /* \"#utility.yul\":7801:7819   */\n      add\n        /* \"#utility.yul\":7793:7819   */\n      swap1\n      pop\n        /* \"#utility.yul\":7865:7874   */\n      dup2\n        /* \"#utility.yul\":7859:7863   */\n      dup2\n        /* \"#utility.yul\":7855:7875   */\n      sub\n        /* \"#utility.yul\":7851:7852   */\n      0x00\n        /* \"#utility.yul\":7840:7849   */\n      dup4\n        /* \"#utility.yul\":7836:7853   */\n      add\n        /* \"#utility.yul\":7829:7876   */\n      mstore\n        /* \"#utility.yul\":7893:8045   */\n      tag_317\n        /* \"#utility.yul\":8040:8044   */\n      dup2\n        /* \"#utility.yul\":8031:8037   */\n      dup5\n        /* \"#utility.yul\":7893:8045   */\n      tag_202\n      jump\t// in\n    tag_317:\n        /* \"#utility.yul\":7885:8045   */\n      swap1\n      pop\n        /* \"#utility.yul\":7591:8052   */\n      swap3\n      swap2\n      pop\n      pop\n      jump\t// out\n        /* \"#utility.yul\":8058:8175   */\n    tag_203:\n        /* \"#utility.yul\":8167:8168   */\n      0x00\n        /* \"#utility.yul\":8164:8165   */\n      dup1\n        /* \"#utility.yul\":8157:8169   */\n      revert\n        /* \"#utility.yul\":8181:8298   */\n    tag_204:\n        /* \"#utility.yul\":8290:8291   */\n      0x00\n        /* \"#utility.yul\":8287:8288   */\n      dup1\n        /* \"#utility.yul\":8280:8292   */\n      revert\n        /* \"#utility.yul\":8304:8484   */\n    tag_205:\n        /* \"#utility.yul\":8352:8429   */\n      0x4e487b7100000000000000000000000000000000000000000000000000000000\n        /* \"#utility.yul\":8349:8350   */\n      0x00\n        /* \"#utility.yul\":8342:8430   */\n      mstore\n        /* \"#utility.yul\":8449:8453   */\n      0x41\n        /* \"#utility.yul\":8446:8447   */\n      0x04\n        /* \"#utility.yul\":8439:8454   */\n      mstore\n        /* \"#utility.yul\":8473:8477   */\n      0x24\n        /* \"#utility.yul\":8470:8471   */\n      0x00\n        /* \"#utility.yul\":8463:8478   */\n      revert\n        /* \"#utility.yul\":8490:8771   */\n    tag_206:\n        /* \"#utility.yul\":8573:8600   */\n      tag_322\n        /* \"#utility.yul\":8595:8599   */\n      dup3\n        /* \"#utility.yul\":8573:8600   */\n      tag_190\n      jump\t// in\n    tag_322:\n        /* \"#utility.yul\":8565:8571   */\n      dup2\n        /* \"#utility.yul\":8561:8601   */\n      add\n        /* \"#utility.yul\":8703:8709   */\n      dup2\n        /* \"#utility.yul\":8691:8701   */\n      dup2\n        /* \"#utility.yul\":8688:8710   */\n      lt\n        /* \"#utility.yul\":8667:8685   */\n      0xffffffffffffffff\n        /* \"#utility.yul\":8655:8665   */\n      dup3\n        /* \"#utility.yul\":8652:8686   */\n      gt\n        /* \"#utility.yul\":8649:8711   */\n      or\n        /* \"#utility.yul\":8646:8734   */\n      iszero\n      tag_323\n      jumpi\n        /* \"#utility.yul\":8714:8732   */\n      tag_324\n      tag_205\n      jump\t// in\n    tag_324:\n        /* \"#utility.yul\":8646:8734   */\n    tag_323:\n        /* \"#utility.yul\":8754:8764   */\n      dup1\n        /* \"#utility.yul\":8750:8752   */\n      0x40\n        /* \"#utility.yul\":8743:8765   */\n      mstore\n        /* \"#utility.yul\":8533:8771   */\n      pop\n        /* \"#utility.yul\":8490:8771   */\n      pop\n      pop\n      jump\t// out\n        /* \"#utility.yul\":8777:8906   */\n    tag_207:\n        /* \"#utility.yul\":8811:8817   */\n      0x00\n        /* \"#utility.yul\":8838:8858   */\n      tag_326\n      tag_175\n      jump\t// in\n    tag_326:\n        /* \"#utility.yul\":8828:8858   */\n      swap1\n      pop\n        /* \"#utility.yul\":8867:8900   */\n      tag_327\n        /* \"#utility.yul\":8895:8899   */\n      dup3\n        /* \"#utility.yul\":8887:8893   */\n      dup3\n        /* \"#utility.yul\":8867:8900   */\n      tag_206\n      jump\t// in\n    tag_327:\n        /* \"#utility.yul\":8777:8906   */\n      swap2\n      swap1\n      pop\n      jump\t// out\n        /* \"#utility.yul\":8912:9220   */\n    tag_208:\n        /* \"#utility.yul\":8974:8978   */\n      0x00\n        /* \"#utility.yul\":9064:9082   */\n      0xffffffffffffffff\n        /* \"#utility.yul\":9056:9062   */\n      dup3\n        /* \"#utility.yul\":9053:9083   */\n      gt\n        /* \"#utility.yul\":9050:9106   */\n      iszero\n      tag_329\n      jumpi\n        /* \"#utility.yul\":9086:9104   */\n      tag_330\n      tag_205\n      jump\t// in\n    tag_330:\n        /* \"#utility.yul\":9050:9106   */\n    tag_329:\n        /* \"#utility.yul\":9124:9153   */\n      tag_331\n        /* \"#utility.yul\":9146:9152   */\n      dup3\n        /* \"#utility.yul\":9124:9153   */\n      tag_190\n      jump\t// in\n    tag_331:\n        /* \"#utility.yul\":9116:9153   */\n      swap1\n      pop\n        /* \"#utility.yul\":9208:9212   */\n      0x20\n        /* \"#utility.yul\":9202:9206   */\n      dup2\n        /* \"#utility.yul\":9198:9213   */\n      add\n        /* \"#utility.yul\":9190:9213   */\n      swap1\n      pop\n        /* \"#utility.yul\":8912:9220   */\n      swap2\n      swap1\n      pop\n      jump\t// out\n        /* \"#utility.yul\":9226:9374   */\n    tag_209:\n        /* \"#utility.yul\":9324:9330   */\n      dup3\n        /* \"#utility.yul\":9319:9322   */\n      dup2\n        /* \"#utility.yul\":9314:9317   */\n      dup4\n        /* \"#utility.yul\":9301:9331   */\n      calldatacopy\n        /* \"#utility.yul\":9365:9366   */\n      0x00\n        /* \"#utility.yul\":9356:9362   */\n      dup4\n        /* \"#utility.yul\":9351:9354   */\n      dup4\n        /* \"#utility.yul\":9347:9363   */\n      add\n        /* \"#utility.yul\":9340:9367   */\n      mstore\n        /* \"#utility.yul\":9226:9374   */\n      pop\n      pop\n      pop\n      jump\t// out\n        /* \"#utility.yul\":9380:9805   */\n    tag_210:\n        /* \"#utility.yul\":9458:9463   */\n      0x00\n        /* \"#utility.yul\":9483:9549   */\n      tag_334\n        /* \"#utility.yul\":9499:9548   */\n      tag_335\n        /* \"#utility.yul\":9541:9547   */\n      dup5\n        /* \"#utility.yul\":9499:9548   */\n      tag_208\n      jump\t// in\n    tag_335:\n        /* \"#utility.yul\":9483:9549   */\n      tag_207\n      jump\t// in\n    tag_334:\n        /* \"#utility.yul\":9474:9549   */\n      swap1\n      pop\n        /* \"#utility.yul\":9572:9578   */\n      dup3\n        /* \"#utility.yul\":9565:9570   */\n      dup2\n        /* \"#utility.yul\":9558:9579   */\n      mstore\n        /* \"#utility.yul\":9610:9614   */\n      0x20\n        /* \"#utility.yul\":9603:9608   */\n      dup2\n        /* \"#utility.yul\":9599:9615   */\n      add\n        /* \"#utility.yul\":9648:9651   */\n      dup5\n        /* \"#utility.yul\":9639:9645   */\n      dup5\n        /* \"#utility.yul\":9634:9637   */\n      dup5\n        /* \"#utility.yul\":9630:9646   */\n      add\n        /* \"#utility.yul\":9627:9652   */\n      gt\n        /* \"#utility.yul\":9624:9736   */\n      iszero\n      tag_336\n      jumpi\n        /* \"#utility.yul\":9655:9734   */\n      tag_337\n      tag_204\n      jump\t// in\n    tag_337:\n        /* \"#utility.yul\":9624:9736   */\n    tag_336:\n        /* \"#utility.yul\":9745:9799   */\n      tag_338\n        /* \"#utility.yul\":9792:9798   */\n      dup5\n        /* \"#utility.yul\":9787:9790   */\n      dup3\n        /* \"#utility.yul\":9782:9785   */\n      dup6\n        /* \"#utility.yul\":9745:9799   */\n      tag_209\n      jump\t// in\n    tag_338:\n        /* \"#utility.yul\":9464:9805   */\n      pop\n        /* \"#utility.yul\":9380:9805   */\n      swap4\n      swap3\n      pop\n      pop\n      pop\n      jump\t// out\n        /* \"#utility.yul\":9825:10165   */\n    tag_211:\n        /* \"#utility.yul\":9881:9886   */\n      0x00\n        /* \"#utility.yul\":9930:9933   */\n      dup3\n        /* \"#utility.yul\":9923:9927   */\n      0x1f\n        /* \"#utility.yul\":9915:9921   */\n      dup4\n        /* \"#utility.yul\":9911:9928   */\n      add\n        /* \"#utility.yul\":9907:9934   */\n      slt\n        /* \"#utility.yul\":9897:10019   */\n      tag_340\n      jumpi\n        /* \"#utility.yul\":9938:10017   */\n      tag_341\n      tag_203\n      jump\t// in\n    tag_341:\n        /* \"#utility.yul\":9897:10019   */\n    tag_340:\n        /* \"#utility.yul\":10055:10061   */\n      dup2\n        /* \"#utility.yul\":10042:10062   */\n      calldataload\n        /* \"#utility.yul\":10080:10159   */\n      tag_342\n        /* \"#utility.yul\":10155:10158   */\n      dup5\n        /* \"#utility.yul\":10147:10153   */\n      dup3\n        /* \"#utility.yul\":10140:10144   */\n      0x20\n        /* \"#utility.yul\":10132:10138   */\n      dup7\n        /* \"#utility.yul\":10128:10145   */\n      add\n        /* \"#utility.yul\":10080:10159   */\n      tag_210\n      jump\t// in\n    tag_342:\n        /* \"#utility.yul\":10071:10159   */\n      swap2\n      pop\n        /* \"#utility.yul\":9887:10165   */\n      pop\n        /* \"#utility.yul\":9825:10165   */\n      swap3\n      swap2\n      pop\n      pop\n      jump\t// out\n        /* \"#utility.yul\":10171:10680   */\n    tag_31:\n        /* \"#utility.yul\":10240:10246   */\n      0x00\n        /* \"#utility.yul\":10289:10291   */\n      0x20\n        /* \"#utility.yul\":10277:10286   */\n      dup3\n        /* \"#utility.yul\":10268:10275   */\n      dup5\n        /* \"#utility.yul\":10264:10287   */\n      sub\n        /* \"#utility.yul\":10260:10292   */\n      slt\n        /* \"#utility.yul\":10257:10376   */\n      iszero\n      tag_344\n      jumpi\n        /* \"#utility.yul\":10295:10374   */\n      tag_345\n      tag_176\n      jump\t// in\n    tag_345:\n        /* \"#utility.yul\":10257:10376   */\n    tag_344:\n        /* \"#utility.yul\":10443:10444   */\n      0x00\n        /* \"#utility.yul\":10432:10441   */\n      dup3\n        /* \"#utility.yul\":10428:10445   */\n      add\n        /* \"#utility.yul\":10415:10446   */\n      calldataload\n        /* \"#utility.yul\":10473:10491   */\n      0xffffffffffffffff\n        /* \"#utility.yul\":10465:10471   */\n      dup2\n        /* \"#utility.yul\":10462:10492   */\n      gt\n        /* \"#utility.yul\":10459:10576   */\n      iszero\n      tag_346\n      jumpi\n        /* \"#utility.yul\":10495:10574   */\n      tag_347\n      tag_177\n      jump\t// in\n    tag_347:\n        /* \"#utility.yul\":10459:10576   */\n    tag_346:\n        /* \"#utility.yul\":10600:10663   */\n      tag_348\n        /* \"#utility.yul\":10655:10662   */\n      dup5\n        /* \"#utility.yul\":10646:10652   */\n      dup3\n        /* \"#utility.yul\":10635:10644   */\n      dup6\n        /* \"#utility.yul\":10631:10653   */\n      add\n        /* \"#utility.yul\":10600:10663   */\n      tag_211\n      jump\t// in\n    tag_348:\n        /* \"#utility.yul\":10590:10663   */\n      swap2\n      pop\n        /* \"#utility.yul\":10386:10673   */\n      pop\n        /* \"#utility.yul\":10171:10680   */\n      swap3\n      swap2\n      pop\n      pop\n      jump\t// out\n        /* \"#utility.yul\":10686:11015   */\n    tag_35:\n        /* \"#utility.yul\":10745:10751   */\n      0x00\n        /* \"#utility.yul\":10794:10796   */\n      0x20\n        /* \"#utility.yul\":10782:10791   */\n      dup3\n        /* \"#utility.yul\":10773:10780   */\n      dup5\n        /* \"#utility.yul\":10769:10792   */\n      sub\n        /* \"#utility.yul\":10765:10797   */\n      slt\n        /* \"#utility.yul\":10762:10881   */\n      iszero\n      tag_350\n      jumpi\n        /* \"#utility.yul\":10800:10879   */\n      tag_351\n      tag_176\n      jump\t// in\n    tag_351:\n        /* \"#utility.yul\":10762:10881   */\n    tag_350:\n        /* \"#utility.yul\":10920:10921   */\n      0x00\n        /* \"#utility.yul\":10945:10998   */\n      tag_352\n        /* \"#utility.yul\":10990:10997   */\n      dup5\n        /* \"#utility.yul\":10981:10987   */\n      dup3\n        /* \"#utility.yul\":10970:10979   */\n      dup6\n        /* \"#utility.yul\":10966:10988   */\n      add\n        /* \"#utility.yul\":10945:10998   */\n      tag_184\n      jump\t// in\n    tag_352:\n        /* \"#utility.yul\":10935:10998   */\n      swap2\n      pop\n        /* \"#utility.yul\":10891:11008   */\n      pop\n        /* \"#utility.yul\":10686:11015   */\n      swap3\n      swap2\n      pop\n      pop\n      jump\t// out\n        /* \"#utility.yul\":11021:11243   */\n    tag_40:\n        /* \"#utility.yul\":11114:11118   */\n      0x00\n        /* \"#utility.yul\":11152:11154   */\n      0x20\n        /* \"#utility.yul\":11141:11150   */\n      dup3\n        /* \"#utility.yul\":11137:11155   */\n      add\n        /* \"#utility.yul\":11129:11155   */\n      swap1\n      pop\n        /* \"#utility.yul\":11165:11236   */\n      tag_354\n        /* \"#utility.yul\":11233:11234   */\n      0x00\n        /* \"#utility.yul\":11222:11231   */\n      dup4\n        /* \"#utility.yul\":11218:11235   */\n      add\n        /* \"#utility.yul\":11209:11215   */\n      dup5\n        /* \"#utility.yul\":11165:11236   */\n      tag_186\n      jump\t// in\n    tag_354:\n        /* \"#utility.yul\":11021:11243   */\n      swap3\n      swap2\n      pop\n      pop\n      jump\t// out\n        /* \"#utility.yul\":11301:12432   */\n    tag_212:\n        /* \"#utility.yul\":11414:11417   */\n      0x00\n        /* \"#utility.yul\":11450:11454   */\n      0xa0\n        /* \"#utility.yul\":11445:11448   */\n      dup4\n        /* \"#utility.yul\":11441:11455   */\n      add\n        /* \"#utility.yul\":11535:11539   */\n      0x00\n        /* \"#utility.yul\":11528:11533   */\n      dup4\n        /* \"#utility.yul\":11524:11540   */\n      add\n        /* \"#utility.yul\":11518:11541   */\n      mload\n        /* \"#utility.yul\":11554:11617   */\n      tag_356\n        /* \"#utility.yul\":11611:11615   */\n      0x00\n        /* \"#utility.yul\":11606:11609   */\n      dup7\n        /* \"#utility.yul\":11602:11616   */\n      add\n        /* \"#utility.yul\":11588:11600   */\n      dup3\n        /* \"#utility.yul\":11554:11617   */\n      tag_195\n      jump\t// in\n    tag_356:\n        /* \"#utility.yul\":11465:11627   */\n      pop\n        /* \"#utility.yul\":11711:11715   */\n      0x20\n        /* \"#utility.yul\":11704:11709   */\n      dup4\n        /* \"#utility.yul\":11700:11716   */\n      add\n        /* \"#utility.yul\":11694:11717   */\n      mload\n        /* \"#utility.yul\":11730:11793   */\n      tag_357\n        /* \"#utility.yul\":11787:11791   */\n      0x20\n        /* \"#utility.yul\":11782:11785   */\n      dup7\n        /* \"#utility.yul\":11778:11792   */\n      add\n        /* \"#utility.yul\":11764:11776   */\n      dup3\n        /* \"#utility.yul\":11730:11793   */\n      tag_196\n      jump\t// in\n    tag_357:\n        /* \"#utility.yul\":11637:11803   */\n      pop\n        /* \"#utility.yul\":11888:11892   */\n      0x40\n        /* \"#utility.yul\":11881:11886   */\n      dup4\n        /* \"#utility.yul\":11877:11893   */\n      add\n        /* \"#utility.yul\":11871:11894   */\n      mload\n        /* \"#utility.yul\":11941:11944   */\n      dup5\n        /* \"#utility.yul\":11935:11939   */\n      dup3\n        /* \"#utility.yul\":11931:11945   */\n      sub\n        /* \"#utility.yul\":11924:11928   */\n      0x40\n        /* \"#utility.yul\":11919:11922   */\n      dup7\n        /* \"#utility.yul\":11915:11929   */\n      add\n        /* \"#utility.yul\":11908:11946   */\n      mstore\n        /* \"#utility.yul\":11967:12040   */\n      tag_358\n        /* \"#utility.yul\":12035:12039   */\n      dup3\n        /* \"#utility.yul\":12021:12033   */\n      dup3\n        /* \"#utility.yul\":11967:12040   */\n      tag_198\n      jump\t// in\n    tag_358:\n        /* \"#utility.yul\":11959:12040   */\n      swap2\n      pop\n        /* \"#utility.yul\":11813:12051   */\n      pop\n        /* \"#utility.yul\":12138:12142   */\n      0x60\n        /* \"#utility.yul\":12131:12136   */\n      dup4\n        /* \"#utility.yul\":12127:12143   */\n      add\n        /* \"#utility.yul\":12121:12144   */\n      mload\n        /* \"#utility.yul\":12157:12220   */\n      tag_359\n        /* \"#utility.yul\":12214:12218   */\n      0x60\n        /* \"#utility.yul\":12209:12212   */\n      dup7\n        /* \"#utility.yul\":12205:12219   */\n      add\n        /* \"#utility.yul\":12191:12203   */\n      dup3\n        /* \"#utility.yul\":12157:12220   */\n      tag_195\n      jump\t// in\n    tag_359:\n        /* \"#utility.yul\":12061:12230   */\n      pop\n        /* \"#utility.yul\":12313:12317   */\n      0x80\n        /* \"#utility.yul\":12306:12311   */\n      dup4\n        /* \"#utility.yul\":12302:12318   */\n      add\n        /* \"#utility.yul\":12296:12319   */\n      mload\n        /* \"#utility.yul\":12332:12395   */\n      tag_360\n        /* \"#utility.yul\":12389:12393   */\n      0x80\n        /* \"#utility.yul\":12384:12387   */\n      dup7\n        /* \"#utility.yul\":12380:12394   */\n      add\n        /* \"#utility.yul\":12366:12378   */\n      dup3\n        /* \"#utility.yul\":12332:12395   */\n      tag_195\n      jump\t// in\n    tag_360:\n        /* \"#utility.yul\":12240:12405   */\n      pop\n        /* \"#utility.yul\":12422:12426   */\n      dup1\n        /* \"#utility.yul\":12415:12426   */\n      swap2\n      pop\n        /* \"#utility.yul\":11419:12432   */\n      pop\n        /* \"#utility.yul\":11301:12432   */\n      swap3\n      swap2\n      pop\n      pop\n      jump\t// out\n        /* \"#utility.yul\":12438:12799   */\n    tag_48:\n        /* \"#utility.yul\":12575:12579   */\n      0x00\n        /* \"#utility.yul\":12613:12615   */\n      0x20\n        /* \"#utility.yul\":12602:12611   */\n      dup3\n        /* \"#utility.yul\":12598:12616   */\n      add\n        /* \"#utility.yul\":12590:12616   */\n      swap1\n      pop\n        /* \"#utility.yul\":12662:12671   */\n      dup2\n        /* \"#utility.yul\":12656:12660   */\n      dup2\n        /* \"#utility.yul\":12652:12672   */\n      sub\n        /* \"#utility.yul\":12648:12649   */\n      0x00\n        /* \"#utility.yul\":12637:12646   */\n      dup4\n        /* \"#utility.yul\":12633:12650   */\n      add\n        /* \"#utility.yul\":12626:12673   */\n      mstore\n        /* \"#utility.yul\":12690:12792   */\n      tag_362\n        /* \"#utility.yul\":12787:12791   */\n      dup2\n        /* \"#utility.yul\":12778:12784   */\n      dup5\n        /* \"#utility.yul\":12690:12792   */\n      tag_212\n      jump\t// in\n    tag_362:\n        /* \"#utility.yul\":12682:12792   */\n      swap1\n      pop\n        /* \"#utility.yul\":12438:12799   */\n      swap3\n      swap2\n      pop\n      pop\n      jump\t// out\n        /* \"#utility.yul\":12805:13134   */\n    tag_51:\n        /* \"#utility.yul\":12864:12870   */\n      0x00\n        /* \"#utility.yul\":12913:12915   */\n      0x20\n        /* \"#utility.yul\":12901:12910   */\n      dup3\n        /* \"#utility.yul\":12892:12899   */\n      dup5\n        /* \"#utility.yul\":12888:12911   */\n      sub\n        /* \"#utility.yul\":12884:12916   */\n      slt\n        /* \"#utility.yul\":12881:13000   */\n      iszero\n      tag_364\n      jumpi\n        /* \"#utility.yul\":12919:12998   */\n      tag_365\n      tag_176\n      jump\t// in\n    tag_365:\n        /* \"#utility.yul\":12881:13000   */\n    tag_364:\n        /* \"#utility.yul\":13039:13040   */\n      0x00\n        /* \"#utility.yul\":13064:13117   */\n      tag_366\n        /* \"#utility.yul\":13109:13116   */\n      dup5\n        /* \"#utility.yul\":13100:13106   */\n      dup3\n        /* \"#utility.yul\":13089:13098   */\n      dup6\n        /* \"#utility.yul\":13085:13107   */\n      add\n        /* \"#utility.yul\":13064:13117   */\n      tag_181\n      jump\t// in\n    tag_366:\n        /* \"#utility.yul\":13054:13117   */\n      swap2\n      pop\n        /* \"#utility.yul\":13010:13127   */\n      pop\n        /* \"#utility.yul\":12805:13134   */\n      swap3\n      swap2\n      pop\n      pop\n      jump\t// out\n        /* \"#utility.yul\":13140:13320   */\n    tag_213:\n        /* \"#utility.yul\":13188:13265   */\n      0x4e487b7100000000000000000000000000000000000000000000000000000000\n        /* \"#utility.yul\":13185:13186   */\n      0x00\n        /* \"#utility.yul\":13178:13266   */\n      mstore\n        /* \"#utility.yul\":13285:13289   */\n      0x22\n        /* \"#utility.yul\":13282:13283   */\n      0x04\n        /* \"#utility.yul\":13275:13290   */\n      mstore\n        /* \"#utility.yul\":13309:13313   */\n      0x24\n        /* \"#utility.yul\":13306:13307   */\n      0x00\n        /* \"#utility.yul\":13299:13314   */\n      revert\n        /* \"#utility.yul\":13326:13646   */\n    tag_56:\n        /* \"#utility.yul\":13370:13376   */\n      0x00\n        /* \"#utility.yul\":13407:13408   */\n      0x02\n        /* \"#utility.yul\":13401:13405   */\n      dup3\n        /* \"#utility.yul\":13397:13409   */\n      div\n        /* \"#utility.yul\":13387:13409   */\n      swap1\n      pop\n        /* \"#utility.yul\":13454:13455   */\n      0x01\n        /* \"#utility.yul\":13448:13452   */\n      dup3\n        /* \"#utility.yul\":13444:13456   */\n      and\n        /* \"#utility.yul\":13475:13493   */\n      dup1\n        /* \"#utility.yul\":13465:13546   */\n      tag_369\n      jumpi\n        /* \"#utility.yul\":13531:13535   */\n      0x7f\n        /* \"#utility.yul\":13523:13529   */\n      dup3\n        /* \"#utility.yul\":13519:13536   */\n      and\n        /* \"#utility.yul\":13509:13536   */\n      swap2\n      pop\n        /* \"#utility.yul\":13465:13546   */\n    tag_369:\n        /* \"#utility.yul\":13593:13595   */\n      0x20\n        /* \"#utility.yul\":13585:13591   */\n      dup3\n        /* \"#utility.yul\":13582:13596   */\n      lt\n        /* \"#utility.yul\":13562:13580   */\n      dup2\n        /* \"#utility.yul\":13559:13597   */\n      sub\n        /* \"#utility.yul\":13556:13640   */\n      tag_370\n      jumpi\n        /* \"#utility.yul\":13612:13630   */\n      tag_371\n      tag_213\n      jump\t// in\n    tag_371:\n        /* \"#utility.yul\":13556:13640   */\n    tag_370:\n        /* \"#utility.yul\":13377:13646   */\n      pop\n        /* \"#utility.yul\":13326:13646   */\n      swap2\n      swap1\n      pop\n      jump\t// out\n        /* \"#utility.yul\":13652:13769   */\n    tag_214:\n        /* \"#utility.yul\":13761:13762   */\n      0x00\n        /* \"#utility.yul\":13758:13759   */\n      dup1\n        /* \"#utility.yul\":13751:13763   */\n      revert\n        /* \"#utility.yul\":13775:13892   */\n    tag_215:\n        /* \"#utility.yul\":13884:13885   */\n      0x00\n        /* \"#utility.yul\":13881:13882   */\n      dup1\n        /* \"#utility.yul\":13874:13886   */\n      revert\n        /* \"#utility.yul\":13898:14332   */\n    tag_216:\n        /* \"#utility.yul\":13987:13992   */\n      0x00\n        /* \"#utility.yul\":14012:14078   */\n      tag_375\n        /* \"#utility.yul\":14028:14077   */\n      tag_376\n        /* \"#utility.yul\":14070:14076   */\n      dup5\n        /* \"#utility.yul\":14028:14077   */\n      tag_208\n      jump\t// in\n    tag_376:\n        /* \"#utility.yul\":14012:14078   */\n      tag_207\n      jump\t// in\n    tag_375:\n        /* \"#utility.yul\":14003:14078   */\n      swap1\n      pop\n        /* \"#utility.yul\":14101:14107   */\n      dup3\n        /* \"#utility.yul\":14094:14099   */\n      dup2\n        /* \"#utility.yul\":14087:14108   */\n      mstore\n        /* \"#utility.yul\":14139:14143   */\n      0x20\n        /* \"#utility.yul\":14132:14137   */\n      dup2\n        /* \"#utility.yul\":14128:14144   */\n      add\n        /* \"#utility.yul\":14177:14180   */\n      dup5\n        /* \"#utility.yul\":14168:14174   */\n      dup5\n        /* \"#utility.yul\":14163:14166   */\n      dup5\n        /* \"#utility.yul\":14159:14175   */\n      add\n        /* \"#utility.yul\":14156:14181   */\n      gt\n        /* \"#utility.yul\":14153:14265   */\n      iszero\n      tag_377\n      jumpi\n        /* \"#utility.yul\":14184:14263   */\n      tag_378\n      tag_204\n      jump\t// in\n    tag_378:\n        /* \"#utility.yul\":14153:14265   */\n    tag_377:\n        /* \"#utility.yul\":14274:14326   */\n      tag_379\n        /* \"#utility.yul\":14319:14325   */\n      dup5\n        /* \"#utility.yul\":14314:14317   */\n      dup3\n        /* \"#utility.yul\":14309:14312   */\n      dup6\n        /* \"#utility.yul\":14274:14326   */\n      tag_189\n      jump\t// in\n    tag_379:\n        /* \"#utility.yul\":13993:14332   */\n      pop\n        /* \"#utility.yul\":13898:14332   */\n      swap4\n      swap3\n      pop\n      pop\n      pop\n      jump\t// out\n        /* \"#utility.yul\":14352:14707   */\n    tag_217:\n        /* \"#utility.yul\":14419:14424   */\n      0x00\n        /* \"#utility.yul\":14468:14471   */\n      dup3\n        /* \"#utility.yul\":14461:14465   */\n      0x1f\n        /* \"#utility.yul\":14453:14459   */\n      dup4\n        /* \"#utility.yul\":14449:14466   */\n      add\n        /* \"#utility.yul\":14445:14472   */\n      slt\n        /* \"#utility.yul\":14435:14557   */\n      tag_381\n      jumpi\n        /* \"#utility.yul\":14476:14555   */\n      tag_382\n      tag_203\n      jump\t// in\n    tag_382:\n        /* \"#utility.yul\":14435:14557   */\n    tag_381:\n        /* \"#utility.yul\":14586:14592   */\n      dup2\n        /* \"#utility.yul\":14580:14593   */\n      mload\n        /* \"#utility.yul\":14611:14701   */\n      tag_383\n        /* \"#utility.yul\":14697:14700   */\n      dup5\n        /* \"#utility.yul\":14689:14695   */\n      dup3\n        /* \"#utility.yul\":14682:14686   */\n      0x20\n        /* \"#utility.yul\":14674:14680   */\n      dup7\n        /* \"#utility.yul\":14670:14687   */\n      add\n        /* \"#utility.yul\":14611:14701   */\n      tag_216\n      jump\t// in\n    tag_383:\n        /* \"#utility.yul\":14602:14701   */\n      swap2\n      pop\n        /* \"#utility.yul\":14425:14707   */\n      pop\n        /* \"#utility.yul\":14352:14707   */\n      swap3\n      swap2\n      pop\n      pop\n      jump\t// out\n        /* \"#utility.yul\":14748:15687   */\n    tag_218:\n        /* \"#utility.yul\":14836:14841   */\n      0x00\n        /* \"#utility.yul\":14880:14884   */\n      0x40\n        /* \"#utility.yul\":14868:14877   */\n      dup3\n        /* \"#utility.yul\":14863:14866   */\n      dup5\n        /* \"#utility.yul\":14859:14878   */\n      sub\n        /* \"#utility.yul\":14855:14885   */\n      slt\n        /* \"#utility.yul\":14852:14969   */\n      iszero\n      tag_385\n      jumpi\n        /* \"#utility.yul\":14888:14967   */\n      tag_386\n      tag_214\n      jump\t// in\n    tag_386:\n        /* \"#utility.yul\":14852:14969   */\n    tag_385:\n        /* \"#utility.yul\":14987:15008   */\n      tag_387\n        /* \"#utility.yul\":15003:15007   */\n      0x40\n        /* \"#utility.yul\":14987:15008   */\n      tag_207\n      jump\t// in\n    tag_387:\n        /* \"#utility.yul\":14978:15008   */\n      swap1\n      pop\n        /* \"#utility.yul\":15092:15093   */\n      0x00\n        /* \"#utility.yul\":15081:15090   */\n      dup3\n        /* \"#utility.yul\":15077:15094   */\n      add\n        /* \"#utility.yul\":15071:15095   */\n      mload\n        /* \"#utility.yul\":15122:15140   */\n      0xffffffffffffffff\n        /* \"#utility.yul\":15114:15120   */\n      dup2\n        /* \"#utility.yul\":15111:15141   */\n      gt\n        /* \"#utility.yul\":15108:15225   */\n      iszero\n      tag_388\n      jumpi\n        /* \"#utility.yul\":15144:15223   */\n      tag_389\n      tag_215\n      jump\t// in\n    tag_389:\n        /* \"#utility.yul\":15108:15225   */\n    tag_388:\n        /* \"#utility.yul\":15264:15334   */\n      tag_390\n        /* \"#utility.yul\":15330:15333   */\n      dup5\n        /* \"#utility.yul\":15321:15327   */\n      dup3\n        /* \"#utility.yul\":15310:15319   */\n      dup6\n        /* \"#utility.yul\":15306:15328   */\n      add\n        /* \"#utility.yul\":15264:15334   */\n      tag_217\n      jump\t// in\n    tag_390:\n        /* \"#utility.yul\":15257:15261   */\n      0x00\n        /* \"#utility.yul\":15250:15255   */\n      dup4\n        /* \"#utility.yul\":15246:15262   */\n      add\n        /* \"#utility.yul\":15239:15335   */\n      mstore\n        /* \"#utility.yul\":15018:15346   */\n      pop\n        /* \"#utility.yul\":15425:15427   */\n      0x20\n        /* \"#utility.yul\":15414:15423   */\n      dup3\n        /* \"#utility.yul\":15410:15428   */\n      add\n        /* \"#utility.yul\":15404:15429   */\n      mload\n        /* \"#utility.yul\":15456:15474   */\n      0xffffffffffffffff\n        /* \"#utility.yul\":15448:15454   */\n      dup2\n        /* \"#utility.yul\":15445:15475   */\n      gt\n        /* \"#utility.yul\":15442:15559   */\n      iszero\n      tag_391\n      jumpi\n        /* \"#utility.yul\":15478:15557   */\n      tag_392\n      tag_215\n      jump\t// in\n    tag_392:\n        /* \"#utility.yul\":15442:15559   */\n    tag_391:\n        /* \"#utility.yul\":15598:15668   */\n      tag_393\n        /* \"#utility.yul\":15664:15667   */\n      dup5\n        /* \"#utility.yul\":15655:15661   */\n      dup3\n        /* \"#utility.yul\":15644:15653   */\n      dup6\n        /* \"#utility.yul\":15640:15662   */\n      add\n        /* \"#utility.yul\":15598:15668   */\n      tag_217\n      jump\t// in\n    tag_393:\n        /* \"#utility.yul\":15591:15595   */\n      0x20\n        /* \"#utility.yul\":15584:15589   */\n      dup4\n        /* \"#utility.yul\":15580:15596   */\n      add\n        /* \"#utility.yul\":15573:15669   */\n      mstore\n        /* \"#utility.yul\":15356:15680   */\n      pop\n        /* \"#utility.yul\":14748:15687   */\n      swap3\n      swap2\n      pop\n      pop\n      jump\t// out\n        /* \"#utility.yul\":15693:16253   */\n    tag_66:\n        /* \"#utility.yul\":15791:15797   */\n      0x00\n        /* \"#utility.yul\":15840:15842   */\n      0x20\n        /* \"#utility.yul\":15828:15837   */\n      dup3\n        /* \"#utility.yul\":15819:15826   */\n      dup5\n        /* \"#utility.yul\":15815:15838   */\n      sub\n        /* \"#utility.yul\":15811:15843   */\n      slt\n        /* \"#utility.yul\":15808:15927   */\n      iszero\n      tag_395\n      jumpi\n        /* \"#utility.yul\":15846:15925   */\n      tag_396\n      tag_176\n      jump\t// in\n    tag_396:\n        /* \"#utility.yul\":15808:15927   */\n    tag_395:\n        /* \"#utility.yul\":15987:15988   */\n      0x00\n        /* \"#utility.yul\":15976:15985   */\n      dup3\n        /* \"#utility.yul\":15972:15989   */\n      add\n        /* \"#utility.yul\":15966:15990   */\n      mload\n        /* \"#utility.yul\":16017:16035   */\n      0xffffffffffffffff\n        /* \"#utility.yul\":16009:16015   */\n      dup2\n        /* \"#utility.yul\":16006:16036   */\n      gt\n        /* \"#utility.yul\":16003:16120   */\n      iszero\n      tag_397\n      jumpi\n        /* \"#utility.yul\":16039:16118   */\n      tag_398\n      tag_177\n      jump\t// in\n    tag_398:\n        /* \"#utility.yul\":16003:16120   */\n    tag_397:\n        /* \"#utility.yul\":16144:16236   */\n      tag_399\n        /* \"#utility.yul\":16228:16235   */\n      dup5\n        /* \"#utility.yul\":16219:16225   */\n      dup3\n        /* \"#utility.yul\":16208:16217   */\n      dup6\n        /* \"#utility.yul\":16204:16226   */\n      add\n        /* \"#utility.yul\":16144:16236   */\n      tag_218\n      jump\t// in\n    tag_399:\n        /* \"#utility.yul\":16134:16236   */\n      swap2\n      pop\n        /* \"#utility.yul\":15937:16246   */\n      pop\n        /* \"#utility.yul\":15693:16253   */\n      swap3\n      swap2\n      pop\n      pop\n      jump\t// out\n        /* \"#utility.yul\":16259:16428   */\n    tag_219:\n        /* \"#utility.yul\":16399:16420   */\n      0x55534552204e4f54205245474953544552454400000000000000000000000000\n        /* \"#utility.yul\":16395:16396   */\n      0x00\n        /* \"#utility.yul\":16387:16393   */\n      dup3\n        /* \"#utility.yul\":16383:16397   */\n      add\n        /* \"#utility.yul\":16376:16421   */\n      mstore\n        /* \"#utility.yul\":16259:16428   */\n      pop\n      jump\t// out\n        /* \"#utility.yul\":16434:16800   */\n    tag_220:\n        /* \"#utility.yul\":16576:16579   */\n      0x00\n        /* \"#utility.yul\":16597:16664   */\n      tag_402\n        /* \"#utility.yul\":16661:16663   */\n      0x13\n        /* \"#utility.yul\":16656:16659   */\n      dup4\n        /* \"#utility.yul\":16597:16664   */\n      tag_188\n      jump\t// in\n    tag_402:\n        /* \"#utility.yul\":16590:16664   */\n      swap2\n      pop\n        /* \"#utility.yul\":16673:16766   */\n      tag_403\n        /* \"#utility.yul\":16762:16765   */\n      dup3\n        /* \"#utility.yul\":16673:16766   */\n      tag_219\n      jump\t// in\n    tag_403:\n        /* \"#utility.yul\":16791:16793   */\n      0x20\n        /* \"#utility.yul\":16786:16789   */\n      dup3\n        /* \"#utility.yul\":16782:16794   */\n      add\n        /* \"#utility.yul\":16775:16794   */\n      swap1\n      pop\n        /* \"#utility.yul\":16434:16800   */\n      swap2\n      swap1\n      pop\n      jump\t// out\n        /* \"#utility.yul\":16806:17225   */\n    tag_69:\n        /* \"#utility.yul\":16972:16976   */\n      0x00\n        /* \"#utility.yul\":17010:17012   */\n      0x20\n        /* \"#utility.yul\":16999:17008   */\n      dup3\n        /* \"#utility.yul\":16995:17013   */\n      add\n        /* \"#utility.yul\":16987:17013   */\n      swap1\n      pop\n        /* \"#utility.yul\":17059:17068   */\n      dup2\n        /* \"#utility.yul\":17053:17057   */\n      dup2\n        /* \"#utility.yul\":17049:17069   */\n      sub\n        /* \"#utility.yul\":17045:17046   */\n      0x00\n        /* \"#utility.yul\":17034:17043   */\n      dup4\n        /* \"#utility.yul\":17030:17047   */\n      add\n        /* \"#utility.yul\":17023:17070   */\n      mstore\n        /* \"#utility.yul\":17087:17218   */\n      tag_405\n        /* \"#utility.yul\":17213:17217   */\n      dup2\n        /* \"#utility.yul\":17087:17218   */\n      tag_220\n      jump\t// in\n    tag_405:\n        /* \"#utility.yul\":17079:17218   */\n      swap1\n      pop\n        /* \"#utility.yul\":16806:17225   */\n      swap2\n      swap1\n      pop\n      jump\t// out\n        /* \"#utility.yul\":17231:17411   */\n    tag_73:\n        /* \"#utility.yul\":17279:17356   */\n      0x4e487b7100000000000000000000000000000000000000000000000000000000\n        /* \"#utility.yul\":17276:17277   */\n      0x00\n        /* \"#utility.yul\":17269:17357   */\n      mstore\n        /* \"#utility.yul\":17376:17380   */\n      0x32\n        /* \"#utility.yul\":17373:17374   */\n      0x04\n        /* \"#utility.yul\":17366:17381   */\n      mstore\n        /* \"#utility.yul\":17400:17404   */\n      0x24\n        /* \"#utility.yul\":17397:17398   */\n      0x00\n        /* \"#utility.yul\":17390:17405   */\n      revert\n        /* \"#utility.yul\":17417:17587   */\n    tag_221:\n        /* \"#utility.yul\":17557:17579   */\n      0x547765657420646f6573206e6f74206578697374000000000000000000000000\n        /* \"#utility.yul\":17553:17554   */\n      0x00\n        /* \"#utility.yul\":17545:17551   */\n      dup3\n        /* \"#utility.yul\":17541:17555   */\n      add\n        /* \"#utility.yul\":17534:17580   */\n      mstore\n        /* \"#utility.yul\":17417:17587   */\n      pop\n      jump\t// out\n        /* \"#utility.yul\":17593:17959   */\n    tag_222:\n        /* \"#utility.yul\":17735:17738   */\n      0x00\n        /* \"#utility.yul\":17756:17823   */\n      tag_409\n        /* \"#utility.yul\":17820:17822   */\n      0x14\n        /* \"#utility.yul\":17815:17818   */\n      dup4\n        /* \"#utility.yul\":17756:17823   */\n      tag_188\n      jump\t// in\n    tag_409:\n        /* \"#utility.yul\":17749:17823   */\n      swap2\n      pop\n        /* \"#utility.yul\":17832:17925   */\n      tag_410\n        /* \"#utility.yul\":17921:17924   */\n      dup3\n        /* \"#utility.yul\":17832:17925   */\n      tag_221\n      jump\t// in\n    tag_410:\n        /* \"#utility.yul\":17950:17952   */\n      0x20\n        /* \"#utility.yul\":17945:17948   */\n      dup3\n        /* \"#utility.yul\":17941:17953   */\n      add\n        /* \"#utility.yul\":17934:17953   */\n      swap1\n      pop\n        /* \"#utility.yul\":17593:17959   */\n      swap2\n      swap1\n      pop\n      jump\t// out\n        /* \"#utility.yul\":17965:18384   */\n    tag_77:\n        /* \"#utility.yul\":18131:18135   */\n      0x00\n        /* \"#utility.yul\":18169:18171   */\n      0x20\n        /* \"#utility.yul\":18158:18167   */\n      dup3\n        /* \"#utility.yul\":18154:18172   */\n      add\n        /* \"#utility.yul\":18146:18172   */\n      swap1\n      pop\n        /* \"#utility.yul\":18218:18227   */\n      dup2\n        /* \"#utility.yul\":18212:18216   */\n      dup2\n        /* \"#utility.yul\":18208:18228   */\n      sub\n        /* \"#utility.yul\":18204:18205   */\n      0x00\n        /* \"#utility.yul\":18193:18202   */\n      dup4\n        /* \"#utility.yul\":18189:18206   */\n      add\n        /* \"#utility.yul\":18182:18229   */\n      mstore\n        /* \"#utility.yul\":18246:18377   */\n      tag_412\n        /* \"#utility.yul\":18372:18376   */\n      dup2\n        /* \"#utility.yul\":18246:18377   */\n      tag_222\n      jump\t// in\n    tag_412:\n        /* \"#utility.yul\":18238:18377   */\n      swap1\n      pop\n        /* \"#utility.yul\":17965:18384   */\n      swap2\n      swap1\n      pop\n      jump\t// out\n        /* \"#utility.yul\":18390:18570   */\n    tag_223:\n        /* \"#utility.yul\":18438:18515   */\n      0x4e487b7100000000000000000000000000000000000000000000000000000000\n        /* \"#utility.yul\":18435:18436   */\n      0x00\n        /* \"#utility.yul\":18428:18516   */\n      mstore\n        /* \"#utility.yul\":18535:18539   */\n      0x11\n        /* \"#utility.yul\":18532:18533   */\n      0x04\n        /* \"#utility.yul\":18525:18540   */\n      mstore\n        /* \"#utility.yul\":18559:18563   */\n      0x24\n        /* \"#utility.yul\":18556:18557   */\n      0x00\n        /* \"#utility.yul\":18549:18564   */\n      revert\n        /* \"#utility.yul\":18576:18809   */\n    tag_82:\n        /* \"#utility.yul\":18615:18618   */\n      0x00\n        /* \"#utility.yul\":18638:18662   */\n      tag_415\n        /* \"#utility.yul\":18656:18661   */\n      dup3\n        /* \"#utility.yul\":18638:18662   */\n      tag_182\n      jump\t// in\n    tag_415:\n        /* \"#utility.yul\":18629:18662   */\n      swap2\n      pop\n        /* \"#utility.yul\":18684:18750   */\n      0xffffffffffffffffffffffffffffffffffffffffffffffffffffffffffffffff\n        /* \"#utility.yul\":18677:18682   */\n      dup3\n        /* \"#utility.yul\":18674:18751   */\n      sub\n        /* \"#utility.yul\":18671:18774   */\n      tag_416\n      jumpi\n        /* \"#utility.yul\":18754:18772   */\n      tag_417\n      tag_223\n      jump\t// in\n    tag_417:\n        /* \"#utility.yul\":18671:18774   */\n    tag_416:\n        /* \"#utility.yul\":18801:18802   */\n      0x01\n        /* \"#utility.yul\":18794:18799   */\n      dup3\n        /* \"#utility.yul\":18790:18803   */\n      add\n        /* \"#utility.yul\":18783:18803   */\n      swap1\n      pop\n        /* \"#utility.yul\":18576:18809   */\n      swap2\n      swap1\n      pop\n      jump\t// out\n        /* \"#utility.yul\":18815:19368   */\n    tag_87:\n        /* \"#utility.yul\":18992:18996   */\n      0x00\n        /* \"#utility.yul\":19030:19033   */\n      0x80\n        /* \"#utility.yul\":19019:19028   */\n      dup3\n        /* \"#utility.yul\":19015:19034   */\n      add\n        /* \"#utility.yul\":19007:19034   */\n      swap1\n      pop\n        /* \"#utility.yul\":19044:19115   */\n      tag_419\n        /* \"#utility.yul\":19112:19113   */\n      0x00\n        /* \"#utility.yul\":19101:19110   */\n      dup4\n        /* \"#utility.yul\":19097:19114   */\n      add\n        /* \"#utility.yul\":19088:19094   */\n      dup8\n        /* \"#utility.yul\":19044:19115   */\n      tag_186\n      jump\t// in\n    tag_419:\n        /* \"#utility.yul\":19125:19197   */\n      tag_420\n        /* \"#utility.yul\":19193:19195   */\n      0x20\n        /* \"#utility.yul\":19182:19191   */\n      dup4\n        /* \"#utility.yul\":19178:19196   */\n      add\n        /* \"#utility.yul\":19169:19175   */\n      dup7\n        /* \"#utility.yul\":19125:19197   */\n      tag_185\n      jump\t// in\n    tag_420:\n        /* \"#utility.yul\":19207:19279   */\n      tag_421\n        /* \"#utility.yul\":19275:19277   */\n      0x40\n        /* \"#utility.yul\":19264:19273   */\n      dup4\n        /* \"#utility.yul\":19260:19278   */\n      add\n        /* \"#utility.yul\":19251:19257   */\n      dup6\n        /* \"#utility.yul\":19207:19279   */\n      tag_186\n      jump\t// in\n    tag_421:\n        /* \"#utility.yul\":19289:19361   */\n      tag_422\n        /* \"#utility.yul\":19357:19359   */\n      0x60\n        /* \"#utility.yul\":19346:19355   */\n      dup4\n        /* \"#utility.yul\":19342:19360   */\n      add\n        /* \"#utility.yul\":19333:19339   */\n      dup5\n        /* \"#utility.yul\":19289:19361   */\n      tag_185\n      jump\t// in\n    tag_422:\n        /* \"#utility.yul\":18815:19368   */\n      swap6\n      swap5\n      pop\n      pop\n      pop\n      pop\n      pop\n      jump\t// out\n        /* \"#utility.yul\":19374:19541   */\n    tag_224:\n        /* \"#utility.yul\":19514:19533   */\n      0x547765657420697320746f6f206c6f6e67000000000000000000000000000000\n        /* \"#utility.yul\":19510:19511   */\n      0x00\n        /* \"#utility.yul\":19502:19508   */\n      dup3\n        /* \"#utility.yul\":19498:19512   */\n      add\n        /* \"#utility.yul\":19491:19534   */\n      mstore\n        /* \"#utility.yul\":19374:19541   */\n      pop\n      jump\t// out\n        /* \"#utility.yul\":19547:19913   */\n    tag_225:\n        /* \"#utility.yul\":19689:19692   */\n      0x00\n        /* \"#utility.yul\":19710:19777   */\n      tag_425\n        /* \"#utility.yul\":19774:19776   */\n      0x11\n        /* \"#utility.yul\":19769:19772   */\n      dup4\n        /* \"#utility.yul\":19710:19777   */\n      tag_188\n      jump\t// in\n    tag_425:\n        /* \"#utility.yul\":19703:19777   */\n      swap2\n      pop\n        /* \"#utility.yul\":19786:19879   */\n      tag_426\n        /* \"#utility.yul\":19875:19878   */\n      dup3\n        /* \"#utility.yul\":19786:19879   */\n      tag_224\n      jump\t// in\n    tag_426:\n        /* \"#utility.yul\":19904:19906   */\n      0x20\n        /* \"#utility.yul\":19899:19902   */\n      dup3\n        /* \"#utility.yul\":19895:19907   */\n      add\n        /* \"#utility.yul\":19888:19907   */\n      swap1\n      pop\n        /* \"#utility.yul\":19547:19913   */\n      swap2\n      swap1\n      pop\n      jump\t// out\n        /* \"#utility.yul\":19919:20338   */\n    tag_113:\n        /* \"#utility.yul\":20085:20089   */\n      0x00\n        /* \"#utility.yul\":20123:20125   */\n      0x20\n        /* \"#utility.yul\":20112:20121   */\n      dup3\n        /* \"#utility.yul\":20108:20126   */\n      add\n        /* \"#utility.yul\":20100:20126   */\n      swap1\n      pop\n        /* \"#utility.yul\":20172:20181   */\n      dup2\n        /* \"#utility.yul\":20166:20170   */\n      dup2\n        /* \"#utility.yul\":20162:20182   */\n      sub\n        /* \"#utility.yul\":20158:20159   */\n      0x00\n        /* \"#utility.yul\":20147:20156   */\n      dup4\n        /* \"#utility.yul\":20143:20160   */\n      add\n        /* \"#utility.yul\":20136:20183   */\n      mstore\n        /* \"#utility.yul\":20200:20331   */\n      tag_428\n        /* \"#utility.yul\":20326:20330   */\n      dup2\n        /* \"#utility.yul\":20200:20331   */\n      tag_225\n      jump\t// in\n    tag_428:\n        /* \"#utility.yul\":20192:20331   */\n      swap1\n      pop\n        /* \"#utility.yul\":19919:20338   */\n      swap2\n      swap1\n      pop\n      jump\t// out\n        /* \"#utility.yul\":20344:20485   */\n    tag_226:\n        /* \"#utility.yul\":20393:20397   */\n      0x00\n        /* \"#utility.yul\":20416:20419   */\n      dup2\n        /* \"#utility.yul\":20408:20419   */\n      swap1\n      pop\n        /* \"#utility.yul\":20439:20442   */\n      dup2\n        /* \"#utility.yul\":20436:20437   */\n      0x00\n        /* \"#utility.yul\":20429:20443   */\n      mstore\n        /* \"#utility.yul\":20473:20477   */\n      0x20\n        /* \"#utility.yul\":20470:20471   */\n      0x00\n        /* \"#utility.yul\":20460:20478   */\n      keccak256\n        /* \"#utility.yul\":20452:20478   */\n      swap1\n      pop\n        /* \"#utility.yul\":20344:20485   */\n      swap2\n      swap1\n      pop\n      jump\t// out\n        /* \"#utility.yul\":20491:20584   */\n    tag_227:\n        /* \"#utility.yul\":20528:20534   */\n      0x00\n        /* \"#utility.yul\":20575:20577   */\n      0x20\n        /* \"#utility.yul\":20570:20572   */\n      0x1f\n        /* \"#utility.yul\":20563:20568   */\n      dup4\n        /* \"#utility.yul\":20559:20573   */\n      add\n        /* \"#utility.yul\":20555:20578   */\n      div\n        /* \"#utility.yul\":20545:20578   */\n      swap1\n      pop\n        /* \"#utility.yul\":20491:20584   */\n      swap2\n      swap1\n      pop\n      jump\t// out\n        /* \"#utility.yul\":20590:20697   */\n    tag_228:\n        /* \"#utility.yul\":20634:20642   */\n      0x00\n        /* \"#utility.yul\":20684:20689   */\n      dup3\n        /* \"#utility.yul\":20678:20682   */\n      dup3\n        /* \"#utility.yul\":20674:20690   */\n      shl\n        /* \"#utility.yul\":20653:20690   */\n      swap1\n      pop\n        /* \"#utility.yul\":20590:20697   */\n      swap3\n      swap2\n      pop\n      pop\n      jump\t// out\n        /* \"#utility.yul\":20703:21096   */\n    tag_229:\n        /* \"#utility.yul\":20772:20778   */\n      0x00\n        /* \"#utility.yul\":20822:20823   */\n      0x08\n        /* \"#utility.yul\":20810:20820   */\n      dup4\n        /* \"#utility.yul\":20806:20824   */\n      mul\n        /* \"#utility.yul\":20845:20942   */\n      tag_433\n        /* \"#utility.yul\":20875:20941   */\n      0xffffffffffffffffffffffffffffffffffffffffffffffffffffffffffffffff\n        /* \"#utility.yul\":20864:20873   */\n      dup3\n        /* \"#utility.yul\":20845:20942   */\n      tag_228\n      jump\t// in\n    tag_433:\n        /* \"#utility.yul\":20963:21002   */\n      tag_434\n        /* \"#utility.yul\":20993:21001   */\n      dup7\n        /* \"#utility.yul\":20982:20991   */\n      dup4\n        /* \"#utility.yul\":20963:21002   */\n      tag_228\n      jump\t// in\n    tag_434:\n        /* \"#utility.yul\":20951:21002   */\n      swap6\n      pop\n        /* \"#utility.yul\":21035:21039   */\n      dup1\n        /* \"#utility.yul\":21031:21040   */\n      not\n        /* \"#utility.yul\":21024:21029   */\n      dup5\n        /* \"#utility.yul\":21020:21041   */\n      and\n        /* \"#utility.yul\":21011:21041   */\n      swap4\n      pop\n        /* \"#utility.yul\":21084:21088   */\n      dup1\n        /* \"#utility.yul\":21074:21082   */\n      dup7\n        /* \"#utility.yul\":21070:21089   */\n      and\n        /* \"#utility.yul\":21063:21068   */\n      dup5\n        /* \"#utility.yul\":21060:21090   */\n      or\n        /* \"#utility.yul\":21050:21090   */\n      swap3\n      pop\n        /* \"#utility.yul\":20779:21096   */\n      pop\n      pop\n        /* \"#utility.yul\":20703:21096   */\n      swap4\n      swap3\n      pop\n      pop\n      pop\n      jump\t// out\n        /* \"#utility.yul\":21102:21162   */\n    tag_230:\n        /* \"#utility.yul\":21130:21133   */\n      0x00\n        /* \"#utility.yul\":21151:21156   */\n      dup2\n        /* \"#utility.yul\":21144:21156   */\n      swap1\n      pop\n        /* \"#utility.yul\":21102:21162   */\n      swap2\n      swap1\n      pop\n      jump\t// out\n        /* \"#utility.yul\":21168:21310   */\n    tag_231:\n        /* \"#utility.yul\":21218:21227   */\n      0x00\n        /* \"#utility.yul\":21251:21304   */\n      tag_437\n        /* \"#utility.yul\":21269:21303   */\n      tag_438\n        /* \"#utility.yul\":21278:21302   */\n      tag_439\n        /* \"#utility.yul\":21296:21301   */\n      dup5\n        /* \"#utility.yul\":21278:21302   */\n      tag_182\n      jump\t// in\n    tag_439:\n        /* \"#utility.yul\":21269:21303   */\n      tag_230\n      jump\t// in\n    tag_438:\n        /* \"#utility.yul\":21251:21304   */\n      tag_182\n      jump\t// in\n    tag_437:\n        /* \"#utility.yul\":21238:21304   */\n      swap1\n      pop\n        /* \"#utility.yul\":21168:21310   */\n      swap2\n      swap1\n      pop\n      jump\t// out\n        /* \"#utility.yul\":21316:21391   */\n    tag_232:\n        /* \"#utility.yul\":21359:21362   */\n      0x00\n        /* \"#utility.yul\":21380:21385   */\n      dup2\n        /* \"#utility.yul\":21373:21385   */\n      swap1\n      pop\n        /* \"#utility.yul\":21316:21391   */\n      swap2\n      swap1\n      pop\n      jump\t// out\n        /* \"#utility.yul\":21397:21666   */\n    tag_233:\n        /* \"#utility.yul\":21507:21546   */\n      tag_442\n        /* \"#utility.yul\":21538:21545   */\n      dup4\n        /* \"#utility.yul\":21507:21546   */\n      tag_231\n      jump\t// in\n    tag_442:\n        /* \"#utility.yul\":21568:21659   */\n      tag_443\n        /* \"#utility.yul\":21617:21658   */\n      tag_444\n        /* \"#utility.yul\":21641:21657   */\n      dup3\n        /* \"#utility.yul\":21617:21658   */\n      tag_232\n      jump\t// in\n    tag_444:\n        /* \"#utility.yul\":21609:21615   */\n      dup5\n        /* \"#utility.yul\":21602:21606   */\n      dup5\n        /* \"#utility.yul\":21596:21607   */\n      sload\n        /* \"#utility.yul\":21568:21659   */\n      tag_229\n      jump\t// in\n    tag_443:\n        /* \"#utility.yul\":21562:21566   */\n      dup3\n        /* \"#utility.yul\":21555:21660   */\n      sstore\n        /* \"#utility.yul\":21473:21666   */\n      pop\n        /* \"#utility.yul\":21397:21666   */\n      pop\n      pop\n      pop\n      jump\t// out\n        /* \"#utility.yul\":21672:21745   */\n    tag_234:\n        /* \"#utility.yul\":21717:21720   */\n      0x00\n        /* \"#utility.yul\":21672:21745   */\n      swap1\n      jump\t// out\n        /* \"#utility.yul\":21751:21940   */\n    tag_235:\n        /* \"#utility.yul\":21828:21860   */\n      tag_447\n      tag_234\n      jump\t// in\n    tag_447:\n        /* \"#utility.yul\":21869:21934   */\n      tag_448\n        /* \"#utility.yul\":21927:21933   */\n      dup2\n        /* \"#utility.yul\":21919:21925   */\n      dup5\n        /* \"#utility.yul\":21913:21917   */\n      dup5\n        /* \"#utility.yul\":21869:21934   */\n      tag_233\n      jump\t// in\n    tag_448:\n        /* \"#utility.yul\":21804:21940   */\n      pop\n        /* \"#utility.yul\":21751:21940   */\n      pop\n      pop\n      jump\t// out\n        /* \"#utility.yul\":21946:22132   */\n    tag_236:\n        /* \"#utility.yul\":22006:22126   */\n    tag_450:\n        /* \"#utility.yul\":22023:22026   */\n      dup2\n        /* \"#utility.yul\":22016:22021   */\n      dup2\n        /* \"#utility.yul\":22013:22027   */\n      lt\n        /* \"#utility.yul\":22006:22126   */\n      iszero\n      tag_452\n      jumpi\n        /* \"#utility.yul\":22077:22116   */\n      tag_453\n        /* \"#utility.yul\":22114:22115   */\n      0x00\n        /* \"#utility.yul\":22107:22112   */\n      dup3\n        /* \"#utility.yul\":22077:22116   */\n      tag_235\n      jump\t// in\n    tag_453:\n        /* \"#utility.yul\":22050:22051   */\n      0x01\n        /* \"#utility.yul\":22043:22048   */\n      dup2\n        /* \"#utility.yul\":22039:22052   */\n      add\n        /* \"#utility.yul\":22030:22052   */\n      swap1\n      pop\n        /* \"#utility.yul\":22006:22126   */\n      jump(tag_450)\n    tag_452:\n        /* \"#utility.yul\":21946:22132   */\n      pop\n      pop\n      jump\t// out\n        /* \"#utility.yul\":22138:22681   */\n    tag_237:\n        /* \"#utility.yul\":22239:22241   */\n      0x1f\n        /* \"#utility.yul\":22234:22237   */\n      dup3\n        /* \"#utility.yul\":22231:22242   */\n      gt\n        /* \"#utility.yul\":22228:22674   */\n      iszero\n      tag_455\n      jumpi\n        /* \"#utility.yul\":22273:22311   */\n      tag_456\n        /* \"#utility.yul\":22305:22310   */\n      dup2\n        /* \"#utility.yul\":22273:22311   */\n      tag_226\n      jump\t// in\n    tag_456:\n        /* \"#utility.yul\":22357:22386   */\n      tag_457\n        /* \"#utility.yul\":22375:22385   */\n      dup5\n        /* \"#utility.yul\":22357:22386   */\n      tag_227\n      jump\t// in\n    tag_457:\n        /* \"#utility.yul\":22347:22355   */\n      dup2\n        /* \"#utility.yul\":22343:22387   */\n      add\n        /* \"#utility.yul\":22540:22542   */\n      0x20\n        /* \"#utility.yul\":22528:22538   */\n      dup6\n        /* \"#utility.yul\":22525:22543   */\n      lt\n        /* \"#utility.yul\":22522:22571   */\n      iszero\n      tag_458\n      jumpi\n        /* \"#utility.yul\":22561:22569   */\n      dup2\n        /* \"#utility.yul\":22546:22569   */\n      swap1\n      pop\n        /* \"#utility.yul\":22522:22571   */\n    tag_458:\n        /* \"#utility.yul\":22584:22664   */\n      tag_459\n        /* \"#utility.yul\":22640:22662   */\n      tag_460\n        /* \"#utility.yul\":22658:22661   */\n      dup6\n        /* \"#utility.yul\":22640:22662   */\n      tag_227\n      jump\t// in\n    tag_460:\n        /* \"#utility.yul\":22630:22638   */\n      dup4\n        /* \"#utility.yul\":22626:22663   */\n      add\n        /* \"#utility.yul\":22613:22624   */\n      dup3\n        /* \"#utility.yul\":22584:22664   */\n      tag_236\n      jump\t// in\n    tag_459:\n        /* \"#utility.yul\":22243:22674   */\n      pop\n      pop\n        /* \"#utility.yul\":22228:22674   */\n    tag_455:\n        /* \"#utility.yul\":22138:22681   */\n      pop\n      pop\n      pop\n      jump\t// out\n        /* \"#utility.yul\":22687:22804   */\n    tag_238:\n        /* \"#utility.yul\":22741:22749   */\n      0x00\n        /* \"#utility.yul\":22791:22796   */\n      dup3\n        /* \"#utility.yul\":22785:22789   */\n      dup3\n        /* \"#utility.yul\":22781:22797   */\n      shr\n        /* \"#utility.yul\":22760:22797   */\n      swap1\n      pop\n        /* \"#utility.yul\":22687:22804   */\n      swap3\n      swap2\n      pop\n      pop\n      jump\t// out\n        /* \"#utility.yul\":22810:22979   */\n    tag_239:\n        /* \"#utility.yul\":22854:22860   */\n      0x00\n        /* \"#utility.yul\":22887:22938   */\n      tag_463\n        /* \"#utility.yul\":22935:22936   */\n      0x00\n        /* \"#utility.yul\":22931:22937   */\n      not\n        /* \"#utility.yul\":22923:22928   */\n      dup5\n        /* \"#utility.yul\":22920:22921   */\n      0x08\n        /* \"#utility.yul\":22916:22929   */\n      mul\n        /* \"#utility.yul\":22887:22938   */\n      tag_238\n      jump\t// in\n    tag_463:\n        /* \"#utility.yul\":22883:22939   */\n      not\n        /* \"#utility.yul\":22968:22972   */\n      dup1\n        /* \"#utility.yul\":22962:22966   */\n      dup4\n        /* \"#utility.yul\":22958:22973   */\n      and\n        /* \"#utility.yul\":22948:22973   */\n      swap2\n      pop\n        /* \"#utility.yul\":22861:22979   */\n      pop\n        /* \"#utility.yul\":22810:22979   */\n      swap3\n      swap2\n      pop\n      pop\n      jump\t// out\n        /* \"#utility.yul\":22984:23279   */\n    tag_240:\n        /* \"#utility.yul\":23060:23064   */\n      0x00\n        /* \"#utility.yul\":23206:23235   */\n      tag_465\n        /* \"#utility.yul\":23231:23234   */\n      dup4\n        /* \"#utility.yul\":23225:23229   */\n      dup4\n        /* \"#utility.yul\":23206:23235   */\n      tag_239\n      jump\t// in\n    tag_465:\n        /* \"#utility.yul\":23198:23235   */\n      swap2\n      pop\n        /* \"#utility.yul\":23268:23271   */\n      dup3\n        /* \"#utility.yul\":23265:23266   */\n      0x02\n        /* \"#utility.yul\":23261:23272   */\n      mul\n        /* \"#utility.yul\":23255:23259   */\n      dup3\n        /* \"#utility.yul\":23252:23273   */\n      or\n        /* \"#utility.yul\":23244:23273   */\n      swap1\n      pop\n        /* \"#utility.yul\":22984:23279   */\n      swap3\n      swap2\n      pop\n      pop\n      jump\t// out\n        /* \"#utility.yul\":23284:24679   */\n    tag_116:\n        /* \"#utility.yul\":23401:23438   */\n      tag_467\n        /* \"#utility.yul\":23434:23437   */\n      dup3\n        /* \"#utility.yul\":23401:23438   */\n      tag_187\n      jump\t// in\n    tag_467:\n        /* \"#utility.yul\":23503:23521   */\n      0xffffffffffffffff\n        /* \"#utility.yul\":23495:23501   */\n      dup2\n        /* \"#utility.yul\":23492:23522   */\n      gt\n        /* \"#utility.yul\":23489:23545   */\n      iszero\n      tag_468\n      jumpi\n        /* \"#utility.yul\":23525:23543   */\n      tag_469\n      tag_205\n      jump\t// in\n    tag_469:\n        /* \"#utility.yul\":23489:23545   */\n    tag_468:\n        /* \"#utility.yul\":23569:23607   */\n      tag_470\n        /* \"#utility.yul\":23601:23605   */\n      dup3\n        /* \"#utility.yul\":23595:23606   */\n      sload\n        /* \"#utility.yul\":23569:23607   */\n      tag_56\n      jump\t// in\n    tag_470:\n        /* \"#utility.yul\":23654:23721   */\n      tag_471\n        /* \"#utility.yul\":23714:23720   */\n      dup3\n        /* \"#utility.yul\":23706:23712   */\n      dup3\n        /* \"#utility.yul\":23700:23704   */\n      dup6\n        /* \"#utility.yul\":23654:23721   */\n      tag_237\n      jump\t// in\n    tag_471:\n        /* \"#utility.yul\":23748:23749   */\n      0x00\n        /* \"#utility.yul\":23772:23776   */\n      0x20\n        /* \"#utility.yul\":23759:23776   */\n      swap1\n      pop\n        /* \"#utility.yul\":23804:23806   */\n      0x1f\n        /* \"#utility.yul\":23796:23802   */\n      dup4\n        /* \"#utility.yul\":23793:23807   */\n      gt\n        /* \"#utility.yul\":23821:23822   */\n      0x01\n        /* \"#utility.yul\":23816:24434   */\n      dup2\n      eq\n      tag_473\n      jumpi\n        /* \"#utility.yul\":24478:24479   */\n      0x00\n        /* \"#utility.yul\":24495:24501   */\n      dup5\n        /* \"#utility.yul\":24492:24569   */\n      iszero\n      tag_474\n      jumpi\n        /* \"#utility.yul\":24544:24553   */\n      dup3\n        /* \"#utility.yul\":24539:24542   */\n      dup8\n        /* \"#utility.yul\":24535:24554   */\n      add\n        /* \"#utility.yul\":24529:24555   */\n      mload\n        /* \"#utility.yul\":24520:24555   */\n      swap1\n      pop\n        /* \"#utility.yul\":24492:24569   */\n    tag_474:\n        /* \"#utility.yul\":24595:24662   */\n      tag_475\n        /* \"#utility.yul\":24655:24661   */\n      dup6\n        /* \"#utility.yul\":24648:24653   */\n      dup3\n        /* \"#utility.yul\":24595:24662   */\n      tag_240\n      jump\t// in\n    tag_475:\n        /* \"#utility.yul\":24589:24593   */\n      dup7\n        /* \"#utility.yul\":24582:24663   */\n      sstore\n        /* \"#utility.yul\":24451:24673   */\n      pop\n        /* \"#utility.yul\":23786:24673   */\n      jump(tag_472)\n        /* \"#utility.yul\":23816:24434   */\n    tag_473:\n        /* \"#utility.yul\":23868:23872   */\n      0x1f\n        /* \"#utility.yul\":23864:23873   */\n      not\n        /* \"#utility.yul\":23856:23862   */\n      dup5\n        /* \"#utility.yul\":23852:23874   */\n      and\n        /* \"#utility.yul\":23902:23939   */\n      tag_476\n        /* \"#utility.yul\":23934:23938   */\n      dup7\n        /* \"#utility.yul\":23902:23939   */\n      tag_226\n      jump\t// in\n    tag_476:\n        /* \"#utility.yul\":23961:23962   */\n      0x00\n        /* \"#utility.yul\":23975:24183   */\n    tag_477:\n        /* \"#utility.yul\":23989:23996   */\n      dup3\n        /* \"#utility.yul\":23986:23987   */\n      dup2\n        /* \"#utility.yul\":23983:23997   */\n      lt\n        /* \"#utility.yul\":23975:24183   */\n      iszero\n      tag_479\n      jumpi\n        /* \"#utility.yul\":24068:24077   */\n      dup5\n        /* \"#utility.yul\":24063:24066   */\n      dup10\n        /* \"#utility.yul\":24059:24078   */\n      add\n        /* \"#utility.yul\":24053:24079   */\n      mload\n        /* \"#utility.yul\":24045:24051   */\n      dup3\n        /* \"#utility.yul\":24038:24080   */\n      sstore\n        /* \"#utility.yul\":24119:24120   */\n      0x01\n        /* \"#utility.yul\":24111:24117   */\n      dup3\n        /* \"#utility.yul\":24107:24121   */\n      add\n        /* \"#utility.yul\":24097:24121   */\n      swap2\n      pop\n        /* \"#utility.yul\":24166:24168   */\n      0x20\n        /* \"#utility.yul\":24155:24164   */\n      dup6\n        /* \"#utility.yul\":24151:24169   */\n      add\n        /* \"#utility.yul\":24138:24169   */\n      swap5\n      pop\n        /* \"#utility.yul\":24012:24016   */\n      0x20\n        /* \"#utility.yul\":24009:24010   */\n      dup2\n        /* \"#utility.yul\":24005:24017   */\n      add\n        /* \"#utility.yul\":24000:24017   */\n      swap1\n      pop\n        /* \"#utility.yul\":23975:24183   */\n      jump(tag_477)\n    tag_479:\n        /* \"#utility.yul\":24211:24217   */\n      dup7\n        /* \"#utility.yul\":24202:24209   */\n      dup4\n        /* \"#utility.yul\":24199:24218   */\n      lt\n        /* \"#utility.yul\":24196:24375   */\n      iszero\n      tag_480\n      jumpi\n        /* \"#utility.yul\":24269:24278   */\n      dup5\n        /* \"#utility.yul\":24264:24267   */\n      dup10\n        /* \"#utility.yul\":24260:24279   */\n      add\n        /* \"#utility.yul\":24254:24280   */\n      mload\n        /* \"#utility.yul\":24312:24360   */\n      tag_481\n        /* \"#utility.yul\":24354:24358   */\n      0x1f\n        /* \"#utility.yul\":24346:24352   */\n      dup10\n        /* \"#utility.yul\":24342:24359   */\n      and\n        /* \"#utility.yul\":24331:24340   */\n      dup3\n        /* \"#utility.yul\":24312:24360   */\n      tag_239\n      jump\t// in\n    tag_481:\n        /* \"#utility.yul\":24304:24310   */\n      dup4\n        /* \"#utility.yul\":24297:24361   */\n      sstore\n        /* \"#utility.yul\":24219:24375   */\n      pop\n        /* \"#utility.yul\":24196:24375   */\n    tag_480:\n        /* \"#utility.yul\":24421:24422   */\n      0x01\n        /* \"#utility.yul\":24417:24418   */\n      0x02\n        /* \"#utility.yul\":24409:24415   */\n      dup9\n        /* \"#utility.yul\":24405:24419   */\n      mul\n        /* \"#utility.yul\":24401:24423   */\n      add\n        /* \"#utility.yul\":24395:24399   */\n      dup9\n        /* \"#utility.yul\":24388:24424   */\n      sstore\n        /* \"#utility.yul\":23823:24434   */\n      pop\n      pop\n      pop\n        /* \"#utility.yul\":23786:24673   */\n    tag_472:\n      pop\n        /* \"#utility.yul\":23376:24679   */\n      pop\n      pop\n      pop\n        /* \"#utility.yul\":23284:24679   */\n      pop\n      pop\n      jump\t// out\n        /* \"#utility.yul\":24685:24853   */\n    tag_241:\n        /* \"#utility.yul\":24825:24845   */\n      0x547765657420686173206e6f206c696b65730000000000000000000000000000\n        /* \"#utility.yul\":24821:24822   */\n      0x00\n        /* \"#utility.yul\":24813:24819   */\n      dup3\n        /* \"#utility.yul\":24809:24823   */\n      add\n        /* \"#utility.yul\":24802:24846   */\n      mstore\n        /* \"#utility.yul\":24685:24853   */\n      pop\n      jump\t// out\n        /* \"#utility.yul\":24859:25225   */\n    tag_242:\n        /* \"#utility.yul\":25001:25004   */\n      0x00\n        /* \"#utility.yul\":25022:25089   */\n      tag_484\n        /* \"#utility.yul\":25086:25088   */\n      0x12\n        /* \"#utility.yul\":25081:25084   */\n      dup4\n        /* \"#utility.yul\":25022:25089   */\n      tag_188\n      jump\t// in\n    tag_484:\n        /* \"#utility.yul\":25015:25089   */\n      swap2\n      pop\n        /* \"#utility.yul\":25098:25191   */\n      tag_485\n        /* \"#utility.yul\":25187:25190   */\n      dup3\n        /* \"#utility.yul\":25098:25191   */\n      tag_241\n      jump\t// in\n    tag_485:\n        /* \"#utility.yul\":25216:25218   */\n      0x20\n        /* \"#utility.yul\":25211:25214   */\n      dup3\n        /* \"#utility.yul\":25207:25219   */\n      add\n        /* \"#utility.yul\":25200:25219   */\n      swap1\n      pop\n        /* \"#utility.yul\":24859:25225   */\n      swap2\n      swap1\n      pop\n      jump\t// out\n        /* \"#utility.yul\":25231:25650   */\n    tag_139:\n        /* \"#utility.yul\":25397:25401   */\n      0x00\n        /* \"#utility.yul\":25435:25437   */\n      0x20\n        /* \"#utility.yul\":25424:25433   */\n      dup3\n        /* \"#utility.yul\":25420:25438   */\n      add\n        /* \"#utility.yul\":25412:25438   */\n      swap1\n      pop\n        /* \"#utility.yul\":25484:25493   */\n      dup2\n        /* \"#utility.yul\":25478:25482   */\n      dup2\n        /* \"#utility.yul\":25474:25494   */\n      sub\n        /* \"#utility.yul\":25470:25471   */\n      0x00\n        /* \"#utility.yul\":25459:25468   */\n      dup4\n        /* \"#utility.yul\":25455:25472   */\n      add\n        /* \"#utility.yul\":25448:25495   */\n      mstore\n        /* \"#utility.yul\":25512:25643   */\n      tag_487\n        /* \"#utility.yul\":25638:25642   */\n      dup2\n        /* \"#utility.yul\":25512:25643   */\n      tag_242\n      jump\t// in\n    tag_487:\n        /* \"#utility.yul\":25504:25643   */\n      swap1\n      pop\n        /* \"#utility.yul\":25231:25650   */\n      swap2\n      swap1\n      pop\n      jump\t// out\n        /* \"#utility.yul\":25656:25827   */\n    tag_144:\n        /* \"#utility.yul\":25695:25698   */\n      0x00\n        /* \"#utility.yul\":25718:25742   */\n      tag_489\n        /* \"#utility.yul\":25736:25741   */\n      dup3\n        /* \"#utility.yul\":25718:25742   */\n      tag_182\n      jump\t// in\n    tag_489:\n        /* \"#utility.yul\":25709:25742   */\n      swap2\n      pop\n        /* \"#utility.yul\":25764:25768   */\n      0x00\n        /* \"#utility.yul\":25757:25762   */\n      dup3\n        /* \"#utility.yul\":25754:25769   */\n      sub\n        /* \"#utility.yul\":25751:25792   */\n      tag_490\n      jumpi\n        /* \"#utility.yul\":25772:25790   */\n      tag_491\n      tag_223\n      jump\t// in\n    tag_491:\n        /* \"#utility.yul\":25751:25792   */\n    tag_490:\n        /* \"#utility.yul\":25819:25820   */\n      0x01\n        /* \"#utility.yul\":25812:25817   */\n      dup3\n        /* \"#utility.yul\":25808:25821   */\n      sub\n        /* \"#utility.yul\":25801:25821   */\n      swap1\n      pop\n        /* \"#utility.yul\":25656:25827   */\n      swap2\n      swap1\n      pop\n      jump\t// out\n\n    auxdata: 0xa26469706673582212205dd8e8ed64cfaca37e0909ecc0db93b9a9a7217bb5b8411bd46924b9a707af0264736f6c634300081a0033\n}\n",
				"bytecode": {
					"linkReferences": {},
					"object": "608060405234801561000f575f80fd5b50604051611fdb380380611fdb83398181016040528101906100319190610220565b335f73ffffffffffffffffffffffffffffffffffffffff168173ffffffffffffffffffffffffffffffffffffffff16036100a2575f6040517f1e4fbdf7000000000000000000000000000000000000000000000000000000008152600401610099919061025a565b60405180910390fd5b6100b18161010160201b60201c565b506101186001819055508060035f6101000a81548173ffffffffffffffffffffffffffffffffffffffff021916908373ffffffffffffffffffffffffffffffffffffffff16021790555050610273565b5f805f9054906101000a900473ffffffffffffffffffffffffffffffffffffffff169050815f806101000a81548173ffffffffffffffffffffffffffffffffffffffff021916908373ffffffffffffffffffffffffffffffffffffffff1602179055508173ffffffffffffffffffffffffffffffffffffffff168173ffffffffffffffffffffffffffffffffffffffff167f8be0079c531659141344cd1fd0a4f28419497f9722a3daafe3b4186f6b6457e060405160405180910390a35050565b5f80fd5b5f73ffffffffffffffffffffffffffffffffffffffff82169050919050565b5f6101ef826101c6565b9050919050565b6101ff816101e5565b8114610209575f80fd5b50565b5f8151905061021a816101f6565b92915050565b5f60208284031215610235576102346101c2565b5b5f6102428482850161020c565b91505092915050565b610254816101e5565b82525050565b5f60208201905061026d5f83018461024b565b92915050565b611d5b806102805f395ff3fe608060405234801561000f575f80fd5b506004361061009c575f3560e01c8063888a788011610064578063888a7880146101345780638da5cb5b146101505780639ef8633f1461016e578063c3ad5ecb1461018a578063f2fde38b146101ba5761009c565b806305a1b4a9146100a057806363378216146100d4578063675e0fb7146100f0578063715018a61461010e5780637c9cd2bc14610118575b5f80fd5b6100ba60048036038101906100b59190611122565b6101d6565b6040516100cb9594939291906111ee565b60405180910390f35b6100ee60048036038101906100e99190611122565b6102c7565b005b6100f8610559565b60405161010591906113da565b60405180910390f35b6101166106f2565b005b610132600480360381019061012d9190611526565b610705565b005b61014e6004803603810190610149919061156d565b61098e565b005b6101586109a0565b6040516101659190611598565b60405180910390f35b61018860048036038101906101839190611122565b6109c7565b005b6101a4600480360381019061019f919061156d565b610cf9565b6040516101b19190611624565b60405180910390f35b6101d460048036038101906101cf9190611644565b610e70565b005b6002602052815f5260405f2081815481106101ef575f80fd5b905f5260205f2090600502015f9150915050805f015490806001015f9054906101000a900473ffffffffffffffffffffffffffffffffffffffff169080600201805461023a9061169c565b80601f01602080910402602001604051908101604052809291908181526020018280546102669061169c565b80156102b15780601f10610288576101008083540402835291602001916102b1565b820191905f5260205f20905b81548152906001019060200180831161029457829003601f168201915b5050505050908060030154908060040154905085565b5f60035f9054906101000a900473ffffffffffffffffffffffffffffffffffffffff1673ffffffffffffffffffffffffffffffffffffffff16630f53a470336040518263ffffffff1660e01b81526004016103229190611598565b5f60405180830381865afa15801561033c573d5f803e3d5ffd5b505050506040513d5f823e3d601f19601f8201168201806040525081019061036491906117c7565b5f015151116103a8576040517f08c379a000000000000000000000000000000000000000000000000000000000815260040161039f90611858565b60405180910390fd5b8060025f8473ffffffffffffffffffffffffffffffffffffffff1673ffffffffffffffffffffffffffffffffffffffff1681526020019081526020015f2082815481106103f8576103f7611876565b5b905f5260205f2090600502015f015414610447576040517f08c379a000000000000000000000000000000000000000000000000000000000815260040161043e906118ed565b60405180910390fd5b60025f8373ffffffffffffffffffffffffffffffffffffffff1673ffffffffffffffffffffffffffffffffffffffff1681526020019081526020015f20818154811061049657610495611876565b5b905f5260205f2090600502016004015f8154809291906104b590611938565b91905055507f5bd959f96efc2338d934ab72127be36035ff98de2f1584d2951239db17662d2133828460025f8773ffffffffffffffffffffffffffffffffffffffff1673ffffffffffffffffffffffffffffffffffffffff1681526020019081526020015f20858154811061052d5761052c611876565b5b905f5260205f2090600502016004015460405161054d949392919061197f565b60405180910390a15050565b606060025f3373ffffffffffffffffffffffffffffffffffffffff1673ffffffffffffffffffffffffffffffffffffffff1681526020019081526020015f20805480602002602001604051908101604052809291908181526020015f905b828210156106e9578382905f5260205f2090600502016040518060a00160405290815f8201548152602001600182015f9054906101000a900473ffffffffffffffffffffffffffffffffffffffff1673ffffffffffffffffffffffffffffffffffffffff1673ffffffffffffffffffffffffffffffffffffffff1681526020016002820180546106469061169c565b80601f01602080910402602001604051908101604052809291908181526020018280546106729061169c565b80156106bd5780601f10610694576101008083540402835291602001916106bd565b820191905f5260205f20905b8154815290600101906020018083116106a057829003601f168201915b5050505050815260200160038201548152602001600482015481525050815260200190600101906105b7565b50505050905090565b6106fa610ef4565b6107035f610f7b565b565b5f60035f9054906101000a900473ffffffffffffffffffffffffffffffffffffffff1673ffffffffffffffffffffffffffffffffffffffff16630f53a470336040518263ffffffff1660e01b81526004016107609190611598565b5f60405180830381865afa15801561077a573d5f803e3d5ffd5b505050506040513d5f823e3d601f19601f820116820180604052508101906107a291906117c7565b5f015151116107e6576040517f08c379a00000000000000000000000000000000000000000000000000000000081526004016107dd90611858565b60405180910390fd5b6001548151111561082c576040517f08c379a000000000000000000000000000000000000000000000000000000000815260040161082390611a0c565b60405180910390fd5b5f6040518060a0016040528060025f3373ffffffffffffffffffffffffffffffffffffffff1673ffffffffffffffffffffffffffffffffffffffff1681526020019081526020015f208054905081526020013373ffffffffffffffffffffffffffffffffffffffff1681526020018381526020014281526020015f815250905060025f3373ffffffffffffffffffffffffffffffffffffffff1673ffffffffffffffffffffffffffffffffffffffff1681526020019081526020015f2081908060018154018082558091505060019003905f5260205f2090600502015f909190919091505f820151815f01556020820151816001015f6101000a81548173ffffffffffffffffffffffffffffffffffffffff021916908373ffffffffffffffffffffffffffffffffffffffff16021790555060408201518160020190816109739190611bc7565b50606082015181600301556080820151816004015550505050565b610996610ef4565b8060018190555050565b5f805f9054906101000a900473ffffffffffffffffffffffffffffffffffffffff16905090565b5f60035f9054906101000a900473ffffffffffffffffffffffffffffffffffffffff1673ffffffffffffffffffffffffffffffffffffffff16630f53a470336040518263ffffffff1660e01b8152600401610a229190611598565b5f60405180830381865afa158015610a3c573d5f803e3d5ffd5b505050506040513d5f823e3d601f19601f82011682018060405250810190610a6491906117c7565b5f01515111610aa8576040517f08c379a0000000000000000000000000000000000000000000000000000000008152600401610a9f90611858565b60405180910390fd5b8060025f8473ffffffffffffffffffffffffffffffffffffffff1673ffffffffffffffffffffffffffffffffffffffff1681526020019081526020015f208281548110610af857610af7611876565b5b905f5260205f2090600502015f015414610b47576040517f08c379a0000000000000000000000000000000000000000000000000000000008152600401610b3e906118ed565b60405180910390fd5b5f60025f8473ffffffffffffffffffffffffffffffffffffffff1673ffffffffffffffffffffffffffffffffffffffff1681526020019081526020015f208281548110610b9757610b96611876565b5b905f5260205f2090600502016004015411610be7576040517f08c379a0000000000000000000000000000000000000000000000000000000008152600401610bde90611ce0565b60405180910390fd5b60025f8373ffffffffffffffffffffffffffffffffffffffff1673ffffffffffffffffffffffffffffffffffffffff1681526020019081526020015f208181548110610c3657610c35611876565b5b905f5260205f2090600502016004015f815480929190610c5590611cfe565b91905055507f5bd959f96efc2338d934ab72127be36035ff98de2f1584d2951239db17662d2133828460025f8773ffffffffffffffffffffffffffffffffffffffff1673ffffffffffffffffffffffffffffffffffffffff1681526020019081526020015f208581548110610ccd57610ccc611876565b5b905f5260205f20906005020160040154604051610ced949392919061197f565b60405180910390a15050565b610d01611043565b60025f3373ffffffffffffffffffffffffffffffffffffffff1673ffffffffffffffffffffffffffffffffffffffff1681526020019081526020015f208281548110610d5057610d4f611876565b5b905f5260205f2090600502016040518060a00160405290815f8201548152602001600182015f9054906101000a900473ffffffffffffffffffffffffffffffffffffffff1673ffffffffffffffffffffffffffffffffffffffff1673ffffffffffffffffffffffffffffffffffffffff168152602001600282018054610dd59061169c565b80601f0160208091040260200160405190810160405280929190818152602001828054610e019061169c565b8015610e4c5780601f10610e2357610100808354040283529160200191610e4c565b820191905f5260205f20905b815481529060010190602001808311610e2f57829003601f168201915b50505050508152602001600382015481526020016004820154815250509050919050565b610e78610ef4565b5f73ffffffffffffffffffffffffffffffffffffffff168173ffffffffffffffffffffffffffffffffffffffff1603610ee8575f6040517f1e4fbdf7000000000000000000000000000000000000000000000000000000008152600401610edf9190611598565b60405180910390fd5b610ef181610f7b565b50565b610efc61103c565b73ffffffffffffffffffffffffffffffffffffffff16610f1a6109a0565b73ffffffffffffffffffffffffffffffffffffffff1614610f7957610f3d61103c565b6040517f118cdaa7000000000000000000000000000000000000000000000000000000008152600401610f709190611598565b60405180910390fd5b565b5f805f9054906101000a900473ffffffffffffffffffffffffffffffffffffffff169050815f806101000a81548173ffffffffffffffffffffffffffffffffffffffff021916908373ffffffffffffffffffffffffffffffffffffffff1602179055508173ffffffffffffffffffffffffffffffffffffffff168173ffffffffffffffffffffffffffffffffffffffff167f8be0079c531659141344cd1fd0a4f28419497f9722a3daafe3b4186f6b6457e060405160405180910390a35050565b5f33905090565b6040518060a001604052805f81526020015f73ffffffffffffffffffffffffffffffffffffffff168152602001606081526020015f81526020015f81525090565b5f604051905090565b5f80fd5b5f80fd5b5f73ffffffffffffffffffffffffffffffffffffffff82169050919050565b5f6110be82611095565b9050919050565b6110ce816110b4565b81146110d8575f80fd5b50565b5f813590506110e9816110c5565b92915050565b5f819050919050565b611101816110ef565b811461110b575f80fd5b50565b5f8135905061111c816110f8565b92915050565b5f80604083850312156111385761113761108d565b5b5f611145858286016110db565b92505060206111568582860161110e565b9150509250929050565b611169816110ef565b82525050565b611178816110b4565b82525050565b5f81519050919050565b5f82825260208201905092915050565b8281835e5f83830152505050565b5f601f19601f8301169050919050565b5f6111c08261117e565b6111ca8185611188565b93506111da818560208601611198565b6111e3816111a6565b840191505092915050565b5f60a0820190506112015f830188611160565b61120e602083018761116f565b818103604083015261122081866111b6565b905061122f6060830185611160565b61123c6080830184611160565b9695505050505050565b5f81519050919050565b5f82825260208201905092915050565b5f819050602082019050919050565b611278816110ef565b82525050565b611287816110b4565b82525050565b5f82825260208201905092915050565b5f6112a78261117e565b6112b1818561128d565b93506112c1818560208601611198565b6112ca816111a6565b840191505092915050565b5f60a083015f8301516112ea5f86018261126f565b5060208301516112fd602086018261127e565b5060408301518482036040860152611315828261129d565b915050606083015161132a606086018261126f565b50608083015161133d608086018261126f565b508091505092915050565b5f61135383836112d5565b905092915050565b5f602082019050919050565b5f61137182611246565b61137b8185611250565b93508360208202850161138d85611260565b805f5b858110156113c857848403895281516113a98582611348565b94506113b48361135b565b925060208a01995050600181019050611390565b50829750879550505050505092915050565b5f6020820190508181035f8301526113f28184611367565b905092915050565b5f80fd5b5f80fd5b7f4e487b71000000000000000000000000000000000000000000000000000000005f52604160045260245ffd5b611438826111a6565b810181811067ffffffffffffffff8211171561145757611456611402565b5b80604052505050565b5f611469611084565b9050611475828261142f565b919050565b5f67ffffffffffffffff82111561149457611493611402565b5b61149d826111a6565b9050602081019050919050565b828183375f83830152505050565b5f6114ca6114c58461147a565b611460565b9050828152602081018484840111156114e6576114e56113fe565b5b6114f18482856114aa565b509392505050565b5f82601f83011261150d5761150c6113fa565b5b813561151d8482602086016114b8565b91505092915050565b5f6020828403121561153b5761153a61108d565b5b5f82013567ffffffffffffffff81111561155857611557611091565b5b611564848285016114f9565b91505092915050565b5f602082840312156115825761158161108d565b5b5f61158f8482850161110e565b91505092915050565b5f6020820190506115ab5f83018461116f565b92915050565b5f60a083015f8301516115c65f86018261126f565b5060208301516115d9602086018261127e565b50604083015184820360408601526115f1828261129d565b9150506060830151611606606086018261126f565b506080830151611619608086018261126f565b508091505092915050565b5f6020820190508181035f83015261163c81846115b1565b905092915050565b5f602082840312156116595761165861108d565b5b5f611666848285016110db565b91505092915050565b7f4e487b71000000000000000000000000000000000000000000000000000000005f52602260045260245ffd5b5f60028204905060018216806116b357607f821691505b6020821081036116c6576116c561166f565b5b50919050565b5f80fd5b5f80fd5b5f6116e66116e18461147a565b611460565b905082815260208101848484011115611702576117016113fe565b5b61170d848285611198565b509392505050565b5f82601f830112611729576117286113fa565b5b81516117398482602086016116d4565b91505092915050565b5f60408284031215611757576117566116cc565b5b6117616040611460565b90505f82015167ffffffffffffffff8111156117805761177f6116d0565b5b61178c84828501611715565b5f83015250602082015167ffffffffffffffff8111156117af576117ae6116d0565b5b6117bb84828501611715565b60208301525092915050565b5f602082840312156117dc576117db61108d565b5b5f82015167ffffffffffffffff8111156117f9576117f8611091565b5b61180584828501611742565b91505092915050565b7f55534552204e4f542052454749535445524544000000000000000000000000005f82015250565b5f611842601383611188565b915061184d8261180e565b602082019050919050565b5f6020820190508181035f83015261186f81611836565b9050919050565b7f4e487b71000000000000000000000000000000000000000000000000000000005f52603260045260245ffd5b7f547765657420646f6573206e6f742065786973740000000000000000000000005f82015250565b5f6118d7601483611188565b91506118e2826118a3565b602082019050919050565b5f6020820190508181035f830152611904816118cb565b9050919050565b7f4e487b71000000000000000000000000000000000000000000000000000000005f52601160045260245ffd5b5f611942826110ef565b91507fffffffffffffffffffffffffffffffffffffffffffffffffffffffffffffffff82036119745761197361190b565b5b600182019050919050565b5f6080820190506119925f83018761116f565b61199f6020830186611160565b6119ac604083018561116f565b6119b96060830184611160565b95945050505050565b7f547765657420697320746f6f206c6f6e670000000000000000000000000000005f82015250565b5f6119f6601183611188565b9150611a01826119c2565b602082019050919050565b5f6020820190508181035f830152611a23816119ea565b9050919050565b5f819050815f5260205f209050919050565b5f6020601f8301049050919050565b5f82821b905092915050565b5f60088302611a867fffffffffffffffffffffffffffffffffffffffffffffffffffffffffffffffff82611a4b565b611a908683611a4b565b95508019841693508086168417925050509392505050565b5f819050919050565b5f611acb611ac6611ac1846110ef565b611aa8565b6110ef565b9050919050565b5f819050919050565b611ae483611ab1565b611af8611af082611ad2565b848454611a57565b825550505050565b5f90565b611b0c611b00565b611b17818484611adb565b505050565b5b81811015611b3a57611b2f5f82611b04565b600181019050611b1d565b5050565b601f821115611b7f57611b5081611a2a565b611b5984611a3c565b81016020851015611b68578190505b611b7c611b7485611a3c565b830182611b1c565b50505b505050565b5f82821c905092915050565b5f611b9f5f1984600802611b84565b1980831691505092915050565b5f611bb78383611b90565b9150826002028217905092915050565b611bd08261117e565b67ffffffffffffffff811115611be957611be8611402565b5b611bf3825461169c565b611bfe828285611b3e565b5f60209050601f831160018114611c2f575f8415611c1d578287015190505b611c278582611bac565b865550611c8e565b601f198416611c3d86611a2a565b5f5b82811015611c6457848901518255600182019150602085019450602081019050611c3f565b86831015611c815784890151611c7d601f891682611b90565b8355505b6001600288020188555050505b505050505050565b7f547765657420686173206e6f206c696b657300000000000000000000000000005f82015250565b5f611cca601283611188565b9150611cd582611c96565b602082019050919050565b5f6020820190508181035f830152611cf781611cbe565b9050919050565b5f611d08826110ef565b91505f8203611d1a57611d1961190b565b5b60018203905091905056fea26469706673582212205dd8e8ed64cfaca37e0909ecc0db93b9a9a7217bb5b8411bd46924b9a707af0264736f6c634300081a0033",
					"opcodes": "PUSH1 0x80 PUSH1 0x40 MSTORE CALLVALUE DUP1 ISZERO PUSH2 0xF JUMPI PUSH0 DUP1 REVERT JUMPDEST POP PUSH1 0x40 MLOAD PUSH2 0x1FDB CODESIZE SUB DUP1 PUSH2 0x1FDB DUP4 CODECOPY DUP2 DUP2 ADD PUSH1 0x40 MSTORE DUP2 ADD SWAP1 PUSH2 0x31 SWAP2 SWAP1 PUSH2 0x220 JUMP JUMPDEST CALLER PUSH0 PUSH20 0xFFFFFFFFFFFFFFFFFFFFFFFFFFFFFFFFFFFFFFFF AND DUP2 PUSH20 0xFFFFFFFFFFFFFFFFFFFFFFFFFFFFFFFFFFFFFFFF AND SUB PUSH2 0xA2 JUMPI PUSH0 PUSH1 0x40 MLOAD PUSH32 0x1E4FBDF700000000000000000000000000000000000000000000000000000000 DUP2 MSTORE PUSH1 0x4 ADD PUSH2 0x99 SWAP2 SWAP1 PUSH2 0x25A JUMP JUMPDEST PUSH1 0x40 MLOAD DUP1 SWAP2 SUB SWAP1 REVERT JUMPDEST PUSH2 0xB1 DUP2 PUSH2 0x101 PUSH1 0x20 SHL PUSH1 0x20 SHR JUMP JUMPDEST POP PUSH2 0x118 PUSH1 0x1 DUP2 SWAP1 SSTORE POP DUP1 PUSH1 0x3 PUSH0 PUSH2 0x100 EXP DUP2 SLOAD DUP2 PUSH20 0xFFFFFFFFFFFFFFFFFFFFFFFFFFFFFFFFFFFFFFFF MUL NOT AND SWAP1 DUP4 PUSH20 0xFFFFFFFFFFFFFFFFFFFFFFFFFFFFFFFFFFFFFFFF AND MUL OR SWAP1 SSTORE POP POP PUSH2 0x273 JUMP JUMPDEST PUSH0 DUP1 PUSH0 SWAP1 SLOAD SWAP1 PUSH2 0x100 EXP SWAP1 DIV PUSH20 0xFFFFFFFFFFFFFFFFFFFFFFFFFFFFFFFFFFFFFFFF AND SWAP1 POP DUP2 PUSH0 DUP1 PUSH2 0x100 EXP DUP2 SLOAD DUP2 PUSH20 0xFFFFFFFFFFFFFFFFFFFFFFFFFFFFFFFFFFFFFFFF MUL NOT AND SWAP1 DUP4 PUSH20 0xFFFFFFFFFFFFFFFFFFFFFFFFFFFFFFFFFFFFFFFF AND MUL OR SWAP1 SSTORE POP DUP2 PUSH20 0xFFFFFFFFFFFFFFFFFFFFFFFFFFFFFFFFFFFFFFFF AND DUP2 PUSH20 0xFFFFFFFFFFFFFFFFFFFFFFFFFFFFFFFFFFFFFFFF AND PUSH32 0x8BE0079C531659141344CD1FD0A4F28419497F9722A3DAAFE3B4186F6B6457E0 PUSH1 0x40 MLOAD PUSH1 0x40 MLOAD DUP1 SWAP2 SUB SWAP1 LOG3 POP POP JUMP JUMPDEST PUSH0 DUP1 REVERT JUMPDEST PUSH0 PUSH20 0xFFFFFFFFFFFFFFFFFFFFFFFFFFFFFFFFFFFFFFFF DUP3 AND SWAP1 POP SWAP2 SWAP1 POP JUMP JUMPDEST PUSH0 PUSH2 0x1EF DUP3 PUSH2 0x1C6 JUMP JUMPDEST SWAP1 POP SWAP2 SWAP1 POP JUMP JUMPDEST PUSH2 0x1FF DUP2 PUSH2 0x1E5 JUMP JUMPDEST DUP2 EQ PUSH2 0x209 JUMPI PUSH0 DUP1 REVERT JUMPDEST POP JUMP JUMPDEST PUSH0 DUP2 MLOAD SWAP1 POP PUSH2 0x21A DUP2 PUSH2 0x1F6 JUMP JUMPDEST SWAP3 SWAP2 POP POP JUMP JUMPDEST PUSH0 PUSH1 0x20 DUP3 DUP5 SUB SLT ISZERO PUSH2 0x235 JUMPI PUSH2 0x234 PUSH2 0x1C2 JUMP JUMPDEST JUMPDEST PUSH0 PUSH2 0x242 DUP5 DUP3 DUP6 ADD PUSH2 0x20C JUMP JUMPDEST SWAP2 POP POP SWAP3 SWAP2 POP POP JUMP JUMPDEST PUSH2 0x254 DUP2 PUSH2 0x1E5 JUMP JUMPDEST DUP3 MSTORE POP POP JUMP JUMPDEST PUSH0 PUSH1 0x20 DUP3 ADD SWAP1 POP PUSH2 0x26D PUSH0 DUP4 ADD DUP5 PUSH2 0x24B JUMP JUMPDEST SWAP3 SWAP2 POP POP JUMP JUMPDEST PUSH2 0x1D5B DUP1 PUSH2 0x280 PUSH0 CODECOPY PUSH0 RETURN INVALID PUSH1 0x80 PUSH1 0x40 MSTORE CALLVALUE DUP1 ISZERO PUSH2 0xF JUMPI PUSH0 DUP1 REVERT JUMPDEST POP PUSH1 0x4 CALLDATASIZE LT PUSH2 0x9C JUMPI PUSH0 CALLDATALOAD PUSH1 0xE0 SHR DUP1 PUSH4 0x888A7880 GT PUSH2 0x64 JUMPI DUP1 PUSH4 0x888A7880 EQ PUSH2 0x134 JUMPI DUP1 PUSH4 0x8DA5CB5B EQ PUSH2 0x150 JUMPI DUP1 PUSH4 0x9EF8633F EQ PUSH2 0x16E JUMPI DUP1 PUSH4 0xC3AD5ECB EQ PUSH2 0x18A JUMPI DUP1 PUSH4 0xF2FDE38B EQ PUSH2 0x1BA JUMPI PUSH2 0x9C JUMP JUMPDEST DUP1 PUSH4 0x5A1B4A9 EQ PUSH2 0xA0 JUMPI DUP1 PUSH4 0x63378216 EQ PUSH2 0xD4 JUMPI DUP1 PUSH4 0x675E0FB7 EQ PUSH2 0xF0 JUMPI DUP1 PUSH4 0x715018A6 EQ PUSH2 0x10E JUMPI DUP1 PUSH4 0x7C9CD2BC EQ PUSH2 0x118 JUMPI JUMPDEST PUSH0 DUP1 REVERT JUMPDEST PUSH2 0xBA PUSH1 0x4 DUP1 CALLDATASIZE SUB DUP2 ADD SWAP1 PUSH2 0xB5 SWAP2 SWAP1 PUSH2 0x1122 JUMP JUMPDEST PUSH2 0x1D6 JUMP JUMPDEST PUSH1 0x40 MLOAD PUSH2 0xCB SWAP6 SWAP5 SWAP4 SWAP3 SWAP2 SWAP1 PUSH2 0x11EE JUMP JUMPDEST PUSH1 0x40 MLOAD DUP1 SWAP2 SUB SWAP1 RETURN JUMPDEST PUSH2 0xEE PUSH1 0x4 DUP1 CALLDATASIZE SUB DUP2 ADD SWAP1 PUSH2 0xE9 SWAP2 SWAP1 PUSH2 0x1122 JUMP JUMPDEST PUSH2 0x2C7 JUMP JUMPDEST STOP JUMPDEST PUSH2 0xF8 PUSH2 0x559 JUMP JUMPDEST PUSH1 0x40 MLOAD PUSH2 0x105 SWAP2 SWAP1 PUSH2 0x13DA JUMP JUMPDEST PUSH1 0x40 MLOAD DUP1 SWAP2 SUB SWAP1 RETURN JUMPDEST PUSH2 0x116 PUSH2 0x6F2 JUMP JUMPDEST STOP JUMPDEST PUSH2 0x132 PUSH1 0x4 DUP1 CALLDATASIZE SUB DUP2 ADD SWAP1 PUSH2 0x12D SWAP2 SWAP1 PUSH2 0x1526 JUMP JUMPDEST PUSH2 0x705 JUMP JUMPDEST STOP JUMPDEST PUSH2 0x14E PUSH1 0x4 DUP1 CALLDATASIZE SUB DUP2 ADD SWAP1 PUSH2 0x149 SWAP2 SWAP1 PUSH2 0x156D JUMP JUMPDEST PUSH2 0x98E JUMP JUMPDEST STOP JUMPDEST PUSH2 0x158 PUSH2 0x9A0 JUMP JUMPDEST PUSH1 0x40 MLOAD PUSH2 0x165 SWAP2 SWAP1 PUSH2 0x1598 JUMP JUMPDEST PUSH1 0x40 MLOAD DUP1 SWAP2 SUB SWAP1 RETURN JUMPDEST PUSH2 0x188 PUSH1 0x4 DUP1 CALLDATASIZE SUB DUP2 ADD SWAP1 PUSH2 0x183 SWAP2 SWAP1 PUSH2 0x1122 JUMP JUMPDEST PUSH2 0x9C7 JUMP JUMPDEST STOP JUMPDEST PUSH2 0x1A4 PUSH1 0x4 DUP1 CALLDATASIZE SUB DUP2 ADD SWAP1 PUSH2 0x19F SWAP2 SWAP1 PUSH2 0x156D JUMP JUMPDEST PUSH2 0xCF9 JUMP JUMPDEST PUSH1 0x40 MLOAD PUSH2 0x1B1 SWAP2 SWAP1 PUSH2 0x1624 JUMP JUMPDEST PUSH1 0x40 MLOAD DUP1 SWAP2 SUB SWAP1 RETURN JUMPDEST PUSH2 0x1D4 PUSH1 0x4 DUP1 CALLDATASIZE SUB DUP2 ADD SWAP1 PUSH2 0x1CF SWAP2 SWAP1 PUSH2 0x1644 JUMP JUMPDEST PUSH2 0xE70 JUMP JUMPDEST STOP JUMPDEST PUSH1 0x2 PUSH1 0x20 MSTORE DUP2 PUSH0 MSTORE PUSH1 0x40 PUSH0 KECCAK256 DUP2 DUP2 SLOAD DUP2 LT PUSH2 0x1EF JUMPI PUSH0 DUP1 REVERT JUMPDEST SWAP1 PUSH0 MSTORE PUSH1 0x20 PUSH0 KECCAK256 SWAP1 PUSH1 0x5 MUL ADD PUSH0 SWAP2 POP SWAP2 POP POP DUP1 PUSH0 ADD SLOAD SWAP1 DUP1 PUSH1 0x1 ADD PUSH0 SWAP1 SLOAD SWAP1 PUSH2 0x100 EXP SWAP1 DIV PUSH20 0xFFFFFFFFFFFFFFFFFFFFFFFFFFFFFFFFFFFFFFFF AND SWAP1 DUP1 PUSH1 0x2 ADD DUP1 SLOAD PUSH2 0x23A SWAP1 PUSH2 0x169C JUMP JUMPDEST DUP1 PUSH1 0x1F ADD PUSH1 0x20 DUP1 SWAP2 DIV MUL PUSH1 0x20 ADD PUSH1 0x40 MLOAD SWAP1 DUP2 ADD PUSH1 0x40 MSTORE DUP1 SWAP3 SWAP2 SWAP1 DUP2 DUP2 MSTORE PUSH1 0x20 ADD DUP3 DUP1 SLOAD PUSH2 0x266 SWAP1 PUSH2 0x169C JUMP JUMPDEST DUP1 ISZERO PUSH2 0x2B1 JUMPI DUP1 PUSH1 0x1F LT PUSH2 0x288 JUMPI PUSH2 0x100 DUP1 DUP4 SLOAD DIV MUL DUP4 MSTORE SWAP2 PUSH1 0x20 ADD SWAP2 PUSH2 0x2B1 JUMP JUMPDEST DUP3 ADD SWAP2 SWAP1 PUSH0 MSTORE PUSH1 0x20 PUSH0 KECCAK256 SWAP1 JUMPDEST DUP2 SLOAD DUP2 MSTORE SWAP1 PUSH1 0x1 ADD SWAP1 PUSH1 0x20 ADD DUP1 DUP4 GT PUSH2 0x294 JUMPI DUP3 SWAP1 SUB PUSH1 0x1F AND DUP3 ADD SWAP2 JUMPDEST POP POP POP POP POP SWAP1 DUP1 PUSH1 0x3 ADD SLOAD SWAP1 DUP1 PUSH1 0x4 ADD SLOAD SWAP1 POP DUP6 JUMP JUMPDEST PUSH0 PUSH1 0x3 PUSH0 SWAP1 SLOAD SWAP1 PUSH2 0x100 EXP SWAP1 DIV PUSH20 0xFFFFFFFFFFFFFFFFFFFFFFFFFFFFFFFFFFFFFFFF AND PUSH20 0xFFFFFFFFFFFFFFFFFFFFFFFFFFFFFFFFFFFFFFFF AND PUSH4 0xF53A470 CALLER PUSH1 0x40 MLOAD DUP3 PUSH4 0xFFFFFFFF AND PUSH1 0xE0 SHL DUP2 MSTORE PUSH1 0x4 ADD PUSH2 0x322 SWAP2 SWAP1 PUSH2 0x1598 JUMP JUMPDEST PUSH0 PUSH1 0x40 MLOAD DUP1 DUP4 SUB DUP2 DUP7 GAS STATICCALL ISZERO DUP1 ISZERO PUSH2 0x33C JUMPI RETURNDATASIZE PUSH0 DUP1 RETURNDATACOPY RETURNDATASIZE PUSH0 REVERT JUMPDEST POP POP POP POP PUSH1 0x40 MLOAD RETURNDATASIZE PUSH0 DUP3 RETURNDATACOPY RETURNDATASIZE PUSH1 0x1F NOT PUSH1 0x1F DUP3 ADD AND DUP3 ADD DUP1 PUSH1 0x40 MSTORE POP DUP2 ADD SWAP1 PUSH2 0x364 SWAP2 SWAP1 PUSH2 0x17C7 JUMP JUMPDEST PUSH0 ADD MLOAD MLOAD GT PUSH2 0x3A8 JUMPI PUSH1 0x40 MLOAD PUSH32 0x8C379A000000000000000000000000000000000000000000000000000000000 DUP2 MSTORE PUSH1 0x4 ADD PUSH2 0x39F SWAP1 PUSH2 0x1858 JUMP JUMPDEST PUSH1 0x40 MLOAD DUP1 SWAP2 SUB SWAP1 REVERT JUMPDEST DUP1 PUSH1 0x2 PUSH0 DUP5 PUSH20 0xFFFFFFFFFFFFFFFFFFFFFFFFFFFFFFFFFFFFFFFF AND PUSH20 0xFFFFFFFFFFFFFFFFFFFFFFFFFFFFFFFFFFFFFFFF AND DUP2 MSTORE PUSH1 0x20 ADD SWAP1 DUP2 MSTORE PUSH1 0x20 ADD PUSH0 KECCAK256 DUP3 DUP2 SLOAD DUP2 LT PUSH2 0x3F8 JUMPI PUSH2 0x3F7 PUSH2 0x1876 JUMP JUMPDEST JUMPDEST SWAP1 PUSH0 MSTORE PUSH1 0x20 PUSH0 KECCAK256 SWAP1 PUSH1 0x5 MUL ADD PUSH0 ADD SLOAD EQ PUSH2 0x447 JUMPI PUSH1 0x40 MLOAD PUSH32 0x8C379A000000000000000000000000000000000000000000000000000000000 DUP2 MSTORE PUSH1 0x4 ADD PUSH2 0x43E SWAP1 PUSH2 0x18ED JUMP JUMPDEST PUSH1 0x40 MLOAD DUP1 SWAP2 SUB SWAP1 REVERT JUMPDEST PUSH1 0x2 PUSH0 DUP4 PUSH20 0xFFFFFFFFFFFFFFFFFFFFFFFFFFFFFFFFFFFFFFFF AND PUSH20 0xFFFFFFFFFFFFFFFFFFFFFFFFFFFFFFFFFFFFFFFF AND DUP2 MSTORE PUSH1 0x20 ADD SWAP1 DUP2 MSTORE PUSH1 0x20 ADD PUSH0 KECCAK256 DUP2 DUP2 SLOAD DUP2 LT PUSH2 0x496 JUMPI PUSH2 0x495 PUSH2 0x1876 JUMP JUMPDEST JUMPDEST SWAP1 PUSH0 MSTORE PUSH1 0x20 PUSH0 KECCAK256 SWAP1 PUSH1 0x5 MUL ADD PUSH1 0x4 ADD PUSH0 DUP2 SLOAD DUP1 SWAP3 SWAP2 SWAP1 PUSH2 0x4B5 SWAP1 PUSH2 0x1938 JUMP JUMPDEST SWAP2 SWAP1 POP SSTORE POP PUSH32 0x5BD959F96EFC2338D934AB72127BE36035FF98DE2F1584D2951239DB17662D21 CALLER DUP3 DUP5 PUSH1 0x2 PUSH0 DUP8 PUSH20 0xFFFFFFFFFFFFFFFFFFFFFFFFFFFFFFFFFFFFFFFF AND PUSH20 0xFFFFFFFFFFFFFFFFFFFFFFFFFFFFFFFFFFFFFFFF AND DUP2 MSTORE PUSH1 0x20 ADD SWAP1 DUP2 MSTORE PUSH1 0x20 ADD PUSH0 KECCAK256 DUP6 DUP2 SLOAD DUP2 LT PUSH2 0x52D JUMPI PUSH2 0x52C PUSH2 0x1876 JUMP JUMPDEST JUMPDEST SWAP1 PUSH0 MSTORE PUSH1 0x20 PUSH0 KECCAK256 SWAP1 PUSH1 0x5 MUL ADD PUSH1 0x4 ADD SLOAD PUSH1 0x40 MLOAD PUSH2 0x54D SWAP5 SWAP4 SWAP3 SWAP2 SWAP1 PUSH2 0x197F JUMP JUMPDEST PUSH1 0x40 MLOAD DUP1 SWAP2 SUB SWAP1 LOG1 POP POP JUMP JUMPDEST PUSH1 0x60 PUSH1 0x2 PUSH0 CALLER PUSH20 0xFFFFFFFFFFFFFFFFFFFFFFFFFFFFFFFFFFFFFFFF AND PUSH20 0xFFFFFFFFFFFFFFFFFFFFFFFFFFFFFFFFFFFFFFFF AND DUP2 MSTORE PUSH1 0x20 ADD SWAP1 DUP2 MSTORE PUSH1 0x20 ADD PUSH0 KECCAK256 DUP1 SLOAD DUP1 PUSH1 0x20 MUL PUSH1 0x20 ADD PUSH1 0x40 MLOAD SWAP1 DUP2 ADD PUSH1 0x40 MSTORE DUP1 SWAP3 SWAP2 SWAP1 DUP2 DUP2 MSTORE PUSH1 0x20 ADD PUSH0 SWAP1 JUMPDEST DUP3 DUP3 LT ISZERO PUSH2 0x6E9 JUMPI DUP4 DUP3 SWAP1 PUSH0 MSTORE PUSH1 0x20 PUSH0 KECCAK256 SWAP1 PUSH1 0x5 MUL ADD PUSH1 0x40 MLOAD DUP1 PUSH1 0xA0 ADD PUSH1 0x40 MSTORE SWAP1 DUP2 PUSH0 DUP3 ADD SLOAD DUP2 MSTORE PUSH1 0x20 ADD PUSH1 0x1 DUP3 ADD PUSH0 SWAP1 SLOAD SWAP1 PUSH2 0x100 EXP SWAP1 DIV PUSH20 0xFFFFFFFFFFFFFFFFFFFFFFFFFFFFFFFFFFFFFFFF AND PUSH20 0xFFFFFFFFFFFFFFFFFFFFFFFFFFFFFFFFFFFFFFFF AND PUSH20 0xFFFFFFFFFFFFFFFFFFFFFFFFFFFFFFFFFFFFFFFF AND DUP2 MSTORE PUSH1 0x20 ADD PUSH1 0x2 DUP3 ADD DUP1 SLOAD PUSH2 0x646 SWAP1 PUSH2 0x169C JUMP JUMPDEST DUP1 PUSH1 0x1F ADD PUSH1 0x20 DUP1 SWAP2 DIV MUL PUSH1 0x20 ADD PUSH1 0x40 MLOAD SWAP1 DUP2 ADD PUSH1 0x40 MSTORE DUP1 SWAP3 SWAP2 SWAP1 DUP2 DUP2 MSTORE PUSH1 0x20 ADD DUP3 DUP1 SLOAD PUSH2 0x672 SWAP1 PUSH2 0x169C JUMP JUMPDEST DUP1 ISZERO PUSH2 0x6BD JUMPI DUP1 PUSH1 0x1F LT PUSH2 0x694 JUMPI PUSH2 0x100 DUP1 DUP4 SLOAD DIV MUL DUP4 MSTORE SWAP2 PUSH1 0x20 ADD SWAP2 PUSH2 0x6BD JUMP JUMPDEST DUP3 ADD SWAP2 SWAP1 PUSH0 MSTORE PUSH1 0x20 PUSH0 KECCAK256 SWAP1 JUMPDEST DUP2 SLOAD DUP2 MSTORE SWAP1 PUSH1 0x1 ADD SWAP1 PUSH1 0x20 ADD DUP1 DUP4 GT PUSH2 0x6A0 JUMPI DUP3 SWAP1 SUB PUSH1 0x1F AND DUP3 ADD SWAP2 JUMPDEST POP POP POP POP POP DUP2 MSTORE PUSH1 0x20 ADD PUSH1 0x3 DUP3 ADD SLOAD DUP2 MSTORE PUSH1 0x20 ADD PUSH1 0x4 DUP3 ADD SLOAD DUP2 MSTORE POP POP DUP2 MSTORE PUSH1 0x20 ADD SWAP1 PUSH1 0x1 ADD SWAP1 PUSH2 0x5B7 JUMP JUMPDEST POP POP POP POP SWAP1 POP SWAP1 JUMP JUMPDEST PUSH2 0x6FA PUSH2 0xEF4 JUMP JUMPDEST PUSH2 0x703 PUSH0 PUSH2 0xF7B JUMP JUMPDEST JUMP JUMPDEST PUSH0 PUSH1 0x3 PUSH0 SWAP1 SLOAD SWAP1 PUSH2 0x100 EXP SWAP1 DIV PUSH20 0xFFFFFFFFFFFFFFFFFFFFFFFFFFFFFFFFFFFFFFFF AND PUSH20 0xFFFFFFFFFFFFFFFFFFFFFFFFFFFFFFFFFFFFFFFF AND PUSH4 0xF53A470 CALLER PUSH1 0x40 MLOAD DUP3 PUSH4 0xFFFFFFFF AND PUSH1 0xE0 SHL DUP2 MSTORE PUSH1 0x4 ADD PUSH2 0x760 SWAP2 SWAP1 PUSH2 0x1598 JUMP JUMPDEST PUSH0 PUSH1 0x40 MLOAD DUP1 DUP4 SUB DUP2 DUP7 GAS STATICCALL ISZERO DUP1 ISZERO PUSH2 0x77A JUMPI RETURNDATASIZE PUSH0 DUP1 RETURNDATACOPY RETURNDATASIZE PUSH0 REVERT JUMPDEST POP POP POP POP PUSH1 0x40 MLOAD RETURNDATASIZE PUSH0 DUP3 RETURNDATACOPY RETURNDATASIZE PUSH1 0x1F NOT PUSH1 0x1F DUP3 ADD AND DUP3 ADD DUP1 PUSH1 0x40 MSTORE POP DUP2 ADD SWAP1 PUSH2 0x7A2 SWAP2 SWAP1 PUSH2 0x17C7 JUMP JUMPDEST PUSH0 ADD MLOAD MLOAD GT PUSH2 0x7E6 JUMPI PUSH1 0x40 MLOAD PUSH32 0x8C379A000000000000000000000000000000000000000000000000000000000 DUP2 MSTORE PUSH1 0x4 ADD PUSH2 0x7DD SWAP1 PUSH2 0x1858 JUMP JUMPDEST PUSH1 0x40 MLOAD DUP1 SWAP2 SUB SWAP1 REVERT JUMPDEST PUSH1 0x1 SLOAD DUP2 MLOAD GT ISZERO PUSH2 0x82C JUMPI PUSH1 0x40 MLOAD PUSH32 0x8C379A000000000000000000000000000000000000000000000000000000000 DUP2 MSTORE PUSH1 0x4 ADD PUSH2 0x823 SWAP1 PUSH2 0x1A0C JUMP JUMPDEST PUSH1 0x40 MLOAD DUP1 SWAP2 SUB SWAP1 REVERT JUMPDEST PUSH0 PUSH1 0x40 MLOAD DUP1 PUSH1 0xA0 ADD PUSH1 0x40 MSTORE DUP1 PUSH1 0x2 PUSH0 CALLER PUSH20 0xFFFFFFFFFFFFFFFFFFFFFFFFFFFFFFFFFFFFFFFF AND PUSH20 0xFFFFFFFFFFFFFFFFFFFFFFFFFFFFFFFFFFFFFFFF AND DUP2 MSTORE PUSH1 0x20 ADD SWAP1 DUP2 MSTORE PUSH1 0x20 ADD PUSH0 KECCAK256 DUP1 SLOAD SWAP1 POP DUP2 MSTORE PUSH1 0x20 ADD CALLER PUSH20 0xFFFFFFFFFFFFFFFFFFFFFFFFFFFFFFFFFFFFFFFF AND DUP2 MSTORE PUSH1 0x20 ADD DUP4 DUP2 MSTORE PUSH1 0x20 ADD TIMESTAMP DUP2 MSTORE PUSH1 0x20 ADD PUSH0 DUP2 MSTORE POP SWAP1 POP PUSH1 0x2 PUSH0 CALLER PUSH20 0xFFFFFFFFFFFFFFFFFFFFFFFFFFFFFFFFFFFFFFFF AND PUSH20 0xFFFFFFFFFFFFFFFFFFFFFFFFFFFFFFFFFFFFFFFF AND DUP2 MSTORE PUSH1 0x20 ADD SWAP1 DUP2 MSTORE PUSH1 0x20 ADD PUSH0 KECCAK256 DUP2 SWAP1 DUP1 PUSH1 0x1 DUP2 SLOAD ADD DUP1 DUP3 SSTORE DUP1 SWAP2 POP POP PUSH1 0x1 SWAP1 SUB SWAP1 PUSH0 MSTORE PUSH1 0x20 PUSH0 KECCAK256 SWAP1 PUSH1 0x5 MUL ADD PUSH0 SWAP1 SWAP2 SWAP1 SWAP2 SWAP1 SWAP2 POP PUSH0 DUP3 ADD MLOAD DUP2 PUSH0 ADD SSTORE PUSH1 0x20 DUP3 ADD MLOAD DUP2 PUSH1 0x1 ADD PUSH0 PUSH2 0x100 EXP DUP2 SLOAD DUP2 PUSH20 0xFFFFFFFFFFFFFFFFFFFFFFFFFFFFFFFFFFFFFFFF MUL NOT AND SWAP1 DUP4 PUSH20 0xFFFFFFFFFFFFFFFFFFFFFFFFFFFFFFFFFFFFFFFF AND MUL OR SWAP1 SSTORE POP PUSH1 0x40 DUP3 ADD MLOAD DUP2 PUSH1 0x2 ADD SWAP1 DUP2 PUSH2 0x973 SWAP2 SWAP1 PUSH2 0x1BC7 JUMP JUMPDEST POP PUSH1 0x60 DUP3 ADD MLOAD DUP2 PUSH1 0x3 ADD SSTORE PUSH1 0x80 DUP3 ADD MLOAD DUP2 PUSH1 0x4 ADD SSTORE POP POP POP POP JUMP JUMPDEST PUSH2 0x996 PUSH2 0xEF4 JUMP JUMPDEST DUP1 PUSH1 0x1 DUP2 SWAP1 SSTORE POP POP JUMP JUMPDEST PUSH0 DUP1 PUSH0 SWAP1 SLOAD SWAP1 PUSH2 0x100 EXP SWAP1 DIV PUSH20 0xFFFFFFFFFFFFFFFFFFFFFFFFFFFFFFFFFFFFFFFF AND SWAP1 POP SWAP1 JUMP JUMPDEST PUSH0 PUSH1 0x3 PUSH0 SWAP1 SLOAD SWAP1 PUSH2 0x100 EXP SWAP1 DIV PUSH20 0xFFFFFFFFFFFFFFFFFFFFFFFFFFFFFFFFFFFFFFFF AND PUSH20 0xFFFFFFFFFFFFFFFFFFFFFFFFFFFFFFFFFFFFFFFF AND PUSH4 0xF53A470 CALLER PUSH1 0x40 MLOAD DUP3 PUSH4 0xFFFFFFFF AND PUSH1 0xE0 SHL DUP2 MSTORE PUSH1 0x4 ADD PUSH2 0xA22 SWAP2 SWAP1 PUSH2 0x1598 JUMP JUMPDEST PUSH0 PUSH1 0x40 MLOAD DUP1 DUP4 SUB DUP2 DUP7 GAS STATICCALL ISZERO DUP1 ISZERO PUSH2 0xA3C JUMPI RETURNDATASIZE PUSH0 DUP1 RETURNDATACOPY RETURNDATASIZE PUSH0 REVERT JUMPDEST POP POP POP POP PUSH1 0x40 MLOAD RETURNDATASIZE PUSH0 DUP3 RETURNDATACOPY RETURNDATASIZE PUSH1 0x1F NOT PUSH1 0x1F DUP3 ADD AND DUP3 ADD DUP1 PUSH1 0x40 MSTORE POP DUP2 ADD SWAP1 PUSH2 0xA64 SWAP2 SWAP1 PUSH2 0x17C7 JUMP JUMPDEST PUSH0 ADD MLOAD MLOAD GT PUSH2 0xAA8 JUMPI PUSH1 0x40 MLOAD PUSH32 0x8C379A000000000000000000000000000000000000000000000000000000000 DUP2 MSTORE PUSH1 0x4 ADD PUSH2 0xA9F SWAP1 PUSH2 0x1858 JUMP JUMPDEST PUSH1 0x40 MLOAD DUP1 SWAP2 SUB SWAP1 REVERT JUMPDEST DUP1 PUSH1 0x2 PUSH0 DUP5 PUSH20 0xFFFFFFFFFFFFFFFFFFFFFFFFFFFFFFFFFFFFFFFF AND PUSH20 0xFFFFFFFFFFFFFFFFFFFFFFFFFFFFFFFFFFFFFFFF AND DUP2 MSTORE PUSH1 0x20 ADD SWAP1 DUP2 MSTORE PUSH1 0x20 ADD PUSH0 KECCAK256 DUP3 DUP2 SLOAD DUP2 LT PUSH2 0xAF8 JUMPI PUSH2 0xAF7 PUSH2 0x1876 JUMP JUMPDEST JUMPDEST SWAP1 PUSH0 MSTORE PUSH1 0x20 PUSH0 KECCAK256 SWAP1 PUSH1 0x5 MUL ADD PUSH0 ADD SLOAD EQ PUSH2 0xB47 JUMPI PUSH1 0x40 MLOAD PUSH32 0x8C379A000000000000000000000000000000000000000000000000000000000 DUP2 MSTORE PUSH1 0x4 ADD PUSH2 0xB3E SWAP1 PUSH2 0x18ED JUMP JUMPDEST PUSH1 0x40 MLOAD DUP1 SWAP2 SUB SWAP1 REVERT JUMPDEST PUSH0 PUSH1 0x2 PUSH0 DUP5 PUSH20 0xFFFFFFFFFFFFFFFFFFFFFFFFFFFFFFFFFFFFFFFF AND PUSH20 0xFFFFFFFFFFFFFFFFFFFFFFFFFFFFFFFFFFFFFFFF AND DUP2 MSTORE PUSH1 0x20 ADD SWAP1 DUP2 MSTORE PUSH1 0x20 ADD PUSH0 KECCAK256 DUP3 DUP2 SLOAD DUP2 LT PUSH2 0xB97 JUMPI PUSH2 0xB96 PUSH2 0x1876 JUMP JUMPDEST JUMPDEST SWAP1 PUSH0 MSTORE PUSH1 0x20 PUSH0 KECCAK256 SWAP1 PUSH1 0x5 MUL ADD PUSH1 0x4 ADD SLOAD GT PUSH2 0xBE7 JUMPI PUSH1 0x40 MLOAD PUSH32 0x8C379A000000000000000000000000000000000000000000000000000000000 DUP2 MSTORE PUSH1 0x4 ADD PUSH2 0xBDE SWAP1 PUSH2 0x1CE0 JUMP JUMPDEST PUSH1 0x40 MLOAD DUP1 SWAP2 SUB SWAP1 REVERT JUMPDEST PUSH1 0x2 PUSH0 DUP4 PUSH20 0xFFFFFFFFFFFFFFFFFFFFFFFFFFFFFFFFFFFFFFFF AND PUSH20 0xFFFFFFFFFFFFFFFFFFFFFFFFFFFFFFFFFFFFFFFF AND DUP2 MSTORE PUSH1 0x20 ADD SWAP1 DUP2 MSTORE PUSH1 0x20 ADD PUSH0 KECCAK256 DUP2 DUP2 SLOAD DUP2 LT PUSH2 0xC36 JUMPI PUSH2 0xC35 PUSH2 0x1876 JUMP JUMPDEST JUMPDEST SWAP1 PUSH0 MSTORE PUSH1 0x20 PUSH0 KECCAK256 SWAP1 PUSH1 0x5 MUL ADD PUSH1 0x4 ADD PUSH0 DUP2 SLOAD DUP1 SWAP3 SWAP2 SWAP1 PUSH2 0xC55 SWAP1 PUSH2 0x1CFE JUMP JUMPDEST SWAP2 SWAP1 POP SSTORE POP PUSH32 0x5BD959F96EFC2338D934AB72127BE36035FF98DE2F1584D2951239DB17662D21 CALLER DUP3 DUP5 PUSH1 0x2 PUSH0 DUP8 PUSH20 0xFFFFFFFFFFFFFFFFFFFFFFFFFFFFFFFFFFFFFFFF AND PUSH20 0xFFFFFFFFFFFFFFFFFFFFFFFFFFFFFFFFFFFFFFFF AND DUP2 MSTORE PUSH1 0x20 ADD SWAP1 DUP2 MSTORE PUSH1 0x20 ADD PUSH0 KECCAK256 DUP6 DUP2 SLOAD DUP2 LT PUSH2 0xCCD JUMPI PUSH2 0xCCC PUSH2 0x1876 JUMP JUMPDEST JUMPDEST SWAP1 PUSH0 MSTORE PUSH1 0x20 PUSH0 KECCAK256 SWAP1 PUSH1 0x5 MUL ADD PUSH1 0x4 ADD SLOAD PUSH1 0x40 MLOAD PUSH2 0xCED SWAP5 SWAP4 SWAP3 SWAP2 SWAP1 PUSH2 0x197F JUMP JUMPDEST PUSH1 0x40 MLOAD DUP1 SWAP2 SUB SWAP1 LOG1 POP POP JUMP JUMPDEST PUSH2 0xD01 PUSH2 0x1043 JUMP JUMPDEST PUSH1 0x2 PUSH0 CALLER PUSH20 0xFFFFFFFFFFFFFFFFFFFFFFFFFFFFFFFFFFFFFFFF AND PUSH20 0xFFFFFFFFFFFFFFFFFFFFFFFFFFFFFFFFFFFFFFFF AND DUP2 MSTORE PUSH1 0x20 ADD SWAP1 DUP2 MSTORE PUSH1 0x20 ADD PUSH0 KECCAK256 DUP3 DUP2 SLOAD DUP2 LT PUSH2 0xD50 JUMPI PUSH2 0xD4F PUSH2 0x1876 JUMP JUMPDEST JUMPDEST SWAP1 PUSH0 MSTORE PUSH1 0x20 PUSH0 KECCAK256 SWAP1 PUSH1 0x5 MUL ADD PUSH1 0x40 MLOAD DUP1 PUSH1 0xA0 ADD PUSH1 0x40 MSTORE SWAP1 DUP2 PUSH0 DUP3 ADD SLOAD DUP2 MSTORE PUSH1 0x20 ADD PUSH1 0x1 DUP3 ADD PUSH0 SWAP1 SLOAD SWAP1 PUSH2 0x100 EXP SWAP1 DIV PUSH20 0xFFFFFFFFFFFFFFFFFFFFFFFFFFFFFFFFFFFFFFFF AND PUSH20 0xFFFFFFFFFFFFFFFFFFFFFFFFFFFFFFFFFFFFFFFF AND PUSH20 0xFFFFFFFFFFFFFFFFFFFFFFFFFFFFFFFFFFFFFFFF AND DUP2 MSTORE PUSH1 0x20 ADD PUSH1 0x2 DUP3 ADD DUP1 SLOAD PUSH2 0xDD5 SWAP1 PUSH2 0x169C JUMP JUMPDEST DUP1 PUSH1 0x1F ADD PUSH1 0x20 DUP1 SWAP2 DIV MUL PUSH1 0x20 ADD PUSH1 0x40 MLOAD SWAP1 DUP2 ADD PUSH1 0x40 MSTORE DUP1 SWAP3 SWAP2 SWAP1 DUP2 DUP2 MSTORE PUSH1 0x20 ADD DUP3 DUP1 SLOAD PUSH2 0xE01 SWAP1 PUSH2 0x169C JUMP JUMPDEST DUP1 ISZERO PUSH2 0xE4C JUMPI DUP1 PUSH1 0x1F LT PUSH2 0xE23 JUMPI PUSH2 0x100 DUP1 DUP4 SLOAD DIV MUL DUP4 MSTORE SWAP2 PUSH1 0x20 ADD SWAP2 PUSH2 0xE4C JUMP JUMPDEST DUP3 ADD SWAP2 SWAP1 PUSH0 MSTORE PUSH1 0x20 PUSH0 KECCAK256 SWAP1 JUMPDEST DUP2 SLOAD DUP2 MSTORE SWAP1 PUSH1 0x1 ADD SWAP1 PUSH1 0x20 ADD DUP1 DUP4 GT PUSH2 0xE2F JUMPI DUP3 SWAP1 SUB PUSH1 0x1F AND DUP3 ADD SWAP2 JUMPDEST POP POP POP POP POP DUP2 MSTORE PUSH1 0x20 ADD PUSH1 0x3 DUP3 ADD SLOAD DUP2 MSTORE PUSH1 0x20 ADD PUSH1 0x4 DUP3 ADD SLOAD DUP2 MSTORE POP POP SWAP1 POP SWAP2 SWAP1 POP JUMP JUMPDEST PUSH2 0xE78 PUSH2 0xEF4 JUMP JUMPDEST PUSH0 PUSH20 0xFFFFFFFFFFFFFFFFFFFFFFFFFFFFFFFFFFFFFFFF AND DUP2 PUSH20 0xFFFFFFFFFFFFFFFFFFFFFFFFFFFFFFFFFFFFFFFF AND SUB PUSH2 0xEE8 JUMPI PUSH0 PUSH1 0x40 MLOAD PUSH32 0x1E4FBDF700000000000000000000000000000000000000000000000000000000 DUP2 MSTORE PUSH1 0x4 ADD PUSH2 0xEDF SWAP2 SWAP1 PUSH2 0x1598 JUMP JUMPDEST PUSH1 0x40 MLOAD DUP1 SWAP2 SUB SWAP1 REVERT JUMPDEST PUSH2 0xEF1 DUP2 PUSH2 0xF7B JUMP JUMPDEST POP JUMP JUMPDEST PUSH2 0xEFC PUSH2 0x103C JUMP JUMPDEST PUSH20 0xFFFFFFFFFFFFFFFFFFFFFFFFFFFFFFFFFFFFFFFF AND PUSH2 0xF1A PUSH2 0x9A0 JUMP JUMPDEST PUSH20 0xFFFFFFFFFFFFFFFFFFFFFFFFFFFFFFFFFFFFFFFF AND EQ PUSH2 0xF79 JUMPI PUSH2 0xF3D PUSH2 0x103C JUMP JUMPDEST PUSH1 0x40 MLOAD PUSH32 0x118CDAA700000000000000000000000000000000000000000000000000000000 DUP2 MSTORE PUSH1 0x4 ADD PUSH2 0xF70 SWAP2 SWAP1 PUSH2 0x1598 JUMP JUMPDEST PUSH1 0x40 MLOAD DUP1 SWAP2 SUB SWAP1 REVERT JUMPDEST JUMP JUMPDEST PUSH0 DUP1 PUSH0 SWAP1 SLOAD SWAP1 PUSH2 0x100 EXP SWAP1 DIV PUSH20 0xFFFFFFFFFFFFFFFFFFFFFFFFFFFFFFFFFFFFFFFF AND SWAP1 POP DUP2 PUSH0 DUP1 PUSH2 0x100 EXP DUP2 SLOAD DUP2 PUSH20 0xFFFFFFFFFFFFFFFFFFFFFFFFFFFFFFFFFFFFFFFF MUL NOT AND SWAP1 DUP4 PUSH20 0xFFFFFFFFFFFFFFFFFFFFFFFFFFFFFFFFFFFFFFFF AND MUL OR SWAP1 SSTORE POP DUP2 PUSH20 0xFFFFFFFFFFFFFFFFFFFFFFFFFFFFFFFFFFFFFFFF AND DUP2 PUSH20 0xFFFFFFFFFFFFFFFFFFFFFFFFFFFFFFFFFFFFFFFF AND PUSH32 0x8BE0079C531659141344CD1FD0A4F28419497F9722A3DAAFE3B4186F6B6457E0 PUSH1 0x40 MLOAD PUSH1 0x40 MLOAD DUP1 SWAP2 SUB SWAP1 LOG3 POP POP JUMP JUMPDEST PUSH0 CALLER SWAP1 POP SWAP1 JUMP JUMPDEST PUSH1 0x40 MLOAD DUP1 PUSH1 0xA0 ADD PUSH1 0x40 MSTORE DUP1 PUSH0 DUP2 MSTORE PUSH1 0x20 ADD PUSH0 PUSH20 0xFFFFFFFFFFFFFFFFFFFFFFFFFFFFFFFFFFFFFFFF AND DUP2 MSTORE PUSH1 0x20 ADD PUSH1 0x60 DUP2 MSTORE PUSH1 0x20 ADD PUSH0 DUP2 MSTORE PUSH1 0x20 ADD PUSH0 DUP2 MSTORE POP SWAP1 JUMP JUMPDEST PUSH0 PUSH1 0x40 MLOAD SWAP1 POP SWAP1 JUMP JUMPDEST PUSH0 DUP1 REVERT JUMPDEST PUSH0 DUP1 REVERT JUMPDEST PUSH0 PUSH20 0xFFFFFFFFFFFFFFFFFFFFFFFFFFFFFFFFFFFFFFFF DUP3 AND SWAP1 POP SWAP2 SWAP1 POP JUMP JUMPDEST PUSH0 PUSH2 0x10BE DUP3 PUSH2 0x1095 JUMP JUMPDEST SWAP1 POP SWAP2 SWAP1 POP JUMP JUMPDEST PUSH2 0x10CE DUP2 PUSH2 0x10B4 JUMP JUMPDEST DUP2 EQ PUSH2 0x10D8 JUMPI PUSH0 DUP1 REVERT JUMPDEST POP JUMP JUMPDEST PUSH0 DUP2 CALLDATALOAD SWAP1 POP PUSH2 0x10E9 DUP2 PUSH2 0x10C5 JUMP JUMPDEST SWAP3 SWAP2 POP POP JUMP JUMPDEST PUSH0 DUP2 SWAP1 POP SWAP2 SWAP1 POP JUMP JUMPDEST PUSH2 0x1101 DUP2 PUSH2 0x10EF JUMP JUMPDEST DUP2 EQ PUSH2 0x110B JUMPI PUSH0 DUP1 REVERT JUMPDEST POP JUMP JUMPDEST PUSH0 DUP2 CALLDATALOAD SWAP1 POP PUSH2 0x111C DUP2 PUSH2 0x10F8 JUMP JUMPDEST SWAP3 SWAP2 POP POP JUMP JUMPDEST PUSH0 DUP1 PUSH1 0x40 DUP4 DUP6 SUB SLT ISZERO PUSH2 0x1138 JUMPI PUSH2 0x1137 PUSH2 0x108D JUMP JUMPDEST JUMPDEST PUSH0 PUSH2 0x1145 DUP6 DUP3 DUP7 ADD PUSH2 0x10DB JUMP JUMPDEST SWAP3 POP POP PUSH1 0x20 PUSH2 0x1156 DUP6 DUP3 DUP7 ADD PUSH2 0x110E JUMP JUMPDEST SWAP2 POP POP SWAP3 POP SWAP3 SWAP1 POP JUMP JUMPDEST PUSH2 0x1169 DUP2 PUSH2 0x10EF JUMP JUMPDEST DUP3 MSTORE POP POP JUMP JUMPDEST PUSH2 0x1178 DUP2 PUSH2 0x10B4 JUMP JUMPDEST DUP3 MSTORE POP POP JUMP JUMPDEST PUSH0 DUP2 MLOAD SWAP1 POP SWAP2 SWAP1 POP JUMP JUMPDEST PUSH0 DUP3 DUP3 MSTORE PUSH1 0x20 DUP3 ADD SWAP1 POP SWAP3 SWAP2 POP POP JUMP JUMPDEST DUP3 DUP2 DUP4 MCOPY PUSH0 DUP4 DUP4 ADD MSTORE POP POP POP JUMP JUMPDEST PUSH0 PUSH1 0x1F NOT PUSH1 0x1F DUP4 ADD AND SWAP1 POP SWAP2 SWAP1 POP JUMP JUMPDEST PUSH0 PUSH2 0x11C0 DUP3 PUSH2 0x117E JUMP JUMPDEST PUSH2 0x11CA DUP2 DUP6 PUSH2 0x1188 JUMP JUMPDEST SWAP4 POP PUSH2 0x11DA DUP2 DUP6 PUSH1 0x20 DUP7 ADD PUSH2 0x1198 JUMP JUMPDEST PUSH2 0x11E3 DUP2 PUSH2 0x11A6 JUMP JUMPDEST DUP5 ADD SWAP2 POP POP SWAP3 SWAP2 POP POP JUMP JUMPDEST PUSH0 PUSH1 0xA0 DUP3 ADD SWAP1 POP PUSH2 0x1201 PUSH0 DUP4 ADD DUP9 PUSH2 0x1160 JUMP JUMPDEST PUSH2 0x120E PUSH1 0x20 DUP4 ADD DUP8 PUSH2 0x116F JUMP JUMPDEST DUP2 DUP2 SUB PUSH1 0x40 DUP4 ADD MSTORE PUSH2 0x1220 DUP2 DUP7 PUSH2 0x11B6 JUMP JUMPDEST SWAP1 POP PUSH2 0x122F PUSH1 0x60 DUP4 ADD DUP6 PUSH2 0x1160 JUMP JUMPDEST PUSH2 0x123C PUSH1 0x80 DUP4 ADD DUP5 PUSH2 0x1160 JUMP JUMPDEST SWAP7 SWAP6 POP POP POP POP POP POP JUMP JUMPDEST PUSH0 DUP2 MLOAD SWAP1 POP SWAP2 SWAP1 POP JUMP JUMPDEST PUSH0 DUP3 DUP3 MSTORE PUSH1 0x20 DUP3 ADD SWAP1 POP SWAP3 SWAP2 POP POP JUMP JUMPDEST PUSH0 DUP2 SWAP1 POP PUSH1 0x20 DUP3 ADD SWAP1 POP SWAP2 SWAP1 POP JUMP JUMPDEST PUSH2 0x1278 DUP2 PUSH2 0x10EF JUMP JUMPDEST DUP3 MSTORE POP POP JUMP JUMPDEST PUSH2 0x1287 DUP2 PUSH2 0x10B4 JUMP JUMPDEST DUP3 MSTORE POP POP JUMP JUMPDEST PUSH0 DUP3 DUP3 MSTORE PUSH1 0x20 DUP3 ADD SWAP1 POP SWAP3 SWAP2 POP POP JUMP JUMPDEST PUSH0 PUSH2 0x12A7 DUP3 PUSH2 0x117E JUMP JUMPDEST PUSH2 0x12B1 DUP2 DUP6 PUSH2 0x128D JUMP JUMPDEST SWAP4 POP PUSH2 0x12C1 DUP2 DUP6 PUSH1 0x20 DUP7 ADD PUSH2 0x1198 JUMP JUMPDEST PUSH2 0x12CA DUP2 PUSH2 0x11A6 JUMP JUMPDEST DUP5 ADD SWAP2 POP POP SWAP3 SWAP2 POP POP JUMP JUMPDEST PUSH0 PUSH1 0xA0 DUP4 ADD PUSH0 DUP4 ADD MLOAD PUSH2 0x12EA PUSH0 DUP7 ADD DUP3 PUSH2 0x126F JUMP JUMPDEST POP PUSH1 0x20 DUP4 ADD MLOAD PUSH2 0x12FD PUSH1 0x20 DUP7 ADD DUP3 PUSH2 0x127E JUMP JUMPDEST POP PUSH1 0x40 DUP4 ADD MLOAD DUP5 DUP3 SUB PUSH1 0x40 DUP7 ADD MSTORE PUSH2 0x1315 DUP3 DUP3 PUSH2 0x129D JUMP JUMPDEST SWAP2 POP POP PUSH1 0x60 DUP4 ADD MLOAD PUSH2 0x132A PUSH1 0x60 DUP7 ADD DUP3 PUSH2 0x126F JUMP JUMPDEST POP PUSH1 0x80 DUP4 ADD MLOAD PUSH2 0x133D PUSH1 0x80 DUP7 ADD DUP3 PUSH2 0x126F JUMP JUMPDEST POP DUP1 SWAP2 POP POP SWAP3 SWAP2 POP POP JUMP JUMPDEST PUSH0 PUSH2 0x1353 DUP4 DUP4 PUSH2 0x12D5 JUMP JUMPDEST SWAP1 POP SWAP3 SWAP2 POP POP JUMP JUMPDEST PUSH0 PUSH1 0x20 DUP3 ADD SWAP1 POP SWAP2 SWAP1 POP JUMP JUMPDEST PUSH0 PUSH2 0x1371 DUP3 PUSH2 0x1246 JUMP JUMPDEST PUSH2 0x137B DUP2 DUP6 PUSH2 0x1250 JUMP JUMPDEST SWAP4 POP DUP4 PUSH1 0x20 DUP3 MUL DUP6 ADD PUSH2 0x138D DUP6 PUSH2 0x1260 JUMP JUMPDEST DUP1 PUSH0 JUMPDEST DUP6 DUP2 LT ISZERO PUSH2 0x13C8 JUMPI DUP5 DUP5 SUB DUP10 MSTORE DUP2 MLOAD PUSH2 0x13A9 DUP6 DUP3 PUSH2 0x1348 JUMP JUMPDEST SWAP5 POP PUSH2 0x13B4 DUP4 PUSH2 0x135B JUMP JUMPDEST SWAP3 POP PUSH1 0x20 DUP11 ADD SWAP10 POP POP PUSH1 0x1 DUP2 ADD SWAP1 POP PUSH2 0x1390 JUMP JUMPDEST POP DUP3 SWAP8 POP DUP8 SWAP6 POP POP POP POP POP POP SWAP3 SWAP2 POP POP JUMP JUMPDEST PUSH0 PUSH1 0x20 DUP3 ADD SWAP1 POP DUP2 DUP2 SUB PUSH0 DUP4 ADD MSTORE PUSH2 0x13F2 DUP2 DUP5 PUSH2 0x1367 JUMP JUMPDEST SWAP1 POP SWAP3 SWAP2 POP POP JUMP JUMPDEST PUSH0 DUP1 REVERT JUMPDEST PUSH0 DUP1 REVERT JUMPDEST PUSH32 0x4E487B7100000000000000000000000000000000000000000000000000000000 PUSH0 MSTORE PUSH1 0x41 PUSH1 0x4 MSTORE PUSH1 0x24 PUSH0 REVERT JUMPDEST PUSH2 0x1438 DUP3 PUSH2 0x11A6 JUMP JUMPDEST DUP2 ADD DUP2 DUP2 LT PUSH8 0xFFFFFFFFFFFFFFFF DUP3 GT OR ISZERO PUSH2 0x1457 JUMPI PUSH2 0x1456 PUSH2 0x1402 JUMP JUMPDEST JUMPDEST DUP1 PUSH1 0x40 MSTORE POP POP POP JUMP JUMPDEST PUSH0 PUSH2 0x1469 PUSH2 0x1084 JUMP JUMPDEST SWAP1 POP PUSH2 0x1475 DUP3 DUP3 PUSH2 0x142F JUMP JUMPDEST SWAP2 SWAP1 POP JUMP JUMPDEST PUSH0 PUSH8 0xFFFFFFFFFFFFFFFF DUP3 GT ISZERO PUSH2 0x1494 JUMPI PUSH2 0x1493 PUSH2 0x1402 JUMP JUMPDEST JUMPDEST PUSH2 0x149D DUP3 PUSH2 0x11A6 JUMP JUMPDEST SWAP1 POP PUSH1 0x20 DUP2 ADD SWAP1 POP SWAP2 SWAP1 POP JUMP JUMPDEST DUP3 DUP2 DUP4 CALLDATACOPY PUSH0 DUP4 DUP4 ADD MSTORE POP POP POP JUMP JUMPDEST PUSH0 PUSH2 0x14CA PUSH2 0x14C5 DUP5 PUSH2 0x147A JUMP JUMPDEST PUSH2 0x1460 JUMP JUMPDEST SWAP1 POP DUP3 DUP2 MSTORE PUSH1 0x20 DUP2 ADD DUP5 DUP5 DUP5 ADD GT ISZERO PUSH2 0x14E6 JUMPI PUSH2 0x14E5 PUSH2 0x13FE JUMP JUMPDEST JUMPDEST PUSH2 0x14F1 DUP5 DUP3 DUP6 PUSH2 0x14AA JUMP JUMPDEST POP SWAP4 SWAP3 POP POP POP JUMP JUMPDEST PUSH0 DUP3 PUSH1 0x1F DUP4 ADD SLT PUSH2 0x150D JUMPI PUSH2 0x150C PUSH2 0x13FA JUMP JUMPDEST JUMPDEST DUP2 CALLDATALOAD PUSH2 0x151D DUP5 DUP3 PUSH1 0x20 DUP7 ADD PUSH2 0x14B8 JUMP JUMPDEST SWAP2 POP POP SWAP3 SWAP2 POP POP JUMP JUMPDEST PUSH0 PUSH1 0x20 DUP3 DUP5 SUB SLT ISZERO PUSH2 0x153B JUMPI PUSH2 0x153A PUSH2 0x108D JUMP JUMPDEST JUMPDEST PUSH0 DUP3 ADD CALLDATALOAD PUSH8 0xFFFFFFFFFFFFFFFF DUP2 GT ISZERO PUSH2 0x1558 JUMPI PUSH2 0x1557 PUSH2 0x1091 JUMP JUMPDEST JUMPDEST PUSH2 0x1564 DUP5 DUP3 DUP6 ADD PUSH2 0x14F9 JUMP JUMPDEST SWAP2 POP POP SWAP3 SWAP2 POP POP JUMP JUMPDEST PUSH0 PUSH1 0x20 DUP3 DUP5 SUB SLT ISZERO PUSH2 0x1582 JUMPI PUSH2 0x1581 PUSH2 0x108D JUMP JUMPDEST JUMPDEST PUSH0 PUSH2 0x158F DUP5 DUP3 DUP6 ADD PUSH2 0x110E JUMP JUMPDEST SWAP2 POP POP SWAP3 SWAP2 POP POP JUMP JUMPDEST PUSH0 PUSH1 0x20 DUP3 ADD SWAP1 POP PUSH2 0x15AB PUSH0 DUP4 ADD DUP5 PUSH2 0x116F JUMP JUMPDEST SWAP3 SWAP2 POP POP JUMP JUMPDEST PUSH0 PUSH1 0xA0 DUP4 ADD PUSH0 DUP4 ADD MLOAD PUSH2 0x15C6 PUSH0 DUP7 ADD DUP3 PUSH2 0x126F JUMP JUMPDEST POP PUSH1 0x20 DUP4 ADD MLOAD PUSH2 0x15D9 PUSH1 0x20 DUP7 ADD DUP3 PUSH2 0x127E JUMP JUMPDEST POP PUSH1 0x40 DUP4 ADD MLOAD DUP5 DUP3 SUB PUSH1 0x40 DUP7 ADD MSTORE PUSH2 0x15F1 DUP3 DUP3 PUSH2 0x129D JUMP JUMPDEST SWAP2 POP POP PUSH1 0x60 DUP4 ADD MLOAD PUSH2 0x1606 PUSH1 0x60 DUP7 ADD DUP3 PUSH2 0x126F JUMP JUMPDEST POP PUSH1 0x80 DUP4 ADD MLOAD PUSH2 0x1619 PUSH1 0x80 DUP7 ADD DUP3 PUSH2 0x126F JUMP JUMPDEST POP DUP1 SWAP2 POP POP SWAP3 SWAP2 POP POP JUMP JUMPDEST PUSH0 PUSH1 0x20 DUP3 ADD SWAP1 POP DUP2 DUP2 SUB PUSH0 DUP4 ADD MSTORE PUSH2 0x163C DUP2 DUP5 PUSH2 0x15B1 JUMP JUMPDEST SWAP1 POP SWAP3 SWAP2 POP POP JUMP JUMPDEST PUSH0 PUSH1 0x20 DUP3 DUP5 SUB SLT ISZERO PUSH2 0x1659 JUMPI PUSH2 0x1658 PUSH2 0x108D JUMP JUMPDEST JUMPDEST PUSH0 PUSH2 0x1666 DUP5 DUP3 DUP6 ADD PUSH2 0x10DB JUMP JUMPDEST SWAP2 POP POP SWAP3 SWAP2 POP POP JUMP JUMPDEST PUSH32 0x4E487B7100000000000000000000000000000000000000000000000000000000 PUSH0 MSTORE PUSH1 0x22 PUSH1 0x4 MSTORE PUSH1 0x24 PUSH0 REVERT JUMPDEST PUSH0 PUSH1 0x2 DUP3 DIV SWAP1 POP PUSH1 0x1 DUP3 AND DUP1 PUSH2 0x16B3 JUMPI PUSH1 0x7F DUP3 AND SWAP2 POP JUMPDEST PUSH1 0x20 DUP3 LT DUP2 SUB PUSH2 0x16C6 JUMPI PUSH2 0x16C5 PUSH2 0x166F JUMP JUMPDEST JUMPDEST POP SWAP2 SWAP1 POP JUMP JUMPDEST PUSH0 DUP1 REVERT JUMPDEST PUSH0 DUP1 REVERT JUMPDEST PUSH0 PUSH2 0x16E6 PUSH2 0x16E1 DUP5 PUSH2 0x147A JUMP JUMPDEST PUSH2 0x1460 JUMP JUMPDEST SWAP1 POP DUP3 DUP2 MSTORE PUSH1 0x20 DUP2 ADD DUP5 DUP5 DUP5 ADD GT ISZERO PUSH2 0x1702 JUMPI PUSH2 0x1701 PUSH2 0x13FE JUMP JUMPDEST JUMPDEST PUSH2 0x170D DUP5 DUP3 DUP6 PUSH2 0x1198 JUMP JUMPDEST POP SWAP4 SWAP3 POP POP POP JUMP JUMPDEST PUSH0 DUP3 PUSH1 0x1F DUP4 ADD SLT PUSH2 0x1729 JUMPI PUSH2 0x1728 PUSH2 0x13FA JUMP JUMPDEST JUMPDEST DUP2 MLOAD PUSH2 0x1739 DUP5 DUP3 PUSH1 0x20 DUP7 ADD PUSH2 0x16D4 JUMP JUMPDEST SWAP2 POP POP SWAP3 SWAP2 POP POP JUMP JUMPDEST PUSH0 PUSH1 0x40 DUP3 DUP5 SUB SLT ISZERO PUSH2 0x1757 JUMPI PUSH2 0x1756 PUSH2 0x16CC JUMP JUMPDEST JUMPDEST PUSH2 0x1761 PUSH1 0x40 PUSH2 0x1460 JUMP JUMPDEST SWAP1 POP PUSH0 DUP3 ADD MLOAD PUSH8 0xFFFFFFFFFFFFFFFF DUP2 GT ISZERO PUSH2 0x1780 JUMPI PUSH2 0x177F PUSH2 0x16D0 JUMP JUMPDEST JUMPDEST PUSH2 0x178C DUP5 DUP3 DUP6 ADD PUSH2 0x1715 JUMP JUMPDEST PUSH0 DUP4 ADD MSTORE POP PUSH1 0x20 DUP3 ADD MLOAD PUSH8 0xFFFFFFFFFFFFFFFF DUP2 GT ISZERO PUSH2 0x17AF JUMPI PUSH2 0x17AE PUSH2 0x16D0 JUMP JUMPDEST JUMPDEST PUSH2 0x17BB DUP5 DUP3 DUP6 ADD PUSH2 0x1715 JUMP JUMPDEST PUSH1 0x20 DUP4 ADD MSTORE POP SWAP3 SWAP2 POP POP JUMP JUMPDEST PUSH0 PUSH1 0x20 DUP3 DUP5 SUB SLT ISZERO PUSH2 0x17DC JUMPI PUSH2 0x17DB PUSH2 0x108D JUMP JUMPDEST JUMPDEST PUSH0 DUP3 ADD MLOAD PUSH8 0xFFFFFFFFFFFFFFFF DUP2 GT ISZERO PUSH2 0x17F9 JUMPI PUSH2 0x17F8 PUSH2 0x1091 JUMP JUMPDEST JUMPDEST PUSH2 0x1805 DUP5 DUP3 DUP6 ADD PUSH2 0x1742 JUMP JUMPDEST SWAP2 POP POP SWAP3 SWAP2 POP POP JUMP JUMPDEST PUSH32 0x55534552204E4F54205245474953544552454400000000000000000000000000 PUSH0 DUP3 ADD MSTORE POP JUMP JUMPDEST PUSH0 PUSH2 0x1842 PUSH1 0x13 DUP4 PUSH2 0x1188 JUMP JUMPDEST SWAP2 POP PUSH2 0x184D DUP3 PUSH2 0x180E JUMP JUMPDEST PUSH1 0x20 DUP3 ADD SWAP1 POP SWAP2 SWAP1 POP JUMP JUMPDEST PUSH0 PUSH1 0x20 DUP3 ADD SWAP1 POP DUP2 DUP2 SUB PUSH0 DUP4 ADD MSTORE PUSH2 0x186F DUP2 PUSH2 0x1836 JUMP JUMPDEST SWAP1 POP SWAP2 SWAP1 POP JUMP JUMPDEST PUSH32 0x4E487B7100000000000000000000000000000000000000000000000000000000 PUSH0 MSTORE PUSH1 0x32 PUSH1 0x4 MSTORE PUSH1 0x24 PUSH0 REVERT JUMPDEST PUSH32 0x547765657420646F6573206E6F74206578697374000000000000000000000000 PUSH0 DUP3 ADD MSTORE POP JUMP JUMPDEST PUSH0 PUSH2 0x18D7 PUSH1 0x14 DUP4 PUSH2 0x1188 JUMP JUMPDEST SWAP2 POP PUSH2 0x18E2 DUP3 PUSH2 0x18A3 JUMP JUMPDEST PUSH1 0x20 DUP3 ADD SWAP1 POP SWAP2 SWAP1 POP JUMP JUMPDEST PUSH0 PUSH1 0x20 DUP3 ADD SWAP1 POP DUP2 DUP2 SUB PUSH0 DUP4 ADD MSTORE PUSH2 0x1904 DUP2 PUSH2 0x18CB JUMP JUMPDEST SWAP1 POP SWAP2 SWAP1 POP JUMP JUMPDEST PUSH32 0x4E487B7100000000000000000000000000000000000000000000000000000000 PUSH0 MSTORE PUSH1 0x11 PUSH1 0x4 MSTORE PUSH1 0x24 PUSH0 REVERT JUMPDEST PUSH0 PUSH2 0x1942 DUP3 PUSH2 0x10EF JUMP JUMPDEST SWAP2 POP PUSH32 0xFFFFFFFFFFFFFFFFFFFFFFFFFFFFFFFFFFFFFFFFFFFFFFFFFFFFFFFFFFFFFFFF DUP3 SUB PUSH2 0x1974 JUMPI PUSH2 0x1973 PUSH2 0x190B JUMP JUMPDEST JUMPDEST PUSH1 0x1 DUP3 ADD SWAP1 POP SWAP2 SWAP1 POP JUMP JUMPDEST PUSH0 PUSH1 0x80 DUP3 ADD SWAP1 POP PUSH2 0x1992 PUSH0 DUP4 ADD DUP8 PUSH2 0x116F JUMP JUMPDEST PUSH2 0x199F PUSH1 0x20 DUP4 ADD DUP7 PUSH2 0x1160 JUMP JUMPDEST PUSH2 0x19AC PUSH1 0x40 DUP4 ADD DUP6 PUSH2 0x116F JUMP JUMPDEST PUSH2 0x19B9 PUSH1 0x60 DUP4 ADD DUP5 PUSH2 0x1160 JUMP JUMPDEST SWAP6 SWAP5 POP POP POP POP POP JUMP JUMPDEST PUSH32 0x547765657420697320746F6F206C6F6E67000000000000000000000000000000 PUSH0 DUP3 ADD MSTORE POP JUMP JUMPDEST PUSH0 PUSH2 0x19F6 PUSH1 0x11 DUP4 PUSH2 0x1188 JUMP JUMPDEST SWAP2 POP PUSH2 0x1A01 DUP3 PUSH2 0x19C2 JUMP JUMPDEST PUSH1 0x20 DUP3 ADD SWAP1 POP SWAP2 SWAP1 POP JUMP JUMPDEST PUSH0 PUSH1 0x20 DUP3 ADD SWAP1 POP DUP2 DUP2 SUB PUSH0 DUP4 ADD MSTORE PUSH2 0x1A23 DUP2 PUSH2 0x19EA JUMP JUMPDEST SWAP1 POP SWAP2 SWAP1 POP JUMP JUMPDEST PUSH0 DUP2 SWAP1 POP DUP2 PUSH0 MSTORE PUSH1 0x20 PUSH0 KECCAK256 SWAP1 POP SWAP2 SWAP1 POP JUMP JUMPDEST PUSH0 PUSH1 0x20 PUSH1 0x1F DUP4 ADD DIV SWAP1 POP SWAP2 SWAP1 POP JUMP JUMPDEST PUSH0 DUP3 DUP3 SHL SWAP1 POP SWAP3 SWAP2 POP POP JUMP JUMPDEST PUSH0 PUSH1 0x8 DUP4 MUL PUSH2 0x1A86 PUSH32 0xFFFFFFFFFFFFFFFFFFFFFFFFFFFFFFFFFFFFFFFFFFFFFFFFFFFFFFFFFFFFFFFF DUP3 PUSH2 0x1A4B JUMP JUMPDEST PUSH2 0x1A90 DUP7 DUP4 PUSH2 0x1A4B JUMP JUMPDEST SWAP6 POP DUP1 NOT DUP5 AND SWAP4 POP DUP1 DUP7 AND DUP5 OR SWAP3 POP POP POP SWAP4 SWAP3 POP POP POP JUMP JUMPDEST PUSH0 DUP2 SWAP1 POP SWAP2 SWAP1 POP JUMP JUMPDEST PUSH0 PUSH2 0x1ACB PUSH2 0x1AC6 PUSH2 0x1AC1 DUP5 PUSH2 0x10EF JUMP JUMPDEST PUSH2 0x1AA8 JUMP JUMPDEST PUSH2 0x10EF JUMP JUMPDEST SWAP1 POP SWAP2 SWAP1 POP JUMP JUMPDEST PUSH0 DUP2 SWAP1 POP SWAP2 SWAP1 POP JUMP JUMPDEST PUSH2 0x1AE4 DUP4 PUSH2 0x1AB1 JUMP JUMPDEST PUSH2 0x1AF8 PUSH2 0x1AF0 DUP3 PUSH2 0x1AD2 JUMP JUMPDEST DUP5 DUP5 SLOAD PUSH2 0x1A57 JUMP JUMPDEST DUP3 SSTORE POP POP POP POP JUMP JUMPDEST PUSH0 SWAP1 JUMP JUMPDEST PUSH2 0x1B0C PUSH2 0x1B00 JUMP JUMPDEST PUSH2 0x1B17 DUP2 DUP5 DUP5 PUSH2 0x1ADB JUMP JUMPDEST POP POP POP JUMP JUMPDEST JUMPDEST DUP2 DUP2 LT ISZERO PUSH2 0x1B3A JUMPI PUSH2 0x1B2F PUSH0 DUP3 PUSH2 0x1B04 JUMP JUMPDEST PUSH1 0x1 DUP2 ADD SWAP1 POP PUSH2 0x1B1D JUMP JUMPDEST POP POP JUMP JUMPDEST PUSH1 0x1F DUP3 GT ISZERO PUSH2 0x1B7F JUMPI PUSH2 0x1B50 DUP2 PUSH2 0x1A2A JUMP JUMPDEST PUSH2 0x1B59 DUP5 PUSH2 0x1A3C JUMP JUMPDEST DUP2 ADD PUSH1 0x20 DUP6 LT ISZERO PUSH2 0x1B68 JUMPI DUP2 SWAP1 POP JUMPDEST PUSH2 0x1B7C PUSH2 0x1B74 DUP6 PUSH2 0x1A3C JUMP JUMPDEST DUP4 ADD DUP3 PUSH2 0x1B1C JUMP JUMPDEST POP POP JUMPDEST POP POP POP JUMP JUMPDEST PUSH0 DUP3 DUP3 SHR SWAP1 POP SWAP3 SWAP2 POP POP JUMP JUMPDEST PUSH0 PUSH2 0x1B9F PUSH0 NOT DUP5 PUSH1 0x8 MUL PUSH2 0x1B84 JUMP JUMPDEST NOT DUP1 DUP4 AND SWAP2 POP POP SWAP3 SWAP2 POP POP JUMP JUMPDEST PUSH0 PUSH2 0x1BB7 DUP4 DUP4 PUSH2 0x1B90 JUMP JUMPDEST SWAP2 POP DUP3 PUSH1 0x2 MUL DUP3 OR SWAP1 POP SWAP3 SWAP2 POP POP JUMP JUMPDEST PUSH2 0x1BD0 DUP3 PUSH2 0x117E JUMP JUMPDEST PUSH8 0xFFFFFFFFFFFFFFFF DUP2 GT ISZERO PUSH2 0x1BE9 JUMPI PUSH2 0x1BE8 PUSH2 0x1402 JUMP JUMPDEST JUMPDEST PUSH2 0x1BF3 DUP3 SLOAD PUSH2 0x169C JUMP JUMPDEST PUSH2 0x1BFE DUP3 DUP3 DUP6 PUSH2 0x1B3E JUMP JUMPDEST PUSH0 PUSH1 0x20 SWAP1 POP PUSH1 0x1F DUP4 GT PUSH1 0x1 DUP2 EQ PUSH2 0x1C2F JUMPI PUSH0 DUP5 ISZERO PUSH2 0x1C1D JUMPI DUP3 DUP8 ADD MLOAD SWAP1 POP JUMPDEST PUSH2 0x1C27 DUP6 DUP3 PUSH2 0x1BAC JUMP JUMPDEST DUP7 SSTORE POP PUSH2 0x1C8E JUMP JUMPDEST PUSH1 0x1F NOT DUP5 AND PUSH2 0x1C3D DUP7 PUSH2 0x1A2A JUMP JUMPDEST PUSH0 JUMPDEST DUP3 DUP2 LT ISZERO PUSH2 0x1C64 JUMPI DUP5 DUP10 ADD MLOAD DUP3 SSTORE PUSH1 0x1 DUP3 ADD SWAP2 POP PUSH1 0x20 DUP6 ADD SWAP5 POP PUSH1 0x20 DUP2 ADD SWAP1 POP PUSH2 0x1C3F JUMP JUMPDEST DUP7 DUP4 LT ISZERO PUSH2 0x1C81 JUMPI DUP5 DUP10 ADD MLOAD PUSH2 0x1C7D PUSH1 0x1F DUP10 AND DUP3 PUSH2 0x1B90 JUMP JUMPDEST DUP4 SSTORE POP JUMPDEST PUSH1 0x1 PUSH1 0x2 DUP9 MUL ADD DUP9 SSTORE POP POP POP JUMPDEST POP POP POP POP POP POP JUMP JUMPDEST PUSH32 0x547765657420686173206E6F206C696B65730000000000000000000000000000 PUSH0 DUP3 ADD MSTORE POP JUMP JUMPDEST PUSH0 PUSH2 0x1CCA PUSH1 0x12 DUP4 PUSH2 0x1188 JUMP JUMPDEST SWAP2 POP PUSH2 0x1CD5 DUP3 PUSH2 0x1C96 JUMP JUMPDEST PUSH1 0x20 DUP3 ADD SWAP1 POP SWAP2 SWAP1 POP JUMP JUMPDEST PUSH0 PUSH1 0x20 DUP3 ADD SWAP1 POP DUP2 DUP2 SUB PUSH0 DUP4 ADD MSTORE PUSH2 0x1CF7 DUP2 PUSH2 0x1CBE JUMP JUMPDEST SWAP1 POP SWAP2 SWAP1 POP JUMP JUMPDEST PUSH0 PUSH2 0x1D08 DUP3 PUSH2 0x10EF JUMP JUMPDEST SWAP2 POP PUSH0 DUP3 SUB PUSH2 0x1D1A JUMPI PUSH2 0x1D19 PUSH2 0x190B JUMP JUMPDEST JUMPDEST PUSH1 0x1 DUP3 SUB SWAP1 POP SWAP2 SWAP1 POP JUMP INVALID LOG2 PUSH5 0x6970667358 0x22 SLT KECCAK256 TSTORE 0xD8 0xE8 0xED PUSH5 0xCFACA37E09 MULMOD 0xEC 0xC0 0xDB SWAP4 0xB9 0xA9 0xA7 0x21 PUSH28 0xB5B8411BD46924B9A707AF0264736F6C634300081A00330000000000 "
				},
				"gasEstimates": {
					"creation": {
						"codeDepositCost": "1503000",
						"executionCost": "infinite",
						"totalCost": "infinite"
					},
					"external": {
						"changeTweetLength(uint256)": "infinite",
						"createTweet(string)": "infinite",
						"getAllTweet()": "infinite",
						"getTweet(uint256)": "infinite",
						"likeTweet(address,uint256)": "infinite",
						"owner()": "2537",
						"renounceOwnership()": "infinite",
						"transferOwnership(address)": "infinite",
						"tweets(address,uint256)": "infinite",
						"unLikeTweet(address,uint256)": "infinite"
					}
				},
				"methodIdentifiers": {
					"changeTweetLength(uint256)": "888a7880",
					"createTweet(string)": "7c9cd2bc",
					"getAllTweet()": "675e0fb7",
					"getTweet(uint256)": "c3ad5ecb",
					"likeTweet(address,uint256)": "63378216",
					"owner()": "8da5cb5b",
					"renounceOwnership()": "715018a6",
					"transferOwnership(address)": "f2fde38b",
					"tweets(address,uint256)": "05a1b4a9",
					"unLikeTweet(address,uint256)": "9ef8633f"
				}
			},
			"storageLayout": {
				"storage": [
					{
						"astId": 8,
						"contract": "contracts/Twitter-main.sol:Twitter",
						"label": "_owner",
						"offset": 0,
						"slot": "0",
						"type": "t_address"
					},
					{
						"astId": 198,
						"contract": "contracts/Twitter-main.sol:Twitter",
						"label": "MAX_TWEET_LENGTH",
						"offset": 0,
						"slot": "1",
						"type": "t_uint256"
					},
					{
						"astId": 215,
						"contract": "contracts/Twitter-main.sol:Twitter",
						"label": "tweets",
						"offset": 0,
						"slot": "2",
						"type": "t_mapping(t_address,t_array(t_struct(Tweet)209_storage)dyn_storage)"
					},
					{
						"astId": 218,
						"contract": "contracts/Twitter-main.sol:Twitter",
						"label": "profileContract",
						"offset": 0,
						"slot": "3",
						"type": "t_contract(IProfile)194"
					}
				],
				"types": {
					"t_address": {
						"encoding": "inplace",
						"label": "address",
						"numberOfBytes": "20"
					},
					"t_array(t_struct(Tweet)209_storage)dyn_storage": {
						"base": "t_struct(Tweet)209_storage",
						"encoding": "dynamic_array",
						"label": "struct Twitter.Tweet[]",
						"numberOfBytes": "32"
					},
					"t_contract(IProfile)194": {
						"encoding": "inplace",
						"label": "contract IProfile",
						"numberOfBytes": "20"
					},
					"t_mapping(t_address,t_array(t_struct(Tweet)209_storage)dyn_storage)": {
						"encoding": "mapping",
						"key": "t_address",
						"label": "mapping(address => struct Twitter.Tweet[])",
						"numberOfBytes": "32",
						"value": "t_array(t_struct(Tweet)209_storage)dyn_storage"
					},
					"t_string_storage": {
						"encoding": "bytes",
						"label": "string",
						"numberOfBytes": "32"
					},
					"t_struct(Tweet)209_storage": {
						"encoding": "inplace",
						"label": "struct Twitter.Tweet",
						"members": [
							{
								"astId": 200,
								"contract": "contracts/Twitter-main.sol:Twitter",
								"label": "id",
								"offset": 0,
								"slot": "0",
								"type": "t_uint256"
							},
							{
								"astId": 202,
								"contract": "contracts/Twitter-main.sol:Twitter",
								"label": "auther",
								"offset": 0,
								"slot": "1",
								"type": "t_address"
							},
							{
								"astId": 204,
								"contract": "contracts/Twitter-main.sol:Twitter",
								"label": "content",
								"offset": 0,
								"slot": "2",
								"type": "t_string_storage"
							},
							{
								"astId": 206,
								"contract": "contracts/Twitter-main.sol:Twitter",
								"label": "timestamp",
								"offset": 0,
								"slot": "3",
								"type": "t_uint256"
							},
							{
								"astId": 208,
								"contract": "contracts/Twitter-main.sol:Twitter",
								"label": "likes",
								"offset": 0,
								"slot": "4",
								"type": "t_uint256"
							}
						],
						"numberOfBytes": "160"
					},
					"t_uint256": {
						"encoding": "inplace",
						"label": "uint256",
						"numberOfBytes": "32"
					}
				}
			},
			"userdoc": {
				"kind": "user",
				"methods": {},
				"version": 1
			}
		}
	}
}